:020000040800F2
:1000000008400020291700084D1700084F17000866
:1000100053170008571700085B170008000000007E
:1000200000000000000000000000000001010008C6
:100030005F17000800000000450100081B3F000892
:100040004317000843170008431700084317000828
:100050004317000843170008431700084317000818
:100060004317000843170008431700084317000808
:10007000453A000843170008F32700084317000813
:1000800043170008431700084317000843170008E8
:1000900043170008431700084317000861170008BA
:1000A00043170008431700084317000843170008C8
:1000B00043170008431700084317000843170008B8
:1000C00043170008431700084317000843170008A8
:1000D000431700081728000843170008653A00086E
:1000E000431700084317000843170008DFF80CD037
:1000F0000AF05CFF00480047DB18000808400020B9
:10010000204B19680868B0E8F00F80F30988BFF346
:100110006F8F4FF0000080F311884EF00D0E704786
:100120000000000006480068006880F3088862B696
:1001300061B6BFF34F8FBFF36F8F00DF00BF00BF0B
:1001400008ED00E0EFF30980BFF36F8F0D4B1A68E5
:1001500020E9F00F106008B54FF0100080F311880F
:1001600005F06FF84FF0000080F31188BDE80840FB
:1001700019680868B0E8F00F80F30988BFF36F8F43
:10018000704700BF00020020EFF311804FF0100114
:1001900081F31188704780F311887047EFF3058071
:1001A000704700000CB50020019000906C4800687A
:1001B00040F480306A49086000BF6948006800F474
:1001C000003000900198401C0190009818B90198E7
:1001D000B0F5A06FF1D16248006800F4003010B1B2
:1001E0000120009001E0002000900098012843D1F8
:1001F0005C48006840F010005A49086008460068F2
:1002000020F0030008600846006840F00200086023
:10021000534840685249486008464068486008466C
:10022000406840F4806048600846406820F47C10D4
:1002300048600846406840F4E81048600846006896
:1002400040F08070086000BF4548006800F0007012
:100250000028F9D04248406820F003004049486037
:100260000846406840F00200486000BF3C484068D3
:1002700000F00C000828F9D10CBD10B5FFF792FF73
:1002800010BD10B53648006840F0010034490860E0
:1002900008464068344908403149486008460068CB
:1002A000324908402E4908600846006820F4802042
:1002B00008600846406820F4FE0048604FF41F00C4
:1002C0008860FFF7DAFF4FF000602949086010BD31
:1002D00010B5002100200022214B5B6803F00C01C7
:1002E00021B1042906D0082928D107E0214B224C4E
:1002F000236027E01F4B204C236023E0184B5B68F2
:1003000003F47010164B5B6803F48032022303EB96
:10031000904022B9194B4343174C23600DE0104B1A
:100320005B6803F4003323B1144B4343124C236046
:1003300003E0104B4343104C236003E00D4B0E4C85
:10034000236000BF00BF064B5B68C3F303130C4C74
:10035000E15C094B1B68CB40074C236010BD0000DB
:1003600000100240002002400000FFF8FFFFF6FEF0
:1003700008ED00E000127A000000002000093D00B6
:100380000400002031490143314A1160704770B5C3
:10039000002100230F22C47804B32D4C246804F4F8
:1003A000E064C4F5E064210AC1F10403CA40447862
:1003B00004FA03F18478144021430901254C06789E
:1003C000A155047804F01F050124AC4005786D1197
:1003D000AD0005F1E025C5F8004109E0047804F01E
:1003E0001F050124AC401C4D0678761145F82640C7
:1003F00070BD1A4A0A400243154B1B1F1A60704712
:1004000039B1134A121D12680243114B1B1D1A60A9
:1004100006E00F4A121D126882430D4B1B1D1A6025
:100420007047042808D14FF0E021096941F0040128
:100430004FF0E022116107E04FF0E021096921F05F
:1004400004014FF0E0221161704700000000FA053E
:100450000CED00E000E400E080E100E080FFFF1F21
:1004600010B50446FA48844208D10121401500F035
:100470000DFF0021601500F009FF17E0F5488442E8
:1004800008D10121001500F001FF0021201500F026
:10049000FDFE0BE0F048844208D10121C80300F0C2
:1004A000F5FE00214FF4004000F0F0FE10BD30B525
:1004B0000246002000235068E84C20400D790C686B
:1004C00044EA0524204350609068E54C2040D1E97F
:1004D00002542C434D7944EA450420439060D06A8D
:1004E00020F470000C7C641EE4B2234340EA035005
:1004F000D06230BD00210160017141718160C16035
:1005000001210174704721B1826842F001028260CA
:1005100003E0826822F001028260704721B18268A4
:1005200042F48072826003E0826822F4807282600A
:10053000704710B50023CBB21AB144681C43446025
:1005400002E044689C43446010BD816841F00801AA
:1005500081607047014600208A6802F008020AB1F3
:10056000012000E000207047816841F004018160B3
:100570007047014600208A6802F004020AB1012097
:1005800000E00020704721B1826842F4A00282603E
:1005900003E0826822F4A0028260704701460020D6
:1005A0008A6802F480020AB1012000E0002070474E
:1005B00010B50A4600210023416821F46041531E12
:1005C00041EA4331416010BD21B1426842F400620A
:1005D000426003E0426822F4006242607047F0B576
:1005E00004460D4600200021092D11DDE068A5F12B
:1005F0000A0606EB4607072606FA07F18843A5F127
:100600000A0606EB460603FA06F10843E0600CE032
:10061000206905EB4507072606FA07F1884305EB35
:10062000450603FA06F108432061072A0FDA606BDA
:10063000561E06EB86071F2606FA07F18843561E4C
:1006400006EB860605FA06F10843606322E00D2AF0
:100650000FDA206BD61F06EB86071F2606FA07F176
:100660008843D61F06EB860605FA06F10843206389
:1006700010E0E06AA2F10D0606EB86071F2606FAD7
:1006800007F18843A2F10D0606EB860605FA06F18E
:100690000843E062F0BD21B1826842F480128260BA
:1006A00003E0826822F48012826070470146C86CC1
:1006B00080B2704766484C300068704721B142688C
:1006C00042F48062426003E0426822F48062426049
:1006D000704721B1426842F48052426003E04268B0
:1006E00022F48052426070470A460021816821F45A
:1006F000E04111438160704721B1826842F40042B9
:10070000826003E0826822F400428260704721B177
:10071000826842F40212826003E0826822F40212CC
:1007200082607047014600208A6802F400120AB114
:10073000012000E000207047F0B504461546002077
:1007400000220026092911DDE068A1F10A0707EB64
:10075000470C072707FA0CF29043A1F10A0707EBB1
:10076000470703FA07F21043E0600CE0206901EB51
:10077000410C072707FA0CF2904301EB410703FAFB
:1007800007F210432061A06BC0F30156EF1C06F185
:10079000010CA7EB0C0707EB870C1F2707FA0CF2DD
:1007A0009043EF1C06F1010CA7EB0C0707EB870742
:1007B00001FA07F21043A063F0BD10B50A4600210C
:1007C0000023816B21F44011531E41EA03518163E0
:1007D00010BD08B5002300930090009B0B440093CC
:1007E000009B1A6008BD08B50246002000900092E8
:1007F00001F12800009B184400900098006880B226
:1008000008BD0A4600214168164B1940114341605A
:1008100070474162826270470A460021416821F0B8
:100820001F0111434160704740B10949083109680F
:1008300041F40001064A0832116007E0044908311A
:10084000096821F40001024A083211607047000073
:100850000024014000280140003C0140FFFEF0FF61
:10086000FDF7F1FFFFFD3FFF0246002013680B403C
:100870000BB1012000E000207047CA4302607047BE
:1008800070B502460020002300240B125568CEB23A
:1008900005EA060415681D4015B10CB1012000E001
:1008A000002070BD00220A12D3430360704700008D
:1008B00001684FF6FE721140016000210160416045
:1008C0008160C1608D49884208D18C4908394968E6
:1008D00041F00F01894A083A51608AE08749143192
:1008E000884208D185490839496841F0F001834AB6
:1008F000083A51607DE081492831884208D17F491A
:100900000839496841F470617C4A083A516070E0E6
:100910007A493C31884208D178490839496841F41C
:100920007041764A083A516063E074495031884218
:1009300008D172490839496841F470216F4A083A70
:10094000516056E06D496431884208D16B490839DD
:10095000496841F47001694A083A516049E06749C1
:100960007831884208D165490839496841F0706199
:10097000624A083A51603CE06149884206D1011F51
:10098000096841F00F01021F116032E05C49143127
:10099000884208D15A49091F096841F0F001584AB4
:1009A000121F116025E056492831884208D1544968
:1009B000091F096841F47061514A121F116018E063
:1009C0004F493C31884208D14D49091F096841F41B
:1009D00070414B4A121F11600BE049495031884267
:1009E00007D14749091F096841F47021444A121F81
:1009F0001160704710B50022026847F6F0739A4301
:100A00000C6A8B6823430C6923434C6923438C692C
:100A10002343CC6923434C6A23438C6A23431A4300
:100A20000260CB6843600B6883604B68C36010BD95
:100A30000021016041608160C160016141618161AB
:100A4000C161016241628162704721B1026842F076
:100A50000102026004E002684FF6FE731A40026071
:100A600070471AB103680B43036002E003688B43CD
:100A700003607047416070470146486880B2704724
:100A800001460020002201F080531BB11C4B083BA3
:100A90001A6802E0194B083B1A6802EA01030BB11D
:100AA000012000E00020704700F0805119B1144986
:100AB000091F086002E01149083948607047014683
:100AC0000020002201F080531BB10D4B083B1A6837
:100AD00002E00A4B083B1A6802EA01030BB101204D
:100AE00000E00020704700F0805119B10449091F4F
:100AF000086002E001490839486070470800024078
:100B000008040240002044490860091D0860091DCE
:100B10000860091D086041483F491431086070476A
:100B200000213D498279002A3AD00A4612680368BA
:100B30009A430B461A600A1D126803689A430B1DFC
:100B40001A60027911440A6803681A430A60324A3B
:100B50000832126803689A432F4B08331A601A1D33
:100B6000126803689A432C4B0C331A604279102A9E
:100B70000ED11A1F126803681A43274B08331A60F4
:100B80001A1D126803681A43234B0C331A600DE0D8
:100B90002149427911440A6803681A430A6005E052
:100BA000027911440A6803689A430A607047002179
:100BB000016001710C21417100218171704716495A
:100BC000103109680143144A103211607047014620
:100BD0000020114A143212680A400AB1012000E0D4
:100BE000002070470C49143108607047014600200E
:100BF0000022094B1B6803EA0102074B14331B68F0
:100C00000B4013B10AB1012000E0002070470249F7
:100C1000143108607047000000040140FFFF0F001E
:100C200010B50446CC48844208D10121042000F0CC
:100C30002DFB0021042000F029FB46E0C748844238
:100C400008D10121082000F021FB0021082000F03C
:100C50001DFB3AE0C248844208D10121102000F077
:100C600015FB0021102000F011FB2EE0BD4884424E
:100C700008D10121202000F009FB0021202000F0F4
:100C800005FB22E0B848844208D10121402000F051
:100C9000FDFA0021402000F0F9FA16E0B348844242
:100CA00008D10121802000F0F1FA0021802000F01D
:100CB000EDFA0AE0AE48844207D10121801500F028
:100CC000E5FA0021A01500F0E1FA10BD10B50121F0
:100CD000084600F0DBFA0021012000F0D7FA10BD31
:100CE0002DE9F041024600250026002000230024C3
:100CF000002791F803C00CF00F0591F803C00CF029
:100D0000100CBCF1000F03D091F802C04CEA0505AD
:100D100091F800C0BCF1000F31D0146800202BE026
:100D20004FF0010C0CFA00F3B1F800C00CEA030616
:100D30009E4220D183004FF00F0C0CFA03F7BC4306
:100D400005FA03FC4CEA040491F803C0BCF1280F37
:100D500006D14FF0010C0CFA00FCC2F814C00AE0F6
:100D600091F803C0BCF1480F05D14FF0010C0CFA0B
:100D700000FCC2F810C0401C0828D1D31460B1F8A0
:100D800000C0BCF1FF0F34DD546800202EE000F1FC
:100D9000080C4FF0010808FA0CF3B1F800C00CEA97
:100DA00003069E4221D183004FF00F0C0CFA03F78B
:100DB000BC4305FA03FC4CEA040491F803C0BCF1FF
:100DC000280F05D100F1080C08FA0CF8C2F81480BD
:100DD00091F803C0BCF1480F07D100F1080C4FF0A7
:100DE000010808FA0CF8C2F81080401C0828CED37D
:100DF0005460BDE8F0814FF6FF71018002218170DF
:100E00000421C17070470246002093680B400BB16B
:100E1000012000E0002070470146886880B27047DA
:100E200002460020D3680B400BB1012000E00020F7
:100E300070470146C86880B27047016170474161E0
:100E400070470AB1016100E041617047C1607047BD
:100E50004FF480320A4382618161826182698269D2
:100E6000704702460020434B18684FF680731840C5
:100E700040EA021008433F4B186070473E49C86182
:100E80007047F0B50A46002300240021002500F039
:100E90000046B6F1004F02D1364EF16901E0354E01
:100EA0007168C0F3034583B200F44016B6F5401FE5
:100EB00008D121F070612F4E766826F070662D4FB4
:100EC0007E6012E000F48016B6F5801F06D103267E
:100ED00006FA05F4A14341F0706106E0460D3601C3
:100EE00003FA06F6B14341F0706122B1460D3601B6
:100EF00003FA06F6314300F00046B6F1004F02D186
:100F00001C4EF16101E01B4E7160F0BD30B5002256
:100F10008B071C0F0F2303FA04F2164B08338C10B7
:100F200053F824309343134C08348D1044F8253083
:100F300023468C1053F824308C07240F00FA04F455
:100F400023430C4C08348D1044F8253030BD0A4939
:100F5000DC3108607047000000080140000C0140CF
:100F6000001001400014014000180140001C014025
:100F7000002001400000014000002042DF480068DE
:100F800040F00100DD49086008464068DC4908403F
:100F9000DA49486008460068DA490840D7490860DD
:100FA0000846006820F4802008600846406820F465
:100FB000FE0048604FF41F0088607047CF49096801
:100FC00021F48031CD4A11601146096821F4802155
:100FD0001160B0F5803F03D0B0F5802F0ED106E050
:100FE000C649096841F48031C44A116007E0C34929
:100FF000096841F4A021C14A116000E000BF00BFB0
:10100000704710B501460022002300204A11012A32
:1010100002D1BA4C236806E0022A02D1B74C236AF7
:1010200001E0B64C636A01F01F02012494401C40A9
:101030000CB1012000E0002010BD38B50020009068
:101040000024002500BF3120FFF7DBFF0546009894
:10105000401C00900098B0F5A06F01D0002DF2D098
:101060003120FFF7CEFF08B1012400E00024204624
:1010700038BD01460020A14A106820F0F80040EA7F
:10108000C10010607047A049086070470246002008
:101090009A4B586820F47C1042EA01031843974B9E
:1010A0005860704798490866704701460020934A87
:1010B000506820F003000843506070478F48406834
:1010C00000F00C007047014600208C4A506820F068
:1010D000F00008435060704701460020874A50687E
:1010E00020F4E06008435060704701460020834AC6
:1010F000506820F4605040EAC1005060704729B148
:101100007E4A527A02437D4B5A7204E07B4A527AFD
:1011100082437A4B5A7270477B49D83108607047D6
:1011200001460020754A506820F440400843506052
:1011300070470021714A20321170704A82F82010E5
:10114000012802D004280AD104E001216B4A203290
:10115000117005E00521694A2032117000E000BFDE
:1011600000BF70476949086070476449096A0143D4
:10117000624A11627047654944390860704730B56A
:1011800000210022002400235C4D6D6805F00C0155
:1011900021B1042905D0082923D105E05C4D056063
:1011A00022E05B4D05601FE0544D6D6805F4701240
:1011B000524D6D6805F48034022505EB92421CB94E
:1011C000544D554305600BE04C4D6D6805F40035FA
:1011D0001DB1504D5543056002E04D4D554305602E
:1011E00002E04B4D056000BF00BF444D6D6805F047
:1011F000F0010909484D6B5C0568DD4045603F4DD5
:101200006D6805F4E061090A434D6B5C4568DD409B
:1012100085603A4D6D6805F46051C90A3E4D6B5CBE
:101220004568DD40C560354D6D6805F44041890B6A
:101230003A4D6B5CC568B5FBF3F5056130BD29B16E
:101240002E4A526902432D4B5A6104E02B4A5269DF
:1012500082432A4B5A61704729B1284A9269024356
:10126000264B9A6104E0254A92698243234B9A6196
:10127000704729B1214AD2690243204BDA6104E068
:101280001E4AD26982431D4BDA61704729B11B4A5D
:10129000D2680243194BDA6004E0184AD2688243EC
:1012A000164BDA60704729B1144A12690243134B96
:1012B0001A6104E0114A12698243104B1A617047A7
:1012C00012494039086070470F49C86470470B499C
:1012D000C87170470948406A40F080700749486209
:1012E000704701460020054A92680A400AB1012071
:1012F00000E00020704701498872704700100240EA
:101300000000FFF8FFFFF6FE000042428004424268
:1013100000127A0000093D00140000202400002083
:1013200010B50446FB48844209D101218803FFF728
:10133000ADFF00214FF48040FFF7A8FF32E0F648F0
:10134000844209D101214804FFF7ADFF00214FF489
:101350000030FFF7A8FF25E0F048844209D10121C1
:101360008804FFF7A0FF00214FF48020FFF79BFFC8
:1013700018E0EB48844209D10121C804FFF793FF2C
:1013800000214FF40020FFF78EFF0BE0E548844278
:1013900008D101210805FFF786FF00214FF48010D6
:1013A000FFF781FF10BD2DE9F04786B005460E46D8
:1013B0000024A24600BFA1460027B08900B100BFAB
:1013C0002F462C8A4CF6FF700440F08804432C8290
:1013D000AC894EF6F3100440B08831890843718916
:1013E00008430443AC81AC8A4FF6FF400440B08907
:1013F0000443AC8201A8FFF7C2FEC648874202D16F
:10140000DDF810A001E0DDF80CA0A88900F4004090
:1014100040B10AEBCA0000EB0A1031684900B0FB8A
:10142000F1F807E00AEBCA0000EB0A103168890006
:10143000B0FBF1F86420B8FBF0F00401200964214E
:1014400001FB1089A88900F4004040B1322000EB74
:10145000C900B0FBF1F000F00700044308E03220BF
:1014600000EB09106421B0FBF1F000F00F00044321
:101470002C8106B0BDE8F0874FF4165101600021C1
:101480008180C18001810C214181002181817047CF
:1014900010B502460020108A4FF2FF0318400B8857
:1014A0004C8823438C882343CC88234318431082E1
:1014B00010BD0021018041808180C180704721B131
:1014C000828942F40052828104E082894DF6FF73E2
:1014D0001A4082817047F0B503460024002600259B
:1014E000002040F66A17B94200D100BF1846C1F388
:1014F000421401F01F06012707FA06F5012C01D15D
:101500000C3004E0022C01D1103000E014301AB18C
:1015100007682F43076002E00768AF430760F0BD2C
:101520001AB1838A0B43838202E0838A8B438382CE
:101530007047028A4FF6F0731A400282028A0A4309
:101540000282704782894FF2FF731A40828182893A
:101550000A438281704721B1828942F0020282816E
:1015600004E082894FF6FD731A4082817047028A37
:101570004FF6DF731A400282028A0A4302827047E2
:1015800021B1028A42F48042028204E0028A4BF6D0
:10159000FF731A4002827047C1F3080282807047CD
:1015A00001468888C0F308007047818941F0010135
:1015B00081817047028BD2B20283028B42EA012200
:1015C00002837047028B02F47F420283028B0A433C
:1015D0000283704721B1828A42F02002828204E0B5
:1015E000828A4FF6DF731A408282704721B1828A65
:1015F00042F01002828204E0828A4FF6EF731A40B2
:101600008282704721B1828A42F00802828204E01D
:10161000828A4FF6F7731A408282704721B182891D
:1016200042F40042828103E08289C2F30E02828189
:10163000704721B1828A42F40062828204E0828A89
:101640004FF2FF731A4082827047828A4FF6FB7313
:101650001A408282828A0A438282704721B1828A3A
:1016600042F00202828204E0828A4FF6FD731A4041
:101670008282704702460020B1F5007F00D100BF92
:1016800013880B400BB1012000E00020704701F4EB
:101690000072B2F5007F00D100BFCA4302807047DC
:1016A00070B50246002400230025002040F66A168B
:1016B000B14200D100BFC1F3421501F01F03012662
:1016C00006FA03F3012D02D19689334006E0022D7C
:1016D00002D1168A334001E0968A33400C1201266B
:1016E00006FA04F41688344013B10CB1012000E06E
:1016F000002070BD10B50022002340F66A14A142FC
:1017000000D100BF0A1201249440A3B2DC4304803C
:1017100010BD000000380140004400400048004077
:10172000004C0040005000400648804706480047F3
:10173000FEE7FEE7FEE7FEE7FEE7FEE7FEE7FEE781
:10174000FEE7FEE783020008ED000008704700BFD7
:10175000FEE700BFFEE700BFFEE700BFFEE7704701
:1017600008B52020FFF742FAC8B10D480078401CA8
:101770000B4908700846007802280DDB69460948C5
:10178000006802F0E0FF009818B14FF08050064961
:1017900008600020024908702020FFF738FA08BDD1
:1017A000280000206800002004ED00E010B50022B1
:1017B0003221052002F025FE504908600022322126
:1017C000012002F01EFE4E4908600022322107204F
:1017D00002F017FE4B49086000223221072002F078
:1017E00010FE4949086003220021012002F009FE91
:1017F0004649086002F0D6FB4549086010BD1FB598
:101800000020444A0623CDE90120009303900346BB
:10181000802241A1434803F0CDF90020424A082329
:10182000CDE9012000930390034680223FA1424866
:1018300003F0C0F90020414A0823CDE901200093BC
:10184000039003464FF480723DA1414803F0B2F982
:101850000020404A0A23CDE901200093039003466B
:1018600080223DA13F4803F0A5F900203E4A0B230A
:10187000CDE9012000930390034680223BA13F481D
:1018800003F098F900203E4A0C23CDE90120009393
:10189000039003464FF400723AA13E4803F08AF9E0
:1018A00000203D4A0C23CDE901200093039003461C
:1018B0004FF4807239A13D4803F07CF900203C4A86
:1018C0000B23CDE901200093039003464FF480726F
:1018D00038A13C4803F06EF91FBD012080F3108849
:1018E00000BF00F0F3FD00F085F8FFF788FFFFF779
:1018F0005DFF03F01EFE00BFFEE700005400002065
:10190000580000205C0000206000002068000020DB
:10191000640000202C0000205461736B204C65642F
:1019200000000000195D0008300000205461736B56
:10193000204B657900000000015E00084400002093
:101940005461736B20446973706C6179000000000E
:10195000875F00084C0000205461736B204D707548
:1019600000000000B5620008480000205461736B5D
:10197000204A6F79537469636B000000B5610008F9
:101980003C0000205461736B2055617274335278AF
:1019900000000000DD620008400000205461736B0D
:1019A0002055617274335478000000000963000808
:1019B000500000205461736B2053656E6444617461
:1019C000610000004D63000870B50446049D601A74
:1019D000EE1A7043561A90FBF6F0184470BD01469B
:1019E000002901DA484200E0084670470120044916
:1019F0000870704710B5FFF7F9FF00F0C5FC10BD87
:101A00006C00002030B503460C4600211AE0585CFB
:101A10002578A84200D014E0002206E0521CA05C09
:101A20008D185D5DA84200D005E0A05C18B1881853
:101A3000185C0028F2D100BFA05C08B9084630BD90
:101A400000BF491C585C0028E1D1401EF7E72DE992
:101A5000FE4304460E464FF000090020009001901E
:101A6000029031462046FFF7CDFF05466019D0F8B9
:101A700003100091C0798DF80400601980782B283C
:101A800007D1684609F005FE074609F0C2F881460D
:101A900008E0684609F0FDFD81F00041074609F0C5
:101AA000B8F881464846BDE8FE832DE9F84306466E
:101AB0000F4614461D46A0460020009032213046B5
:101AC00008F037FE4FEA18608DF800002A463946C4
:101AD000304608F015FE0020BDE8F883FEB5054647
:101AE0000F4616461C4600200090019002903221BD
:101AF000284608F01EFE002E08DD224639462846FC
:101B000008F0FEFDF7A10978295508E0224639467C
:101B1000284608F0F5FDF4A10978295576423246A9
:101B2000F2A1684609F062FCF14886420ADA42F204
:101B30000F70864206DD28190099C0F801109DF843
:101B40000410417142F2107086420ADAB6F57A7FCB
:101B500007DB2819E7A10978417028190099C0F816
:101B60000210B6F57A7F0EDA632E0CDD2819E2A199
:101B70000988A0F801102819BDF80010A0F803107A
:101B80009DF802104171642E0CDA092E0ADD281925
:101B9000DAA10A88A0F801208978C1702819BDF857
:101BA000001081800A2E08DA2819D5A10968C0F82A
:101BB000011028199DF800104171232029198871FE
:101BC0000020FEBD10B502460B461446002107E07A
:101BD000605C984200D002E06218002010BD491CF1
:101BE0003229F5DB0120F9E7F0B589B004460F464C
:101BF00015461E4624208DF800008DF80140012076
:101C00008DF8020003208DF8030000208DF80400F9
:101C10008DF805708DF80650002332466946BA48A3
:101C2000006802F0A6FC09B0F0BD2DE9F0418AB0D1
:101C300005460E4617461C46DDF8408024208DF8E8
:101C400004008DF8055001208DF80600A01CC0B2DC
:101C50008DF8070001208DF808008DF809602246F4
:101C600039460DF10A0008F04BFD0023424601A958
:101C7000A548006802F07DFC0AB0BDE8F081F0B52F
:101C800089B004460F4615461E4624208DF80000F4
:101C900050208DF801008DF8024003208DF80300DC
:101CA00000208DF804008DF805708DF80650002393
:101CB000324669469448006802F05BFC09B0F0BD0A
:101CC0002DE9F0418AB005460E4617461C46DDF860
:101CD000408024208DF8040050208DF805008DF8F8
:101CE0000650A01CC0B28DF8070001208DF8080036
:101CF0008DF80960224639460DF10A0008F000FD12
:101D00000023424601A98048006802F032FC0AB074
:101D1000BDE8F0812DE9FC5F044624212046FFF751
:101D200051FFA07802287CD160780328FBD120796C
:101D30000128F8D1754890F849A06079022871D03F
:101D4000032804D004284FD031284CD1E8E0607A31
:101D50000106207A41EA0041E07941EA0020A179B8
:101D600040EA01052846FFF73AFEB0F5FA5F01DACE
:101D700067480560607B0106207B41EA0041E07A0C
:101D800041EA0020A17A40EA01052846FFF727FE34
:101D9000B0F5FA5F01DA5E484560607C0106207CA0
:101DA00041EA0041E07B41EA0020A17B40EA0105D5
:101DB0002846FFF714FEB0F5FA5F01DA5448856053
:101DC000607D0106207D41EA0041E07C41EA00207F
:101DD000A17C40EA01052846FFF701FEB0F5FA5F55
:101DE00001DA4B48C560B6E0607A0106207A41EA24
:101DF0000041E07941EA0020A17940EA0105284646
:101E0000FFF7EDFDB0F5FA7F01DA42480560607B2F
:101E10000106207B41EA0041E07A41EA0020A17AF4
:101E200001E0A4E030E040EA01052846FFF7D7FDD5
:101E3000B0F5FA7F01DA37484560607C0106207C06
:101E400041EA0041E07B41EA0020A17B40EA010534
:101E50002846FFF7C4FDB0F5FA7F01DA2D4885600A
:101E6000607D0106207D41EA0041E07C41EA0020DE
:101E7000A17C40EA01052846FFF7B1FDB0F5FA7FE5
:101E800001DA2448C56066E0A07923494870A07A49
:101E90000106607A41EA0041207A41EA0020E179B6
:101EA00040EA01052846FFF79AFDB0F57A7F01DA8E
:101EB00019484560E07A19494870E07B0106A07B2B
:101EC00041EA0041607B41EA0020217B40EA0105B4
:101ED0002846FFF784FDB0F57A7F01DA0F484560A8
:101EE00039E000002B0000002D000000256C64008C
:101EF000A08601003000000030300000303030009B
:101F0000303030300000000060000020683B0020CE
:101F1000640200205402002078000020800000208D
:101F2000E079F64981F8480094F80890084600786E
:101F3000484505DDB9F1000F02DB084680F84990FD
:101F4000607AEE4981F84A00A07A81F84B00E07A85
:101F500081F84C0000BF00BFE84890F849005045A8
:101F600005D04FF48071E648006802F028F8A078A8
:101F700003287DD160780328FBD120790128F8D18E
:101F8000E04890F849A06079A12806D0A42870D034
:101F9000A5286FD0A6286ED10BE1617A0A06217AB6
:101FA00042EA0142E17942EA0121A27941EA0200D2
:101FB00008F0F1FD0022D44BCDE9000108F06EFDE0
:101FC000074608F089FE0646304608F0F5FD019008
:101FD000FFF705FD834608F0DEFD07460022CB4BE8
:101FE00008F04AFE1CD2CA49086808F031FE0746CC
:101FF0000022C84B08F058FE06D2304608F0DCFD3F
:102000000746FFF7ECFC48B9C149086808F020FE14
:1020100007460022BF4B08F02FFE01D8BC480660DF
:10202000617B0A06217B42EA0142E17A42EA012110
:10203000A27A41EA020008F0AEFD07460022B24B48
:1020400008F02CFDCDE9000108F046FE06463046BA
:1020500008F0B2FD0190FFF7C2FC834608F09BFD3B
:1020600007460022A94B08F007FE21D2A84903E049
:1020700042E11EE046E03DE1486808F0E9FD074620
:102080000022A44B08F010FE06D2304608F094FD62
:102090000746FFF7A4FC48B99D49486808F0D8FDF9
:1020A000074600229B4B08F0E7FD01D898484660A0
:1020B00020E1617A0A06217A42EA0142E17942EAA4
:1020C0000121A27941EA020008F065FD00228E4B51
:1020D000CDE9000108F0E2FC074608F0FDFD0646E8
:1020E000304608F069FD0190FFF779FC834608F05F
:1020F00052FD07460022884B08F0BEFD01D28748FA
:102100000660F7E0617A0A06217A42EA0142E17943
:1021100042EA0121A27941EA020008F03CFD0022D6
:10212000794BCDE9000108F0B9FC074608F0D4FD71
:102130000646304608F040FD0190FFF750FC83460C
:1021400008F029FD07460022754B08F095FD04D2E2
:10215000304608F04AFD73490880617B0A06217BFE
:1021600042EA0142E17A42EA0121A27A41EA02000E
:1021700008F011FD07460022634B08F08FFCCDE903
:10218000000108F0A9FD0646304608F015FD019053
:10219000FFF725FC834608F0FEFC07460022604B53
:1021A00008F06AFD04D2304608F01FFD5D49488002
:1021B000A0E0617A0A06217A42EA0142E17942EA24
:1021C0000121A27941EA020008F0E5FC074600225D
:1021D0004D4B08F063FCCDE9000108F07DFD06469B
:1021E000304608F0E9FC0190FFF7F9FB834608F060
:1021F000D2FC074600224C4B08F03EFD01D24B4872
:102200004660617B0A06217B42EA0142E17A42EAAA
:102210000121A27A41EA020008F0BDFC0746002233
:10222000394B08F03BFCCDE9000108F055FD0646AE
:10223000304608F0C1FC0190FFF7D1FB834608F05F
:10224000AAFC07460022364B08F016FD01D237489B
:10225000C660617C0A06217C42EA0142E17B42EAD7
:102260000121A27B41EA020008F095FC074600220A
:10227000254B08F013FCCDE9000108F02DFD0646C2
:10228000304608F099FC0190FFF7A9FB834608F05F
:1022900082FC07460022224B08F0EEFC01D22348C4
:1022A0000660617D0A06217D42EA0142E17C42EA44
:1022B0000121A27C41EA020008F06DFC07460022E1
:1022C000114B08F0EBFBCDE9000108F005FD0646D7
:1022D000304608F071FC0190FFF781FB834608F05F
:1022E0005AFC074600220E4B08F0C6FC01D20F48EC
:1022F000866000BF00BF00BFBDE8FC9F683B0020B8
:1023000064000020B83B00200000594000407F409E
:10231000AC000020000014400088C340B40000203E
:1023200000408F40B80000200088B34074020020B5
:10233000012017490870022048706420486011206D
:102340001449087002204870642048600120124936
:102350000870022048706420486002200F4908700D
:1023600048706420486011200D49087002204870B0
:102370006420486001200B49487088700020C870B4
:10238000087148710870704710B5FFF7D1FF10BD94
:1023900078000020800000208800002090000020AD
:1023A00098000020A00000201949096841F08071C0
:1023B000174A11601749096841F00101154A116077
:1023C00015490860704770B50446124845681248C0
:1023D000006810B91148FFF7E7FF0F48006810497F
:1023E00090FBF1F000FB04F6AB19AB4205DD00BF3A
:1023F000084840689842FBD309E000BF05484068A0
:102400009842FBD200BF034840689842FBD370BD9E
:10241000FCED00E0001000E0BC00002000A24A0437
:1024200040420F0038B5044601212069FEF714FF31
:10243000208B80B2ADF8000010208DF8030003203F
:102440008DF8020069466069FEF74AFC38BD10B598
:102450001B48FFF7E7FF1B48FFF7E4FF1A48FFF7A9
:10246000E1FF174A128B91B2154A5069FEF7E7FC5B
:10247000144A128B91B2134A5069FEF7E0FC124ADB
:10248000128B91B2104A5069FEF7D9FC10BD19B9F0
:10249000D0E90523136112E0002903DAD0E905230E
:1024A00053610CE08268521C82608A4207DB4269F9
:1024B000D26883695A404369DA60002282607047BB
:1024C000C0000020DC000020F800002010B54FF410
:1024D0004070FDF757FF0748FFF766FFFFF7B7FFAC
:1024E00000F01CF800F0B6FF01F0B5F9052001F08E
:1024F00045FA10BD00A24A0438B504460121A0687F
:10250000FEF7AAFE208A80B2ADF8000028208DF8E0
:1025100003006946E068FEF7E3FB38BD10B53948B3
:10252000FFF7EAFF3848FFF7E7FF3848FFF7E4FF17
:102530003748FFF7E1FF3748FFF7DEFF3648FFF780
:10254000DBFF3648FFF7D8FF3548FFF7D5FF10BD52
:1025500010B50446A088401CA080607820B10128F6
:1025600012D002284BD120E0228A91B2E068FEF717
:102570004AFC30B9012060700020A080A071A070DA
:1025800001E00020A0803BE0228A91B2E068FEF7E3
:102590003AFC10B90220607006E00020607021490A
:1025A0000870A070A080A0712AE0228A91B2E06831
:1025B000FEF729FC012813D1A088322807DA2078F9
:1025C000184908700120A0700020E07103E000208D
:1025D00014490870A07000206070A080A0710DE008
:1025E000A088322803DD0220A0700120E071A088BD
:1025F00041F28831884201DD0846A08000E000BF3A
:1026000000BF10BD34010020480100205C01002003
:10261000700100208401002098010020AC010020FE
:10262000C00100203001002038B504460E208DF88E
:10263000000006208DF8010000208DF80200012026
:102640008DF803006846FDF7A2FE25208DF80000F6
:102650008DF8014000208DF8020001208DF8030064
:102660006846FDF794FE38BD00B58BB001210846E1
:10267000FEF7E5FD0021CB48FEF7E7F9C948FEF774
:1026800017F9C9480090C9480190102002903220E3
:102690000390002004908020059000200690079071
:1026A00008904FF44050099000200A906946BD48B8
:1026B000FEF7A0F94FF48050FEF7F6F90021B94873
:1026C000FEF7C3F901220221B648FEF7CAF900213C
:1026D000B4481430FEF7B9F9B2481430FEF7E8F800
:1026E000B1480090B248019000200290322003903F
:1026F000002004908020059000200690079008900C
:102700004FF44050099000200A906946A5481430C3
:10271000FEF770F94FF48030FEF7C6F90121A148A9
:102720001430FEF792F90BB000BD10B586B0044628
:1027300001210420FEF790FD01218803FEF78CFDA6
:102740004FF40070ADF8140018208DF81700032026
:102750008DF8160005A99748FEF7C2FA4FF480607D
:10276000ADF8140004208DF8170005A99148FEF774
:10277000B7FA2046FFF758FFFFF776FF4FF4E13036
:1027800001900020ADF80800ADF80A00ADF80C008B
:10279000ADF810000C20ADF80E0001A98248001F12
:1027A000FEF701FE012240F224417F48001FFEF7A0
:1027B00092FE01217C48001FFEF781FE012280214C
:1027C0007948001FFEF7ACFE012240217648001F29
:1027D000FEF7A6FE06B010BD10B5044601207649EE
:1027E000087070484438846401216E48FEF72DF962
:1027F00010BD10B54FF48050FEF761F950B10020C4
:102800006D4908704FF48050FEF74EF9002165487D
:10281000FEF71BF910BD08B50020009040F22441DE
:102820006148001FFEF73CFFB8B340F224415E4808
:10283000001FFEF75FFF5C48001FFEF7B1FE10218E
:102840005948001FFEF723FF002156481430FEF7B9
:10285000FCF84FF48030FEF727F952481430FEF7A9
:102860000BF9C0F132005549087032204D49443906
:10287000C86500236A464E495148006801F00DFFC3
:102880004B48484944394866012146481430FEF710
:10289000DCF84548001FFEF783FE009818B14FF0A2
:1028A00080504849086008BD70B505460C46002CAC
:1028B00003DA284607F048FF04B200BF3E4800781C
:1028C0000028FBD13949214448702246294637481F
:1028D00007F016FFA0B2FFF77FFF70BD70B504468A
:1028E0000D4629462046FEF757FE00BF80212046B0
:1028F000FEF7C0FE0028F9D070BD70B506460C4644
:10290000002500BF615D3046FFF7E8FF6D1C605D8C
:102910000028F7D100BF40213046FEF7ABFE00286B
:10292000F9D070BD2DE9F04105460C46260AE7B204
:1029300031462846FEF730FE00BF80212846FEF7CC
:1029400099FE0028F9D039462846FEF725FE00BF3B
:1029500080212846FEF78EFE0028F9D0BDE8F081E0
:1029600070B504460D46E1B20F48001FFEF714FE95
:1029700000BF80210C48001FFEF77CFE0028F8D025
:10298000204670BD10B5044600BF20210648001F38
:10299000FEF770FE0028F8D00348001FFEF700FE87
:1029A00010BD00004400024004380140CC02002069
:1029B000FE02002000080140D4010020D5010020C3
:1029C0005800002004ED00E070B504460E462EB11C
:1029D0004FF40041FB48FEF730FA04E04FF40041A9
:1029E000F848FEF72CFA00251BE04FF48051F5481B
:1029F000FEF725FA04F0800028B14FF40051F148A9
:102A0000FEF71BFA04E04FF40051EE48FEF717FA08
:102A10004FF48051EB48FEF710FA6006040E681C74
:102A2000C5B2082DE1DB4FF40041E648FEF705FA98
:102A300070BD70B504460D4605F1B001C8B2002165
:102A4000FFF7C2FFA11CC1F3031141F010000021E8
:102A5000FFF7BAFFA11C01F00F000021FFF7B4FF40
:102A600070BDF0B5144600267F2801DC3F2900DD4B
:102A7000F0BD0B46CF1701EB5777FF10C7F10707E3
:102A8000FAB2CF1701EB5777FF10A1EBC707FDB2E2
:102A9000C5F107070123BB40DEB24CB1CA4B03EBC3
:102AA000C0039B5C3343C84F07EBC007BB5408E02F
:102AB000C54B03EBC0039B5CB343C34F07EBC0079D
:102AC000BB5400BFD4E770B502460025C1F13F00FA
:102AD000C1B20846CE1701EB5676F310CE1701EBC4
:102AE0005676F610A1EBC606F4B20120A040C5B29E
:102AF000B54800EBC200C05C284008B1012070BDA1
:102B00000020FCE710B500218D20FFF75DFF0021BC
:102B10001420FFF759FF0021AF20FFF755FF10BD2C
:102B200010B500218D20FFF74FFF00211020FFF787
:102B30004BFF0021AE20FFF747FF10BD70B500240A
:102B40001CE004F1B001C8B20021FFF73DFF0021F5
:102B50000220FFF739FF00211020FFF735FF002585
:102B600008E0994901EBC501085D0121FFF72CFF41
:102B7000681CC5B2802DF4DB601CC4B2082CE0DBFD
:102B800070BD70B500240CE0002506E000208E49E1
:102B900001EBC5010855681CC5B2802DF6DB601C31
:102BA000C4B2082CF0DBFFF7C9FF70BD70B500247C
:102BB0000CE0002506E0FF20834901EBC501085524
:102BC000681CC5B2802DF6DB601CC4B2082CF0DB9B
:102BD000FFF7B4FF70BD2DE9F04706460F4690465B
:102BE0009946DDF820A034460CE03D4606E052460A
:102BF00029462046FFF735FF681CC5B24D45F6DD76
:102C0000601CC4B24445F0DDBDE8F0872DE9FF4FFC
:102C100082B007460C46904600250026A94600973C
:102C2000A3460598012802D0022852D152E0B8F1FB
:102C3000000F4ED0A8F12000C5B2644800780128EA
:102C400004D1002D02DB6149087002E000205F49D9
:102C500008707E2F02DD0027601CC4B2002636E01B
:102C600005EB45005A4901EB400010F806A04FF073
:102C7000000926E00AF0800058B15448007808B9ED
:102C8000012000E00020024621463846FFF7E9FE19
:102C900005E04E48027821463846FFF7E2FE4FEA4B
:102CA0004A604FEA106A601CC4B2A4EB0B0008280B
:102CB00003D15C46781CC7B206E009F1010000F0C0
:102CC000FF09B9F1080FD5DB00BF701CC6B2062E94
:102CD000C6DB73E0B8F1000F6FD0A8F12000C5B2D9
:102CE0003A480078012804D1002D02DB37490870EA
:102CF00002E0002035490870782F02DD0027601CB3
:102D0000C4B2002657E006EB0510324911F800A0C6
:102D100006EB05100830085C01904FF0000944E014
:102D20000AF0800058B12948007808B9012000E075
:102D30000020024621463846FFF793FE05E023486F
:102D4000027821463846FFF78CFE019800F080009B
:102D500068B11E48007808B9012000E00020024652
:102D6000A4F10800C1B23846FFF77BFE07E0A4F1EA
:102D70000800C1B2154802783846FFF772FE4FEAE4
:102D80004A604FEA106A01984006000E0190601CEC
:102D9000C4B2A4EB0B00082803D15C46781CC7B270
:102DA00006E009F1010000F0FF09B9F1080FB7DBF7
:102DB00000BF701CC6B2082EA5DB00BF00BF06B066
:102DC000BDE8F08F000C014030030020D701002047
:102DD000BCB60008E4B800082DE9F04107460E46ED
:102DE0009046002500244546FE480078012804D17D
:102DF000002D02DBFB49087002E00020F949087051
:102E0000782F02DD0027701CC6B231463846FFF726
:102E100010FE002408E004EB8511F34A505C012108
:102E2000FFF7D2FD601CC4B2082CF4DB07F10801E7
:102E3000C8B23146FFF7FDFD002409E004EB85111F
:102E40000831E94A505C0121FFF7BEFD601CC4B2A5
:102E5000082CF3DB701CC1B23846FFF7EAFD0024F2
:102E600009E004EB85111031DF4A505C0121FFF7C6
:102E7000ABFD601CC4B2082CF3DB721CD1B207F1AD
:102E80000802D0B2FFF7D5FD002409E004EB85115C
:102E90001831D54A505C0121FFF796FD601CC4B281
:102EA000082CF3DBB01CC1B23846FFF7C2FD00248A
:102EB00009E004EB85112031CB4A505C0121FFF77A
:102EC00083FD601CC4B2082CF3DBB21CD1B207F145
:102ED0000802D0B2FFF7ADFD002409E004EB851134
:102EE0002831C14A505C0121FFF76EFD601CC4B25D
:102EF000082CF3DBF01CC1B23846FFF79AFD002422
:102F000009E004EB85113031B74A505C0121FFF72D
:102F10005BFD601CC4B2082CF3DBF21CD1B207F1DC
:102F20000802D0B2FFF785FD002409E004EB85110B
:102F30003831AD4A505C0121FFF746FD601CC4B238
:102F4000082CF3DBBDE8F08110B50246012000E05B
:102F500050430B00A1F10104E1B2F9D110BD2DE9FC
:102F6000FF4F87B0064692461F46DDE91494D346CC
:102F7000002004900021504607F0CAFE16D22346D6
:102F80002D2230460899FFF741FE012C05D104EBB4
:102F9000440006EB4000C6B202E006EB8400C6B275
:102FA000781EC7B28AF0004A8BF0004B504607F0FB
:102FB00003FE069000254DE0781B401EC1B20A209A
:102FC000FFF7C2FF0699B1FBF0F00A21B0FBF1F266
:102FD00001FB12080498F8B9781EA8421CDDB8F16C
:102FE000000F17D1012C0BD104EB4401490001FB68
:102FF0000561C8B2234620220899FFF707FE08E0C2
:10300000A10001FB0561C8B2234620220899FFF701
:10301000FDFD1DE001200490012C0DD108F13001CF
:10302000CAB204EB4401490001FB0561C8B2234662
:103030000899FFF7EBFD0AE008F13001CAB2A100E0
:1030400001FB0561C8B223460899FFF7DFFD00BF09
:10305000681CC5B2BD42AFDBB9F1000F71D0012CC5
:103060000BD104EB4401490007FB0161C8B22346C0
:103070002E220899FFF7CAFD08E0A10007FB0161B5
:10308000C8B223462E220899FFF7C0FD584607F024
:10309000DFFD564A564BCDE9000107F0E6FBCDE9CE
:1030A000020107F019FE834649460A20FFF74CFF4C
:1030B000009007F06BFD0290069807F067FD5946F7
:1030C000009007F09DFB0190029907F09CFB039094
:1030D00007F072FD0590002551E0A9EB0500401EA8
:1030E000C1B20A20FFF730FF0599B1FBF0F00A21C9
:1030F000B0FBF1F201FB12084D453EDAB8F1000FCA
:1031000020D0012C0FD104EB44014B00E919491CDC
:1031100003FB0161C8B208F13001CAB22346089925
:10312000FFF774FD29E0A300E919491C03FB0161C5
:10313000C8B208F13001CAB223460899FFF766FD0C
:103140001BE01EE0012C0DD104EB44014A00E919FB
:10315000491C02FB0161C8B2234630220899FFF7DF
:1031600055FD0AE0A200E919491C02FB0161C8B241
:10317000234630220899FFF749FD681CC5B24D452A
:10318000ABDB0BB0BDE8F08F2DE9F0470646894672
:1031900017461D464FF0000A002F0ADA0B22494657
:1031A0003046FFF719FE06F11000C6B2681EC5B220
:1031B0007F42002435E0281B401EC1B20A20FFF7E1
:1031C000C3FEB7FBF0F00A21B0FBF1F201FB1208DD
:1031D000BAF1000F19D1681EA04216DDB8F1000F38
:1031E00011D107E0D7010020D4BE0008F168E388C0
:1031F000B5F8E43E102101FB0461C8B20D22494636
:10320000FFF7EAFD0BE04FF0010A08F0FF02102182
:1032100001FB0461C8B24946FFF7DEFD00BF601C38
:10322000C4B2AC42C7DBBDE8F0872DE9F0410446EB
:103230000F4615469846002615E0AA5D43463946D6
:103240002046FFF7E3FCB8F1020F03D104F10800B8
:10325000C4B201E0A01DC4B27A2C02DD0024B81C67
:10326000C7B2701CC6B2A85D0028E6D1BDE8F081E7
:103270002DE9F84F06460C4617460025A84600964D
:10328000A34600BF57E07800401CE54901EB401021
:1032900010F8059001EB871010F805A04FF000081A
:1032A00043E009F0800058B1DE48007808B90120F9
:1032B00000E00020024621463046FFF7D2FB05E041
:1032C000D848027821463046FFF7CBFB0AF0800051
:1032D00068B1D448007808B9012000E00020024617
:1032E00004F10800C1B23046FFF7BBFB07E004F170
:1032F0000800C1B2CB4802783046FFF7B2FB4FEA74
:1033000049604FEA10694FEA4A604FEA106A601C50
:10331000C4B2A4EB0B00082803D15C46701CC6B2F3
:1033200006E008F1010000F0FF08B8F1080FB8DB73
:1033300000BF681CC5B2102DA5DBBDE8F88F2DE9D4
:10334000FF4F85B081460E461F46129C039602979A
:1033500009EB0700802803DDC7F18000C0B20290AE
:1033600025463019402802DDC4F14000C5B2204690
:10337000E21704EB5272D2102146E31704EB5373A9
:10338000DB10A4EBC3030BB1012300E000231A44BC
:10339000D2B201922846EA1705EB5272D2102946A2
:1033A000EB1705EB5373DB10A5EBC3030BB1012344
:1033B00000E000231A44D2B200924FF0000843E02C
:1033C0004FF0000A39E0019808FB00A1079810F8B7
:1033D00001B00020049028E00BF0800058B1914823
:1033E000007808B9012000E0002002463146484636
:1033F000FFF737FB05E08B48027831464846FFF778
:1034000030FB4FEA4B604FEA106B701CC6B203985A
:10341000301AA84205D1039E09F1010000F0FF090E
:1034200006E00498401CC0B2049004980828D3DB3E
:1034300000BF0AF1010000F0FF0A00988245C2DBDC
:1034400008F1010000F0FF0802988045B8DB09B0E0
:10345000BDE8F08F1FB501210820FDF7FDFE4FF4F8
:103460000040ADF8080010208DF80B0003208DF807
:103470000A0002A96C48FDF733FC01210820FDF782
:10348000EBFE4FF48040ADF8040010208DF80700EB
:1034900003208DF8060001A96348FDF721FC0121F6
:1034A0000820FDF7D9FE4FF48050ADF80C00102035
:1034B0008DF80F0003208DF80E0003A95A48FDF780
:1034C0000FFC01210820FDF7C7FE4FF40050ADF8B6
:1034D000000010208DF8030003208DF802006946DB
:1034E0005148FDF7FDFB4FF480514F48FDF7A5FC17
:1034F0004FF400514C48FDF7A0FC4FF400414A48FE
:10350000FDF79BFC4FF480414748FDF796FC4FF4D4
:1035100080414548FDF793FC4448FEF754FF4FF4C3
:1035200080414148FDF789FC0021AE20FFF74CFAAD
:1035300000210220FFF748FA00211020FFF744FA8B
:1035400000214020FFF740FA00218120FFF73CFADC
:103550000021CF20FFF738FA0021A120FFF734FA2D
:103560000021C820FFF730FA0021A620FFF72CFA2F
:103570000021A820FFF728FA00213F20FFF724FAB6
:103580000021D320FFF720FA00210846FFF71CFA9C
:103590000021D520FFF718FA00218020FFF714FA48
:1035A0000021D920FFF710FA0021F120FFF70CFAD3
:1035B0000021DA20FFF708FA00211220FFF704FAB1
:1035C0000021DB20FFF700FA00214020FFF7FCF983
:1035D00000212020FFF7F8F900210220FFF7F4F97D
:1035E00000218D20FFF7F0F900211420FFF7ECF9FE
:1035F0000021A420FFF7E8F90021A620FFF7E4F955
:103600000021AF20FFF7E0F90021AF20FFF7DCF940
:10361000FFF7B7FA00210846FFF70BFA1FBD0000BD
:1036200054C20008D7010020000C0140A086010010
:1036300070B586B0064600250024142101A807F0C5
:1036400078F814E000240EE001A850F824000521C9
:1036500001FB0541844A32F81110084401A941F8E0
:103660002400601CC4B2052CEEDB681C85B20A2D58
:10367000E8DB002409E001A850F824000A21B0FB8F
:10368000F1F026F81400601CC4B2052CF3DB06B080
:1036900070BD10B501460022002008E0052303FBA1
:1036A0000013714C34F813301A44431CD8B20A2862
:1036B000F4DB0A20B2FBF0F080B210BD08B50121A6
:1036C0000C20FDF7C9FD0120ADF8000000208DF8A9
:1036D000030069466548FDF703FB0220ADF80000D2
:1036E00000208DF8030069466048FDF7F9FA0120D3
:1036F000ADF8000000208DF8030069465C48FDF736
:10370000EFFA0220ADF8000000208DF803006946B2
:103710005748FDF7E5FA0420ADF8000000208DF8C9
:10372000030069465148FDF7DBFA08BD00B58BB0D0
:1037300001210846FDF783FD4E48FDF7B9F84E48D4
:103740000090494801900020029032200390002010
:103750000490802005904000069080000790202073
:1037600008900002099000200A9069464148FDF740
:1037700041F901213F48FDF768F90BB000BD00B5E4
:1037800085B001214802FDF767FD3B484C38FCF746
:1037900067FE0020009001208DF804008DF80500E0
:1037A0004FF4602002900020039005208DF8100057
:1037B000694631484C38FCF77AFE01212E484C38D6
:1037C000FCF7A1FE01212C484C38FCF7A7FE4FF472
:1037D0000040FDF7A5FC07230122022126484C38B2
:1037E000FCF7FDFE07230222002123484C38FCF79A
:1037F000F6FE0723032201211F484C38FCF7EFFE99
:103800000723042208211C484C38FCF7E8FE072354
:103810000522092118484C38FCF7E1FE16484C38BF
:10382000FCF793FE00BF14484C38FCF793FE0028C9
:10383000F9D111484C38FCF797FE00BF0E484C38C0
:10384000FCF797FE0028F9D101210B484C38FCF712
:103850009AFE05B000BD10B5FFF730FFFFF766FF19
:10386000FFF78DFF10BD0000300700200008014069
:10387000000C0140080002404C24014038B50446C9
:103880000C208DF8000006208DF8010000208DF836
:10389000020001208DF803006846FCF778FD272020
:1038A0008DF800008DF8014000208DF80200012005
:1038B0008DF803006846FCF76AFD38BD00B58BB093
:1038C00001210846FDF7BBFC00219A48FDF7BDF831
:1038D0009848FCF7EDFF9848009098480190102018
:1038E0000290322003900020049080200590002058
:1038F0000690079008904FF44050099000200A90DD
:1039000069468C48FDF776F81020FDF7CDF80021C8
:103910008848FDF79AF8012202218648FDF7A1F8B0
:10392000002184481430FDF790F882481430FCF7E9
:10393000BFFF814800908248019000200290322011
:1039400003900020049080200590002006900790AE
:1039500008904FF44050099000200A90694675483D
:103960001430FDF747F84FF48070FDF79DF8012102
:1039700070481430FDF769F80BB000BD10B586B083
:10398000044601210820FDF767FC01218804FDF7AA
:1039900070FC4FF48060ADF8140018208DF817000B
:1039A00003208DF8160005A96648FDF799F94FF434
:1039B0000060ADF8140004208DF8170005A96148D7
:1039C000FDF78EF92046FFF759FFFFF777FF4FF419
:1039D000E13001900020ADF80800ADF80A00ADF824
:1039E0000C00ADF810000C20ADF80E0001A95248F3
:1039F000001FFDF7D8FC012240F224414E48001F71
:103A0000FDF769FD01214C48001FFDF758FD01221B
:103A100080214948001FFDF783FD012240214648CF
:103A2000001FFDF77DFD06B010BD10B50446012056
:103A3000454908703F481C38046201213D48FDF7A4
:103A400004F810BD10B51020FDF739F848B100207A
:103A50003D4908701020FDF727F800213548FCF794
:103A6000F4FF10BD08B50020009040F22441324818
:103A7000001FFDF715FED8B340F224412E48001F69
:103A8000FDF738FE2C48001FFDF78AFD10212A485B
:103A9000001FFDF7FCFD002126481430FCF7D5FF80
:103AA0004FF48070FDF700F822481430FCF7E4FF73
:103AB000C0F132002549087032201E491C39486384
:103AC00000236A461E492248006800F0E6FD3221C4
:103AD0001B4806F02EFE1A4816491C39C8630121FE
:103AE00014481430FCF7B1FF1348001FFDF758FDD0
:103AF000009818B14FF080501649086008BD70B5A5
:103B000005460C46002C03DA284606F01DFE04B2DA
:103B100000BF0D4800780028FBD1224629460748FF
:103B200006F0EEFD0020054921444870A0B2FFF7E1
:103B30007CFF70BD1C000240044800409407002038
:103B4000C6070020000C0140D8010020D901002048
:103B50005C00002004ED00E010B501468E4800E056
:103B6000006803688B42FBD30246436813448B42D0
:103B700004D143684C682344436001460A464B68BD
:103B800013440468A34211D1844C03682468A342FF
:103B900008D04B680468646823444B6003681B6862
:103BA0000B6005E07D4B1B680B6001E003680B6058
:103BB000884200D0016010BD30B54FF440537848C2
:103BC00000F007042CB1C01D20F00700744C041B4A
:103BD0001B1B0246704C226000246F4D6C60D01895
:103BE000083820F007006D4C206000246B4D2D68D4
:103BF0006C606A4D2D682C601146441A4C60674C0D
:103C000024680C60674D4C682C60674D4C682C60D4
:103C10004FF00044654D2C6030BD2DE9F041044665
:103C20004FF0000801F0ECF95C48006808B9FFF7B4
:103C3000C3FF5E480068204000285DD19CB1083475
:103C400004F0070078B104F00700C0F10800044454
:103C500004F0070008B9012000E0002018B9FCF7C3
:103C600093FA00BFFEE7002C46D04F48006884421C
:103C700042D8494E3046056801E02E462D686868F6
:103C8000A04202D228680028F7D144480068854243
:103C900032D0306800F10808286830606868001B7E
:103CA000102812D92F1907F0070008B9012000E0E9
:103CB000002018B9FCF768FA00BFFEE76868001B2F
:103CC00078606C603846FFF747FF374968680968D5
:103CD000081A354908600846006832490968884270
:103CE00003D2314800682F49086030496868096884
:103CF000084368600020286001F0D6F808F007004B
:103D000008B9012000E0002018B9FCF73DFA00BF17
:103D1000FEE74046BDE8F08170B506463546002E08
:103D200031D0083D2C46214960680968084008B137
:103D3000012000E0002018B9FCF726FA00BFFEE7DA
:103D4000206808B9012000E0002018B9FCF71CFA2F
:103D500000BFFEE7154960680968084098B120680F
:103D600088B91249606809688843606001F048F9C1
:103D70000D496068096808440B4908602046FFF750
:103D8000EBFE01F091F870BD0748006870470548E8
:103D90000068704770470000DC010020E40100204B
:103DA000F8070020EC010020E8010020F0010020CD
:103DB00075480068401C08B9012000E0002018B9CF
:103DC000FCF7E2F900BFFEE7FCF7DEF900BFFEE713
:103DD000001F4FF080730360001F0160001F6B4BDA
:103DE0000360143802602038704769484FF0E021C2
:103DF00048610720086170471CB56648014609788C
:103E00000191FF21024611700146097800919DF849
:103E1000001001F01001604A117007215F4A116023
:103E200009E05E490968491E5C4A11609DF800106E
:103E30004906090E00919DF8001001F080018029CB
:103E4000EFD0564909680902544A116011460988A1
:103E500001F4E06111604F4A019911705048006807
:103E600040F470004E4908600846006840F0704019
:103E70000860FFF7BAFF002043490860FCF752F9D9
:103E800000201CBD10B540480068B0F57A7F01D114
:103E9000012000E0002018B9FCF776F900BFFEE72A
:103EA00010BD4FF080503E491C390860BFF34F8F62
:103EB000BFF36F8F704710B5FCF766F932480068A2
:103EC000401C31490860BFF34F8FBFF36F8F084626
:103ED000006801280CD132481C380068C0B208B90B
:103EE000012000E0002018B9FCF74EF900BFFEE702
:103EF00010BD10B52448006818B9FCF745F900BF9B
:103F0000FEE721480068401E1F4908600846006817
:103F100010B90020FCF73FF910BD10B5FCF734F9DB
:103F200000F03AFF20B14FF080501D491C39086065
:103F30000020FCF730F910BD70B5FCF72FF90546ED
:103F4000102D0FD305F1E02090F8F04312480078CF
:103F5000844201DB012000E0002018B9FCF714F9CD
:103F600000BFFEE70E481438006800F4E0600B491B
:103F70000968884201D8012000E0002018B9FCF748
:103F800003F900BFFEE770BDF4010020B13D000859
:103F90003F19010000E400E0F8010020FC010020CE
:103FA00020ED00E010B51820FFF737FE044624B1DD
:103FB00000202060201D00F09EF9204610BD2DE954
:103FC000FE4F07468846002001903C4600901FB9EE
:103FD000FCF7DAF800BFFEE708F07F4008B90120DF
:103FE00000E0002018B9FCF7CFF800BFFEE704F1AD
:103FF000040909F10800029001F002F8D9F80C60F8
:10400000206840EA0800206026E0D6F804B0356851
:104010000020009005F07F4A25F07F450AF080607F
:1040200028B92068284040B10120009005E02068B0
:104030002840A84201D101200090009858B10AF010
:10404000807010B1019828430190206840F0007101
:10405000304601F052FB5E4602988642D5D1206878
:1040600001998843206000F01FFF2068BDE8FE8FA3
:104070002DE9F84F8346884614461F465D460020CA
:10408000009004F07F4008B9012000E0002018B93A
:10409000FCF77AF800BFFEE70CB1012000E0002039
:1040A00018B9FCF771F800BFFEE700F0A9FFD5F8DA
:1040B000009041465846FFF782FF49EA0800204039
:1040C000A04206D149EA08062868A04328600027D4
:1040D00009E03FB144F0A0613A46281D01F092FA90
:1040E000002600E02E6800F0DFFE8246D7B1BAF16C
:1040F000000F01D1FFF7D5FE01F0A7FB064606F041
:10410000007068B9FFF7D7FE2E6806EA0400A042E7
:1041100002D12868A0432860FFF7EBFE0120009041
:1041200026F07F463046BDE8F88F10B503460020E4
:1041300022B903EA010434B1012004E003EA0104D6
:104140008C4200D1012010BD2DE9FF4F83B0804685
:104150000D461746DDF8409044464FF0000A002017
:104160000190B8F1000F03D1FCF70EF800BFFEE795
:1041700005F07F4008B9012000E0002018B9FCF7E5
:1041800003F800BFFEE70DB1012000E0002018B9E0
:10419000FBF7FAFF00BFFEE700F032FF2068009057
:1041A0002946069A0098FFF7C0FF0290029838B19E
:1041B000009E4FF00009B7B12068A843206012E0CC
:1041C000B9F1000F01D1009E0DE00FB14AF0807AE5
:1041D000069808B14AF0806A45EA0A014A46201D5D
:1041E00001F010FA002600F05FFE8346B9F1000FDF
:1041F0001DD0BBF1000F01D1FFF753FE01F025FBED
:10420000064606F0007080B9FFF755FE266829467D
:104210003046069AFFF789FF18B117B12068A84306
:104220002060FFF766FE0020019026F07F463046B2
:1042300007B0BDE8F08F2DE9F04105460E462C464B
:104240001DB9FBF7A1FF00BFFEE706F07F4008B9EC
:10425000012000E0002018B9FBF796FF00BFFEE741
:10426000FFF729FE27682068B0432060FFF741FE72
:104270003846BDE8F0812DE9F04104462546FBF7BC
:1042800083FF07462E683846FBF785FF3046BDE8BA
:10429000F08170B505462E46341D00F0B1FE11E0E8
:1042A00004F10800E168814201D0012000E0002013
:1042B00018B9FBF769FF00BFFEE74FF00071E06837
:1042C00001F01BFA20680028EAD13046FFF724FDF0
:1042D00000F0EAFD70BD70B504460D462946204643
:1042E000FFF76DFE70BD70B504460D4629462046A9
:1042F000FFF7A1FF70BD00F1080141604FF0FF31F1
:10430000816000F10801C160016100210160704716
:1043100000210161704742684A6093688B6093682E
:1043200059609160086103685B1C0360704710B5B9
:1043300002460B685C1C0CB9106907E002F108002A
:1043400000E04068446824689C42FAD944684C60A4
:104350004C68A160886041600A611468641C146044
:1043600010BD01460A69D1E901309860D1E9010325
:1043700058605068884201D1886850600020086108
:104380001068401E10601068704770B505460E46F4
:104390002C461CB9FBF7F8FE00BFFEE7FFF78BFDCC
:1043A000D4E90F12206801FB020060600020A063C6
:1043B0002068A060E06B401E226C216800FB0210A8
:1043C000E0604FF0FF306064A06476B9206908B9FE
:1043D000012000E0002080B904F1100001F054F940
:1043E00001280AD1FFF75DFD07E004F11000FFF797
:1043F00082FF04F12400FFF77EFFFFF77AFD012022
:1044000070BD2DE9F04706460D4691464FF0000875
:104410000EB1012000E0002018B9FBF7B5FE00BF87
:10442000FEE70DB9002702E006FB05F0471C07F187
:104430004C00FFF7F2FB044664B10DB9246002E0C2
:1044400004F14C002060E663256401212046FFF75B
:104450009CFFA046B8F1000F03D1FBF795FE00BF0B
:10446000FEE74046BDE8F08710B50446FFF723FDA0
:1044700011E0606A08B9012000E0002038B904F1B9
:10448000240001F001F918B101F0DBF900E005E0CA
:10449000A06C401EA064A06C0028EADC00BF4FF0B6
:1044A000FF30A064FFF725FDFFF705FD11E020694F
:1044B00008B9012000E0002050B904F1100001F01B
:1044C000E3F808B101F0BDF9606C401E606400E0E3
:1044D00002E0606C0028EADC00BF4FF0FF3060644F
:1044E000FFF707FD10BD70B50546FFF7E4FCA86BAC
:1044F000E96B884201D1012400E00024FFF7F9FCB8
:10450000204670BD2DE9F04104460E4615460027B1
:10451000206C40B37DB93146226CA06806F0F0F8FB
:10452000216CA0680844A060D4E9011088421AD325
:104530002068A06017E03146226CE06806F0E0F8E1
:10454000216CE068401AE0602168E068884203D28C
:10455000216C6068401AE060022D04D1A06B10B19C
:10456000A06B401EA063A06B401CA0633846BDE852
:10457000F0812DE9FF4383B0064688461D464FF083
:10458000000934461CB9FBF7FFFD00BFFEE7B8F198
:10459000000F01D1206C08B9012000E0002018B9FB
:1045A000FBF7F2FD00BFFEE7022D02D1E06B012810
:1045B00001D1012000E0002018B9FBF7E5FD00BFA4
:1045C000FEE700BFFFF777FCA06BE16B884201D3E9
:1045D000022D1DD12A4641462046FFF793FF07468C
:1045E000606A08B9012000E0002040B904F124000D
:1045F00001F04AF8012805D1FFF753FC02E00FB1A2
:10460000FFF74FFCFFF775FC012007B0BDE8F08312
:10461000059818B9FFF76DFC0020F6E7B9F1000F17
:1046200004D101A801F0C9F84FF00109FFF761FCBE
:1046300000F0E6FCFFF73FFC606C401C08B900206E
:104640006064A06C401C08B90020A064FFF751FC16
:1046500005A901A801F0BFF8C0B92046FFF743FF44
:1046600070B104F11000059900F09DFF2046FFF79E
:10467000FBFE00F019FC0028A4D1FFF712FCA1E713
:104680002046FFF7F1FE00F00FFC9BE72046FFF706
:10469000EBFE00F009FC0020B7E72DE9F0470646E5
:1046A000894617461D4634461CB9FBF76DFD00BF11
:1046B000FEE7B9F1000F01D1206C08B9012000E03C
:1046C000002018B9FBF760FD00BFFEE7022D02D104
:1046D000E06B012801D1012000E0002018B9FBF7B0
:1046E00053FD00BFFEE7FFF727FCFBF74DFD8246B9
:1046F000A06BE16B884201D3022D1CD12A464946AA
:104700002046FFF7FFFEA06C401C70B9606A08B934
:10471000012000E0002058B904F1240000F0B4FFAB
:1047200030B12FB10120386002E0A06C401CA064C1
:104730004FF0010801E04FF000085046FBF72BFD59
:104740004046BDE8F0872DE9F04105460E462C466F
:104750001CB9FBF719FD00BFFEE7206C08B901206A
:1047600000E0002018B9FBF70FFD00BFFEE720684E
:1047700008B9606808B9012000E0002018B9FBF70B
:1047800003FD00BFFEE7FFF7D7FBFBF7FDFC80460C
:10479000A06BE16B884219D2A06B401CA063A06C97
:1047A000401C70B9606A08B9012000E0002058B9C7
:1047B00004F1240000F068FF30B12EB10120306018
:1047C00002E0A06C401CA064012700E000274046E6
:1047D000FBF7E1FC3846BDE8F08170B50546FFF710
:1047E0006AFBA86B08B9012400E00024FFF781FBF5
:1047F000204670BD70B504460D46206C70B1216C2A
:10480000E0680844E0606168E068884201D320689D
:10481000E0602846226CE16805F072FF70BD2DE96A
:10482000FF4383B005460E461F464FF000092C4655
:104830001CB9FBF7A9FC00BFFEE70EB9206C08B954
:10484000012000E0002018B9FBF79EFC00BFFEE746
:1048500000BFFFF730FBA06B68B3D4F80C80314683
:104860002046FFF7C7FF8FB9A06B401EA0632069E9
:1048700008B9012000E00020B8B904F1100000F0F0
:1048800003FF012811D1FFF70CFB0EE0C4F80C80E8
:10489000606A08B9012000E0002030B904F124006A
:1048A00000F0F2FE08B1FFF7FCFAFFF722FB01204F
:1048B00007B0BDE8F083059818B9FFF71AFB002090
:1048C000F6E7B9F1000F04D101A800F076FF4FF030
:1048D0000109FFF70EFB00F093FBFFF7ECFA606CA9
:1048E000401C08B900206064A06C401C08B900207E
:1048F000A064FFF7FEFA05A901A800F06CFFC0B99B
:104900002046FFF76AFF70B104F12400059900F01A
:104910004AFE2046FFF7A8FD00F0C6FA002898D10D
:10492000FFF7BFFA95E72046FFF79EFD00F0BCFABF
:104930008FE72046FFF798FD00F0B6FA0020B7E7B2
:104940002DE9F0470546884616462C461CB9FBF76C
:104950001BFC00BFFEE7B8F1000F01D1206C08B9C5
:10496000012000E0002018B9FBF70EFC00BFFEE7B5
:10497000FFF7E2FAFBF708FC8146A06BE8B141467D
:104980002046FFF737FFA06B401EA063606C401C01
:1049900070B9206908B9012000E0002058B904F17D
:1049A000100000F071FE30B12EB10120306002E045
:1049B000606C401C6064012700E000274846FBF75C
:1049C000EAFB3846BDE8F0872DE9F04705460F467B
:1049D0002C461CB9FBF7D8FB00BFFEE70FB9206CD3
:1049E00008B9012000E0002018B9FBF7CDFB00BF9B
:1049F000FEE7206C08B1012000E0002018B9FBF7A9
:104A0000C3FB00BFFEE7FFF797FAFBF7BDFB81464C
:104A1000A06B48B1D4F80C8039462046FFF7EAFE77
:104A2000C4F80C80012600E000264846FBF7B3FBE3
:104A30003046BDE8F08770B504461CB9FBF7A4FB0F
:104A400000BFFEE7FFF737FAA56BFFF752FA2846DB
:104A500070BD70B5044625461DB9FBF795FB00BF38
:104A6000FEE7FFF728FAD5E90E10461AFFF741FADC
:104A7000304670BD70B504461CB9FBF785FB00BF1E
:104A8000FEE7A56B284670BD70B5044625461DB9E6
:104A9000FBF77AFB00BFFEE72846FFF73DF970BD44
:104AA00070B505461DB9FBF76FFB00BFFEE7A86BAD
:104AB00008B9012400E00024204670BD70B504460A
:104AC0001CB9FBF761FB00BFFEE7A06BE16B8842FE
:104AD00001D1012500E00025284670BD10B5002455
:104AE00007E004EB8401FD4A02EB8100FFF703FCC1
:104AF000641C1E2CF5D3FA48FFF7FDFBF948FFF7BD
:104B0000FAFBF948FFF7F7FBF848FFF7F4FBF84822
:104B1000FFF7F1FBF248F7490860F248F6490860F0
:104B200010BD2DE9F04704460F4616469946DDF8BC
:104B30002080002507E0795D04F134004155785D5F
:104B400000B902E06D1C102DF5D300BF00214320F9
:104B500001551E2E00D31D26E662201DFFF7D8FB4F
:104B600004F11800FFF7D4FB2461C6F11E00A06118
:104B700064620020606484F84800BDE8F0872DE995
:104B8000F04106460F461FB9B000FFF746F800E0B7
:104B90003846054655B14C20FFF73FF804460CB1A6
:104BA000256304E02846FFF7B7F800E0002420461C
:104BB000BDE8F0812DE9FF4F81B0804616469A4648
:104BC000DDE90E5BB8F1000F03D1FBF7DDFA00BFA2
:104BD000FEE71E2D01D2012000E0002018B9FBF7EE
:104BE000D3FA00BFFEE730461099FFF7C8FF04462E
:104BF000002C5AD0701E216B01EB800929F00709A7
:104C000009F0070008B9012000E0002018B9FBF7FF
:104C1000BBFA00BFFEE700962A462046119B029988
:104C2000FFF77FFF524641464846FFF7D1F8206024
:104C3000BBF1000F01D0CBF80040FFF73CF9AF48C3
:104C40000068401CAD490860AD48006840B9AC48F8
:104C500004600846006801280CD1FFF73FFF09E017
:104C6000A848006830B9A6480068C06AA84201D8C0
:104C7000A3480460A4480068401CA349086094F855
:104C80002C1001208840A149096808439F49086009
:104C9000E16A01EB8101914A02EB8100211DFFF7DE
:104CA0003AFB0127FFF725F901E04FF0FF37012F0D
:104CB00009D19448006830B191480068C06AA842A0
:104CC00001D2FFF7EEF8384605B0BDE8F08F89490C
:104CD0000968096809B9012100E0002121B14FF0FC
:104CE000FF318B4A116006E082490968C968C868CB
:104CF000874A41681160704770B50546FFF7DBF8D9
:104D000015B97F48006800E028460446201DFFF7DB
:104D100028FB78B9E06A00EB8000704951F8200068
:104D200040B994F82C1001208840784909688143E3
:104D300076480160A06A18B104F11800FFF711FB72
:104D4000211D6A48FFF7E7FA72480068401C714964
:104D500008606D480068401C6B490860FFF7C9F89F
:104D600068480068B8B16648006884420DD16A4856
:104D7000006808B9012000E0002018B9FBF704FA28
:104D800000BFFEE7FFF78DF805E0FFF794F8FFF7A7
:104D90009EFFFFF7AEF870BD2DE9F0414FF000081F
:104DA0005D480068002872D15C480068401C5B497F
:104DB000086008460668DEB94E480068006808B911
:104DC000012000E0002018B9FBF7DEF900BFFEE784
:104DD00048480768484800684649086046480760F0
:104DE0004F480068401C4E490860FFF770FF00BF45
:104DF0004748006886423CD300BF3E4800680068D0
:104E000008B9012000E0002020B14FF0FF304049F8
:104E100008602DE037480068C068C4686568AE4225
:104E200002D23B48056023E0201DFFF79AFAA06AF2
:104E300018B104F11800FFF794FA94F82C1001202F
:104E4000884032490968084330490860E16A01EB4B
:104E50008101224A02EB8100211DFFF75CFA2849FB
:104E6000E06A0968C96A8842C7D34FF00108C4E7FD
:104E700000BF23480068C06A00EB8000174951F862
:104E80002000012808D94FF0010805E0FFE7254878
:104E90000068401C234908602348006808B14FF0AF
:104EA00001084046BDE8F08170B500251A48006849
:104EB00018B9FBF769F900BFFEE7FEF7FCFF1648DB
:104EC0000068401E1449086008460068002874D134
:104ED0000A480068002870D04DE00000F837002034
:104EE000503A0020643A0020783A00208C3A0020A2
:104EF000A03A002004020020080200201002002036
:104F0000000200201C0200202C02002018020020B9
:104F1000300200200C020020340200201402002085
:104F2000280200202002002024020020FA48C06845
:104F3000C46804F11800FFF714FA201DFFF711FAF6
:104F400094F82C1001208840F44909680843F3497B
:104F50000860E16A01EB8101F14A02EB8100211D49
:104F6000FFF7D9F9EF49E06A0968C96A884202D3B4
:104F70000120ED490860E848006808B9012000E018
:104F800000200028D2D0E948006878B10AE0FFF795
:104F900003FF10B10120E4490860E4480068401EA6
:104FA000E2490860E14800680028F0D1DE48006866
:104FB000012802D10125FEF774FFFEF79AFF28466B
:104FC00070BD10B50446D74800684460D8480068F2
:104FD000844207D2D3480168091DD6480068FFF70C
:104FE000A6F90CE0CF480168091DD3480068FFF717
:104FF0009EF9D2480068844201D2D048046010BDB6
:10500000CF480068401CCE49086070472DE9F04742
:1050100004460E464FF000091CB9FBF7B5F800BF77
:10502000FEE70EB1012000E0002018B9FBF7ACF854
:1050300000BFFEE7C248006808B9012000E0002078
:1050400018B9FBF7A1F800BFFEE7FFF7D9FFB84892
:10505000D0F80080206885192068404507D920686D
:10506000A8420BD9454509D94FF0010906E020684F
:10507000A84201D8454501D94FF001092560B9F191
:10508000000F13D0A7480068001DFFF76AF950B958
:10509000A448006890F82C10012088409F490968B6
:1050A00081439E4801602846FFF78BFFFFF7FCFE17
:1050B00007460FB9FEF7F5FEBDE8F08770B5044668
:1050C000002634B39E48006808B9012000E00020A3
:1050D00018B9FBF759F800BFFEE7FFF791FF9448B6
:1050E000006805198F480068001DFFF73AF950B9AC
:1050F0008C48006890F82C10012088408749096886
:105100008143864801602846FFF75BFFFFF7CCFE2E
:1051100006460EB9FEF7C5FE70BD70B50446FEF733
:10512000CAFE14B97F48006800E020460646F56ACA
:10513000FEF7DFFE284670BD2DE9F0410446FEF77C
:10514000FBFEFBF721F8064614B97648006800E03C
:1051500020460746FD6A3046FBF71DF82846BDE8A5
:10516000F0812DE9F04780460D464FF000091E2DD5
:1051700001D2012000E0002018B9FBF705F800BFBC
:10518000FEE71E2D00D31D25FEF795FEB8F1000F9A
:1051900002D16448006800E040460446E66AAE4238
:1051A0004BD0B5420BD95F48006884420DD05D48B2
:1051B0000068C06AA84208D84FF0010905E05948C4
:1051C0000068844201D14FF00109E76AE562A069F5
:1051D00000F0004010B9C5F11E00A06107EB870187
:1051E0004F4A02EB81016069884201D1012000E051
:1051F0000020E0B1201DFFF7B4F830B90120B8401D
:105200004649096881434548016094F82C10012003
:10521000884042490968084340490860E16A01EB57
:1052200081013F4A02EB8100211DFFF774F8B9F1BB
:10523000010F01D1FEF735FE00BFFEF75AFEBDE8B3
:10524000F08710B53E48006818B101203649086063
:105250002BE000203449086030480068B0FA80F044
:10526000C0F11F0404EB84002D4951F8200008B15F
:10527000012000E0002018B9FAF786FF00BFFEE722
:1052800004EB8401264A02EB8100416849684160D1
:1052900000F1080142688A4202D1416849684160D0
:1052A0004168C9681F4A116000BF10BD70B505464E
:1052B000FEF701FE15B91B48006800E028460446C9
:1052C000201DFFF74EF878B9E06A00EB8000144922
:1052D00051F8200040B994F82C10012088400F4963
:1052E000096881430D480160A06A18B104F11800F3
:1052F000FFF737F8211D1348FFF70DF8FEF7F9FD0A
:1053000008480068844237D10F48006838B30C4819
:105310000068D8B901201AE0783A0020180200206D
:10532000F837002000020020240200202002002084
:105330001402002008020020040200203002002095
:1053400034020020A03A00201C020020002018B9DE
:10535000FAF71AFF00BFFEE7FEF7A3FD15E0FE48CF
:105360000068FE490968884203D10020FC490860B2
:105370000BE0FFF766FF08E0FA48006828B1FEF787
:105380009AFDFFF7A4FCFEF7B4FD70BD70B50546AD
:1053900000262C461DB9FAF7F7FE00BFFEE7EE49DE
:1053A0006069884201D1012000E0002070B1EE491F
:1053B000A06A884201D1012000E0002030B9A06A33
:1053C00008B9012000E0002000B10126304670BD80
:1053D00070B505462C461DB9FAF7D6FE00BFFEE7AC
:1053E0004CB3DF480068844225D0FEF764FD2046B8
:1053F000FFF7CCFF01281CD1201DFEF7B2FF94F867
:105400002C1001208840D94909680843D749086011
:10541000E16A01EB8101D64A02EB8100211DFEF712
:105420007AFFCF49E06A0968C96A884201D3FEF76A
:1054300038FDFEF75EFD70BD2DE9F0410546002602
:105440002C461DB9FAF7A0FE00BFFEE7FEF774FD7B
:10545000FAF79AFE07462046FFF798FF012824D165
:10546000C4480068E0B9BE49E06A0968C96A884270
:1054700000D30126201DFEF774FF94F82C100120A4
:105480008840BA4909680843B8490860E16A01EBF5
:105490008101B74A02EB8100211DFEF73CFF04E0C9
:1054A00004F11801B048FEF736FF3846FAF773FEEC
:1054B0003046BDE8F08110B50446206BFEF72CFCA9
:1054C0002046FEF729FC10BD70B523E0FFF798FDDC
:1054D000A948006808B9012000E000200546FFF750
:1054E000E3FCBDB9FEF7E7FCA348C068C468201D13
:1054F000FEF737FF99480068401E984908609F48AA
:105500000068401E9D490860FEF7F3FC2046FFF747
:10551000D2FF00BF994800680028D7D170BD00BFF6
:10552000FFF7D2FF924800680128F9D9FEF7B9FCCD
:10553000F6E71FB5002000900190029003468022FC
:105540008FA103909048FFF735FB0446012C0DD145
:10555000FAF71AFEA01E8D490860012081490860F3
:1055600000208B490860FEF747FC04E01CB9FAF7FD
:105570000BFE00BFFEE71FBD10B5FAF705FE0020C9
:1055800078490860FEF77EFC10BD814908687047C5
:1055900070B5FEF7D1FC00257D480468204670BD3B
:1055A0006E480068704770B505460C461DB9FAF79D
:1055B000EBFD00BFFEE76A48016818312846FEF798
:1055C000B6FE67480068001DFEF7CBFE50B9644880
:1055D000006890F82C1001208840644909688143D4
:1055E00062480160601C30B95D480168091D5A4875
:1055F000FEF791FE05E06648006806193046FFF7A1
:10560000E0FC70BD2DE9F04105460E4614461DB97B
:10561000FAF7BAFD00BFFEE75648006808B101205E
:1056200000E0002018B9FAF7AFFD00BFFEE746F032
:1056300000404B490968886149480168183128468B
:10564000FEF769FE46480068001DFEF78AFE50B965
:105650004348006890F82C100120884043490968AD
:10566000814342480160601C30B93D480168091D12
:105670003948FEF750FE05E04548006807193846EE
:10568000FFF79FFCBDE8F08170B50646F068C4687E
:105690001CB9FAF779FD00BFFEE704F11800FEF728
:1056A00060FE34480068A8B9201DFEF75AFE94F841
:1056B0002C10012088402D49096808432B490860B7
:1056C000E16A01EB81012A4A02EB8100211DFEF70C
:1056D00022FE04E004F118012348FEF71CFE2049D5
:1056E000E06A0968C96A884204D90125012029496C
:1056F000086000E00025284670BD2DE9F041054610
:105700000F461C48006808B1012000E0002018B9CD
:10571000FAF73AFD00BFFEE747F000402860EC686A
:105720001CB9FAF731FD00BFFEE72846FEF719FE67
:10573000201DFEF716FE94F82C10012088400B491E
:105740000968084309490860E16A01EB8101084AD8
:1057500002EB8100211D1FE0A03A00201002002072
:10576000000200201C020020783A002018020020CD
:10577000F8370020340200208C3A00200C02002070
:1057800049444C45000000001F550008300200202D
:105790001402002024020020FEF7BDFDF949E06A52
:1057A0000968C96A884204D901260120F6490860BF
:1057B00000E000263046BDE8F08110B504461CB973
:1057C000FAF7E2FC00BFFEE7F04800682060F0480E
:1057D0000068606010BD2DE9F04104460D461CB91B
:1057E000FAF7D2FC00BFFEE71DB9FAF7CDFC00BF07
:1057F000FEE7FEF760FBE64807682868401C08B92A
:10580000002619E0E14920680968884204D06068F0
:10581000B84201D801260FE06068381A296888422A
:1058200009D228686168791A401A28602046FFF773
:10583000C4FF002600E00126FEF75BFB3046BDE812
:10584000F0810120D04908607047CE490968886915
:10585000CC490968C96AC1F11E01CA4A126891613E
:1058600070472DE9F04106460C46FEF724FBC5487B
:105870000068406C38BB0120C249096881F84800C3
:105880000CB3C0480068001DFEF76BFD50B9BD4861
:10589000006890F82C1001208840BE4909688143B7
:1058A000BC480160601C30B9B6480168091DBA489F
:1058B000FEF731FD05E0B648006807193846FFF7E6
:1058C00080FBFEF7EEFAFEF714FBFEF7F4FAAD48A4
:1058D0000068456C65B126B10020AA490968486492
:1058E00006E0A849096801F14400496C491E0160BD
:1058F0000020A449096881F84800FEF7FAFA284612
:10590000BDE8F0812DE9F0470746884615461C465C
:10591000FEF7D1FA9B48006890F8480002282FD083
:105920009849096801F14400496CB94301600120BC
:105930009449096881F8480014B392480068001D32
:10594000FEF70FFD50B98F48006890F82C10012029
:1059500088409049096881438E480160601C30B9D5
:1059600088480168091D8C48FEF7D5FC06E0884888
:10597000006800EB04094846FFF723FBFEF791FAA5
:10598000FEF7B7FAFEF797FA1DB17E480068406C43
:1059900028607C48006890F84800012801D1002662
:1059A00008E07849096801F14400496C21EA0801DE
:1059B0000160012600207349096881F84800FEF75C
:1059C00098FA3046BDE8F0872DE9F04706460D46C7
:1059D000174698464FF0010A1EB9FAF7D5FB00BFEB
:1059E000FEE73446FEF767FAB8F1000F02D0606CAC
:1059F000C8F8000094F84890022084F84800052F69
:105A000017D2DFE807F01503070B0D00606C284381
:105A100060640EE0606C401C60640AE0656408E04D
:105A2000B9F1020F01D0656401E04FF0000A00E017
:105A300000BF00BFB9F1010F26D1201DFEF791FC78
:105A400094F82C10012088405249096808435149B4
:105A50000860E16A01EB8101504A02EB8100211DDF
:105A6000FEF759FCA06A08B9012000E0002018B92F
:105A7000FAF78AFB00BFFEE74249E06A0968C96A93
:105A8000884201D9FEF70DFAFEF733FA5046BDE819
:105A9000F0872DE9F84F06460D4617469846DDF883
:105AA00028A04FF0010B1EB9FAF76EFB00BFFEE70E
:105AB000FEF742FA3446FAF767FB0090B8F1000FA0
:105AC00002D0606CC8F8000094F84890022084F876
:105AD0004800052F17D2DFE807F01503070B0D006C
