:020000040800F2
:10000000D83700200D1600083116000833160008F6
:10001000371600083B1600083F16000800000000D5
:1000200000000000000000000000000001010008C6
:10003000431600080000000045010008FF7000089A
:10004000271600082716000827160008271600089C
:10005000271600082716000827160008271600088C
:10006000271600082716000827160008271600087C
:1000700027160008271600089357000827160008BF
:10008000271600082716000827160008271600085C
:10009000271600082716000827160008271600084C
:1000A000271600082716000827160008271600083C
:1000B000271600082716000827160008271600082C
:1000C000271600082716000827160008271600081C
:1000D00027160008B757000827160008271600083B
:1000E000271600082716000827160008DFF80CD08E
:1000F00009F07AFD0048004741170008D837002072
:10010000204B19680868B0E8F00F80F30988BFF346
:100110006F8F4FF0000080F311884EF00D0E704786
:100120000000000006480068006880F3088862B696
:1001300061B6BFF34F8FBFF36F8F00DF00BF00BF0B
:1001400008ED00E0EFF30980BFF36F8F0D4B1A68E5
:1001500020E9F00F106008B54FF0100080F311880F
:1001600007F0B9FF4FF0000080F31188BDE80840A8
:1001700019680868B0E8F00F80F30988BFF36F8F43
:10018000704700BF7C020020EFF311804FF0100198
:1001900081F31188704780F311887047EFF3058071
:1001A000704700000CB50020019000906C4800687A
:1001B00040F480306A49086000BF6948006800F474
:1001C000003000900198401C0190009818B90198E7
:1001D000B0F5A06FF1D16248006800F4003010B1B2
:1001E0000120009001E0002000900098012843D1F8
:1001F0005C48006840F010005A49086008460068F2
:1002000020F0030008600846006840F00200086023
:10021000534840685249486008464068486008466C
:10022000406840F4806048600846406820F47C10D4
:1002300048600846406840F4E81048600846006896
:1002400040F08070086000BF4548006800F0007012
:100250000028F9D04248406820F003004049486037
:100260000846406840F00200486000BF3C484068D3
:1002700000F00C000828F9D10CBD10B5FFF792FF73
:1002800010BD10B53648006840F0010034490860E0
:1002900008464068344908403149486008460068CB
:1002A000324908402E4908600846006820F4802042
:1002B00008600846406820F4FE0048604FF41F00C4
:1002C0008860FFF7DAFF4FF000602949086010BD31
:1002D00010B5002100200022214B5B6803F00C01C7
:1002E00021B1042906D0082928D107E0214B224C4E
:1002F000236027E01F4B204C236023E0184B5B68F2
:1003000003F47010164B5B6803F48032022303EB96
:10031000904022B9194B4343174C23600DE0104B1A
:100320005B6803F4003323B1144B4343124C236046
:1003300003E0104B4343104C236003E00D4B0E4C85
:10034000236000BF00BF064B5B68C3F303130C4C74
:10035000E15C094B1B68CB40074C236010BD0000DB
:1003600000100240002002400000FFF8FFFFF6FEF0
:1003700008ED00E000127A000000002000093D00B6
:100380000400002031490143314A1160704770B5C3
:10039000002100230F22C47804B32D4C246804F4F8
:1003A000E064C4F5E064210AC1F10403CA40447862
:1003B00004FA03F18478144021430901254C06789E
:1003C000A155047804F01F050124AC4005786D1197
:1003D000AD0005F1E025C5F8004109E0047804F01E
:1003E0001F050124AC401C4D0678761145F82640C7
:1003F00070BD1A4A0A400243154B1B1F1A60704712
:1004000039B1134A121D12680243114B1B1D1A60A9
:1004100006E00F4A121D126882430D4B1B1D1A6025
:100420007047042808D14FF0E021096941F0040128
:100430004FF0E022116107E04FF0E021096921F05F
:1004400004014FF0E0221161704700000000FA053E
:100450000CED00E000E400E080E100E080FFFF1F21
:1004600010B50446FA48844208D10121401500F035
:100470007FFE0021601500F07BFE17E0F548844206
:1004800008D10121001500F073FE0021201500F0B5
:100490006FFE0BE0F048844208D10121C80300F050
:1004A00067FE00214FF4004000F062FE10BD30B541
:1004B0000246002000235068E84C20400D790C686B
:1004C00044EA0524204350609068E54C2040D1E97F
:1004D00002542C434D7944EA450420439060D06A8D
:1004E00020F470000C7C641EE4B2234340EA035005
:1004F000D06230BD00210160017141718160C16035
:1005000001210174704721B1826842F001028260CA
:1005100003E0826822F001028260704721B18268A4
:1005200042F48072826003E0826822F4807282600A
:10053000704710B50023CBB21AB144681C43446025
:1005400002E044689C43446010BD816841F00801AA
:1005500081607047014600208A6802F008020AB1F3
:10056000012000E000207047816841F004018160B3
:100570007047014600208A6802F004020AB1012097
:1005800000E00020704721B1826842F4A00282603E
:1005900003E0826822F4A0028260704701460020D6
:1005A0008A6802F480020AB1012000E0002070474E
:1005B00010B50A4600210023416821F46041531E12
:1005C00041EA4331416010BD21B1426842F400620A
:1005D000426003E0426822F4006242607047F0B576
:1005E00004460D4600200021092D11DDE068A5F12B
:1005F0000A0606EB4607072606FA07F18843A5F127
:100600000A0606EB460603FA06F10843E0600CE032
:10061000206905EB4507072606FA07F1884305EB35
:10062000450603FA06F108432061072A0FDA606BDA
:10063000561E06EB86071F2606FA07F18843561E4C
:1006400006EB860605FA06F10843606322E00D2AF0
:100650000FDA206BD61F06EB86071F2606FA07F176
:100660008843D61F06EB860605FA06F10843206389
:1006700010E0E06AA2F10D0606EB86071F2606FAD7
:1006800007F18843A2F10D0606EB860605FA06F18E
:100690000843E062F0BD21B1826842F480128260BA
:1006A00003E0826822F48012826070470146C86CC1
:1006B00080B2704766484C300068704721B142688C
:1006C00042F48062426003E0426822F48062426049
:1006D000704721B1426842F48052426003E04268B0
:1006E00022F48052426070470A460021816821F45A
:1006F000E04111438160704721B1826842F40042B9
:10070000826003E0826822F400428260704721B177
:10071000826842F40212826003E0826822F40212CC
:1007200082607047014600208A6802F400120AB114
:10073000012000E000207047F0B504461546002077
:1007400000220026092911DDE068A1F10A0707EB64
:10075000470C072707FA0CF29043A1F10A0707EBB1
:10076000470703FA07F21043E0600CE0206901EB51
:10077000410C072707FA0CF2904301EB410703FAFB
:1007800007F210432061A06BC0F30156EF1C06F185
:10079000010CA7EB0C0707EB870C1F2707FA0CF2DD
:1007A0009043EF1C06F1010CA7EB0C0707EB870742
:1007B00001FA07F21043A063F0BD10B50A4600210C
:1007C0000023816B21F44011531E41EA03518163E0
:1007D00010BD08B5002300930090009B0B440093CC
:1007E000009B1A6008BD08B50246002000900092E8
:1007F00001F12800009B184400900098006880B226
:1008000008BD0A4600214168164B1940114341605A
:1008100070474162826270470A460021416821F0B8
:100820001F0111434160704740B10949083109680F
:1008300041F40001064A0832116007E0044908311A
:10084000096821F40001024A083211607047000073
:100850000024014000280140003C0140FFFEF0FF61
:10086000FDF7F1FFFFFD3FFF0246002013680B403C
:100870000BB1012000E000207047CA4302607047BE
:1008800070B502460020002300240B125568CEB23A
:1008900005EA060415681D4015B10CB1012000E001
:1008A000002070BD00220A12D3430360704700008D
:1008B00001684FF6FE721140016000210160416045
:1008C0008160C1608D49884208D18C4908394968E6
:1008D00041F00F01894A083A51608AE08749143192
:1008E000884208D185490839496841F0F001834AB6
:1008F000083A51607DE081492831884208D17F491A
:100900000839496841F470617C4A083A516070E0E6
:100910007A493C31884208D178490839496841F41C
:100920007041764A083A516063E074495031884218
:1009300008D172490839496841F470216F4A083A70
:10094000516056E06D496431884208D16B490839DD
:10095000496841F47001694A083A516049E06749C1
:100960007831884208D165490839496841F0706199
:10097000624A083A51603CE06149884206D1011F51
:10098000096841F00F01021F116032E05C49143127
:10099000884208D15A49091F096841F0F001584AB4
:1009A000121F116025E056492831884208D1544968
:1009B000091F096841F47061514A121F116018E063
:1009C0004F493C31884208D14D49091F096841F41B
:1009D00070414B4A121F11600BE049495031884267
:1009E00007D14749091F096841F47021444A121F81
:1009F0001160704710B50022026847F6F0739A4301
:100A00000C6A8B6823430C6923434C6923438C692C
:100A10002343CC6923434C6A23438C6A23431A4300
:100A20000260CB6843600B6883604B68C36010BD95
:100A30000021016041608160C160016141618161AB
:100A4000C161016241628162704721B1026842F076
:100A50000102026004E002684FF6FE731A40026071
:100A600070471AB103680B43036002E003688B43CD
:100A700003607047416070470146486880B2704724
:100A800001460020002201F080531BB11C4B083BA3
:100A90001A6802E0194B083B1A6802EA01030BB11D
:100AA000012000E00020704700F0805119B1144986
:100AB000091F086002E01149083948607047014683
:100AC0000020002201F080531BB10D4B083B1A6837
:100AD00002E00A4B083B1A6802EA01030BB101204D
:100AE00000E00020704700F0805119B10449091F4F
:100AF000086002E001490839486070470800024078
:100B00000804024010B50446CC48844208D10121B3
:100B1000042000F02DFB0021042000F029FB46E01A
:100B2000C748844208D10121082000F021FB0021A0
:100B3000082000F01DFB3AE0C248844208D10121A0
:100B4000102000F015FB0021102000F011FB2EE01A
:100B5000BD48844208D10121202000F009FB00217A
:100B6000202000F005FB22E0B848844208D1012192
:100B7000402000F0FDFA0021402000F0F9FA16E0D4
:100B8000B348844208D10121802000F0F1FA00210D
:100B9000802000F0EDFA0AE0AE48844207D101213E
:100BA000801500F0E5FA0021A01500F0E1FA10BD73
:100BB00010B50121084600F0DBFA0021012000F009
:100BC000D7FA10BD2DE9F04102460025002600208D
:100BD00000230024002791F803C00CF00F0591F8C2
:100BE00003C00CF0100CBCF1000F03D091F802C050
:100BF0004CEA050591F800C0BCF1000F31D0146833
:100C000000202BE04FF0010C0CFA00F3B1F800C00B
:100C10000CEA03069E4220D183004FF00F0C0CFA21
:100C200003F7BC4305FA03FC4CEA040491F803C043
:100C3000BCF1280F06D14FF0010C0CFA00FCC2F8F1
:100C400014C00AE091F803C0BCF1480F05D14FF081
:100C5000010C0CFA00FCC2F810C0401C0828D1D3CB
:100C60001460B1F800C0BCF1FF0F34DD54680020FF
:100C70002EE000F1080C4FF0010808FA0CF3B1F86F
:100C800000C00CEA03069E4221D183004FF00F0CF6
:100C90000CFA03F7BC4305FA03FC4CEA040491F890
:100CA00003C0BCF1280F05D100F1080C08FA0CF8BC
:100CB000C2F8148091F803C0BCF1480F07D100F1CD
:100CC000080C4FF0010808FA0CF8C2F81080401C1C
:100CD0000828CED35460BDE8F0814FF6FF71018043
:100CE000022181700421C170704702460020936880
:100CF0000B400BB1012000E00020704701468868DE
:100D000080B2704702460020D3680B400BB101202F
:100D100000E0002070470146C86880B2704701615A
:100D20007047416170470AB1016100E0416170475D
:100D3000C16070474FF480320A43826181618261F1
:100D400082698269704702460020434B18684FF65B
:100D50008073184040EA021008433F4B1860704708
:100D60003E49C8617047F0B50A46002300240021BF
:100D7000002500F00046B6F1004F02D1364EF16971
:100D800001E0354E7168C0F3034583B200F44016AC
:100D9000B6F5401F08D121F070612F4E766826F01D
:100DA00070662D4F7E6012E000F48016B6F5801F4D
:100DB00006D1032606FA05F4A14341F0706106E06E
:100DC000460D360103FA06F6B14341F0706122B1D7
:100DD000460D360103FA06F6314300F00046B6F13F
:100DE000004F02D11C4EF16101E01B4E7160F0BD5D
:100DF00030B500228B071C0F0F2303FA04F2164BA9
:100E000008338C1053F824309343134C08348D105E
:100E100044F8253023468C1053F824308C07240FD7
:100E200000FA04F423430C4C08348D1044F82530A8
:100E300030BD0A49DC3108607047000000080140FD
:100E4000000C014000100140001401400018014056
:100E5000001C014000200140000001400000204231
:100E6000DF48006840F00100DD490860084640683E
:100E7000DC490840DA49486008460068DA49084019
:100E8000D74908600846006820F4802008600846BA
:100E9000406820F4FE0048604FF41F0088607047EF
:100EA000CF49096821F48031CD4A116011460968A3
:100EB00021F480211160B0F5803F03D0B0F5802F80
:100EC0000ED106E0C649096841F48031C44A116078
:100ED00007E0C349096841F4A021C14A116000E05C
:100EE00000BF00BF704710B501460022002300205C
:100EF0004A11012A02D1BA4C236806E0022A02D123
:100F0000B74C236A01E0B64C636A01F01F0201246A
:100F100094401C400CB1012000E0002010BD38B509
:100F2000002000900024002500BF3120FFF7DBFFE8
:100F300005460098401C00900098B0F5A06F01D0C5
:100F4000002DF2D03120FFF7CEFF08B1012400E0E0
:100F50000024204638BD01460020A14A106820F038
:100F6000F80040EAC10010607047A049086070476F
:100F7000024600209A4B586820F47C1042EA010394
:100F80001843974B58607047984908667047014668
:100F90000020934A506820F00300084350607047D7
:100FA0008F48406800F00C007047014600208C4AD2
:100FB000506820F0F0000843506070470146002060
:100FC000874A506820F4E06008435060704701464B
:100FD0000020834A506820F4605040EAC10050600D
:100FE000704729B17E4A527A02437D4B5A7204E01F
:100FF0007B4A527A82437A4B5A7270477B49D83186
:101000000860704701460020754A506820F440404F
:101010000843506070470021714A20321170704AB5
:1010200082F82010012802D004280AD104E001210E
:101030006B4A2032117005E00521694A2032117097
:1010400000E000BF00BF704769490860704764490D
:10105000096A0143624A1162704765494439086070
:10106000704730B500210022002400235C4D6D68DC
:1010700005F00C0121B1042905D0082923D105E090
:101080005C4D056022E05B4D05601FE0544D6D68CE
:1010900005F47012524D6D6805F48034022505EB9D
:1010A00092421CB9544D554305600BE04C4D6D68A0
:1010B00005F400351DB1504D5543056002E04D4D1E
:1010C0005543056002E04B4D056000BF00BF444D35
:1010D0006D6805F0F0010909484D6B5C0568DD405D
:1010E00045603F4D6D6805F4E061090A434D6B5C56
:1010F0004568DD4085603A4D6D6805F46051C90A68
:101100003E4D6B5C4568DD40C560354D6D6805F44E
:101110004041890B3A4D6B5CC568B5FBF3F5056141
:1011200030BD29B12E4A526902432D4B5A6104E069
:101130002B4A526982432A4B5A61704729B1284A87
:1011400092690243264B9A6104E0254A92698243E0
:10115000234B9A61704729B1214AD2690243204B3F
:10116000DA6104E01E4AD26982431D4BDA6170479E
:1011700029B11B4AD2680243194BDA6004E0184ACD
:10118000D2688243164BDA60704729B1144A12695B
:101190000243134B1A6104E0114A12698243104B57
:1011A0001A61704712494039086070470F49C86496
:1011B00070470B49C87170470948406A40F0807019
:1011C00007494862704701460020054A92680A4074
:1011D0000AB1012000E00020704701498872704781
:1011E000001002400000FFF8FFFFF6FE0000424240
:1011F0008004424200127A0000093D0014000020E1
:101200002400002010B50446FB48844209D1012186
:101210008803FFF7ADFF00214FF48040FFF7A8FFE0
:1012200032E0F648844209D101214804FFF7ADFFBE
:1012300000214FF40030FFF7A8FF25E0F04884427A
:1012400009D101218804FFF7A0FF00214FF480207D
:10125000FFF79BFF18E0EB48844209D10121C80445
:10126000FFF793FF00214FF40020FFF78EFF0BE004
:10127000E548844208D101210805FFF786FF0021D7
:101280004FF48010FFF781FF10BD2DE9F04786B0C5
:1012900005460E460024A24600BFA1460027B0899D
:1012A00000B100BF2F462C8A4CF6FF700440F08836
:1012B00004432C82AC894EF6F3100440B088318987
:1012C0000843718908430443AC81AC8A4FF6FF4060
:1012D0000440B0890443AC8201A8FFF7C2FEC648AF
:1012E000874202D1DDF810A001E0DDF80CA0A8894A
:1012F00000F4004040B10AEBCA0000EB0A1031686C
:101300004900B0FBF1F807E00AEBCA0000EB0A1055
:1013100031688900B0FBF1F86420B8FBF0F00401FB
:101320002009642101FB1089A88900F4004040B124
:10133000322000EBC900B0FBF1F000F007000443DD
:1013400008E0322000EB09106421B0FBF1F000F05E
:101350000F0004432C8106B0BDE8F0874FF416510E
:10136000016000218180C18001810C214181002127
:101370008181704710B502460020108A4FF2FF03AA
:1013800018400B884C8823438C882343CC88234304
:101390001843108210BD0021018041808180C180EE
:1013A000704721B1828942F40052828104E082892F
:1013B0004DF6FF731A4082817047F0B50346002452
:1013C00000260025002040F66A17B94200D100BF70
:1013D0001846C1F3421401F01F06012707FA06F56B
:1013E000012C01D10C3004E0022C01D1103000E0BE
:1013F00014301AB107682F43076002E00768AF4353
:101400000760F0BD1AB1838A0B43838202E0838AAE
:101410008B4383827047028A4FF6F0731A40028230
:10142000028A0A430282704782894FF2FF731A4090
:10143000828182890A438281704721B1828942F088
:101440000202828104E082894FF6FD731A40828194
:101450007047028A4FF6DF731A400282028A0A43FB
:101460000282704721B1028A42F48042028204E083
:10147000028A4BF6FF731A4002827047C1F30802DA
:101480008280704701468888C0F3080070478189D0
:1014900041F0010181817047028BD2B20283028B3D
:1014A00042EA012202837047028B02F47F420283E8
:1014B000028B0A430283704721B1828A42F02002E4
:1014C000828204E0828A4FF6DF731A40828270477C
:1014D00021B1828A42F01002828204E0828A4FF6B1
:1014E000EF731A408282704721B1828A42F008026B
:1014F000828204E0828A4FF6F7731A408282704734
:1015000021B1828942F40042828103E08289C2F3E0
:101510000E028281704721B1828A42F40062828287
:1015200004E0828A4FF2FF731A4082827047828AF7
:101530004FF6FB731A408282828A0A438282704786
:1015400021B1828A42F00202828204E0828A4FF64E
:10155000FD731A408282704702460020B1F5007F79
:1015600000D100BF13880B400BB1012000E0002028
:10157000704701F40072B2F5007F00D100BFCA438A
:101580000280704770B50246002400230025002029
:1015900040F66A16B14200D100BFC1F3421501F016
:1015A0001F03012606FA03F3012D02D19689334069
:1015B00006E0022D02D1168A334001E0968A3340BC
:1015C0000C12012606FA04F41688344013B10CB14B
:1015D000012000E0002070BD10B50022002340F67D
:1015E0006A14A14200D100BF0A1201249440A3B2A0
:1015F000DC43048010BD000000380140004400407E
:1016000000480040004C0040005000400648804721
:1016100006480047FEE7FEE7FEE7FEE7FEE7FEE7D7
:10162000FEE7FEE7FEE7FEE783020008ED000008A4
:10163000704700BFFEE700BFFEE700BFFEE700BF48
:10164000FEE7704710B500223221052005F022FE8A
:101650004349086000223221012005F01BFE414968
:10166000086000221421012005F014FE3E490860A4
:1016700000221421012005F00DFE3C49086010BD38
:101680001FB500203A4A0623CDE9012000930390BC
:101690000346802237A13A4806F0D6F90020394A9D
:1016A0000923CDE90120009303900346802236A14F
:1016B000384806F0C9F90020374A0723CDE9012050
:1016C0000093039003464FF4807234A1374806F02C
:1016D000BBF90020364A0A23CDE90120009303908C
:1016E0000346802233A1364806F0AEF90020354A81
:1016F0000B23CDE90120009303900346802232A101
:10170000354806F0A1F90020344A0C23CDE9012028
:101710000093039003464FF4807231A1344806F0E1
:1017200093F90020334A0C23CDE901200093039064
:1017300003464FF480722AA12F4806F085F91FBD99
:10174000012080F3108800BF03F02CFF07F014FA8B
:10175000FFF796FFFFF776FF06F035FE00BFFEE7C6
:1017600044000020480000204C00002050000020D1
:10177000280000205461736B204C65640000000059
:10178000218B00082C0000205461736B204B65797D
:10179000000000003B8B0008380000205461736B90
:1017A00020446973706C6179000000004D8B000863
:1017B000400000205461736B204D707500000000E4
:1017C000198D00083C0000205461736B204A6F792A
:1017D000537469636B000000ED8C0008300000203A
:1017E0005461736B205561727431527800000000AF
:1017F000218F000834000020458F0008014691F930
:101800000020002A01DD00201EE091F90020002ABE
:1018100001DA042018E091F90120002A01DD0120FD
:1018200012E091F90120002A01DA05200CE091F97B
:101830000220002A01DD022006E091F90220002AA0
:1018400001DA062000E00720704770B505462846FB
:10185000FFF7D4FF0446E81CFFF7D0FF44EAC000BE
:1018600084B2A81DFFF7CAFF44EA801084B2204664
:1018700070BD70B588B002A905A801F0E3FF044669
:10188000072C3FD101A801F04CFA059808F02FF879
:101890000646019907F033FE054608F036F8059034
:1018A000069808F024F80646019907F028FE054638
:1018B00008F02BF80690079808F019F806460199E9
:1018C00007F01DFE054608F020F8079005A802F075
:1018D000CCFA684601F042FABDF80010029848437D
:1018E0000290BDF80010039848430390BDF8001023
:1018F00004984843049002A802F04AFBFDA008F0B7
:1019000011FA00BF08B070BD2DE9F04304460D4642
:10191000DDE907670021012041E0DFF8FCC33CF866
:101920001080A0F1010CDFF8F09329F81C8009F178
:10193000160C3CF81090A0F1010CDFF8DC8308F1E4
:10194000160828F81C9008F1160C3CF81090A0F12D
:10195000010C08F1160828F81C9008F1160C3CF848
:101960001090A0F1010C08F1160828F81C9008F15D
:10197000160C3CF81090A0F1010C08F1160828F89C
:101980001C9008F1160C3CF81090A0F1010C08F125
:10199000160828F81C9000F1010C0CF0FF000A2832
:1019A000BBDBDFF874C3ACF81240ACF82850ACF8DD
:1019B0003E20ACF85430ACF86A60ACF8807000217E
:1019C000002008E0DFF850C33CF910C0614400F18A
:1019D000010C0CF0FF000A28F4DB4FF00A0C91FB1D
:1019E000FCFC0FFA8CFCDFF83083A8F814C000214F
:1019F00000200AE0DFF820C30CF1160C3CF910C0FF
:101A0000614400F1010C0CF0FF000A28F2DB4FF0FA
:101A10000A0C91FBFCFC0FFA8CF8DFF8FCC2ACF866
:101A20002A80002100200AE0DFF8ECC20CF12C0C27
:101A30003CF910C0614400F1010C0CF0FF000A28D1
:101A4000F2DB4FF00A0C91FBFCFC0FFA8CF8DFF88C
:101A5000C8C2ACF84080002100200AE0DFF8B8C21C
:101A60000CF1420C3CF910C0614400F1010C0CF087
:101A7000FF000A28F2DB4FF00A0C91FBFCFC0FFA86
:101A80008CF8DFF894C2ACF85680002100200AE000
:101A9000DFF884C20CF1580C3CF910C0614400F12D
:101AA000010C0CF0FF000A28F2DB4FF00A0C91FB4E
:101AB000FCFC0FFA8CF8DFF860C2ACF86C800021F7
:101AC00000200AE0DFF850C20CF16E0C3CF910C0A7
:101AD000614400F1010C0CF0FF000A28F2DB4FF02A
:101AE0000A0C91FBFCFC0FFA8CF8DFF82CC2ACF866
:101AF0008280BDE8F08338B50446032302226B21BF
:101B0000D020009405F0C4F838BD38B5044602234F
:101B100004221B21D020009405F0BAF838BD38B556
:101B20000446022304221C21D020009405F0B0F8C2
:101B300038BD10B50446234606226B21D02005F09F
:101B4000DCF810BD10B5754B01227521D02005F0D1
:101B50002EF87248007810BD10B5FFF7F3FF682823
:101B600001D1012010BD0020FCE710B5044623463A
:101B700005226A21D02005F0C0F810BD10B504463A
:101B8000234601223721D02005F0B7F810BD10B54B
:101B90000220FFF7B0FF0320FFF7B7FF0020FFF799
:101BA000BEFF0020FFF7C5FF0020FFF7DEFF00208B
:101BB000FFF7E4FF10BD08B5002000906B4601223E
:101BC0007521682004F095FF00F0E7FD08BD2DE9C0
:101BD000F04F8FB00CA852490DAB08AACDE9001008
:101BE0005049514802F050FE4D48008800F4807082
:101BF00000287DD0089807F07AFE04464FF09D41FA
:101C000007F0AFFC49490860099807F070FE0446E8
:101C10004FF09D4107F0A5FC454908600A9807F080
:101C200066FE04464FF09D4107F09BFC4149086069
:101C30000B9807F05CFE04464FF09D4107F091FCC5
:101C40003D490860394801684FF0804007F057FC73
:101C5000069038480168069807F051FC82463448DF
:101C600001684FF0404007F04AFC06903248016896
:101C7000069807F044FC8346514607F0E8FB0790BE
:101C800007F070FE804608F0F9F806464FF066321D
:101C90002A4B07F04BFD044607F077FE2849086001
:101CA000244801684FF0804007F029FC0390214848
:101CB0000168039807F023FC82461D4801684FF035
:101CC000404007F01CFC039019480168039807F096
:101CD00016FC8346514607F00CFC81464FF07E51BE
:101CE00007F0B5FB044607F03DFECDE9040129E00D
:101CF000ABE0000073657474696E6720626961739C
:101D00002073756363657366756C6C79202E2E2E57
:101D10002E2E2E0D0A000000EA020020DC02002018
:101D2000600000205A0000205400002070000020B5
:101D300074000020780000207C00002066A64C4043
:101D4000640000205E4801684FF0804007F0D7FB38
:101D500083465C480168584607F0D1FB81465A48E3
:101D600001684FF0804007F0CAFB8346574801687E
:101D7000584607F0C4FB8246494607F068FB044614
:101D800007F0F0FD0746DDE9042308F0BFFA4FF045
:101D900066324F4BCDE9060107F0C8FC054607F057
:101DA000F4FD4C49086049480168006807F0A7FB4A
:101DB000039045480168006807F0A1FB0290414884
:101DC0000168006807F09BFB83463D480168006896
:101DD00007F095FB5946019007F039FB82460299BE
:101DE00007F087FB8146039907F083FB044607F061
:101DF000B9FDCDE90401354801683148006807F0B4
:101E00007EFB8246304801682E48006807F077FB69
:101E10008346514607F01BFB81464FF0804107F097
:101E20006EFB044607F09EFD0746DDE9042308F03B
:101E30006DFA4FF06632264BCDE9060107F076FCCD
:101E4000054607F0A2FD244908600FB0BDE8F08FF9
:101E50002DE9F05F4221D02004F086FE05464121A5
:101E6000D02004F081FE05EB0024204607F03FFD62
:101E700082464FF08E41504607F0AEFD05D24FF03E
:101E80008F41504607F035FB82461449504607F013
:101E900068FB834607F066FD8046114A114B07F048
:101EA0009EFB06460022104B07F040FC044607F05C
:101EB0006CFD8246504607F028FDBDE8F09F00000B
:101EC0007000002074000020780000207C000020BA
:101ED00066A64C40680000206C0000200000AA4369
:101EE000A4703D0AD74342400000244038B5044660
:101EF000FC4890F82400C0B114B10220009001E029
:101F000000200090F74A1268D17BF64A5268107898
:101F10006B46012204F08CFD10B14FF0FF3038BD4C
:101F20009DF80010EF48417423E0EE48807A10B924
:101F30004FF0FF30F3E724B1EA48407C08B10020BD
:101F4000EDE714B10120009001E000200090E54A87
:101F50001268D17BE34A526810786B46012204F084
:101F600067FD10B14FF0FF30D9E79DF80010DD4854
:101F700041740020D3E738B5002419E0D94800683F
:101F8000C07AA04204D0D7480068407DA04200D16A
:101F90000CE0D449496808786B460122214604F0D8
:101FA000A8FD10B14FF0FF3038BD00BF601CC4B2B7
:101FB000CC4840680079A042E0DC0020F4E770B52E
:101FC00004460D46C7480068C07AA04204D0C54800
:101FD0000068407DA04202D14FF0FF3070BDC14883
:101FE00040680079A04202DC4FF0FF30F6E7BD49BF
:101FF000496808782B460122214604F07AFDEDE776
:1020000038B50446B74890F82300A04201D100201B
:1020100038BD14B13020009001E000200090B1489C
:10202000807C20B19DF8000040F002000090AD4897
:1020300090F8220020B19DF8000040F08000009050
:10204000A84A1268117DA74A526810786B4601228F
:1020500004F0EEFC10B14FF0FF30D9E7A14880F852
:1020600023400020D4E738B5044604F0700010B1D6
:102070000120009005E014B10020009001E0402014
:102080000090984A1268917C964A526810786B4684
:10209000012204F0CDFC20B1002192488172481E3B
:1020A00038BD9DF8000020F040018E4801730020EB
:1020B000009004F0400020B99DF8000040F00400BA
:1020C000009004F0200020B99DF8000040F00200CC
:1020D000009004F0100020B99DF8000040F00100CD
:1020E000009004F0080020B99DF8000040F038008E
:1020F00000907C4A1268D17C7A4A526810786B460C
:10210000012204F095FC20B1002176488172481E1E
:10211000C6E724B1082C02D00020FFF771FF7148F8
:102120008472002101754CF2503003F0B8F90020A0
:10213000B6E738B504466B48807CA04201D1002048
:1021400038BD002C47D0674A12681179654A526839
:1021500010786B46012204F0CCFC10B14FF0FF3038
:10216000EEE79DF8000020F0200000905D4A126824
:1021700011795C4A526810786B46012204F058FCD1
:1021800010B14FF0FF30DBE740F6B83003F087F9CD
:1021900002200090534890F8220020B19DF80000E2
:1021A00040F0800000904F4890F8230020B19DF847
:1021B000000040F0300000904A4A1268117D494A00
:1021C000526810786B46012204F032FC002852D08D
:1021D0004FF0FF30B4E7434A12681179414A526820
:1021E00010786B46012204F084FC10B14FF0FF30F0
:1021F000A6E73C48807A00F0010028B19DF8000075
:1022000040F02000009004E09DF8000020F0200045
:102210000090344A12681179324A526810786B463D
:10222000012204F005FC10B14FF0FF3088E740F6C2
:10223000B83003F034F92B4890F8220010B1802018
:10224000009001E000200090264890F8230020B183
:102250009DF8000040F030000090224A1268117D85
:10226000204A526810786B46012204F0E1FB10B15D
:102270004FF0FF3064E71B488474002060E708B526
:102280001848807A10B94FF0FF3008BD0020009048
:10229000144A1268D17B134A526810786B460122A7
:1022A00004F0C6FB10B14FF0FF30EEE70D4A1268A4
:1022B00051790C4A526810786B46012204F0B8FB41
:1022C00010B14FF0FF30E0E7064A12681179054A75
:1022D000526810786B46012204F0AAFB20B14FF03F
:1022E000FF30D2E790000020F74890F82400002843
:1022F00050D00C200090F44A12681179F24A5268CA
:1023000010786B46012204F093FB10B14FF0FF30C0
:10231000BBE7C0200090EC48807A00F0010020B1BB
:102320009DF8000040F020000090E74A1268117903
:10233000E54A526810786B46012204F079FB10B12F
:102340004FF0FF30A1E7E048407C10B10220009040
:1023500001E000200090DC4A1268D17BDA4A526822
:1023600010786B46012204F063FB10B14FF0FF3090
:102370008BE700200090D44A12685179D24A526803
:1023800010786B46012204F053FB002852D04FF026
:10239000FF307AE704200090CB4A12681179CA4ACC
:1023A000526810786B46012204F042FB10B14FF0E6
:1023B000FF306AE7C448807C20B9C348807A00F0C7
:1023C000010010B94020009001E060200090BE4A5A
:1023D00012681179BC4A526810786B46012204F0E9
:1023E00027FB10B14FF0FF304FE7B748407C10B1EA
:1023F0000120009001E000200090B34A1268D17BD8
:10240000B14A526810786B46012204F011FB10B1FA
:102410004FF0FF3039E7AC4A12685179AA4A526846
:102420001078A94B1033012204F002FB10B14FF0D9
:10243000FF302AE7002028E770B50446002624F084
:102440000104A14890F8240008B1002070BD9E4806
:10245000807A10B94FF0FF30F8E79B48057C807A0E
:102460002040994908740846007CA04202D04FF0F1
:10247000FF3600E0002614B99348007D18B1012012
:10248000FFF734FD02E00020FFF730FD3CB1FFF71D
:10249000F6FE20B18C4805744FF0FF30D6E7304689
:1024A000D4E738B504468848807A10B94FF0FF3039
:1024B00038BDBC2C02DB0120009015E0622C02DB51
:1024C0000220009010E02A2C02DB032000900BE099
:1024D000142C02DB0420009006E00A2C02DB05200D
:1024E000009001E0062000907748C07A9DF8001027
:1024F000884201D10020DBE7734A12689178724A62
:10250000526810786B46012204F092FA10B14FF035
:10251000FF30CDE79DF800106B48C1720020C7E77F
:1025200038B50446282C02DD4FF0FF3038BDDCB949
:102530000020FFF765FD00208DF8000007208DF8D2
:102540000100614A1268917C5F4A526810786B46BC
:10255000022204F06DFA10B14FF0FF30E6E70021DF
:10256000594801750020E1E70120FFF749FD2020CF
:102570008DF80000012C06D100208DF80100052007
:10258000FFF78FFF17E0052C06DC01208DF8010016
:102590000520FFF786FF0EE0142C06DC02208DF8E4
:1025A00001000A20FFF77DFF05E003208DF8010000
:1025B0001420FFF776FF9DF80100072101EB801042
:1025C000C0B28DF80100404A1268917C3E4A5268C0
:1025D00010786B46022204F02BFA10B14FF0FF3056
:1025E000A4E7082138488172002101730121017597
:1025F0000020FFF721FF002098E738B50446324855
:10260000807A10B94FF0FF3038BD2F4890F8240081
:1026100010B14FF0FF30F7E72B48007D50B134B1D7
:10262000282C04DCE0B2FFF77BFF0020ECE7002061
:10263000FFF776FF042C01DA042404E0B4F57A7F76
:1026400001DD4FF47A744FF47A7090FBF4F0401E81
:10265000C0B200901C4A126851781B4A5268107828
:102660006B46012204F0E4F910B14FF0FF30CBE7E4
:102670009DF80000401C4FF47A7191FBF0F081B29C
:102680001148C1810146C9894810FFF70AFF00209F
:10269000BAE738B504460C48807A10B94FF0FF30DD
:1026A00038BD022C06D0042C07D0082C08D0102CE2
:1026B0000FD10BE0002000900EE0082000900BE00E
:1026C0001020009008E000009000002018200090EA
:1026D00002E04FF0FF30E3E700BFF848407A9DF892
:1026E0000010B0EBE10F01D10020D9E7F34A1268E6
:1026F000D179F24A526810786B46012204F098F9B9
:1027000010B14FF0FF30CBE79DF80000C110EB484F
:1027100041720020C4E738B50446E848807A10B911
:102720004FF0FF3038BDFA2C09D0B4F5FA7F09D04C
:10273000B4F57A7F09D0B4F5FA6F0CD108E0002027
:1027400000900BE00820009008E01020009005E0C9
:102750001820009002E04FF0FF30E3E700BFD748B9
:10276000007A9DF80010B0EBE10F01D10020D9E70D
:10277000D24A12689179D14A526810786B46012288
:1027800004F056F910B14FF0FF30CBE79DF8000090
:10279000C010CA4908720020C4E71CB580208DF81B
:1027A0000000C64A1268917CC44A526810786B4691
:1027B000012204F03DF910B14FF0FF301CBDC048BC
:1027C00002F06DFE00208DF80000BC4A1268917C7A
:1027D000BA4A526810786B46012204F029F910B108
:1027E0004FF0FF30EAE7B54A1268917DB34A52686C
:1027F00010786B46062204F07CF910B14FF0FF30E0
:10280000DCE79DF80500C007400F9DF8031001F0BC
:10281000010140EA41009DF8011001F0010140EA88
:10282000010474B1012C03D10121A448C17427E033
:10283000022C03D10021A148C17421E04FF0FF30E8
:10284000BCE79E4A1268D1789C4A526810786B4661
:10285000012204F04EF910B14FF0FF30AEE79DF8C1
:10286000000000F00F0414B94FF0FF30A6E7042C6D
:1028700003D101219148C17402E000218F48C17445
:10288000FF218E488172FF208C490872FF218B48FE
:102890004172C1724FF6FF71C181FF2101748174D1
:1028A0000121017380F82210002180F82310417566
:1028B00001751630016041608160163880F824107F
:1028C00080F82510C1844FF4FA60FFF724FF10B19F
:1028D0004FF0FF3072E70220FFF7DBFE10B14FF040
:1028E000FF306BE72A20FFF7DCFD10B14FF0FF301F
:1028F00064E73220FFF781FE10B14FF0FF305DE753
:102900000020FFF799FD10B14FF0FF3056E700208F
:10291000FFF70FFC10B14FF0FF304FE70020FFF73B
:10292000A2FB00204AE770477CB504460D46634889
:10293000807A00F0700010B94FF0FF307CBD5F4A24
:102940001268117B5D4A526810786B46062204F0CB
:10295000D0F810B14FF0FF30F0E79DF801009DF87E
:10296000001040EA012000B220809DF803009DF88D
:10297000021040EA012000B260809DF805009DF839
:10298000041040EA012000B2A08015B12846FFF7EC
:10299000CAFF0020D2E77CB504460D464748807A3E
:1029A00000F0080010B94FF0FF307CBD434A1268B8
:1029B000517B424A526810786B46062204F099F81F
:1029C00010B14FF0FF30F0E79DF801009DF80010C6
:1029D00040EA012000B220809DF803009DF802101B
:1029E00040EA012000B260809DF805009DF80410C7
:1029F00040EA012000B2A08015B12846FFF793FFFE
:102A00000020D2E72DE9FE4F05460C462B48807A80
:102A100018B94FF0FF30BDE8FE8F284A1268917B4D
:102A2000264A5268107802AB022204F062F810B114
:102A30004FF0FF30EFE79DF809009DF8081040EADD
:102A4000012006B214B12046FFF76DFF1B4949680B
:102A5000C88806F055FF194901904968B1F9080086
:102A600006F045FF8346304606F041FF5946009088
:102A700006F03FFD8246019906F073FD814611493B
:102A800006F0E5FC80464FF08F4106F038FD074622
:102A900006F03BFF28600020BDE710B588B0044673
:102AA0001CB94FF0FF3008B010BD206860B96068F5
:102AB00050B9A06840B90020F5E700009000002060
:102AC000A086010000000C42FA494968087806AB6C
:102AD0000322114604F00DF810B14FF0FF30E2E789
:102AE0009DF81800082101EB201000F00F00ADF850
:102AF00000009DF8190001EB201000F00F00ADF868
:102B000002009DF81A0001EB201000F00F00ADF854
:102B1000040020684100BDF90000403091FBF0F056
:102B200000B2ADF8100060684100BDF9020040300D
:102B300091FBF0F000B2ADF81200A0684100BDF9C1
:102B40000400403091FBF0F000B2ADF81400D94918
:102B50004968087806AB0622114603F0CAFF10B197
:102B60004FF0FF309FE79DF819009DF8181040EADC
:102B7000012000B2ADF808009DF81B009DF81A1066
:102B800040EA012000B2ADF80A009DF81D009DF852
:102B90001C1040EA012000B2ADF80C00BDF8100096
:102BA000BDF80810084400B2ADF81000BDF81200DE
:102BB000BDF80A10084400B2ADF81200BDF81400C8
:102BC000BDF80C10084400B2ADF81400BDF81000B8
:102BD000000A8DF81800BDF81000C0B28DF8190079
:102BE000BDF81200000A8DF81A00BDF81200C0B23C
:102BF0008DF81B00BDF81400000A8DF81C00BDF80C
:102C00001400C0B28DF81D00AA494968087806ABC7
:102C10000622114603F00CFF10B14FF0FF3042E7DF
:102C2000002040E70146A348007A30B1012807D0D0
:102C3000022809D003280FD10AE0FA2008800EE00C
:102C40004FF4FA7008800AE04FF47A70088006E0CA
:102C50004FF4FA60088002E00020088000BF00BF47
:102C60000020704701469348407A30B1012807D0D0
:102C7000022808D003280CD108E0022008700BE0DD
:102C80000420087008E00820087005E01020087093
:102C900002E04FF0FF30704700BF8648C07C18B19B
:102CA00008784006000E08700020F4E701468148CD
:102CB000C07A082817D2DFE800F01704070A0D10C1
:102CC0001318BC20088013E06220088010E02A203E
:102CD00008800DE0142008800AE00A20088007E040
:102CE0000520088004E000BF00BF0020088000BF6E
:102CF00000BF0020704701466E4890F8240010B1D4
:102D00004FF0FF3070476B48C08908800020F9E71A
:102D1000014600200880401E704701464FF0FF30FA
:102D2000704701466348007A30B1012807D0022875
:102D300008D003280CD108E05F4808600BE05F482A
:102D4000086008E05E48086005E05E48086002E050
:102D50004FF0FF30704700BF0020FBE701465548A9
:102D6000407A30B1012808D002280AD0032810D1B7
:102D70000BE04FF4804008800EE041F69C70088024
:102D80000AE04FF48050088006E04FF400600880AD
:102D900002E04FF0FF30704700BF4648C07C10B1E2
:102DA0000888401008800020F5E701464148007C73
:102DB00008700020704701463E48807A10B101201B
:102DC000087001E0002008700020704738B5044604
:102DD0003848807A10B94FF0FF3038BD354A126854
:102DE000117C344A526810786B46022203F081FE4F
:102DF00010B14FF0FF30F0E79DF801009DF8001092
:102E000040EA012000B220800020E6E72DE9FE4FD5
:102E10000746884692461D46DDF830B0002600245D
:102E2000244890F8240010B1601EBDE8FE8F0020F9
:102E300028702048807A10B94FF0FF30F5E71D4820
:102E4000007C10B94FF0FF30EFE71A48007C00F02B
:102E5000400008B1B01CC6B21648007C00F020004B
:102E600008B1B01CC6B21348007C00F0100008B1D5
:102E7000B01CC6B20F48007C00F0080008B1B01DBD
:102E8000C6B20C4A1268917A0A4A526810786B46A8
:102E9000022203F02EFE10B14FF0FF30C5E79DF87F
:102EA00001009DF8001040EA0129B1450CDA00202C
:102EB000BBE70000900000200000034300008342B5
:102EC0003333034233338341FC4840684088B9EBD5
:102ED000600F17DDF94A1268517CF84A5268107881
:102EE0006B46012203F005FE10B14FF0FF309CE766
:102EF0009DF8000000F0100020B1FFF7C0F96FF05E
:102F0000010092E75046FFF70EFDEC4A1268D17AB5
:102F1000EA4A526810786B46324603F0EAFD10B177
:102F20004FF0FF3081E799FBF6F0401E8BF8000070
:102F300000202870B4422AD0E048007C00F008004D
:102F400028B3601C1DF800001DF8041040EA0120A1
:102F500000B2A8F80000E01C1DF80010A01C1DF82D
:102F6000000041EA002000B2A8F80200601D1DF830
:102F70000010201D1DF8000041EA002000B2A8F852
:102F80000400287840F008002870A01D84B2B442E4
:102F900013D0CA48007C00F0400070B1601C1DF8DE
:102FA00000001DF8041040EA012000B238802878A3
:102FB00040F040002870A01C84B2B44213D0BF4837
:102FC000007C00F0200070B1601C1DF800001DF8AE
:102FD000041040EA012000B27880287840F02000F8
:102FE0002870A01C84B2B44213D0B448007C00F016
:102FF000100070B1601C1DF800001DF8041040EABC
:10300000012000B2B880287840F010002870A01C81
:1030100084B2002009E7F8B504460F461646A748D3
:1030200090F8240010B94FF0FF30F8BDA348807A23
:1030300010B94FF0FF30F8E7A04A1268917A9F4A22
:10304000526810786B46022203F053FD10B14FF026
:10305000FF30EAE79DF801009DF8001040EA0125E5
:10306000A54203DA00203070401EDEE79348406836
:103070004088B5EB600F17DD904A1268517C8F4A8B
:10308000526810786B46012203F033FD10B14FF007
:10309000FF30CAE79DF8000000F0100020B1FFF7F4
:1030A000EEF86FF00100C0E7E2B2844B1B68D97AFA
:1030B000824B5B6818783B4603F01BFD10B14FF064
:1030C000FF30B2E795FBF4F0401E30700020ACE713
:1030D00001467A4880F82210002070477CB50546EA
:1030E00076494968087801AB04220D2103F001FDFF
:1030F00008B107207CBD9DF80700C0F301109DF8C2
:10310000041001F0E00140EAE1008DF800009DF8B4
:103110000700C0F381009DF8051001F0E00140EACE
:10312000E1008DF801009DF8070000F003009DF814
:10313000061001F0E00140EAE1008DF802000024F1
:103140001CE01DF8040018B9002045F8240013E025
:103150005B4845F8240006E055F82400594906F07C
:10316000CEF945F824001DF80400401EC0B20DF849
:1031700004000028F0D100BF601CC4B2032CE0DBC7
:103180000020B7E72DE9FE4F06460F4600256846AA
:10319000FFF7A4FF002442E056F8240057F824105B
:1031A000A0EB010ABAF1000F01DB514601E0CAF1C0
:1031B0000001084606F09BFB83464FF08F4106F066
:1031C000D0F980465DF82400002106F0FBFB16D004
:1031D0005DF82410404606F0C4F982464FF07E5157
:1031E00006F087F9814629F0004A3748416A50467F
:1031F00006F0F2FB12D20120A04005430EE0324857
:10320000C169404606F0DEFB05D32F48016A4046FF
:1032100006F0E2FB02D20120A0400543641C032C0F
:10322000BADB2846BDE8FE8F2DE9FC5F06460F4657
:10323000002522494968087801AB03220D2103F0DB
:1032400058FC10B10720BDE8FC9F9DF8040000F079
:103250001F008DF804009DF8050000F01F008DF898
:1032600005009DF8060000F01F008DF80600002400
:1032700062E056F8240057F82410A0EB010BBBF1D4
:10328000000F01DB594601E0CBF10001084606F0D2
:103290002EFB4FF08F41009006F063F9814601A8A4
:1032A000005DC0B30849086806F02AFB834659460A
:1032B000064806F056F980460FE000009000002016
:1032C0007B14AE3E1D5A843F00A5000800B04C455B
:1032D000FE49404606F013F9804601A8005D401EF5
:1032E000C0B201A908550028F2D14146484606F06F
:1032F00038F983464FF07E5106F0FBF882462AF0FB
:10330000004BF3488169584606F066FB13D2012052
:10331000A04005430FE0FFE7ED480169484606F08D
:1033200051FB05D3EA484169484606F055FB02D2F5
:103330000120A0400543641C032C9ADB284682E749
:103340002DE9F04F87B005460C46914601208DF8D7
:10335000100000208DF81100DE4A1268917CDD4AD1
:103360005268107804AB022203F062FB20B14FF0E8
:10337000FF3007B0BDE8F08FD74802F090F800208A
:103380008DF81000D34A1268D17BD24A5268107867
:1033900004AB012203F04CFB10B14FF0FF30E8E723
:1033A000CC4A12685179CB4A5268107804AB01229A
:1033B00003F03EFB10B14FF0FF30DAE7C54A126868
:1033C000917CC44A5268107804AB012203F030FBB0
:1033D00010B14FF0FF30CCE7BE4A1268D17DBD4A34
:1033E0005268107804AB012203F022FB10B14FF0B9
:1033F000FF30BEE7B74A12681179B64A52681078B2
:1034000004AB012203F014FB10B14FF0FF30B0E722
:103410000C208DF81000AF4A12681179AD4A52683D
:10342000107804AB012203F003FB10B14FF0FF3022
:103430009FE743F6982002F032F8A648806A407A67
:103440008DF81000A34A12689178A24A5268107849
:1034500004AB012203F0ECFA10B14FF0FF3088E723
:103460009C48806A007A8DF810009A4A1268517858
:10347000984A5268107804AB012203F0D9FA10B1CF
:103480004FF0FF3075E7B9F1000F07D09148806A1F
:10349000807A40F0E0008DF8100004E08D48806AEA
:1034A000807A8DF810008B4A12689179894A5268A7
:1034B000107804AB012203F0BBFA10B14FF0FF30DB
:1034C00057E7B9F1000F07D08248806AC07A40F010
:1034D000E0008DF8100003E07D48C07A8DF8100000
:1034E0007C4A1268D1797B4A5268107804AB012279
:1034F00003F09EFA10B14FF0FF303AE7B9F1000F38
:1035000002D0754801F0CBFF40208DF81000714AC1
:10351000126811796F4A5268107804AB012203F0E7
:1035200087FA10B14FF0FF3023E778208DF81000B4
:10353000684A12685179674A5268107804AB0122D0
:1035400003F076FA10B14FF0FF3012E76049898935
:103550004FF47A7201FB02F001F0A1FF00208DF818
:1035600010005C4A126851795A4A5268107804ABCC
:10357000012203F05DFA10B14FF0FF30F9E6554A31
:103580001268917A534A5268107804AB022203F011
:10359000B0FA10B14FF0FF30EBE69DF811009DF846
:1035A000101040EA012B0C209BFBF0F0C6B200206B
:1035B000A86068602860A06060602060824665E066
:1035C000444A1268D17A434A5268107804AB0C22FC
:1035D00003F08FFA10B14FF0FF30CAE69DF81100EA
:1035E0009DF8101040EA012000B2ADF808009DF8E7
:1035F00013009DF8121040EA012000B2ADF80A0055
:103600009DF815009DF8141040EA012000B2ADF8B5
:103610000C00BDF90810206808442060BDF90A10AC
:10362000606808446060BDF90C10A0680844A060A0
:103630009DF817009DF8161040EA012000B2ADF881
:1036400000009DF819009DF8181040EA012000B212
:10365000ADF802009DF81B009DF81A1040EA012009
:1036600000B2ADF80400BDF90010286808442860D5
:10367000BDF90210686808446860BDF90410A868C4
:103680000844A8600AF1010000F0FF0AB24597DB88
:103690000F48D0F800C02868C117090441EA10415A
:1036A000070462460023384605F068FE32460023D0
:1036B000CDE9020105F062FE28600548D0F800C09F
:1036C0006868C117090441EA104107E054E3853FE7
:1036D00000A5000890000020400D0300070462468A
:1036E0000023384605F04AFE32460023CDE90201A8
:1036F00005F044FE6860FE48D0F800C0A868C11715
:10370000090441EA1041070462460023384605F0E7
:1037100035FE32460023CDE9020105F02FFEA860F8
:10372000F348D0F804C02068C117090441EA1041E9
:10373000070462460023384605F020FE3246002387
:10374000CDE9020105F01AFE2060E948D0F804C076
:103750006068C117090441EA10410704624600236A
:10376000384605F00BFE32460023CDE9020105F094
:1037700005FE6060DE48D0F804C0A068C1170904E7
:1037800041EA1041070462460023384605F0F6FD81
:1037900032460023CDE9020105F0F0FDA060A068EB
:1037A000002804DDA068A0F58030A06003E0A068D8
:1037B00000F58030A0600020DBE538B50446CD4838
:1037C00090F82400A04201D1002038BD24B3C9489C
:1037D00090F8250010B94FF0FF30F6E70020FEF713
:1037E00085FB0020FEF7A5FCC249C88CFEF705FF4B
:1037F00000200090BF49496808786B4601222321C8
:1038000003F016F90121BB4880F824100120FEF7CF
:103810006DFBFEF734FD13E00020FEF767FBB548B3
:10382000007C0090B349496808786B460122232147
:1038300003F0FEF80021AF4880F82410FEF71FFDCA
:103840000020C2E72DE9F04F8DB083460F460220DD
:103850000C90A84890F8240020B10020FFF7ADFF9D
:10386000012600E0002603A8FFF7DCF905A8FFF712
:10387000F9F901A8FFF71AFA02A8FFF73CFA9D48E8
:1038800090F80AA004A8FFF790FA002407E00022AD
:1038900039465846FFF754FD00B902E0641C022C7B
:1038A000F5DB00BF022C01D1002528E0002407E051
:1038B000012206A909A8FFF743FD00B902E0641C34
:1038C000022CF5DB00BF022C01D1002517E006A970
:1038D0003846FFF757FC00F0FF0809A95846FFF7E4
:1038E000A3FC00F0FF090025B9F1000F01D145F05C
:1038F0000105B8F1000F01D145F0020500BFFF201E
:103900007C490872FF217B484172C1724FF6FF71FA
:10391000C181FF218172017401210173BDF80C0086
:10392000FEF7F9FE9DF81400FEF7B3FEBDF80400A3
:10393000FEF7B7FDBDF80800FEF75FFE5046FEF744
:1039400092FB9DF81000FEF777FD16B10120FFF7FE
:1039500034FF28460DB0BDE8F08FF8B504460D469B
:10396000164616B94FF0FF30F8BD6248807A10B99C
:103970004FF0FF30F8E720128DF80000E0B28DF82C
:1039800001009DF8010028445A4949684989884244
:1039900002DD4FF0FF30E7E7564A1268117E554AC4
:1039A000526810786B46022203F042F810B14FF0D3
:1039B000FF30D9E7EAB24F4B1B68597D4D4B5B682E
:1039C0001878334603F034F810B14FF0FF30CBE7EE
:1039D0000020C9E7F8B504460D46164616B94FF063
:1039E000FF30F8BD4348807A10B94FF0FF30F8E758
:1039F00020128DF80000E0B28DF801009DF8010062
:103A000028443C4949684989884202DD4FF0FF302B
:103A1000E7E7384A1268117E364A526810786B46DA
:103A2000022203F005F810B14FF0FF30D9E7EAB2F7
:103A3000304B1B68597D2F4B5B681878334603F079
:103A400058F810B14FF0FF30CBE70020C9E72DE95F
:103A5000F04385B005460E4690469946254890F8B5
:103A6000250020B14FF0FF3005B0BDE8F08316B956
:103A70004FF0FF30F8E7002423E0281B102801DD79
:103A8000102000E0281B87B2321939462046FFF784
:103A900064FF10B14FF0FF30E6E701AA3946204637
:103AA000FFF798FF10B14FF0FF30DDE730193A46CD
:103AB00001A905F0BFFC10B16FF00100D4E7E019D7
:103AC00084B2AC42D9DB4FEA28208DF8000008F020
:103AD000FF008DF80100074A1268917E054A52687E
:103AE00010786B46022202F0A3FF40B104E0000010
:103AF00000A50008900000204FF0FF30B4E701213E
:103B00008B4880F82510A0F826900020ACE70146ED
:103B1000874890F8240008700020704702464FF054
:103B2000FF30704701464FF0FF307047F8B505464B
:103B30000F461446002C70D0B5F5FF5F01DDFF265F
:103B400005E0202D01DA012601E0C5F3471607B98B
:103B50000127282C02DD4FF0FF30F8BD7448407D6E
:103B600028BB734890F8240038B10020FFF725FEE9
:103B700001216F4880F8201003E000216C4880F894
:103B800020106B481630FFF74DF869481830FFF7E2
:103B900069F867481A30FFF789F865481C30FFF765
:103BA000AAF86348817A81771F30FFF7FEF800207A
:103BB000FEF79CF90020FEF7B3FC00208DF8000012
:103BC0005B4A126891785A4A526810786B46012213
:103BD00002F02EFF10B14FF0FF30BEE740208DF80D
:103BE0000000534A1268D17B514A526810786B46E4
:103BF000012202F01DFF00B166E08DF800608DF833
:103C000001704B4A1268117A494A526810786B4623
:103C1000022202F00DFF08B156E048E041F2883080
:103C200001F03DFC4248407A072101EBC000C0B2E0
:103C30008DF800003E4A1268D1793D4A52681078EA
:103C40006B46012202F0F4FE00B13DE020208DF829
:103C50000000012C03D100208DF801000EE0052C9E
:103C600003DC01208DF8010008E0142C03DC0220A5
:103C70008DF8010002E003208DF801009DF801009D
:103C8000072101EB8010C0B28DF80100284A1268AC
:103C9000917C274A526810786B46022202F0C8FED7
:103CA00000B111E0012122484175002055E7204A6A
:103CB0001632002103E0505C00B105E0491C0C29DC
:103CC000F9D34FF0FF3048E7FF2019490872FF2170
:103CD00017484172C1724FF6FF71C181FF21817295
:103CE0000174012101730146887FFEF7BCF9104978
:103CF000C88AFEF710FD0E49087EFEF7CAFC0C4983
:103D0000488BFEF7CEFB0A49888BFEF776FC084904
:103D1000C87FFEF791FB064890F8200010B1012003
:103D2000FFF74BFD002102484175002015E7000018
:103D30009000002010B5C8234FF48062F74940F688
:103D4000F630FFF784FE10BD10B586B00446F4A02F
:103D500000680390F3A000680290F3A0006801904F
:103D6000F2A00068009004F0030003A9085C8DF83D
:103D7000140003A8C4F3C101405C8DF8150003A82A
:103D8000C4F38111405C8DF8160004F0030002A911
:103D9000085C8DF8100002A8C4F3C101405C8DF8E6
:103DA000110002A8C4F38111405C8DF8120005AA2D
:103DB000032140F22640FFF7D0FD18B14FF0FF304D
:103DC00006B010BD04AA032140F22A40FFF7C5FD4A
:103DD00010B14FF0FF30F3E7019805900098049080
:103DE00004F0040058B19DF8140040F001008DF873
:103DF00014009DF8100040F001008DF8100004F050
:103E0000200058B19DF8150040F001008DF8150014
:103E10009DF8110040F001008DF8110004F480704D
:103E200058B19DF8160040F001008DF816009DF87D
:103E3000120040F001008DF8120005AA03214FF492
:103E40008860FFF78AFD10B14FF0FF30B8E704AA91
:103E5000032140F23140FFF780FD10B14FF0FF30F9
:103E6000AEE7B34804810020AAE71FB50446B04876
:103E7000007A00F0030054F820000190AC48007A6A
:103E800000F0040010B1019840420190A848007A67
:103E9000C0F3C10054F820000290A548007A00F059
:103EA000200010B1029840420290A148007AC0F36D
:103EB000811054F8200003909D48008900F4807020
:103EC00010B10398404203909A49019880FB010188
:103ED000800F40EA810001909649029880FB011012
:103EE000820042EA917002909249039880FB01108F
:103EF000820042EA917003900198000E8DF8000054
:103F00000198000C8DF801000198000A8DF802005C
:103F10000198C0B28DF803006A4604214FF4747012
:103F2000FFF71BFD18B14FF0FF3004B010BD029831
:103F3000000E8DF800000298000C8DF80100029828
:103F4000000A8DF802000298C0B28DF803006A469C
:103F500004214FF47570FFF700FD10B14FF0FF30F2
:103F6000E3E70398000E8DF800000398000C8DF82D
:103F700001000398000A8DF802000398C0B28DF882
:103F800003006A4604214FF47670FFF7E6FCCCE7A5
:103F900070B588B0064601A8FEF7E0FEBDF8040043
:103FA0000021C90341EA5045C4036148007A00F08A
:103FB000030056F8200005905D48007A00F00400E8
:103FC00010B10598404205905948007AC0F3C100ED
:103FD00056F8200006905648007A00F0200010B1F4
:103FE0000698404206905248007AC0F3811056F875
:103FF000200007904E48008900F4807010B10798A7
:10400000404207900598C117A0FB042301FB04312F
:1040100000FB0510810041EA927005900698C117D7
:10402000A0FB042301FB043100FB0510810041EAE1
:10403000927006900798C117A0FB042301FB04317E
:1040400000FB0510810041EA927007900598000E70
:104050008DF808000598000C8DF809000598000AF5
:104060008DF80A000598C0B28DF80B000698000E76
:104070008DF80C000698000C8DF80D000698000ACB
:104080008DF80E000698C0B28DF80F000798000E4C
:104090008DF810000798000C8DF811000798000AA1
:1040A0008DF812000798C0B28DF8130002AA0C21F7
:1040B0004FF42570FFF751FC08B070BD30B585B0E6
:1040C00004461DA207CA02AB07C3C82C03DD4FF08C
:1040D000FF3005B030BDC82090FBF4F0401E85B223
:1040E000280A8DF80000E8B28DF801006A46022126
:1040F00040F21620FFF731FC10B14FF0FF30E8E737
:1041000002AA0C2140F6C120FFF727FC10B14FF0A6
:10411000FF30DEE7064884810020DAE728A50008A2
:104120004CCD6C000CC92C00365676002646660035
:104130007003002009E3CA02FEF2ABC4AAF1DFDF7C
:10414000BBAFDFDF0146FC48808908800020704754
:104150002DE9FC4706460F4606F0070010B1B7F5FB
:10416000C86F03DD4FF0FF30BDE8FC87384605F02F
:10417000C7FB8146F14905F0F4F980466846FEF731
:1041800071FD9DF80000022806D0042816D00828EA
:1041900026D0102848D135E04FF08D41404605F03B
:1041A000AEF9814605F0CAFB84B2E549404605F008
:1041B000A6F9814605F0C2FB85B238E04FF08C418C
:1041C000404605F09CF9814605F0B8FB84B2DD4914
:1041D000404605F094F9814605F0B0FB85B226E033
:1041E0004FF08B41404605F08AF9814605F0A6FB69
:1041F00084B2D549404605F082F9814605F09EFB20
:1042000085B214E04FF08A41404605F078F98146C6
:1042100005F094FB84B2CD49404605F070F9814623
:1042200005F08CFB85B202E04FF0FF309CE700BF49
:1042300020128DF80400E0B28DF8050028128DF8E8
:104240000600E8B28DF8070006F00100A0B101AA4F
:1042500002214FF4EA70FFF780FB10B14FF0FF30FE
:1042600082E70DF1060202214FF49270FFF775FB11
:1042700010B14FF0FF3077E706F00200A0B101AABD
:1042800002214FF4EC70FFF768FB10B14FF0FF30E4
:104290006AE70DF1060202214FF49470FFF75DFB0F
:1042A00010B14FF0FF305FE706F00400A0B101AAA3
:1042B00002214FF4EE70FFF750FB10B14FF0FF30CA
:1042C00052E70DF1060202214FF49670FFF745FB0D
:1042D00010B14FF0FF3047E7002045E738B50446FE
:1042E0000020009004F0010020B19DF8000040F093
:1042F0003000009004F0020020B19DF8000040F072
:104300000C00009004F0040020B19DF8000040F083
:10431000030000906A4601214FF4A470FFF71DFBD3
:1043200038BD38B50446012C01DA012402E0042C22
:1043300000DD0424601EC0B200906A46012140F2F4
:104340004F10FFF70AFB38BD38B50446052094FB33
:10435000F0F085B228128DF80000E8B28DF8010067
:104360006A4602214FF4EF70FFF7F7FA38BD38B50F
:104370000446052094FBF0F085B228128DF8000069
:10438000E8B28DF801006A4602214FF4ED70FFF7A4
:10439000E4FA38BDF8B505460E464FF47A7095FB41
:1043A000F0F000FB06F4200E8DF80000200C8DF8D4
:1043B0000100200A8DF80200E0B28DF803006A4681
:1043C00004214FF4AE70FFF7C8FAF8BD38B50446C3
:1043D000052094FBF0F084B220128DF80000E0B2CA
:1043E0008DF801006A4602214FF4AD70FFF7B5FA6F
:1043F00038BD38B50446052094FBF0F084B2201295
:104400008DF80000E0B28DF801006A4602214FF4F9
:10441000AC70FFF7A2FA38BD38B5044614B94FF0B6
:10442000FF3038BD6A4604214FF45870FFF7D2FAC6
:1044300010B14FF0FF30F4E79DF8000000069DF842
:10444000011040EA01409DF8021040EA01209DF869
:104450000310084320600020E3E738B50446200E2F
:104460008DF80000200C8DF80100200A8DF8020064
:10447000E0B28DF803006A4604214FF45870FFF74C
:104480006CFA38BD38B5044614B94FF0FF3038BD6A
:104490006A4604214FF47170FFF79CFA10B14FF097
:1044A000FF30F4E79DF8000000069DF8011040EA97
:1044B00001409DF8021040EA01209DF803100843D6
:1044C00000EB8000800020600020E0E738B5044663
:1044D0001420B4FBF0F4200E8DF80000200C8DF8B1
:1044E0000100200A8DF80200E0B28DF803006A4650
:1044F00004214FF47170FFF730FA38BD38B5044627
:1045000064B120208DF8000028208DF801003020B3
:104510008DF8020038208DF8030004E0A322042166
:10452000684604F06EFF6A46042140F69E20FFF7BD
:1045300014FAFDF7A4FE38BD7003002000004843C4
:10454000000040460000C045000040450000C04457
:1045500038B5044664B1C0208DF80000C2208DF843
:104560000100C4208DF80200C6208DF8030004E08D
:104570008B220421684604F044FF6A46042140F679
:104580009820FFF7EAF9FDF77AFE38BD3EB50446FC
:104590006CB1FDA1D1E900208968CDE9002002912C
:1045A0006A4609214FF49760FFF7D7F93EBDF9A29B
:1045B000D2E900109268CDE9010200916A46092112
:1045C0004FF49760FFF7C9F9F0E73EB504460220C3
:1045D0008DF80000CA208DF80100E3208DF802005C
:1045E00009208DF803006A4604216820FFF7B5F919
:1045F000A3208DF8000004F0400048B1C0208DF8E1
:104600000100C8208DF80200C2208DF8030006E0EA
:10461000A3208DF801008DF802008DF8030004F44A
:10462000C07048B1C4208DF80400CC208DF805007E
:10463000C6208DF8060006E0A3208DF804008DF852
:1046400005008DF80600A3208DF807008DF80800FE
:104650008DF809006A460A2140F6A720FFF77DF988
:1046600004F0030018B120208DF8000002E0D820EB
:104670008DF800006A46012140F6B620FFF76DF97B
:1046800004F0200018B10120FFF780FF02E00020B5
:10469000FFF77CFF04F4C07008B304F4807060B1CD
:1046A000B2208DF800008B208DF80100B6208DF827
:1046B00002009B208DF803000BE0B0208DF8000075
:1046C00080208DF80100B4208DF8020090208DF834
:1046D00003006A46042140F6A220FFF73EF904F0E9
:1046E000010020B3F8208DF800006A4601214FF444
:1046F0000B60FFF732F9FA210720FFF729FD0720A9
:10470000FFF7ECFD0120FFF70CFE6420FFF71CFE15
:104710004FF4FA70FFF72BFEC821A148FFF73AFECD
:104720002820FFF753FE0A20FFF763FE08E0D82099
:104730008DF800006A4601214FF40B60FFF70DF978
:1047400004F0020018B1D9208DF8000002E0D82052
:104750008DF800006A46012140F23D70FFF7FDF838
:1047600004F0040018B10120FFF7F2FE02E000207F
:10477000FFF7EEFE04F0100018B10120FFF7BEFEB7
:1047800002E00020FFF7BAFE44F0080085494881A6
:10479000FDF775FD00208349887304F0400018B1CF
:1047A0000846807B801D887304F4C07020B17D486A
:1047B000807B801D7B49887304F0140020B1794808
:1047C000807B10307749887304F0030020B175486E
:1047D000807B001D7349887300203EBD01467148EF
:1047E00040890880002070472DE9F0410446E078B8
:1047F00000F0C006E07800F03F05607800F00100AE
:1048000098B1EF102846E91705EB5171C910A5EBD7
:10481000C101491C01F0FF086248006820B16148ED
:10482000414602683846904700BF607800F00800B3
:1048300030B15C48406818B1B0115A4A5168884795
:104840000020BDE8F08110B586B0044656A207CA24
:1048500003AB07C357A207CA8DE80700012C09D094
:10486000022C0ED103AA0B2140F68220FFF775F827
:1048700006B010BD6A460B2140F68220FFF76DF8A6
:10488000F6E74FF0FF30F3E72DE9F04F8DB0074624
:10489000884615469946DDE9166B002400203080D5
:1048A0004049887B5A4605A9FEF7B5FB18B1601E42
:1048B0000DB0BDE8F08F3B48807A00F0140000286E
:1048C00061D09DF8140000069DF8151040EA0140E3
:1048D0009DF8161040EA01209DF817100843286043
:1048E0009DF8180000069DF8191040EA01409DF857
:1048F0001A1040EA01209DF81B10084368609DF8DB
:104900001C0000069DF81D1040EA01409DF81E1095
:1049100040EA01209DF81F100843A8609DF8200080
:1049200000069DF8211040EA01409DF8221040EA5F
:1049300001209DF823100843E86004F11000C4B280
:10494000286800140190686800140290A868001498
:104950000390E8680014049001984043029901FB19
:104960000100039901FB0100049901FB010ABAF15E
:10497000706F02DBBAF1885F22DDFDF780FC00205A
:104980003080401E94E721E0B8AAB38DB4980D356D
:104990005D000000B8AAAAAAB088C3C5C70000007D
:1049A00009E3CA0270030020D8B1B9F38BA391B612
:1049B00009B4D900DAB1B9F38BA391B6DAB4DA004D
:1049C000B6F9000040F48070308000BF3448807A2F
:1049D00000F0400020B305A9601C085C095D40EAB6
:1049E000012000B2A8F8000005A9E01C095C05AA96
:1049F000A01C105C41EA002000B2A8F8020005A942
:104A0000601D095C201D105C41EA002000B2A8F87E
:104A10000400A01DC4B2B6F9000040F008003080C8
:104A20001F48408900F4C07008B305A9601C085CE9
:104A3000095D40EA012000B2388005A9E01C095C4C
:104A400005AAA01C105C41EA002000B2788005A9EC
:104A5000601D095C201D105C41EA002000B2B88096
:104A6000A01DC4B2B6F9000040F0700030800C48C0
:104A7000807A00F0030018B105A90819FFF7B4FE09
:104A80004846FDF750FF002012E701460448016048
:104A90000020704701460248416000207047000036
:104AA0007003002007B582B0049801287DD1FE482C
:104AB0000168039804F01DFD0090FC48016800980F
:104AC00004F01DFD0190FA480168019804F0BFFC54
:104AD000F7490860F748406801460090F6480068CA
:104AE00004F007FD0190F3488068014600900198AA
:104AF00004F0FFFCF1490860EE48C06880F0004017
:104B00004860EC48C06880F000408860EC4800686D
:104B1000C860084600680090E4480168009804F006
:104B2000EEFC0190E348006801460090019804F013
:104B30008EFCE0490860E14840680090DB4801686D
:104B4000009804F0DCFC0190DA48406801460090CF
:104B5000019804F07CFCD7494860D84880680090F0
:104B6000D2480168009804F0CAFC0190D1488068DE
:104B700001460090019804F06AFCCE498860CF4855
:104B8000C0680090C9480168009804F0B8FC019022
:104B9000C848C06801460090019804F058FCC54917
:104BA000C860C3480168029800E0B6E004F0A1FCC8
:104BB000C4490860C448007804F0A2FE0190BD48D2
:104BC000006801460090019804F099FCBF49086014
:104BD000BD48007804F094FE0190B6488068014614
:104BE0000090019804F08BFCB9490860B648007841
:104BF00004F086FE0090B5480168009804F07FFC40
:104C00000190B4480168019804F021FCB2490860A1
:104C100008460168AD48006804F0A3FCAF4908608D
:104C2000AD480168AA48006804F09BFCAC490860E4
:104C3000A6480068AB490860A348007804F060FE0D
:104C400001909C48406801460090019804F057FC90
:104C5000A5490860A3480168A048006804F04FFC1B
:104C600001909448006801460090019804F044FCCB
:104C7000904908609C4801689848006804F03FFC2F
:104C800001908C48406801460090019804F034FC83
:104C900088494860934801689148006804F02FFCF7
:104CA00001908448806801460090019804F024FC3B
:104CB000804988608C4801688948006804F01FFCBE
:104CC00001907C48C06801460090019804F014FCF3
:104CD0007849C8607B4801688048006804F00FFC90
:104CE000019073480168019804F0B1FB70490860B5
:104CF000744801687A48006804F001FC01906A4831
:104D00000168019804F0A3FB674908600846016840
:104D1000039804F0EEFB75490860049802287DD1E1
:104D200073480168039804F0E4FB00905F48016851
:104D3000009804F0E4FB01906E480168019804F0CB
:104D400086FB6C4908606C484068014600905A48F0
:104D5000006804F0CEFB019067488068014600902F
:104D6000019804F0C6FB654908606348C06880F09C
:104D7000004048606048C06880F00040886050484B
:104D80000068C860084600680090484801680098BC
:104D900004F0B5FB01905848006801460090019866
:104DA00004F055FB544908605448406800903F485F
:104DB0000168009804F0A3FB01904F484068014649
:104DC0000090019804F043FB4B4948604B488068D1
:104DD000009036480168009804F091FB0190464825
:104DE000806801460090019804F031FB42498860D8
:104DF0004248C06800902D480168009804F07FFB8D
:104E000001903D48C06801460090019804F01FFBE6
:104E10003949C86037480168029800E0EFE004F0C3
:104E200068FB374908602848007804F069FD019064
:104E30003148006801460090019804F060FB314958
:104E400008602148007804F05BFD01902A488068E2
:104E500001460090019804F052FB2B4908601A4863
:104E6000007804F04DFD009026480168009804F099
:104E700046FB019017480168019804F0E8FA2349BD
:104E80000860084601681F48006804F06AFB204972
:104E900008601E4801681C48006804F062FB1D4958
:104EA00008601848006837E0EC000020E4000020AB
:104EB000C000002010010020D80000208003002046
:104EC000DC000020F0000020E8000020F4000020BA
:104ED000F8000020E0000020FC000020000100207D
:104EE00004010020080100200C010020CC0000205B
:104EF00020010020C4000020440100209003002075
:104F000024010020280100202C0100203001002075
:104F10003401002038010020FE490860FE48007876
:104F200004F0EEFC0190FD484068014600900198B5
:104F300004F0E5FAFA490860F6480168F9480068A3
:104F400004F0DDFA0190F5480068014600900198F0
:104F500004F0D2FAF1490860F1480168F1480068AC
:104F600004F0CDFA0190ED484068014600900198A8
:104F700004F0C2FAE9494860E6480168EA48006876
:104F800004F0BDFA0190E548806801460090019860
:104F900004F0B2FAE1498860E1480168E24800683B
:104FA00004F0ADFA0190DD48C06801460090019818
:104FB00004F0A2FAD949C860DC480168D948006801
:104FC00004F09DFA0190DA480168019804F03FFA74
:104FD000D7490860D5480168D348006804F08FFAC3
:104FE0000190D4480168019804F031FAD149086071
:104FF00008460168039804F07CFACF4908600498D9
:1050000003287DD1CD480168039804F072FA00901E
:10501000CB480168009804F072FA0190C948016811
:10502000019804F014FAC7490860C748406801466F
:105030000090C648006804F05CFA0190C24880689D
:1050400001460090019804F054FAC1490860BE4836
:10505000C06880F000404860BB48C06880F00040F5
:105060008860BC480068C860084600680090B44882
:105070000168009804F043FA0190B34800680146C3
:105080000090019804F0E3F9AF490860B048406827
:105090000090AB480168009804F031FA0190AA48EA
:1050A000406801460090019804F0D1F9A649486093
:1050B000A74880680090A2480168009804F01FFA91
:1050C0000190A148806801460090019804F0BFF962
:1050D0009D4988609E48C068009099480168009882
:1050E00004F00DFA01909848C068014600900198BC
:1050F00004F0ADF99449C86092480168029800E054
:10510000B6E004F0F6F9944908608348007804F0AA
:10511000F7FB01908C48006801460090019804F06C
:10512000EEF98E4908607C48007804F0E9FB0190B4
:105130008548806801460090019804F0E0F98849AC
:1051400008607548007804F0DBFB00908348016834
:10515000009804F0D4F9019082480168019804F0A5
:1051600076F981490860084601687C48006804F0C7
:10517000F8F97E4908607C4801687948006804F0C5
:10518000F0F97B490860754800687A490860624810
:10519000007804F0B5FB01906B4840680146009030
:1051A000019804F0ACF974490860724801686F48CE
:1051B000006804F0A4F9019063480068014600907B
:1051C000019804F099F9604908606B4801686748E4
:1051D000006804F094F901905B4840680146009033
:1051E000019804F089F958494860624801686048AC
:1051F000006804F084F901905348806801460090EB
:10520000019804F079F9504988605B480168584872
:10521000006804F074F901904B48C06801460090A2
:10522000019804F069F94849C8604B4801684F4843
:10523000006804F064F9019042480168019804F0A4
:1052400006F940490860444801684948006804F08C
:1052500056F9019039480168019804F0F8F8374987
:10526000086008460168039804F043F94349086060
:1052700005B000BD2DE9F74F8AB089461446012CD0
:1052800038D1484604F06EFB82463D4A3D4B04F05F
:105290004DFACDE900013C48006804F063FB074685
:1052A000DDE9002304F09BF9CDE9040137480168EA
:1052B0004FF07E5004F01DF9074604F053FBCDE992
:1052C0000201DDE9042304F031FACDE906012F489B
:1052D00001680A9804F013F9074604F043FB0546F9
:1052E000DDE9062304F07BF9CDE9080104F04DFB6C
:1052F00025490860022C79D1484604F033FB074663
:105300001F4A204B04F012FA05460E460848006872
:105310003EE000003C010020E800002044010020A5
:105320004001002034010020380100202401002029
:10533000C400002020010020D000002054010020E3
:10534000E4000020C800002078010020D8000020E0
:10535000A0030020DC000020580100205C01002098
:1053600060010020E00000206401002068010020AE
:105370006C0100207001002074010020D400002086
:105380007B14AE47E17A743FC0000020BC000020CF
:1053900004F0E8FA82462A46334604F020F9CDE9C3
:1053A0000201324801684FF07E5004F0A2F8054631
:1053B00004F0D8FACDE90001DDE9022304F0B6F9E2
:1053C000CDE90601294801680A9804F098F80546D5
:1053D00004F0C8FACDE90401DDE9062304F0FFF882
:1053E000CDE9080104F0D1FA21490860032C39D134
:1053F000484604F0B7FA07461E4A1F4B04F096F9D8
:10540000CDE902011D48006804F0ACFACDE90001C5
:10541000DDE9022304F0E3F805460E46134801686F
:105420004FF07E5004F065F8074604F09BFA2A46D8
:105430003346CDE9040104F079F9CDE908010B48C0
:1054400001680A9804F05BF8054604F08BFACDE990
:105450000601DDE9082304F0C2F8824604F095FA5B
:10546000064908600DB0BDE8F08F0000BC000020C8
:10547000C40000207B14AE47E17A743FC8000020CE
:105480001949096841F08071174A11601749096884
:1054900041F00101154A116015490860704770B567
:1054A0000446124845681248006810B91148FFF7D1
:1054B000E7FF0F480068104990FBF1F000FB04F68D
:1054C000AB19AB4205DD00BF084840689842FBD3EA
:1054D00009E000BF054840689842FBD200BF03487E
:1054E00040689842FBD370BDFCED00E0001000E086
:1054F0008801002000A24A0440420F0038B504464B
:105500000121E068FBF71AFEA08A80B2ADF8000026
:1055100010208DF8030003208DF8020069462069F1
:10552000FBF750FB38BD10B51B48FFF7E7FF1B48E2
:10553000FFF7E4FF1A48FFF7E1FF174A928A91B29A
:10554000154A1069FBF7EBFB144A928A91B2134A91
:105550001069FBF7E4FB124A928A91B2104A106973
:10556000FBF7DDFB10BD19B9D0E90423136112E08C
:10557000002903DAD0E9042353610CE08268521C4D
:1055800082608A4207DB0269D26843695A40036934
:10559000DA600022826070478C010020A4010020A4
:1055A000BC01002010B54FF44070FAF7EBFE05483F
:1055B000FFF766FFFFF7B7FF00F01CFF01F01BF9D4
:1055C00010BD000000A24A0438B504460E208DF834
:1055D000000006208DF8010000208DF80200012057
:1055E0008DF803006846FAF7D2FE25208DF80000FA
:1055F0008DF8014000208DF8020001208DF8030095
:105600006846FAF7C4FE38BD00B58BB001210846E4
:10561000FBF787FD0021CB48FBF717FAC948FBF7DA
:1056200047F9C9480090C9480190102002903220E3
:1056300003900020049080200590002006900790A1
:1056400008904FF44050099000200A906946BD48E8
:10565000FBF7D0F94FF48050FBF726FA0021B94848
:10566000FBF7F3F901220221B648FBF7FAF9002112
:10567000B4481430FBF7E9F9B2481430FBF718F9D5
:10568000B1480090B248019000200290322003906F
:10569000002004908020059000200690079008903C
:1056A0004FF44050099000200A906946A5481430F4
:1056B000FBF7A0F94FF48030FBF7F6F90121A14880
:1056C0001430FBF7C2F90BB000BD10B586B004462C
:1056D00001210420FBF732FD01218803FBF72EFD99
:1056E0004FF40070ADF8140018208DF81700032057
:1056F0008DF8160005A99748FBF764FA4FF480600F
:10570000ADF8140004208DF8170005A99148FBF7A7
:1057100059FA2046FFF758FFFFF776FF4FF4E130C4
:1057200001900020ADF80800ADF80A00ADF80C00BB
:10573000ADF810000C20ADF80E0001A98248001F42
:10574000FBF7A3FD012240F224417F48001FFBF735
:1057500034FE01217C48001FFBF723FE012280213B
:105760007948001FFBF74EFE012240217648001FBA
:10577000FBF748FE06B010BD10B50446012076497F
:10578000087070484438846401216E48FBF75DF965
:1057900010BD10B54FF48050FBF791F950B10020C7
:1057A0006D4908704FF48050FBF77EF90021654881
:1057B000FBF74BF910BD08B50020009040F22441E2
:1057C0006148001FFBF7DEFEB8B340F224415E489B
:1057D000001FFBF701FF5C48001FFBF753FE102181
:1057E0005948001FFBF7C5FE002156481430FBF74F
:1057F0002CF94FF48030FBF757F952481430FBF77F
:105800003BF9C0F132005549087032204D49443906
:10581000C86500236A464E495148006801F086FE7B
:105820004B48484944394866012146481430FBF743
:105830000CF94548001FFBF725FE009818B14FF002
:1058400080504849086008BD70B505460C46002CDC
:1058500003DA284603F0E7FD04B200BF3E480078B3
:105860000028FBD13949214448702246294637484F
:1058700003F0B5FDA0B2FFF77FFF70BD70B5044621
:105880000D4629462046FBF7F9FD00BF8021204642
:10589000FBF762FE0028F9D070BD70B506460C46D5
:1058A000002500BF615D3046FFF7E8FF6D1C605DBD
:1058B0000028F7D100BF40213046FBF74DFE0028FD
:1058C000F9D070BD2DE9F04105460C46260AE7B235
:1058D00031462846FBF7D2FD00BF80212846FBF762
:1058E0003BFE0028F9D039462846FBF7C7FD00BF2C
:1058F00080212846FBF730FE0028F9D0BDE8F08172
:1059000070B504460D46E1B20F48001FFBF7B6FD27
:1059100000BF80210C48001FFBF71EFE0028F8D0B6
:10592000204670BD10B5044600BF20210648001F68
:10593000FBF712FE0028F8D00348001FFBF7A2FD7A
:1059400010BD00004400024004380140B0030020B4
:10595000E20300200008014054020020550200200C
:105960004800002004ED00E070B504460E462EB15C
:105970004FF48051FB48FBF7D2F904E04FF480511B
:10598000F848FBF7CEF900251BE04FF40051F5482D
:10599000FBF7C7F904F0800028B14FF40041F1484B
:1059A000FBF7BDF904E04FF40041EE48FBF7B9F90D
:1059B0004FF40051EB48FBF7B2F96006040E681C87
:1059C000C5B2082DE1DB4FF48051E648FBF7A7F99B
:1059D00070BD70B504460D4605F1B001C8B2002196
:1059E000FFF7C2FFA11CC1F3031141F01000002119
:1059F000FFF7BAFFA11C01F00F000021FFF7B4FF71
:105A000070BDF0B5144600267F2801DC3F2900DD7B
:105A1000F0BD0B46CF1701EB5777FF10C7F1070713
:105A2000FAB2CF1701EB5777FF10A1EBC707FDB212
:105A3000C5F107070123BB40DEB24CB1CA4B03EBF3
:105A4000C0039B5C3343C84F07EBC007BB5408E05F
:105A5000C54B03EBC0039B5CB343C34F07EBC007CD
:105A6000BB5400BFD4E770B502460025C1F13F002A
:105A7000C1B20846CE1701EB5676F310CE1701EBF4
:105A80005676F610A1EBC606F4B20120A040C5B2CE
:105A9000B54800EBC200C05C284008B1012070BDD1
:105AA0000020FCE710B500218D20FFF75DFF0021ED
:105AB0001420FFF759FF0021AF20FFF755FF10BD5D
:105AC00010B500218D20FFF74FFF00211020FFF7B8
:105AD0004BFF0021AE20FFF747FF10BD70B500243B
