:020000040800F2
:1000000078400020E51C0008091D00080B1D0008B1
:100010000F1D0008131D0008171D00080000000038
:1000200000000000000000000000000001010008C6
:100030001B1D00080000000045010008BB5100081E
:10004000FF1C0008FF1C0008FF1C0008FF1C000824
:10005000FF1C0008FF1C0008FF1C0008FF1C000814
:10006000FF1C0008FF1C0008FF1C0008FF1C000804
:10007000E54B0008FF1C000893390008FF1C00082E
:10008000FF1C0008FF1C0008FF1C0008FF1C0008E4
:10009000FF1C0008FF1C0008FF1C00081D1D0008B5
:1000A000FF1C0008FF1C0008FF1C0008FF1C0008C4
:1000B000FF1C0008FF1C0008FF1C0008FF1C0008B4
:1000C000FF1C0008FF1C0008FF1C0008FF1C0008A4
:1000D000FF1C0008B7390008FF1C0008054C000889
:1000E000FF1C0008FF1C0008FF1C0008DFF80CD0F4
:1000F0000FF0ECFE00480047971E000878400020F3
:10010000204B19680868B0E8F00F80F30988BFF346
:100110006F8F4FF0000080F311884EF00D0E704786
:100120000000000006480068006880F3088862B696
:1001300061B6BFF34F8FBFF36F8F00DF00BF00BF0B
:1001400008ED00E0EFF30980BFF36F8F0D4B1A68E5
:1001500020E9F00F106008B54FF0100080F311880F
:1001600006F0BFF94FF0000080F31188BDE80840A9
:1001700019680868B0E8F00F80F30988BFF36F8F43
:10018000704700BF10020020EFF311804FF0100104
:1001900081F31188704780F311887047EFF3058071
:1001A000704700000CB50020019000906C4800687A
:1001B00040F480306A49086000BF6948006800F474
:1001C000003000900198401C0190009818B90198E7
:1001D000B0F5A06FF1D16248006800F4003010B1B2
:1001E0000120009001E0002000900098012843D1F8
:1001F0005C48006840F010005A49086008460068F2
:1002000020F0030008600846006840F00200086023
:10021000534840685249486008464068486008466C
:10022000406840F4806048600846406820F47C10D4
:1002300048600846406840F4E81048600846006896
:1002400040F08070086000BF4548006800F0007012
:100250000028F9D04248406820F003004049486037
:100260000846406840F00200486000BF3C484068D3
:1002700000F00C000828F9D10CBD10B5FFF792FF73
:1002800010BD10B53648006840F0010034490860E0
:1002900008464068344908403149486008460068CB
:1002A000324908402E4908600846006820F4802042
:1002B00008600846406820F4FE0048604FF41F00C4
:1002C0008860FFF7DAFF4FF000602949086010BD31
:1002D00010B5002100200022214B5B6803F00C01C7
:1002E00021B1042906D0082928D107E0214B224C4E
:1002F000236027E01F4B204C236023E0184B5B68F2
:1003000003F47010164B5B6803F48032022303EB96
:10031000904022B9194B4343174C23600DE0104B1A
:100320005B6803F4003323B1144B4343124C236046
:1003300003E0104B4343104C236003E00D4B0E4C85
:10034000236000BF00BF064B5B68C3F303130C4C74
:10035000E15C094B1B68CB40074C236010BD0000DB
:1003600000100240002002400000FFF8FFFFF6FEF0
:1003700008ED00E000127A000000002000093D00B6
:100380000400002031490143314A1160704770B5C3
:10039000002100230F22C47804B32D4C246804F4F8
:1003A000E064C4F5E064210AC1F10403CA40447862
:1003B00004FA03F18478144021430901254C06789E
:1003C000A155047804F01F050124AC4005786D1197
:1003D000AD0005F1E025C5F8004109E0047804F01E
:1003E0001F050124AC401C4D0678761145F82640C7
:1003F00070BD1A4A0A400243154B1B1F1A60704712
:1004000039B1134A121D12680243114B1B1D1A60A9
:1004100006E00F4A121D126882430D4B1B1D1A6025
:100420007047042808D14FF0E021096941F0040128
:100430004FF0E022116107E04FF0E021096921F05F
:1004400004014FF0E0221161704700000000FA053E
:100450000CED00E000E400E080E100E080FFFF1F21
:1004600010B50446FA48844208D10121401501F034
:10047000EBF90021601501F0E7F917E0F548844237
:1004800008D10121001501F0DFF90021201501F04C
:10049000DBF90BE0F048844208D10121C80301F0E8
:1004A000D3F900214FF4004001F0CEF910BD30B572
:1004B0000246002000235068E84C20400D790C686B
:1004C00044EA0524204350609068E54C2040D1E97F
:1004D00002542C434D7944EA450420439060D06A8D
:1004E00020F470000C7C641EE4B2234340EA035005
:1004F000D06230BD00210160017141718160C16035
:1005000001210174704721B1826842F001028260CA
:1005100003E0826822F001028260704721B18268A4
:1005200042F48072826003E0826822F4807282600A
:10053000704710B50023CBB21AB144681C43446025
:1005400002E044689C43446010BD816841F00801AA
:1005500081607047014600208A6802F008020AB1F3
:10056000012000E000207047816841F004018160B3
:100570007047014600208A6802F004020AB1012097
:1005800000E00020704721B1826842F4A00282603E
:1005900003E0826822F4A0028260704701460020D6
:1005A0008A6802F480020AB1012000E0002070474E
:1005B00010B50A4600210023416821F46041531E12
:1005C00041EA4331416010BD21B1426842F400620A
:1005D000426003E0426822F4006242607047F0B576
:1005E00004460D4600200021092D11DDE068A5F12B
:1005F0000A0606EB4607072606FA07F18843A5F127
:100600000A0606EB460603FA06F10843E0600CE032
:10061000206905EB4507072606FA07F1884305EB35
:10062000450603FA06F108432061072A0FDA606BDA
:10063000561E06EB86071F2606FA07F18843561E4C
:1006400006EB860605FA06F10843606322E00D2AF0
:100650000FDA206BD61F06EB86071F2606FA07F176
:100660008843D61F06EB860605FA06F10843206389
:1006700010E0E06AA2F10D0606EB86071F2606FAD7
:1006800007F18843A2F10D0606EB860605FA06F18E
:100690000843E062F0BD21B1826842F480128260BA
:1006A00003E0826822F48012826070470146C86CC1
:1006B00080B2704766484C300068704721B142688C
:1006C00042F48062426003E0426822F48062426049
:1006D000704721B1426842F48052426003E04268B0
:1006E00022F48052426070470A460021816821F45A
:1006F000E04111438160704721B1826842F40042B9
:10070000826003E0826822F400428260704721B177
:10071000826842F40212826003E0826822F40212CC
:1007200082607047014600208A6802F400120AB114
:10073000012000E000207047F0B504461546002077
:1007400000220026092911DDE068A1F10A0707EB64
:10075000470C072707FA0CF29043A1F10A0707EBB1
:10076000470703FA07F21043E0600CE0206901EB51
:10077000410C072707FA0CF2904301EB410703FAFB
:1007800007F210432061A06BC0F30156EF1C06F185
:10079000010CA7EB0C0707EB870C1F2707FA0CF2DD
:1007A0009043EF1C06F1010CA7EB0C0707EB870742
:1007B00001FA07F21043A063F0BD10B50A4600210C
:1007C0000023816B21F44011531E41EA03518163E0
:1007D00010BD08B5002300930090009B0B440093CC
:1007E000009B1A6008BD08B50246002000900092E8
:1007F00001F12800009B184400900098006880B226
:1008000008BD0A4600214168164B1940114341605A
:1008100070474162826270470A460021416821F0B8
:100820001F0111434160704740B10949083109680F
:1008300041F40001064A0832116007E0044908311A
:10084000096821F40001024A083211607047000073
:100850000024014000280140003C0140FFFEF0FF61
:10086000FDF7F1FFFFFD3FFF0246002013680B403C
:100870000BB1012000E000207047CA4302607047BE
:1008800070B502460020002300240B125568CEB23A
:1008900005EA060415681D4015B10CB1012000E001
:1008A000002070BD00220A12D3430360704700008D
:1008B00001684FF6FE721140016000210160416045
:1008C0008160C1608D49884208D18C4908394968E6
:1008D00041F00F01894A083A51608AE08749143192
:1008E000884208D185490839496841F0F001834AB6
:1008F000083A51607DE081492831884208D17F491A
:100900000839496841F470617C4A083A516070E0E6
:100910007A493C31884208D178490839496841F41C
:100920007041764A083A516063E074495031884218
:1009300008D172490839496841F470216F4A083A70
:10094000516056E06D496431884208D16B490839DD
:10095000496841F47001694A083A516049E06749C1
:100960007831884208D165490839496841F0706199
:10097000624A083A51603CE06149884206D1011F51
:10098000096841F00F01021F116032E05C49143127
:10099000884208D15A49091F096841F0F001584AB4
:1009A000121F116025E056492831884208D1544968
:1009B000091F096841F47061514A121F116018E063
:1009C0004F493C31884208D14D49091F096841F41B
:1009D00070414B4A121F11600BE049495031884267
:1009E00007D14749091F096841F47021444A121F81
:1009F0001160704710B50022026847F6F0739A4301
:100A00000C6A8B6823430C6923434C6923438C692C
:100A10002343CC6923434C6A23438C6A23431A4300
:100A20000260CB6843600B6883604B68C36010BD95
:100A30000021016041608160C160016141618161AB
:100A4000C161016241628162704721B1026842F076
:100A50000102026004E002684FF6FE731A40026071
:100A600070471AB103680B43036002E003688B43CD
:100A700003607047416070470146486880B2704724
:100A800001460020002201F080531BB11C4B083BA3
:100A90001A6802E0194B083B1A6802EA01030BB11D
:100AA000012000E00020704700F0805119B1144986
:100AB000091F086002E01149083948607047014683
:100AC0000020002201F080531BB10D4B083B1A6837
:100AD00002E00A4B083B1A6802EA01030BB101204D
:100AE00000E00020704700F0805119B10449091F4F
:100AF000086002E001490839486070470800024078
:100B000008040240002044490860091D0860091DCE
:100B10000860091D086041483F491431086070476A
:100B200000213D498279002A3AD00A4612680368BA
:100B30009A430B461A600A1D126803689A430B1DFC
:100B40001A60027911440A6803681A430A60324A3B
:100B50000832126803689A432F4B08331A601A1D33
:100B6000126803689A432C4B0C331A604279102A9E
:100B70000ED11A1F126803681A43274B08331A60F4
:100B80001A1D126803681A43234B0C331A600DE0D8
:100B90002149427911440A6803681A430A6005E052
:100BA000027911440A6803689A430A607047002179
:100BB000016001710C21417100218171704716495A
:100BC000103109680143144A103211607047014620
:100BD0000020114A143212680A400AB1012000E0D4
:100BE000002070470C49143108607047014600200E
:100BF0000022094B1B6803EA0102074B14331B68F0
:100C00000B4013B10AB1012000E0002070470249F7
:100C1000143108607047000000040140FFFF0F001E
:100C200001460020FE4A106800F0380008431060BA
:100C30007047FB49096821F00801F94A1160114623
:100C40000968014311607047F549096821F01001F6
:100C5000F34A116011460968014311607047F14879
:100C6000EF494860F04848607047EE48EC494860FA
:100C7000ED4848607047EA48006940F08000E84964
:100C800008617047E648006940F08000E449086167
:100C900070470420E249C96801F0010109B101204F
:100CA0000EE0DF49C96801F0040109B1022007E044
:100CB000DB49C96801F0100109B1032000E00420FC
:100CC000704700B502460423FFF7E3FF034603E045
:100CD000FFF7DFFF0346521E012B01D1002AF7D197
:100CE00002B90523184600BD30B5044604254FF46B
:100CF0003020FFF7E6FF0546042D17D1C8480069EC
:100D000040F00200C649086108464461006940F0AD
:100D1000400008614FF43020FFF7D3FF0546C0487C
:100D2000006941F6FD710840BD490861284630BDA3
:100D300010B504244FF43020FFF7C3FF0446042C01
:100D400016D1B748006940F00400B549086108466B
:100D5000006940F0400008614FF43020FFF7B1FF18
:100D60000446AF48006941F6FB710840AC49086190
:100D7000204610BD00B502460423FFF78AFF034654
:100D800003E0FFF786FF0346521E012B01D1002A24
:100D9000F7D102B90523184600BD10B504244FF45D
:100DA0003020FFF7E7FF0446042C16D19C48006969
:100DB00040F004009A4908610846006940F040008C
:100DC00008614FF43020FFF7D5FF044694480069CE
:100DD00041F6FB71084092490861204610BD002091
:100DE0008F49C96901F0020109B1012000E000202A
:100DF000704730B5A5250424FFF7F1FF00B10025A9
:100E00004FF43020FFF75DFF0446042C3AD18548AB
:100E100083498860844888600846006940F0200063
:100E200008610846006940F0400008614FF4302036
:100E3000FFF747FF0446042C1BD17948006941F6AF
:100E4000DF710840764908610846006940F01000EB
:100E5000086176480580E002FFF733FF0446052C61
:100E600010D06F48006941F6EF7108406C49086185
:100E700008E0052C06D06A48006941F6EF71084089
:100E800067490861204630BD78B506460C46042502
:100E900000200090E802FFF714FF0546042D24D13E
:100EA0005F48006940F001005D4908613480E80254
:100EB000FFF707FF0546042D10D1B01C0090200C51
:100EC00000990880E802FFF7FCFE054654480069D7
:100ED00041F6FE7108405249086106E05048006939
:100EE00041F6FE7108404E490861284678BD70B54C
:100EF00004460D460426F002FFF7E3FE0646042EE4
:100F000011D14748006940F001004549086125803A
:100F1000F002FFF7D6FE06464148006941F6FE7131
:100F200008403F490861304670BD70B505460E4621
:100F30000424E002FFF7C5FE0446042C17D139480B
:100F400037498860384888600846006940F01000DA
:100F500008612E80E002FFF7B4FE0446052C06D09F
:100F60002F48006941F6EF7108402D49086120467D
:100F700070BD2DE9F04304464FF6FF763746B04684
:100F8000B1460425E443E6B2C4F30727C4F3074897
:100F90004FEA1469E802FFF794FE0546042D49D193
:100FA00020481F498860204888600846006940F052
:100FB00010000861FF2E06D01C4808300680E802A9
:100FC000FFF77FFE0546042D08D1FF2F06D01748F6
:100FD0000A300780E802FFF774FE0546042D0AD1A7
:100FE000B8F1FF0F07D011480C30A0F80080E802DC
:100FF000FFF767FE0546042D0AD1B9F1FF0F07D0B0
:101000000A480E30A0F80090E802FFF75AFE0546A5
:10101000052D0FD00248006941F6EF71084007E046
:101020000020024023016745AB89EFCD00F8FF1F88
:10103000664908612846BDE8F08330B505460424BA
:101040004FF43020FFF73DFE0446042C41D16048A8
:101050005E4988605F4888600846006940F020006B
:1010600008610846006940F0400008614FF43020F4
:10107000FFF727FE0446042C22D15448006941F6AC
:10108000DF710840514908610846006940F01000CE
:1010900008611DB100205049088002E0A5204E499A
:1010A00008804FF43020FFF70CFE0446052C10D0CA
:1010B0004648006941F6EF7108404449086108E07C
:1010C000052C06D04148006941F6DF7108403F49D0
:1010D0000861204630BDF0B505460E46174604248B
:1010E0003B483A4988603B488860E002FFF7E9FDE9
:1010F0000446042C19D13548006940F010003349EA
:10110000086147F0F800304328433349891C0880C0
:10111000E002FFF7D6FD0446052C06D02B480069F7
:1011200041F6EF710840294908612046F0BD274883
:10113000C069800870472548006A7047002023492D
:10114000096801F0200109B1012000E0002070478A
:1011500029B11E4A126902431C4B1A6104E01B4A62
:1011600012698243194B1A61704701460020012918
:1011700008D1164AD26902F001020AB1012008E042
:10118000002006E0114AD2680A400AB1012000E0BE
:10119000002070470D49C860704704200B49C9689A
:1011A00001F0010109B101200EE00849C96801F010
:1011B000040109B1022007E00449C96801F01001E7
:1011C00009B1032000E00420704700000020024025
:1011D00023016745AB89EFCD00F8FF1F10B504462A
:1011E000CC48844208D10121042000F02DFB0021CD
:1011F000042000F029FB46E0C748844208D10121C1
:10120000082000F021FB0021082000F01DFB3AE03F
:10121000C248844208D10121102000F015FB0021B2
:10122000102000F011FB2EE0BD48844208D10121BE
:10123000202000F009FB0021202000F005FB22E027
:10124000B848844208D10121402000F0FDFA002175
:10125000402000F0F9FA16E0B348844208D1012199
:10126000802000F0F1FA0021802000F0EDFA0AE081
:10127000AE48844207D10121801500F0E5FA002133
:10128000A01500F0E1FA10BD10B50121084600F0EC
:10129000DBFA0021012000F0D7FA10BD2DE9F04162
:1012A000024600250026002000230024002791F894
:1012B00003C00CF00F0591F803C00CF0100CBCF14A
:1012C000000F03D091F802C04CEA050591F800C068
:1012D000BCF1000F31D0146800202BE04FF0010C5E
:1012E0000CFA00F3B1F800C00CEA03069E4220D1CC
:1012F00083004FF00F0C0CFA03F7BC4305FA03FC14
:101300004CEA040491F803C0BCF1280F06D14FF059
:10131000010C0CFA00FCC2F814C00AE091F803C0FA
:10132000BCF1480F05D14FF0010C0CFA00FCC2F8DB
:1013300010C0401C0828D1D31460B1F800C0BCF123
:10134000FF0F34DD546800202EE000F1080C4FF050
:10135000010808FA0CF3B1F800C00CEA03069E423B
:1013600021D183004FF00F0C0CFA03F7BC4305FAB0
:1013700003FC4CEA040491F803C0BCF1280F05D12A
:1013800000F1080C08FA0CF8C2F8148091F803C0B8
:10139000BCF1480F07D100F1080C4FF0010808FA22
:1013A0000CF8C2F81080401C0828CED35460BDE869
:1013B000F0814FF6FF710180022181700421C1701C
:1013C00070470246002093680B400BB1012000E0FB
:1013D000002070470146886880B2704702460020AE
:1013E000D3680B400BB1012000E00020704701469C
:1013F000C86880B2704701617047416170470AB1A7
:10140000016100E041617047C16070474FF4803274
:101410000A43826181618261826982697047024602
:101420000020434B18684FF68073184040EA0210C2
:1014300008433F4B186070473E49C8617047F0B59C
:101440000A46002300240021002500F00046B6F1E2
:10145000004F02D1364EF16901E0354E7168C0F39C
:10146000034583B200F44016B6F5401F08D121F0C1
:1014700070612F4E766826F070662D4F7E6012E008
:1014800000F48016B6F5801F06D1032606FA05F48F
:10149000A14341F0706106E0460D360103FA06F6FD
:1014A000B14341F0706122B1460D360103FA06F6F0
:1014B000314300F00046B6F1004F02D11C4EF161FD
:1014C00001E01B4E7160F0BD30B500228B071C0F90
:1014D0000F2303FA04F2164B08338C1053F8243010
:1014E0009343134C08348D1044F8253023468C1058
:1014F00053F824308C07240F00FA04F423430C4CD7
:1015000008348D1044F8253030BD0A49DC310860BC
:101510007047000000080140000C0140001001402D
:101520000014014000180140001C0140002001404F
:101530000000014000002042DF48006840F0010048
:10154000DD49086008464068DC490840DA494860DF
:1015500008460068DA490840D7490860084600682C
:1015600020F4802008600846406820F4FE004860AF
:101570004FF41F0088607047CF49096821F480311B
:10158000CD4A11601146096821F480211160B0F53F
:10159000803F03D0B0F5802F0ED106E0C649096820
:1015A00041F48031C44A116007E0C349096841F43D
:1015B000A021C14A116000E000BF00BF704710B514
:1015C00001460022002300204A11012A02D1BA4C10
:1015D000236806E0022A02D1B74C236A01E0B64C28
:1015E000636A01F01F02012494401C400CB10120E9
:1015F00000E0002010BD38B5002000900024002538
:1016000000BF3120FFF7DBFF05460098401C00902B
:101610000098B0F5A06F01D0002DF2D03120FFF777
:10162000CEFF08B1012400E00024204638BD014669
:101630000020A14A106820F0F80040EAC1001060C4
:101640007047A04908607047024600209A4B5868CE
:1016500020F47C1042EA01031843974B586070470E
:1016600098490866704701460020934A506820F068
:1016700003000843506070478F48406800F00C003A
:101680007047014600208C4A506820F0F000084363
:101690005060704701460020874A506820F4E0609F
:1016A00008435060704701460020834A506820F488
:1016B000605040EAC1005060704729B17E4A527ABA
:1016C00002437D4B5A7204E07B4A527A82437A4B42
:1016D0005A7270477B49D831086070470146002034
:1016E000754A506820F4404008435060704700211C
:1016F000714A20321170704A82F82010012802D0FD
:1017000004280AD104E001216B4A2032117005E05F
:101710000521694A2032117000E000BF00BF704708
:101720006949086070476449096A0143624A116265
:101730007047654944390860704730B50021002280
:10174000002400235C4D6D6805F00C0121B10429D3
:1017500005D0082923D105E05C4D056022E05B4DF2
:1017600005601FE0544D6D6805F47012524D6D68B0
:1017700005F48034022505EB92421CB9544D5543C3
:1017800005600BE04C4D6D6805F400351DB1504D02
:101790005543056002E04D4D5543056002E04B4D59
:1017A000056000BF00BF444D6D6805F0F0010909F8
:1017B000484D6B5C0568DD4045603F4D6D6805F444
:1017C000E061090A434D6B5C4568DD4085603A4D38
:1017D0006D6805F46051C90A3E4D6B5C4568DD409B
:1017E000C560354D6D6805F44041890B3A4D6B5C21
:1017F000C568B5FBF3F5056130BD29B12E4A5269C4
:1018000002432D4B5A6104E02B4A526982432A4B12
:101810005A61704729B1284A92690243264B9A615E
:1018200004E0254A92698243234B9A61704729B1AB
:10183000214AD2690243204BDA6104E01E4AD26990
:1018400082431D4BDA61704729B11B4AD2680243BB
:10185000194BDA6004E0184AD2688243164BDA600A
:10186000704729B1144A12690243134B1A6104E00C
:10187000114A12698243104B1A617047124940396C
:10188000086070470F49C86470470B49C8717047BA
:101890000948406A40F08070074948627047014635
:1018A0000020054A92680A400AB1012000E00020A9
:1018B0007047014988727047001002400000FFF82D
:1018C000FFFFF6FE000042428004424200127A000E
:1018D00000093D00140000202400002010B504463B
:1018E000FB48844209D101218803FFF7ADFF0021A5
:1018F0004FF48040FFF7A8FF32E0F648844209D158
:1019000001214804FFF7ADFF00214FF40030FFF73D
:10191000A8FF25E0F048844209D101218804FFF79F
:10192000A0FF00214FF48020FFF79BFF18E0EB4859
:10193000844209D10121C804FFF793FF00214FF42D
:101940000020FFF78EFF0BE0E548844208D101211B
:101950000805FFF786FF00214FF48010FFF781FF95
:1019600010BD2DE9F04786B005460E460024A2467C
:1019700000BFA1460027B08900B100BF2F462C8AC6
:101980004CF6FF700440F08804432C82AC894EF67C
:10199000F3100440B0883189084371890843044337
:1019A000AC81AC8A4FF6FF400440B0890443AC825E
:1019B00001A8FFF7C2FEC648874202D1DDF810A099
:1019C00001E0DDF80CA0A88900F4004040B10AEB6A
:1019D000CA0000EB0A1031684900B0FBF1F807E0DB
:1019E0000AEBCA0000EB0A1031688900B0FBF1F87D
:1019F0006420B8FBF0F004012009642101FB108988
:101A0000A88900F4004040B1322000EBC900B0FBCF
:101A1000F1F000F00700044308E0322000EB091069
:101A20006421B0FBF1F000F00F0004432C8106B0FC
:101A3000BDE8F0874FF41651016000218180C1801C
:101A400001810C21418100218181704710B502463E
:101A50000020108A4FF2FF0318400B884C88234364
:101A60008C882343CC8823431843108210BD002167
:101A7000018041808180C180704721B1828942F418
:101A80000052828104E082894DF6FF731A40828100
:101A90007047F0B50346002400260025002040F6DC
:101AA0006A17B94200D100BF1846C1F3421401F0D1
:101AB0001F06012707FA06F5012C01D10C3004E0BE
:101AC000022C01D1103000E014301AB107682F4306
:101AD000076002E00768AF430760F0BD1AB1838A70
:101AE0000B43838202E0838A8B4383827047028A9E
:101AF0004FF6F0731A400282028A0A43028270474C
:101B000082894FF2FF731A40828182890A4382815F
:101B1000704721B1828942F00202828104E0828909
:101B20004FF6FD731A4082817047028A4FF6DF73C9
:101B30001A400282028A0A430282704721B1028A55
:101B400042F48042028204E0028A4BF6FF731A409C
:101B500002827047C1F3080282807047014688887C
:101B6000C0F308007047818941F00101818170470D
:101B7000028BD2B20283028B42EA012202837047B7
:101B8000028B02F47F420283028B0A430283704776
:101B900021B1828A42F02002828204E0828A4FF6DA
:101BA000DF731A408282704721B1828A42F01002AC
:101BB000828204E0828A4FF6EF731A408282704775
:101BC00021B1828A42F00802828204E0828A4FF6C2
:101BD000F7731A408282704721B1828942F4004231
:101BE000828103E08289C2F30E028281704721B1B3
:101BF000828A42F40062828204E0828A4FF2FF739A
:101C00001A4082827047828A4FF6FB731A408282A2
:101C1000828A0A438282704721B1828A42F002029C
:101C2000828204E0828A4FF6FD731A4082827047F6
:101C300002460020B1F5007F00D100BF13880B40A1
:101C40000BB1012000E00020704701F40072B2F5F2
:101C5000007F00D100BFCA430280704770B50246C2
:101C6000002400230025002040F66A16B14200D16E
:101C700000BFC1F3421501F01F03012606FA03F36A
:101C8000012D02D19689334006E0022D02D1168A39
:101C9000334001E0968A33400C12012606FA04F420
:101CA0001688344013B10CB1012000E0002070BD53
:101CB00010B50022002340F66A14A14200D100BFF3
:101CC0000A1201249440A3B2DC43048010BD00003A
:101CD000003801400044004000480040004C0040F3
:101CE000005000400648804706480047FEE7FEE7F0
:101CF000FEE7FEE7FEE7FEE7FEE7FEE7FEE7FEE7BC
:101D000083020008ED000008704700BFFEE700BF37
:101D1000FEE700BFFEE700BFFEE7704708B52020E2
:101D2000FEF764FFC8B10D480078401C0B490870ED
:101D30000846007802280DDB69460948006803F070
:101D400052FE009818B14FF08050064908600020FC
:101D5000024908702020FEF75AFF08BD2800002025
:101D60006800002004ED00E010B5002232210520BB
:101D700003F097FC5049086000223221012003F053
:101D800090FC4E49086000223221072003F089FCB4
:101D90004B49086000223221072003F082FC4949A8
:101DA000086003220021012003F07BFC4649086003
:101DB00003F048FA4549086010BD1FB50020444AA9
:101DC0000623CDE90120009303900346802241A120
:101DD000434804F03FF80020424A0823CDE901209F
:101DE00000930390034680223FA1424804F032F85A
:101DF0000020414A0823CDE90120009303900346C7
:101E00004FF480723DA1414804F024F80020404A7C
:101E10000A23CDE9012000930390034680223DA1CF
:101E20003F4804F017F800203E4A0B23CDE901207B
:101E300000930390034680223BA13F4804F00AF838
:101E400000203E4A0C23CDE9012000930390034675
:101E50004FF400723AA13E4803F0FCFF00203D4AD7
:101E60000C23CDE901200093039003464FF48072C8
:101E700039A13D4803F0EEFF00203C4A0B23CDE999
:101E800001200093039003464FF4807238A13C4830
:101E900003F0E0FF1FBD012080F3108800BF01F0B8
:101EA000E5FB00F085F8FFF788FFFFF75DFF04F022
:101EB00090FC00BFFEE70000540000205800002006
:101EC0005C0000206000002068000020640000200A
:101ED0002C0000205461736B204C656400000000EE
:101EE000B96F0008300000205461736B204B657996
:101EF00000000000A1700008440000205461736BD2
:101F000020446973706C6179000000001B72000846
:101F10004C0000205461736B204D70750000000070
:101F20003D750008480000205461736B204A6F79AA
:101F3000537469636B000000317400083C0000209A
:101F40005461736B20556172743352780000000045
:101F500065750008400000205461736B2055617264
:101F60007433547800000000917500085000002080
:101F70005461736B2053656E6444617461000000AA
:101F8000D575000870B50446049D601AEE1A7043BA
:101F9000561A90FBF6F0184470BD0146002901DA8C
:101FA000484200E0084670470120774908707047B2
:101FB00010B5FFF7F9FF01F0B7FA10BD10B503F047
:101FC000CAF801217148007802F096FE002302222F
:101FD0006F496E48007802F0E0FE02231A466C4911
:101FE000491C6A48007802F0D8FE04231A46684962
:101FF0000C396648007802F0D0FE082304226449B8
:1020000010396248007802F0C8FE0C2304226049AF
:1020100008395E48007802F0C0FE102304225C49B3
:10202000091F5A48007802F0B8FE142302225949C9
:102030005648007802F0B1FE162302225549491C89
:102040005248007802F0A9FE1823042251490C39A5
:102050004E48007802F0A1FE1C2304224D4910399D
:102060004A48007802F099FE2023042249490839A1
:102070004648007802F091FE242304224549091FB6
:102080004248007802F089FE03F083F810BD3F4813
:1020900000784FF0006101EB802000783C49203946
:1020A00081F82000394800784FF0006101EB802072
:1020B00080783749203981F82100344800784FF082
:1020C000006101EB802040683149203948612F4888
:1020D00000784FF0006101EB802080682C492039A6
:1020E00008612A4800784FF0006101EB8020C06849
:1020F000274920398861254800784FF0006101EBBD
:102100008020006922492039C861204800784FF0BA
:10211000006101EB8020007D1E49203981F82000FC
:102120001A4800784FF0006101EB8020807D19494A
:10213000203981F82100154800784FF0006101EB4B
:1021400080208069134920394861104800784FF099
:10215000006101EB8020C0690E49203908610B48FD
:1021600000784FF0006101EB8020006A09492039B6
:102170008861064800784FF0006101EB8020406ADA
:1021800004492039C86170476C000020EB01002031
:10219000403B0020643B002030B503460C46002144
:1021A0001AE0585C2578A84200D014E0002206E02E
:1021B000521CA05C8D185D5DA84200D005E0A05CBB
:1021C00018B18818185C0028F2D100BFA05C08B9CB
:1021D000084630BD00BF491C585C0028E1D1401EB4
:1021E000F7E72DE9FE4304460E464FF000090020B4
:1021F00000900190029031462046FFF7CDFF054642
:102200006019D0F803100091C0798DF804006019AE
:1022100080782B2807D168460EF0CBF907460DF0E1
:1022200088FC814608E068460EF0C3F981F0004161
:1022300007460DF07EFC81464846BDE8FE832DE949
:10224000F84306460F4614461D46A046002000905F
:10225000322130460DF011FA4FEA18608DF8000077
:102260002A46394630460DF0EFF90020BDE8F883E4
:10227000FEB505460F4616461C460020009001900C
:102280000290322128460DF0F8F9002E08DD224692
:10229000394628460DF0D8F9FEA10978295508E0FD
:1022A0002246394628460DF0CFF9FBA10978295579
:1022B00076423246F9A168460EF028F8F848864280
:1022C0000ADA42F20F70864206DD28190099C0F83A
:1022D00001109DF80410417142F2107086420ADA32
:1022E000B6F57A7F07DB2819EEA109784170281925
:1022F0000099C0F80210B6F57A7F0EDA632E0CDD75
:102300002819E9A10988A0F801102819BDF80010C2
:10231000A0F803109DF802104171642E0CDA092E0A
:102320000ADD2819E1A10A88A0F801208978C17086
:102330002819BDF8001081800A2E08DA2819DCA1BE
:102340000968C0F8011028199DF800104171232078
:10235000291988710020FEBD10B502460B461446AF
:10236000002107E0605C984200D002E06218002083
:1023700010BD491C3229F5DB0120F9E7F0B589B021
:1023800004460F4615461E4624208DF800008DF8A1
:10239000014001208DF8020003208DF80300002089
:1023A0008DF804008DF805708DF806500023324634
:1023B0006946C148006803F02CFA09B0F0BD2DE968
:1023C000F0418AB005460E4617461C46DDF84080AF
:1023D00024208DF804008DF8055001208DF80600AA
:1023E000A01CC0B28DF8070001208DF808008DF800
:1023F0000960224639460DF10A000DF025F9002347
:10240000424601A9AC48006803F003FA0AB0BDE8EF
:10241000F081F0B589B004460F4615461E462420CB
:102420008DF8000050208DF801008DF80240032047
:102430008DF8030000208DF804008DF805708DF8EC
:1024400006500023324669469B48006803F0E1F9D4
:1024500009B0F0BD2DE9F0418AB005460E46174699
:102460001C46DDF8408024208DF8040050208DF8B3
:1024700005008DF80650A01CC0B28DF807000120A1
:102480008DF808008DF80960224639460DF10A00E2
:102490000DF0DAF80023424601A98748006803F0EE
:1024A000B8F90AB0BDE8F08101B58AB024210A98D4
:1024B000FFF752FF0A98807802287DD10A98407869
:1024C0000328FAD10A9800790128F6D17B4890F8C0
:1024D000490006900A98407908286ED008DC022846
:1024E0006CD003280BD0042871D0072868D1EBE00A
:1024F000092866D00A287DD03128F7D111E20A9840
:10250000407A01060A98007A41EA00410A98C079A7
:1025100041EA00210A988079084309900998FFF759
:102520003CFDB0F5FA5F02DA6549099808600A983F
:10253000407B01060A98007B41EA00410A98C07A74
:1025400041EA00210A98807A014309910998FFF72E
:1025500024FDB0F5FA5F02DA5949099848600A98F3
:10256000407C01060A98007C41EA00410A98C07B41
:1025700041EA00210A98807B014309910998FFF7FD
:102580000CFDB0F5FA5F02DA4D49099888600A98A7
:10259000407D01060A98007D41EA00410A98C07C0E
:1025A00041EA00210A98807C014309910998FFF7CC
:1025B000F4FCB0F5FA5F05E0E2E1A2E078E106E0C4
:1025C000D1E18DE002DA3E490998C860CBE10A9872
:1025D000407A01060A98007A41EA00410A98C079D7
:1025E00041EA00210A988079084309900998FFF789
:1025F000D4FC00E013E1B0F5FA7F02DA3149099822
:1026000008600A98407B01060A98007B41EA004175
:102610000A98C07A41EA00210A98807A0143099118
:102620000998FFF7BAFCB0F5FA7F02DA2549099854
:1026300048600A98407C01060A98007C41EA004103
:102640000A98C07B41EA00210A98807B01430991E6
:102650000998FFF7A2FCB0F5FA7F02DA1949099848
:1026600088600A98407D01060A98007D41EA004191
:102670000A98C07C41EA00210A98807C01430991B4
:102680000998FFF78AFCB0F5FA7F02DA0D4909983C
:10269000C86068E12B0000002D000000256C64007C
:1026A000A0860100300000003030000030303000E3
:1026B000303030300000000060000020D43B0020AB
:1026C00078020020680200200A988079FD4988700D
:1026D0000A98C179007A41EA0021FA48018042E172
:1026E0000A988079F84908700A98C079F749087003
:1026F0000A98017AF64801700A98407AF5490870FC
:1027000031E10A98407A01060A98007A41EA0041CC
:102710000A98C07941EA00210A988079084301901B
:102720000DF0DDF90022EC4BCDE902010DF05AF974
:10273000CDE904010DF060FA079007980DF0E0F97B
:102740000290FFF72AFC03900DF0C9F90022E34B39
:10275000CDE904010DF020FA02D2E14907980860A2
:102760000A98407B01060A98007B41EA00410A98DA
:10277000C07A41EA00210A98807A084301900DF05E
:10278000AEF90022D44BCDE902010DF02BF9CDE9D1
:1027900004010DF031FA079007980DF0B1F902909D
:1027A000FFF7FBFB03900DF09AF90022CB4BCDE92C
:1027B00004010DF0F1F902D2C949079848600A985E
:1027C000407C01060A98007C41EA00410A98C07BDF
:1027D00041EA00210A98807B084301900DF07FF9BF
:1027E0000022BD4BCDE902010DF0FCF8CDE904015A
:1027F0000DF002FA079007980DF082F90290FFF7AA
:10280000CCFB03900DF06BF90022B44BCDE9040131
:102810000DF0C2F902D2B24907988860A3E00A9885
:10282000407A01060A98007A41EA00410A98C07984
:1028300041EA00210A988079084309900998FFF736
:10284000ACFBB0F5FA5F02DAA649099808600A986D
:10285000407B01060A98007B41EA00410A98C07A51
:1028600041EA00210A98807A014309910998FFF70B
:1028700094FBB0F5FA5F02DA9A49099848600A9821
:10288000407C01060A98007C41EA00410A98C07B1E
:1028900041EA00210A98807B014309910998FFF7DA
:1028A0007CFBB0F5FA5F02DA8E49099888605AE03D
:1028B0000A9880798C4948700A98807A01060A98AB
:1028C000407A41EA00410A98007A41EA00210A98D8
:1028D000C079084309900998FFF75FFBB0F57A7F4C
:1028E00002DA8149099848600A98C07A7F4948709D
:1028F0000A98C07B01060A98807B41EA00410A9849
:10290000407B41EA00210A98007B01430991099824
:10291000FFF743FBB0F57A7F02DA74490998486003
:1029200021E00A98C079724981F848000A98007A33
:102930000890084601780898814206DD089800282A
:1029400003DB6B49089881F849000A98407A684986
:1029500081F84A000A98807A81F84B000A98C07A78
:1029600081F84C0000BF00BF614890F849100698FC
:10297000814205D04FF480715E48006802F06FFC20
:102980000A98807803287DD10A9840780328FAD1E4
:10299000594890F8490006900A9800790128F2D128
:1029A0000A984079A5286ED00EDCA2286CD006DCEF
:1029B00002286AD0312869D0A12868D111E0A32863
:1029C00066D0A428F9D1DFE1B22878D004DCA628AB
:1029D00076D0B128F1D1B9E3B32872D0B428ECD1C4
:1029E000FEE30A98407A01060A98007A41EA00411B
:1029F0000A98C07941EA00210A9880790843019039
:102A00000DF06DF80022344BCDE902010CF0EAFF25
:102A1000CDE904010DF0F0F8079007980DF070F87B
:102A20000290FFF7BAFA03900DF059F80022334BE9
:102A3000CDE904010DF0B0F821D2314800680390CF
:102A40000DF096F800222F4BCDE904010DF0BCF8F3
:102A500006D207980DF054F80590FFF79EFA58B982
:102A60002748006803900DF083F80022254BCDE93C
:102A700004010DF091F802D82149079808600A98DE
:102A8000407B06E0FEE311E2D4E0FCE3FCE30CE271
:102A90006CE101060A98007B41EA00410A98C07A7D
:102AA00041EA00210A98807A084301900DF017F856
:102AB0000022094BCDE902010CF094FF24E0E7E28B
:102AC00018E2FDE3AC000020B0000020B1000020BF
:102AD000B2000020B30000200000594000388F40B1
:102AE000940200208802002078000020800000204E
:102AF000D43B002064000020243C002000407F40A4
:102B0000A002002000001440CDE904010DF074F88B
:102B1000079007980CF0F4FF0290FFF73EFA03903D
:102B20000CF0DDFF0022FE4BCDE904010DF034F87E
:102B300021D2FC48406803900DF01AF80022FA4BAD
:102B4000CDE904010DF040F806D207980CF0D8FF4B
:102B50000590FFF722FA58B9F248406803900DF04B
:102B600007F80022F04BCDE904010DF015F802D86A
:102B7000EC49079848600A98407C01060A98007C56
:102B800041EA00410A98C07B41EA00210A98807B13
:102B9000084301900CF0A3FF0022E44BCDE90201B1
:102BA0000CF020FFCDE904010DF026F807900798FE
:102BB0000CF0A6FF0290FFF7F0F903900CF08FFFE6
:102BC0000022DB4BCDE904010CF0E6FF02D2D5492F
:102BD000079888600A98407D01060A98807A41EA41
:102BE00000410A98C07C41EA00210A98807C084391
:102BF00001900CF074FF0022CC4BCDE902010CF0E7
:102C0000F1FECDE904010CF0F7FF079007980CF0F6
:102C100077FF0290FFF7C1F903900CF060FF0022EC
:102C2000C34BCDE904010CF0B7FF02D2BD490798B0
:102C3000C8603AE10A98407A01060A98007A41EAA7
:102C400000410A98C07941EA00210A988079084336
:102C500001900CF044FF0022B44BCDE902010CF0CE
:102C6000C1FECDE904010CF0C7FF079007980CF0F6
:102C700047FF0290FFF791F903900CF030FF00221C
:102C8000AB4BCDE904010CF087FF02D2A5490798B0
:102C900008610A98407B01060A98007B41EA0041DE
:102CA0000A98C07A41EA00210A98807A0843019084
:102CB0000CF015FF00229D4BCDE902010CF092FEB5
:102CC000CDE904010CF098FF079007980CF018FF6D
:102CD0000290FFF762F903900CF001FF0022944B81
:102CE000CDE904010CF058FF02D28E4907984861E3
:102CF0000A98407C01060A98007C41EA00410A9843
:102D0000C07B41EA00210A98807B084301900CF0C7
:102D1000E6FE0022854BCDE902010CF063FECDE911
:102D200004010CF069FF079007980CF0E9FE02908F
:102D3000FFF733F903900CF0D2FE00227C4BCDE973
:102D400004010CF029FF02D27649079888610A989D
:102D5000817CC07C41EA0020724988830A98017D09
:102D6000407D41EA00206F49C88395E30A98807945
:102D70006C4981F820000A98C07981F821000A98EE
:102D8000007A81F8220087E30A98407A01060A98BF
:102D9000007A41EA00410A98C07941EA00210A9884
:102DA0008079084301900CF09AFE00225F4BCDE938
:102DB00002010CF017FECDE904010CF01DFF079095
:102DC00007980CF09DFE0290FFF7E7F803900CF0D7
:102DD00086FE0022574BCDE904010CF0DDFE02D245
:102DE0005549079808600A98407B01060A98007BBD
:102DF00041EA00410A98C07A41EA00210A98807AA3
:102E0000084301900CF06BFE0022484BCDE9020113
:102E10000CF0E8FDCDE904010CF0EEFE07900798F8
:102E20000CF06EFE0290FFF7B8F803900CF057FE1E
:102E30000022404BCDE904010CF0AEFE02D23E4927
:102E4000079848600A98407C01060A98007C41EA8D
:102E500000410A98C07B41EA00210A98807B084320
:102E600001900CF03CFE0022304BCDE902010CF049
:102E7000B9FDCDE904010CF0BFFE079007980CF0F6
:102E80003FFE0290FFF789F803900CF028FE002225
:102E9000284BCDE904010CF07FFE02D226490798A9
:102EA00088600A98807C24490873F5E20A98817941
:102EB000C07941EA0020214908800A98017A407AC5
:102EC00041EA00201D4948800A98817AC07A41EA87
:102ED00000201A4988800A98017B407B41EA002043
:102EE0001649C8800A98807B08720A98C17B1348EB
:102EF0004172D1E20A98407A01060A98007A41EAC2
:102F000000410A98C07941EA00210A988079084373
:102F100001900CF0E4FD0022044BCDE902010FE02A
:102F200000407F40A00200200000144000005940F3
:102F300000408F408087C340C4020020D40200209C
:102F40000CF050FDCDE904010CF056FE07900798F7
:102F50000CF0D6FD0290FFF720F803900CF0BFFDB7
:102F60000022FE4BCDE904010CF016FE02D2FC4912
:102F7000079848600A98407B01060A98007B41EA5E
:102F800000410A98C07A41EA00210A98807A0843F1
:102F900001900CF0A4FD0022F24BCDE902010CF0EF
:102FA00021FDCDE904010CF027FE079007980CF0F5
:102FB000A7FD0290FEF7F1FF03900CF090FD0022B8
:102FC000E94BCDE904010CF0E7FD02D2E449079892
:102FD000C8600A98407C01060A98007C41EA0041DA
:102FE0000A98C07B41EA00210A98807B084301903F
:102FF0000CF075FD0022DB4BCDE902010CF0F2FC78
:10300000CDE904010CF0F8FD079007980CF078FD6D
:103010000290FEF7C2FF03900CF061FD0022D24B3C
:10302000CDE904010CF0B8FD02D2CD490798086043
:103030000A98407D01060A98007D41EA00410A98FD
:10304000C07C41EA00210A98807C084301900CF082
:1030500046FD0022C34BCDE902010CF0C3FCCDE9D3
:1030600004010CF0C9FD079007980CF049FD02908F
:10307000FEF793FF03900CF032FD0022BA4BCDE92E
:1030800004010CF089FD02D2B5490798886003E27B
:103090000A98407A01060A98007A41EA00410A98A3
:1030A000C07941EA00210A98807901430991099881
:1030B000FEF773FF462802DAAC49099808600A98BF
:1030C000407B01060A98007B41EA00410A98C07AD9
:1030D00041EA00210A98807A014309910998FEF794
:1030E0005CFF462802DAA149099848600A98407CAA
:1030F00001060A98007C41EA00410A98C07B41EA37
:1031000000210A98807B014309910998FEF745FF49
:10311000192802DA9549099888600A98407D0106C5
:103120000A98007D41EA00410A98C07C41EA0021EA
:103130000A98807C014309910998FEF72EFFB0F5AB
:10314000FA5F02DA894909984884A5E10A98407A29
:1031500001060A98007A41EA00410A98C07941EADA
:1031600000210A988079014309910998FEF715FF1B
:10317000212802DA7D49099808610A98407B0106F6
:103180000A98007B41EA00410A98C07A41EA00218E
:103190000A98807A014309910998FEF7FEFE0828F3
:1031A00002DA72490998C8600A98407C01060A98B8
:1031B000007C41EA00410A98C07B41EA00210A985C
:1031C000807B014309910998FEF7E7FE0D2802DA9A
:1031D0006649099848610A98407D01060A9800E00E
:1031E00014E0007D41EA00410A98C07C41EA0021D8
:1031F0000A98807C014309910998FEF7CEFEB0F54C
:10320000FA5F02DA59490998886145E10A98407ADB
:1032100001060A98007A41EA00410A98C07941EA19
:1032200000210A988079014309910998FEF7B5FEBB
:10323000462802DA4E49099808600A98407B010640
:103240000A98007B41EA00410A98C07A41EA0021CD
:103250000A98807A014309910998FEF79EFE462854
:1032600002DA4349099848600A98407C01060A98A6
:10327000007C41EA00410A98C07B41EA00210A989B
:10328000807B02E015E190E0E4E0014309910998B8
:10329000FEF783FE192802DA3549099888600A98F2
:1032A000407D01060A98007D41EA00410A98C07CF1
:1032B00041EA00210A98807C01430991099800E0C5
:1032C00008E0FEF76AFEB0F5FA5F02DA28490998CD
:1032D0004884E1E00A98407A01060A98007A41EAB7
:1032E00000410A98C07941EA00210A988079014397
:1032F00009910998FEF751FE212802DA1C49099824
:1033000008610A98407B01060A98007B41EA004167
:103310000A98C07A41EA00210A98807A014309910B
:103320000998FEF73AFE082802DA11490998C860A0
:103330000A98407C01060A98007C41EA00410A98FC
:10334000C07B41EA00210A98807B014309910998DA
:10335000FEF723FE0D280FDA05490BE00088B34085
:10336000E00200200000594000408F40F0020020A1
:1033700014030020099848610A98407D01060A98C4
:10338000007D41EA00410A98C07C41EA00210A9888
:10339000807C014309910998FEF7FFFDB0F5FA5FC3
:1033A00002DA45490998886176E00A9880794349AC
:1033B00048700A98807A01060A98407A41EA0041EA
:1033C0000A98007A41EA00210A98C07901430991DC
:1033D0000998FEF7E2FDB0F57A7F02DA37490998DD
:1033E00048600A98C07A364948700A98C07B01063E
:1033F0000A98807B41EA00410A98407B41EA00211B
:103400000A98007B014309910998FEF7C6FDB0F5C3
:103410007A7F02DA2A49099848600A98007C29498B
:1034200048700A98007D01060A98C07C41EA004174
:103430000A98807C41EA00210A98407C0143099166
:103440000998FEF7AAFDB0F57A7F02DA1D490998BE
:10345000486021E00A98C0791B4981F848000A9821
:10346000007A0890084601780898814206DB08989F
:10347000002803DB1449089881F849000A98407A2B
:10348000114981F84A000A98807A81F84B000A981D
:10349000C07A81F84C0000BF00BF0B4890F849107B
:1034A0000698814205D04FF480710848006801F009
:1034B000D6FE0BB000BD00001403002088000020E1
:1034C0009000002098000020243C00206400002090
:1034D00001201749087002204870642048601120BC
:1034E0001449087002204870642048600120124985
:1034F0000870022048706420486002200F4908705C
:1035000048706420486011200D49087002204870FE
:103510006420486001200B49487088700020C87002
:10352000087148710870704710B5FFF7D1FF10BDE2
:1035300078000020800000208800002090000020FB
:1035400098000020A00000201949096841F080710E
:10355000174A11601749096841F00101154A1160C5
:1035600015490860704770B504461248456812480E
:10357000006810B91148FFF7E7FF0F4800681049CD
:1035800090FBF1F000FB04F6AB19AB4205DD00BF88
:10359000084840689842FBD309E000BF05484068EE
:1035A0009842FBD200BF034840689842FBD370BDED
:1035B000FCED00E0001000E0CC00002000A24A0476
:1035C00040420F0038B5044601212069FEF722F978
:1035D000208B80B2ADF8000010208DF8030003208E
:1035E0008DF8020069466069FDF758FE38BD10B5D8
:1035F0001B48FFF7E7FF1B48FFF7E4FF1A48FFF7F8
:10360000E1FF174A128B91B2154A5069FDF7F5FE9A
:10361000144A128B91B2134A5069FDF7EEFE124A1A
:10362000128B91B2104A5069FDF7E7FE10BD19B92F
:10363000D0E90523136112E0002903DAD0E905235C
:1036400053610CE08268521C82608A4207DB426947
:10365000D26883695A404369DA6000228260704709
:10366000D0000020EC0000200801002010B54FF42D
:103670004070FCF787FE0748FFF766FFFFF7B7FFCC
:1036800000F01CF800F0B6FF01F0B5F9052001F0DC
:1036900045FA10BD00A24A0438B504460121A068CD
:1036A000FEF7B8F8208A80B2ADF8000028208DF827
:1036B00003006946E068FDF7F1FD38BD10B53948F3
:1036C000FFF7EAFF3848FFF7E7FF3848FFF7E4FF66
:1036D0003748FFF7E1FF3748FFF7DEFF3648FFF7CF
:1036E000DBFF3648FFF7D8FF3548FFF7D5FF10BDA1
:1036F00010B50446A088401CA080607820B1012845
:1037000012D002284BD120E0228A91B2E068FDF766
:1037100058FE30B9012060700020A080A071A07018
:1037200001E00020A0803BE0228A91B2E068FDF732
:1037300048FE10B90220607006E000206070214948
:103740000870A070A080A0712AE0228A91B2E0687F
:10375000FDF737FE012813D1A088322807DA207838
:10376000184908700120A0700020E07103E00020DB
:1037700014490870A07000206070A080A0710DE056
:10378000A088322803DD0220A0700120E071A0880B
:1037900041F28831884201DD0846A08000E000BF88
:1037A00000BF10BD44010020580100206C01002022
:1037B0008001002094010020A8010020BC0100200D
:1037C000D00100204001002038B504460E208DF8BD
:1037D000000006208DF8010000208DF80200012075
:1037E0008DF803006846FCF7D2FD25208DF8000017
:1037F0008DF8014000208DF8020001208DF80300B3
:103800006846FCF7C4FD38BD00B58BB00121084601
:10381000FDF7F3FF0021CB48FDF717F9C948FDF785
:1038200047F8C9480090C948019010200290322002
:1038300003900020049080200590002006900790BF
:1038400008904FF44050099000200A906946BD4806
:10385000FDF7D0F84FF48050FDF726F90021B94864
:10386000FDF7F3F801220221B648FDF7FAF800212E
:10387000B4481430FDF7E9F8B2481430FDF718F8F1
:10388000B1480090B248019000200290322003908D
:10389000002004908020059000200690079008905A
:1038A0004FF44050099000200A906946A548143012
:1038B000FDF7A0F84FF48030FDF7F6F80121A1489C
:1038C0001430FDF7C2F80BB000BD10B586B0044649
:1038D00001210420FDF79EFF01218803FDF79AFFD7
:1038E0004FF40070ADF8140018208DF81700032075
:1038F0008DF8160005A99748FDF7D0FC4FF48060BD
:10390000ADF8140004208DF8170005A99148FDF7C3
:10391000C5FC2046FFF758FFFFF776FF4FF4E13074
:1039200001900020ADF80800ADF80A00ADF80C00D9
:10393000ADF810000C20ADF80E0001A98248001F60
:10394000FEF70FF8012240F224417F48001FFEF7E6
:10395000A0F801217C48001FFEF78FF8012280218A
:103960007948001FFEF7BAF8012240217648001F6F
:10397000FEF7B4F806B010BD10B504460120764934
:10398000087070484438846401216E48FDF75DF882
:1039900010BD10B54FF48050FDF791F850B10020E4
:1039A0006D4908704FF48050FDF77EF8002165489E
:1039B000FDF74BF810BD08B50020009040F22441FF
:1039C0006148001FFEF74AF9B8B340F224415E484F
:1039D000001FFEF76DF95C48001FFEF7BFF81021CD
:1039E0005948001FFEF731F9002156481430FDF701
:1039F0002CF84FF48030FDF757F852481430FDF79B
:103A00003BF8C0F132005549087032204D49443925
:103A1000C86500236A464E495148006801F08DFF91
:103A20004B48484944394866012146481430FDF75F
:103A30000CF84548001FFEF791F8009818B14FF0B8
:103A400080504849086008BD70B505460C46002CFA
:103A500003DA28460BF01CFE04B200BF3E48007893
:103A60000028FBD13949214448702246294637486D
:103A70000BF0EAFDA0B2FFF77FFF70BD70B5044602
:103A80000D4629462046FEF765F800BF80212046F6
:103A9000FEF7CEF80028F9D070BD70B506460C468A
:103AA000002500BF615D3046FFF7E8FF6D1C605DDB
:103AB0000028F7D100BF40213046FEF7B9F80028B2
:103AC000F9D070BD2DE9F04105460C46260AE7B253
:103AD00031462846FEF73EF800BF80212846FEF713
:103AE000A7F80028F9D039462846FEF733F800BF7A
:103AF00080212846FEF79CF80028F9D0BDE8F08127
:103B000070B504460D46E1B20F48001FFEF722F8DB
:103B100000BF80210C48001FFEF78AF80028F8D06B
:103B2000204670BD10B5044600BF20210648001F86
:103B3000FEF77EF80028F8D00348001FFEF70EF8C5
:103B400010BD00004400024004380140380300204A
:103B50006A03002000080140E4010020E501002084
:103B60005800002004ED00E070B504460E462EB16A
:103B70004FF40041FB48FDF73EFC04E04FF40041E8
:103B8000F848FDF73AFC00251BE04FF48051F5485A
:103B9000FDF733FC04F0800028B14FF40051F148E8
:103BA000FDF729FC04E04FF40051EE48FDF725FC39
:103BB0004FF48051EB48FDF71EFC6006040E681CB4
:103BC000C5B2082DE1DB4FF40041E648FDF713FCD8
:103BD00070BD70B504460D4605F1B001C8B20021B4
:103BE000FFF7C2FFA11CC1F3031141F01000002137
:103BF000FFF7BAFFA11C01F00F000021FFF7B4FF8F
:103C000070BDF0B5144600267F2801DC3F2900DD99
:103C1000F0BD0B46CF1701EB5777FF10C7F1070731
:103C2000FAB2CF1701EB5777FF10A1EBC707FDB230
:103C3000C5F107070123BB40DEB24CB1CA4B03EB11
:103C4000C0039B5C3343C84F07EBC007BB5408E07D
:103C5000C54B03EBC0039B5CB343C34F07EBC007EB
:103C6000BB5400BFD4E770B502460025C1F13F0048
:103C7000C1B20846CE1701EB5676F310CE1701EB12
:103C80005676F610A1EBC606F4B20120A040C5B2EC
:103C9000B54800EBC200C05C284008B1012070BDEF
:103CA0000020FCE710B500218D20FFF75DFF00210B
:103CB0001420FFF759FF0021AF20FFF755FF10BD7B
:103CC00010B500218D20FFF74FFF00211020FFF7D6
:103CD0004BFF0021AE20FFF747FF10BD70B5002459
:103CE0001CE004F1B001C8B20021FFF73DFF002144
:103CF0000220FFF739FF00211020FFF735FF0025D4
:103D000008E0994901EBC501085D0121FFF72CFF8F
:103D1000681CC5B2802DF4DB601CC4B2082CE0DB4B
:103D200070BD70B500240CE0002506E000208E492F
:103D300001EBC5010855681CC5B2802DF6DB601C7F
:103D4000C4B2082CF0DBFFF7C9FF70BD70B50024CA
:103D50000CE0002506E0FF20834901EBC501085572
:103D6000681CC5B2802DF6DB601CC4B2082CF0DBE9
:103D7000FFF7B4FF70BD2DE9F04706460F469046A9
:103D80009946DDF820A034460CE03D4606E0524658
:103D900029462046FFF735FF681CC5B24D45F6DDC4
:103DA000601CC4B24445F0DDBDE8F0872DE9FF4F4B
:103DB00082B007460C46904600250026A94600978B
:103DC000A3460598012802D0022852D152E0B8F14A
:103DD000000F4ED0A8F12000C5B264480078012839
:103DE00004D1002D02DB6149087002E000205F4928
:103DF00008707E2F02DD0027601CC4B2002636E06A
:103E000005EB45005A4901EB400010F806A04FF0C1
:103E1000000926E00AF0800058B15448007808B93B
:103E2000012000E00020024621463846FFF7E9FE67
:103E300005E04E48027821463846FFF7E2FE4FEA99
:103E40004A604FEA106A601CC4B2A4EB0B00082859
:103E500003D15C46781CC7B206E009F1010000F00E
:103E6000FF09B9F1080FD5DB00BF701CC6B2062EE2
:103E7000C6DB73E0B8F1000F6FD0A8F12000C5B227
:103E80003A480078012804D1002D02DB3749087038
:103E900002E0002035490870782F02DD0027601C01
:103EA000C4B2002657E006EB0510324911F800A015
:103EB00006EB05100830085C01904FF0000944E063
:103EC0000AF0800058B12948007808B9012000E0C4
:103ED0000020024621463846FFF793FE05E02348BE
:103EE000027821463846FFF78CFE019800F08000EA
:103EF00068B11E48007808B9012000E000200246A1
:103F0000A4F10800C1B23846FFF77BFE07E0A4F138
:103F10000800C1B2154802783846FFF772FE4FEA32
:103F20004A604FEA106A01984006000E0190601C3A
:103F3000C4B2A4EB0B00082803D15C46781CC7B2BE
:103F400006E009F1010000F0FF09B9F1080FB7DB45
:103F500000BF701CC6B2082EA5DB00BF00BF06B0B4
:103F6000BDE8F08F000C01409C030020E701002019
:103F7000DC050108040801082DE9F04107460E465A
:103F80009046002500244546FE480078012804D1CB
:103F9000002D02DBFB49087002E00020F94908709F
:103FA000782F02DD0027701CC6B231463846FFF775
:103FB00010FE002408E004EB8511F34A505C012157
:103FC000FFF7D2FD601CC4B2082CF4DB07F1080136
:103FD000C8B23146FFF7FDFD002409E004EB85116E
:103FE0000831E94A505C0121FFF7BEFD601CC4B2F4
:103FF000082CF3DB701CC1B23846FFF7EAFD002441
:1040000009E004EB85111031DF4A505C0121FFF714
:10401000ABFD601CC4B2082CF3DB721CD1B207F1FB
:104020000802D0B2FFF7D5FD002409E004EB8511AA
:104030001831D54A505C0121FFF796FD601CC4B2CF
:10404000082CF3DBB01CC1B23846FFF7C2FD0024D8
:1040500009E004EB85112031CB4A505C0121FFF7C8
:1040600083FD601CC4B2082CF3DBB21CD1B207F193
:104070000802D0B2FFF7ADFD002409E004EB851182
:104080002831C14A505C0121FFF76EFD601CC4B2AB
:10409000082CF3DBF01CC1B23846FFF79AFD002470
:1040A00009E004EB85113031B74A505C0121FFF77C
:1040B0005BFD601CC4B2082CF3DBF21CD1B207F12B
:1040C0000802D0B2FFF785FD002409E004EB85115A
:1040D0003831AD4A505C0121FFF746FD601CC4B287
:1040E000082CF3DBBDE8F08110B50246012000E0AA
:1040F00050430B00A1F10104E1B2F9D110BD2DE94B
:10410000FF4F87B0064692461F46DDE91494D3461A
:1041100000200490002150460BF08AFD16D2234661
:104120002D2230460899FFF741FE012C05D104EB02
:10413000440006EB4000C6B202E006EB8400C6B2C3
:10414000781EC7B28AF0004A8BF0004B50460BF045
:10415000D7FC069000254DE0781B401EC1B20A2016
:10416000FFF7C2FF0699B1FBF0F00A21B0FBF1F2B4
:1041700001FB12080498F8B9781EA8421CDDB8F1BA
:10418000000F17D1012C0BD104EB4401490001FBB6
:104190000561C8B2234620220899FFF707FE08E010
:1041A000A10001FB0561C8B2234620220899FFF750
:1041B000FDFD1DE001200490012C0DD108F130011E
:1041C000CAB204EB4401490001FB0561C8B22346B1
:1041D0000899FFF7EBFD0AE008F13001CAB2A1002F
:1041E00001FB0561C8B223460899FFF7DFFD00BF58
:1041F000681CC5B2BD42AFDBB9F1000F71D0012C14
:104200000BD104EB4401490007FB0161C8B223460E
:104210002E220899FFF7CAFD08E0A10007FB016103
:10422000C8B223462E220899FFF7C0FD58460BF06E
:104230009FFC564A564BCDE900010BF0BAFACDE986
:1042400002010BF0D9FC834649460A20FFF74CFFD8
:1042500000900BF03FFC029006980BF03BFC594697
:1042600000900BF071FA019002990BF070FA039034
:104270000BF046FC0590002551E0A9EB0500401E1F
:10428000C1B20A20FFF730FF0599B1FBF0F00A2117
:10429000B0FBF1F201FB12084D453EDAB8F1000F18
:1042A00020D0012C0FD104EB44014B00E919491C2B
:1042B00003FB0161C8B208F13001CAB22346089974
:1042C000FFF774FD29E0A300E919491C03FB016114
:1042D000C8B208F13001CAB223460899FFF766FD5B
:1042E0001BE01EE0012C0DD104EB44014A00E9194A
:1042F000491C02FB0161C8B2234630220899FFF72E
:1043000055FD0AE0A200E919491C02FB0161C8B28F
:10431000234630220899FFF749FD681CC5B24D4578
:10432000ABDB0BB0BDE8F08F2DE9F04706468946C0
:1043300017461D464FF0000A002F0ADA0B224946A5
:104340003046FFF719FE06F11000C6B2681EC5B26E
:104350007F42002435E0281B401EC1B20A20FFF72F
:10436000C3FEB7FBF0F00A21B0FBF1F201FB12082B
:10437000BAF1000F19D1681EA04216DDB8F1000F86
:1043800011D107E0E7010020F40D0108F168E3888E
:10439000B5F8E43E102101FB0461C8B20D22494684
:1043A000FFF7EAFD0BE04FF0010A08F0FF021021D1
:1043B00001FB0461C8B24946FFF7DEFD00BF601C87
:1043C000C4B2AC42C7DBBDE8F0872DE9F04104463A
:1043D0000F4615469846002615E0AA5D4346394625
:1043E0002046FFF7E3FCB8F1020F03D104F1080007
:1043F000C4B201E0A01DC4B27A2C02DD0024B81CB6
:10440000C7B2701CC6B2A85D0028E6D1BDE8F08135
:104410002DE9F84F06460C4617460025A84600969B
:10442000A34600BF57E07800401CE54901EB40106F
:1044300010F8059001EB871010F805A04FF0000868
:1044400043E009F0800058B1DE48007808B9012047
:1044500000E00020024621463046FFF7D2FB05E08F
:10446000D848027821463046FFF7CBFB0AF080009F
:1044700068B1D448007808B9012000E00020024665
:1044800004F10800C1B23046FFF7BBFB07E004F1BE
:104490000800C1B2CB4802783046FFF7B2FB4FEAC2
:1044A00049604FEA10694FEA4A604FEA106A601C9F
:1044B000C4B2A4EB0B00082803D15C46701CC6B242
:1044C00006E008F1010000F0FF08B8F1080FB8DBC2
:1044D00000BF681CC5B2102DA5DBBDE8F88F2DE923
:1044E000FF4F85B081460E461F46129C03960297E9
:1044F00009EB0700802803DDC7F18000C0B20290FD
:1045000025463019402802DDC4F14000C5B22046DE
:10451000E21704EB5272D2102146E31704EB5373F7
:10452000DB10A4EBC3030BB1012300E000231A440A
:10453000D2B201922846EA1705EB5272D2102946F0
:10454000EB1705EB5373DB10A5EBC3030BB1012392
:1045500000E000231A44D2B200924FF0000843E07A
:104560004FF0000A39E0019808FB00A1079810F805
:1045700001B00020049028E00BF0800058B1914871
:10458000007808B9012000E0002002463146484684
:10459000FFF737FB05E08B48027831464846FFF7C6
:1045A00030FB4FEA4B604FEA106B701CC6B20398A9
:1045B000301AA84205D1039E09F1010000F0FF095D
:1045C00006E00498401CC0B2049004980828D3DB8D
:1045D00000BF0AF1010000F0FF0A00988245C2DB2B
:1045E00008F1010000F0FF0802988045B8DB09B02F
:1045F000BDE8F08F1FB501210820FDF70BF94FF43E
:104600000040ADF8080010208DF80B0003208DF855
:104610000A0002A96C48FCF741FE01210820FDF7C1
:10462000F9F84FF48040ADF8040010208DF8070031
:1046300003208DF8060001A96348FCF72FFE012135
:104640000820FDF7E7F84FF48050ADF80C0010207B
:104650008DF80F0003208DF80E0003A95A48FCF7CF
:104660001DFE01210820FDF7D5F84FF40050ADF8EC
:10467000000010208DF8030003208DF80200694629
:104680005148FCF70BFE4FF480514F48FCF7B3FE46
:104690004FF400514C48FCF7AEFE4FF400414A483D
:1046A000FCF7A9FE4FF480414748FCF7A4FE4FF405
:1046B00080414548FCF7A1FE4448FEF754FF4FF403
:1046C00080414148FCF797FE0021AE20FFF74CFAED
:1046D00000210220FFF748FA00211020FFF744FADA
:1046E00000214020FFF740FA00218120FFF73CFA2B
:1046F0000021CF20FFF738FA0021A120FFF734FA7C
:104700000021C820FFF730FA0021A620FFF72CFA7D
:104710000021A820FFF728FA00213F20FFF724FA04
:104720000021D320FFF720FA00210846FFF71CFAEA
:104730000021D520FFF718FA00218020FFF714FA96
:104740000021D920FFF710FA0021F120FFF70CFA21
:104750000021DA20FFF708FA00211220FFF704FAFF
:104760000021DB20FFF700FA00214020FFF7FCF9D1
:1047700000212020FFF7F8F900210220FFF7F4F9CB
:1047800000218D20FFF7F0F900211420FFF7ECF94C
:104790000021A420FFF7E8F90021A620FFF7E4F9A3
:1047A0000021AF20FFF7E0F90021AF20FFF7DCF98F
:1047B000FFF7B7FA00210846FFF70BFA1FBD00000C
:1047C00074110108E7010020000C0140A0860100DF
:1047D00070B586B0064600250024142101A80AF011
:1047E0004CFF14E000240EE001A850F8240005213D
:1047F00001FB0541844A32F81110084401A941F82F
:104800002400601CC4B2052CEEDB681C85B20A2DA6
:10481000E8DB002409E001A850F824000A21B0FBDD
:10482000F1F026F81400601CC4B2052CF3DB06B0CE
:1048300070BD10B501460022002008E0052303FBEF
:104840000013714C34F813301A44431CD8B20A28B0
:10485000F4DB0A20B2FBF0F080B210BD08B50121F4
:104860000C20FCF7D7FF0120ADF8000000208DF8E8
:10487000030069466548FCF711FD0220ADF8000011
:1048800000208DF8030069466048FCF707FD012011
:10489000ADF8000000208DF8030069465C48FCF785
:1048A000FDFC0220ADF8000000208DF803006946F1
:1048B0005748FCF7F3FC0420ADF8000000208DF809
:1048C000030069465148FCF7E9FC08BD00B58BB010
:1048D00001210846FCF791FF4E48FBF7E9FF4E48DF
:1048E000009049480190002002903220039000205F
:1048F00004908020059040000690800007902020C2
:1049000008900002099000200A9069464148FCF78F
:1049100071F801213F48FCF798F80BB000BD00B5D5
:1049200085B001214802FCF775FF3B484C38FBF786
:1049300097FD0020009001208DF804008DF80500FF
:104940004FF4602002900020039005208DF81000A5
:10495000694631484C38FBF7AAFD01212E484C38F6
:10496000FBF7D1FD01212C484C38FBF7D7FD4FF464
:104970000040FCF7B3FE07230122022126484C38F1
:10498000FBF72DFE07230222002123484C38FBF7BA
:1049900026FE0723032201211F484C38FBF71FFE88
:1049A0000723042208211C484C38FBF718FE072374
:1049B0000522092118484C38FBF711FE16484C38DF
:1049C000FBF7C3FD00BF14484C38FBF7C3FD0028BC
:1049D000F9D111484C38FBF7C7FD00BF0E484C38E1
:1049E000FBF7C7FD0028F9D101210B484C38FBF734
:1049F000CAFD05B000BD10B5FFF730FFFFF766FF39
:104A0000FFF78DFF10BD00009C070020000801404B
:104A1000000C0140080002404C24014038B5044617
:104A20000C208DF8000006208DF8010000208DF884
:104A3000020001208DF803006846FBF7A8FC272040
:104A40008DF800008DF8014000208DF80200012053
:104A50008DF803006846FBF79AFC38BD00B58BB0B3
:104A600001210846FCF7C9FE00219A48FBF7EDFF3B
:104A70009848FBF71DFF9848009098480190102037
:104A800002903220039000200490802005900020A6
:104A90000690079008904FF44050099000200A902B
:104AA00069468C48FBF7A6FF1020FBF7FDFF0021AD
:104AB0008848FBF7CAFF012202218648FBF7D1FF95
:104AC000002184481430FBF7C0FF82481430FBF704
:104AD000EFFE814800908248019000200290322031
:104AE00003900020049080200590002006900790FD
:104AF00008904FF44050099000200A90694675488C
:104B00001430FBF777FF4FF48070FBF7CDFF0121E6
:104B100070481430FBF799FF0BB000BD10B586B09C
:104B2000044601210820FCF775FE01218804FCF7EA
:104B30007EFE4FF48060ADF8140018208DF8170049
:104B400003208DF8160005A96648FCF7A7FB4FF473
:104B50000060ADF8140004208DF8170005A9614825
:104B6000FCF79CFB2046FFF759FFFFF777FF4FF458
:104B7000E13001900020ADF80800ADF80A00ADF872
:104B80000C00ADF810000C20ADF80E0001A9524841
:104B9000001FFCF7E6FE012240F224414E48001FB0
:104BA000FCF777FF01214C48001FFCF766FF01224C
:104BB00080214948001FFCF791FF0122402146480F
:104BC000001FFCF78BFF06B010BD10B50446012096
:104BD000454908703F481C38046201213D48FBF7F5
:104BE00034FF10BD10B51020FBF769FF48B100205D
:104BF0003D4908701020FBF757FF00213548FBF7AF
:104C000024FF10BD08B50020009040F22441324836
:104C1000001FFDF723F8D8B340F224412E48001FAF
:104C2000FDF746F82C48001FFCF798FF10212A4892
:104C3000001FFDF70AF8002126481430FBF705FF96
:104C40004FF48070FBF730FF22481430FBF714FF5D
:104C5000C0F132002549087032201E491C394863D2
:104C600000236A461E492248006800F066FE322191
:104C70001B480AF002FD1A4816491C39C863012175
:104C800014481430FBF7E1FE1348001FFCF766FFE1
:104C9000009818B14FF080501649086008BD70B5F3
:104CA00005460C46002C03DA28460AF0F1FC04B253
:104CB00000BF0D4800780028FBD12246294607484E
:104CC0000AF0C2FC0020054921444870A0B2FFF759
:104CD0007CFF70BD1C00024004480040000800201A
:104CE00032080020000C0140E8010020E90100200A
:104CF0005C00002004ED00E02DE9F04105460E4681
:104D00004FF0006000EB8527FBF7A9FF3520FCF78B
:104D100041FA00240AE007EB8420FBF7E5FF0428B2
:104D200002D00020BDE8F081601CC4B2B442F2DBC6
:104D3000FBF7A1FF0120F5E72DE9F04107460D46FD
:104D400016464FF00008FBF78AFF3520FCF722FAE1
:104D5000002411E0285D2919497800EB01201FFA91
:104D600080F838194146FCF7C2F8042802D02046E2
:104D7000BDE8F081A01C84B2B442EBD3FBF77BFF0B
:104D80003046F5E770B504460D46164632462146D4
:104D900028460AF059FC304670BD2DE9F04705461B
:104DA0000E46174698464FF0000A4FF0006000EBA1
:104DB000852000EB0809FBF752FF3520FCF7EAF9E4
:104DC000002412E0305D3119497800EB01201FFA10
:104DD00080FA09EB04005146FCF789F8042802D058
:104DE0000020BDE8F087A01C84B2BC42EAD3FBF7E8
:104DF00042FF0120F5E7000010B501468E4800E0B3
:104E0000006803688B42FBD30246436813448B421D
:104E100004D143684C682344436001460A464B680A
:104E200013440468A34211D1844C03682468A3424C
:104E300008D04B680468646823444B6003681B68AF
:104E40000B6005E07D4B1B680B6001E003680B60A5
:104E5000884200D0016010BD30B54FF4405378480F
:104E600000F007042CB1C01D20F00700744C041B97
:104E70001B1B0246704C226000246F4D6C60D018E2
:104E8000083820F007006D4C206000246B4D2D6821
:104E90006C606A4D2D682C601146441A4C60674C5A
:104EA00024680C60674D4C682C60674D4C682C6022
:104EB0004FF00044654D2C6030BD2DE9F0410446B3
:104EC0004FF0000801F0ECF95C48006808B9FFF702
:104ED000C3FF5E480068204000285DD19CB10834C3
:104EE00004F0070078B104F00700C0F108000444A2
:104EF00004F0070008B9012000E0002018B9FBF712
:104F000043F900BFFEE7002C46D04F4800688442BA
:104F100042D8494E3046056801E02E462D68686843
:104F2000A04202D228680028F7D144480068854290
:104F300032D0306800F10808286830606868001BCB
:104F4000102812D92F1907F0070008B9012000E036
:104F5000002018B9FBF718F900BFFEE76868001BCE
:104F600078606C603846FFF747FF37496868096822
:104F7000081A3549086008460068324909688842BD
:104F800003D2314800682F490860304968680968D1
:104F9000084368600020286001F0D6F808F0070098
:104FA00008B9012000E0002018B9FBF7EDF800BFB8
:104FB000FEE74046BDE8F08170B506463546002E56
:104FC00031D0083D2C46214960680968084008B185
:104FD000012000E0002018B9FBF7D6F800BFFEE77B
:104FE000206808B9012000E0002018B9FBF7CCF8D0
:104FF00000BFFEE7154960680968084098B120685D
:1050000088B91249606809688843606001F048F90E
:105010000D496068096808440B4908602046FFF79D
:10502000EBFE01F091F870BD074800687047054835
:105030000068704770470000EC010020F401002078
:1050400064080020FC010020F8010020000200207C
:1050500075480068401C08B9012000E0002018B91C
:10506000FBF792F800BFFEE7FBF78EF800BFFEE704
:10507000001F4FF080730360001F0160001F6B4B27
:105080000360143802602038704769484FF0E0210F
:1050900048610720086170471CB5664801460978D9
:1050A0000191FF21024611700146097800919DF897
:1050B000001001F01001604A117007215F4A116071
:1050C00009E05E490968491E5C4A11609DF80010BC
:1050D0004906090E00919DF8001001F08001802919
:1050E000EFD0564909680902544A116011460988EF
:1050F00001F4E06111604F4A019911705048006855
:1051000040F470004E4908600846006840F0704066
:105110000860FFF7BAFF002043490860FBF702F878
:1051200000201CBD10B540480068B0F57A7F01D161
:10513000012000E0002018B9FBF726F800BFFEE7C9
:1051400010BD4FF080503E491C390860BFF34F8FAF
:10515000BFF36F8F704710B5FBF716F83248006841
:10516000401C31490860BFF34F8FBFF36F8F084673
:10517000006801280CD132481C380068C0B208B958
:10518000012000E0002018B9FAF7FEFF00BFFEE79B
:1051900010BD10B52448006818B9FAF7F5FF00BF34
:1051A000FEE721480068401E1F4908600846006865
:1051B00010B90020FAF7EFFF10BD10B5FAF7E4FFC1
:1051C00000F03AFF20B14FF080501D491C390860B3
:1051D0000020FAF7E0FF10BD70B5FAF7DFFF0546D3
:1051E000102D0FD305F1E02090F8F043124800781D
:1051F000844201DB012000E0002018B9FAF7C4FF67
:1052000000BFFEE70E481438006800F4E0600B4968
:105210000968884201D8012000E0002018B9FAF797
:10522000B3FF00BFFEE770BD04020020515000082C
:105230003F19010000E400E0080200200C020020F9
:1052400020ED00E010B51820FFF737FE044624B12A
:1052500000202060201D00F09EF9204610BD2DE9A1
:10526000FE4F07468846002001903C4600901FB93B
:10527000FAF78AFF00BFFEE708F07F4008B9012077
:1052800000E0002018B9FAF77FFF00BFFEE704F145
:10529000040909F10800029001F002F8D9F80C6045
:1052A000206840EA0800206026E0D6F804B035689F
:1052B0000020009005F07F4A25F07F450AF08060CD
:1052C00028B92068284040B10120009005E02068FE
:1052D0002840A84201D101200090009858B10AF05E
:1052E000807010B1019828430190206840F000714F
:1052F000304601F052FB5E4602988642D5D12068C6
:1053000001998843206000F01FFF2068BDE8FE8FF0
:105310002DE9F84F8346884614461F465D46002017
:10532000009004F07F4008B9012000E0002018B987
:10533000FAF72AFF00BFFEE70CB1012000E00020D1
:1053400018B9FAF721FF00BFFEE700F0A9FFD5F872
:10535000009041465846FFF782FF49EA0800204086
:10536000A04206D149EA08062868A0432860002721
:1053700009E03FB144F0A0613A46281D01F092FADD
:10538000002600E02E6800F0DFFE8246D7B1BAF1B9
:10539000000F01D1FFF7D5FE01F0A7FB064606F08E
:1053A000007068B9FFF7D7FE2E6806EA0400A04235
:1053B00002D12868A0432860FFF7EBFE012000908F
:1053C00026F07F463046BDE8F88F10B50346002032
:1053D00022B903EA010434B1012004E003EA010424
:1053E0008C4200D1012010BD2DE9FF4F83B08046D3
:1053F0000D461746DDF8409044464FF0000A002065
:105400000190B8F1000F03D1FAF7BEFE00BFFEE72E
:1054100005F07F4008B9012000E0002018B9FAF734
:10542000B3FE00BFFEE70DB1012000E0002018B977
:10543000FAF7AAFE00BFFEE700F032FF20680090F6
:105440002946069A0098FFF7C0FF0290029838B1EB
:10545000009E4FF00009B7B12068A843206012E019
:10546000B9F1000F01D1009E0DE00FB14AF0807A32
:10547000069808B14AF0806A45EA0A014A46201DAA
:1054800001F010FA002600F05FFE8346B9F1000F2C
:105490001DD0BBF1000F01D1FFF753FE01F025FB3A
:1054A000064606F0007080B9FFF755FE26682946CB
:1054B0003046069AFFF789FF18B117B12068A84354
:1054C0002060FFF766FE0020019026F07F46304600
:1054D00007B0BDE8F08F2DE9F04105460E462C4699
:1054E0001DB9FAF751FE00BFFEE706F07F4008B98C
:1054F000012000E0002018B9FAF746FE00BFFEE7E1
:10550000FFF729FE27682068B0432060FFF741FEBF
:105510003846BDE8F0812DE9F04104462546FAF70A
:1055200033FE07462E683846FAF735FE3046BDE8AA
:10553000F08170B505462E46341D00F0B1FE11E035
:1055400004F10800E168814201D0012000E0002060
:1055500018B9FAF719FE00BFFEE74FF00071E068D6
:1055600001F01BFA20680028EAD13046FFF724FD3D
:1055700000F0EAFD70BD70B504460D462946204690
:10558000FFF76DFE70BD70B504460D4629462046F6
:10559000FFF7A1FF70BD00F1080141604FF0FF313E
:1055A000816000F10801C160016100210160704764
:1055B00000210161704742684A6093688B6093687C
:1055C00059609160086103685B1C0360704710B507
:1055D00002460B685C1C0CB9106907E002F1080078
:1055E00000E04068446824689C42FAD944684C60F2
:1055F0004C68A160886041600A611468641C146092
:1056000010BD01460A69D1E901309860D1E9010372
:1056100058605068884201D1886850600020086155
:105620001068401E10601068704770B505460E4641
:105630002C461CB9FAF7A8FD00BFFEE7FFF78BFD6B
:10564000D4E90F12206801FB020060600020A06313
:105650002068A060E06B401E226C216800FB0210F5
:10566000E0604FF0FF306064A06476B9206908B94B
:10567000012000E0002080B904F1100001F054F98D
:1056800001280AD1FFF75DFD07E004F11000FFF7E4
:1056900082FF04F12400FFF77EFFFFF77AFD01206F
:1056A00070BD2DE9F04706460D4691464FF00008C3
:1056B0000EB1012000E0002018B9FAF765FD00BF27
:1056C000FEE70DB9002702E006FB05F0471C07F1D5
:1056D0004C00FFF7F2FB044664B10DB9246002E010
:1056E00004F14C002060E663256401212046FFF7A9
:1056F0009CFFA046B8F1000F03D1FAF745FD00BFAB
:10570000FEE74046BDE8F08710B50446FFF723FDED
:1057100011E0606A08B9012000E0002038B904F106
:10572000240001F001F918B101F0DBF900E005E017
:10573000A06C401EA064A06C0028EADC00BF4FF003
:10574000FF30A064FFF725FDFFF705FD11E020699C
:1057500008B9012000E0002050B904F1100001F068
:10576000E3F808B101F0BDF9606C401E606400E030
:1057700002E0606C0028EADC00BF4FF0FF3060649C
:10578000FFF707FD10BD70B50546FFF7E4FCA86BF9
:10579000E96B884201D1012400E00024FFF7F9FC05
:1057A000204670BD2DE9F04104460E4615460027FF
:1057B000206C40B37DB93146226CA06809F044FFEB
:1057C000216CA0680844A060D4E9011088421AD373
:1057D0002068A06017E03146226CE06809F034FFD1
:1057E000216CE068401AE0602168E068884203D2DA
:1057F000216C6068401AE060022D04D1A06B10B1EA
:10580000A06B401EA063A06B401CA0633846BDE89F
:10581000F0812DE9FF4383B0064688461D464FF0D0
:10582000000934461CB9FAF7AFFC00BFFEE7B8F137
:10583000000F01D1206C08B9012000E0002018B948
:10584000FAF7A2FC00BFFEE7022D02D1E06B0128AF
:1058500001D1012000E0002018B9FAF795FC00BF43
:10586000FEE700BFFFF777FCA06BE16B884201D336
:10587000022D1DD12A4641462046FFF793FF0746D9
:10588000606A08B9012000E0002040B904F124005A
:1058900001F04AF8012805D1FFF753FC02E00FB1EF
:1058A000FFF74FFCFFF775FC012007B0BDE8F08360
:1058B000059818B9FFF76DFC0020F6E7B9F1000F65
:1058C00004D101A801F0C9F84FF00109FFF761FC0C
:1058D00000F0E6FCFFF73FFC606C401C08B90020BC
:1058E0006064A06C401C08B90020A064FFF751FC64
:1058F00005A901A801F0BFF8C0B92046FFF743FF92
:1059000070B104F11000059900F09DFF2046FFF7EB
:10591000FBFE00F019FC0028A4D1FFF712FCA1E760
:105920002046FFF7F1FE00F00FFC9BE72046FFF753
:10593000EBFE00F009FC0020B7E72DE9F047064632
:10594000894617461D4634461CB9FAF71DFC00BFB0
:10595000FEE7B9F1000F01D1206C08B9012000E089
:10596000002018B9FAF710FC00BFFEE7022D02D1A3
:10597000E06B012801D1012000E0002018B9FAF7FE
:1059800003FC00BFFEE7FFF727FCFAF7FDFB8246AA
:10599000A06BE16B884201D3022D1CD12A464946F7
:1059A0002046FFF7FFFEA06C401C70B9606A08B982
:1059B000012000E0002058B904F1240000F0B4FFF9
:1059C00030B12FB10120386002E0A06C401CA0640F
:1059D0004FF0010801E04FF000085046FAF7DBFBFA
:1059E0004046BDE8F0872DE9F04105460E462C46BD
:1059F0001CB9FAF7C9FB00BFFEE7206C08B901200B
:105A000000E0002018B9FAF7BFFB00BFFEE72068EE
:105A100008B9606808B9012000E0002018B9FAF759
:105A2000B3FB00BFFEE7FFF7D7FBFAF7ADFB8046FD
:105A3000A06BE16B884219D2A06B401CA063A06CE4
:105A4000401C70B9606A08B9012000E0002058B914
:105A500004F1240000F068FF30B12EB10120306065
:105A600002E0A06C401CA064012700E00027404633
:105A7000FAF791FB3846BDE8F08170B50546FFF7AF
:105A80006AFBA86B08B9012400E00024FFF781FB42
:105A9000204670BD70B504460D46206C70B1216C77
:105AA000E0680844E0606168E068884201D32068EB
:105AB000E0602846226CE16809F0C6FD70BD2DE962
:105AC000FF4383B005460E461F464FF000092C46A3
:105AD0001CB9FAF759FB00BFFEE70EB9206C08B9F4
