:020000040800F2
:1000000070400020291700084D1700084F170008FE
:1000100053170008571700085B170008000000007E
:1000200000000000000000000000000001010008C6
:100030005F17000800000000450100087348000831
:100040004317000843170008431700084317000828
:100050004317000843170008431700084317000818
:100060004317000843170008431700084317000808
:100070009D430008431700084B3100084317000850
:1000800043170008431700084317000843170008E8
:1000900043170008431700084317000861170008BA
:1000A00043170008431700084317000843170008C8
:1000B00043170008431700084317000843170008B8
:1000C00043170008431700084317000843170008A8
:1000D000431700086F31000843170008BD430008AC
:1000E000431700084317000843170008DFF80CD037
:1000F0000EF04CF900480047DB1800087040002063
:10010000204B19680868B0E8F00F80F30988BFF346
:100110006F8F4FF0000080F311884EF00D0E704786
:100120000000000006480068006880F3088862B696
:1001300061B6BFF34F8FBFF36F8F00DF00BF00BF0B
:1001400008ED00E0EFF30980BFF36F8F0D4B1A68E5
:1001500020E9F00F106008B54FF0100080F311880F
:1001600005F01BFD4FF0000080F31188BDE808404A
:1001700019680868B0E8F00F80F30988BFF36F8F43
:10018000704700BF10020020EFF311804FF0100104
:1001900081F31188704780F311887047EFF3058071
:1001A000704700000CB50020019000906C4800687A
:1001B00040F480306A49086000BF6948006800F474
:1001C000003000900198401C0190009818B90198E7
:1001D000B0F5A06FF1D16248006800F4003010B1B2
:1001E0000120009001E0002000900098012843D1F8
:1001F0005C48006840F010005A49086008460068F2
:1002000020F0030008600846006840F00200086023
:10021000534840685249486008464068486008466C
:10022000406840F4806048600846406820F47C10D4
:1002300048600846406840F4E81048600846006896
:1002400040F08070086000BF4548006800F0007012
:100250000028F9D04248406820F003004049486037
:100260000846406840F00200486000BF3C484068D3
:1002700000F00C000828F9D10CBD10B5FFF792FF73
:1002800010BD10B53648006840F0010034490860E0
:1002900008464068344908403149486008460068CB
:1002A000324908402E4908600846006820F4802042
:1002B00008600846406820F4FE0048604FF41F00C4
:1002C0008860FFF7DAFF4FF000602949086010BD31
:1002D00010B5002100200022214B5B6803F00C01C7
:1002E00021B1042906D0082928D107E0214B224C4E
:1002F000236027E01F4B204C236023E0184B5B68F2
:1003000003F47010164B5B6803F48032022303EB96
:10031000904022B9194B4343174C23600DE0104B1A
:100320005B6803F4003323B1144B4343124C236046
:1003300003E0104B4343104C236003E00D4B0E4C85
:10034000236000BF00BF064B5B68C3F303130C4C74
:10035000E15C094B1B68CB40074C236010BD0000DB
:1003600000100240002002400000FFF8FFFFF6FEF0
:1003700008ED00E000127A000000002000093D00B6
:100380000400002031490143314A1160704770B5C3
:10039000002100230F22C47804B32D4C246804F4F8
:1003A000E064C4F5E064210AC1F10403CA40447862
:1003B00004FA03F18478144021430901254C06789E
:1003C000A155047804F01F050124AC4005786D1197
:1003D000AD0005F1E025C5F8004109E0047804F01E
:1003E0001F050124AC401C4D0678761145F82640C7
:1003F00070BD1A4A0A400243154B1B1F1A60704712
:1004000039B1134A121D12680243114B1B1D1A60A9
:1004100006E00F4A121D126882430D4B1B1D1A6025
:100420007047042808D14FF0E021096941F0040128
:100430004FF0E022116107E04FF0E021096921F05F
:1004400004014FF0E0221161704700000000FA053E
:100450000CED00E000E400E080E100E080FFFF1F21
:1004600010B50446FA48844208D10121401500F035
:100470000DFF0021601500F009FF17E0F5488442E8
:1004800008D10121001500F001FF0021201500F026
:10049000FDFE0BE0F048844208D10121C80300F0C2
:1004A000F5FE00214FF4004000F0F0FE10BD30B525
:1004B0000246002000235068E84C20400D790C686B
:1004C00044EA0524204350609068E54C2040D1E97F
:1004D00002542C434D7944EA450420439060D06A8D
:1004E00020F470000C7C641EE4B2234340EA035005
:1004F000D06230BD00210160017141718160C16035
:1005000001210174704721B1826842F001028260CA
:1005100003E0826822F001028260704721B18268A4
:1005200042F48072826003E0826822F4807282600A
:10053000704710B50023CBB21AB144681C43446025
:1005400002E044689C43446010BD816841F00801AA
:1005500081607047014600208A6802F008020AB1F3
:10056000012000E000207047816841F004018160B3
:100570007047014600208A6802F004020AB1012097
:1005800000E00020704721B1826842F4A00282603E
:1005900003E0826822F4A0028260704701460020D6
:1005A0008A6802F480020AB1012000E0002070474E
:1005B00010B50A4600210023416821F46041531E12
:1005C00041EA4331416010BD21B1426842F400620A
:1005D000426003E0426822F4006242607047F0B576
:1005E00004460D4600200021092D11DDE068A5F12B
:1005F0000A0606EB4607072606FA07F18843A5F127
:100600000A0606EB460603FA06F10843E0600CE032
:10061000206905EB4507072606FA07F1884305EB35
:10062000450603FA06F108432061072A0FDA606BDA
:10063000561E06EB86071F2606FA07F18843561E4C
:1006400006EB860605FA06F10843606322E00D2AF0
:100650000FDA206BD61F06EB86071F2606FA07F176
:100660008843D61F06EB860605FA06F10843206389
:1006700010E0E06AA2F10D0606EB86071F2606FAD7
:1006800007F18843A2F10D0606EB860605FA06F18E
:100690000843E062F0BD21B1826842F480128260BA
:1006A00003E0826822F48012826070470146C86CC1
:1006B00080B2704766484C300068704721B142688C
:1006C00042F48062426003E0426822F48062426049
:1006D000704721B1426842F48052426003E04268B0
:1006E00022F48052426070470A460021816821F45A
:1006F000E04111438160704721B1826842F40042B9
:10070000826003E0826822F400428260704721B177
:10071000826842F40212826003E0826822F40212CC
:1007200082607047014600208A6802F400120AB114
:10073000012000E000207047F0B504461546002077
:1007400000220026092911DDE068A1F10A0707EB64
:10075000470C072707FA0CF29043A1F10A0707EBB1
:10076000470703FA07F21043E0600CE0206901EB51
:10077000410C072707FA0CF2904301EB410703FAFB
:1007800007F210432061A06BC0F30156EF1C06F185
:10079000010CA7EB0C0707EB870C1F2707FA0CF2DD
:1007A0009043EF1C06F1010CA7EB0C0707EB870742
:1007B00001FA07F21043A063F0BD10B50A4600210C
:1007C0000023816B21F44011531E41EA03518163E0
:1007D00010BD08B5002300930090009B0B440093CC
:1007E000009B1A6008BD08B50246002000900092E8
:1007F00001F12800009B184400900098006880B226
:1008000008BD0A4600214168164B1940114341605A
:1008100070474162826270470A460021416821F0B8
:100820001F0111434160704740B10949083109680F
:1008300041F40001064A0832116007E0044908311A
:10084000096821F40001024A083211607047000073
:100850000024014000280140003C0140FFFEF0FF61
:10086000FDF7F1FFFFFD3FFF0246002013680B403C
:100870000BB1012000E000207047CA4302607047BE
:1008800070B502460020002300240B125568CEB23A
:1008900005EA060415681D4015B10CB1012000E001
:1008A000002070BD00220A12D3430360704700008D
:1008B00001684FF6FE721140016000210160416045
:1008C0008160C1608D49884208D18C4908394968E6
:1008D00041F00F01894A083A51608AE08749143192
:1008E000884208D185490839496841F0F001834AB6
:1008F000083A51607DE081492831884208D17F491A
:100900000839496841F470617C4A083A516070E0E6
:100910007A493C31884208D178490839496841F41C
:100920007041764A083A516063E074495031884218
:1009300008D172490839496841F470216F4A083A70
:10094000516056E06D496431884208D16B490839DD
:10095000496841F47001694A083A516049E06749C1
:100960007831884208D165490839496841F0706199
:10097000624A083A51603CE06149884206D1011F51
:10098000096841F00F01021F116032E05C49143127
:10099000884208D15A49091F096841F0F001584AB4
:1009A000121F116025E056492831884208D1544968
:1009B000091F096841F47061514A121F116018E063
:1009C0004F493C31884208D14D49091F096841F41B
:1009D00070414B4A121F11600BE049495031884267
:1009E00007D14749091F096841F47021444A121F81
:1009F0001160704710B50022026847F6F0739A4301
:100A00000C6A8B6823430C6923434C6923438C692C
:100A10002343CC6923434C6A23438C6A23431A4300
:100A20000260CB6843600B6883604B68C36010BD95
:100A30000021016041608160C160016141618161AB
:100A4000C161016241628162704721B1026842F076
:100A50000102026004E002684FF6FE731A40026071
:100A600070471AB103680B43036002E003688B43CD
:100A700003607047416070470146486880B2704724
:100A800001460020002201F080531BB11C4B083BA3
:100A90001A6802E0194B083B1A6802EA01030BB11D
:100AA000012000E00020704700F0805119B1144986
:100AB000091F086002E01149083948607047014683
:100AC0000020002201F080531BB10D4B083B1A6837
:100AD00002E00A4B083B1A6802EA01030BB101204D
:100AE00000E00020704700F0805119B10449091F4F
:100AF000086002E001490839486070470800024078
:100B000008040240002044490860091D0860091DCE
:100B10000860091D086041483F491431086070476A
:100B200000213D498279002A3AD00A4612680368BA
:100B30009A430B461A600A1D126803689A430B1DFC
:100B40001A60027911440A6803681A430A60324A3B
:100B50000832126803689A432F4B08331A601A1D33
:100B6000126803689A432C4B0C331A604279102A9E
:100B70000ED11A1F126803681A43274B08331A60F4
:100B80001A1D126803681A43234B0C331A600DE0D8
:100B90002149427911440A6803681A430A6005E052
:100BA000027911440A6803689A430A607047002179
:100BB000016001710C21417100218171704716495A
:100BC000103109680143144A103211607047014620
:100BD0000020114A143212680A400AB1012000E0D4
:100BE000002070470C49143108607047014600200E
:100BF0000022094B1B6803EA0102074B14331B68F0
:100C00000B4013B10AB1012000E0002070470249F7
:100C1000143108607047000000040140FFFF0F001E
:100C200010B50446CC48844208D10121042000F0CC
:100C30002DFB0021042000F029FB46E0C748844238
:100C400008D10121082000F021FB0021082000F03C
:100C50001DFB3AE0C248844208D10121102000F077
:100C600015FB0021102000F011FB2EE0BD4884424E
:100C700008D10121202000F009FB0021202000F0F4
:100C800005FB22E0B848844208D10121402000F051
:100C9000FDFA0021402000F0F9FA16E0B348844242
:100CA00008D10121802000F0F1FA0021802000F01D
:100CB000EDFA0AE0AE48844207D10121801500F028
:100CC000E5FA0021A01500F0E1FA10BD10B50121F0
:100CD000084600F0DBFA0021012000F0D7FA10BD31
:100CE0002DE9F041024600250026002000230024C3
:100CF000002791F803C00CF00F0591F803C00CF029
:100D0000100CBCF1000F03D091F802C04CEA0505AD
:100D100091F800C0BCF1000F31D0146800202BE026
:100D20004FF0010C0CFA00F3B1F800C00CEA030616
:100D30009E4220D183004FF00F0C0CFA03F7BC4306
:100D400005FA03FC4CEA040491F803C0BCF1280F37
:100D500006D14FF0010C0CFA00FCC2F814C00AE0F6
:100D600091F803C0BCF1480F05D14FF0010C0CFA0B
:100D700000FCC2F810C0401C0828D1D31460B1F8A0
:100D800000C0BCF1FF0F34DD546800202EE000F1FC
:100D9000080C4FF0010808FA0CF3B1F800C00CEA97
:100DA00003069E4221D183004FF00F0C0CFA03F78B
:100DB000BC4305FA03FC4CEA040491F803C0BCF1FF
:100DC000280F05D100F1080C08FA0CF8C2F81480BD
:100DD00091F803C0BCF1480F07D100F1080C4FF0A7
:100DE000010808FA0CF8C2F81080401C0828CED37D
:100DF0005460BDE8F0814FF6FF71018002218170DF
:100E00000421C17070470246002093680B400BB16B
:100E1000012000E0002070470146886880B27047DA
:100E200002460020D3680B400BB1012000E00020F7
:100E300070470146C86880B27047016170474161E0
:100E400070470AB1016100E041617047C1607047BD
:100E50004FF480320A4382618161826182698269D2
:100E6000704702460020434B18684FF680731840C5
:100E700040EA021008433F4B186070473E49C86182
:100E80007047F0B50A46002300240021002500F039
:100E90000046B6F1004F02D1364EF16901E0354E01
:100EA0007168C0F3034583B200F44016B6F5401FE5
:100EB00008D121F070612F4E766826F070662D4FB4
:100EC0007E6012E000F48016B6F5801F06D103267E
:100ED00006FA05F4A14341F0706106E0460D3601C3
:100EE00003FA06F6B14341F0706122B1460D3601B6
:100EF00003FA06F6314300F00046B6F1004F02D186
:100F00001C4EF16101E01B4E7160F0BD30B5002256
:100F10008B071C0F0F2303FA04F2164B08338C10B7
:100F200053F824309343134C08348D1044F8253083
:100F300023468C1053F824308C07240F00FA04F455
:100F400023430C4C08348D1044F8253030BD0A4939
:100F5000DC3108607047000000080140000C0140CF
:100F6000001001400014014000180140001C014025
:100F7000002001400000014000002042DF480068DE
:100F800040F00100DD49086008464068DC4908403F
:100F9000DA49486008460068DA490840D7490860DD
:100FA0000846006820F4802008600846406820F465
:100FB000FE0048604FF41F0088607047CF49096801
:100FC00021F48031CD4A11601146096821F4802155
:100FD0001160B0F5803F03D0B0F5802F0ED106E050
:100FE000C649096841F48031C44A116007E0C34929
:100FF000096841F4A021C14A116000E000BF00BFB0
:10100000704710B501460022002300204A11012A32
:1010100002D1BA4C236806E0022A02D1B74C236AF7
:1010200001E0B64C636A01F01F02012494401C40A9
:101030000CB1012000E0002010BD38B50020009068
:101040000024002500BF3120FFF7DBFF0546009894
:10105000401C00900098B0F5A06F01D0002DF2D098
:101060003120FFF7CEFF08B1012400E00024204624
:1010700038BD01460020A14A106820F0F80040EA7F
:10108000C10010607047A049086070470246002008
:101090009A4B586820F47C1042EA01031843974B9E
:1010A0005860704798490866704701460020934A87
:1010B000506820F003000843506070478F48406834
:1010C00000F00C007047014600208C4A506820F068
:1010D000F00008435060704701460020874A50687E
:1010E00020F4E06008435060704701460020834AC6
:1010F000506820F4605040EAC1005060704729B148
:101100007E4A527A02437D4B5A7204E07B4A527AFD
:1011100082437A4B5A7270477B49D83108607047D6
:1011200001460020754A506820F440400843506052
:1011300070470021714A20321170704A82F82010E5
:10114000012802D004280AD104E001216B4A203290
:10115000117005E00521694A2032117000E000BFDE
:1011600000BF70476949086070476449096A0143D4
:10117000624A11627047654944390860704730B56A
:1011800000210022002400235C4D6D6805F00C0155
:1011900021B1042905D0082923D105E05C4D056063
:1011A00022E05B4D05601FE0544D6D6805F4701240
:1011B000524D6D6805F48034022505EB92421CB94E
:1011C000544D554305600BE04C4D6D6805F40035FA
:1011D0001DB1504D5543056002E04D4D554305602E
:1011E00002E04B4D056000BF00BF444D6D6805F047
:1011F000F0010909484D6B5C0568DD4045603F4DD5
:101200006D6805F4E061090A434D6B5C4568DD409B
:1012100085603A4D6D6805F46051C90A3E4D6B5CBE
:101220004568DD40C560354D6D6805F44041890B6A
:101230003A4D6B5CC568B5FBF3F5056130BD29B16E
:101240002E4A526902432D4B5A6104E02B4A5269DF
:1012500082432A4B5A61704729B1284A9269024356
:10126000264B9A6104E0254A92698243234B9A6196
:10127000704729B1214AD2690243204BDA6104E068
:101280001E4AD26982431D4BDA61704729B11B4A5D
:10129000D2680243194BDA6004E0184AD2688243EC
:1012A000164BDA60704729B1144A12690243134B96
:1012B0001A6104E0114A12698243104B1A617047A7
:1012C00012494039086070470F49C86470470B499C
:1012D000C87170470948406A40F080700749486209
:1012E000704701460020054A92680A400AB1012071
:1012F00000E00020704701498872704700100240EA
:101300000000FFF8FFFFF6FE000042428004424268
:1013100000127A0000093D00140000202400002083
:1013200010B50446FB48844209D101218803FFF728
:10133000ADFF00214FF48040FFF7A8FF32E0F648F0
:10134000844209D101214804FFF7ADFF00214FF489
:101350000030FFF7A8FF25E0F048844209D10121C1
:101360008804FFF7A0FF00214FF48020FFF79BFFC8
:1013700018E0EB48844209D10121C804FFF793FF2C
:1013800000214FF40020FFF78EFF0BE0E548844278
:1013900008D101210805FFF786FF00214FF48010D6
:1013A000FFF781FF10BD2DE9F04786B005460E46D8
:1013B0000024A24600BFA1460027B08900B100BFAB
:1013C0002F462C8A4CF6FF700440F08804432C8290
:1013D000AC894EF6F3100440B08831890843718916
:1013E00008430443AC81AC8A4FF6FF400440B08907
:1013F0000443AC8201A8FFF7C2FEC648874202D16F
:10140000DDF810A001E0DDF80CA0A88900F4004090
:1014100040B10AEBCA0000EB0A1031684900B0FB8A
:10142000F1F807E00AEBCA0000EB0A103168890006
:10143000B0FBF1F86420B8FBF0F00401200964214E
:1014400001FB1089A88900F4004040B1322000EB74
:10145000C900B0FBF1F000F00700044308E03220BF
:1014600000EB09106421B0FBF1F000F00F00044321
:101470002C8106B0BDE8F0874FF4165101600021C1
:101480008180C18001810C214181002181817047CF
:1014900010B502460020108A4FF2FF0318400B8857
:1014A0004C8823438C882343CC88234318431082E1
:1014B00010BD0021018041808180C180704721B131
:1014C000828942F40052828104E082894DF6FF73E2
:1014D0001A4082817047F0B503460024002600259B
:1014E000002040F66A17B94200D100BF1846C1F388
:1014F000421401F01F06012707FA06F5012C01D15D
:101500000C3004E0022C01D1103000E014301AB18C
:1015100007682F43076002E00768AF430760F0BD2C
:101520001AB1838A0B43838202E0838A8B438382CE
:101530007047028A4FF6F0731A400282028A0A4309
:101540000282704782894FF2FF731A40828182893A
:101550000A438281704721B1828942F0020282816E
:1015600004E082894FF6FD731A4082817047028A37
:101570004FF6DF731A400282028A0A4302827047E2
:1015800021B1028A42F48042028204E0028A4BF6D0
:10159000FF731A4002827047C1F3080282807047CD
:1015A00001468888C0F308007047818941F0010135
:1015B00081817047028BD2B20283028B42EA012200
:1015C00002837047028B02F47F420283028B0A433C
:1015D0000283704721B1828A42F02002828204E0B5
:1015E000828A4FF6DF731A408282704721B1828A65
:1015F00042F01002828204E0828A4FF6EF731A40B2
:101600008282704721B1828A42F00802828204E01D
:10161000828A4FF6F7731A408282704721B182891D
:1016200042F40042828103E08289C2F30E02828189
:10163000704721B1828A42F40062828204E0828A89
:101640004FF2FF731A4082827047828A4FF6FB7313
:101650001A408282828A0A438282704721B1828A3A
:1016600042F00202828204E0828A4FF6FD731A4041
:101670008282704702460020B1F5007F00D100BF92
:1016800013880B400BB1012000E00020704701F4EB
:101690000072B2F5007F00D100BFCA4302807047DC
:1016A00070B50246002400230025002040F66A168B
:1016B000B14200D100BFC1F3421501F01F03012662
:1016C00006FA03F3012D02D19689334006E0022D7C
:1016D00002D1168A334001E0968A33400C1201266B
:1016E00006FA04F41688344013B10CB1012000E06E
:1016F000002070BD10B50022002340F66A14A142FC
:1017000000D100BF0A1201249440A3B2DC4304803C
:1017100010BD000000380140004400400048004077
:10172000004C0040005000400648804706480047F3
:10173000FEE7FEE7FEE7FEE7FEE7FEE7FEE7FEE781
:10174000FEE7FEE783020008ED000008704700BFD7
:10175000FEE700BFFEE700BFFEE700BFFEE7704701
:1017600008B52020FFF742FAC8B10D480078401CA8
:101770000B4908700846007802280DDB69460948C5
:10178000006803F08CFC009818B14FF080500649B7
:1017900008600020024908702020FFF738FA08BDD1
:1017A000280000206800002004ED00E010B50022B1
:1017B0003221052003F0D1FA50490860002232217D
:1017C000012003F0CAFA4E490860002232210720A6
:1017D00003F0C3FA4B49086000223221072003F0CE
:1017E000BCFA4949086003220021012003F0B5FA40
:1017F0004649086003F082F84549086010BD1FB5EE
:101800000020444A0623CDE90120009303900346BB
:10181000802241A1434803F079FE0020424A082378
:10182000CDE9012000930390034680223FA1424866
:1018300003F06CFE0020414A0823CDE9012000930B
:10184000039003464FF480723DA1414803F05EFED1
:101850000020404A0A23CDE901200093039003466B
:1018600080223DA13F4803F051FE00203E4A0B2359
:10187000CDE9012000930390034680223BA13F481D
:1018800003F044FE00203E4A0C23CDE901200093E2
:10189000039003464FF400723AA13E4803F036FE2F
:1018A00000203D4A0C23CDE901200093039003461C
:1018B0004FF4807239A13D4803F028FE00203C4AD5
:1018C0000B23CDE901200093039003464FF480726F
:1018D00038A13C4803F01AFE1FBD012080F3108898
:1018E00000BF01F09FFA00F085F8FFF788FFFFF7CF
:1018F0005DFF04F0CAFA00BFFEE7000054000020BC
:10190000580000205C0000206000002068000020DB
:10191000640000202C0000205461736B204C65642F
:101920000000000071660008300000205461736BF5
:10193000204B657900000000596700084400002032
:101940005461736B20446973706C6179000000000E
:10195000D36800084C0000205461736B204D7075F3
:1019600000000000016C0008480000205461736B07
:10197000204A6F79537469636B000000016B0008A3
:101980003C0000205461736B2055617274335278AF
:1019900000000000296C0008400000205461736BB7
:1019A000205561727433547800000000556C0008B3
:1019B000500000205461736B2053656E6444617461
:1019C00061000000996C000870B50446049D601A1F
:1019D000EE1A7043561A90FBF6F0184470BD01469B
:1019E000002901DA484200E0084670470120044916
:1019F0000870704710B5FFF7F9FF01F071F910BDDD
:101A00006C00002030B503460C4600211AE0585CFB
:101A10002578A84200D014E0002206E0521CA05C09
:101A20008D185D5DA84200D005E0A05C18B1881853
:101A3000185C0028F2D100BFA05C08B9084630BD90
:101A400000BF491C585C0028E1D1401EF7E72DE992
:101A5000FE4304460E464FF000090020009001901E
:101A6000029031462046FFF7CDFF05466019D0F8B9
:101A700003100091C0798DF80400601980782B283C
:101A800007D168460CF0F5FF07460CF0B2FA814624
:101A900008E068460CF0EDFF81F0004107460CF0CD
:101AA000A8FA81464846BDE8FE832DE9F84306467C
:101AB0000F4614461D46A0460020009032213046B5
:101AC0000CF03BF84FEA18608DF800002A463946C2
:101AD00030460CF019F80020BDE8F883FEB5054645
:101AE0000F4616461C4600200090019002903221BD
:101AF00028460CF022F8002E08DD224639462846FA
:101B00000CF002F8FEA10978295508E02246394672
:101B100028460BF0F9FFFBA1097829557642324699
:101B2000F9A168460CF052FEF84886420ADA42F201
:101B30000F70864206DD28190099C0F801109DF843
:101B40000410417142F2107086420ADAB6F57A7FCB
:101B500007DB2819EEA10978417028190099C0F80F
:101B60000210B6F57A7F0EDA632E0CDD2819E9A192
:101B70000988A0F801102819BDF80010A0F803107A
:101B80009DF802104171642E0CDA092E0ADD281925
:101B9000E1A10A88A0F801208978C1702819BDF850
:101BA000001081800A2E08DA2819DCA10968C0F823
:101BB000011028199DF800104171232029198871FE
:101BC0000020FEBD10B502460B461446002107E07A
:101BD000605C984200D002E06218002010BD491CF1
:101BE0003229F5DB0120F9E7F0B589B004460F464C
:101BF00015461E4624208DF800008DF80140012076
:101C00008DF8020003208DF8030000208DF80400F9
:101C10008DF805708DF80650002332466946C1489C
:101C2000006803F052F909B0F0BD2DE9F0418AB027
:101C300005460E4617461C46DDF8408024208DF8E8
:101C400004008DF8055001208DF80600A01CC0B2DC
:101C50008DF8070001208DF808008DF809602246F4
:101C600039460DF10A000BF04FFF0023424601A94F
:101C7000AC48006803F029F90AB0BDE8F081F0B57E
:101C800089B004460F4615461E4624208DF80000F4
:101C900050208DF801008DF8024003208DF80300DC
:101CA00000208DF804008DF805708DF80650002393
:101CB000324669469B48006803F007F909B0F0BD59
:101CC0002DE9F0418AB005460E4617461C46DDF860
:101CD000408024208DF8040050208DF805008DF8F8
:101CE0000650A01CC0B28DF8070001208DF8080036
:101CF0008DF80960224639460DF10A000BF004FF09
:101D00000023424601A98748006803F0DEF80AB0C4
:101D1000BDE8F08101B58AB024210A98FFF752FF8F
:101D20000A98807802287DD10A9840780328FAD151
:101D30000A9800790128F6D17B4890F8490006906E
:101D40000A98407908286ED008DC02286CD0032855
:101D50000BD0042871D0072868D1EBE0092866D0A1
:101D60000A287DD03128F7D111E20A98407A01067D
:101D70000A98007A41EA00410A98C07941EA0021B4
:101D80000A988079084309900998FFF728FEB0F572
:101D9000FA5F02DA6549099808600A98407B0106F3
:101DA0000A98007B41EA00410A98C07A41EA002182
:101DB0000A98807A014309910998FFF710FEB0F55F
:101DC000FA5F02DA5949099848600A98407C01068E
:101DD0000A98007C41EA00410A98C07B41EA002150
:101DE0000A98807B014309910998FFF7F8FDB0F547
:101DF000FA5F02DA4D49099888600A98407D010629
:101E00000A98007D41EA00410A98C07C41EA00211D
:101E10000A98807C014309910998FFF7E0FDB0F52D
:101E2000FA5F05E0E2E1A2E078E106E0D1E18DE0D1
:101E300002DA3E490998C860CBE10A98407A010667
:101E40000A98007A41EA00410A98C07941EA0021E3
:101E50000A988079084309900998FFF7C0FD00E0CF
:101E600013E1B0F5FA7F02DA3149099808600A985F
:101E7000407B01060A98007B41EA00410A98C07A3B
:101E800041EA00210A98807A014309910998FFF7F5
:101E9000A6FDB0F5FA7F02DA2549099848600A984C
:101EA000407C01060A98007C41EA00410A98C07B08
:101EB00041EA00210A98807B014309910998FFF7C4
:101EC0008EFDB0F5FA7F02DA1949099888600A9800
:101ED000407D01060A98007D41EA00410A98C07CD5
:101EE00041EA00210A98807C014309910998FFF793
:101EF00076FDB0F5FA7F02DA0D490998C86068E10D
:101F00002B0000002D000000256C6400A08601005D
:101F100030000000303000003030300030303030E1
:101F20000000000060000020D03B00207402002070
:101F3000640200200A988079FE4988700A98C17965
:101F4000007A41EA0021FB48018042E10A98807949
:101F5000F94908700A98C079F84908700A98017A16
:101F6000F74801700A98407AF649087031E10A98FA
:101F7000407A01060A98007A41EA00410A98C0793D
:101F800041EA00210A988079084301900CF007F893
:101F90000022ED4BCDE902010BF084FFCDE90401F5
:101FA0000CF08AF8079007980CF00AF80290FFF7F7
:101FB00016FD03900BF0F3FF0022E44BCDE9040182
:101FC0000CF04AF802D2E249079808600A98407B70
:101FD00001060A98007B41EA00410A98C07A41EA6A
:101FE00000210A98807A084301900BF0D8FF002264
:101FF000D54BCDE902010BF055FFCDE904010CF002
:102000005BF8079007980BF0DBFF0290FFF7E7FC07
:1020100003900BF0C4FF0022CC4BCDE904010CF07F
:102020001BF802D2CA49079848600A98407C01060A
:102030000A98007C41EA00410A98C07B41EA0021ED
:102040000A98807B084301900BF0A9FF0022BE4B49
:10205000CDE902010BF026FFCDE904010CF02CF8CC
:10206000079007980BF0ACFF0290FFF7B8FC0390C5
:102070000BF095FF0022B54BCDE904010BF0ECFF0E
:1020800002D2B34907988860A3E00A98407A010613
:102090000A98007A41EA00410A98C07941EA002191
:1020A0000A988079084309900998FFF798FCB0F5E1
:1020B000FA5F02DAA749099808600A98407B01068E
:1020C0000A98007B41EA00410A98C07A41EA00215F
:1020D0000A98807A014309910998FFF780FCB0F5CE
:1020E000FA5F02DA9B49099848600A98407C010629
:1020F0000A98007C41EA00410A98C07B41EA00212D
:102100000A98807B014309910998FFF768FCB0F5B4
:10211000FA5F02DA8F49099888605AE00A98807954
:102120008D4948700A98807A01060A98407A41EAF7
:1021300000410A98007A41EA00210A98C0790843D0
:1021400009900998FFF74BFCB0F57A7F02DA8249D3
:10215000099848600A98C07A804948700A98C07BFC
:1021600001060A98807B41EA00410A98407B41EAD7
:1021700000210A98007B014309910998FFF72FFC81
:10218000B0F57A7F02DA75490998486021E00A982B
:10219000C079734981F848000A98007A0890084687
:1021A00001780898814206DD0898002803DB6C4915
:1021B000089881F849000A98407A694981F84A00EC
:1021C0000A98807A81F84B000A98C07A81F84C000E
:1021D00000BF00BF624890F849100698814205D0C0
:1021E0004FF480715F48006802F095FB0A98807890
:1021F00003287DD10A9840780328FAD1584890F8EE
:10220000490006900A9800790128F2D1564890F8C2
:10221000490006900A984079A5286AD00CDCA228CB
:1022200068D004DC312866D0A1287DD111E0A32834
:102230007BD0A428F9D1DFE1B22877D004DCA6282E
:1022400075D0B128F1D1B9E3B32871D0B428ECD15D
:10225000FEE30A98407A01060A98007A41EA0041B2
:102260000A98C07941EA00210A98807908430190D0
:102270000BF095FE0022344BCDE902010BF012FE6B
:10228000CDE904010BF018FF079007980BF098FEBA
:102290000290FFF7A4FB03900BF081FE0022334B6A
:1022A000CDE904010BF0D8FE21D23148006803903B
:1022B0000BF0BEFE00222F4BCDE904010BF0E4FE33
:1022C00006D207980BF07CFE0590FFF788FB58B903
:1022D0002748006803900BF0ABFE0022254BCDE9A8
:1022E00004010BF0B9FE02D821490798086003E009
:1022F000FEE313E2D6E0FCE30A98407B01060A986D
:10230000007B41EA00410A98C07A41EA00210A981C
:10231000807A084301900BF042FE00220A4BCDE97F
:1023200002010BF0BFFD27E01AE257E1E8E218E2F4
:10233000FDE30000AC000020B0000020B100002050
:10234000B2000020B30000200000594000388F4048
:1023500090020020840200207800002080000020ED
:10236000D03B002064000020203C002000407F4043
:102370009C02002000001440CDE904010BF09CFEFB
:10238000079007980BF01CFE0290FFF728FB0390C4
:102390000BF005FE0022FE4BCDE904010BF05CFEC4
:1023A00021D2FC48406803900BF042FE0022FA4B19
:1023B000CDE904010BF068FE06D207980BF000FE91
:1023C0000590FFF70CFB58B9F248406803900BF0FA
:1023D0002FFE0022F04BCDE904010BF03DFE02D8A8
:1023E000EC49079848600A98407C01060A98007CEE
:1023F00041EA00410A98C07B41EA00210A98807BAB
:10240000084301900BF0CBFD0022E44BCDE9020123
:102410000BF048FDCDE904010BF04EFE0790079844
:102420000BF0CEFD0290FFF7DAFA03900BF0B7FD48
:102430000022DB4BCDE904010BF00EFE02D2D549A0
:10244000079888600A98407D01060A98807A41EAD8
:1024500000410A98C07C41EA00210A98807C084328
:1024600001900BF09CFD0022CC4BCDE902010BF05A
:1024700019FDCDE904010BF01FFE079007980BF042
:102480009FFD0290FFF7ABFA03900BF088FD00224E
:10249000C34BCDE904010BF0DFFD02D2BD49079823
:1024A000C860DBE30A98407A01060A98007A41EA9C
:1024B00000410A98C07941EA00210A9880790843CE
:1024C00001900BF06CFD0022B44BCDE902010BF042
:1024D000E9FCCDE904010BF0EFFD079007980BF044
:1024E0006FFD0290FFF77BFA03900BF058FD00227E
:1024F000AB4BCDE904010BF0AFFD02D2A549079823
:1025000008610A98407B01060A98007B41EA004175
:102510000A98C07A41EA00210A98807A084301901B
:102520000BF03DFD00229D4BCDE902010BF0BAFC02
:10253000CDE904010BF0C0FD079007980BF040FDBA
:102540000290FFF74CFA03900BF029FD0022944B08
:10255000CDE904010BF080FD02D28E490798486155
:102560000A98407C01060A98007C41EA00410A98DA
:10257000C07B41EA00210A98807B084301900BF060
:102580000EFD0022854BCDE902010BF08BFCCDE95D
:1025900004010BF091FD079007980BF011FD0290DC
:1025A000FFF71DFA03900BF0FAFC00227C4BCDE9FB
:1025B00004010BF051FD02D27649079888610A9810
:1025C000817CC07C41EA0020724988830A98017DA1
:1025D000407D41EA00206F49C8833FE30A98807933
:1025E0006C4981F820000A98C07981F821000A9886
:1025F000007A81F8220031E30A98407A01060A98AD
:10260000007A41EA00410A98C07941EA00210A981B
:102610008079084301900BF0C2FC00225F4BCDE9AA
:1026200002010BF03FFCCDE904010BF045FD0790E2
:1026300007980BF0C5FC0290FFF7D1F903900BF05F
:10264000AEFC0022574BCDE904010BF005FD02D290
:102650005549079808600A98407B01060A98007B54
:1026600041EA00410A98C07A41EA00210A98807A3A
:10267000084301900BF093FC0022484BCDE9020186
:102680000BF010FCCDE904010BF016FD0790079844
:102690000BF096FC0290FFF7A2F903900BF07FFC81
:1026A0000022404BCDE904010BF0D6FC02D23E499A
:1026B000079848600A98407C01060A98007C41EA25
:1026C00000410A98C07B41EA00210A98807B0843B8
:1026D00001900BF064FC0022304BCDE902010BF0BD
:1026E000E1FBCDE904010BF0E7FC079007980BF044
:1026F00067FC0290FFF773F903900BF050FC002287
:10270000284BCDE904010BF0A7FC02D2264907981B
:1027100088600A98807C244908739FE20A9881792E
:10272000C07941EA0020214908800A98017A407A5C
:1027300041EA00201D4948800A98817AC07A41EA1E
:1027400000201A4988800A98017B407B41EA0020DA
:102750001649C8800A98807B08720A98C07B487224
:102760007CE20A98407A01060A98007A41EA004120
:102770000A98C07941EA00210A98807908430190BB
:102780000BF00DFC0022054BCDE9020110E000002A
:1027900000407F409C02002000001440000059408F
:1027A00000408F408087C340C0020020D00200203C
:1027B0000BF078FBCDE904010BF07EFC0790079845
:1027C0000BF0FEFB0290FFF70AF903900BF0E7FB1A
:1027D0000022FE4BCDE904010BF03EFC02D2FC4985
:1027E000079848600A98407B01060A98007B41EAF6
:1027F00000410A98C07A41EA00210A98807A084389
:1028000001900BF0CCFB0022F24BCDE902010BF062
:1028100049FBCDE904010BF04FFC079007980BF042
:10282000CFFB0290FFF7DBF803900BF0B8FB002220
:10283000E94BCDE904010BF00FFC02D2E449079803
:10284000C8600A98407C01060A98007C41EA004171
:102850000A98C07B41EA00210A98807B08430190D6
:102860000BF09DFB0022DB4BCDE902010BF01AFBC4
:10287000CDE904010BF020FC079007980BF0A0FBBA
:102880000290FFF7ACF803900BF089FB0022D24BCB
:10289000CDE904010BF0E0FB02D2CD4907980860B6
:1028A0000A98407D01060A98007D41EA00410A9895
:1028B000C07C41EA00210A98807C084301900BF01B
:1028C0006EFB0022C34BCDE902010BF0EBFACDE920
:1028D00004010BF0F1FB079007980BF071FB0290DD
:1028E000FFF77DF803900BF05AFB0022BA4BCDE9BD
:1028F00004010BF0B1FB02D2B54907988860ADE145
:102900000A98407A01060A98007A41EA00410A983A
:10291000C07941EA00210A98807901430991099818
:10292000FFF75DF8462802DAAC49099808600A9872
:10293000407B01060A98007B41EA00410A98C07A70
:1029400041EA00210A98807A014309910998FFF72A
:1029500046F8462802DAA149099848600A98407C5E
:1029600001060A98007C41EA00410A98C07B41EACE
:1029700000210A98807B014309910998FFF72FF8FD
:10298000192802DA9549099888600A98407D01065D
:102990000A98007D41EA00410A98C07C41EA002182
:1029A0000A98807C014309910998FFF718F8B0F55F
:1029B000FA5F02DA8949099848844FE10A98407A17
:1029C00001060A98007A41EA00410A98C07941EA72
:1029D00000210A988079014309910998FEF7FFFFC9
:1029E000212802DA7D49099808610A98407B01068E
:1029F0000A98007B41EA00410A98C07A41EA002126
:102A00000A98807A014309910998FEF7E8FF08289F
:102A100002DA72490998C8600A98407C01060A984F
:102A2000007C41EA00410A98C07B41EA00210A98F3
:102A3000807B014309910998FEF7D1FF0D2802DA46
:102A40006649099848610A98407D01060A9800E0A5
:102A500014E0007D41EA00410A98C07C41EA00216F
:102A60000A98807C014309910998FEF7B8FFB0F5F8
:102A7000FA5F02DA594909988861EFE00A98407ACA
:102A800001060A98007A41EA00410A98C07941EAB1
:102A900000210A988079014309910998FEF79FFF68
:102AA000462802DA4E49099808600A98407B0106D8
:102AB0000A98007B41EA00410A98C07A41EA002165
:102AC0000A98807A014309910998FEF788FF462801
:102AD00002DA4349099848600A98407C01060A983E
:102AE000007C41EA00410A98C07B41EA002101E0F4
:102AF000C1E091E00A98807B014309910998FEF7B3
:102B00006EFF192802DA3649099888600A98407DD4
:102B100001060A98007D41EA00410A98C07C41EA1A
:102B200000210A98807C01430991099800E008E09F
:102B3000FEF755FFB0F5FA5F02DA29490998488493
:102B40008CE00A98407A01060A98007A41EA00412E
:102B50000A98C07941EA00210A98807901430991D5
:102B60000998FEF73CFF212802DA1D4909980861FF
:102B70000A98407B01060A98007B41EA00410A98C6
:102B8000C07A41EA00210A98807A014309910998A4
:102B9000FEF725FF082802DA11490998C8600A984B
:102BA000407C01060A98007C41EA00410A98C07BFB
:102BB00041EA00210A98807B014309910998FEF7B8
:102BC0000EFF0D280FDA064909980BE00088B34084
:102BD000DC0200200000594000408F40EC02002041
:102BE0001003002048610A98407D01060A98007D84
:102BF00041EA00410A98C07C41EA00210A98807CA1
:102C0000014309910998FEF7EAFEB0F5FA5F02DA8E
:102C10001A490998886121E00A98C079184981F811
:102C200048000A98007A089008460178089881427E
:102C300006DD0898002803DB1149089881F849004F
:102C40000A98407A0E4981F84A000A98807A81F8F9
:102C50004B000A98C07A81F84C0000BF00BF0848BA
:102C600090F849100698814205D04FF480710548CC
:102C7000006801F050FE0BB000BD00001003002002
:102C8000203C002064000020012017490870022029
:102C90004870642048601120144908700220487070
:102CA00064204860012012490870022048706420A6
:102CB000486002200F490870487064204860112065
:102CC0000D490870022048706420486001200B49BB
:102CD000487088700020C87008714871087070478B
:102CE00010B5FFF7D1FF10BD780000208000002054
:102CF000880000209000002098000020A000002004
:102D00001949096841F08071174A1160174909682B
:102D100041F00101154A116015490860704770B50E
:102D20000446124845681248006810B91148FFF778
:102D3000E7FF0F480068104990FBF1F000FB04F634
:102D4000AB19AB4205DD00BF084840689842FBD391
:102D500009E000BF054840689842FBD200BF034825
:102D600040689842FBD370BDFCED00E0001000E02D
:102D7000CC00002000A24A0440420F0038B50446AF
:102D800001212069FEF768FA208B80B2ADF80000BF
:102D900010208DF8030003208DF802006946606959
:102DA000FDF79EFF38BD10B51B48FFF7E7FF1B4836
:102DB000FFF7E4FF1A48FFF7E1FF174A128B91B2C1
:102DC000154A5069FEF73BF8144A128B91B2134A28
:102DD0005069FEF734F8124A128B91B2104A5069CA
:102DE000FEF72DF810BD19B9D0E90523136112E0E3
:102DF000002903DAD0E9052353610CE08268521CF4
:102E000082608A4207DB4269D26883695A4043691B
:102E1000DA60002282607047D0000020EC000020C1
:102E20000801002010B54FF44070FDF7ABFA0748D9
:102E3000FFF766FFFFF7B7FF00F01CF800F0B6FFE2
:102E400001F0B5F9052001F045FA10BD00A24A04D1
:102E500038B504460121A068FEF7FEF9208A80B249
:102E6000ADF8000028208DF803006946E068FDF702
:102E700037FF38BD10B53948FFF7EAFF3848FFF78C
:102E8000E7FF3848FFF7E4FF3748FFF7E1FF37482F
:102E9000FFF7DEFF3648FFF7DBFF3648FFF7D8FFC6
:102EA0003548FFF7D5FF10BD10B50446A088401C7B
:102EB000A080607820B1012812D002284BD120E0F8
:102EC000228A91B2E068FDF79EFF30B90120607060
:102ED0000020A080A071A07001E00020A0803BE055
:102EE000228A91B2E068FDF78EFF10B9022060706F
:102EF00006E00020607021490870A070A080A071D9
:102F00002AE0228A91B2E068FDF77DFF012813D103
:102F1000A088322807DA2078184908700120A070AC
:102F20000020E07103E0002014490870A070002028
:102F30006070A080A0710DE0A088322803DD02201F
:102F4000A0700120E071A08841F28831884201DD43
:102F50000846A08000E000BF00BF10BD4401002073
:102F6000580100206C010020800100209401002005
:102F7000A8010020BC010020D00100204001002059
:102F800038B504460E208DF8000006208DF80100AB
:102F900000208DF8020001208DF803006846FDF73F
:102FA000F6F925208DF800008DF8014000208DF8FD
:102FB000020001208DF803006846FDF7E8F938BDEE
:102FC00000B58BB001210846FEF739F90021CB4846
:102FD000FDF73BFDC948FDF76BFCC9480090C948A7
:102FE0000190102002903220039000200490802055
:102FF000059000200690079008904FF440500990EB
:1030000000200A906946BD48FDF7F4FC4FF480505B
:10301000FDF74AFD0021B948FDF717FD0122022105
:10302000B648FDF71EFD0021B4481430FDF70DFD34
:10303000B2481430FDF73CFCB1480090B248019012
:103040000020029032200390002004908020059000
:1030500000200690079008904FF4405009900020FF
:103060000A906946A5481430FDF7C4FC4FF480303F
:10307000FDF71AFD0121A1481430FDF7E6FC0BB065
:1030800000BD10B586B0044601210420FEF7E4F827
:1030900001218803FEF7E0F84FF40070ADF814004A
:1030A00018208DF8170003208DF8160005A9974801
:1030B000FDF716FE4FF48060ADF8140004208DF883
:1030C000170005A99148FDF70BFE2046FFF758FFB2
:1030D000FFF776FF4FF4E13001900020ADF80800D3
:1030E000ADF80A00ADF80C00ADF810000C20ADF8FA
:1030F0000E0001A98248001FFEF755F9012240F297
:1031000024417F48001FFEF7E6F901217C48001F9B
:10311000FEF7D5F9012280217948001FFEF700FA59
:10312000012240217648001FFEF7FAF906B010BDD3
:1031300010B504460120764908707048443884640C
:1031400001216E48FDF781FC10BD10B54FF4805091
:10315000FDF7B5FC50B100206D4908704FF4805068
:10316000FDF7A2FC00216548FDF76FFC10BD08B516
:103170000020009040F224416148001FFEF790FAC1
:10318000B8B340F224415E48001FFEF7B3FA5C4832
:10319000001FFEF705FA10215948001FFEF777FAC5
:1031A000002156481430FDF750FC4FF48030FDF7F5
:1031B0007BFC52481430FDF75FFCC0F132005549EA
:1031C000087032204D494439C86500236A464E498B
:1031D0005148006801F00DFF4B48484944394866A2
:1031E000012146481430FDF730FC4548001FFEF72A
:1031F000D7F9009818B14FF080504849086008BDD1
:1032000070B505460C46002C03DA28460AF0A0FCEF
:1032100004B200BF3E4800780028FBD13949214460
:1032200048702246294637480AF06EFCA0B2FFF7E4
:103230007FFF70BD70B504460D4629462046FEF757
:10324000ABF900BF80212046FEF714FA0028F9D020
:1032500070BD70B506460C46002500BF615D304666
:10326000FFF7E8FF6D1C605D0028F7D100BF40212B
:103270003046FEF7FFF90028F9D070BD2DE9F04186
:1032800005460C46260AE7B231462846FEF784F981
:1032900000BF80212846FEF7EDF90028F9D0394615
:1032A0002846FEF779F900BF80212846FEF7E2F9AB
:1032B0000028F9D0BDE8F08170B504460D46E1B2B2
:1032C0000F48001FFEF768F900BF80210C48001F5F
:1032D000FEF7D0F90028F8D0204670BD10B504469E
:1032E00000BF20210648001FFEF7C4F90028F8D0CF
:1032F0000348001FFEF754F910BD000044000240CF
:103300000438014034030020660300200008014017
:10331000E4010020E50100205800002004ED00E059
:1033200070B504460E462EB14FF40041FB48FDF740
:1033300084FD04E04FF40041F848FDF780FD0025CE
:103340001BE04FF48051F548FDF779FD04F0800053
:1033500028B14FF40051F148FDF76FFD04E04FF440
:103360000051EE48FDF76BFD4FF48051EB48FDF73F
:1033700064FD6006040E681CC5B2082DE1DB4FF445
:103380000041E648FDF759FD70BD70B504460D4695
:1033900005F1B001C8B20021FFF7C2FFA11CC1F3C3
:1033A000031141F010000021FFF7BAFFA11C01F04A
:1033B0000F000021FFF7B4FF70BDF0B514460026E2
:1033C0007F2801DC3F2900DDF0BD0B46CF1701EB64
:1033D0005777FF10C7F10707FAB2CF1701EB5777FE
:1033E000FF10A1EBC707FDB2C5F107070123BB40E2
:1033F000DEB24CB1CA4B03EBC0039B5C3343C84FF6
:1034000007EBC007BB5408E0C54B03EBC0039B5C54
:10341000B343C34F07EBC007BB5400BFD4E770B53D
:1034200002460025C1F13F00C1B20846CE1701EBAC
:103430005676F310CE1701EB5676F610A1EBC606C2
:10344000F4B20120A040C5B2B54800EBC200C05C98
:10345000284008B1012070BD0020FCE710B5002114
:103460008D20FFF75DFF00211420FFF759FF002199
:10347000AF20FFF755FF10BD10B500218D20FFF7DD
:103480004FFF00211020FFF74BFF0021AE20FFF778
:1034900047FF10BD70B500241CE004F1B001C8B2B4
:1034A0000021FFF73DFF00210220FFF739FF002137
:1034B0001020FFF735FF002508E0994901EBC50111
:1034C000085D0121FFF72CFF681CC5B2802DF4DBDD
:1034D000601CC4B2082CE0DB70BD70B500240CE0A9
:1034E000002506E000208E4901EBC5010855681C47
:1034F000C5B2802DF6DB601CC4B2082CF0DBFFF7F0
:10350000C9FF70BD70B500240CE0002506E0FF2067
:10351000834901EBC5010855681CC5B2802DF6DB57
:10352000601CC4B2082CF0DBFFF7B4FF70BD2DE9BE
:10353000F04706460F4690469946DDF820A03446EF
:103540000CE03D4606E0524629462046FFF735FF8F
:10355000681CC5B24D45F6DD601CC4B24445F0DDC3
:10356000BDE8F0872DE9FF4F82B007460C46904634
:1035700000250026A9460097A3460598012802D0F9
:10358000022852D152E0B8F1000F4ED0A8F120002D
:10359000C5B264480078012804D1002D02DB6149DE
:1035A000087002E000205F4908707E2F02DD0027CE
:1035B000601CC4B2002636E005EB45005A4901EB19
:1035C000400010F806A04FF0000926E00AF0800045
:1035D00058B15448007808B9012000E000200246A4
:1035E00021463846FFF7E9FE05E04E4802782146BD
:1035F0003846FFF7E2FE4FEA4A604FEA106A601C65
:10360000C4B2A4EB0B00082803D15C46781CC7B2F7
:1036100006E009F1010000F0FF09B9F1080FD5DB60
:1036200000BF701CC6B2062EC6DB73E0B8F1000FF7
:103630006FD0A8F12000C5B23A480078012804D123
:10364000002D02DB3749087002E000203549087080
:10365000782F02DD0027601CC4B2002657E006EB7D
:103660000510324911F800A006EB05100830085C7F
:1036700001904FF0000944E00AF0800058B1294859
:10368000007808B9012000E00020024621463846B3
:10369000FFF793FE05E02348027821463846FFF7FE
:1036A0008CFE019800F0800068B11E48007808B9CF
:1036B000012000E000200246A4F10800C1B2384613
:1036C000FFF77BFE07E0A4F10800C1B215480278BD
:1036D0003846FFF772FE4FEA4A604FEA106A0198D7
:1036E0004006000E0190601CC4B2A4EB0B00082839
:1036F00003D15C46781CC7B206E009F1010000F076
:10370000FF09B9F1080FB7DB00BF701CC6B2082E65
:10371000A5DB00BF00BF06B0BDE8F08F000C014084
:1037200098030020E70100209CEA0008C4EC000890
:103730002DE9F04107460E469046002500244546F7
:10374000FE480078012804D1002D02DBFB490870F7
:1037500002E00020F9490870782F02DD0027701C74
:10376000C6B231463846FFF710FE002408E004EBED
:103770008511F34A505C0121FFF7D2FD601CC4B2F1
:10378000082CF4DB07F10801C8B23146FFF7FDFD54
:10379000002409E004EB85110831E94A505C01215D
:1037A000FFF7BEFD601CC4B2082CF3DB701CC1B275
:1037B0003846FFF7EAFD002409E004EB85111031DB
:1037C000DF4A505C0121FFF7ABFD601CC4B2082C3E
:1037D000F3DB721CD1B207F10802D0B2FFF7D5FDBE
:1037E000002409E004EB85111831D54A505C012111
:1037F000FFF796FD601CC4B2082CF3DBB01CC1B20D
:103800003846FFF7C2FD002409E004EB85112031A2
:10381000CB4A505C0121FFF783FD601CC4B2082C29
:10382000F3DBB21CD1B207F10802D0B2FFF7ADFD55
:10383000002409E004EB85112831C14A505C0121C4
:10384000FFF76EFD601CC4B2082CF3DBF01CC1B2A4
:103850003846FFF79AFD002409E004EB851130316A
:10386000B74A505C0121FFF75BFD601CC4B2082C15
:10387000F3DBF21CD1B207F10802D0B2FFF785FDED
:10388000002409E004EB85113831AD4A505C012178
:10389000FFF746FD601CC4B2082CF3DBBDE8F081E5
:1038A00010B50246012000E050430B00A1F10104D5
:1038B000E1B2F9D110BD2DE9FF4F87B0064692461F
:1038C0001F46DDE91494D3460020049000215046A1
:1038D0000AF00EFC16D223462D2230460899FFF737
:1038E00041FE012C05D104EB440006EB4000C6B2BA
:1038F00002E006EB8400C6B2781EC7B28AF0004A26
:103900008BF0004B50460AF05BFB069000254DE023
:10391000781B401EC1B20A20FFF7C2FF0699B1FB17
:10392000F0F00A21B0FBF1F201FB12080498F8B99B
:10393000781EA8421CDDB8F1000F17D1012C0BD165
:1039400004EB4401490001FB0561C8B22346202273
:103950000899FFF707FE08E0A10001FB0561C8B266
:10396000234620220899FFF7FDFD1DE00120049069
:10397000012C0DD108F13001CAB204EB4401490019
:1039800001FB0561C8B223460899FFF7EBFD0AE089
:1039900008F13001CAB2A10001FB0561C8B223469B
:1039A0000899FFF7DFFD00BF681CC5B2BD42AFDB61
:1039B000B9F1000F71D0012C0BD104EB4401490087
:1039C00007FB0161C8B223462E220899FFF7CAFD02
:1039D00008E0A10007FB0161C8B223462E22089926
:1039E000FFF7C0FD58460AF023FB564A564BCDE977
:1039F00000010AF03EF9CDE902010AF05DFB8346C1
:103A000049460A20FFF74CFF00900AF0C3FA0290E3
:103A100006980AF0BFFA594600900AF0F5F80190AE
:103A200002990AF0F4F803900AF0CAFA059000250A
:103A300051E0A9EB0500401EC1B20A20FFF730FF9C
:103A40000599B1FBF0F00A21B0FBF1F201FB12087D
:103A50004D453EDAB8F1000F20D0012C0FD104EB18
:103A600044014B00E919491C03FB0161C8B208F18C
:103A70003001CAB223460899FFF774FD29E0A3007C
:103A8000E919491C03FB0161C8B208F13001CAB24F
:103A900023460899FFF766FD1BE01EE0012C0DD1BF
:103AA00004EB44014A00E919491C02FB0161C8B258
:103AB000234630220899FFF755FD0AE0A200E919D4
:103AC000491C02FB0161C8B2234630220899FFF766
:103AD00049FD681CC5B24D45ABDB0BB0BDE8F08FAE
:103AE0002DE9F0470646894617461D464FF0000A65
:103AF000002F0ADA0B2249463046FFF719FE06F17D
:103B00001000C6B2681EC5B27F42002435E0281BF3
:103B1000401EC1B20A20FFF7C3FEB7FBF0F00A2136
:103B2000B0FBF1F201FB1208BAF1000F19D1681EC7
:103B3000A04216DDB8F1000F11D107E0E701002027
:103B4000B4F20008F168E388B5F8E43E102101FB07
:103B50000461C8B20D224946FFF7EAFD0BE04FF0C1
:103B6000010A08F0FF02102101FB0461C8B24946B6
:103B7000FFF7DEFD00BF601CC4B2AC42C7DBBDE88E
:103B8000F0872DE9F04104460F4615469846002679
:103B900015E0AA5D434639462046FFF7E3FCB8F13D
:103BA000020F03D104F10800C4B201E0A01DC4B2A9
:103BB0007A2C02DD0024B81CC7B2701CC6B2A85D06
:103BC0000028E6D1BDE8F0812DE9F84F06460C4605
:103BD00017460025A8460096A34600BF57E0780088
:103BE000401CE54901EB401010F8059001EB8710EF
:103BF00010F805A04FF0000843E009F0800058B12C
:103C0000DE48007808B9012000E000200246214685
:103C10003046FFF7D2FB05E0D8480278214630460F
:103C2000FFF7CBFB0AF0800068B1D448007808B9F0
:103C3000012000E00020024604F10800C1B2304635
:103C4000FFF7BBFB07E004F10800C1B2CB480278E4
:103C50003046FFF7B2FB4FEA49604FEA10694FEA7E
:103C60004A604FEA106A601CC4B2A4EB0B0008283B
:103C700003D15C46701CC6B206E008F1010000F0FA
:103C8000FF08B8F1080FB8DB00BF681CC5B2102DE3
:103C9000A5DBBDE8F88F2DE9FF4F85B081460E46C4
:103CA0001F46129C0396029709EB0700802803DD4C
:103CB000C7F18000C0B2029025463019402802DDCD
:103CC000C4F14000C5B22046E21704EB5272D21094
:103CD0002146E31704EB5373DB10A4EBC3030BB1D2
:103CE000012300E000231A44D2B201922846EA17C9
:103CF00005EB5272D2102946EB1705EB5373DB101C
:103D0000A5EBC3030BB1012300E000231A44D2B298
:103D100000924FF0000843E04FF0000A39E00198AC
:103D200008FB00A1079810F801B00020049028E0DB
:103D30000BF0800058B19148007808B9012000E0EC
:103D40000020024631464846FFF737FB05E08B4826
:103D5000027831464846FFF730FB4FEA4B604FEAA6
:103D6000106B701CC6B20398301AA84205D1039E8E
:103D700009F1010000F0FF0906E00498401CC0B200
:103D8000049004980828D3DB00BF0AF1010000F07A
:103D9000FF0A00988245C2DB08F1010000F0FF082D
:103DA00002988045B8DB09B0BDE8F08F1FB501214E
:103DB0000820FDF751FA4FF40040ADF8080010203C
:103DC0008DF80B0003208DF80A0002A96C48FCF75F
:103DD00087FF01210820FDF73FFA4FF48040ADF83E
:103DE000040010208DF8070003208DF8060001A9BB
:103DF0006348FCF775FF01210820FDF72DFA4FF409
:103E00008050ADF80C0010208DF80F0003208DF8C5
:103E10000E0003A95A48FCF763FF01210820FDF7B3
:103E20001BFA4FF40050ADF8000010208DF803008D
:103E300003208DF8020069465148FCF751FF4FF40A
:103E400080514F48FCF7F9FF4FF400514C48FCF704
:103E5000F4FF4FF400414A48FCF7EFFF4FF4804174
:103E60004748FCF7EAFF4FF480414548FCF7E7FF7D
:103E70004448FEF754FF4FF480414148FCF7DDFF12
:103E80000021AE20FFF74CFA00210220FFF748FA8C
:103E900000211020FFF744FA00214020FFF740FAEC
:103EA00000218120FFF73CFA0021CF20FFF738FAEC
:103EB0000021A120FFF734FA0021C820FFF730FAD3
:103EC0000021A620FFF72CFA0021A820FFF728FAEE
:103ED00000213F20FFF724FA0021D320FFF720FA2A
:103EE00000210846FFF71CFA0021D520FFF718FA39
:103EF00000218020FFF714FA0021D920FFF710FAE3
:103F00000021F120FFF70CFA0021DA20FFF708FA70
:103F100000211220FFF704FA0021DB20FFF700FA4E
:103F200000214020FFF7FCF900212020FFF7F8F9DD
:103F300000210220FFF7F4F900218D20FFF7F0F9AE
:103F400000211420FFF7ECF90021A420FFF7E8F985
:103F50000021A620FFF7E4F90021AF20FFF7E0F9E8
:103F60000021AF20FFF7DCF9FFF7B7FA0021084680
:103F7000FFF70BFA1FBD000034F60008E701002030
:103F8000000C0140A086010070B586B006460025F1
:103F90000024142101A809F0D0FD14E000240EE053
:103FA00001A850F82400052101FB0541844A32F89C
:103FB0001110084401A941F82400601CC4B2052C6A
:103FC000EEDB681C85B20A2DE8DB002409E001A8BD
:103FD00050F824000A21B0FBF1F026F81400601C10
:103FE000C4B2052CF3DB06B070BD10B5014600224B
:103FF000002008E0052303FB0013714C34F8133054
:104000001A44431CD8B20A28F4DB0A20B2FBF0F0B1
:1040100080B210BD08B501210C20FDF71DF901206B
:10402000ADF8000000208DF8030069466548FCF7F4
:1040300057FE0220ADF8000000208DF8030069460D
:104040006048FCF74DFE0120ADF8000000208DF81F
:10405000030069465C48FCF743FE0220ADF800000F
:1040600000208DF8030069465748FCF739FE04200C
:10407000ADF8000000208DF8030069465148FCF7B8
:104080002FFE08BD00B58BB001210846FDF7D7F81B
:104090004E48FCF70DFC4E48009049480190002026
:1040A0000290322003900020049080200590400070
:1040B00006908000079020200890000209900020C0
:1040C0000A9069464148FCF795FC01213F48FCF7FE
:1040D000BCFC0BB000BD00B585B001214802FDF766
:1040E000BBF83B484C38FCF7BBF90020009001209E
:1040F0008DF804008DF805004FF460200290002038
:10410000039005208DF81000694631484C38FCF7C3
:10411000CEF901212E484C38FCF7F5F901212C4845
:104120004C38FCF7FBF94FF40040FCF7F9FF07238C
:104130000122022126484C38FCF751FA07230222BB
:10414000002123484C38FCF74AFA072303220121B7
:104150001F484C38FCF743FA0723042208211C4867
:104160004C38FCF73CFA07230522092118484C3843
:10417000FCF735FA16484C38FCF7E7F900BF14484D
:104180004C38FCF7E7F90028F9D111484C38FCF716
:10419000EBF900BF0E484C38FCF7EBF90028F9D1D9
:1041A00001210B484C38FCF7EEF905B000BD10B505
:1041B000FFF730FFFFF766FFFFF78DFF10BD000030
:1041C0009807002000080140000C01400800024050
:1041D0004C24014038B504460C208DF80000062020
:1041E0008DF8010000208DF8020001208DF80300F9
:1041F0006846FCF7CCF827208DF800008DF80140C8
:1042000000208DF8020001208DF803006846FCF7BD
:10421000BEF838BD00B58BB001210846FDF70FF898
:1042200000219A48FCF711FC9848FCF741FB98489C
:1042300000909848019010200290322003900020B6
:1042400004908020059000200690079008904FF47D
:104250004050099000200A9069468C48FCF7CAFB40
:104260001020FCF721FC00218848FCF7EEFB01221E
:1042700002218648FCF7F5FB002184481430FCF746
:10428000E4FB82481430FCF713FB8148009082481D
:1042900001900020029032200390002004908020A2
:1042A000059000200690079008904FF44050099028
:1042B00000200A90694675481430FCF79BFB4FF4C8
:1042C0008070FCF7F1FB012170481430FCF7BDFB56
:1042D0000BB000BD10B586B0044601210820FCF7E4
:1042E000BBFF01218804FCF7C4FF4FF48060ADF8E8
:1042F000140018208DF8170003208DF8160005A96A
:104300006648FCF7EDFC4FF40060ADF814000420A3
:104310008DF8170005A96148FCF7E2FC2046FFF77D
:1043200059FFFFF777FF4FF4E13001900020ADF81F
:104330000800ADF80A00ADF80C00ADF810000C2034
:10434000ADF80E0001A95248001FFDF72CF801221C
:1043500040F224414E48001FFDF7BDF801214C48B2
:10436000001FFDF7ACF8012280214948001FFDF72E
:10437000D7F8012240214648001FFDF7D1F806B0CA
:1043800010BD10B504460120454908703F481C384F
:10439000046201213D48FCF758FB10BD10B5102008
:1043A000FCF78DFB48B100203D4908701020FCF758
:1043B0007BFB00213548FCF748FB10BD08B5002009
:1043C000009040F224413248001FFDF769F9D8B34C
:1043D00040F224412E48001FFDF78CF92C48001FA5
:1043E000FDF7DEF810212A48001FFDF750F90021E3
:1043F00026481430FCF729FB4FF48070FCF754FB7F
:1044000022481430FCF738FBC0F13200254908700F
:1044100032201E491C39486300236A461E4922483F
:10442000006800F0E6FD32211B4809F086FB1A48BF
:1044300016491C39C863012114481430FCF705FBE8
:104440001348001FFDF7ACF8009818B14FF08050EA
:104450001649086008BD70B505460C46002C03DA05
:10446000284609F075FB04B200BF0D48007800280B
:10447000FBD122462946074809F046FB00200549A2
:1044800021444870A0B2FFF77CFF70BD1C000240C1
:1044900004480040FC0700202E080020000C0140CA
:1044A000E8010020E90100205C00002004ED00E0AC
:1044B00010B501468E4800E0006803688B42FBD3CC
:1044C0000246436813448B4204D143684C6823443A
:1044D000436001460A464B6813440468A34211D165
:1044E000844C03682468A34208D04B68046864685D
:1044F00023444B6003681B680B6005E07D4B1B6821
:104500000B6001E003680B60884200D0016010BDC1
:1045100030B54FF44053784800F007042CB1C01D6B
:1045200020F00700744C041B1B1B0246704C2260D9
:1045300000246F4D6C60D018083820F007006D4CD7
:10454000206000246B4D2D686C606A4D2D682C60D6
:104550001146441A4C60674C24680C60674D4C68E7
:104560002C60674D4C682C604FF00044654D2C600A
:1045700030BD2DE9F04104464FF0000801F0ECF9A0
:104580005C48006808B9FFF7C3FF5E480068204038
:1045900000285DD19CB1083404F0070078B104F024
:1045A0000700C0F10800044404F0070008B9012026
:1045B00000E0002018B9FBF7E7FD00BFFEE7002C84
:1045C00046D04F480068844242D8494E304605687C
:1045D00001E02E462D686868A04202D228680028B3
:1045E000F7D144480068854232D0306800F10808AD
:1045F000286830606868001B102812D92F1907F04E
:10460000070008B9012000E0002018B9FBF7BCFD45
:1046100000BFFEE76868001B78606C603846FFF7F3
:1046200047FF374968680968081A3549086008462D
:10463000006832490968884203D2314800682F492E
:10464000086030496868096808436860002028608D
:1046500001F0D6F808F0070008B9012000E00020BA
:1046600018B9FBF791FD00BFFEE74046BDE8F081B9
:1046700070B506463546002E31D0083D2C462149FE
:1046800060680968084008B1012000E0002018B9FE
:10469000FBF77AFD00BFFEE7206808B9012000E0C3
:1046A000002018B9FBF770FD00BFFEE715496068F0
:1046B0000968084098B1206888B91249606809689B
:1046C0008843606001F048F90D4960680968084452
:1046D0000B4908602046FFF7EBFE01F091F870BD32
:1046E0000748006870470548006870477047000039
:1046F000EC010020F401002060080020FC010020F3
:10470000F80100200002002075480068401C08B92C
:10471000012000E0002018B9FBF736FD00BFFEE7DE
:10472000FBF732FD00BFFEE7001F4FF08073036010
:10473000001F0160001F6B4B0360143802602038BB
:10474000704769484FF0E0214861072008617047D1
:104750001CB56648014609780191FF210246117097
:104760000146097800919DF8001001F01001604A9F
:10477000117007215F4A116009E05E490968491E0E
:104780005C4A11609DF800104906090E00919DF8E1
:10479000001001F080018029EFD056490968090214
:1047A000544A11601146098801F4E06111604F4AD2
:1047B000019911705048006840F470004E4908603B
:1047C0000846006840F070400860FFF7BAFF00201C
:1047D00043490860FBF7A6FC00201CBD10B540480B
:1047E0000068B0F57A7F01D1012000E0002018B9FF
:1047F000FBF7CAFC00BFFEE710BD4FF080503E49FA
:104800001C390860BFF34F8FBFF36F8F704710B52F
:10481000FBF7BAFC32480068401C31490860BFF31E
:104820004F8FBFF36F8F0846006801280CD13248C4
:104830001C380068C0B208B9012000E0002018B997
:10484000FBF7A2FC00BFFEE710BD10B524480068CE
:1048500018B9FBF799FC00BFFEE721480068401E2D
:104860001F4908600846006810B90020FBF793FC58
:1048700010BD10B5FBF788FC00F03AFF20B14FF0F7
:1048800080501D491C3908600020FBF784FC10BDD6
:1048900070B5FBF783FC0546102D0FD305F1E02022
:1048A00090F8F04312480078844201DB012000E0D8
:1048B000002018B9FBF768FC00BFFEE70E4814386B
:1048C000006800F4E0600B490968884201D80120C3
:1048D00000E0002018B9FBF757FC00BFFEE770BDF1
:1048E00004020020094700083F19010000E400E02D
:1048F000080200200C02002020ED00E010B5182076
:10490000FFF737FE044624B100202060201D00F090
:104910009EF9204610BD2DE9FE4F0746884600202F
:1049200001903C4600901FB9FBF72EFC00BFFEE74C
:1049300008F07F4008B9012000E0002018B9FBF71B
:1049400023FC00BFFEE704F1040909F1080002900E
:1049500001F002F8D9F80C60206840EA08002060F5
:1049600026E0D6F804B035680020009005F07F4AB4
:1049700025F07F450AF0806028B92068284040B1C2
:104980000120009005E020682840A84201D10120C4
:104990000090009858B10AF0807010B10198284337
:1049A0000190206840F00071304601F052FB5E46F5
:1049B00002988642D5D1206801998843206000F092
:1049C0001FFF2068BDE8FE8F2DE9F84F834688461B
:1049D00014461F465D460020009004F07F4008B951
:1049E000012000E0002018B9FBF7CEFB00BFFEE776
:1049F0000CB1012000E0002018B9FBF7C5FB00BF97
:104A0000FEE700F0A9FFD5F8009041465846FFF7B1
:104A100082FF49EA08002040A04206D149EA080680
:104A20002868A0432860002709E03FB144F0A06156
:104A30003A46281D01F092FA002600E02E6800F0A8
:104A4000DFFE8246D7B1BAF1000F01D1FFF7D5FEE4
:104A500001F0A7FB064606F0007068B9FFF7D7FE25
:104A60002E6806EA0400A04202D12868A04328600C
:104A7000FFF7EBFE0120009026F07F463046BDE8B0
:104A8000F88F10B50346002022B903EA010434B1BF
:104A9000012004E003EA01048C4200D1012010BD92
:104AA0002DE9FF4F83B080460D461746DDF8409054
:104AB00044464FF0000A00200190B8F1000F03D1E6
:104AC000FBF762FB00BFFEE705F07F4008B901205D
:104AD00000E0002018B9FBF757FB00BFFEE70DB15F
:104AE000012000E0002018B9FBF74EFB00BFFEE7F5
:104AF00000F032FF206800902946069A0098FFF7E0
:104B0000C0FF0290029838B1009E4FF00009B7B183
:104B10002068A843206012E0B9F1000F01D1009E87
:104B20000DE00FB14AF0807A069808B14AF0806A29
:104B300045EA0A014A46201D01F010FA002600F05D
:104B40005FFE8346B9F1000F1DD0BBF1000F01D10C
:104B5000FFF753FE01F025FB064606F0007080B912
:104B6000FFF755FE266829463046069AFFF789FF6B
:104B700018B117B12068A8432060FFF766FE002037
:104B8000019026F07F46304607B0BDE8F08F2DE952
:104B9000F04105460E462C461DB9FBF7F5FA00BF5D
:104BA000FEE706F07F4008B9012000E0002018B9B8
:104BB000FBF7EAFA00BFFEE7FFF729FE2768206847
:104BC000B0432060FFF741FE3846BDE8F0812DE993
:104BD000F04104462546FBF7D7FA07462E683846CB
:104BE000FBF7D9FA3046BDE8F08170B505462E4690
:104BF000341D00F0B1FE11E004F10800E1688142CB
:104C000001D0012000E0002018B9FBF7BDFA00BF79
:104C1000FEE74FF00071E06801F01BFA2068002801
:104C2000EAD13046FFF724FD00F0EAFD70BD70B513
:104C300004460D4629462046FFF76DFE70BD70B54F
:104C400004460D4629462046FFF7A1FF70BD00F13E
:104C5000080141604FF0FF31816000F10801C1603F
:104C600001610021016070470021016170474268C5
:104C70004A6093688B60936859609160086103682B
:104C80005B1C0360704710B502460B685C1C0CB9D6
:104C9000106907E002F1080000E0406844682468F9
:104CA0009C42FAD944684C604C68A16088604160BD
:104CB0000A611468641C146010BD01460A69D1E9D8
:104CC00001309860D1E9010358605068884201D1F1
:104CD00088685060002008611068401E10601068ED
:104CE000704770B505460E462C461CB9FBF74CFACA
:104CF00000BFFEE7FFF78BFDD4E90F12206801FB30
:104D0000020060600020A0632068A060E06B401E8D
:104D1000226C216800FB0210E0604FF0FF306064FD
:104D2000A06476B9206908B9012000E0002080B9AC
:104D300004F1100001F054F901280AD1FFF75DFDDC
:104D400007E004F11000FFF782FF04F12400FFF7F1
:104D50007EFFFFF77AFD012070BD2DE9F047064682
:104D60000D4691464FF000080EB1012000E00020F2
:104D700018B9FBF709FA00BFFEE70DB9002702E0FA
:104D800006FB05F0471C07F14C00FFF7F2FB044659
:104D900064B10DB9246002E004F14C002060E663C8
:104DA000256401212046FFF79CFFA046B8F1000FC3
:104DB00003D1FBF7E9F900BFFEE74046BDE8F08705
:104DC00010B50446FFF723FD11E0606A08B9012021
:104DD00000E0002038B904F1240001F001F918B115
:104DE00001F0DBF900E005E0A06C401EA064A06CBF
:104DF0000028EADC00BF4FF0FF30A064FFF725FD7C
:104E0000FFF705FD11E0206908B9012000E000204E
:104E100050B904F1100001F0E3F808B101F0BDF958
:104E2000606C401E606400E002E0606C0028EADC18
:104E300000BF4FF0FF306064FFF707FD10BD70B595
:104E40000546FFF7E4FCA86BE96B884201D1012419
:104E500000E00024FFF7F9FC204670BD2DE9F04189
:104E600004460E4615460027206C40B37DB93146F6
:104E7000226CA06808F048FE216CA0680844A0607D
:104E8000D4E9011088421AD32068A06017E03146A7
:104E9000226CE06808F038FE216CE068401AE0609F
:104EA0002168E068884203D2216C6068401AE060A3
:104EB000022D04D1A06B10B1A06B401EA063A06BAB
:104EC000401CA0633846BDE8F0812DE9FF4383B064
:104ED000064688461D464FF0000934461CB9FBF7CC
:104EE00053F900BFFEE7B8F1000F01D1206C08B9FB
:104EF000012000E0002018B9FBF746F900BFFEE7EB
:104F0000022D02D1E06B012801D1012000E0002038
:104F100018B9FBF739F900BFFEE700BFFFF777FCD0
:104F2000A06BE16B884201D3022D1DD12A46414678
:104F30002046FFF793FF0746606A08B9012000E0AA
:104F4000002040B904F1240001F04AF8012805D1FD
:104F5000FFF753FC02E00FB1FFF74FFCFFF775FCC2
:104F6000012007B0BDE8F083059818B9FFF76DFC84
:104F70000020F6E7B9F1000F04D101A801F0C9F84B
:104F80004FF00109FFF761FC00F0E6FCFFF73FFC82
:104F9000606C401C08B900206064A06C401C08B91B
:104FA0000020A064FFF751FC05A901A801F0BFF89B
:104FB000C0B92046FFF743FF70B104F11000059916
:104FC00000F09DFF2046FFF7FBFE00F019FC0028D3
:104FD000A4D1FFF712FCA1E72046FFF7F1FE00F095
:104FE0000FFC9BE72046FFF7EBFE00F009FC0020DA
:104FF000B7E72DE9F0470646894617461D46344671
:105000001CB9FBF7C1F800BFFEE7B9F1000F01D1F1
:10501000206C08B9012000E0002018B9FBF7B4F8B3
:1050200000BFFEE7022D02D1E06B012801D1012073
:1050300000E0002018B9FBF7A7F800BFFEE7FFF774
:1050400027FCFBF7A1F88246A06BE16B884201D3F5
:10505000022D1CD12A4649462046FFF7FFFEA06CD0
:10506000401C70B9606A08B9012000E0002058B9FE
:1050700004F1240000F0B4FF30B12FB101203860FA
:1050800002E0A06C401CA0644FF0010801E04FF06A
:1050900000085046FBF77FF84046BDE8F0872DE951
:1050A000F04105460E462C461CB9FBF76DF800BFD3
:1050B000FEE7206C08B9012000E0002018B9FBF7DA
:1050C00063F800BFFEE7206808B9606808B90120EE
:1050D00000E0002018B9FBF757F800BFFEE7FFF724
:1050E000D7FBFBF751F88046A06BE16B884219D2E1
:1050F000A06B401CA063A06C401C70B9606A08B92A
:10510000012000E0002058B904F1240000F068FFFD
:1051100030B12EB10120306002E0A06C401CA064D0
:10512000012700E000274046FBF735F83846BDE888
:10513000F08170B50546FFF76AFBA86B08B901243A
:1051400000E00024FFF781FB204670BD70B50446E7
:105150000D46206C70B1216CE0680844E060616825
:10516000E068884201D32068E0602846226CE1684C
:1051700008F0CAFC70BD2DE9FF4383B005460E461A
:105180001F464FF000092C461CB9FAF7FDFF00BF7F
:10519000FEE70EB9206C08B9012000E0002018B924
:1051A000FAF7F2FF00BFFEE700BFFFF730FBA06B8E
:1051B00068B3D4F80C8031462046FFF7C7FF8FB99B
:1051C000A06B401EA063206908B9012000E0002008
:1051D000B8B904F1100000F003FF012811D1FFF766
:1051E0000CFB0EE0C4F80C80606A08B9012000E0F6
:1051F000002030B904F1240000F0F2FE08B1FFF7FE
:10520000FCFAFFF722FB012007B0BDE8F083059808
:1052100018B9FFF71AFB0020F6E7B9F1000F04D127
:1052200001A800F076FF4FF00109FFF70EFB00F038
:1052300093FBFFF7ECFA606C401C08B90020606437
:10524000A06C401C08B90020A064FFF7FEFA05A975
:1052500001A800F06CFFC0B92046FFF76AFF70B1EB
:1052600004F12400059900F04AFE2046FFF7A8FD4E
:1052700000F0C6FA002898D1FFF7BFFA95E720465C
:10528000FFF79EFD00F0BCFA8FE72046FFF798FD80
:1052900000F0B6FA0020B7E72DE9F047054688464A
:1052A00016462C461CB9FAF76FFF00BFFEE7B8F1AF
:1052B000000F01D1206C08B9012000E0002018B9CE
:1052C000FAF762FF00BFFEE7FFF7E2FAFAF75CFFCA
:1052D0008146A06BE8B141462046FFF737FFA06B3F
:1052E000401EA063606C401C70B9206908B90120A1
:1052F00000E0002058B904F1100000F071FE30B158
:105300002EB10120306002E0606C401C6064012717
:1053100000E000274846FAF73EFF3846BDE8F08730
:105320002DE9F04705460F462C461CB9FAF72CFF2D
:1053300000BFFEE70FB9206C08B9012000E0002093
:1053400018B9FAF721FF00BFFEE7206C08B1012071
:1053500000E0002018B9FAF717FF00BFFEE7FFF7DB
:1053600097FAFAF711FF8146A06B48B1D4F80C8088
:1053700039462046FFF7EAFEC4F80C80012600E01B
:1053800000264846FAF707FF3046BDE8F08770B5BB
:1053900004461CB9FAF7F8FE00BFFEE7FFF737FA3C
:1053A000A56BFFF752FA284670BD70B50446254636
:1053B0001DB9FAF7E9FE00BFFEE7FFF728FAD5E9C5
:1053C0000E10461AFFF741FA304670BD70B504461C
:1053D0001CB9FAF7D9FE00BFFEE7A56B284670BDE1
:1053E00070B5044625461DB9FAF7CEFE00BFFEE7AC
:1053F0002846FFF73DF970BD70B505461DB9FAF7AF
:10540000C3FE00BFFEE7A86B08B9012400E000243A
:10541000204670BD70B504461CB9FAF7B5FE00BF52
:10542000FEE7A06BE16B884201D1012500E0002579
:10543000284670BD10B5002407E004EB8401FD4A46
:1054400002EB8100FFF703FC641C1E2CF5D3FA4825
:10545000FFF7FDFBF948FFF7FAFBF948FFF7F7FB09
:10546000F848FFF7F4FBF848FFF7F1FBF248F7497B
:105470000860F248F649086010BD2DE9F04704467F
:105480000F4616469946DDF82080002507E0795D35
:1054900004F134004155785D00B902E06D1C102D17
:1054A000F5D300BF0021432001551E2E00D31D2639
:1054B000E662201DFFF7D8FB04F11800FFF7D4FBCC
:1054C0002461C6F11E00A06164620020606484F85B
:1054D0004800BDE8F0872DE9F04106460F461FB9A8
:1054E000B000FFF746F800E03846054655B14C20BD
:1054F000FFF73FF804460CB1256304E02846FFF7A8
:10550000B7F800E000242046BDE8F0812DE9FF4F08
:1055100081B0804616469A46DDE90E5BB8F1000F71
:1055200003D1FAF731FE00BFFEE71E2D01D20120A4
:1055300000E0002018B9FAF727FE00BFFEE730466A
:105540001099FFF7C8FF0446002C5AD0701E216B3B
:1055500001EB800929F0070909F0070008B90120CB
:1055600000E0002018B9FAF70FFE00BFFEE7009632
:105570002A462046119B0299FFF77FFF524641467B
:105580004846FFF7D1F82060BBF1000F01D0CBF8FF
:105590000040FFF73CF9AF480068401CAD49086087
:1055A000AD48006840B9AC4804600846006801286E
:1055B0000CD1FFF73FFF09E0A848006830B9A648C2
:1055C0000068C06AA84201D8A3480460A4480068E3
:1055D000401CA349086094F82C1001208840A14980
:1055E000096808439F490860E16A01EB8101914A1B
:1055F00002EB8100211DFFF73AFB0127FFF725F998
:1056000001E04FF0FF37012F09D19448006830B115
:1056100091480068C06AA84201D2FFF7EEF8384608
:1056200005B0BDE8F08F89490968096809B9012109
:1056300000E0002121B14FF0FF318B4A116006E0FC
:1056400082490968C968C868874A4168116070471B
:1056500070B50546FFF7DBF815B97F48006800E034
:1056600028460446201DFFF728FB78B9E06A00EBC6
:105670008000704951F8200040B994F82C100120A6
:10568000884078490968814376480160A06A18B16A
:1056900004F11800FFF711FB211D6A48FFF7E7FA34
:1056A00072480068401C714908606D480068401CE1
:1056B0006B490860FFF7C9F868480068B8B16648E8
:1056C000006884420DD16A48006808B9012000E0F2
:1056D000002018B9FAF758FD00BFFEE7FFF78DF874
:1056E00005E0FFF794F8FFF79EFFFFF7AEF870BDF7
:1056F0002DE9F0414FF000085D480068002872D1A4
:105700005C480068401C5B49086008460668DEB9D2
:105710004E480068006808B9012000E0002018B970
:10572000FAF732FD00BFFEE74848076848480068BE
:1057300046490860464807604F480068401C4E498B
:105740000860FFF770FF00BF4748006886423CD3FF
:1057500000BF3E480068006808B9012000E0002052
:1057600020B14FF0FF30404908602DE03748006815
:10577000C068C4686568AE4202D23B48056023E059
:10578000201DFFF79AFAA06A18B104F11800FFF77C
:1057900094FA94F82C100120884032490968084393
:1057A00030490860E16A01EB8101224A02EB810085
:1057B000211DFFF75CFA2849E06A0968C96A884236
:1057C000C7D34FF00108C4E700BF23480068C06A90
:1057D00000EB8000174951F82000012808D94FF04C
:1057E000010805E0FFE725480068401C23490860E0
:1057F0002348006808B14FF001084046BDE8F08139
:1058000070B500251A48006818B9FAF7BDFC00BF4A
:10581000FEE7FEF7FCFF16480068401E14490860CA
:1058200008460068002874D10A480068002870D033
:105830004DE0000060380020B83A0020CC3A00204B
:10584000E03A0020F43A0020083B00201402002037
:105850001802002020020020100200202C0200204C
:105860003C02002028020020400200201C020020F0
:1058700044020020240200203802002030020020D0
:1058800034020020FA48C068C46804F11800FFF729
:1058900014FA201DFFF711FA94F82C10012088400B
:1058A000F44909680843F3490860E16A01EB8101A2
:1058B000F14A02EB8100211DFFF7D9F9EF49E06AB7
:1058C0000968C96A884202D30120ED490860E848A6
:1058D000006808B9012000E000200028D2D0E94883
:1058E000006878B10AE0FFF703FF10B10120E44936
:1058F0000860E4480068401EE2490860E14800682A
:105900000028F0D1DE480068012802D10125FEF709
:1059100074FFFEF79AFF284670BD10B50446D748BD
:1059200000684460D8480068844207D2D3480168C0
:10593000091DD6480068FFF7A6F90CE0CF480168BA
:10594000091DD3480068FFF79EF9D24800688442D9
:1059500001D2D048046010BDCF480068401CCE4939
:10596000086070472DE9F04704460E464FF00009E5
:105970001CB9FAF709FC00BFFEE70EB1012000E0F8
:10598000002018B9FAF700FC00BFFEE7C248006823
:1059900008B9012000E0002018B9FAF7F5FB00BFB4
:1059A000FEE7FFF7D9FFB848D0F8008020688519D6
:1059B0002068404507D92068A8420BD9454509D938
:1059C0004FF0010906E02068A84201D8454501D9F9
:1059D0004FF001092560B9F1000F13D0A748006806
:1059E000001DFFF76AF950B9A448006890F82C1020
:1059F000012088409F49096881439E4801602846EC
:105A0000FFF78BFFFFF7FCFE07460FB9FEF7F5FE29
:105A1000BDE8F08770B50446002634B39E480068A0
:105A200008B9012000E0002018B9FAF7ADFB00BF6B
:105A3000FEE7FFF791FF9448006805198F4800685A
:105A4000001DFFF73AF950B98C48006890F82C1007
:105A500001208840874909688143864801602846BB
:105A6000FFF75BFFFFF7CCFE06460EB9FEF7C5FE5B
:105A700070BD70B50446FEF7CAFE14B97F480068D1
:105A800000E020460646F56AFEF7DFFE284670BDB8
:105A90002DE9F0410446FEF7FBFEFAF775FB0646DA
:105AA00014B97648006800E020460746FD6A304693
:105AB000FAF771FB2846BDE8F0812DE9F0478046F2
:105AC0000D464FF000091E2D01D2012000E00020FC
:105AD00018B9FAF759FB00BFFEE71E2D00D31D25AC
