:020000040800F2
:10000000F8360020291700084D1700084F17000880
:1000100053170008571700085B170008000000007E
:1000200000000000000000000000000001010008C6
:100030005F1700080000000045010008173800089D
:100040004317000843170008431700084317000828
:100050004317000843170008431700084317000818
:100060004317000843170008431700084317000808
:100070004933000843170008F72000084317000819
:1000800043170008431700084317000843170008E8
:1000900043170008431700084317000861170008BA
:1000A00043170008431700084317000843170008C8
:1000B00043170008431700084317000843170008B8
:1000C00043170008431700084317000843170008A8
:1000D000431700081B210008431700086933000874
:1000E000431700084317000843170008DFF80CD037
:1000F00007F06CFD00480047B9180008F8360020EA
:10010000204B19680868B0E8F00F80F30988BFF346
:100110006F8F4FF0000080F311884EF00D0E704786
:100120000000000006480068006880F3088862B696
:1001300061B6BFF34F8FBFF36F8F00DF00BF00BF0B
:1001400008ED00E0EFF30980BFF36F8F0D4B1A68E5
:1001500020E9F00F106008B54FF0100080F311880F
:1001600004F045FB4FF0000080F31188BDE8084023
:1001700019680868B0E8F00F80F30988BFF36F8F43
:10018000704700BFD4010020EFF311804FF0100141
:1001900081F31188704780F311887047EFF3058071
:1001A000704700000CB50020019000906C4800687A
:1001B00040F480306A49086000BF6948006800F474
:1001C000003000900198401C0190009818B90198E7
:1001D000B0F5A06FF1D16248006800F4003010B1B2
:1001E0000120009001E0002000900098012843D1F8
:1001F0005C48006840F010005A49086008460068F2
:1002000020F0030008600846006840F00200086023
:10021000534840685249486008464068486008466C
:10022000406840F4806048600846406820F47C10D4
:1002300048600846406840F4E81048600846006896
:1002400040F08070086000BF4548006800F0007012
:100250000028F9D04248406820F003004049486037
:100260000846406840F00200486000BF3C484068D3
:1002700000F00C000828F9D10CBD10B5FFF792FF73
:1002800010BD10B53648006840F0010034490860E0
:1002900008464068344908403149486008460068CB
:1002A000324908402E4908600846006820F4802042
:1002B00008600846406820F4FE0048604FF41F00C4
:1002C0008860FFF7DAFF4FF000602949086010BD31
:1002D00010B5002100200022214B5B6803F00C01C7
:1002E00021B1042906D0082928D107E0214B224C4E
:1002F000236027E01F4B204C236023E0184B5B68F2
:1003000003F47010164B5B6803F48032022303EB96
:10031000904022B9194B4343174C23600DE0104B1A
:100320005B6803F4003323B1144B4343124C236046
:1003300003E0104B4343104C236003E00D4B0E4C85
:10034000236000BF00BF064B5B68C3F303130C4C74
:10035000E15C094B1B68CB40074C236010BD0000DB
:1003600000100240002002400000FFF8FFFFF6FEF0
:1003700008ED00E000127A000000002000093D00B6
:100380000400002031490143314A1160704770B5C3
:10039000002100230F22C47804B32D4C246804F4F8
:1003A000E064C4F5E064210AC1F10403CA40447862
:1003B00004FA03F18478144021430901254C06789E
:1003C000A155047804F01F050124AC4005786D1197
:1003D000AD0005F1E025C5F8004109E0047804F01E
:1003E0001F050124AC401C4D0678761145F82640C7
:1003F00070BD1A4A0A400243154B1B1F1A60704712
:1004000039B1134A121D12680243114B1B1D1A60A9
:1004100006E00F4A121D126882430D4B1B1D1A6025
:100420007047042808D14FF0E021096941F0040128
:100430004FF0E022116107E04FF0E021096921F05F
:1004400004014FF0E0221161704700000000FA053E
:100450000CED00E000E400E080E100E080FFFF1F21
:1004600010B50446FA48844208D10121401500F035
:100470000DFF0021601500F009FF17E0F5488442E8
:1004800008D10121001500F001FF0021201500F026
:10049000FDFE0BE0F048844208D10121C80300F0C2
:1004A000F5FE00214FF4004000F0F0FE10BD30B525
:1004B0000246002000235068E84C20400D790C686B
:1004C00044EA0524204350609068E54C2040D1E97F
:1004D00002542C434D7944EA450420439060D06A8D
:1004E00020F470000C7C641EE4B2234340EA035005
:1004F000D06230BD00210160017141718160C16035
:1005000001210174704721B1826842F001028260CA
:1005100003E0826822F001028260704721B18268A4
:1005200042F48072826003E0826822F4807282600A
:10053000704710B50023CBB21AB144681C43446025
:1005400002E044689C43446010BD816841F00801AA
:1005500081607047014600208A6802F008020AB1F3
:10056000012000E000207047816841F004018160B3
:100570007047014600208A6802F004020AB1012097
:1005800000E00020704721B1826842F4A00282603E
:1005900003E0826822F4A0028260704701460020D6
:1005A0008A6802F480020AB1012000E0002070474E
:1005B00010B50A4600210023416821F46041531E12
:1005C00041EA4331416010BD21B1426842F400620A
:1005D000426003E0426822F4006242607047F0B576
:1005E00004460D4600200021092D11DDE068A5F12B
:1005F0000A0606EB4607072606FA07F18843A5F127
:100600000A0606EB460603FA06F10843E0600CE032
:10061000206905EB4507072606FA07F1884305EB35
:10062000450603FA06F108432061072A0FDA606BDA
:10063000561E06EB86071F2606FA07F18843561E4C
:1006400006EB860605FA06F10843606322E00D2AF0
:100650000FDA206BD61F06EB86071F2606FA07F176
:100660008843D61F06EB860605FA06F10843206389
:1006700010E0E06AA2F10D0606EB86071F2606FAD7
:1006800007F18843A2F10D0606EB860605FA06F18E
:100690000843E062F0BD21B1826842F480128260BA
:1006A00003E0826822F48012826070470146C86CC1
:1006B00080B2704766484C300068704721B142688C
:1006C00042F48062426003E0426822F48062426049
:1006D000704721B1426842F48052426003E04268B0
:1006E00022F48052426070470A460021816821F45A
:1006F000E04111438160704721B1826842F40042B9
:10070000826003E0826822F400428260704721B177
:10071000826842F40212826003E0826822F40212CC
:1007200082607047014600208A6802F400120AB114
:10073000012000E000207047F0B504461546002077
:1007400000220026092911DDE068A1F10A0707EB64
:10075000470C072707FA0CF29043A1F10A0707EBB1
:10076000470703FA07F21043E0600CE0206901EB51
:10077000410C072707FA0CF2904301EB410703FAFB
:1007800007F210432061A06BC0F30156EF1C06F185
:10079000010CA7EB0C0707EB870C1F2707FA0CF2DD
:1007A0009043EF1C06F1010CA7EB0C0707EB870742
:1007B00001FA07F21043A063F0BD10B50A4600210C
:1007C0000023816B21F44011531E41EA03518163E0
:1007D00010BD08B5002300930090009B0B440093CC
:1007E000009B1A6008BD08B50246002000900092E8
:1007F00001F12800009B184400900098006880B226
:1008000008BD0A4600214168164B1940114341605A
:1008100070474162826270470A460021416821F0B8
:100820001F0111434160704740B10949083109680F
:1008300041F40001064A0832116007E0044908311A
:10084000096821F40001024A083211607047000073
:100850000024014000280140003C0140FFFEF0FF61
:10086000FDF7F1FFFFFD3FFF0246002013680B403C
:100870000BB1012000E000207047CA4302607047BE
:1008800070B502460020002300240B125568CEB23A
:1008900005EA060415681D4015B10CB1012000E001
:1008A000002070BD00220A12D3430360704700008D
:1008B00001684FF6FE721140016000210160416045
:1008C0008160C1608D49884208D18C4908394968E6
:1008D00041F00F01894A083A51608AE08749143192
:1008E000884208D185490839496841F0F001834AB6
:1008F000083A51607DE081492831884208D17F491A
:100900000839496841F470617C4A083A516070E0E6
:100910007A493C31884208D178490839496841F41C
:100920007041764A083A516063E074495031884218
:1009300008D172490839496841F470216F4A083A70
:10094000516056E06D496431884208D16B490839DD
:10095000496841F47001694A083A516049E06749C1
:100960007831884208D165490839496841F0706199
:10097000624A083A51603CE06149884206D1011F51
:10098000096841F00F01021F116032E05C49143127
:10099000884208D15A49091F096841F0F001584AB4
:1009A000121F116025E056492831884208D1544968
:1009B000091F096841F47061514A121F116018E063
:1009C0004F493C31884208D14D49091F096841F41B
:1009D00070414B4A121F11600BE049495031884267
:1009E00007D14749091F096841F47021444A121F81
:1009F0001160704710B50022026847F6F0739A4301
:100A00000C6A8B6823430C6923434C6923438C692C
:100A10002343CC6923434C6A23438C6A23431A4300
:100A20000260CB6843600B6883604B68C36010BD95
:100A30000021016041608160C160016141618161AB
:100A4000C161016241628162704721B1026842F076
:100A50000102026004E002684FF6FE731A40026071
:100A600070471AB103680B43036002E003688B43CD
:100A700003607047416070470146486880B2704724
:100A800001460020002201F080531BB11C4B083BA3
:100A90001A6802E0194B083B1A6802EA01030BB11D
:100AA000012000E00020704700F0805119B1144986
:100AB000091F086002E01149083948607047014683
:100AC0000020002201F080531BB10D4B083B1A6837
:100AD00002E00A4B083B1A6802EA01030BB101204D
:100AE00000E00020704700F0805119B10449091F4F
:100AF000086002E001490839486070470800024078
:100B000008040240002044490860091D0860091DCE
:100B10000860091D086041483F491431086070476A
:100B200000213D498279002A3AD00A4612680368BA
:100B30009A430B461A600A1D126803689A430B1DFC
:100B40001A60027911440A6803681A430A60324A3B
:100B50000832126803689A432F4B08331A601A1D33
:100B6000126803689A432C4B0C331A604279102A9E
:100B70000ED11A1F126803681A43274B08331A60F4
:100B80001A1D126803681A43234B0C331A600DE0D8
:100B90002149427911440A6803681A430A6005E052
:100BA000027911440A6803689A430A607047002179
:100BB000016001710C21417100218171704716495A
:100BC000103109680143144A103211607047014620
:100BD0000020114A143212680A400AB1012000E0D4
:100BE000002070470C49143108607047014600200E
:100BF0000022094B1B6803EA0102074B14331B68F0
:100C00000B4013B10AB1012000E0002070470249F7
:100C1000143108607047000000040140FFFF0F001E
:100C200010B50446CC48844208D10121042000F0CC
:100C30002DFB0021042000F029FB46E0C748844238
:100C400008D10121082000F021FB0021082000F03C
:100C50001DFB3AE0C248844208D10121102000F077
:100C600015FB0021102000F011FB2EE0BD4884424E
:100C700008D10121202000F009FB0021202000F0F4
:100C800005FB22E0B848844208D10121402000F051
:100C9000FDFA0021402000F0F9FA16E0B348844242
:100CA00008D10121802000F0F1FA0021802000F01D
:100CB000EDFA0AE0AE48844207D10121801500F028
:100CC000E5FA0021A01500F0E1FA10BD10B50121F0
:100CD000084600F0DBFA0021012000F0D7FA10BD31
:100CE0002DE9F041024600250026002000230024C3
:100CF000002791F803C00CF00F0591F803C00CF029
:100D0000100CBCF1000F03D091F802C04CEA0505AD
:100D100091F800C0BCF1000F31D0146800202BE026
:100D20004FF0010C0CFA00F3B1F800C00CEA030616
:100D30009E4220D183004FF00F0C0CFA03F7BC4306
:100D400005FA03FC4CEA040491F803C0BCF1280F37
:100D500006D14FF0010C0CFA00FCC2F814C00AE0F6
:100D600091F803C0BCF1480F05D14FF0010C0CFA0B
:100D700000FCC2F810C0401C0828D1D31460B1F8A0
:100D800000C0BCF1FF0F34DD546800202EE000F1FC
:100D9000080C4FF0010808FA0CF3B1F800C00CEA97
:100DA00003069E4221D183004FF00F0C0CFA03F78B
:100DB000BC4305FA03FC4CEA040491F803C0BCF1FF
:100DC000280F05D100F1080C08FA0CF8C2F81480BD
:100DD00091F803C0BCF1480F07D100F1080C4FF0A7
:100DE000010808FA0CF8C2F81080401C0828CED37D
:100DF0005460BDE8F0814FF6FF71018002218170DF
:100E00000421C17070470246002093680B400BB16B
:100E1000012000E0002070470146886880B27047DA
:100E200002460020D3680B400BB1012000E00020F7
:100E300070470146C86880B27047016170474161E0
:100E400070470AB1016100E041617047C1607047BD
:100E50004FF480320A4382618161826182698269D2
:100E6000704702460020434B18684FF680731840C5
:100E700040EA021008433F4B186070473E49C86182
:100E80007047F0B50A46002300240021002500F039
:100E90000046B6F1004F02D1364EF16901E0354E01
:100EA0007168C0F3034583B200F44016B6F5401FE5
:100EB00008D121F070612F4E766826F070662D4FB4
:100EC0007E6012E000F48016B6F5801F06D103267E
:100ED00006FA05F4A14341F0706106E0460D3601C3
:100EE00003FA06F6B14341F0706122B1460D3601B6
:100EF00003FA06F6314300F00046B6F1004F02D186
:100F00001C4EF16101E01B4E7160F0BD30B5002256
:100F10008B071C0F0F2303FA04F2164B08338C10B7
:100F200053F824309343134C08348D1044F8253083
:100F300023468C1053F824308C07240F00FA04F455
:100F400023430C4C08348D1044F8253030BD0A4939
:100F5000DC3108607047000000080140000C0140CF
:100F6000001001400014014000180140001C014025
:100F7000002001400000014000002042DF480068DE
:100F800040F00100DD49086008464068DC4908403F
:100F9000DA49486008460068DA490840D7490860DD
:100FA0000846006820F4802008600846406820F465
:100FB000FE0048604FF41F0088607047CF49096801
:100FC00021F48031CD4A11601146096821F4802155
:100FD0001160B0F5803F03D0B0F5802F0ED106E050
:100FE000C649096841F48031C44A116007E0C34929
:100FF000096841F4A021C14A116000E000BF00BFB0
:10100000704710B501460022002300204A11012A32
:1010100002D1BA4C236806E0022A02D1B74C236AF7
:1010200001E0B64C636A01F01F02012494401C40A9
:101030000CB1012000E0002010BD38B50020009068
:101040000024002500BF3120FFF7DBFF0546009894
:10105000401C00900098B0F5A06F01D0002DF2D098
:101060003120FFF7CEFF08B1012400E00024204624
:1010700038BD01460020A14A106820F0F80040EA7F
:10108000C10010607047A049086070470246002008
:101090009A4B586820F47C1042EA01031843974B9E
:1010A0005860704798490866704701460020934A87
:1010B000506820F003000843506070478F48406834
:1010C00000F00C007047014600208C4A506820F068
:1010D000F00008435060704701460020874A50687E
:1010E00020F4E06008435060704701460020834AC6
:1010F000506820F4605040EAC1005060704729B148
:101100007E4A527A02437D4B5A7204E07B4A527AFD
:1011100082437A4B5A7270477B49D83108607047D6
:1011200001460020754A506820F440400843506052
:1011300070470021714A20321170704A82F82010E5
:10114000012802D004280AD104E001216B4A203290
:10115000117005E00521694A2032117000E000BFDE
:1011600000BF70476949086070476449096A0143D4
:10117000624A11627047654944390860704730B56A
:1011800000210022002400235C4D6D6805F00C0155
:1011900021B1042905D0082923D105E05C4D056063
:1011A00022E05B4D05601FE0544D6D6805F4701240
:1011B000524D6D6805F48034022505EB92421CB94E
:1011C000544D554305600BE04C4D6D6805F40035FA
:1011D0001DB1504D5543056002E04D4D554305602E
:1011E00002E04B4D056000BF00BF444D6D6805F047
:1011F000F0010909484D6B5C0568DD4045603F4DD5
:101200006D6805F4E061090A434D6B5C4568DD409B
:1012100085603A4D6D6805F46051C90A3E4D6B5CBE
:101220004568DD40C560354D6D6805F44041890B6A
:101230003A4D6B5CC568B5FBF3F5056130BD29B16E
:101240002E4A526902432D4B5A6104E02B4A5269DF
:1012500082432A4B5A61704729B1284A9269024356
:10126000264B9A6104E0254A92698243234B9A6196
:10127000704729B1214AD2690243204BDA6104E068
:101280001E4AD26982431D4BDA61704729B11B4A5D
:10129000D2680243194BDA6004E0184AD2688243EC
:1012A000164BDA60704729B1144A12690243134B96
:1012B0001A6104E0114A12698243104B1A617047A7
:1012C00012494039086070470F49C86470470B499C
:1012D000C87170470948406A40F080700749486209
:1012E000704701460020054A92680A400AB1012071
:1012F00000E00020704701498872704700100240EA
:101300000000FFF8FFFFF6FE000042428004424268
:1013100000127A0000093D00140000202400002083
:1013200010B50446FB48844209D101218803FFF728
:10133000ADFF00214FF48040FFF7A8FF32E0F648F0
:10134000844209D101214804FFF7ADFF00214FF489
:101350000030FFF7A8FF25E0F048844209D10121C1
:101360008804FFF7A0FF00214FF48020FFF79BFFC8
:1013700018E0EB48844209D10121C804FFF793FF2C
:1013800000214FF40020FFF78EFF0BE0E548844278
:1013900008D101210805FFF786FF00214FF48010D6
:1013A000FFF781FF10BD2DE9F04786B005460E46D8
:1013B0000024A24600BFA1460027B08900B100BFAB
:1013C0002F462C8A4CF6FF700440F08804432C8290
:1013D000AC894EF6F3100440B08831890843718916
:1013E00008430443AC81AC8A4FF6FF400440B08907
:1013F0000443AC8201A8FFF7C2FEC648874202D16F
:10140000DDF810A001E0DDF80CA0A88900F4004090
:1014100040B10AEBCA0000EB0A1031684900B0FB8A
:10142000F1F807E00AEBCA0000EB0A103168890006
:10143000B0FBF1F86420B8FBF0F00401200964214E
:1014400001FB1089A88900F4004040B1322000EB74
:10145000C900B0FBF1F000F00700044308E03220BF
:1014600000EB09106421B0FBF1F000F00F00044321
:101470002C8106B0BDE8F0874FF4165101600021C1
:101480008180C18001810C214181002181817047CF
:1014900010B502460020108A4FF2FF0318400B8857
:1014A0004C8823438C882343CC88234318431082E1
:1014B00010BD0021018041808180C180704721B131
:1014C000828942F40052828104E082894DF6FF73E2
:1014D0001A4082817047F0B503460024002600259B
:1014E000002040F66A17B94200D100BF1846C1F388
:1014F000421401F01F06012707FA06F5012C01D15D
:101500000C3004E0022C01D1103000E014301AB18C
:1015100007682F43076002E00768AF430760F0BD2C
:101520001AB1838A0B43838202E0838A8B438382CE
:101530007047028A4FF6F0731A400282028A0A4309
:101540000282704782894FF2FF731A40828182893A
:101550000A438281704721B1828942F0020282816E
:1015600004E082894FF6FD731A4082817047028A37
:101570004FF6DF731A400282028A0A4302827047E2
:1015800021B1028A42F48042028204E0028A4BF6D0
:10159000FF731A4002827047C1F3080282807047CD
:1015A00001468888C0F308007047818941F0010135
:1015B00081817047028BD2B20283028B42EA012200
:1015C00002837047028B02F47F420283028B0A433C
:1015D0000283704721B1828A42F02002828204E0B5
:1015E000828A4FF6DF731A408282704721B1828A65
:1015F00042F01002828204E0828A4FF6EF731A40B2
:101600008282704721B1828A42F00802828204E01D
:10161000828A4FF6F7731A408282704721B182891D
:1016200042F40042828103E08289C2F30E02828189
:10163000704721B1828A42F40062828204E0828A89
:101640004FF2FF731A4082827047828A4FF6FB7313
:101650001A408282828A0A438282704721B1828A3A
:1016600042F00202828204E0828A4FF6FD731A4041
:101670008282704702460020B1F5007F00D100BF92
:1016800013880B400BB1012000E00020704701F4EB
:101690000072B2F5007F00D100BFCA4302807047DC
:1016A00070B50246002400230025002040F66A168B
:1016B000B14200D100BFC1F3421501F01F03012662
:1016C00006FA03F3012D02D19689334006E0022D7C
:1016D00002D1168A334001E0968A33400C1201266B
:1016E00006FA04F41688344013B10CB1012000E06E
:1016F000002070BD10B50022002340F66A14A142FC
:1017000000D100BF0A1201249440A3B2DC4304803C
:1017100010BD000000380140004400400048004077
:10172000004C0040005000400648804706480047F3
:10173000FEE7FEE7FEE7FEE7FEE7FEE7FEE7FEE781
:10174000FEE7FEE783020008ED000008704700BFD7
:10175000FEE700BFFEE700BFFEE700BFFEE7704701
:1017600008B52020FFF742FAC8B10D480078401CA8
:101770000B4908700846007802280DDB69460948C5
:10178000006802F0B5FA009818B14FF08050064991
:1017900008600020024908702020FFF738FA08BDD1
:1017A000280000206000002004ED00E010B50022B9
:1017B0003221052002F0FAF8474908600022322160
:1017C000012002F0F3F8454908600022322105208B
:1017D00002F0ECF84249086000223221012002F0B8
:1017E000E5F84049086003220021012002F0DEF8FC
:1017F0003D49086010BD1FB500203C4A0623CDE9D5
:101800000120009303900346802239A13B4802F057
:10181000A7FC00203A4A0923CDE901200093039058
:101820000346802237A13A4802F09AFC0020394A48
:101830000723CDE901200093039003464FF4807203
:1018400035A1394802F08CFC0020384A0A23CDE942
:1018500001200093039003464FF4807234A137486F
:1018600002F07EFC0020364A0B23CDE901200093D4
:1018700003900346802233A1364802F071FC002019
:10188000354A0C23CDE901200093039003464FF421
:10189000007232A1354802F063FC0020344A0C2368
:1018A000CDE901200093039003464FF4007231A16B
:1018B000344802F055FC1FBD012080F3108800BFA2
:1018C00000F082FA00F076F8FFF795FFFFF76EFF61
:1018D00003F005F900BFFEE750000020540000208F
:1018E000580000205C000020600000202C00002038
:1018F0005461736B204C656400000000C552000801
:10190000300000205461736B204B657900000000AB
:101910004B530008440000205461736B20446973EA
:10192000706C617900000000AD5300084C0000208D
:101930005461736B204D7075000000001D55000848
:10194000480000205461736B204A6F7953746963B7
:101950006B000000B95400083C0000205461736B18
:10196000205561727433527800000000455500081C
:10197000400000205461736B2055617274335478B9
:10198000000000006955000870B50446049D601A07
:10199000EE1A7043561A90FBF6F0184470BD0146DB
:1019A000002901DA484200E0084670470120064954
:1019B0000870704710B5FFF7F9FF00F064F903F005
:1019C000FBFD05F01DF810BD6400002030B5034696
:1019D0000C4600211AE0585C2578A84200D014E09B
:1019E000002206E0521CA05C8D185D5DA84200D06C
:1019F00005E0A05C18B18818185C0028F2D100BF7F
:101A0000A05C08B9084630BD00BF491C585C0028DE
:101A1000E1D1401EF7E72DE9FE4304460E464FF0A4
:101A20000009002000900190029031462046FFF707
:101A3000CDFF05466019D0F803100091C0798DF8EC
:101A40000400601980782B2807D1684606F031FC25
:101A5000074605F0AEFE814608E0684606F029FC20
:101A600081F00041074605F0A4FE81464846BDE8E6
:101A7000FE832DE9F84306460F4614461D46A04650
:101A8000002000903221304605F0B7FC4FEA186084
:101A90008DF800002A463946304605F095FC0020B6
:101AA000BDE8F883FEB505460F4616461C460020E5
:101AB0000090019002903221284605F09EFC002EF5
:101AC00008DD22463946284605F07EFC52A10978F9
:101AD000295508E022463946284605F075FC4FA1F5
:101AE00009782955764232464DA1684606F08EFAAD
:101AF0004C4886420ADA42F20F70864206DD281907
:101B00000099C0F801109DF80410417142F2107064
:101B100086420ADAB6F57A7F07DB281942A10978EE
:101B2000417028190099C0F80210B6F57A7F0EDAD4
:101B3000632E0CDD28193DA10988A0F80110281991
:101B4000BDF80010A0F803109DF802104171642E3A
:101B50000CDA092E0ADD281935A10A88A0F801201F
:101B60008978C1702819BDF8001081800A2E08DA22
:101B7000281930A10968C0F8011028199DF8001033
:101B800041712320291988710020FEBDF0B589B06C
:101B900004460F4615461E4650208DF800008DF86D
:101BA000014003208DF8020000208DF803008DF81D
:101BB00004708DF805500023324669461F480068BE
:101BC00001F0ACFF09B0F0BD2DE9F0418AB0054647
:101BD0000E4617461C46DDF8408050208DF8040064
:101BE0008DF80550A01CC0B28DF8060001208DF8BC
:101BF00007008DF80860224639460DF1090005F00E
:101C0000E3FB0023424601A90C48006801F086FF6F
:101C10000AB0BDE8F08100002B0000002D0000009C
:101C2000256C6400A0860100300000003030000008
:101C30003030300030303030000000005C000020D8
:101C40000120134908700220487064204860112068
:101C500010490870022048706420486001200E4935
:101C60000870022048706420486002200B49087008
:101C700048706420486011200949087002204870AB
:101C800064204860704710B5FFF7DAFF10BD000010
:101C900068000020700000207800002080000020F4
:101CA000880000201949096841F08071174A1160C5
:101CB0001749096841F00101154A1160154908608A
:101CC000704770B50446124845681248006810B95C
:101CD0001148FFF7E7FF0F480068104990FBF1F04B
:101CE00000FB04F6AB19AB4205DD00BF08484068B5
:101CF0009842FBD309E000BF054840689842FBD2F8
:101D000000BF034840689842FBD370BDFCED00E083
:101D1000001000E09000002000A24A0440420F00A2
:101D200038B5044601212069FFF796FA208B80B26E
:101D3000ADF8000010208DF8030003208DF802009C
:101D400069466069FEF7CCFF38BD10B51B48FFF748
:101D5000E7FF1B48FFF7E4FF1A48FFF7E1FF174AC8
:101D6000128B91B2154A5069FFF769F8144A128B29
:101D700091B2134A5069FFF762F8124A128B91B27E
:101D8000104A5069FFF75BF810BD19B9D0E9052377
:101D9000136112E0002903DAD0E9052353610CE056
:101DA0008268521C82608A4207DB4269D26883697A
:101DB0005A404369DA600022826070479400002034
:101DC000B0000020CC00002010B54FF44070FEF7AA
:101DD000D9FA0748FFF766FFFFF7B7FF00F01CF8D6
:101DE00000F0BAFF01F0B9F9052001F049FA10BD81
:101DF00000A24A0438B504460121A068FFF72CFA76
:101E0000208A80B2ADF8000028208DF803006946D2
:101E1000E068FEF765FF38BD10B53B48FFF7EAFF05
:101E20003A48FFF7E7FF3A48FFF7E4FF3948FFF782
:101E3000E1FF3948FFF7DEFF3848FFF7DBFF38489E
:101E4000FFF7D8FF3748FFF7D5FF10BD10B50446A0
:101E5000A088401CA080607820B1012812D0022800
:101E60004FD120E0228A91B2E068FEF7CCFF30B972
:101E7000012060700020A080A071A07001E000200F
:101E8000A0803FE0228A91B2E068FEF7BCFF10B963
:101E90000220607006E00020607023490870A07086
:101EA000A080A0712EE0228A91B2E068FEF7ABFF1D
:101EB000012819D1A088322805DA20781A4908703B
:101EC0000120A07003E0002017490870A070E0799D
:101ED000012802D10020E07101E00120E071002022
:101EE0006070A080A0710BE0A088322801DD022084
:101EF000A070A08841F28831884201DD0846A080A8
:101F000000E000BF00BF10BD080100201C01002040
:101F10003001002044010020580100206C01002005
:101F200080010020940100200401002038B50446FF
:101F30000E208DF8000006208DF8010000208DF89D
:101F4000020001208DF803006846FEF720FA2520E4
:101F50008DF800008DF8014000208DF8020001206E
:101F60008DF803006846FEF712FA38BD00B58BB055
:101F700001210846FFF763F90021CB48FEF765FD14
:101F8000C948FEF795FCC9480090C9480190102047
:101F900002903220039000200490802005900020C1
:101FA0000690079008904FF44050099000200A9046
:101FB0006946BD48FEF71EFD4FF48050FEF774FDE4
:101FC0000021B948FEF741FD01220221B648FEF783
:101FD00048FD0021B4481430FEF737FDB2481430F4
:101FE000FEF766FCB1480090B248019000200290D4
:101FF000322003900020049080200590002006905D
:10200000079008904FF44050099000200A906946CC
:10201000A5481430FEF7EEFC4FF48030FEF744FD87
:102020000121A1481430FEF710FD0BB000BD10B522
:1020300086B0044601210420FFF70EF90121880330
:10204000FFF70AF94FF40070ADF8140018208DF86E
:10205000170003208DF8160005A99748FEF740FEEB
:102060004FF48060ADF8140004208DF8170005A926
:102070009148FEF735FE2046FFF758FFFFF776FF41
:102080004FF4E13001900020ADF80800ADF80A00EF
:10209000ADF80C00ADF810000C20ADF80E0001A951
:1020A0008248001FFFF77FF9012240F224417F4858
:1020B000001FFFF710FA01217C48001FFFF7FFF90E
:1020C000012280217948001FFFF72AFA01224021CE
:1020D0007648001FFFF724FA06B010BD10B504467D
:1020E00001207649087070484438846401216E48A4
:1020F000FEF7ABFC10BD10B54FF48050FEF7DFFCCF
:1021000050B100206D4908704FF48050FEF7CCFCB0
:1021100000216548FEF799FC10BD08B5002000902D
:1021200040F224416148001FFFF7BAFAB8B340F209
:1021300024415E48001FFFF7DDFA5C48001FFFF7EF
:102140002FFA10215948001FFFF7A1FA0021564825
:102150001430FEF77AFC4FF48030FEF7A5FC5248AD
:102160001430FEF789FCC0F1320055490870322066
:102170004D494439C86500236A464E4951480068B4
:1021800001F060FD4B484849443948660121464802
:102190001430FEF75AFC4548001FFFF701FA00987B
:1021A00018B14FF080504849086008BD70B5054629
:1021B0000C46002C03DA284605F02AF904B200BFC9
:1021C0003E4800780028FBD1394921444870224616
:1021D0002946374805F0F8F8A0B2FFF77FFF70BD39
:1021E00070B504460D4629462046FFF7D5F900BFD5
:1021F00080212046FFF73EFA0028F9D070BD70B567
:1022000006460C46002500BF615D3046FFF7E8FF3B
:102210006D1C605D0028F7D100BF40213046FFF7FC
:1022200029FA0028F9D070BD2DE9F04105460C4689
:10223000260AE7B231462846FFF7AEF900BF8021F3
:102240002846FFF717FA0028F9D039462846FFF745
:10225000A3F900BF80212846FFF70CFA0028F9D027
:10226000BDE8F08170B504460D46E1B20F48001F8D
:10227000FFF792F900BF80210C48001FFFF7FAF921
:102280000028F8D0204670BD10B5044600BF2021BC
:102290000648001FFFF7EEF90028F8D00348001F9A
:1022A000FFF77EF910BD00004400024004380140F1
:1022B000200200205202002000080140A801002056
:1022C000A90100205400002004ED00E070B5044690
:1022D0000E462EB14FF40041FB48FEF7AEFD04E080
:1022E0004FF40041F848FEF7AAFD00251BE04FF42B
:1022F0008051F548FEF7A3FD04F0800028B14FF4AB
:102300000051F148FEF799FD04E04FF40051EE480A
:10231000FEF795FD4FF48051EB48FEF78EFD600609
:10232000040E681CC5B2082DE1DB4FF40041E648FD
:10233000FEF783FD70BD70B504460D4605F1B00192
:10234000C8B20021FFF7C2FFA11CC1F3031141F085
:1023500010000021FFF7BAFFA11C01F00F000021BF
:10236000FFF7B4FF70BDF0B5144600267F2801DCEE
:102370003F2900DDF0BD0B46CF1701EB5777FF106B
:10238000C7F10707FAB2CF1701EB5777FF10A1EBA0
:10239000C707FDB2C5F107070123BB40DEB24CB150
:1023A000CA4B03EBC0039B5C3343C84F07EBC0072A
:1023B000BB5408E0C54B03EBC0039B5CB343C34F66
:1023C00007EBC007BB5400BFD4E770B50246002539
:1023D000C1F13F00C1B20846CE1701EB5676F310AB
:1023E000CE1701EB5676F610A1EBC606F4B201202B
:1023F000A040C5B2B54800EBC200C05C284008B19F
:10240000012070BD0020FCE710B500218D20FFF7F2
:102410005DFF00211420FFF759FF0021AF20FFF7D7
:1024200055FF10BD10B500218D20FFF74FFF002193
:102430001020FFF74BFF0021AE20FFF747FF10BD34
:1024400070B500241CE004F1B001C8B20021FFF710
:102450003DFF00210220FFF739FF00211020FFF788
:1024600035FF002508E0994901EBC501085D012110
:10247000FFF72CFF681CC5B2802DF4DB601CC4B2D2
:10248000082CE0DB70BD70B500240CE0002506E0F0
:1024900000208E4901EBC5010855681CC5B2802D8E
:1024A000F6DB601CC4B2082CF0DBFFF7C9FF70BD7F
:1024B00070B500240CE0002506E0FF20834901EB05
:1024C000C5010855681CC5B2802DF6DB601CC4B27E
:1024D000082CF0DBFFF7B4FF70BD2DE9F04706468E
:1024E0000F4690469946DDF820A034460CE03D4664
:1024F00006E0524629462046FFF735FF681CC5B264
:102500004D45F6DD601CC4B24445F0DDBDE8F08702
:102510002DE9FF4F82B007460C4690460025002665
:10252000A9460097A3460598012802D0022852D157
:1025300052E0B8F1000F4ED0A8F12000C5B26448B7
:102540000078012804D1002D02DB6149087002E007
:1025500000205F4908707E2F02DD0027601CC4B296
:10256000002636E005EB45005A4901EB400010F823
:1025700006A04FF0000926E00AF0800058B1544848
:10258000007808B9012000E00020024621463846C4
:10259000FFF7E9FE05E04E48027821463846FFF78E
:1025A000E2FE4FEA4A604FEA106A601CC4B2A4EB34
:1025B0000B00082803D15C46781CC7B206E009F17D
:1025C000010000F0FF09B9F1080FD5DB00BF701C56
:1025D000C6B2062EC6DB73E0B8F1000F6FD0A8F1CB
:1025E0002000C5B23A480078012804D1002D02DB52
:1025F0003749087002E0002035490870782F02DD65
:102600000027601CC4B2002657E006EB05103249D3
:1026100011F800A006EB05100830085C01904FF09F
:10262000000944E00AF0800058B12948007808B950
:10263000012000E00020024621463846FFF793FEC5
:1026400005E02348027821463846FFF78CFE0198C2
:1026500000F0800068B11E48007808B9012000E051
:102660000020024604F10800C1B23846FFF77BFEA5
:1026700007E004F10800C1B2154802783846FFF7B8
:1026800072FE4FEA4A604FEA106A01984006000E57
:102690000190601CC4B2A4EB0B00082803D15C4677
:1026A000781CC7B206E009F1010000F0FF09B9F19A
:1026B000080FB7DB00BF701CC6B2082EA5DB00BF39
:1026C00000BF06B0BDE8F08F000C0140840200207E
:1026D000AB010020DC820008048500082DE9F041F0
:1026E00007460E469046002500244546FE480078E1
:1026F000012804D1002D02DBFB49087002E0002014
:10270000F9490870782F02DD0027701CC6B23146E7
:102710003846FFF710FE002408E004EB8511F34A69
:10272000505C0121FFF7D2FD601CC4B2082CF4DB21
:1027300007F10801C8B23146FFF7FDFD002409E0AA
:1027400004EB85110831E94A505C0121FFF7BEFD19
:10275000601CC4B2082CF3DB701CC1B23846FFF712
:10276000EAFD002409E004EB85111031DF4A505CDA
:102770000121FFF7ABFD601CC4B2082CF3DB721C17
:10278000D1B207F10802D0B2FFF7D5FD002409E06D
:1027900004EB85111831D54A505C0121FFF796FDF5
:1027A000601CC4B2082CF3DBB01CC1B23846FFF782
:1027B000C2FD002409E004EB85112031CB4A505CB6
:1027C0000121FFF783FD601CC4B2082CF3DBB21CAF
:1027D000D1B207F10802D0B2FFF7ADFD002409E045
:1027E00004EB85112831C14A505C0121FFF76EFDD1
:1027F000601CC4B2082CF3DBF01CC1B23846FFF7F2
:102800009AFD002409E004EB85113031B74A505C91
:102810000121FFF75BFD601CC4B2082CF3DBF21C46
:10282000D1B207F10802D0B2FFF785FD002409E01C
:1028300004EB85113831AD4A505C0121FFF746FDAC
:10284000601CC4B2082CF3DBBDE8F08110B5024671
:10285000012000E050430B00A1F10104E1B2F9D1E5
:1028600010BD2DE9FF4F87B0064692461F46DDE9B1
:102870001494D346002004900021504604F0E8FF51
:1028800016D223462D2230460899FFF741FE012C2F
:1028900005D104EB440006EB4000C6B202E006EBB3
:1028A0008400C6B2781EC7B28AF0004A8BF0004B93
:1028B000504604F065FF069000254DE0781B401E51
:1028C000C1B20A20FFF7C2FF0699B1FBF0F00A215E
:1028D000B0FBF1F201FB12080498F8B9781EA84287
:1028E0001CDDB8F1000F17D1012C0BD104EB440112
:1028F000490001FB0561C8B2234620220899FFF771
:1029000007FE08E0A10001FB0561C8B223462022B2
:102910000899FFF7FDFD1DE001200490012C0DD169
:1029200008F13001CAB204EB4401490001FB056122
:10293000C8B223460899FFF7EBFD0AE008F1300121
:10294000CAB2A10001FB0561C8B223460899FFF78E
:10295000DFFD00BF681CC5B2BD42AFDBB9F1000F9F
:1029600071D0012C0BD104EB4401490007FB01613C
:10297000C8B223462E220899FFF7CAFD08E0A1003D
:1029800007FB0161C8B223462E220899FFF7C0FD5C
:10299000584604F02DFF564A564BCDE9000104F08D
:1029A000C8FDCDE9020104F036FF834649460A20FE
:1029B000FFF74CFF009004F0DEFE0290069804F052
:1029C000DAFE5946009004F07FFD0190029904F070
:1029D0007EFD039004F0D4FE0590002551E0A9EBA4
:1029E0000500401EC1B20A20FFF730FF0599B1FB78
:1029F000F0F00A21B0FBF1F201FB12084D453EDA7E
:102A0000B8F1000F20D0012C0FD104EB44014B0092
:102A1000E919491C03FB0161C8B208F13001CAB2CF
:102A200023460899FFF774FD29E0A300E919491C22
:102A300003FB0161C8B208F13001CAB2234608990C
:102A4000FFF766FD1BE01EE0012C0DD104EB4401F5
:102A50004A00E919491C02FB0161C8B22346302231
:102A60000899FFF755FD0AE0A200E919491C02FB8D
:102A70000161C8B2234630220899FFF749FD681C5E
:102A8000C5B24D45ABDB0BB0BDE8F08F2DE9F0478B
:102A90000646894617461D464FF0000A002F0ADAFF
:102AA0000B2249463046FFF719FE06F11000C6B268
:102AB000681EC5B27F42002435E0281B401EC1B20B
:102AC0000A20FFF7C3FEB7FBF0F00A21B0FBF1F2DA
:102AD00001FB1208BAF1000F19D1681EA04216DDE1
:102AE000B8F1000F11D107E0AB010020F48A000813
:102AF000F168E388B5F8E43E102101FB0461C8B237
:102B00000D224946FFF7EAFD0BE04FF0010A08F0FD
:102B1000FF02102101FB0461C8B24946FFF7DEFD48
:102B200000BF601CC4B2AC42C7DBBDE8F0872DE932
:102B3000F04104460F4615469846002615E0AA5D6A
:102B4000434639462046FFF7E3FCB8F1020F03D1B4
:102B500004F10800C4B201E0A01DC4B2782C02DD6B
:102B60000024B81CC7B2701CC6B2A85D0028E6D10C
:102B7000BDE8F0812DE9F84F06460C4617460025C2
:102B8000A8460096A34600BF57E07800401CE549E0
:102B900001EB401010F8059001EB871010F805A02C
:102BA0004FF0000843E009F0800058B1DE4800789B
:102BB00008B9012000E00020024621463046FFF718
:102BC000D2FB05E0D848027821463046FFF7CBFB20
:102BD0000AF0800068B1D448007808B9012000E00C
:102BE0000020024604F10800C1B23046FFF7BBFBEB
:102BF00007E004F10800C1B2CB4802783046FFF785
:102C0000B2FB4FEA49604FEA10694FEA4A604FEA67
:102C1000106A601CC4B2A4EB0B00082803D15C4608
:102C2000701CC6B206E008F1010000F0FF08B8F120
:102C3000080FB8DB00BF681CC5B2102DA5DBBDE8CE
:102C4000F88F2DE9FF4F85B081460E461F46129C36
:102C50000396029709EB0700802803DDC7F1800087
:102C6000C0B2029025463019402802DDC4F1400070
:102C7000C5B22046E21704EB5272D2102146E31788
:102C800004EB5373DB10A4EBC3030BB1012300E08F
:102C900000231A44D2B201922846EA1705EB527279
:102CA000D2102946EB1705EB5373DB10A5EBC303DA
:102CB0000BB1012300E000231A44D2B200924FF07E
:102CC000000843E04FF0000A39E0019808FB00A13A
:102CD000079810F801B00020049028E00BF0800065
:102CE00058B19148007808B9012000E00020024660
:102CF00031464846FFF737FB05E08B4802783146FE
:102D00004846FFF730FB4FEA4B604FEA106B701CF0
:102D1000C6B20398301AA84205D1039E09F10100FA
:102D200000F0FF0906E00498401CC0B2049004982B
:102D30000828D3DB00BF0AF1010000F0FF0A009869
:102D40008245C2DB08F1010000F0FF0802988045CF
:102D5000B8DB09B0BDE8F08F1FB501210820FEF7F0
:102D60007BFA4FF40040ADF8080010208DF80B00FE
:102D700003208DF80A0002A96C48FDF7B1FF01217C
:102D80000820FEF769FA4FF48040ADF804001020E7
:102D90008DF8070003208DF8060001A96348FDF7B0
:102DA0009FFF01210820FEF757FA4FF48050ADF83D
:102DB0000C0010208DF80F0003208DF80E0003A9E1
:102DC0005A48FDF78DFF01210820FEF745FA4FF420
:102DD0000050ADF8000010208DF8030003208DF89E
:102DE000020069465148FDF77BFF4FF480514F4880
:102DF000FEF723F84FF400514C48FEF71EF84FF44D
:102E000000414A48FEF719F84FF480414748FEF761
:102E100014F84FF480414548FEF711F84448FEF796
:102E200050FF4FF480414148FEF707F80021AE20E3
:102E3000FFF74CFA00210220FFF748FA002110208A
:102E4000FFF744FA00214020FFF740FA00218120DB
:102E5000FFF73CFA0021CF20FFF738FA0021A1202C
:102E6000FFF734FA0021C820FFF730FA0021A6202E
:102E7000FFF72CFA0021A820FFF728FA00213F20B5
:102E8000FFF724FA0021D320FFF720FA002108469B
:102E9000FFF71CFA0021D520FFF718FA0021802047
:102EA000FFF714FA0021D920FFF710FA0021F120D2
:102EB000FFF70CFA0021DA20FFF708FA00211220B0
:102EC000FFF704FA0021DB20FFF700FA0021402081
:102ED000FFF7FCF900212020FFF7F8F9002102207C
:102EE000FFF7F4F900218D20FFF7F0F900211420FD
:102EF000FFF7ECF90021A420FFF7E8F90021A62054
:102F0000FFF7E4F90021AF20FFF7E0F90021AF203F
:102F1000FFF7DCF9FFF7B7FA00210846FFF70BFAD5
:102F20001FBD0000748E0008AB010020000C0140A2
:102F3000A086010070B586B0064600250024142145
:102F400001A804F05AFA14E000240EE001A850F899
:102F50002400052101FB0541844A32F81110084480
:102F600001A941F82400601CC4B2052CEEDB681CEA
:102F700085B20A2DE8DB002409E001A850F82400FE
:102F80000A21B0FBF1F026F81400601CC4B2052C35
:102F9000F3DB06B070BD10B501460022002008E04A
:102FA000052303FB0013714C34F813301A44431CFF
:102FB000D8B20A28F4DB0A20B2FBF0F080B210BDD0
:102FC00008B501210C20FEF747F90120ADF80000FB
:102FD00000208DF8030069466548FDF781FE022058
:102FE000ADF8000000208DF8030069466048FDF749
:102FF00077FE0120ADF8000000208DF8030069463F
:103000005C48FDF76DFE0220ADF8000000208DF851
:10301000030069465748FDF763FE0420ADF8000041
:1030200000208DF8030069465148FDF759FE08BDA0
:1030300000B58BB001210846FEF701F94E48FDF7B7
:1030400037FC4E4800904948019000200290322001
:10305000039000200490802005904000069080009E
:103060000790202008900002099000200A906946ED
:103070004148FDF7BFFC01213F48FDF7E6FC0BB0DE
:1030800000BD00B585B001214802FEF7E5F83B48D8
:103090004C38FDF7E5F90020009001208DF8040080
:1030A0008DF805004FF46020029000200390052069
:1030B0008DF81000694631484C38FDF7F8F90121C8
:1030C0002E484C38FDF71FFA01212C484C38FDF7EB
:1030D00025FA4FF40040FEF723F8072301220221CE
:1030E00026484C38FDF77BFA0723022200212348AB
:1030F0004C38FDF774FA0723032201211F484C388E
:10310000FDF76DFA0723042208211C484C38FDF70F
:1031100066FA07230522092118484C38FDF75FFAA3
:1031200016484C38FDF711FA00BF14484C38FDF72B
:1031300011FA0028F9D111484C38FDF715FA00BFF3
:103140000E484C38FDF715FA0028F9D101210B483B
:103150004C38FDF718FA05B000BD10B5FFF730FF89
:10316000FFF766FFFFF78DFF10BD0000840600200B
:1031700000080140000C0140080002404C240140BE
:1031800038B504460C208DF8000006208DF80100AB
:1031900000208DF8020001208DF803006846FDF73D
:1031A000F6F827208DF800008DF8014000208DF8FA
:1031B000020001208DF803006846FDF7E8F838BDED
:1031C00000B58BB001210846FEF739F80021984878
:1031D000FDF73BFC9648FDF76BFB96480090964840
:1031E0000190102002903220039000200490802053
:1031F000059000200690079008904FF440500990E9
:1032000000200A9069468A48FDF7F4FB1020FDF77C
:103210004BFC00218648FDF718FC0122022184485E
:10322000FDF71FFC002182481430FDF70EFC80489A
:103230001430FDF73DFB7F4800908048019000204E
:1032400002903220039000200490802005900020FE
:103250000690079008904FF44050099000200A9083
:10326000694673481430FDF7C5FB4FF48070FDF7D5
:103270001BFC01216E481430FDF7E7FB0BB000BDCD
:1032800010B586B0044601210820FDF7E5FF0121B5
:103290008804FDF7EEFF4FF48060ADF814001820AD
:1032A0008DF8170003208DF8160005A96448FDF776
:1032B00017FD4FF40060ADF8140004208DF81700DE
:1032C00005A95F48FDF70CFD2046FFF759FFFFF702
:1032D00077FF4FF4E13001900020ADF80800ADF821
:1032E0000A00ADF80C00ADF810000C20ADF80E008F
:1032F00001A95048001FFEF756F8012240F2244170
:103300004C48001FFEF7E7F801214A48001FFEF76E
:10331000D6F8012280214748001FFEF701F901225B
:1033200040214448001FFEF7FBF806B010BD10B561
:1033300004460120434908703D481C3804620121BD
:103340003B48FDF782FB10BD10B51020FDF7B7FB21
:1033500048B100203B4908701020FDF7A5FB002173
:103360003348FDF772FB10BD08B50020009040F215
:1033700024413048001FFEF793F9B8B340F22441CE
:103380002C48001FFEF7B6F92A48001FFEF708F97F
:1033900010212848001FFEF77AF900212448143034
:1033A000FDF753FB4FF48070FDF77EFB204814308F
:1033B000FDF762FBC0F132002349087032201C493E
:1033C0001C39486300236A461C492048006800F005
:1033D00039FC1A4816491C39C863012114481430B5
:1033E000FDF733FB1348001FFEF7DAF8009818B119
:1033F0004FF080501649086008BD70B505460C4670
:10340000002C03DA284604F003F804B200BF0D488C
:1034100000780028FBD122462946074803F0D4FF54
:103420000020054921444870A0B2FFF780FF70BD1D
:103430001C00024004480040E80600201A07002053
:10344000000C0140AC010020AD010020580000201C
:1034500004ED00E010B501468E4800E00068036806
:103460008B42FBD30246436813448B4204D143682A
:103470004C682344436001460A464B681344046881
:10348000A34211D1844C03682468A34208D04B683E
:103490000468646823444B6003681B680B6005E0A4
:1034A0007D4B1B680B6001E003680B60884200D015
:1034B000016010BD30B54FF42053784800F0070488
:1034C0002CB1C01D20F00700744C041B1B1B0246CE
:1034D000704C226000246F4D6C60D018083820F0CA
:1034E00007006D4C206000246B4D2D686C606A4DA8
:1034F0002D682C601146441A4C60674C24680C609F
:10350000674D4C682C60674D4C682C604FF0004450
:10351000654D2C6030BD2DE9F04104464FF00008A8
:1035200001F044F85C48006808B9FFF7C3FF5E4843
:103530000068204000285DD19CB1083404F00700E9
:1035400078B104F00700C0F10800044404F007005B
:1035500008B9012000E0002018B9FCF715FE00BFF3
:10356000FEE7002C46D04F480068844242D8494EBE
:103570003046056801E02E462D686868A04202D2F8
:1035800028680028F7D144480068854232D0306866
:1035900000F10808286830606868001B102812D9FC
:1035A0002F1907F0070008B9012000E0002018B922
:1035B000FCF7EAFD00BFFEE76868001B78606C60FE
:1035C0003846FFF747FF374968680968081A3549E0
:1035D00008600846006832490968884203D23148C9
:1035E00000682F49086030496868096808436860C6
:1035F0000020286000F02EFF08F0070008B9012025
:1036000000E0002018B9FCF7BFFD00BFFEE7404610
:10361000BDE8F08170B506463546002E31D0083D34
:103620002C46214960680968084008B1012000E083
:10363000002018B9FCF7A8FD00BFFEE7206808B914
:10364000012000E0002018B9FCF79EFD00BFFEE756
:10365000154960680968084098B1206888B912491E
:10366000606809688843606000F0A0FF0D496068E9
:10367000096808440B4908602046FFF7EBFE00F09C
:10368000E9FE70BD0748006870470548006870474C
:1036900070470000B0010020B80100204C07002056
:1036A000C0010020BC010020C40100207548006852
:1036B000401C08B9012000E0002018B9FCF764FDA7
:1036C00000BFFEE7FCF760FD00BFFEE7001F4FF004
:1036D00080730360001F0160001F6B4B0360143890
:1036E00002602038704769484FF0E02148610720A8
:1036F000086170471CB56648014609780191FF21B1
:10370000024611700146097800919DF8001001F001
:103710001001604A117007215F4A116009E05E499B
:103720000968491E5C4A11609DF800104906090E9F
:1037300000919DF8001001F080018029EFD05649DA
:1037400009680902544A11601146098801F4E061D0
:1037500011604F4A019911705048006840F47000A0
:103760004E4908600846006840F070400860FFF766
:10377000BAFF002043490860FCF7D4FC00201CBDC0
:1037800010B540480068B0F57A7F01D1012000E013
:10379000002018B9FCF7F8FC00BFFEE710BD4FF0A1
:1037A00080503E491C390860BFF34F8FBFF36F8FC5
:1037B000704710B5FCF7E8FC32480068401C3149FE
:1037C0000860BFF34F8FBFF36F8F08460068012872
:1037D0000CD132481C380068C0B208B9012000E0A2
:1037E000002018B9FCF7D0FC00BFFEE710BD10B5F3
:1037F0002448006818B9FCF7C7FC00BFFEE7214861
:103800000068401E1F4908600846006810B9002083
:10381000FCF7C1FC10BD10B5FCF7B6FC00F092FD42
:1038200020B14FF080501D491C3908600020FCF782
:10383000B2FC10BD70B5FCF7B1FC0546102D0FD3DE
:1038400005F1E02090F8F04312480078844201DB53
:10385000012000E0002018B9FCF796FC00BFFEE74D
:103860000E481438006800F4E0600B49096888428B
:1038700001D8012000E0002018B9FCF785FC00BF4A
:10388000FEE770BDC8010020AD3600083F190100F9
:1038900000E400E0CC010020D001002020ED00E099
:1038A00000F1080141604FF0FF31816000F1080133
:1038B000C160016100210160704700210161704712
:1038C00042684A6093688B609368596091600861B0
:1038D00003685B1C0360704710B502460B685C1CF4
:1038E0000CB9106907E002F1080000E04068446884
:1038F00024689C42FAD944684C604C68A160886096
:1039000041600A611468641C146010BD01460A69B4
:10391000D1E901309860D1E90103586050688842CC
:1039200001D188685060002008611068401E106056
:103930001068704770B505460E462C461CB9FCF75A
:1039400023FC00BFFEE7FFF734FFD4E90F12206825
:1039500001FB020060600020A0632068A060E06BB3
:10396000401E226C216800FB0210E0604FF0FF3027
:103970006064A06476B9206908B9012000E00020E5
:1039800080B904F1100001F055F901280AD1FFF7C0
:1039900006FF07E004F11000FFF782FF04F12400A6
:1039A000FFF77EFFFFF723FF012070BD2DE9F047F1
:1039B00006460D4691464FF000080EB1012000E08A
:1039C000002018B9FCF7E0FB00BFFEE70DB90027A7
:1039D00002E006FB05F0471C07F14C00FFF79BFDDA
:1039E000044664B10DB9246002E004F14C0020608B
:1039F000E663256401212046FFF79CFFA046B8F14D
:103A0000000F03D1FCF7C0FB00BFFEE74046BDE856
:103A1000F08710B50446FFF7CCFE11E0606A08B9E4
:103A2000012000E0002038B904F1240001F002F97F
:103A300018B101F0DCF900E005E0A06C401EA064C4
:103A4000A06C0028EADC00BF4FF0FF30A064FFF755
:103A5000CEFEFFF7AEFE11E0206908B9012000E0BC
:103A6000002050B904F1100001F0E4F808B101F0B1
:103A7000BEF9606C401E606400E002E0606C0028EB
:103A8000EADC00BF4FF0FF306064FFF7B0FE10BD0E
:103A900070B50546FFF78DFEA86BE96B884201D132
:103AA000012400E00024FFF7A2FE204670BD2DE9AE
:103AB000F04104460E4615460027206C40B37DB900
:103AC0003146226CA06803F07FFC216CA06808449A
:103AD000A060D4E9011088421AD32068A06017E0E2
:103AE0003146226CE06803F06FFC216CE068401AFC
:103AF000E0602168E068884203D2216C6068401A67
:103B0000E060022D04D1A06B10B1A06B401EA06339
:103B1000A06B401CA0633846BDE8F0812DE9FF434F
:103B200083B0064688461D464FF0000934461CB94E
:103B3000FCF72AFB00BFFEE7B8F1000F01D1206CB3
:103B400008B9012000E0002018B9FCF71DFB00BFF8
:103B5000FEE7022D02D1E06B012801D1012000E037
:103B6000002018B9FCF710FB00BFFEE700BFFFF70D
:103B700020FEA06BE16B884201D3022D1DD12A46A5
:103B800041462046FFF793FF0746606A08B90120C7
:103B900000E0002040B904F1240001F04BF80128B6
:103BA00005D1FFF7FCFD02E00FB1FFF7F8FDFFF7CD
:103BB0001EFE012007B0BDE8F083059818B9FFF795
:103BC00016FE0020F6E7B9F1000F04D101A801F0BC
:103BD000CAF84FF00109FFF70AFE00F0E7FCFFF713
:103BE000E8FD606C401C08B900206064A06C401CBB
:103BF00008B90020A064FFF7FAFD05A901A801F0AB
:103C0000C0F8C0B92046FFF743FF70B104F11000BF
:103C1000059900F09EFF2046FFF7FBFE00F01AFC1E
:103C20000028A4D1FFF7BBFDA1E72046FFF7F1FE76
:103C300000F010FC9BE72046FFF7EBFE00F00AFCCB
:103C40000020B7E72DE9F0470646894617461D468E
:103C500034461CB9FCF798FA00BFFEE7B9F1000F33
:103C600001D1206C08B9012000E0002018B9FCF750
:103C70008BFA00BFFEE7022D02D1E06B012801D1D3
:103C8000012000E0002018B9FCF77EFA00BFFEE733
:103C9000FFF7D0FDFCF778FA8246A06BE16B884213
:103CA00001D3022D1CD12A4649462046FFF7FFFECC
:103CB000A06C401C70B9606A08B9012000E00020C7
:103CC00058B904F1240000F0B5FF30B12FB1012044
:103CD000386002E0A06C401CA0644FF0010801E0D5
:103CE0004FF000085046FCF756FA4046BDE8F08712
:103CF0002DE9F04105460E462C461CB9FCF744FA66
:103D000000BFFEE7206C08B9012000E0002018B9D0
:103D1000FCF73AFA00BFFEE7206808B9606808B906
:103D2000012000E0002018B9FCF72EFA00BFFEE7E2
:103D3000FFF780FDFCF728FA8046A06BE16B884214
:103D400019D2A06B401CA063A06C401C70B9606AC3
:103D500008B9012000E0002058B904F1240000F067
:103D600069FF30B12EB10120306002E0A06C401C30
:103D7000A064012700E000274046FCF70CFA384613
:103D8000BDE8F08170B50546FFF713FDA86B08B9D3
:103D9000012400E00024FFF72AFD204670BD70B525
:103DA00004460D46206C70B1216CE0680844E06068
:103DB0006168E068884201D32068E0602846226C90
:103DC000E16803F001FB70BD2DE9FF4383B00546B8
:103DD0000E461F464FF000092C461CB9FCF7D4F9DB
:103DE00000BFFEE70EB9206C08B9012000E00020FA
:103DF00018B9FCF7C9F900BFFEE700BFFFF7D9FC0F
:103E0000A06B68B3D4F80C8031462046FFF7C7FF9B
:103E10008FB9A06B401EA063206908B9012000E0A3
:103E20000020B8B904F1100000F004FF012811D1FE
:103E3000FFF7B5FC0EE0C4F80C80606A08B90120F9
:103E400000E0002030B904F1240000F0F3FE08B1D6
:103E5000FFF7A5FCFFF7CBFC012007B0BDE8F0831E
:103E6000059818B9FFF7C3FC0020F6E7B9F1000F79
:103E700004D101A800F077FF4FF00109FFF7B7FC6C
:103E800000F094FBFFF795FC606C401C08B9002023
:103E90006064A06C401C08B90020A064FFF7A7FC78
:103EA00005A901A800F06DFFC0B92046FFF76AFF21
:103EB00070B104F12400059900F04BFE2046FFF795
:103EC000A8FD00F0C7FA002898D1FFF768FC95E735
:103ED0002046FFF79EFD00F0BDFA8FE72046FFF772
:103EE00098FD00F0B7FA0020B7E72DE9F047054646
:103EF000884616462C461CB9FCF746F900BFFEE77B
:103F0000B8F1000F01D1206C08B9012000E00020B9
:103F100018B9FCF739F900BFFEE7FFF78BFCFCF797
:103F200033F98146A06BE8B141462046FFF737FFE1
:103F3000A06B401EA063606C401C70B9206908B97A
:103F4000012000E0002058B904F1100000F072FEDA
:103F500030B12EB10120306002E0606C401C606422
:103F6000012700E000274846FCF715F93846BDE870
:103F7000F0872DE9F04705460F462C461CB9FCF7A3
:103F800003F900BFFEE70FB9206C08B9012000E07B
:103F9000002018B9FCF7F8F800BFFEE7206C08B164
:103FA000012000E0002018B9FCF7EEF800BFFEE7A2
:103FB000FFF740FCFCF7E8F88146A06B48B1D4F865
:103FC0000C8039462046FFF7EAFEC4F80C80012633
:103FD00000E000264846FCF7DEF83046BDE8F087F2
:103FE00070B504461CB9FCF7CFF800BFFEE7FFF739
:103FF000E0FBA56BFFF7FBFB284670BD70B50446E0
:1040000025461DB9FCF7C0F800BFFEE7FFF7D1FB5E
:10401000D5E90E10461AFFF7EAFB304670BD70B5C1
:1040200004461CB9FCF7B0F800BFFEE7A56B2846B4
:1040300070BD70B5044625461DB9FCF7A5F800BF54
:10404000FEE72846FFF7E6FA70BD70B505461DB9D4
:10405000FCF79AF800BFFEE7A86B08B9012400E05E
:104060000024204670BD70B504461CB9FCF78CF8DE
:1040700000BFFEE7A06BE16B884201D1012500E0A3
:104080000025284670BD000010B5002407E004EBB1
:104090008401FD4A02EB8100FFF702FC641C1E2C28
:1040A000F5D3FA48FFF7FCFBF948FFF7F9FBF948AD
:1040B000FFF7F6FBF848FFF7F3FBF848FFF7F0FBD4
:1040C000F248F7490860F248F649086010BD2DE94A
:1040D000F04704460F4616469946DDF82080002535
:1040E00007E0795D04F134004155785D00B902E0E4
:1040F0006D1C102DF5D300BF0021432001551E2E4D
:1041000000D31D26E662201DFFF7D7FB04F118003F
:10411000FFF7D3FB2461C6F11E00A061646200209A
:10412000606484F84800BDE8F0872DE9F041064658
:104130000F461FB9B000FFF7EEF900E0384605461C
:1041400055B14C20FFF7E7F904460CB1256304E0B4
:104150002846FFF75FFA00E000242046BDE8F08122
:104160002DE9FF4F81B0804616469A46DDE90E5B89
:10417000B8F1000F03D1FCF707F800BFFEE71E2DD2
:1041800001D2012000E0002018B9FBF7FDFF00BFBD
:10419000FEE730461099FFF7C8FF0446002C5AD0BE
:1041A000701E216B01EB800929F0070909F0070057
:1041B00008B9012000E0002018B9FBF7E5FF00BFB7
:1041C000FEE700962A462046119B0299FFF77FFFE3
:1041D000524641464846FFF779FA2060BBF1000F8E
:1041E00001D0CBF80040FFF7E4FAAF480068401C6C
:1041F000AD490860AD48006840B9AC480460084665
:10420000006801280CD1FFF73FFF09E0A8480068CB
:1042100030B9A6480068C06AA84201D8A348046023
:10422000A4480068401CA349086094F82C100120A1
:104230008840A149096808439F490860E16A01EB89
:104240008101914A02EB8100211DFFF739FB012713
:10425000FFF7CDFA01E04FF0FF37012F09D1944865
:10426000006830B191480068C06AA84201D2FFF7E7
:1042700096FA384605B0BDE8F08F894909680968A3
:1042800009B9012100E0002121B14FF0FF318B4A33
:10429000116006E082490968C968C868874A4168B0
:1042A0001160704770B50546FFF783FA15B97F486E
:1042B000006800E028460446201DFFF727FB78B978
:1042C000E06A00EB8000704951F8200040B994F892
:1042D0002C100120884078490968814376480160A4
:1042E000A06A18B104F11800FFF710FB211D6A48FD
:1042F000FFF7E6FA72480068401C714908606D4893
:104300000068401C6B490860FFF771FA6848006854
:10431000B8B16648006884420DD16A48006808B99F
:10432000012000E0002018B9FBF72EFF00BFFEE7D8
:10433000FFF735FA05E0FFF73CFAFFF79EFFFFF7BE
:1043400056FA70BD2DE9F0414FF000085D48006855
:10435000002872D15C480068401C5B490860084630
:104360000668DEB94E480068006808B9012000E020
:10437000002018B9FBF708FF00BFFEE748480768B0
:104380004848006846490860464807604F4800684A
:10439000401C4E490860FFF770FF00BF47480068A7
:1043A00086423CD300BF3E480068006808B901203F
:1043B00000E0002020B14FF0FF30404908602DE0C0
:1043C00037480068C068C4686568AE4202D23B489E
:1043D000056023E0201DFFF799FAA06A18B104F1E7
:1043E0001800FFF793FA94F82C1001208840324906
:1043F0000968084330490860E16A01EB8101224AFB
:1044000002EB8100211DFFF75BFA2849E06A096889
:10441000C96A8842C7D34FF00108C4E700BF2348E8
:104420000068C06A00EB8000174951F8200001289D
:1044300008D94FF0010805E0FFE725480068401C57
:10444000234908602348006808B14FF0010840463E
:10445000BDE8F08170B500251A48006818B9FBF76F
:1044600093FE00BFFEE7FFF7A4F916480068401E60
:104470001449086008460068002874D10A4800689A
:10448000002870D04DE000004C2F0020A431002007
:10449000B8310020CC310020E0310020F431002080
:1044A000D8010020DC010020E4010020D40100201C
:1044B000F001002000020020EC0100200402002096
:1044C000E001002008020020E8010020FC0100209B
:1044D000F4010020F8010020FA48C068C46804F123
:1044E0001800FFF713FA201DFFF710FA94F82C10AC
:1044F00001208840F44909680843F3490860E16AEB
:1045000001EB8101F14A02EB8100211DFFF7D8F98F
:10451000EF49E06A0968C96A884202D30120ED497F
:104520000860E848006808B9012000E00020002881
:10453000D2D0E948006878B10AE0FFF703FF10B174
:104540000120E4490860E4480068401EE249086030
:10455000E14800680028F0D1DE480068012802D157
:104560000125FFF71CF9FFF742F9284670BD10B589
:104570000446D74800684460D8480068844207D29F
:10458000D3480168091DD6480068FFF7A5F90CE07B
:10459000CF480168091DD3480068FFF79DF9D2484C
:1045A0000068844201D2D048046010BDCF48006842
:1045B000401CCE49086070472DE9F04704460E467E
:1045C0004FF000091CB9FBF7DFFD00BFFEE70EB19D
:1045D000012000E0002018B9FBF7D6FD00BFFEE780
:1045E000C248006808B9012000E0002018B9FBF7B4
:1045F000CBFD00BFFEE7FFF7D9FFB848D0F8008039
:10460000206885192068404507D92068A8420BD941
:10461000454509D94FF0010906E02068A84201D8B4
:10462000454501D94FF001092560B9F1000F13D0BC
:10463000A7480068001DFFF769F950B9A448006851
:1046400090F82C10012088409F49096881439E48BA
:1046500001602846FFF78BFFFFF7FCFE07460FB906
:10466000FFF79DF8BDE8F08770B50446002634B327
:104670009E48006808B9012000E0002018B9FBF747
:1046800083FD00BFFEE7FFF791FF9448006805191E
:104690008F480068001DFFF739F950B98C48006851
:1046A00090F82C100120884087490968814386488A
:1046B00001602846FFF75BFFFFF7CCFE06460EB908
:1046C000FFF76DF870BD70B50446FFF772F814B9C6
:1046D0007F48006800E020460646F56AFFF787F845
:1046E000284670BD2DE9F0410446FFF7A3F8FBF71B
:1046F0004BFD064614B97648006800E020460746A0
:10470000FD6A3046FBF747FD2846BDE8F0812DE9FC
:10471000F04780460D464FF000091E2D01D20120C2
:1047200000E0002018B9FBF72FFD00BFFEE71E2DAB
:1047300000D31D25FFF73DF8B8F1000F02D1644802
:10474000006800E040460446E66AAE424BD0B542FF
:104750000BD95F48006884420DD05D480068C06A8C
:10476000A84208D84FF0010905E059480068844282
:1047700001D14FF00109E76AE562A06900F000404D
:1047800010B9C5F11E00A06107EB87014F4A02EB8B
:1047900081016069884201D1012000E00020E0B180
:1047A000201DFFF7B3F830B90120B8404649096829
:1047B00081434548016094F82C100120884042490B
:1047C0000968084340490860E16A01EB81013F4AFA
:1047D00002EB8100211DFFF773F8B9F1010F01D140
:1047E000FEF7DDFF00BFFFF702F8BDE8F08710B568
:1047F0003E48006818B10120364908602BE00020CF
:104800003449086030480068B0FA80F0C0F11F04F5
:1048100004EB84002D4951F8200008B1012000E08C
:10482000002018B9FBF7B0FC00BFFEE704EB8401E1
:10483000264A02EB810041684968416000F10801A5
:1048400042688A4202D14168496841604168C9684A
:104850001F4A116000BF10BD70B50546FEF7A9FFE5
:1048600015B91B48006800E028460446201DFFF7E4
:104870004DF878B9E06A00EB8000144951F8200047
:1048800040B994F82C10012088400F4909688143F1
:104890000D480160A06A18B104F11800FFF736F85E
:1048A000211D1348FFF70CF8FEF7A1FF0848006828
:1048B000844237D10F48006838B30C480068D8B933
:1048C00001201AE0CC310020EC0100204C2F002008
:1048D000D4010020F8010020F4010020E8010020AC
:1048E000DC010020D8010020040200200802002082
:1048F000F4310020F0010020002018B9FBF744FC3F
:1049000000BFFEE7FEF74BFF15E0FE480068FE49DA
:104910000968884203D10020FC4908600BE0FFF7DA
:1049200066FF08E0FA48006828B1FEF742FFFFF78B
:10493000A4FCFEF75CFF70BD70B5054600262C4652
:104940001DB9FBF721FC00BFFEE7EE496069884214
:1049500001D1012000E0002070B1EE49A06A884238
:1049600001D1012000E0002030B9A06A08B901207F
:1049700000E0002000B10126304670BD70B505464C
:104980002C461DB9FBF700FC00BFFEE74CB3DF4827
:104990000068844225D0FEF70CFF2046FFF7CCFFCD
:1049A00001281CD1201DFEF7B1FF94F82C10012026
:1049B0008840D94909680843D7490860E16A01EB92
:1049C0008101D64A02EB8100211DFEF779FFCF4914
:1049D000E06A0968C96A884201D3FEF7E0FEFEF783
:1049E00006FF70BD2DE9F041054600262C461DB995
:1049F000FBF7CAFB00BFFEE7FEF71CFFFBF7C4FB9B
:104A000007462046FFF798FF012824D1C4480068D4
:104A1000E0B9BE49E06A0968C96A884200D3012644
:104A2000201DFEF773FF94F82C1001208840BA492E
:104A300009680843B8490860E16A01EB8101B74A97
:104A400002EB8100211DFEF73BFF04E004F1180199
:104A5000B048FEF735FF3846FBF79DFB3046BDE812
:104A6000F08110B50446206BFEF7D4FD2046FEF71A
:104A7000D1FD10BD70B523E0FFF798FDA94800688F
:104A800008B9012000E000200546FFF7E3FCBDB9AE
:104A9000FEF78FFEA348C068C468201DFEF736FFEE
:104AA00099480068401E984908609F480068401E69
:104AB0009D490860FEF79BFE2046FFF7D2FF00BF2E
:104AC000994800680028D7D170BD00BFFFF7D2FF1A
:104AD000924800680128F9D9FEF761FEF6E71FB594
:104AE0000020009001900290034680228FA1039045
:104AF0009048FFF735FB0446012C0DD1FBF744FB32
:104B0000A01E8D49086001208149086000208B4962
:104B10000860FEF7EFFD04E01CB9FBF735FB00BFB2
:104B2000FEE71FBD10B5FBF72FFB0020784908609A
:104B3000FEF726FE10BD81490868704770B5FEF784
:104B400079FE00257D480468204670BD6E480068E7
:104B5000704770B505460C461DB9FBF715FB00BF45
:104B6000FEE76A48016818312846FEF7B5FE674837
:104B70000068001DFEF7CAFE50B96448006890F84E
:104B80002C10012088406449096881436248016013
:104B9000601C30B95D480168091D5A48FEF790FE57
:104BA00005E06648006806193046FFF7E0FC70BD76
:104BB0002DE9F04105460E4614461DB9FBF7E4FA0F
:104BC00000BFFEE75648006808B1012000E0002061
:104BD00018B9FBF7D9FA00BFFEE746F000404B4991
:104BE000096888614948016818312846FEF768FE5F
:104BF00046480068001DFEF789FE50B9434800682A
:104C000090F82C10012088404349096881434248AC
:104C10000160601C30B93D480168091D3948FEF744
:104C20004FFE05E04548006807193846FFF79FFC2E
:104C3000BDE8F08170B50646F068C4681CB9FBF7A2
:104C4000A3FA00BFFEE704F11800FEF75FFE344848
:104C50000068A8B9201DFEF759FE94F82C10012019
:104C600088402D49096808432B490860E16A01EB37
:104C700081012A4A02EB8100211DFEF721FE04E09A
:104C800004F118012348FEF71BFE2049E06A096879
:104C9000C96A884204D9012501202949086000E039
:104CA0000025284670BD2DE9F04105460F461C48F9
:104CB000006808B1012000E0002018B9FBF764FA91
:104CC00000BFFEE747F000402860EC681CB9FBF726
:104CD0005BFA00BFFEE72846FEF718FE201DFEF730
:104CE00015FE94F82C10012088400B4909680843F0
:104CF00009490860E16A01EB8101084A02EB810081
:104D0000211D1FE0F4310020E4010020D401002027
:104D1000F0010020CC310020EC0100204C2F0020BD
:104D200008020020E0310020E001002049444C4509
:104D300000000000CB4A000804020020E801002027
:104D4000F8010020FEF7BCFDF949E06A0968C96A6C
:104D5000884204D901260120F649086000E00026B7
:104D60003046BDE8F08110B504461CB9FBF70CFADB
:104D700000BFFEE7F04800682060F048006860600F
:104D800010BD2DE9F04104460D461CB9FBF7FCF9B6
:104D900000BFFEE71DB9FBF7F7F900BFFEE7FEF71E
:104DA00008FDE64807682868401C08B9002619E095
:104DB000E14920680968884204D06068B84201D897
:104DC00001260FE06068381A2968884209D22868ED
:104DD0006168791A401A28602046FFF7C4FF002650
:104DE00000E00126FEF703FD3046BDE8F08101201A
:104DF000D04908607047CE4909688869CC4909687C
:104E0000C96AC1F11E01CA4A1268916170472DE951
:104E1000F04106460C46FEF7CCFCC5480068406CE5
:104E200038BB0120C249096881F848000CB3C0486A
:104E30000068001DFEF76AFD50B9BD48006890F893
:104E40002C1001208840BE4909688143BC4801609C
:104E5000601C30B9B6480168091DBA48FEF730FD3C
:104E600005E0B648006807193846FFF780FBFEF7F3
:104E700096FCFEF7BCFCFEF79CFCAD480068456C58
:104E800065B126B10020AA490968486406E0A8492E
:104E9000096801F14400496C491E01600020A449E1
:104EA000096881F84800FEF7A2FC2846BDE8F081B9
:104EB0002DE9F0470746884615461C46FEF779FC63
:104EC0009B48006890F8480002282FD0984909684C
:104ED00001F14400496CB94301600120944909681B
:104EE00081F8480014B392480068001DFEF70EFDDB
:104EF00050B98F48006890F82C10012088409049E4
:104F0000096881438E480160601C30B98848016897
:104F1000091D8C48FEF7D4FC06E08848006800EBC9
:104F200004094846FFF723FBFEF739FCFEF75FFC58
:104F3000FEF73FFC1DB17E480068406C28607C484D
:104F4000006890F84800012801D1002608E078495F
:104F5000096801F14400496C21EA08010160012659
:104F600000207349096881F84800FEF740FC30468C
:104F7000BDE8F0872DE9F04706460D4617469846EE
:104F80004FF0010A1EB9FBF7FFF800BFFEE73446F9
:104F9000FEF70FFCB8F1000F02D0606CC8F80000FB
:104FA00094F84890022084F84800052F17D2DFE8D3
:104FB00007F01503070B0D00606C284360640EE0DA
:104FC000606C401C60640AE0656408E0B9F1020F9F
:104FD00001D0656401E04FF0000A00E000BF00BFAF
:104FE000B9F1010F26D1201DFEF790FC94F82C108A
:104FF0000120884052490968084351490860E16A24
:1050000001EB8101504A02EB8100211DFEF758FCA3
:10501000A06A08B9012000E0002018B9FBF7B4F835
:1050200000BFFEE74249E06A0968C96A884201D9BF
:10503000FEF7B5FBFEF7DBFB5046BDE8F0872DE938
:10504000F84F06460D4617469846DDF828A04FF063
:10505000010B1EB9FBF798F800BFFEE7FEF7EAFB6D
:105060003446FBF791F80090B8F1000F02D0606C65
:10507000C8F8000094F84890022084F84800052FF2
:1050800017D2DFE807F01503070B0D00606C28430B
:1050900060640EE0606C401C60640AE0656408E0D7
:1050A000B9F1020F01D0656401E04FF0000B00E0A0
:1050B00000BF00BFB9F1010F33D1A06A08B90120C8
:1050C00000E0002018B9FBF75FF800BFFEE71F48BB
:1050D0000068A8B9201DFEF719FC94F82C100120D7
:1050E000884017490968084315490860E16A01EBDF
:1050F0008101154A02EB8100211DFEF7E1FB04E06E
:1051000004F118011248FEF7DBFB0949E06A09685F
:10511000C96A884205D9BAF1000F02D00120CAF845
:1051200000000098FBF737F85846BDE8F88F0000FC
:10513000D4010020F8010020FC010020E80100203B
:10514000EC010020F43100204C2F00200802002048
:10515000CC3100202DE9F04105460E461DB9FBF784
:1051600013F800BFFEE7FEF765FB2C46FBF70CF8D3
:10517000804694F84870022084F84800606C401C17
:105180006064012F30D1A06A08B9012000E000203E
:1051900018B9FAF7F9FF00BFFEE722480068A8B97E
:1051A000201DFEF7B3FB94F82C10012088401E4907
:1051B000096808431C490860E16A01EB81011B4A48
:1051C00002EB8100211DFEF77BFB04E004F11801D6
:1051D0001748FEF775FB1749E06A0968C96A8842F3
:1051E00002D90EB1012030604046FAF7D4FFBDE885
:1051F000F08170B50446264616B90E48006800E0F6
:1052000030460646FEF7D5FA96F84800022804D143
:10521000002086F84800012500E00025FEF7E7FAA7
:10522000284670BD08020020EC0100204C2F002011
:10523000CC310020D401002010B52748407820B19F
:10524000012808D0022810D10AE04FF0FF3122488F
:10525000FCF79BFD0AE000211F48FCF796FD05E0E6
:105260001D484168FCF791FD00E000BF00BF1B48EE
:10527000407820B1012808D0022810D10AE04FF070
:10528000FF311648FCF781FD0AE000211348FCF7C6
:105290007CFD05E011484168FCF777FD00E000BFA8
:1052A00000BF10BD02200C494870642048600220F5
:1052B0000B4948700A204860022008494870C01E07
:1052C00048607047FFF7EEFF04E0FFF7B5FF0A20E4
:1052D000FFF7CAF9F9E7704794000020CC000020DE
:1052E000B000002008B528488078012808D10023A4
:1052F0001A4601210846FCF749FC00202249887023
:105300002248807801281FD12148007810B1012857
:1053100015D10AE001201E49087000204023802298
:1053200001460090FDF7D9F80AE0002018490870FE
:105330004023802201460090FDF7CFF800E000BF37
:1053400000BF00201149887008BD1CE01148FCF71F
:105350007DFD1148FCF77AFD1048FCF777FD1048F9
:10536000FCF774FD0F48FCF771FD0748FCF76EFD74
:105370000648FCF76BFD0C48FCF768FDFFF7B2FF31
:105380000A20FFF771F9E1E76C010020800100209D
:105390000C020020080100201C0100203001002028
:1053A00044010020580100209401002016E021480B
:1053B000007810B101280AD104E001F006F800F0ED
:1053C00028F905E001F0A5FD01F047FB00E000BF72
:1053D00000BFFDF735F83220FFF746F9E7E710B5D3
:1053E000044614480470FDF74EF810BD10B5014690
:1053F00091F84B20102004E0002401F134031C54E8
:10540000401E0028F8DA072A0ADD072005E00124FB
:1054100001F134039C54521E401E0028F7DC08E0C2
:10542000072004E0012401F134031C54401E00282D
:10543000F8DC10BD0C02002010B50120FDF7ABFD1B
:105440002E4908800220FDF7A6FD2C494880032044
:10545000FDF7A1FD2A4908800420FDF79CFD28499D
:1054600048802648008825498989401A2349486090
:1054700008464088C989401A204988602048008829
:105480001F498989401A1E49486008464088C989D1
:10549000401A1B49886010BD4FF40060174988818D
:1054A000C88117498881C8816420144908824882CC
:1054B000134908824882704708B5FFF7EDFF1BE0EB
:1054C000FFF7BAFF0F480078012811D10B48806818
:1054D0000D4908600948406848600948806888604C
:1054E00014200C230A46012100900846FCF76CFBAF
:1054F0004FF4FA60FFF7B8F8E2E700000832002046
:10550000203200206400002014020020704700B503
:1055100002210A48FFF7FAFF002000BD01240BE03A
:1055200000235A1E194606480068FEF74DFC044643
:10553000012C01D1FFF7EBFFF2E700003832002029
:10554000600000208EB000BF0DE000235A1E01A9AC
:1055500016480068FEF738FC00231A4601A91448D3
:105560000068FEF7DBFAF0E78AB000BF1DE0002319
:105570005A1E01A90E480068FEF726FC9DF8060099
:10558000C11C01A8FDF739FF0A484078012808D05E
:1055900008484069C0680749896948400549496920
:1055A000C860242101A801F028FFE0E7580000208E
:1055B0005C000020B000002010B50320FE490870F8
:1055C000072048700721FC488170C17008210171D3
:1055D0000620F949C872F948C860F949F6480161DE
:1055E000F84941614FF07E518161F749C161F74946
:1055F0000162FFF7FBFE0120EF4981F8480081F8C6
:105600004900002081F84A0081F84B0081F84C00E5
:1056100010BD00B587B00123502238217320FCF75C
:1056200077FFE54890F84900039002F0A4F8049051
:10563000012000210346CDE9001038217920049A89
:10564000FDF70FF908200346E14A382100900220B7
:10565000FDF7F7FA08200346DE4A382100900C20B7
:10566000FDF7EFFAD44890F84900012875D106906B
:105670000590D14934310598085C002845D006983A
:10568000082842DACC4890F84B100598814216D190
:10569000C94890F84C0090B90120CF49087006988D
:1056A000C0F10700C006000E0123CCA20146049001
:1056B0000020FDF73CFA0020C74908700BE006986F
:1056C000C0F10700C006000E0123C4A201460490E9
:1056D0000020FDF72CFAC3488068039002F042F8DE
:1056E000049001200021CDE900100698C0F10700C8
:1056F000C006000E0623039001465C20049AFDF7C5
:10570000B0F80698401CC0B2069002200590AA4846
:1057100034300599405C002846D00698082843DAC2
:10572000A54890F84B100598814217D1A24890F8EF
:105730004C0098B90120A84908700698C0F10700EC
:10574000C006000E0123A8A2014604900020FDF728
:10575000EEF90020A04908700CE007E10698C0F1BE
:105760000700C006000E01239FA2014604900020FE
:10577000FDF7DDF99B484068039001F0F3FF0490CA
:1057800001200021CDE900100698C0F10700C006F5
:10579000000E0623039001465C20049AFDF761F891
:1057A0000698401CC0B20690032005908248343011
:1057B0000599405C002845D00698082842DA7E48C2
:1057C00090F84B100598814216D17B4890F84C0018
:1057D00090B90120804908700698C0F10700C00602
:1057E000000E012382A2014604900020FDF79FF9DC
:1057F0000020794908700BE00698C0F10700C00648
:10580000000E01237AA2014604900020FDF78FF9D3
:1058100079488068039001F0A5FF049001200021E1
:10582000CDE900100698C0F10700C006000E06235F
:10583000039001465C20049AFDF713F80698401C7B
:10584000C0B20690042005905B4834300599405C56
:10585000002845D00698082842DA574890F84B109F
:105860000598814216D1544890F84C0090B9012017
:10587000594908700698C0F10700C006000E0123C0
:105880005EA2014604900020FDF751F90020524924
:1058900008700BE00698C0F10700C006000E012357
:1058A00056A2014604900020FDF741F95248406895
:1058B000039001F057FF049001200021CDE9001072
:1058C0000698C0F10700C006000E062303900146AB
:1058D0005C20049AFCF7C5FF0698401CC0B20690F5
:1058E00005200590344834300599405CF0B30698A3
:1058F000082840DA304890F84B100598814216D1BC
:105900002D4890F84C0090B9012033490870069852
:10591000C0F10700C006000E01233AA20146049020
:105920000020FDF704F900202B4908700BE00698D1
:10593000C0F10700C006000E012332A20146049008
:105940000020FDF7F4F80120009001902F484068F6
:1059500004900698C0F10700C006000E05230390CE
:1059600001465620049AFCF77CFF00E003E006980D
:10597000401CC0B20690104890F8490003287DD121
:1059800001200321CDE900100B4890F848100C309D
:1059900050F8210003230246382104903120FCF7FF
:1059A00060FF012006900590034834300599405C63
:1059B00000286FD006982BE0543200206F12833AF3
:1059C0000AD7233CCDCCCC3D000020410000C8428A
:1059D000749200087C920008AB0100204A6F794C59
:1059E00058203A00083200204A6F794C59203A007A
:1059F0004A6F795258203A00203200204A6F79527B
:105A000059203A006D7075416E583A0038320020C6
:105A100008283FDAFE4890F84B100598814216D1CD
:105A2000FB4890F84C0090B90120FA49087006989C
:105A3000C0F10700C006000E0123F7A20146049042
:105A40000020FDF774F80020F24908700BE006987A
:105A5000C0F10700C006000E0123EFA2014604902A
:105A60000020FDF764F8EA4890F84B100598814251
:105A70003ED1E74890F84C00012800E0DBE337D145
:105A8000E4490870E648407828B1012810D002287F
:105A900028D11AE061E00698C0F10700C006000EA8
:105AA0000123E0A2014604906C20FDF740F81AE0C3
:105AB0000698C0F10700C006000E0123DAA20146D5
:105AC00004906C20FDF733F80DE00698C0F1070054
:105AD000C006000E0123D5A2014604906C20FDF7FC
