:020000040800F2
:10000000D8370020111A0008351A0008371A0008DE
:100010003B1A00083F1A0008431A000800000000BD
:1000200000000000000000000000000001010008C6
:10003000471A00080000000045010008F376000898
:100040002B1A00082B1A00082B1A00082B1A00087C
:100050002B1A00082B1A00082B1A00082B1A00086C
:100060002B1A00082B1A00082B1A00082B1A00085C
:100070002B1A00082B1A0008875C00082B1A0008AE
:100080002B1A00082B1A00082B1A00082B1A00083C
:100090002B1A00082B1A00082B1A00082B1A00082C
:1000A0002B1A00082B1A00082B1A00082B1A00081C
:1000B0002B1A00082B1A00082B1A00082B1A00080C
:1000C0002B1A00082B1A00082B1A00082B1A0008FC
:1000D0002B1A0008AB5C00082B1A00082B1A00082A
:1000E0002B1A00082B1A00082B1A0008DFF80CD076
:1000F0000AF08EF8004800470D1B0008D837002092
:10010000204B19680868B0E8F00F80F30988BFF346
:100110006F8F4FF0000080F311884EF00D0E704786
:100120000000000006480068006880F3088862B696
:1001300061B6BFF34F8FBFF36F8F00DF00BF00BF0B
:1001400008ED00E0EFF30980BFF36F8F0D4B1A68E5
:1001500020E9F00F106008B54FF0100080F311880F
:1001600008F0B3FA4FF0000080F31188BDE80840B2
:1001700019680868B0E8F00F80F30988BFF36F8F43
:10018000704700BF7C020020EFF311804FF0100198
:1001900081F31188704780F311887047EFF3058071
:1001A000704700000CB50020019000906C4800687A
:1001B00040F480306A49086000BF6948006800F474
:1001C000003000900198401C0190009818B90198E7
:1001D000B0F5A06FF1D16248006800F4003010B1B2
:1001E0000120009001E0002000900098012843D1F8
:1001F0005C48006840F010005A49086008460068F2
:1002000020F0030008600846006840F00200086023
:10021000534840685249486008464068486008466C
:10022000406840F4806048600846406820F47C10D4
:1002300048600846406840F4E81048600846006896
:1002400040F08070086000BF4548006800F0007012
:100250000028F9D04248406820F003004049486037
:100260000846406840F00200486000BF3C484068D3
:1002700000F00C000828F9D10CBD10B5FFF792FF73
:1002800010BD10B53648006840F0010034490860E0
:1002900008464068344908403149486008460068CB
:1002A000324908402E4908600846006820F4802042
:1002B00008600846406820F4FE0048604FF41F00C4
:1002C0008860FFF7DAFF4FF000602949086010BD31
:1002D00010B5002100200022214B5B6803F00C01C7
:1002E00021B1042906D0082928D107E0214B224C4E
:1002F000236027E01F4B204C236023E0184B5B68F2
:1003000003F47010164B5B6803F48032022303EB96
:10031000904022B9194B4343174C23600DE0104B1A
:100320005B6803F4003323B1144B4343124C236046
:1003300003E0104B4343104C236003E00D4B0E4C85
:10034000236000BF00BF064B5B68C3F303130C4C74
:10035000E15C094B1B68CB40074C236010BD0000DB
:1003600000100240002002400000FFF8FFFFF6FEF0
:1003700008ED00E000127A000000002000093D00B6
:100380000400002031490143314A1160704770B5C3
:10039000002100230F22C47804B32D4C246804F4F8
:1003A000E064C4F5E064210AC1F10403CA40447862
:1003B00004FA03F18478144021430901254C06789E
:1003C000A155047804F01F050124AC4005786D1197
:1003D000AD0005F1E025C5F8004109E0047804F01E
:1003E0001F050124AC401C4D0678761145F82640C7
:1003F00070BD1A4A0A400243154B1B1F1A60704712
:1004000039B1134A121D12680243114B1B1D1A60A9
:1004100006E00F4A121D126882430D4B1B1D1A6025
:100420007047042808D14FF0E021096941F0040128
:100430004FF0E022116107E04FF0E021096921F05F
:1004400004014FF0E0221161704700000000FA053E
:100450000CED00E000E400E080E100E080FFFF1F21
:1004600010B50446FA48844208D10121401501F034
:1004700081F80021601501F07DF817E0F54884420D
:1004800008D10121001501F075F80021201501F0B7
:1004900071F80BE0F048844208D10121C80301F053
:1004A00069F800214FF4004001F064F810BD30B548
:1004B0000246002000235068E84C20400D790C686B
:1004C00044EA0524204350609068E54C2040D1E97F
:1004D00002542C434D7944EA450420439060D06A8D
:1004E00020F470000C7C641EE4B2234340EA035005
:1004F000D06230BD00210160017141718160C16035
:1005000001210174704721B1826842F001028260CA
:1005100003E0826822F001028260704721B18268A4
:1005200042F48072826003E0826822F4807282600A
:10053000704710B50023CBB21AB144681C43446025
:1005400002E044689C43446010BD816841F00801AA
:1005500081607047014600208A6802F008020AB1F3
:10056000012000E000207047816841F004018160B3
:100570007047014600208A6802F004020AB1012097
:1005800000E00020704721B1826842F4A00282603E
:1005900003E0826822F4A0028260704701460020D6
:1005A0008A6802F480020AB1012000E0002070474E
:1005B00010B50A4600210023416821F46041531E12
:1005C00041EA4331416010BD21B1426842F400620A
:1005D000426003E0426822F4006242607047F0B576
:1005E00004460D4600200021092D11DDE068A5F12B
:1005F0000A0606EB4607072606FA07F18843A5F127
:100600000A0606EB460603FA06F10843E0600CE032
:10061000206905EB4507072606FA07F1884305EB35
:10062000450603FA06F108432061072A0FDA606BDA
:10063000561E06EB86071F2606FA07F18843561E4C
:1006400006EB860605FA06F10843606322E00D2AF0
:100650000FDA206BD61F06EB86071F2606FA07F176
:100660008843D61F06EB860605FA06F10843206389
:1006700010E0E06AA2F10D0606EB86071F2606FAD7
:1006800007F18843A2F10D0606EB860605FA06F18E
:100690000843E062F0BD21B1826842F480128260BA
:1006A00003E0826822F48012826070470146C86CC1
:1006B00080B2704766484C300068704721B142688C
:1006C00042F48062426003E0426822F48062426049
:1006D000704721B1426842F48052426003E04268B0
:1006E00022F48052426070470A460021816821F45A
:1006F000E04111438160704721B1826842F40042B9
:10070000826003E0826822F400428260704721B177
:10071000826842F40212826003E0826822F40212CC
:1007200082607047014600208A6802F400120AB114
:10073000012000E000207047F0B504461546002077
:1007400000220026092911DDE068A1F10A0707EB64
:10075000470C072707FA0CF29043A1F10A0707EBB1
:10076000470703FA07F21043E0600CE0206901EB51
:10077000410C072707FA0CF2904301EB410703FAFB
:1007800007F210432061A06BC0F30156EF1C06F185
:10079000010CA7EB0C0707EB870C1F2707FA0CF2DD
:1007A0009043EF1C06F1010CA7EB0C0707EB870742
:1007B00001FA07F21043A063F0BD10B50A4600210C
:1007C0000023816B21F44011531E41EA03518163E0
:1007D00010BD08B5002300930090009B0B440093CC
:1007E000009B1A6008BD08B50246002000900092E8
:1007F00001F12800009B184400900098006880B226
:1008000008BD0A4600214168164B1940114341605A
:1008100070474162826270470A460021416821F0B8
:100820001F0111434160704740B10949083109680F
:1008300041F40001064A0832116007E0044908311A
:10084000096821F40001024A083211607047000073
:100850000024014000280140003C0140FFFEF0FF61
:10086000FDF7F1FFFFFD3FFF0246002013680B403C
:100870000BB1012000E000207047CA4302607047BE
:1008800070B502460020002300240B125568CEB23A
:1008900005EA060415681D4015B10CB1012000E001
:1008A000002070BD00220A12D3430360704700008D
:1008B00001684FF6FE721140016000210160416045
:1008C0008160C1608D49884208D18C4908394968E6
:1008D00041F00F01894A083A51608AE08749143192
:1008E000884208D185490839496841F0F001834AB6
:1008F000083A51607DE081492831884208D17F491A
:100900000839496841F470617C4A083A516070E0E6
:100910007A493C31884208D178490839496841F41C
:100920007041764A083A516063E074495031884218
:1009300008D172490839496841F470216F4A083A70
:10094000516056E06D496431884208D16B490839DD
:10095000496841F47001694A083A516049E06749C1
:100960007831884208D165490839496841F0706199
:10097000624A083A51603CE06149884206D1011F51
:10098000096841F00F01021F116032E05C49143127
:10099000884208D15A49091F096841F0F001584AB4
:1009A000121F116025E056492831884208D1544968
:1009B000091F096841F47061514A121F116018E063
:1009C0004F493C31884208D14D49091F096841F41B
:1009D00070414B4A121F11600BE049495031884267
:1009E00007D14749091F096841F47021444A121F81
:1009F0001160704710B50022026847F6F0739A4301
:100A00000C6A8B6823430C6923434C6923438C692C
:100A10002343CC6923434C6A23438C6A23431A4300
:100A20000260CB6843600B6883604B68C36010BD95
:100A30000021016041608160C160016141618161AB
:100A4000C161016241628162704721B1026842F076
:100A50000102026004E002684FF6FE731A40026071
:100A600070471AB103680B43036002E003688B43CD
:100A700003607047416070470146486880B2704724
:100A800001460020002201F080531BB11C4B083BA3
:100A90001A6802E0194B083B1A6802EA01030BB11D
:100AA000012000E00020704700F0805119B1144986
:100AB000091F086002E01149083948607047014683
:100AC0000020002201F080531BB10D4B083B1A6837
:100AD00002E00A4B083B1A6802EA01030BB101204D
:100AE00000E00020704700F0805119B10449091F4F
:100AF000086002E001490839486070470800024078
:100B00000804024010B50446CC48844208D10121B3
:100B1000042000F02FFD0021042000F02BFD46E012
:100B2000C748844208D10121082000F023FD00219C
:100B3000082000F01FFD3AE0C248844208D101219C
:100B4000102000F017FD0021102000F013FD2EE012
:100B5000BD48844208D10121202000F00BFD002176
:100B6000202000F007FD22E0B848844208D101218E
:100B7000402000F0FFFC0021402000F0FBFC16E0CC
:100B8000B348844208D10121802000F0F3FC002109
:100B9000802000F0EFFC0AE0AE48844207D101213A
:100BA000801500F0E7FC0021A01500F0E3FC10BD6B
:100BB00010B50121084600F0DDFC0021012000F005
:100BC000D9FC10BD2DE9F041024600250026002089
:100BD00000230024002791F803C00CF00F0591F8C2
:100BE00003C00CF0100CBCF1000F03D091F802C050
:100BF0004CEA050591F800C0BCF1000F31D0146833
:100C000000202BE04FF0010C0CFA00F3B1F800C00B
:100C10000CEA03069E4220D183004FF00F0C0CFA21
:100C200003F7BC4305FA03FC4CEA040491F803C043
:100C3000BCF1280F06D14FF0010C0CFA00FCC2F8F1
:100C400014C00AE091F803C0BCF1480F05D14FF081
:100C5000010C0CFA00FCC2F810C0401C0828D1D3CB
:100C60001460B1F800C0BCF1FF0F34DD54680020FF
:100C70002EE000F1080C4FF0010808FA0CF3B1F86F
:100C800000C00CEA03069E4221D183004FF00F0CF6
:100C90000CFA03F7BC4305FA03FC4CEA040491F890
:100CA00003C0BCF1280F05D100F1080C08FA0CF8BC
:100CB000C2F8148091F803C0BCF1480F07D100F1CD
:100CC000080C4FF0010808FA0CF8C2F81080401C1C
:100CD0000828CED35460BDE8F0814FF6FF71018043
:100CE000022181700421C170704702460020936880
:100CF0000B400BB1012000E00020704701468868DE
:100D000080B2704702460020D3680B400BB101202F
:100D100000E0002070470146C86880B2704701615A
:100D20007047416170470AB1016100E0416170475D
:100D3000C16070474FF480320A43826181618261F1
:100D400082698269704702460020434B18684FF65B
:100D50008073184040EA021008433F4B1860704708
:100D60003E49C8617047F0B50A46002300240021BF
:100D7000002500F00046B6F1004F02D1364EF16971
:100D800001E0354E7168C0F3034583B200F44016AC
:100D9000B6F5401F08D121F070612F4E766826F01D
:100DA00070662D4F7E6012E000F48016B6F5801F4D
:100DB00006D1032606FA05F4A14341F0706106E06E
:100DC000460D360103FA06F6B14341F0706122B1D7
:100DD000460D360103FA06F6314300F00046B6F13F
:100DE000004F02D11C4EF16101E01B4E7160F0BD5D
:100DF00030B500228B071C0F0F2303FA04F2164BA9
:100E000008338C1053F824309343134C08348D105E
:100E100044F8253023468C1053F824308C07240FD7
:100E200000FA04F423430C4C08348D1044F82530A8
:100E300030BD0A49DC3108607047000000080140FD
:100E4000000C014000100140001401400018014056
:100E5000001C014000200140000001400000204231
:100E600010B50446F748844209D10121480500F035
:100E70008EFB00214FF4001000F089FB08E00121F7
:100E8000880500F084FB00214FF4800000F07FFB18
:100E900010BD2DE9F04385B004460D460026B1464D
:100EA0000427DFF8A483A6884FF6C0700640684682
:100EB00000F0D9FADDF80880E448B8FBF0F01FFA3A
:100EC00080F946EA0906A68020884FF6FE710840A0
:100ED00020800026DE49286888420CD82868400017
:100EE000B8FBF0F087B2042F00DA04273E4309F183
:100EF0000100208427E0E8884BF6FF71884206D184
:100F0000286800EB4000B8FBF0F087B209E02868E1
:100F100000EBC00101EB0010B8FBF0F087B247F422
:100F20008047C7F30B0008B947F0010747F40040BA
:100F300006434FF4967009FB00F04FF47A7190FB72
:100F4000F1F0401C2084A683208840F0010020801E
:100F500026884FF6F5300640A8886989084306437D
:100F60002680A88929890843208105B0BDE8F0833F
:100F700041F288310160002181804BF6FF71C18010
:100F80000021018141814FF480418181704721B16D
:100F9000028842F00102028004E002884FF6FE73EC
:100FA0001A400280704721B1828842F40062828038
:100FB00004E082884FF2FF731A408280704721B1AB
:100FC000828842F48052828004E082884EF6FF7369
:100FD0001A408280704721B1028842F480720280F8
:100FE00004E002884FF6FF631A400280704721B187
:100FF000028842F40072028004E002884FF6FF5338
:101000001A400280704721B1028842F48062028057
:1010100004E002884FF6FF331A40028070470A4608
:10102000002181894FF60173194002F0FE03194334
:101030008181704721B1828942F00102828104E0FE
:1010400082894FF6FE731A408281704721B102886F
:1010500042F04002028004E002884FF6BF731A405B
:10106000028070471AB183880B43838002E0838833
:101070008B4383807047018270470146088AC0B263
:10108000704712B141F0010102E04FF6FE731940C2
:101090000182704708B50246002000900092009837
:1010A000084400900098008808BD21B1028842F4ED
:1010B0000042028003E00288C2F30E020280704701
:1010C000B1F5006F04D1028842F40062028004E0AE
:1010D00002884FF2FF731A4002807047B1F5005F3B
:1010E00004D1028842F40052028004E002884DF6E6
:1010F000FF731A400280704721B1028842F4805287
:10110000028004E002884EF6FF731A4002807047A6
:10111000B1F5006F04D1028842F40062028004E05D
:1011200002884FF2FF731A400280704721B1028893
:1011300042F02002028004E002884FF6DF731A407A
:10114000028070470146088B0012704721B1028867
:1011500042F01002028004E002884FF6EF731A405A
:101160000280704721B9028842F08002028004E0C8
:1011700002884FF67F731A4002807047B1F5804FA6
:1011800005D0828B4BF6FF731A40828303E0828B7B
:1011900042F480428283704770B5024600240025E5
:1011A00000230020958A138B1B0445EA030626F0D2
:1011B0007F4404EA01068E4201D1012000E00020B4
:1011C00070BD10B501460020002300228B8A0A8BD7
:1011D000120443EA020424F07F4010BD0CB502461D
:1011E000002000230193009300920B0F019321F044
:1011F0007F41019B1BB1009B1433009303E0090C5A
:10120000009B18330093009B1B680B400BB101201F
:1012100000E000200CBD002221F07F42D3438382F6
:10122000704730B5024600200023948801F0E06545
:1012300004EA154321F07F41948A0C4054B14BB12C
:10124000012008E00054004000127A0040420F00E4
:10125000A0860100002030BD002221F07F42D34350
:1012600083827047DF48006840F00100DD49086074
:1012700008464068DC490840DA494860084600688A
:10128000DA490840D74908600846006820F4802001
:1012900008600846406820F4FE0048604FF41F00D4
:1012A00088607047CF49096821F48031CD4A1160C8
:1012B0001146096821F480211160B0F5803F03D008
:1012C000B0F5802F0ED106E0C649096841F480319F
:1012D000C44A116007E0C349096841F4A021C14A2A
:1012E000116000E000BF00BF704710B5014600224A
:1012F000002300204A11012A02D1BA4C236806E0DB
:10130000022A02D1B74C236A01E0B64C636A01F0AD
:101310001F02012494401C400CB1012000E0002079
:1013200010BD38B5002000900024002500BF3120FA
:10133000FFF7DBFF05460098401C00900098B0F5D1
:10134000A06F01D0002DF2D03120FFF7CEFF08B101
:10135000012400E00024204638BD01460020A14AB7
:10136000106820F0F80040EAC10010607047A04902
:1013700008607047024600209A4B586820F47C10A1
:1013800042EA01031843974B586070479849086632
:10139000704701460020934A506820F0030008433C
:1013A000506070478F48406800F00C00704701465D
:1013B00000208C4A506820F0F000084350607047CD
:1013C00001460020874A506820F4E06008435060DE
:1013D000704701460020834A506820F4605040EA7C
:1013E000C1005060704729B17E4A527A02437D4B5A
:1013F0005A7204E07B4A527A82437A4B5A7270479F
:101400007B49D8310860704701460020754A506812
:1014100020F440400843506070470021714A203258
:101420001170704A82F82010012802D004280AD1D5
:1014300004E001216B4A2032117005E00521694A60
:101440002032117000E000BF00BF7047694908609A
:1014500070476449096A0143624A116270476549ED
:1014600044390860704730B5002100220024002371
:101470005C4D6D6805F00C0121B1042905D00829E7
:1014800023D105E05C4D056022E05B4D05601FE067
:10149000544D6D6805F47012524D6D6805F480343A
:1014A000022505EB92421CB9544D554305600BE0F3
:1014B0004C4D6D6805F400351DB1504D5543056028
:1014C00002E04D4D5543056002E04B4D056000BF05
:1014D00000BF444D6D6805F0F0010909484D6B5C93
:1014E0000568DD4045603F4D6D6805F4E061090A1F
:1014F000434D6B5C4568DD4085603A4D6D6805F491
:101500006051C90A3E4D6B5C4568DD40C560354D94
:101510006D6805F44041890B3A4D6B5CC568B5FBBD
:10152000F3F5056130BD29B12E4A526902432D4BB6
:101530005A6104E02B4A526982432A4B5A61704730
:1015400029B1284A92690243264B9A6104E0254A50
:1015500092698243234B9A61704729B1214AD2692B
:101560000243204BDA6104E01E4AD26982431D4BDC
:10157000DA61704729B11B4AD2680243194BDA601D
:1015800004E0184AD2688243164BDA60704729B1EA
:10159000144A12690243134B1A6104E0114A12699A
:1015A0008243104B1A6170471249403908607047F6
:1015B0000F49C86470470B49C87170470948406AB1
:1015C00040F0807007494862704701460020054A94
:1015D00092680A400AB1012000E0002070470149EA
:1015E00088727047001002400000FFF8FFFFF6FE0F
:1015F000000042428004424200127A0000093D008D
:10160000140000202400002010B50446FB4884424A
:1016100009D101218803FFF7ADFF00214FF480407D
:10162000FFF7A8FF32E0F648844209D101214804BF
:10163000FFF7ADFF00214FF40030FFF7A8FF25E0D2
:10164000F048844209D101218804FFF7A0FF00215E
:101650004FF48020FFF79BFF18E0EB48844209D14C
:101660000121C804FFF793FF00214FF40020FFF78A
:101670008EFF0BE0E548844208D101210805FFF701
:1016800086FF00214FF48010FFF781FF10BD2DE988
:10169000F04786B005460E460024A24600BFA1468C
:1016A0000027B08900B100BF2F462C8A4CF6FF708E
:1016B0000440F08804432C82AC894EF6F3100440B9
:1016C000B08831890843718908430443AC81AC8AEE
:1016D0004FF6FF400440B0890443AC8201A8FFF7F5
:1016E000C2FEC648874202D1DDF810A001E0DDF855
:1016F0000CA0A88900F4004040B10AEBCA0000EB3E
:101700000A1031684900B0FBF1F807E00AEBCA00A3
:1017100000EB0A1031688900B0FBF1F86420B8FBD7
:10172000F0F004012009642101FB1089A88900F46C
:10173000004040B1322000EBC900B0FBF1F000F0F6
:101740000700044308E0322000EB09106421B0FBDD
:10175000F1F000F00F0004432C8106B0BDE8F087E3
:101760004FF41651016000218180C18001810C215C
:10177000418100218181704710B502460020108A06
:101780004FF2FF0318400B884C8823438C88234377
:10179000CC8823431843108210BD00210180418072
:1017A0008180C180704721B1828942F400528281D8
:1017B00004E082894DF6FF731A4082817047F0B5CC
:1017C0000346002400260025002040F66A17B9428F
:1017D00000D100BF1846C1F3421401F01F060127D3
:1017E00007FA06F5012C01D10C3004E0022C01D1DE
:1017F000103000E014301AB107682F43076002E090
:101800000768AF430760F0BD1AB1838A0B43838238
:1018100002E0838A8B4383827047028A4FF6F0731B
:101820001A400282028A0A430282704782894FF27A
:10183000FF731A40828182890A438281704721B1F5
:10184000828942F00202828104E082894FF6FD73B0
:101850001A4082817047028A4FF6DF731A40028273
:10186000028A0A430282704721B1028A42F480420E
:10187000028204E0028A4BF6FF731A40028270472C
:10188000C1F308028280704701468888C0F30800CF
:101890007047818941F0010181817047028BD2B28A
:1018A0000283028B42EA012202837047028B02F418
:1018B0007F420283028B0A430283704721B1828AEE
:1018C00042F02002828204E0828A4FF6DF731A40DF
:1018D0008282704721B1828A42F01002828204E043
:1018E000828A4FF6EF731A408282704721B1828A52
:1018F00042F00802828204E0828A4FF6F7731A40AF
:101900008282704721B1828942F40042828103E0E1
:101910008289C2F30E028281704721B1828A42F429
:101920000062828204E0828A4FF2FF731A40828250
:101930007047828A4FF6FB731A408282828A0A437A
:101940008282704721B1828A42F00202828204E0E0
:10195000828A4FF6FD731A40828270470246002049
:10196000B1F5007F00D100BF13880B400BB10120FF
:1019700000E00020704701F40072B2F5007F00D152
:1019800000BFCA430280704770B50246002400239E
:101990000025002040F66A16B14200D100BFC1F315
:1019A000421501F01F03012606FA03F3012D02D1AF
:1019B0009689334006E0022D02D1168A334001E0B9
:1019C000968A33400C12012606FA04F41688344035
:1019D00013B10CB1012000E0002070BD10B5002251
:1019E000002340F66A14A14200D100BF0A1201246C
:1019F0009440A3B2DC43048010BD000000380140D5
:101A00000044004000480040004C004000500040AE
:101A10000648804706480047FEE7FEE7FEE7FEE788
:101A2000FEE7FEE7FEE7FEE7FEE7FEE783020008CB
:101A3000ED000008704700BFFEE700BFFEE700BFF3
:101A4000FEE700BFFEE7704710B5002232210520F7
:101A500005F01AFF3549086000223221012005F007
:101A600013FF3349086000221421012005F00CFF08
:101A70003049086000221421012005F005FF2E499D
:101A8000086010BD1FB500202C4A0623CDE90120B7
:101A9000009303900346802229A12C4806F0CEFA39
:101AA00000202B4A0923CDE901200093039003462F
:101AB000802228A12A4806F0C1FA0020294A0723DB
:101AC000CDE901200093039003464FF4807226A1D4
:101AD000294806F0B3FA0020284A0A23CDE901205C
:101AE000009303900346802225A1284806F0A6FA19
:101AF0000020274A0B23CDE90120009303900346E1
:101B0000802224A1274806F099FA1FBD012080F306
:101B1000108800BF03F0BCFF07F028FBFFF7B2FFFF
:101B2000FFF792FF06F049FF00BFFEE73C000020F0
:101B30004000002044000020480000202800002031
:101B40005461736B204C656400000000159100081F
:101B50002C0000205461736B204B6579000000005D
:101B60002F910008300000205461736B204469738A
:101B7000706C61790000000041910008380000207D
:101B80005461736B204D7075000000000D930008C8
:101B9000340000205461736B204A6F795374696379
:101BA0006B000000E1920008014691F90020002A34
:101BB00001DD00201EE091F90020002A01DA042056
:101BC00018E091F90120002A01DD012012E091F9CD
:101BD0000120002A01DA05200CE091F90220002AF8
:101BE00001DD022006E091F90220002A01DA062038
:101BF00000E00720704770B505462846FFF7D4FF80
:101C00000446E81CFFF7D0FF44EAC00084B2A81DD8
:101C1000FFF7CAFF44EA801084B2204670BD70B559
:101C200088B002A905A802F02EF80446072C3FD17F
:101C300001A801F09CFA059808F06DF90646019993
:101C400007F071FF054608F074F90590069808F052
:101C500062F90646019907F066FF054608F069F942
:101C60000690079808F057F90646019907F05BFFC0
:101C7000054608F05EF9079005A802F014FB6846D7
:101C800001F092FABDF80010029848430290BDF8A6
:101C90000010039848430390BDF80010049848438F
:101CA000049002A802F092FBFDA008F04FFB00BFD9
:101CB00008B070BD2DE9F04304460D46DDE9076725
:101CC0000021012041E0DFF8FCC33CF81080A0F1C6
:101CD000010CDFF8F09329F81C8009F1160C3CF890
:101CE0001090A0F1010CDFF8DC8308F1160828F849
:101CF0001C9008F1160C3CF81090A0F1010C08F1B2
:101D0000160828F81C9008F1160C3CF81090A0F169
:101D1000010C08F1160828F81C9008F1160C3CF884
:101D20001090A0F1010C08F1160828F81C9008F199
:101D3000160C3CF81090A0F1010C08F1160828F8D8
:101D40001C9000F1010C0CF0FF000A28BBDBDFF84F
:101D500074C3ACF81240ACF82850ACF83E20ACF894
:101D60005430ACF86A60ACF880700021002008E0C4
:101D7000DFF850C33CF910C0614400F1010C0CF0D5
:101D8000FF000A28F4DB4FF00A0C91FBFCFC0FFA71
:101D90008CFCDFF83083A8F814C0002100200AE092
:101DA000DFF820C30CF1160C3CF910C0614400F1BF
:101DB000010C0CF0FF000A28F2DB4FF00A0C91FB3B
:101DC000FCFC0FFA8CF8DFF8FCC2ACF82A8000218A
:101DD00000200AE0DFF8ECC20CF12C0C3CF910C03A
:101DE000614400F1010C0CF0FF000A28F2DB4FF017
:101DF0000A0C91FBFCFC0FFA8CF8DFF8C8C2ACF8B7
:101E00004080002100200AE0DFF8B8C20CF1420C4B
:101E10003CF910C0614400F1010C0CF0FF000A28ED
:101E2000F2DB4FF00A0C91FBFCFC0FFA8CF8DFF8A8
:101E300094C2ACF85680002100200AE0DFF884C28A
:101E40000CF1580C3CF910C0614400F1010C0CF08D
:101E5000FF000A28F2DB4FF00A0C91FBFCFC0FFAA2
:101E60008CF8DFF860C2ACF86C80002100200AE03A
:101E7000DFF850C20CF16E0C3CF910C0614400F167
:101E8000010C0CF0FF000A28F2DB4FF00A0C91FB6A
:101E9000FCFC0FFA8CF8DFF82CC2ACF88280BDE8AD
:101EA000F08338B50446032302226B21D02000942E
:101EB00005F0E2F938BD38B5044602202346042275
:101EC0001B210090D02005F0D7F938BD38B5044665
:101ED0000220234604221C210090D02005F0CCF9DA
:101EE00038BD10B50446062322466B21D02005F0EC
:101EF000F3F910BD10B50123734A7521D02005F008
:101F0000BDF87148007810BD10B5FFF7F3FF6828E1
:101F100001D1012010BD0020FCE710B50446234686
:101F200005226A21D02005F0D7F910BD10B504466E
:101F3000234601223721D02005F0CEF910BD10B57F
:101F40000220FFF7AEFF0320FFF7B5FF0020FFF7E9
:101F5000BDFF0020FFF7C5FF0020FFF7DEFF0020D8
:101F6000FFF7E4FF10BD70B57521D02004F0E0FF4D
:101F70000446682C0ED000BF5448006800F4E060AE
:101F800053490843001D51490860BFF3408F00BF0B
:101F900000BFFEE700F029FEE0B9782000F08DFADE
:101FA000782000F071FCC82000F04FFD02F0E0F84E
:101FB0004848FFF720FE054602F0E4F840F27310AF
:101FC00002F021FDC82002F097FAFFF728FE012059
:101FD00001F014FE70BD2DE9F04F8FB00CA83E4902
:101FE0000DAB08AACDE900103C493D4802F06AFE5D
:101FF0003948008800F4807000287DD0089807F0E8
:102000008AFF04464FF09D4107F0BFFD3549086047
:10201000099807F080FF04464FF09D4107F0B5FD99
:10202000314908600A9807F076FF04464FF09D4159
:1020300007F0ABFD2D4908600B9807F06CFF0446D4
:102040004FF09D4107F0A1FD29490860254801682E
:102050004FF0804007F067FD06902448016806981D
:1020600007F061FD8246204801684FF0404007F0CC
:102070005AFD06901E480168069807F054FD8346F5
:10208000514607F0F8FC079007F080FF804608F003
:1020900009FA06464FF06632164B07F05BFE2CE05D
:1020A00073657474696E6720626961732073756308
:1020B00063657366756C6C79202E2E2E2E2E2E0D78
:1020C0000A000000EA020020DC0200200CED00E023
:1020D0000000FA057800002058000020520000207F
:1020E0004C000020680000206C00002070000020E0
:1020F0007400002066A64C40AEE0044607F059FF8D
:1021000075490860754801684FF0804007F00BFD85
:10211000039072480168039807F005FD82467048F5
:1021200001684FF0404007F0FEFC03906C480168E6
:10213000039807F0F8FC8346514607F0EEFC814611
:102140004FF07E5107F097FC044607F01FFFCDE9E2
:102150000401644801684FF0804007F0E4FC8346C6
:102160005F480168584607F0DEFC81465B4801681D
:102170004FF0804007F0D7FC83465B480168584623
:1021800007F0D1FC8246494607F075FC044607F08B
:10219000FDFE0746DDE9042308F0CCFB4FF0663274
:1021A000524BCDE9060107F0D5FD054607F001FFCA
:1021B0004F4908604C480168006807F0B4FC039080
:1021C00046480168006807F0AEFC02904448016888
:1021D000006807F0A8FC834642480168006807F0E1
:1021E000A2FC5946019007F046FC8246029907F08E
:1021F00094FC8146039907F090FC044607F0C6FE64
:10220000CDE90401384801683648006807F08BFCC6
:102210008246324801683248006807F084FC8346F1
:10222000514607F028FC81464FF0804107F07BFCC7
:10223000044607F0ABFE0746DDE9042308F07AFB0D
:102240004FF06632294BCDE9060107F083FD0546C4
:1022500007F0AFFE274908600FB0BDE8F08F2DE909
:10226000FC5F012301AA4121D02004F007FF0123D4
:102270006A464221D02004F001FF9DF800109DF82D
:10228000042001EB022007F046FE82464FF08E410B
:10229000504607F0B5FE05D24FF08F41504607F08B
:1022A0003CFC82461449504607F06FFC834607F019
:1022B0006DFE8046114A124B07F0A5FC064600222F
:1022C000104B07F047FD044607F073FE8246504668
:1022D00007F02FFEBDE8FC9F5C000020700000208E
:1022E0006C000020680000207400002066A64C40AE
:1022F00060000020640000200000AA43A4703D0A92
:10230000D7434240000024402DE9F04106460F46E5
:1023100014461D4623462A463946304604F090FDB1
:10232000BDE8F0812DE9F04106460F4614461D46F2
:1023300023462A463946304604F0A0FEBDE8F08127
:1023400038B50446FB4890F82400C0B114B102200F
:10235000009001E000200090F64A1268D17BF54A17
:10236000526810786B460122FFF7CEFF10B14FF094
:10237000FF3038BD9DF80010EE48417423E0ED4871
:10238000807A10B94FF0FF30F3E724B1E948407C80
:1023900008B10020EDE714B10120009001E0002019
:1023A0000090E44A1268D17BE24A526810786B468A
:1023B0000122FFF7A9FF10B14FF0FF30D9E79DF8D8
:1023C0000010DC4841740020D3E738B5002419E040
:1023D000D8480068C07AA04204D0D6480068407D42
:1023E000A04200D10CE0D349496808786B4601222D
:1023F0002146FFF797FF10B14FF0FF3038BD00BF07
:10240000601CC4B2CB4840680079A042E0DC0020E8
:10241000F4E770B504460D46C6480068C07AA0428D
:1024200004D0C4480068407DA04202D14FF0FF3084
:1024300070BDC04840680079A04202DC4FF0FF3018
:10244000F6E7BC49496808782B4601222146FFF788
:1024500069FFEDE738B50446B64890F82300A0427E
:1024600001D1002038BD14B13020009001E00020DF
:102470000090B048807C20B19DF8000040F0020040
:102480000090AC4890F8220020B19DF8000040F088
:1024900080000090A74A1268117DA64A5268107801
:1024A0006B460122FFF730FF10B14FF0FF30D9E744
:1024B000A04880F823400020D4E738B5044604F053
:1024C000700010B10120009005E014B100200090D0
:1024D00001E040200090974A1268917C954A52682A
:1024E00010786B460122FFF70FFF20B100219148C1
:1024F0008172481E38BD9DF8000020F040018D48D3
:1025000001730020009004F0400020B99DF8000005
:1025100040F00400009004F0200020B99DF8000075
:1025200040F00200009004F0100020B99DF8000077
:1025300040F00100009004F0080020B99DF8000070
:1025400040F0380000907B4A1268D17C794A52688A
:1025500010786B460122FFF7D7FE20B100217548A5
:102560008172481EC6E724B1082C02D00020FFF774
:1025700071FF7048847200210175322003F0D6F992
:102580000020B7E738B504466A48807CA04201D1F4
:10259000002038BD002C46D0664A12681179654A81
:1025A000526810786B460122FFF7BCFE10B14FF065
:1025B000FF30EEE79DF8000020F0200000905D4A1B
:1025C000126811795B4A526810786B460122FFF756
:1025D0009BFE10B14FF0FF30DBE7032003F0A6F9BC
:1025E00002200090534890F8220020B19DF800008E
:1025F00040F0800000904F4890F8230020B19DF8F3
:10260000000040F0300000904A4A1268117D494AAB
:10261000526810786B460122FFF776FE002851D0F1
:102620004FF0FF30B5E7434A12681179414A5268CA
:1026300010786B460122FFF775FE10B14FF0FF30A6
:10264000A7E73C48807A00F0010028B19DF800001F
:1026500040F02000009004E09DF8000020F02000F1
:102660000090344A12681179324A526810786B46E9
:102670000122FFF749FE10B14FF0FF3089E7032038
:1026800003F054F92B4890F8220010B180200090FC
:1026900001E000200090274890F8230020B19DF829
:1026A000000040F030000090224A1268117D214A5B
:1026B000526810786B460122FFF726FE10B14FF0EA
:1026C000FF3066E71B488474002062E708B51948AC
:1026D000807A10B94FF0FF3008BD00200090154AF5
:1026E0001268D17B134A526810786B460122FFF7BB
:1026F0000BFE10B14FF0FF30EEE70E4A1268517931
:102700000C4A526810786B460122FFF7FDFD10B1AC
:102710004FF0FF30E0E7074A12681179054A526826
:1027200010786B460122FFF7EFFD28B14FF0FF3024
:10273000D2E7000088000020F74890F82400002825
:1027400050D00C200090F44A12681179F24A526875
:1027500010786B460122FFF7D7FD10B14FF0FF3024
:10276000BAE7C0200090EC48807A00F0010020B168
:102770009DF8000040F020000090E74A12681179AF
:10278000E54A526810786B460122FFF7BDFD10B193
:102790004FF0FF30A0E7E048407C10B102200090ED
:1027A00001E000200090DC4A1268D17BDA4A5268CE
:1027B00010786B460122FFF7A7FD10B14FF0FF30F4
:1027C0008AE700200090D44A12685179D24A5268B0
:1027D00010786B460122FFF797FD002852D04FF08A
:1027E000FF3079E704200090CB4A12681179CA4A79
:1027F000526810786B460122FFF786FD10B14FF04A
:10280000FF3069E7C448807C20B9C348807A00F073
:10281000010010B94020009001E060200090BE4A05
:1028200012681179BC4A526810786B460122FFF792
:102830006BFD10B14FF0FF304EE7B748407C10B150
:102840000120009001E000200090B34A1268D17B83
:10285000B14A526810786B460122FFF755FD10B15E
:102860004FF0FF3038E7AC4A12685179AA4A5268F3
:102870001078A94B10330122FFF746FD10B14FF03D
:10288000FF3029E7002027E770B50446002624F032
:102890000104A14890F8240008B1002070BD9E48B2
:1028A000807A10B94FF0FF30F8E79B48057C807ABA
:1028B0002040994908740846007CA04202D04FF09D
:1028C000FF3600E0002614B99348007D18B10120BE
:1028D000FFF736FD02E00020FFF732FD3CB1FFF7C5
:1028E000F5FE20B18C4805744FF0FF30D6E7304636
:1028F000D4E738B504468848807A10B94FF0FF30E5
:1029000038BDBC2C02DB0120009015E0622C02DBFC
:102910000220009010E02A2C02DB032000900BE044
:10292000142C02DB0420009006E00A2C02DB0520B8
:10293000009001E0062000907748C07A9DF80010D2
:10294000884201D10020DBE7734A12689178724A0D
:10295000526810786B460122FFF7D6FC10B14FF099
:10296000FF30CDE79DF800106B48C1720020C7E72B
:1029700038B50446282C02DD4FF0FF3038BDDCB9F5
:102980000020FFF767FD00208DF8000007208DF87C
:102990000100614A1268917C5F4A526810786B4668
:1029A0000222FFF7B1FC10B14FF0FF30E6E7002143
:1029B000594801750020E1E70120FFF74BFD202079
:1029C0008DF80000012C06D100208DF801000520B3
:1029D000FFF78FFF17E0052C06DC01208DF80100C2
:1029E0000520FFF786FF0EE0142C06DC02208DF890
:1029F00001000A20FFF77DFF05E003208DF80100AC
:102A00001420FFF776FF9DF80100072101EB8010ED
:102A1000C0B28DF80100404A1268917C3E4A52686B
:102A200010786B460222FFF76FFC10B14FF0FF30B9
:102A3000A4E7082138488172002101730121017542
:102A40000020FFF721FF002098E738B50446324800
:102A5000807A10B94FF0FF3038BD2F4890F824002D
:102A600010B14FF0FF30F7E72B48007D50B134B183
:102A7000282C04DCE0B2FFF77BFF0020ECE700200D
:102A8000FFF776FF042C01DA042404E0B4F57A7F22
:102A900001DD4FF47A744FF47A7090FBF4F0401E2D
:102AA000C0B200901C4A126851781B4A52681078D4
:102AB0006B460122FFF728FC10B14FF0FF30CBE747
:102AC0009DF80000401C4FF47A7191FBF0F081B248
:102AD0001148C1810146C9894810FFF70AFF00204B
:102AE000BAE738B504460C48807A10B94FF0FF3089
:102AF00038BD022C06D0042C07D0082C08D0102C8E
:102B00000FD10BE0002000900EE0082000900BE0B9
:102B10001020009008E0000088000020182000909D
:102B200002E04FF0FF30E3E700BFF848407A9DF83D
:102B30000010B0EBE10F01D10020D9E7F34A126891
:102B4000D179F24A526810786B460122FFF7DCFB1C
:102B500010B14FF0FF30CBE79DF80000C110EB48FB
:102B600041720020C4E738B50446E848807A10B9BD
:102B70004FF0FF3038BDFA2C09D0B4F5FA7F09D0F8
:102B8000B4F57A7F09D0B4F5FA6F0CD108E00020D3
:102B900000900BE00820009008E01020009005E075
:102BA0001820009002E04FF0FF30E3E700BFD74865
:102BB000007A9DF80010B0EBE10F01D10020D9E7B9
:102BC000D24A12689179D14A526810786B46012234
:102BD000FFF79AFB10B14FF0FF30CBE79DF80000F4
:102BE000C010CA4908720020C4E71CB580208DF8C7
:102BF0000000C64A1268917CC44A526810786B463D
:102C00000122FFF781FB10B14FF0FF301CBD6420A3
:102C100002F08CFE00208DF80000BC4A1268917C06
:102C2000BA4A526810786B460122FFF76DFB10B16B
:102C30004FF0FF30EAE7B54A1268917DB34A526817
:102C400010786B460622FFF76DFB10B14FF0FF3096
:102C5000DCE79DF80500C007400F9DF8031001F068
:102C6000010140EA41009DF8011001F0010140EA34
:102C7000010474B1012C03D10121A448C17427E0DF
:102C8000022C03D10021A148C17421E04FF0FF3094
:102C9000BCE79E4A1268D1789C4A526810786B460D
:102CA0000122FFF73FFB10B14FF0FF30AEE79DF878
:102CB000000000F00F0414B94FF0FF30A6E7042C19
:102CC00003D101219148C17402E000218F48C174F1
:102CD000FF218E488172FF208C490872FF218B48AA
:102CE0004172C1724FF6FF71C181FF21017481747D
:102CF0000121017380F82210002180F82310417512
:102D000001751630016041608160163880F824102A
:102D100080F82510C1844FF4FA60FFF724FF10B14A
:102D20004FF0FF3072E70220FFF7DBFE10B14FF0EB
:102D3000FF306BE72A20FFF7DCFD10B14FF0FF30CA
:102D400064E73220FFF781FE10B14FF0FF305DE7FE
:102D50000020FFF799FD10B14FF0FF3056E700203B
:102D6000FFF710FC10B14FF0FF304FE70020FFF7E6
:102D7000A4FB00204AE770477CB504460D46634833
:102D8000807A00F0700010B94FF0FF307CBD5F4AD0
:102D90001268117B5D4A526810786B460622FFF775
:102DA000C1FA10B14FF0FF30F0E79DF801009DF837
:102DB000001040EA012000B220809DF803009DF839
:102DC000021040EA012000B260809DF805009DF8E5
:102DD000041040EA012000B2A08015B12846FFF798
:102DE000CAFF0020D2E77CB504460D464748807AEA
:102DF00000F0080010B94FF0FF307CBD434A126864
:102E0000517B424A526810786B460622FFF78AFAD5
:102E100010B14FF0FF30F0E79DF801009DF8001071
:102E200040EA012000B220809DF803009DF80210C6
:102E300040EA012000B260809DF805009DF8041072
:102E400040EA012000B2A08015B12846FFF793FFA9
:102E50000020D2E72DE9FE4F05460C462B48807A2C
:102E600018B94FF0FF30BDE8FE8F284A1268917BF9
:102E7000264A5268107802AB0222FFF753FA10B1CB
:102E80004FF0FF30EFE79DF809009DF8081040EA89
:102E9000012006B214B12046FFF76DFF1B494968B7
:102EA000C88807F041F8194901904968B1F908004C
:102EB00007F031F88346304607F02DF85946009068
:102EC00006F02BFE8246019906F05FFE814610490E
:102ED00006F0D1FD80464FF08F4106F024FE0746F4
:102EE00007F027F828600020BDE710B588B0044639
:102EF0001CB94FF0FF3008B010BD206850B96068B1
:102F000040B9A06830B90020F5E700008800002033
:102F100000000C42FA494968087806AB03221146C2
:102F2000FFF700FA10B14FF0FF30E4E79DF818000A
:102F3000082101EB201000F00F00ADF800009DF813
:102F4000190001EB201000F00F00ADF802009DF811
:102F50001A0001EB201000F00F00ADF8040020680B
:102F60004100BDF90000403091FBF0F000B2ADF837
:102F7000100060684100BDF90200403091FBF0F0A4
:102F800000B2ADF81200A0684100BDF90400403065
:102F900091FBF0F000B2ADF81400D9494968087807
:102FA00006AB06221146FFF7BDF910B14FF0FF3016
:102FB000A1E79DF819009DF8181040EA012000B221
:102FC000ADF808009DF81B009DF81A1040EA01209A
:102FD00000B2ADF80A009DF81D009DF81C1040EAF3
:102FE000012000B2ADF80C00BDF81000BDF80810CB
:102FF000084400B2ADF81000BDF81200BDF80A1088
:10300000084400B2ADF81200BDF81400BDF80C1071
:10301000084400B2ADF81400BDF81000000A8DF8A5
:103020001800BDF81000C0B28DF81900BDF81200EC
:10303000000A8DF81A00BDF81200C0B28DF81B000E
:10304000BDF81400000A8DF81C00BDF81400C0B2D1
:103050008DF81D00AA494968087806AB062211467A
:10306000FFF752F910B14FF0FF3044E7002042E77C
:103070000146A348007A30B1012807D0022809D0C0
:1030800003280FD10AE0FA2008800EE04FF4FA700E
:1030900008800AE04FF47A70088006E04FF4FA6086
:1030A000088002E00020088000BF00BF00207047B9
:1030B00001469348407A30B1012807D0022808D051
:1030C00003280CD108E0022008700BE004200870EF
:1030D00008E00820087005E01020087002E04FF0BA
:1030E000FF30704700BF8648C07C18B108784006A2
:1030F000000E08700020F4E701468148C07A0828D5
:1031000017D2DFE800F01704070A0D101318BC20CF
:10311000088013E06220088010E02A2008800DE07B
:10312000142008800AE00A20088007E005200880B3
:1031300004E000BF00BF0020088000BF00BF0020E7
:10314000704701466E4890F8240010B14FF0FF30F0
:1031500070476B48C08908800020F9E701460020CD
:103160000880401E704701464FF0FF30704701460F
:103170006348007A30B1012807D0022808D003281C
:103180000CD108E05F4808600BE05F48086008E089
:103190005E48086005E05E48086002E04FF0FF30DE
:1031A000704700BF0020FBE701465548407A30B128
:1031B000012808D002280AD0032810D10BE04FF4D0
:1031C000804008800EE041F69C7008800AE04FF4D1
:1031D0008050088006E04FF40060088002E04FF065
:1031E000FF30704700BF4648C07C10B108884010CF
:1031F00008800020F5E701464148007C0870002067
:10320000704701463E48807A10B10120087001E005
:10321000002008700020704738B504463848807A8E
:1032200010B94FF0FF3038BD354A1268117C344A6E
:10323000526810786B460222FFF774F810B14FF015
:10324000FF30F0E79DF801009DF8001040EA0120F2
:1032500000B220800020E6E72DE9FE4F07468846B1
:1032600092461D46DDF830B000260024244890F830
:10327000240010B1601EBDE8FE8F00202870204899
:10328000807A10B94FF0FF30F5E71D48007C10B987
:103290004FF0FF30EFE71A48007C00F0400008B123
:1032A000B01CC6B21648007C00F0200008B1B01C6B
:1032B000C6B21348007C00F0100008B1B01CC6B2C2
:1032C0000F48007C00F0080008B1B01DC6B20C4ADF
:1032D0001268917A0A4A526810786B460222FFF708
:1032E00021F810B14FF0FF30C5E79DF801009DF8BF
:1032F000001040EA0129B1450CDA0020BBE70000CC
:10330000880000200000034300008342333303425F
:1033100033338341FC4840684088B9EB600F17DDC8
:10332000F94A1268517CF84A526810786B460122BB
:10333000FEF7F8FF10B14FF0FF309CE79DF800005A
:1033400000F0100020B1FFF7C1F96FF0010092E723
:103350005046FFF710FDEC4A1268D17AEA4A5268EB
:1033600010786B463246FEF7DDFF10B14FF0FF30AC
:1033700081E799FBF6F0401E8BF8000000202870D2
:10338000B4422AD0E048007C00F0080028B3601C5A
:103390001DF800001DF8041040EA012000B2A8F852
:1033A0000000E01C1DF80010A01C1DF8000041EA00
:1033B000002000B2A8F80200601D1DF80010201DBA
:1033C0001DF8000041EA002000B2A8F804002878A7
:1033D00040F008002870A01D84B2B44213D0CA483F
:1033E000007C00F0400070B1601C1DF800001DF86A
:1033F000041040EA012000B23880287840F04000F4
:103400002870A01C84B2B44213D0BF48007C00F0E6
:10341000200070B1601C1DF800001DF8041040EA87
:10342000012000B27880287840F020002870A01C8D
:1034300084B2B44213D0B448007C00F0100070B1E4
:10344000601C1DF800001DF8041040EA012000B2C5
:10345000B880287840F010002870A01C84B20020AA
:1034600009E7F8B504460F461646A74890F8240029
:1034700010B94FF0FF30F8BDA348807A10B94FF073
:10348000FF30F8E7A04A1268917A9F4A5268107894
:103490006B460222FEF746FF10B14FF0FF30EAE71D
:1034A0009DF801009DF8001040EA0125A54203DACD
:1034B00000203070401EDEE7934840684088B5EB3E
:1034C000600F17DD904A1268517C8F4A526810785D
:1034D0006B460122FEF726FF10B14FF0FF30CAE71E
:1034E0009DF8000000F0100020B1FFF7EFF86FF03A
:1034F0000100C0E7844A1268D17A834A5268107882
:103500003B462246FEF70EFF10B14FF0FF30B2E708
:1035100095FBF4F0401E30700020ACE701467A487D
:1035200080F82210002070477CB50546764949682E
:10353000087801AB04220D21FEF7F4FE08B1072044
:103540007CBD9DF80700C0F301109DF8041001F048
:10355000E00140EAE1008DF800009DF80700C0F3AB
:1035600081009DF8051001F0E00140EAE1008DF8CE
:1035700001009DF8070000F003009DF8061001F01F
:10358000E00140EAE1008DF8020000241CE01DF893
:10359000040018B9002045F8240013E05B4845F802
:1035A000240006E055F82400594906F0BCFA45F815
:1035B00024001DF80400401EC0B20DF804000028CD
:1035C000F0D100BF601CC4B2032CE0DB0020B7E7E1
:1035D0002DE9FE4F06460F4600256846FFF7A4FF7B
:1035E000002442E056F8240057F82410A0EB010A0A
:1035F000BAF1000F01DB514601E0CAF100010846B3
:1036000006F089FC83464FF08F4106F0BEFA8046F3
:103610005DF82400002106F0E9FC16D05DF82410C6
:10362000404606F0B2FA82464FF07E5106F075FA37
:10363000814629F0004A3748416A504606F0E0FCCE
:1036400012D20120A04005430EE03248C169404635
:1036500006F0CCFC05D32F48016A404606F0D0FCAA
:1036600002D20120A0400543641C032CBADB28468B
:10367000BDE8FE8F2DE9FC5F06460F460025224976
:103680004968087801AB03220D21FEF74BFE10B10B
:103690000720BDE8FC9F9DF8040000F01F008DF896
:1036A00004009DF8050000F01F008DF805009DF84E
:1036B000060000F01F008DF80600002462E056F8B6
:1036C000240057F82410A0EB010BBBF1000F01DB25
:1036D000594601E0CBF10001084606F01CFC4FF012
:1036E0008F41009006F051FA814601A8005DC0B3F9
:1036F0000849086806F018FC83465946064806F053
:1037000044FA80460FE00000880000207B14AE3EA3
:103710001D5A843F3CAB000800B04C45FE49404672
:1037200006F001FA804601A8005D401EC0B201A962
:1037300008550028F2D14146484606F026FA83464D
:103740004FF07E5106F0E9F982462AF0004BF3482B
:103750008169584606F054FC13D20120A04005436D
:103760000FE0FFE7ED480169484606F03FFC05D34E
:10377000EA484169484606F043FC02D20120A040D5
:103780000543641C032C9ADB284682E72DE9F04FA1
:1037900087B005460C46914601208DF810000020A8
:1037A0008DF81100DE4A1268917CDD4A526810786B
:1037B00004AB0222FEF7A8FD20B14FF0FF3007B0A6
:1037C000BDE8F08FC82002F0B1F800208DF810009D
:1037D000D34A1268D17BD24A5268107804AB0122D6
:1037E000FEF792FD10B14FF0FF30E8E7CC4A1268C7
:1037F0005179CB4A5268107804AB0122FEF784FD60
:1038000010B14FF0FF30DAE7C54A1268917CC44A24
:103810005268107804AB0122FEF776FD10B14FF02C
:10382000FF30CCE7BE4A1268D17DBD4A526810789D
:1038300004AB0122FEF768FD10B14FF0FF30BEE788
:10384000B74A12681179B64A5268107804AB01225F
:10385000FEF75AFD10B14FF0FF30B0E70C208DF8A5
:103860001000AF4A12681179AD4A5268107804AB63
:103870000122FEF749FD10B14FF0FF309FE70F2006
:1038800002F054F8A648806A407A8DF81000A44AE5
:1038900012689178A24A5268107804AB0122FEF7B0
:1038A00033FD10B14FF0FF3089E79D48806A007A00
:1038B0008DF810009A4A12685178994A5268107827
:1038C00004AB0122FEF720FD10B14FF0FF3076E788
:1038D000B9F1000F07D09248806A807A40F0E0008A
:1038E0008DF8100004E08E48806A807A8DF8100010
:1038F0008B4A126891798A4A5268107804AB012287
:10390000FEF702FD10B14FF0FF3058E7B9F1000F9C
:1039100007D08348806AC07A40F0E0008DF810003C
:1039200003E07E48C07A8DF810007D4A1268D17994
:103930007B4A5268107804AB0122FEF7E5FC10B117
:103940004FF0FF303BE7B9F1000F02D0C82001F083
:10395000EDFF40208DF81000714A12681179704A0D
:103960005268107804AB0122FEF7CEFC10B14FF084
:10397000FF3024E778208DF81000694A12685179E9
:10398000674A5268107804AB0122FEF7BDFC10B103
:103990004FF0FF3013E76149888901F0C7FF00202D
:1039A0008DF810005E4A126851795D4A52681078AD
:1039B00004AB0122FEF7A8FC10B14FF0FF30FEE689
:1039C000574A1268917A564A5268107804AB02221C
:1039D000FEF7A8FC10B14FF0FF30F0E69DF81100A3
:1039E0009DF8101040EA012B0C209BFBF0F0C6B2B2
:1039F0000020A86068602860A06060602060824647
:103A000065E0474A1268D17A454A5268107804AB9B
:103A10000C22FEF787FC10B14FF0FF30CFE69DF887
:103A200011009DF8101040EA012000B2ADF8080026
:103A30009DF813009DF8121040EA012000B2ADF885
:103A40000A009DF815009DF8141040EA012000B20C
:103A5000ADF80C00BDF90810206808442060BDF9DD
:103A60000A10606808446060BDF90C10A068084442
:103A7000A0609DF817009DF8161040EA012000B2E2
:103A8000ADF800009DF819009DF8181040EA0120DB
:103A900000B2ADF802009DF81B009DF81A1040EA34
:103AA000012000B2ADF80400BDF9001028680844F8
:103AB0002860BDF90210686808446860BDF9041008
:103AC000A8680844A8600AF1010000F0FF0AB245A6
:103AD00097DB1248D0F800C02868C117090441EAF2
:103AE0001041070462460023384605F05BFF32466A
:103AF0000023CDE9020105F055FF28600748D0F802
:103B000000C06868C117090441EA10410704624611
:103B10000023384606E0000054E3853F3CAB000834
:103B20008800002005F03EFF32460023CDE9020167
:103B300005F038FF6860FE48D0F800C0A868C117DB
:103B4000090441EA1041070462460023384605F0A3
:103B500029FF32460023CDE9020105F023FFA860CA
:103B6000F348D0F804C02168C817000440EA11489F
:103B70000F04624600233846414605F013FF3246E3
:103B80000023CDE9020105F00DFF2060E848D0F8E0
:103B900004C06068C117090441EA10410704624685
:103BA0000023384605F0FEFE32460023CDE902012F
:103BB00005F0F8FE6060DE48D0F804C0A068C117C8
:103BC000090441EA1041070462460023384605F023
:103BD000E9FE32460023CDE9020105F0E3FEA060D4
:103BE000A068002804DDA068A0F58030A06003E094
:103BF000A06800F58030A0600020E0E538B50446FC
:103C0000CC4890F82400A04201D1002038BD24B354
:103C1000C84890F8250010B94FF0FF30F6E70020B3
:103C2000FEF78EFB0020FEF7ADFCC249C88CFEF704
:103C30000CFF00200090BF49496808786B460122BC
:103C40002321FEF761FB0121BA4880F824100120EE
:103C5000FEF776FBFEF73AFD13E00020FEF770FB5F
:103C6000B448007C0090B349496808786B4601224B
:103C70002321FEF749FB0021AE4880F82410FEF70F
:103C800025FD0020C2E72DE9F04F8DB083460F4699
:103C900002200C90A74890F8240020B10020FFF7E4
:103CA000ADFF012600E0002603A8FFF7E1F905A813
:103CB000FFF7FEF901A8FFF71FFA02A8FFF741FA84
:103CC0009C4890F80AA004A8FFF795FA002407E0A2
:103CD000002239465846FFF759FD00B902E0641C3E
:103CE000022CF5DB00BF022C01D1002528E00024C6
:103CF00007E0012206A909A8FFF748FD00B902E084
:103D0000641C022CF5DB00BF022C01D1002517E05A
:103D100006A93846FFF75CFC00F0FF0809A95846E1
:103D2000FFF7A8FC00F0FF090025B9F1000F01D151
:103D300045F00105B8F1000F01D145F0020500BFC3
:103D4000FF207C490872FF217A484172C1724FF608
:103D5000FF71C181FF218172017401210173BDF8DE
:103D60000C00FEF700FF9DF81400FEF7BAFEBDF848
:103D70000400FEF7BEFDBDF80800FEF766FE5046E3
:103D8000FEF79BFB9DF81000FEF77EFD16B10120AB
:103D9000FFF734FF28460DB0BDE8F08FF8B50446B4
:103DA0000D46164616B94FF0FF30F8BD6148807ACF
:103DB00010B94FF0FF30F8E720128DF80000E0B2A4
:103DC0008DF801009DF8010028445A494968498945
:103DD000884202DD4FF0FF30E7E7564A1268117E55
:103DE000544A526810786B460222FEF78DFA10B1E1
:103DF0004FF0FF30D9E74F4A1268517D4D4A526863
:103E0000107833462A46FEF77FFA10B14FF0FF30A4
:103E1000CBE70020C9E7F8B504460D46164616B9AB
:103E20004FF0FF30F8BD4348807A10B94FF0FF30B3
:103E3000F8E720128DF80000E0B28DF801009DF83F
:103E4000010028443B4949684989884202DD4FF016
:103E5000FF30E7E7374A1268117E364A5268107819
:103E60006B460222FEF750FA10B14FF0FF30D9E74F
:103E7000304A1268517D2F4A5268107833462A46DC
:103E8000FEF750FA10B14FF0FF30CBE70020C9E742
:103E90002DE9F04385B005460E46904699462548E3
:103EA00090F8250020B14FF0FF3005B0BDE8F08359
:103EB00016B94FF0FF30F8E7002423E0281B102844
:103EC00001DD102000E0281B87B232193946204658
:103ED000FFF764FF10B14FF0FF30E6E701AA394663
:103EE0002046FFF798FF10B14FF0FF30DDE73019A3
:103EF0003A4601A905F0B2FD10B16FF00100D4E718
:103F0000E01984B2AC42D9DB4FEA28208DF80000DA
:103F100008F0FF008DF80100064A1268917E054AFC
:103F2000526810786B460222FEF7EEF938B103E0D2
:103F30003CAB0008880000204FF0FF30B5E70121BE
:103F40008A4880F82510A0F826900020ADE70146A9
:103F5000864890F8240008700020704702464FF011
:103F6000FF30704701464FF0FF307047F8B5054607
:103F70000F461446002C70D0B5F5FF5F01DDFF261B
:103F800005E0202D01DA012601E0C5F3471607B947
:103F90000127282C02DD4FF0FF30F8BD7348407D2B
:103FA00028BB724890F8240038B10020FFF726FEA5
:103FB00001216E4880F8201003E000216B4880F852
:103FC00020106A481630FFF753F868481830FFF79A
:103FD0006FF866481A30FFF78FF864481C30FFF717
:103FE000B0F86248817A81771F30FFF704F900202A
:103FF000FEF7A6F90020FEF7BBFC00208DF80000BC
:104000005A4A12689178594A526810786B460122D0
:10401000FEF77AF910B14FF0FF30BEE740208DF87F
:104020000000524A1268D17B504A526810786B46A1
:104030000122FEF769F900B165E08DF800608DF8A6
:1040400001704A4A1268117A484A526810786B46E1
:104050000222FEF759F908B155E047E0052001F0CA
:1040600065FC4248407A072101EBC000C0B28DF8E0
:1040700000003E4A1268D1793C4A526810786B467B
:104080000122FEF741F900B13DE020208DF800004B
:10409000012C03D100208DF801000EE0052C03DC7B
:1040A00001208DF8010008E0142C03DC02208DF8BB
:1040B000010002E003208DF801009DF801000721B6
:1040C00001EB8010C0B28DF80100284A1268917C83
:1040D000264A526810786B460222FEF715F900B1A5
:1040E00011E0012121484175002056E71F4A163290
:1040F000002103E0505C00B105E0491C0C29F9D314
:104100004FF0FF3049E7FF2018490872FF21174898
:104110004172C1724FF6FF71C181FF21817201743A
:10412000012101730146887FFEF7C7F90F49C88A4C
:10413000FEF719FD0D49087EFEF7D3FC0B49488BAD
:10414000FEF7D7FB0949888BFEF77FFC0749C87F3C
:10415000FEF79AFB054890F8200010B10120FFF708
:104160004DFD002101484175002016E78800002020
:1041700010B5C8234FF48062F74940F6F630FFF7D8
:1041800087FE10BD10B586B00446F4A00068039009
:10419000F3A000680290F3A000680190F2A000680C
:1041A000009004F0030003A9085C8DF8140003A834
:1041B000C4F3C101405C8DF8150003A8C4F381115C
:1041C000405C8DF8160004F0030002A9085C8DF82D
:1041D000100002A8C4F3C101405C8DF8110002A8D0
:1041E000C4F38111405C8DF8120005AA032140F24E
:1041F0002640FFF7D3FD18B14FF0FF3006B010BDD9
:1042000004AA032140F22A40FFF7C8FD10B14FF085
:10421000FF30F3E7019805900098049004F0040043
:1042200058B19DF8140040F001008DF814009DF87D
:10423000100040F001008DF8100004F0200058B18B
:104240009DF8150040F001008DF815009DF8110053
:1042500040F001008DF8110004F4807058B19DF811
:10426000160040F001008DF816009DF8120040F095
:1042700001008DF8120005AA03214FF48860FFF7B2
:104280008DFD10B14FF0FF30B8E704AA032140F2D2
:104290003140FFF783FD10B14FF0FF30AEE7B34878
:1042A00004810020AAE71FB50446B048007A00F058
:1042B000030054F820000190AC48007A00F004009C
:1042C00010B1019840420190A848007AC0F3C100A3
:1042D00054F820000290A548007A00F0200010B1A8
:1042E000029840420290A148007AC0F3811054F82D
:1042F000200003909D48008900F4807010B103985D
:10430000404203909A49019880FB0101800F40EAE6
:10431000810001909649029880FB0110820042EAD8
:10432000917002909249039880FB0110820042EA4A
:10433000917003900198000E8DF800000198000C18
:104340008DF801000198000A8DF802000198C0B2B2
:104350008DF803006A4604214FF47470FFF71EFDC8
:1043600018B14FF0FF3004B010BD0298000E8DF868
:1043700000000298000C8DF801000298000A8DF8E8
:1043800002000298C0B28DF803006A4604214FF47F
:104390007570FFF703FD10B14FF0FF30E3E70398AE
:1043A000000E8DF800000398000C8DF801000398B2
:1043B000000A8DF802000398C0B28DF803006A4627
:1043C00004214FF47670FFF7E9FCCCE770B588B0B4
:1043D000064601A8FEF7E8FEBDF804000021C90367
:1043E00041EA5045C4036148007A00F0030056F8E2
:1043F000200005905D48007A00F0040010B1059897
:10440000404205905948007AC0F3C10056F8200098
:1044100006905648007A00F0200010B106984042FD
:1044200006905248007AC0F3811056F82000079099
:104430004E48008900F4807010B107984042079000
:104440000598C117A0FB042301FB043100FB0510F4
:10445000810041EA927005900698C117A0FB0423E1
:1044600001FB043100FB0510810041EA92700690C7
:104470000798C117A0FB042301FB043100FB0510C2
:10448000810041EA927007900598000E8DF80800AF
:104490000598000C8DF809000598000A8DF80A00AF
:1044A0000598C0B28DF80B000698000E8DF80C0030
:1044B0000698000C8DF80D000698000A8DF80E0085
:1044C0000698C0B28DF80F000798000E8DF8100006
:1044D0000798000C8DF811000798000A8DF812005B
:1044E0000798C0B28DF8130002AA0C214FF4257072
:1044F000FFF754FC08B070BD30B585B004461DA26E
:1045000007CA02AB07C3C82C03DD4FF0FF3005B06C
:1045100030BDC82090FBF4F0401E85B2280A8DF80B
:104520000000E8B28DF801006A46022140F2162030
:10453000FFF734FC10B14FF0FF30E8E702AA0C217E
:1045400040F6C120FFF72AFC10B14FF0FF30DEE744
:10455000064884810020DAE764AB00084CCD6C008B
:104560000CC92C00365676002646660070030020E3
:1045700009E3CA02FEF2ABC4AAF1DFDFBBAFDFDFA3
:104580000146FC4880890880002070472DE9FC47DF
:1045900006460F4606F0070010B1B7F5C86F03DDF9
:1045A0004FF0FF30BDE8FC87384605F0BDFC814682
:1045B000F14905F0EAFA80466846FEF779FD9DF874
:1045C0000000022806D0042816D0082826D010287B
:1045D00048D135E04FF08D41404605F0A4FA8146C0
:1045E00005F0C0FC84B2E549404605F09CFA8146DE
:1045F00005F0B8FC85B238E04FF08C41404605F03C
:1046000092FA814605F0AEFC84B2DD49404605F0E1
:104610008AFA814605F0A6FC85B226E04FF08B4170
:10462000404605F080FA814605F09CFC84B2D549ED
:10463000404605F078FA814605F094FC85B214E016
:104640004FF08A41404605F06EFA814605F08AFC3B
:1046500084B2CD49404605F066FA814605F082FCF9
:1046600085B202E04FF0FF309CE700BF20128DF8CA
:104670000400E0B28DF8050028128DF80600E8B2BB
:104680008DF8070006F00100A0B101AA02214FF445
:10469000EA70FFF783FB10B14FF0FF3082E70DF1B6
:1046A000060202214FF49270FFF778FB10B14FF031
:1046B000FF3077E706F00200A0B101AA02214FF413
:1046C000EC70FFF76BFB10B14FF0FF306AE70DF1B4
:1046D000060202214FF49470FFF760FB10B14FF017
:1046E000FF305FE706F00400A0B101AA02214FF4F9
:1046F000EE70FFF753FB10B14FF0FF3052E70DF1B2
:10470000060202214FF49670FFF748FB10B14FF0FC
:10471000FF3047E7002045E738B504460020009009
:1047200004F0010020B19DF8000040F0300000903E
:1047300004F0020020B19DF8000040F00C00009051
:1047400004F0040020B19DF8000040F00300009048
:104750006A4601214FF4A470FFF720FB38BD38B53D
:104760000446012C01DA012402E0042C00DD0424BB
:10477000601EC0B200906A46012140F24F10FFF760
:104780000DFB38BD38B50446052094FBF0F085B22A
:1047900028128DF80000E8B28DF801006A46022167
:1047A0004FF4EF70FFF7FAFA38BD38B5044605202C
:1047B00094FBF0F085B228128DF80000E8B28DF875
:1047C00001006A4602214FF4ED70FFF7E7FA38BDA9
:1047D000F8B505460E464FF47A7095FBF0F000FBF5
:1047E00006F4200E8DF80000200C8DF80100200A40
:1047F0008DF80200E0B28DF803006A4604214FF400
:10480000AE70FFF7CBFAF8BD38B50446052094FB2F
:10481000F0F084B220128DF80000E0B28DF80100B3
:104820006A4602214FF4AD70FFF7B8FA38BD38B5CB
:104830000446052094FBF0F084B220128DF80000AD
:10484000E0B28DF801006A4602214FF4AC70FFF728
:10485000A5FA38BD38B5044614B94FF0FF3038BD5D
:104860006A4604214FF45870FFF7D5FA10B14FF0A3
:10487000FF30F4E79DF8000000069DF8011040EAC3
:1048800001409DF8021040EA01209DF80310084302
:1048900020600020E3E738B50446200E8DF80000C4
:1048A000200C8DF80100200A8DF80200E0B28DF88E
:1048B00003006A4604214FF45870FFF76FFA38BDC1
:1048C00038B5044614B94FF0FF3038BD6A460421AC
:1048D0004FF47170FFF79FFA10B14FF0FF30F4E71B
:1048E0009DF8000000069DF8011040EA01409DF887
:1048F000021040EA01209DF80310084300EB8000FD
:10490000800020600020E0E738B504461420B4FBA6
:10491000F0F4200E8DF80000200C8DF80100200A24
:104920008DF80200E0B28DF803006A4604214FF4CE
:104930007170FFF733FA38BD38B5044664B12020F2
:104940008DF8000028208DF8010030208DF802003D
:1049500038208DF8030004E0A3220421684605F006
:1049600064F86A46042140F69E20FFF717FAFDF727
:10497000ADFE38BD700300200000484300004046F3
:104980000000C045000040450000C04438B5044662
:1049900064B1C0208DF80000C2208DF80100C42051
:1049A0008DF80200C6208DF8030004E08B2204215C
:1049B000684605F03AF86A46042140F69820FFF769
:1049C000EDF9FDF783FE38BD3EB504466CB1FDA19F
:1049D000D1E900208968CDE9002002916A460921C9
:1049E0004FF49760FFF7DAF93EBDF9A2D2E9001063
:1049F0009268CDE9010200916A4609214FF497605F
:104A0000FFF7CCF9F0E73EB5044602208DF8000030
:104A1000CA208DF80100E3208DF8020009208DF8EE
:104A200003006A4604216820FFF7B8F9A3208DF837
:104A3000000004F0400048B1C0208DF80100C820FB
:104A40008DF80200C2208DF8030006E0A3208DF847
:104A500001008DF802008DF8030004F4C07048B125
:104A6000C4208DF80400CC208DF80500C6208DF8F8
:104A7000060006E0A3208DF804008DF805008DF8EF
:104A80000600A3208DF807008DF808008DF80900B6
:104A90006A460A2140F6A720FFF780F904F00300D8
:104AA00018B120208DF8000002E0D8208DF8000019
:104AB0006A46012140F6B620FFF770F904F02000A5
:104AC00018B10120FFF780FF02E00020FFF77CFF14
:104AD00004F4C07008B304F4807060B1B2208DF8A3
:104AE00000008B208DF80100B6208DF802009B207D
:104AF0008DF803000BE0B0208DF8000080208DF8C9
:104B00000100B4208DF8020090208DF803006A4661
:104B1000042140F6A220FFF741F904F0010020B380
:104B2000F8208DF800006A4601214FF40B60FFF772
:104B300035F9FA210720FFF729FD0720FFF7ECFDE3
:104B40000120FFF70CFE6420FFF71CFE4FF4FA7003
:104B5000FFF72BFEC821A148FFF73AFE2820FFF7F8
:104B600053FE0A20FFF763FE08E0D8208DF800000E
:104B70006A4601214FF40B60FFF710F904F00200C0
:104B800018B1D9208DF8000002E0D8208DF800007F
:104B90006A46012140F23D70FFF700F904F004007D
:104BA00018B10120FFF7F2FE02E00020FFF7EEFE51
:104BB00004F0100018B10120FFF7BEFE02E0002053
:104BC000FFF7BAFE44F0080085494881FDF77EFDF5
:104BD00000208349887304F0400018B10846807BA8
:104BE000801D887304F4C07020B17D48807B801DD7
:104BF0007B49887304F0140020B17948807B103021
:104C00007749887304F0030020B17548807B001D4C
:104C10007349887300203EBD014671484089088071
:104C2000002070472DE9F0410446E07800F0C0060E
:104C3000E07800F03F05607800F0010098B1EF10D7
:104C40002846E91705EB5171C910A5EBC101491CB4
:104C500001F0FF086248006820B1614841460268DF
:104C60003846904700BF607800F0080030B15C48DB
:104C7000406818B1B0115A4A516888470020BDE811
:104C8000F08110B586B0044656A207CA03AB07C32D
:104C900057A207CA8DE80700012C09D0022C0ED1BB
:104CA00003AA0B2140F68220FFF778F806B010BD6A
:104CB0006A460B2140F68220FFF770F8F6E74FF0C6
:104CC000FF30F3E72DE9F04F8DB0074688461546D3
:104CD0009946DDE9166B0024002030804049887B2E
:104CE0005A4605A9FEF7BDFB18B1601E0DB0BDE820
:104CF000F08F3B48807A00F01400002861D09DF8C6
:104D0000140000069DF8151040EA01409DF81610A9
:104D100040EA01209DF81710084328609DF818000C
:104D200000069DF8191040EA01409DF81A1040EA6B
:104D300001209DF81B10084368609DF81C000006C8
:104D40009DF81D1040EA01409DF81E1040EA012028
:104D50009DF81F100843A8609DF8200000069DF8EC
:104D6000211040EA01409DF8221040EA01209DF800
:104D700023100843E86004F11000C4B2286800144E
:104D80000190686800140290A86800140390E86815
:104D90000014049001984043029901FB010003991B
:104DA00001FB0100049901FB010ABAF1706F02DBFB
:104DB000BAF1885F22DDFDF789FC00203080401EBB
:104DC00094E721E0B8AAB38DB4980D355D000000DA
:104DD000B8AAAAAAB088C3C5C700000009E3CA02DE
:104DE00070030020D8B1B9F38BA391B609B4D900F0
:104DF000DAB1B9F38BA391B6DAB4DA00B6F90000F0
:104E000040F48070308000BF3448807A00F0400069
:104E100020B305A9601C085C095D40EA012000B2CE
:104E2000A8F8000005A9E01C095C05AAA01C105CFC
:104E300041EA002000B2A8F8020005A9601D095C43
:104E4000201D105C41EA002000B2A8F80400A01D5B
:104E5000C4B2B6F9000040F0080030801F48408915
:104E600000F4C07008B305A9601C085C095D40EA45
:104E7000012000B2388005A9E01C095C05AAA01C2D
:104E8000105C41EA002000B2788005A9601D095C31
:104E9000201D105C41EA002000B2B880A01DC4B201
:104EA000B6F9000040F0700030800C48807A00F0C5
:104EB000030018B105A90819FFF7B4FE4846FDF72D
:104EC0005AFF002012E701460448016000207047A5
:104ED0000146024841600020704700007003002036
:104EE00007B582B0049801287DD1FE480168039877
:104EF00004F013FE0090FC480168009804F013FED3
:104F00000190FA480168019804F0B5FDF74908607E
:104F1000F748406801460090F648006804F0FDFD3F
:104F20000190F348806801460090019804F0F5FD77
:104F3000F1490860EE48C06880F000404860EC48E5
:104F4000C06880F000408860EC480068C86008468F
:104F500000680090E4480168009804F0E4FD0190C6
:104F6000E348006801460090019804F084FDE049A0
:104F70000860E14840680090DB480168009804F050
:104F8000D2FD0190DA48406801460090019804F093
:104F900072FDD7494860D84880680090D2480168BF
:104FA000009804F0C0FD0190D1488068014600904F
:104FB000019804F060FDCE498860CF48C068009039
:104FC000C9480168009804F0AEFD0190C848C06867
:104FD00001460090019804F04EFDC549C860C348E1
:104FE0000168029800E0B6E004F097FDC44908604B
:104FF000C448007804F098FF0190BD48006801465D
:105000000090019804F08FFDBF490860BD4800780A
:1050100004F08AFF0190B64880680146009001982C
:1050200004F081FDB9490860B648007804F07CFFBF
:105030000090B5480168009804F075FD0190B448EF
:105040000168019804F017FDB2490860084601683C
:10505000AD48006804F099FDAF490860AD480168AB
:10506000AA48006804F091FDAC490860A6480068B1
:10507000AB490860A348007804F056FF01909C48B3
:10508000406801460090019804F04DFDA549086074
:10509000A3480168A048006804F045FD01909448C9
:1050A000006801460090019804F03AFD90490860BC
:1050B0009C4801689848006804F035FD01908C48D0
:1050C000406801460090019804F02AFD8849486034
:1050D000934801689148006804F025FD01908448D8
:1050E000806801460090019804F01AFD80498860AC
:1050F0008C4801688948006804F015FD01907C48DF
:10510000C06801460090019804F00AFD7849C86023
:105110007B4801688048006804F005FD01907348F1
:105120000168019804F0A7FC7049086074480168A0
:105130007A48006804F0F7FC01906A480168019819
:1051400004F099FC6749086008460168039804F078
:10515000E4FC75490860049802287DD17348016811
:10516000039804F0DAFC00905F480168009804F0AE
:10517000DAFC01906E480168019804F07CFC6C49EF
:1051800008606C484068014600905A48006804F086
:10519000C4FC01906748806801460090019804F0C3
:1051A000BCFC654908606348C06880F00040486006
:1051B0006048C06880F00040886050480068C8605F
:1051C00008460068009048480168009804F0ABFC6D
:1051D00001905848006801460090019804F04BFC8B
:1051E000544908605448406800903F48016800985E
:1051F00004F099FC01904F484068014600900198E6
:1052000004F039FC4B4948604B48806800903648B0
:105210000168009804F087FC0190464880680146C8
:105220000090019804F027FC424988604248C06819
:1052300000902D480168009804F075FC01903D48ED
:10524000C06801460090019804F015FC3949C86017
:1052500037480168029800E0EFE004F05EFC37494F
:1052600008602848007804F05FFE0190314800682B
:1052700001460090019804F056FC3149086021482D
:10528000007804F051FE01902A48806801460090A1
:10529000019804F048FC2B4908601A48007804F093
:1052A00043FE009026480168009804F03CFC019001
:1052B00017480168019804F0DEFB2349086008469E
:1052C00001681F48006804F060FC204908601E481F
:1052D00001681C48006804F058FC1D490860184823
:1052E000006837E0E4000020DC000020B800002067
:1052F00008010020D000002080030020D4000020FE
:10530000E8000020E0000020EC000020F000002079
:10531000D8000020F4000020F8000020FC0000204D
:105320000001002004010020C4000020180100201A
:10533000BC0000203C010020900300201C01002044
:105340002001002024010020280100202C01002041
:1053500030010020FE490860FE48007804F0E4FDBA
:105360000190FD48406801460090019804F0DBFB85
:10537000FA490860F6480168F948006804F0D3FB70
:105380000190F548006801460090019804F0C8FBC0
:10539000F1490860F1480168F148006804F0C3FB76
:1053A0000190ED48406801460090019804F0B8FB78
:1053B000E9494860E6480168EA48006804F0B3FB40
:1053C0000190E548806801460090019804F0A8FB30
:1053D000E1498860E1480168E248006804F0A3FB05
:1053E0000190DD48C06801460090019804F098FBE8
:1053F000D949C860DC480168D948006804F093FBCB
:105400000190DA480168019804F035FBD74908603B
:10541000D5480168D348006804F085FB0190D44862
:105420000168019804F027FBD1490860084601682B
:10543000039804F072FBCF490860049803287DD1DB
:10544000CD480168039804F068FB0090CB480168E0
:10545000009804F068FB0190C9480168019804F0C5
:105460000AFBC7490860C748406801460090C64823
:10547000006804F052FB0190C24880680146009029
:10548000019804F04AFBC1490860BE48C06880F03A
:1054900000404860BB48C06880F000408860BC485D
:1054A0000068C860084600680090B4480168009829
:1054B00004F039FB0190B348006801460090019860
:1054C00004F0D9FAAF490860B04840680090AB4892
:1054D0000168009804F027FB0190AA484068014643
:1054E0000090019804F0C7FAA6494860A748806870
:1054F0000090A2480168009804F015FB0190A148B3
:10550000806801460090019804F0B5FA9D498860D2
:105510009E48C068009099480168009804F003FB19
:1055200001909848C06801460090019804F0A3FAE1
:105530009449C86092480168029800E0B6E004F01F
:10554000ECFA944908608348007804F0EDFC01907F
:105550008C48006801460090019804F0E4FA8E49F6
:1055600008607C48007804F0DFFC01908548806882
:1055700001460090019804F0D6FA88490860754801
:10558000007804F0D1FC009083480168009804F092
:10559000CAFA019082480168019804F06CFA8149C6
:1055A0000860084601687C48006804F0EEFA7E490D
:1055B00008607C4801687948006804F0E6FA7B4995
:1055C0000860754800687A4908606248007804F00D
:1055D000ABFC01906B48406801460090019804F0D4
:1055E000A2FA74490860724801686F48006804F0C4
:1055F0009AFA01906348006801460090019804F00F
:105600008FFA604908606B4801686748006804F0D9
:105610008AFA01905B48406801460090019804F0C6
:105620007FFA58494860624801686048006804F0A1
:105630007AFA01905348806801460090019804F07E
:105640006FFA504988605B4801685848006804F068
:105650006AFA01904B48C06801460090019804F036
:105660005FFA4849C8604B4801684F48006804F039
:105670005AFA019042480168019804F0FCF9404947
:105680000860444801684948006804F04CFA0190F9
:1056900039480168019804F0EEF937490860084676
:1056A0000168039804F039FA4349086005B000BD69
:1056B0002DE9F74F8AB089461446012C38D1484667
:1056C00004F064FC82463D4A3D4B04F043FBCDE9C7
:1056D00000013C48006804F059FC0746DDE900235E
:1056E00004F091FACDE90401374801684FF07E508B
:1056F00004F013FA074604F049FCCDE90201DDE9A4
:10570000042304F027FBCDE906012F4801680A981D
:1057100004F009FA074604F039FC0546DDE90623E2
:1057200004F071FACDE9080104F043FC2549086052
:10573000022C79D1484604F029FC07461F4A204B29
:1057400004F008FB05460E46084800683EE00000ED
:1057500034010020E00000203C010020380100203E
:105760002C010020300100201C010020BC00002082
:1057700018010020C80000204C010020DC0000209F
:10578000C000002070010020D0000020A0030020F5
:10579000D4000020500100205401002058010020B6
:1057A000D80000205C01002060010020640100207E
:1057B000680100206C010020CC0000207B14AE4763
:1057C000E17A743FB8000020B400002004F0DEFB52
:1057D00082462A46334604F016FACDE902013248E1
:1057E00001684FF07E5004F098F9054604F0CEFBB6
:1057F000CDE90001DDE9022304F0ACFACDE90601B0
:10580000294801680A9804F08EF9054604F0BEFBA9
:10581000CDE90401DDE9062304F0F5F9CDE908013D
:1058200004F0C7FB21490860032C39D1484604F035
:10583000ADFB07461E4A1F4B04F08CFACDE902016E
:105840001D48006804F0A2FBCDE90001DDE9022358
:1058500004F0D9F905460E46134801684FF07E5012
:1058600004F05BF9074604F091FB2A463346CDE984
:10587000040104F06FFACDE908010B4801680A98A9
:1058800004F051F9054604F081FBCDE90601DDE99C
:10589000082304F0B8F9824604F08BFB064908603F
:1058A0000DB0BDE8F08F0000B4000020BC00002067
:1058B0007B14AE47E17A743FC00000204FF0E02136
:1058C000096921F004014FF0E0221161C21700EBD9
:1058D0005272C2F3C702234B1A701946097801EBC2
:1058E0004102C2EBC1114FF6FF7202EAC1011E4A2A
:1058F0001180704701461B4A12784A434FF0E0235B
:105900005A6100229A6101221A6100BF4FF0E02221
:10591000106900F001021AB100F48032002AF5D0BB
:1059200000224FF0E0231A619A61704701460E4A47
:1059300012884A434FF0E0235A6100229A61012203
:105940001A6100BF4FF0E022106900F001021AB1A5
:1059500000F48032002AF5D000224FF0E0231A61D3
:105960009A6170478001002082010020194909686E
:1059700041F08071174A11601749096841F001012F
:10598000154A116015490860704770B50446124801
:1059900045681248006810B91148FFF7E7FF0F4843
:1059A0000068104990FBF1F000FB04F6AB19AB4224
:1059B00005DD00BF084840689842FBD309E000BFFE
:1059C000054840689842FBD200BF034840689842AF
:1059D000FBD370BDFCED00E0001000E0840100206E
:1059E00000A24A0440420F0038B504460121E06895
:1059F000FBF7A6FDA08A80B2ADF8000010208DF85C
:105A0000030003208DF8020069462069FBF7DAF8ED
:105A100038BD10B51B48FFF7E7FF1B48FFF7E4FF51
:105A20001A48FFF7E1FF174A928A91B2154A1069A6
:105A3000FBF775F9144A928A91B2134A1069FBF781
:105A40006EF9124A928A91B2104A1069FBF767F90F
:105A500010BD19B9D0E90423136112E0002903DA5B
:105A6000D0E9042353610CE08268521C82608A42B0
:105A700007DB0269D26843695A400369DA60002291
:105A80008260704788010020A0010020B80100203A
:105A900010B54FF44070FAF775FC0748FFF766FF42
:105AA000FFF7B7FF00F0FEFE01F0FDF801F04FF93F
:105AB000FCF745FA10BD000000A24A0438B50446C0
:105AC0000E208DF8000006208DF8010000208DF8D2
:105AD000020001208DF803006846FAF758FC2520E3
