:020000040800F2
:10000000988900203130000855300008573000082A
:100010005B3000085F30000863300008000000001B
:100020000000000000000000000000004501000882
:10003000673000080000000089010008DB94000818
:100040004B3000084B3000084B3000084B300008A4
:100050004B3000084B3000084B3000084B30000894
:100060004B3000084B3000084B3000084B30000884
:100070004B3000084B3000087B6000084B30000814
:100080004B300008878000084B3000084B300008D8
:10009000EF8C00084B3000084B3000084B30000854
:1000A0004B3000084B3000084B3000084B30000844
:1000B0004B3000084B3000084B3000084B30000834
:1000C0004B3000084B3000084B3000084B30000824
:1000D0004B3000089F600008AB8000084B300008E0
:1000E0004B3000084B3000084B3000084B30000804
:1000F0004B3000084B3000084B3000084B300008F4
:100100004B3000088B5E00084B3000084B30000875
:100110004B3000084B300008233300084B300008F8
:100120004B3000084B3000084B300008935E00084D
:10013000DFF80CD014F03CF800480047EB31000821
:1001400098890020204B19680868B0E8F00F80F308
:100150000988BFF36F8F4FF0000080F311884EF0D5
:100160000D0E70470000000006480068006880F32C
:10017000088862B661B6BFF34F8FBFF36F8F00DFA1
:1001800000BF00BF08ED00E0EFF30980BFF36F8F01
:100190000D4B1A6820E9F00F106008B54FF0100001
:1001A00080F311880AF09BFD4FF0000080F3118866
:1001B000BDE8084019680868B0E8F00F80F30988C6
:1001C000BFF36F8F704700BF20020020EFF3118054
:1001D0004FF0100181F31188704780F31188704748
:1001E000EFF30580704700000CB5002001900090EF
:1001F0006C48006840F480306A49086000BF694874
:10020000006800F4003000900198401C01900098B4
:1002100018B90198B0F5A06FF1D16248006800F4F8
:10022000003010B10120009001E000200090009803
:10023000012843D15C48006840F010005A4908602A
:100240000846006820F0030008600846006840F097
:1002500002000860534840685249486008464068B8
:1002600048600846406840F480604860084640683E
:1002700020F47C1048600846406840F4E81048606C
:100280000846006840F08070086000BF454800687C
:1002900000F000700028F9D04248406820F00300C8
:1002A000404948600846406840F00200486000BF8E
:1002B0003C48406800F00C000828F9D10CBD10B58E
:1002C000FFF792FF10BD10B53648006840F00100FE
:1002D000344908600846406834490840314948605C
:1002E00008460068324908402E4908600846006800
:1002F00020F4802008600846406820F4FE00486032
:100300004FF41F008860FFF7DAFF4FF000602949C3
:10031000086010BD10B5002100200022214B5B6851
:1003200003F00C0121B1042906D0082928D107E0E7
:10033000214B224C236027E01F4B204C236023E0FD
:10034000184B5B6803F47010164B5B6803F4803243
:10035000022303EB904022B9194B4343174C23600F
:100360000DE0104B5B6803F4003323B1144B43439F
:10037000124C236003E0104B4343104C236003E016
:100380000D4B0E4C236000BF00BF064B5B68C3F3F0
:1003900003130C4CE15C094B1B68CB40074C2360FA
:1003A00010BD000000100240002002400000FFF8D5
:1003B000FFFFF6FE08ED00E000127A0000000020CA
:1003C00000093D000400002031490143314A116019
:1003D000704770B5002100230F22C47804B32D4C60
:1003E000246804F4E064C4F5E064210AC1F1040364
:1003F000CA40447804FA03F1847814402143090187
:10040000254C0678A155047804F01F050124AC4062
:1004100005786D11AD0005F1E025C5F8004109E052
:10042000047804F01F050124AC401C4D06787611B9
:1004300045F8264070BD1A4A0A400243154B1B1F5F
:100440001A60704739B1134A121D12680243114BEA
:100450001B1D1A6006E00F4A121D126882430D4BE5
:100460001B1D1A607047042808D14FF0E02109696C
:1004700041F004014FF0E022116107E04FF0E0216C
:10048000096921F004014FF0E0221161704700007A
:100490000000FA050CED00E000E400E080E100E07F
:1004A00080FFFF1F10B50446FA48844208D101219D
:1004B000401501F077FB0021601501F073FB17E098
:1004C000F548844208D10121001501F06BFB0021A1
:1004D000201501F067FB0BE0F048844208D10121B0
:1004E000C80301F05FFB00214FF4004001F05AFB0C
:1004F00010BD30B50246002000235068E84C204073
:100500000D790C6844EA0524204350609068E54C5E
:100510002040D1E902542C434D7944EA450420435C
:100520009060D06A20F470000C7C641EE4B2234317
:1005300040EA0350D06230BD002101600171417179
:100540008160C16001210174704721B1826842F06D
:100550000102826003E0826822F00102826070473B
:1005600021B1826842F48072826003E0826822F4E2
:1005700080728260704710B50023CBB21AB1446814
:100580001C43446002E044689C43446010BD8168A1
:1005900041F0080181607047014600208A6802F03E
:1005A00008020AB1012000E000207047816841F094
:1005B000040181607047014600208A6802F004024D
:1005C0000AB1012000E00020704721B1826842F4A6
:1005D000A002826003E0826822F4A0028260704779
:1005E000014600208A6802F480020AB1012000E07E
:1005F0000020704710B50A4600210023416821F40D
:100600006041531E41EA4331416010BD21B142684F
:1006100042F40062426003E0426822F400624260F9
:100620007047F0B504460D4600200021092D11DD6C
:10063000E068A5F10A0606EB4607072606FA07F169
:100640008843A5F10A0606EB460603FA06F10843BD
:10065000E0600CE0206905EB4507072606FA07F184
:10066000884305EB450603FA06F108432061072A93
:100670000FDA606B561E06EB86071F2606FA07F197
:100680008843561E06EB860605FA06F108436063AA
:1006900022E00D2A0FDA206BD61F06EB86071F26F5
:1006A00006FA07F18843D61F06EB860605FA06F11F
:1006B0000843206310E0E06AA2F10D0606EB86070E
:1006C0001F2606FA07F18843A2F10D0606EB8606FF
:1006D00005FA06F10843E062F0BD21B1826842F4F8
:1006E0008012826003E0826822F480128260704788
:1006F0000146C86C80B2704766484C30006870474D
:1007000021B1426842F48062426003E0426822F410
:1007100080624260704721B1426842F48052426078
:1007200003E0426822F48052426070470A4600218A
:10073000816821F4E04111438160704721B18268F2
:1007400042F40042826003E0826822F40042826048
:10075000704721B1826842F40212826003E082682D
:1007600022F4021282607047014600208A6802F477
:1007700000120AB1012000E000207047F0B50446E5
:100780001546002000220026092911DDE068A1F1AC
:100790000A0707EB470C072707FA0CF29043A1F171
:1007A0000A0707EB470703FA07F21043E0600CE083
:1007B000206901EB410C072707FA0CF2904301EB8B
:1007C000410703FA07F210432061A06BC0F3015602
:1007D000EF1C06F1010CA7EB0C0707EB870C1F279A
:1007E00007FA0CF29043EF1C06F1010CA7EB0C0783
:1007F00007EB870701FA07F21043A063F0BD10B5BD
:100800000A4600210023816B21F44011531E41EA66
:100810000351816310BD08B5002300930090009B35
:100820000B440093009B1A6008BD08B502460020E7
:100830000090009201F12800009B1844009000985D
:10084000006880B208BD0A4600214168164B194075
:100850001143416070474162826270470A4600213D
:10086000416821F01F0111434160704740B10949BF
:100870000831096841F40001064A0832116007E0B6
:1008800004490831096821F40001024A0832116064
:10089000704700000024014000280140003C014056
:1008A000FFFEF0FFFDF7F1FFFFFD3FFF02460020D6
:1008B00013680B400BB1012000E000207047CA43D1
:1008C0000260704770B502460020002300240B121E
:1008D0005568CEB205EA060415681D4015B10CB185
:1008E000012000E0002070BD00220A12D343036003
:1008F0007047000010B50446FE48844209D101212A
:10090000480601F05CF900214FF0007001F057F942
:1009100008E00121880601F052F900214FF08060C3
:1009200001F04DF910BD30B50246002000231468D7
:1009300024F002041460146844F00104146000E020
:100940005B1C546804F001041CB94FF6FF74A34209
:10095000F6D1546804F001040CB900206CE08C79E5
:10096000012C04D1146844F08004146003E014687E
:1009700024F080041460CC79012C04D1146844F074
:100980004004146003E0146824F0400414600C7AFE
:10099000012C04D1146844F02004146003E01468AE
:1009A00024F0200414604C7A012C04D1146844F023
:1009B0001004146003E0146824F0100414608C7AAE
:1009C000012C04D1146844F00804146003E0146896
:1009D00024F008041460CC7A012C04D1146844F08B
:1009E0000404146003E0146824F0040414608C7898
:1009F000A407CD7844EA05640D7944EA05444D79AD
:100A000044EA05540D886D1E2C43D461146824F00B
:100A100001041460002300E05B1C546804F001042E
:100A20001CB14FF6FF74A342F6D1546804F00104E0
:100A30000CB1002000E0012030BD10B50021837A08
:100A4000012202FA03F1AC4A126842F00102AA4BF9
:100A50001A60A94A1C3212688A43A74B1C331A60D9
:100A6000027BCAB9A44A0C3212688A43A24B0C33E7
:100A70001A604288C38842EA03439F4A4032847A1C
:100A800042F834300288838842EA03439A4A40326B
:100A9000847A02EBC4025360027B012A19D1964A80
:100AA0000C3212680A43944B0C331A604288038854
:100AB00042EA0343904A4032847A42F83430C28892
:100AC000838842EA03438C4A4032847A02EBC402B0
:100AD0005360C27A3AB9884A121D12688A43864B1B
:100AE0001B1D1A6006E0844A121D12680A43824BDD
:100AF0001B1D1A60028932B97F4A143212688A4378
:100B00007D4B14331A600289012A06D17A4A1432C5
:100B100012680A43784B14331A60427B012A06D1CB
:100B2000754A1C3212680A43734B1C331A60724AAE
:100B3000126822F00102704B1A6010BD0021817111
:100B4000C171017241728172C1728170C1700321E1
:100B500001710221417101210180704766490968D4
:100B600041F00101644A11601146096843F60E72B2
:100B70009143614A11601146096841EA0021116000
:100B80001146096821F001011160704721B1026826
:100B900042F48032026003E0026822F48032026094
:100BA0007047E1B1026842F0800202604FF4C27205
:100BB000125842F480734FF4C27213504FF4CA7249
:100BC000125842F480734FF4CA7213504FF4D27229
:100BD000125842F480734FF4D27213501BE0026833
:100BE00022F0800202604FF4C272125822F4807325
:100BF0004FF4C27213504FF4CA72125822F4807329
:100C00004FF4CA7213504FF4D272125822F4807308
:100C10004FF4D2721350704710B50246002093680B
:100C200003F08063B3F1806F00D110E0936803F0AC
:100C30000063B3F1006F01D1012008E0936803F075
:100C40008053B3F1805F01D1022000E0042004282A
:100C500079D002F5C07303EB00131B6803F00104A5
:100C600002F5C07303EB00131C600B7A7BB94B7A5F
:100C70000C8843EA445302F5C07404EB0014246862
:100C8000234302F5C07404EB0014236010E00B7AD8
:100C90004C6843EAC4034C7A234302F5C07404EB66
:100CA00000142468234302F5C07404EB001423608D
:100CB0008B7A03F00F038B7202F5C07303EB001302
:100CC0005B6823F00F0402F5C07303EB00135C6054
:100CD00002F5C07303EB00135B688C7A234302F5C3
:100CE000C07404EB001463608B7B1C064B7B44EAEE
:100CF000034403E000640040006600400B7B44EACC
:100D00000323CC7A234302F5C07404EB0014A360E0
:100D10008B7C1C064B7C44EA03440B7C44EA032393
:100D2000CC7B234302F5C07404EB0014E36002F5AE
:100D3000C07303EB00131B6843F0010402F5C0739A
:100D400003EB00131C6010BD10B50246002321B157
:100D5000012907D002290FD109E09068F94C00EA77
:100D600004030BE09068F84C00EA040306E0906886
:100D7000F64C00EA040301E0002300BF00BFF44C7E
:100D8000181BA34216D007DC83B16FF080601844B3
:100D900070B1022818D111E0B0F5007F10D0ED4CF1
:100DA000204448B1B0F5003F0ED10BE002230DE026
:100DB00000230BE0002309E0002307E0012305E006
:100DC000012303E0012301E0002300BF00BFD8B2EC
:100DD00010BD21B1012907D002290FD109E0826895
:100DE00042F0800282600AE0826842F4004282603F
:100DF00005E0826842F40002826000E000BF00BFAC
:100E0000704710B500F5D87303EB01131B6803F0AE
:100E100004031372137A53B900F5D87303EB01136B
:100E20001B6840F2FF7404EA5353136009E000F5B5
:100E3000D87303EB01131B686FF0604404EAD3031B
:100E4000536000F5D87303EB01131B6803F0020332
:100E5000537200F5D87303EB01135B6803F00F03C3
:100E6000937200F5D87303EB01135B681B0AD3740C
:100E700000F5D87303EB01139B68D37200F5D873A8
:100E800003EB01139B681C0A147300F5D87303EB82
:100E900001139B681C0C547300F5D87303EB01130A
:100EA0009B681B0E937300F5D87303EB0113DB688B
:100EB000D37300F5D87303EB0113DB681C0A1474B9
:100EC00000F5D87303EB0113DB681C0C547400F5B8
:100ED000D87303EB0113DB681B0E937421B9C3684D
:100EE00043F02003C36003E0036943F02003036180
:100EF00010BD21B9C26842F02002C26003E002695D
:100F000042F02002026170470246002019B9D368FE
:100F100003F0030006E0012903D1136903F0030085
:100F200000E00020704710B502460B4600204FF647
:100F3000FF71BBB9146824F0020444F0010414608A
:100F400000E0491E546804F00304012C01D000297C
:100F5000F7D1546804F00304012C01D0002032E0E2
:100F6000012030E0012B13D1146824F00304146035
:100F700000E0491E546804F003040CB10029F8D1C4
:100F8000546804F003040CB100201CE001201AE0B6
:100F9000022B17D1146824F0010444F002041460F9
:100FA00000E0491E546804F00304022C01D000291B
:100FB000F7D1546804F00304022C01D0002002E0B1
:100FC000012000E0002010BD014600200A6822F048
:100FD000010242F002020A604A6802F00302022A99
:100FE00000D10120704701464FF6FF7200200B68C8
:100FF00023F002030B6000E0521E4B6803F0020373
:10100000022B01D1002AF7D14B6803F00203022B17
:1010100000D001207047014600208A6902F070006C
:101020007047014600208A69100E70470146002073
:101030008A69C2F3074070471AB143690B434361A1
:1010400002E043698B434361704710B502460020BC
:1010500001F4700343B19369C1F3130423400BB14E
:1010600001202DE000202BE001F0807343B1536894
:10107000C1F3130423400BB1012021E000201FE045
:1010800001F0006343B19368C1F3130423400BB133
:10109000012015E0002013E001F0007343B1D36894
:1010A000C1F3130423400BB1012009E0002007E045
:1010B0001369C1F3130423400BB1012000E00020A9
:1010C00010BD0022244B994202D10023836111E01C
:1010D000C1F3130201F000730BB1C2600AE001F02A
:1010E00080630BB1026105E001F000630BB1826027
:1010F00000E0426070470246002002EA01030BB1A3
:10110000012000E00020704770B504460D4600261F
:1011100060692840002872D0B5F5807F69D01DDC59
:10112000082D42D006DC012D2DD0022D31D0042D0A
:101130007FD134E0102D3ED0202D42D0402D78D1EB
:1011400045E0000003000004000300080000031055
:10115000000100080001FFF77000F030B5F5004F06
:1011600061D009DCB5F5007F4AD0B5F5806F4DD070
:10117000B5F5006F5DD150E0B5F5803F2DD0B5F5E8
:10118000003F56D12FE0A0685549FFF7B4FF06464F
:1011900051E0E0680321FFF7AEFF06464BE0E06850
:1011A0000821FFF7A8FF064645E0E0681021FFF799
:1011B000A2FF06463FE020690321FFF79CFF064699
:1011C00039E020690821FFF796FF064633E02069E1
:1011D0001021FFF790FF06462DE060680821FFF719
:1011E0008AFF064627E060681021FFF784FF064665
:1011F00021E0A0690121FFF77EFF06461BE01BE00E
:10120000A0690221FFF777FF064614E0A0690421D8
:10121000FFF771FF06460EE00BE0A0697021FFF7B3
:101220006AFF064607E060680421FFF764FF064690
:1012300001E0002600BF00E00026304670BDB1F599
:10124000007F3AD00FDC202928D006DC01291CD0F1
:1012500004291DD0082940D11DE0402921D0B1F535
:10126000807F3AD126E0B1F5004F31D006DCB1F5F0
:10127000806F25D0B1F5006F2FD124E0B1F5803F0C
:1012800012D0B1F5003F28D111E0154A826025E067
:101290000822C26022E01022C2601FE00822026120
:1012A0001CE01022026119E00822426016E01022C0
:1012B000426013E00422426010E0042242600DE02C
:1012C000042242600AE0002282610422426005E0BA
:1012D000002282610422426000E000BF00BF70472C
:1012E0000101010001684FF6FE721140016000210A
:1012F000016041608160C1608D49884208D18C499C
:101300000839496841F00F01894A083A51608AE07A
:1013100087491431884208D185490839496841F024
:10132000F001834A083A51607DE0814928318842C2
:1013300008D17F490839496841F470617C4A083A0C
:10134000516070E07A493C31884208D178490839C7
:10135000496841F47041764A083A516063E0744943
:101360005031884208D172490839496841F47021E6
:101370006F4A083A516056E06D496431884208D19D
:101380006B490839496841F47001694A083A51606B
:1013900049E067497831884208D165490839496888
:1013A00041F07061624A083A51603CE0614988420C
:1013B00006D1011F096841F00F01021F116032E0E0
:1013C0005C491431884208D15A49091F096841F023
:1013D000F001584A121F116025E056492831884211
:1013E00008D15449091F096841F47061514A121F1C
:1013F000116018E04F493C31884208D14D49091F1E
:10140000096841F470414B4A121F11600BE04949D1
:101410005031884207D14749091F096841F47021BA
:10142000444A121F1160704710B50022026847F647
:10143000F0739A430C6A8B6823430C6923434C690D
:1014400023438C692343CC6923434C6A23438C6A2E
:1014500023431A430260CB6843600B6883604B6888
:10146000C36010BD0021016041608160C160016105
:1014700041618161C161016241628162704721B154
:10148000026842F00102026004E002684FF6FE7357
:101490001A40026070471AB103680B43036002E010
:1014A00003688B430360704741607047014648689A
:1014B00080B2704701460020002201F080531BB12A
:1014C0001C4B083B1A6802E0194B083B1A6802EAF9
:1014D00001030BB1012000E00020704700F08051B3
:1014E00019B11449091F086002E011490839486020
:1014F000704701460020002201F080531BB10D4BC4
:10150000083B1A6802E00A4B083B1A6802EA01032A
:101510000BB1012000E00020704700F0805119B1AC
:101520000449091F086002E0014908394860704712
:10153000080002400804024010B50446CC4884422A
:1015400008D10121042000F02DFB0021042000F02F
:1015500029FB46E0C748844208D10121082000F059
:1015600021FB0021082000F01DFB3AE0C248844224
:1015700008D10121102000F015FB0021102000F0FF
:1015800011FB2EE0BD48844208D10121202000F04B
:1015900009FB0021202000F005FB22E0B84884422E
:1015A00008D10121402000F0FDFA0021402000F088
:1015B000F9FA16E0B348844208D10121802000F0F6
:1015C000F1FA0021802000F0EDFA0AE0AE488442F2
:1015D00007D10121801500F0E5FA0021A01500F0E7
:1015E000E1FA10BD10B50121084600F0DBFA002138
:1015F000012000F0D7FA10BD2DE9F0410246002588
:101600000026002000230024002791F803C00CF0DE
:101610000F0591F803C00CF0100CBCF1000F03D0C3
:1016200091F802C04CEA050591F800C0BCF1000F2A
:1016300031D0146800202BE04FF0010C0CFA00F3BD
:10164000B1F800C00CEA03069E4220D183004FF09F
:101650000F0C0CFA03F7BC4305FA03FC4CEA040434
:1016600091F803C0BCF1280F06D14FF0010C0CFA21
:1016700000FCC2F814C00AE091F803C0BCF1480FA6
:1016800005D14FF0010C0CFA00FCC2F810C0401C50
:101690000828D1D31460B1F800C0BCF1FF0F34DDCD
:1016A000546800202EE000F1080C4FF0010808FA01
:1016B0000CF3B1F800C00CEA03069E4221D183006E
:1016C0004FF00F0C0CFA03F7BC4305FA03FC4CEA8D
:1016D000040491F803C0BCF1280F05D100F1080CF7
:1016E00008FA0CF8C2F8148091F803C0BCF1480F56
:1016F00007D100F1080C4FF0010808FA0CF8C2F805
:101700001080401C0828CED35460BDE8F0814FF60D
:10171000FF710180022181700421C170704702466F
:10172000002093680B400BB1012000E000207047BF
:101730000146886880B2704702460020D3680B409B
:101740000BB1012000E0002070470146C86880B25C
:10175000704701617047416170470AB1016100E063
:1017600041617047C16070474FF480320A43826123
:101770008161826182698269704702460020434B21
:1017800018684FF68073184040EA021008433F4B38
:10179000186070473E49C8617047F0B50A4600239B
:1017A00000240021002500F00046B6F1004F02D1D0
:1017B000364EF16901E0354E7168C0F3034583B2DE
:1017C00000F44016B6F5401F08D121F070612F4E8D
:1017D000766826F070662D4F7E6012E000F4801669
:1017E000B6F5801F06D1032606FA05F4A14341F0A1
:1017F000706106E0460D360103FA06F6B14341F08A
:10180000706122B1460D360103FA06F6314300F04D
:101810000046B6F1004F02D11C4EF16101E01B4EB3
:101820007160F0BD30B500228B071C0F0F2303FA47
:1018300004F2164B08338C1053F824309343134CA6
:1018400008348D1044F8253023468C1053F824308A
:101850008C07240F00FA04F423430C4C08348D1039
:1018600044F8253030BD0A49DC310860704700007B
:1018700000080140000C014000100140001401402C
:1018800000180140001C0140002001400000014000
:1018900000002042DF48006840F00100DD49086098
:1018A00008464068DC490840DA4948600846006854
:1018B000DA490840D74908600846006820F48020CB
:1018C00008600846406820F4FE0048604FF41F009E
:1018D00088607047CF49096821F48031CD4A116092
:1018E0001146096821F480211160B0F5803F03D0D2
:1018F000B0F5802F0ED106E0C649096841F4803169
:10190000C44A116007E0C349096841F4A021C14AF3
:10191000116000E000BF00BF704710B50146002213
:10192000002300204A11012A02D1BA4C236806E0A4
:10193000022A02D1B74C236A01E0B64C636A01F077
:101940001F02012494401C400CB1012000E0002043
:1019500010BD38B5002000900024002500BF3120C4
:10196000FFF7DBFF05460098401C00900098B0F59B
:10197000A06F01D0002DF2D03120FFF7CEFF08B1CB
:10198000012400E00024204638BD01460020A14A81
:10199000106820F0F80040EAC10010607047A049CC
:1019A00008607047024600209A4B586820F47C106B
:1019B00042EA01031843974B5860704798490866FC
:1019C000704701460020934A506820F00300084306
:1019D000506070478F48406800F00C007047014627
:1019E00000208C4A506820F0F00008435060704797
:1019F00001460020874A506820F4E06008435060A8
:101A0000704701460020834A506820F4605040EA45
:101A1000C1005060704729B17E4A527A02437D4B23
:101A20005A7204E07B4A527A82437A4B5A72704768
:101A30007B49D8310860704701460020754A5068DC
:101A400020F440400843506070470021714A203222
:101A50001170704A82F82010012802D004280AD19F
:101A600004E001216B4A2032117005E00521694A2A
:101A70002032117000E000BF00BF70476949086064
:101A800070476449096A0143624A116270476549B7
:101A900044390860704730B500210022002400233B
:101AA0005C4D6D6805F00C0121B1042905D00829B1
:101AB00023D105E05C4D056022E05B4D05601FE031
:101AC000544D6D6805F47012524D6D6805F4803404
:101AD000022505EB92421CB9544D554305600BE0BD
:101AE0004C4D6D6805F400351DB1504D55430560F2
:101AF00002E04D4D5543056002E04B4D056000BFCF
:101B000000BF444D6D6805F0F0010909484D6B5C5C
:101B10000568DD4045603F4D6D6805F4E061090AE8
:101B2000434D6B5C4568DD4085603A4D6D6805F45A
:101B30006051C90A3E4D6B5C4568DD40C560354D5E
:101B40006D6805F44041890B3A4D6B5CC568B5FB87
:101B5000F3F5056130BD29B12E4A526902432D4B80
:101B60005A6104E02B4A526982432A4B5A617047FA
:101B700029B1284A92690243264B9A6104E0254A1A
:101B800092698243234B9A61704729B1214AD269F5
:101B90000243204BDA6104E01E4AD26982431D4BA6
:101BA000DA61704729B11B4AD2680243194BDA60E7
:101BB00004E0184AD2688243164BDA60704729B1B4
:101BC000144A12690243134B1A6104E0114A126964
:101BD0008243104B1A6170471249403908607047C0
:101BE0000F49C86470470B49C87170470948406A7B
:101BF00040F0807007494862704701460020054A5E
:101C000092680A400AB1012000E0002070470149B3
:101C100088727047001002400000FFF8FFFFF6FED8
:101C2000000042428004424200127A0000093D0056
:101C3000140000202400002000206F490860486044
:101C40008860C86048628862C8626C488863002007
:101C5000C86370470021684A516847F6FF629143A4
:101C6000027D83681A4343681A43C3681A430368B2
:101C70001A4303691A4311435F4A516070470021B8
:101C80000175016041608160C160016170475C491C
:101C9000086070475849096821F00301564A1160ED
:101CA000114609680143116070475348006800F00D
:101CB0000300704729B1504AD26B02434E4BDA639E
:101CC00004E04D4AD26B82434B4BDA6370474D4977
:101CD000086070470021484B02689A601A46D16834
:101CE0006FF30A01D0E901231A43C3681A43036959
:101CF0001A431143404AD16070470021016041609E
:101D00008160C160016170473B480069C0B27047A3
:101D100008B5014600200090374814300844009070
:101D20000098006808BD0021334B02685A6242687F
:101D30009A621A46D16A21F0F701D0E902231A43C8
:101D400003691A4343691A4311432B4AD16270470E
:101D50004FF0FF310160002141608160C16001618D
:101D6000416170472448006B704723488030006809
:101D7000704721498031086070471F48806C704768
:101D800020491431086070471E49183108607047B7
:101D90001C491C31086070471A492031086070479F
:101DA0001949086070471849091D086070470121EA
:101DB0008143154A08321160704713490C3108609D
:101DC0007047014600200C4A526B0A400AB10120BC
:101DD00000E00020704708498863704701460020F2
:101DE000054A526B0A400AB1012000E0002070470A
:101DF000014988637047000000800140FF07C00070
:101E0000A00030428C053042AC01304210B504468F
:101E1000FE48844208D10121C014FFF7C3FE00210F
:101E2000E014FFF7BFFEC4E0B4F1804F08D10121F8
:101E30000846FFF7C4FE00210120FFF7C0FEB8E00E
:101E4000F348844208D101210220FFF7B8FE0021A7
:101E50000220FFF7B4FEACE0EE48844208D1012135
:101E60000420FFF7ACFE00210420FFF7A8FEA0E04D
:101E7000E948844208D101210820FFF7A0FE002193
:101E80000820FFF79CFE94E0E448844208D1012139
:101E90001020FFF794FE00211020FFF790FE88E04D
:101EA000DF48844208D101212020FFF788FE00216D
:101EB0002020FFF784FE7CE0DA48844208D101212B
:101EC0004014FFF76FFE00216014FFF76BFE70E017
:101ED000D548844209D10121C804FFF763FE0021DF
:101EE0004FF40020FFF75EFE63E0D048844209D142
:101EF00001210805FFF756FE00214FF48010FFF77F
:101F000051FE56E0CA48844209D101214805FFF735
:101F100049FE00214FF40010FFF744FE49E0C54898
:101F2000844208D101214020FFF749FE00214020D2
:101F3000FFF745FE3DE0C048844208D101218020E2
:101F4000FFF73DFE00218020FFF739FE31E0BB485E
:101F5000844208D101218015FFF731FE0021A01530
:101F6000FFF72DFE25E0B648844209D1012108047F
:101F7000FFF718FE00214FF48030FFF713FE18E042
:101F8000B048844209D101214804FFF70BFE00212B
:101F90004FF40030FFF706FE0BE0AB48844208D157
:101FA00001218804FFF7FEFD00214FF48020FFF798
:101FB000F9FD10BD00220288944B98420ED0994B37
:101FC00098420BD0B0F1804F08D0914B984205D089
:101FD000904B984202D0904B984204D14FF68F73A9
:101FE0001A404B881A438D4B984207D08C4B98422D
:101FF00004D04FF6FF431A40CB881A4302808B88E7
:1020000083850B880385814B98420BD0854B984282
:1020100008D08B4B984205D08A4B984202D08A4B0D
:10202000984201D10B7A038601238382704770B5F1
:10203000002400220023058C4FF6FE7635400584EF
:10204000028C8388048B4FF68F752C40B51E2C4074
:102050000D882C43751E2A400D892A434D882A433A
:102060006A4DA8420BD06F4DA84208D0744DA842CB
:1020700005D0744DA84202D0734DA84213D14FF63B
:10208000F7752A404D892A434FF6FB752A408D8803
:102090002A434FF6FF652B404FF6FF552B408D89A5
:1020A0002B43CD892B4383800483CD88858602848E
:1020B00070BD70B5002400220023058C4FF6EF762A
:1020C00035400584028C8388048B48F6FF752C40CC
:1020D0004FF6FF452C400D884FF6FF7606EA0525A2
:1020E0002C434FF6DF752A400D8906EA05152A4371
:1020F0004D8806EA05152A43444DA84202D0494DB1
:10210000A8421DD14FF67F752A404D894FF6FF76C4
:1021100006EA05152A434FF6BF752A408D8806EA60
:1021200005152A434FF6FF352B404FF2FF752B4024
:102130008D8906EA85052B43CD8906EA85052B4363
:1021400083800483CD880587028470BD70B5002428
:1021500000220023058C4FF6FF6635400584028C73
:102160008388848B4FF68F752C404FF6FC752C407E
:102170000D882C434FF6FF552A400D894FF6FF7608
:1021800006EA05252A434D8806EA05252A431F4D00
:10219000A84202D0234DA8421DD14FF2FF752A401C
:1021A0004D894FF6FF7606EA05252A434FF6FF359F
:1021B0002A408D8806EA05252A434EF6FF752B40F6
:1021C0004DF6FF752B408D8906EA05152B43CD8909
:1021D00006EA05152B4383808483CD888587028496
:1021E00070BD70B5002200230024058C4EF6FF76EA
:1021F00035400584038C8488828B48F6FF752A401D
:102200004FF6FF452A400D8820E00000002C0140D9
:102210000004004000080040000C00400010004096
:102220000014004000340140004C014000500140C7
:102230000054014000180040001C004000200040F5
:102240000040014000440140004801404FF6FF7645
:1022500006EA05252A434DF6FF752B400D8906EA4F
:1022600005352B434D8806EA05352B43FA4DA84228
:1022700002D0FA4DA84208D14BF6FF752C408D894B
:102280004FF6FF7606EA85152C4384808283CD883D
:10229000A0F84050038470BD828B4FF2FF331A4088
:1022A0008283828B4FF6FF7303EA01231A438283F2
:1022B0007047F0B50C461546002200210026078C19
:1022C0004EF6FF7C07EA0C070784828B018C4FF6E1
:1022D000FF7707EA043640F6FF473A404FF6FF77AC
:1022E00007EA05273A434FF6FF7707EA03373A43F1
:1022F000D94FB8420ED0D94FB8420BD0B0F1804F71
:1023000008D0D74FB84205D0D64FB84202D0D64FEA
:10231000B84206D14DF6FF77394046F4805739432D
:1023200005E047F6FF57394044F48057394382832C
:102330000184F0BD828B4FF6F3731A408283828B47
:102340000A4382837047F0B50C46154600220021EF
:102350000026078C4FF6FF6C07EA0C070784828B78
:10236000018C4FF6FF7707EA04264FF60C773A40C8
:102370004FF6FF7707EA03172F433A43B64FB842A9
:102380000ED0B64FB8420BD0B0F1804F08D0B44F4A
:10239000B84205D0B34FB84202D0B34FB84206D1CD
:1023A0004FF6FF57394046F48077394305E04FF246
:1023B000FF57394044F48077394382830184F0BD6C
:1023C000028B4FF2FF331A400283028B4FF6FF73EA
:1023D00003EA01231A4302837047F0B50C46154601
:1023E000002200210026078C4FF6EF7C07EA0C073D
:1023F0000784028B018C4FF6FF7707EA041640F63C
:10240000FF473A404FF6FF7707EA03373A434FF664
:10241000FF7707EA05273A438F4FB8420ED08F4F18
:10242000B8420BD0B0F1804F08D08D4FB84205D0E4
:102430008C4FB84202D08C4FB84206D14FF6DF77AE
:10244000394046F01007394305E04FF65F773940D1
:1024500044F01007394302830184F0BD028B4FF62C
:10246000F3731A400283028B0A4302837047F0B56C
:102470000C46154600220021068C4FF6FE773E40A2
:102480000684028B018C4FF60C7632407E1C06EAE5
:1024900003162E433243704EB0420ED06F4EB04200
:1024A0000BD0B0F1804F08D06D4EB04205D06D4ECC
:1024B000B04202D06C4EB04206D14FF6FD763140AC
:1024C00044F00106314305E04FF6F576314044F023
:1024D0000106314302830184F0BD70B505460C4608
:1024E0005D4885420ED05D4885420BD0B5F1804FE6
:1024F00008D05B48854205D05A48854202D05A48E8
:10250000854200D100E000BF208850B92389A2880D
:1025100061882846FFF7ABFFE1882846FFF79EFF5A
:1025200025E0208804280AD12389A28861882846CA
:10253000FFF753FFE1882846FFF742FF17E02088A6
:1025400008280AD12389A28861882846FFF7FBFE64
:10255000E1882846FFF7EEFE09E02389A28861881A
:102560002846FFF7A6FEE1882846FFF795FE70BDD6
:102570002DE9F04105460C4600260127608808B980
:10258000022600E00026A088012801D1022700E0F1
:1025900001272088A0B92389A28861882846FFF7EF
:1025A00066FFE1882846FFF759FF23893A463146FE
:1025B0002846FFF712FFE1882846FFF701FF13E0E6
:1025C0002389A28861882846FFF707FFE18828460B
:1025D000FFF7F6FE23893A4631462846FFF747FFC4
:1025E000E1882846FFF73AFFBDE8F0810A884B886A
:1025F0001A438B881A43CB881A430B891A434B8999
:102600001A438B891A43A0F8442070474FF6FF7194
:10261000818000210180C1804180017270470021CA
:10262000018041808180C180018141818181C1819E
:102630007047002101804180012181800021C180FB
:10264000018170470021018041808180C18001812A
:102650004181818170470000002C0140003401401D
:102660000004004000080040000C004021B1028836
:1026700042F00102028004E002884FF6FE731A4025
:102680000280704731B1B0F8442042F40042A0F813
:10269000442005E0B0F84420C2F30E02A0F8442024
:1026A00070471AB183890B43838102E083898B438E
:1026B000838170478182704741EA0203A0F8483065
:1026C00070471AB183890B43838102E083898B436E
:1026D0008381704701894FF6F8721140018170477C
:1026E0000A46002101894FF68F7319401143018179
:1026F000704730B504460D4629462046FFF7F0FFE7
:10270000208940F00700208130BD2DE9F0410446CA
:102710000D4616461F46602D06D13B460122314626
:102720002046FFF75AFE05E03B460122314620468F
:10273000FFF79DFE29462046FFF7D2FF208940F093
:1027400007002081BDE8F08130B50C4600210189E9
:10275000C9B24FF6FF7505EA032515432543294302
:10276000018130BD2DE9F04105460E4617469846D9
:10277000002443463A4631462846FFF7E5FF2C89B8
:102780004FF6F870044044F007044FF68F70044091
:1027900044F070042C81BDE8F081F0B504460D468C
:1027A00016461F463B46324629462046FFF7CCFFD9
:1027B000208940F480402081F0BD018582827047ED
:1027C0000A46002101884FF68F731940114301809A
:1027D0007047F0B50C4615461E4600210022002326
:1027E0000189028B038C4FF6F877394021434FF66D
:1027F000FC473A4040F201173A434FF6DD773B4041
:102800004FF6FF7707EA06172F433B430181028308
:102810000384F0BD0A460021018B4FF68F731940E7
:102820001143018370470A460021018B48F6FF736C
:1028300019404FF6FF7303EA0223194301837047DF
:102840000A460021818B4FF68F7319401143818313
:1028500070470A460021818B48F6FF7319404FF6F6
:10286000FF7303EA022319438183704721B1028871
:1028700042F08002028004E002884FF67F731A4023
:102880000280704721B1828842F00402828004E015
:1028900082884FF6FB731A408280704721B182888C
:1028A00042F00802828004E082884FF6F7731A40F3
:1028B0008280704721B1828842F00102828004E068
:1028C00082884FF6FE731A40828070470A460021C4
:1028D000018B4FF6F77319401143018370470A4685
:1028E0000021018B4FF2FF7319404FF6FF7303EA8B
:1028F00002231943018370470A460021818B4FF65A
:10290000F77319401143818370470A460021818B78
:102910004FF2FF7319404FF6FF7303EA0223194386
:10292000818370470A460021018B4FF6FB731940E3
:102930001143018370470A460021018B4FF6FF3394
:1029400019404FF6FF7303EA0223194301837047CE
:102950000A460021818B4FF6FB7319401143818396
:1029600070470A460021818B4FF6FF3319404FF61E
:10297000FF7303EA02231943818370470A4600214B
:10298000018B4FF67F7319401143018370470A464C
:102990000021018BC1F30E014FF6FF7303EA0223FE
:1029A0001943018370470A460021818B4FF67F73DC
:1029B00019401143818370470A460021818BC1F37E
:1029C0000E014FF6FF7303EA022319438183704718
:1029D0000A460021018C4FF6FD7319401143018412
:1029E00070470A460021018C4FF6F77319401143D6
:1029F000018470470A460021018C4FF6DF731940AD
:102A00004FF6FF7303EA02131943018470470A4625
:102A10000021018C4FF67F7319404FF6FF7303EAD4
:102A200002131943018470470A460021018C4FF6B6
:102A3000FF5319404FF6FF7303EA02231943018441
:102A400070470A460021018C4FF2FF7319404FF680
:102A5000FF7303EA02231943018470470A460021E9
:102A6000018C4DF6FF7319404FF6FF7303EA0233F2
:102A700019430184704730B5002301248C40A3B270
:102A8000048C9C430484048C02FA01F5ADB22C43FF
:102A9000048430BD30B5002304248C40A3B2048CE0
:102AA0009C430484048C02FA01F5ADB22C430484E7
:102AB00030BD70B5034600200024184618300125AB
:102AC0008D40ACB21D8CA5431D8409B1082909D1E4
:102AD00000EB6100056825F0700505600568154389
:102AE00005600EE00D1FC5F34E052844056825F46A
:102AF000E045056005684FF6FF7606EA0226354395
:102B0000056070BD21B1028842F00202028004E03B
:102B100002884FF6FD731A400280704721B1028887
:102B200042F00402028004E002884FF6FB731A4070
:102B30000280704721B1828842F08002828004E0E6
:102B400082884FF67F731A408280704702884FF662
:102B5000F7731A40028002880A4302807047828815
:102B60004FF68F731A40828082880A4382807047B2
:102B700002894FF6F8731A40028102890A430281E2
:102B8000704702894FF67F731A40028102890A4317
:102B900002817047818470478185704781867047C4
:102BA0000187704781877047A0F8401070470288FE
:102BB0004FF6FF431A40028002880A4302807047A2
:102BC0000146888E70470146088F70470146888FFE
:102BD00070470146B1F8400070470146888C704745
:102BE0000146088D704702460020138A0B400BB146
:102BF000012000E000207047CA430282704730B5D0
:102C00000246002000230024158A05EA0103958965
:102C100005EA010413B10CB1012000E0002030BD31
:102C2000CA4302827047000010B50446FB48844244
:102C300009D101218803FEF7B5FF00214FF4804040
:102C4000FEF7B0FF32E0F648844209D10121480482
:102C5000FEF7B5FF00214FF40030FEF7B0FF25E08E
:102C6000F048844209D101218804FEF7A8FF002121
:102C70004FF48020FEF7A3FF18E0EB48844209D10F
:102C80000121C804FEF79BFF00214FF40020FEF74E
:102C900096FF0BE0E548844208D101210805FEF7C4
:102CA0008EFF00214FF48010FEF789FF10BD2DE943
:102CB000F04786B005460E460024A24600BFA14656
:102CC0000027B08900B100BF2F462C8A4CF6FF7058
:102CD0000440F08804432C82AC894EF6F310044083
:102CE000B08831890843718908430443AC81AC8AB8
:102CF0004FF6FF400440B0890443AC8201A8FEF7C0
:102D0000CAFEC648874202D1DDF810A001E0DDF816
:102D10000CA0A88900F4004040B10AEBCA0000EB07
:102D20000A1031684900B0FBF1F807E00AEBCA006D
:102D300000EB0A1031688900B0FBF1F86420B8FBA1
:102D4000F0F004012009642101FB1089A88900F436
:102D5000004040B1322000EBC900B0FBF1F000F0C0
:102D60000700044308E0322000EB09106421B0FBA7
:102D7000F1F000F00F0004432C8106B0BDE8F087AD
:102D80004FF41651016000218180C18001810C2126
:102D9000418100218181704710B502460020108AD0
:102DA0004FF2FF0318400B884C8823438C88234341
:102DB000CC8823431843108210BD0021018041803C
:102DC0008180C180704721B1828942F400528281A2
:102DD00004E082894DF6FF731A4082817047F0B596
:102DE0000346002400260025002040F66A17B94259
:102DF00000D100BF1846C1F3421401F01F0601279D
:102E000007FA06F5012C01D10C3004E0022C01D1A7
:102E1000103000E014301AB107682F43076002E059
:102E20000768AF430760F0BD1AB1838A0B43838202
:102E300002E0838A8B4383827047028A4FF6F073E5
:102E40001A400282028A0A430282704782894FF244
:102E5000FF731A40828182890A438281704721B1BF
:102E6000828942F00202828104E082894FF6FD737A
:102E70001A4082817047028A4FF6DF731A4002823D
:102E8000028A0A430282704721B1028A42F48042D8
:102E9000028204E0028A4BF6FF731A4002827047F6
:102EA000C1F308028280704701468888C0F3080099
:102EB0007047818941F0010181817047028BD2B254
:102EC0000283028B42EA012202837047028B02F4E2
:102ED0007F420283028B0A430283704721B1828AB8
:102EE00042F02002828204E0828A4FF6DF731A40A9
:102EF0008282704721B1828A42F01002828204E00D
:102F0000828A4FF6EF731A408282704721B1828A1B
:102F100042F00802828204E0828A4FF6F7731A4078
:102F20008282704721B1828942F40042828103E0AB
:102F30008289C2F30E028281704721B1828A42F4F3
:102F40000062828204E0828A4FF2FF731A4082821A
:102F50007047828A4FF6FB731A408282828A0A4344
:102F60008282704721B1828A42F00202828204E0AA
:102F7000828A4FF6FD731A40828270470246002013
:102F8000B1F5007F00D100BF13880B400BB10120C9
:102F900000E00020704701F40072B2F5007F00D11C
:102FA00000BFCA430280704770B502460024002368
:102FB0000025002040F66A16B14200D100BFC1F3DF
:102FC000421501F01F03012606FA03F3012D02D179
:102FD0009689334006E0022D02D1168A334001E083
:102FE000968A33400C12012606FA04F416883440FF
:102FF00013B10CB1012000E0002070BD10B500221B
:10300000002340F66A14A14200D100BF0A12012435
:103010009440A3B2DC43048010BD0000003801409E
:103020000044004000480040004C00400050004078
:103030000648804706480047FEE7FEE7FEE7FEE752
:10304000FEE7FEE7FEE7FEE7FEE7FEE7C702000851
:1030500031010008704700BFFEE700BFFEE700BF78
:10306000FEE700BFFEE7704710B5002232210520C1
:1030700006F026FE6549086000223221012006F094
:103080001FFE6349086000223221052006F018FE69
:103090006049086000221621192006F011FE5E49E1
:1030A000086000221621192006F00AFE5B4908601C
:1030B00006F0D0FB5A49086010BD1FB50020594AE0
:1030C0000623CDE90120009303900346402256A138
:1030D000584807F0BAFA0020574A0723CDE90120E3
:1030E0000093039003464FF4807254A1564807F0B2
:1030F000ACFA0020554A0623CDE901200093039045
:1031000003464FF4007252A1554807F09EFA002082
:10311000544A0C23CDE901200093039003464FF459
:10312000807251A1534807F090FA0020524A0C23B4
:10313000CDE901200093039003464FF480724FA124
:10314000514807F082FA0020504A0B23CDE90120B4
:103150000093039003464FF480724DA1504807F04E
:1031600074FA00204F4A0A23CDE90120009303900E
:1031700003464FF480724CA1504807F066FA0020D5
:103180004F4A0A23CDE90120009303900346802291
:103190004CA14F4807F059FA00204E4A0A23CDE9C6
:1031A000012000930390034680224BA14D4807F075
:1031B0004CFA00204C4A0A23CDE9012000930390E9
:1031C0000346802249A14C4807F03FFA00204B4AB1
:1031D0000A23CDE901200093039003464FF4807247
:1031E00047A14A4807F031FA1FBD012080F310883B
:1031F00000BF00F0BFFC00F0EDF8FFF75EFFFFF747
:1032000033FF07F002FF00BFFEE700005C00002074
:103210006000002064000020680000206C00002096
:1032200070000020280000205461736B204C6564FE
:103230000000000023BC00082C0000205461736BC8
:10324000204B657900000000BBBA00084000002058
:103250005461736B20446973706C617900000000E5
:1032600001BE0008380000205461736B2043616E7A
:103270005278000073CF00083C0000205461736B4B
:103280002043616E54780000A7CF0008580000204A
:103290005461736B2053656E644461746100000077
:1032A000D1CF0008440000205461736B20456E7636
:1032B00069726F6E6D656E7400000000EFC50008E6
:1032C000480000205461736B20436C6F636B0000F7
:1032D000AFC900084C0000205461736B204C696733
:1032E00068740000B9CA0008500000205461736B74
:1032F00020506D730000000069CD000854000020CC
:103300005461736B20426D650000000017CF000808
:1033100010B50023012244F620610A4800F06EFF38
:1033200010BD10B501210748FFF769FC40B1064800
:103330000068401C0449086001210248FFF770FC46
:1033400010BD00000010004074000020F0B50346DE
:103350000C4615460027002600221AE0002112E044
:1033600053F821C0481C53F82000844509D953F86C
:103370002170481C53F8200043F82100481C43F8F2
:103380002070481CC1B2A01A401E8842E8DC501CC4
:10339000C2B2601E9042E1DC6DB1012104E053F83D
:1033A00021000644481CC1B2601E8842F7DCA01E02
:1033B000B6FBF0F0F0BDA4F1010C0CEBDC7040109A
:1033C00053F82000F6E70146002901DA484200E000
:1033D0000846704710B509F03BFE10BD10B507F068
:1033E00042FE024908600020087110BD78000020EC
:1033F00030B503460C4600211AE0585C2578A842F7
:1034000000D014E0002206E0521CA05C8D185D5D27
:10341000A84200D005E0A05C18B18818185C00280C
:10342000F2D100BFA05C08B9084630BD00BF491CFE
:10343000585C0028E1D1401EF7E72DE9FE43044621
:103440000E464FF000090020009001900290314696
:103450002046FFF7CDFF05466019D0F80310009114
:10346000C0798DF80400601980782B2807D1684650
:1034700011F0EDFA074610F0DCFC814608E06846E2
:1034800011F0E5FA81F00041074610F0D2FC8146C8
:103490004846BDE8FE832DE9F84306460F4614462C
:1034A0001D46A046002000903221304610F0FDF964
:1034B0004FEA18608DF800002A463946304610F071
:1034C000DBF90020BDE8F883FEB505460F46164639
:1034D0001C4600200090019002903221284610F0F6
:1034E000E4F9002E08DD22463946284610F0C4F9DA
:1034F000F7A10978295508E022463946284610F0F8
:10350000BBF9F4A10978295576423246F2A1684602
:1035100011F0C0F8F14886420ADA42F20F70864292
:1035200006DD28190099C0F801109DF804104171BA
:1035300042F2107086420ADAB6F57A7F07DB281964
:10354000E7A10978417028190099C0F80210B6F572
:103550007A7F0EDA632E0CDD2819E2A10988A0F823
:1035600001102819BDF80010A0F803109DF80210F2
:103570004171642E0CDA092E0ADD2819DAA10A88B5
:10358000A0F801208978C1702819BDF80010818049
:103590000A2E08DA2819D5A10968C0F801102819DF
:1035A0009DF8001041712320291988710020FEBD6B
:1035B00010B502460B461446002107E0605C9842B5
:1035C00000D002E06218002010BD491C3229F5DB52
:1035D0000120F9E72DE9F0470446207A002841D17F
:1035E000206832283ED1E07A02283BD1207B012896
:1035F00038D1607B212802D0232832D118E0A07B6B
:10360000212802D0222811D103E0E07BB94948707B
:103610000CE0A07C0106607C41EA0041207C41EA8C
:103620000020E17B0843B349486000BF00BF18E0B9
:10363000A07B212802D0222811D103E0E07BAE49F3
:1036400048700CE0A07C0106607C41EA0041207CCF
:1036500041EA0020E17B0843A749486000BF00BF62
:1036600000BF00BF207A00283FD1206833283CD11A
:10367000E07A022839D1207B012836D1607B3138AD
:10368000052831D2DFE800F0030C151E2700A07BCF
:10369000312803D1E07B9949887000BF00BF23E047
:1036A000A07B312803D1E07B9549887000BF00BF23
:1036B0001AE0A07B312803D1E07B9249887000BFDB
:1036C00000BF11E0A07B312803D1E07B8E498870D8
:1036D00000BF00BF08E0A07B312803D1E07B8B490D
:1036E000887000BF00BF00BF00BF207A00285FD1F4
:1036F000206835285CD1864890F84990E07A022805
:103700004BD1207B012827D1607B512823D1A07B7E
:10371000513805281DD2DFE800F003080D1217000C
:10372000E07B7B4981F8480013E0E07B784981F831
:1037300049000EE0E07B764981F84A0009E0E07B31
:10374000734981F84B0004E0E07B714981F84C003B
:1037500000BF00BF00BF00BF207BF0B9607B5128D5
:1037600002D0522818D10BE0A07B502806D14FF48C
:1037700080316848006806F07AF800BF00BF0BE0AF
:10378000A07B502806D14FF400316248006806F053
:103790006EF800BF00BF00BF00BF5D4890F8490051
:1037A000484505D04FF480715A48006806F05FF82C
:1037B000207A002876D120683628FBD1E07A0228CA
:1037C000F8D1207B0128F5D1607B6038052855D2DF
:1037D000DFE800F0035578C6E800A07B6A2804D033
:1037E0006B281AD06C2848D12FE0A17C0A06617C96
:1037F00042EA0142217C42EA0121E27B41EA0200E5
:1038000010F0CCFA07460022434B10F04AFA054666
:1038100010F05AFB414908602FE0A17C0A06617C48
:1038200042EA0142217C42EA0121E27B41EA0200B4
:1038300010F0B4FA07460022374B10F032FA054672
:1038400010F042FB3549486017E0A17C0A06617C14
:1038500042EA0142217C42EA0121E27B41EA020084
:1038600010F09CFA054600222B4B10F01AFA07467E
:1038700010F02AFB2949886000BF00BFB4E0A07B9C
:10388000612802D065281BD10DE0A07C0106607C78
:1038900041EA0041207C41EA0020E17B08432049C5
:1038A00008600DE0A1E0A07C0106607C41EA0041D7
:1038B000207C41EA0020E17B08431A49086000BFF0
:1038C00000BF91E0A07B61282ED0652846D138E06A
:1038D0002B0000002D000000256C6400A086010074
:1038E00030000000303000003030300030303030F8
:1038F000000000008800002090000020A8000020A8
:10390000BC000020D0000020E4000020F8000020CF
:10391000488500207000002000005940D40200209B
:10392000B8020020A8020020A07C0106607C41EAC9
:103930000041207C41EA0020E17B08436649486061
:103940000CE0A07C0106607C41EA0041207C41EA59
:103950000020E17B08436149486000BF00BF43E0AD
:10396000A07B612802D065281AD10CE0A07C01065A
:10397000607C41EA0041207C41EA0020E17B084371
:10398000554988600CE0A07C0106607C41EA00415A
:10399000207C41EA0020E17B08435049886000BF59
:1039A00000BF21E0A07B612802D065281AD10CE07D
:1039B000A07C0106607C41EA0041207C41EA0020B5
:1039C000E17B08434449C8600CE0A07C0106607CB0
:1039D00041EA0041207C41EA0020E17B08433F4965
:1039E000C86000BF00BF00BF00BF207AE8B92068F0
:1039F00037281AD1E07A022817D1207B012814D168
:103A0000607B88B9A07B0B2805D080280AD1E07B99
:103A10003349887006E0E17B207C41EA0020304990
:103A2000088000BF00BF00BF00BF207AA0BB206895
:103A300038284FD1E07A02284CD1207B012849D187
:103A4000607B812802D0822843D110E0A07B60B93E
:103A5000E07B24490870207C23490870607C23495E
:103A60000870A07C2249087000BF00BF31E0A07B35
:103A70000A2804D070281DD09A2828D10DE0A07CF7
:103A80000106607C41EA0041207C41EA0020E17BA4
:103A90000843184908601AE01CE0A07C0106607C1D
:103AA00041EA0041207C41EA0020E17B08431149C2
:103AB00048600CE0A07C0106607C41EA0041207C6B
:103AC00041EA0020E17B08430A49886000BF00BF4B
:103AD00000BF00BFBDE8F087B8020020A8020020A8
:103AE000980000209C0000209D0000209E000020E7
:103AF0009F000020C80200201949096841F0807128
:103B0000174A11601749096841F00101154A11600F
:103B100015490860704770B5044612484568124858
:103B2000006810B91148FFF7E7FF0F480068104917
:103B300090FBF1F000FB04F6AB19AB4205DD00BFD2
:103B4000084840689842FBD309E000BF0548406838
:103B50009842FBD200BF034840689842FBD370BD37
:103B6000FCED00E0001000E0A000002000A24A04EC
:103B700040420F0010B54FF44070FCF725FC11488F
:103B8000FFF7BAFF03F0A9F803F09CFE00F055FC24
:103B900000F02EF803F0C6FB04F031F904F0EEFA61
:103BA00004F074FD05F0C6F90748FFF7B4FF0021E3
:103BB00041F61F4005F007FA0348FFF7ACFF05F098
:103BC0008CF810BD00A24A04A086010038B5044656
:103BD0000121A068FDF7CCFF208A80B2ADF800007B
:103BE00028208DF803006946E068FDF705FD38BD23
:103BF00010B53548FFF7EAFF3448FFF7E7FF3448D0
:103C0000FFF7E4FF3348FFF7E1FF3348FFF7DEFF3C
:103C100010BD10B50446A088401CA080607820B17B
:103C2000012812D002284BD120E0228A91B2E0680C
:103C3000FDF775FD30B9012060700020A080A071F3
:103C4000A07001E00020A0803BE0228A91B2E068F1
:103C5000FDF765FD10B90220607006E0002060707D
:103C60001E490870A070A080A0712AE0228A91B23B
:103C7000E068FDF754FD012813D1A088322807DA47
:103C80002078164908700120A0700020E07103E040
:103C9000002012490870A07000206070A080A07100
:103CA0000DE0A088322803DD0220A0700120E07121
:103CB000A08841F28831884201DD0846A08000E0FA
:103CC00000BF00BF10BD0000A8000020BC00002005
:103CD000D0000020E4000020F8000020A400002014
:103CE00001460020FE4A914201D104201CE0FD4A19
:103CF000914201D1082017E0FB4A914201D11020E6
:103D000012E0FA4A914201D120200DE0F84A914296
:103D100001D1402008E0F74A914201D1802003E020
:103D2000F54A914200D18815704701460020F34AB8
:103D3000914201D1C81442E0F14A914201D14814A4
:103D40003DE0F04A914202D14FF4002037E0EE4AC4
:103D5000914202D14FF4801031E0EC4A914202D1FD
:103D60004FF400102BE0B1F1804F01D1012026E08B
:103D7000E74A914201D1022021E0E64A914201D175
:103D800004201CE0E44A914201D1082017E0E34AF4
:103D9000914201D1102012E0E14A914201D120204C
:103DA0000DE0E04A914201D1402008E0DE4A914214
:103DB00001D1802003E0DD4A914200D1881570478F
:103DC0002DE9F84306460D46144698463046FFF75F
:103DD00087FF07460121FDF7CBFEC848844202D089
:103DE000C748844207D12046FFF79FFF07460121BD
:103DF000FDF7BEFE06E02046FFF797FF07460121CC
:103E0000FDF7C3FEADF8005018208DF80300032025
:103E10008DF8020069463046FDF7EEFBBDE8F883F9
:103E2000F8B505460C462846FFF75AFF064601211D
:103E3000FDF79EFEADF8004010208DF80300032032
:103E40008DF8020069462846FDF7D6FBF8BD2DE93E
:103E5000FF4F87B0834614461D46DDE9146ABAF168
:103E6000000F0FD100212046FEF700FC58460899AC
:103E7000FFF7D6FF002258460899FDF76EFC0BB0FD
:103E8000BDE8F08F42F2107082450DD1002120462E
:103E9000FEF7ECFB58460899FFF7C2FF012258468F
:103EA0000899FDF75AFCEAE72B462246584608993E
:103EB000FFF786FF914884420BD09148844208D096
:103EC0009048844205D09048844202D08F48844272
:103ED00003D19748D0F8008002E09548D0F80080E0
:103EE000642E0AD242F20F7942F21070B8FBF0F061
:103EF000B0FBF6F0401E87B213E040F6B8308642C1
:103F000009D24FF063096420B8FBF0F0B0FBF6F083
:103F1000401E87B205E04FF00009B8FBF6F0401EE6
:103F200087B2ADF81470ADF810900020ADF816000F
:103F3000ADF812008DF8180004A92046FEF73AF8F3
:103F40006846FEF76CFB6020ADF800000120ADF87C
:103F500002000AFB07F042F21071B0FBF1F080B2F0
:103F6000ADF806000020ADF80800ADF80400ADF88B
:103F70000A00ADF80C00ADF80E00012D08D169461D
:103F80002046FEF754F808212046FEF79FFC1FE06C
:103F9000022D08D169462046FEF78BF808212046FD
:103FA000FEF79DFC14E0032D08D169462046FEF77C
:103FB000CDF808212046FEF79FFC09E0042D07D12B
:103FC00069462046FEF70DF908212046FEF79DFCC4
:103FD00001212046FEF74AFC01212046FEF746FB60
:103FE0004648844202D04648844203D101212046FB
:103FF000FEF748FB00BF42E72DE9FF4F87B083463D
:1040000014461D46DDE9146ABAF1000F0FD10021F4
:104010002046FEF72BFB58460899FFF701FF0022C8
:1040200058460899FDF799FB0BB0BDE8F08F42F2B6
:10403000107082450DD100212046FEF717FB58462F
:104040000899FFF7EDFE012258460899FDF785FB18
:10405000EAE72B46224658460899FFF7B1FE274863
:1040600084420BD02648844208D02648844205D09A
:104070002548844202D02548844203D12C48D0F8F8
:10408000008002E02A48D0F80080642E0AD242F272
:104090000F7942F21070B8FBF0F0B0FBF6F0401E62
:1040A00087B213E040F6B830864209D24FF0630978
:1040B0006420B8FBF0F0B0FBF6F0401E87B205E0DC
:1040C0004FF00009B8FBF6F0401E87B2ADF814704F
:1040D000ADF810900020ADF81600ADF8120029E000
:1040E00000080140000C0140001001400014014094
:1040F00000180140001C014000200140002C01403C
:1041000000340140004C0140005001400054014087
:104110000004004000080040000C00400010004077
:104120000014004000180040001C00400020004027
:10413000000000208DF8180004A92046FDF73AFF82
:104140006846FEF76CFA6020ADF800000020ADF87C
:1041500002000AFB07F042F21071B0FBF1F080B2EE
:10416000ADF806000020ADF808000420ADF804000A
:104170000020ADF80A00ADF80C00ADF80E00012DDE
:1041800008D169462046FDF752FF08212046FEF778
:104190009DFB1FE0022D08D169462046FDF789FFEF
:1041A00008212046FEF79BFB14E0032D08D1694649
:1041B0002046FDF7CBFF08212046FEF79DFB09E0D6
:1041C000042D07D169462046FEF70BF8082120464A
:1041D000FEF79BFB01212046FEF748FB012120460C
:1041E000FEF744FA7D48844202D07D48844203D1E0
:1041F00001212046FEF746FA00BF15E72DE9FF5FD3
:1042000004460D4691469A467448844202D074484A
:10421000844207D12046FFF788FD83460121FDF740
:10422000A7FC06E02046FFF780FD83460121FDF74D
:10423000ACFC002D41D100212046FEF717FAAB4619
:104240006648844202D14FF0190B28E0B4F1804F48
:1042500002D14FF01C0B22E06248844202D14FF0A1
:104260001D0B1CE06048844202D14FF01E0B16E08B
:104270005E48844202D14FF0320B10E05C48844229
:1042800002D14FF0360B0AE05A48844202D14FF077
:10429000370B04E05248844201D14FF02C0B8DF8CB
:1042A00000B08DF801908DF802A000208DF8030079
:1042B0006846FCF78EF8BDE8FF9F484884420BD063
:1042C0004748844208D04C48844205D04B48844239
:1042D00002D04B48844202D14A48066801E049486E
:1042E0000668642D0AD242F20F7842F21070B6FBD3
:1042F000F0F0B0FBF5F0401E87B213E040F6B830A6
:10430000854209D24FF063086420B6FBF0F0B0FBA1
:10431000F5F0401E87B205E04FF00008B6FBF5F05F
:10432000401E87B2ADF80870ADF804800020ADF8EB
:104330000A00ADF806008DF80C0001A92046FDF733
:1043400039FE01212046FEF791FA0122114620464E
:10435000FEF7A7F901212046FEF788F94FF0000B80
:104360001E48844202D14FF0190B28E0B4F1804F6F
:1043700002D14FF01C0B22E01A48844202D14FF0C8
:104380001D0B1CE01848844202D14FF01E0B16E0B2
:104390001648844202D14FF0320B10E01448844298
:1043A00002D14FF0360B0AE01248844202D14FF09E
:1043B000370B04E00A48844201D14FF02C0B8DF8F2
:1043C00000B08DF801908DF802A001208DF8030057
:1043D0006846FBF7FEFF00BF6DE70000002C0140C0
:1043E000003401400004004000080040000C004080
:1043F0000010004000140040004C014000500140FB
:10440000005401400000002038B504460121206915
:10441000FDF7AEFB01212F48FDF7BFF9208B80B2DD
:10442000ADF8000010208DF8030003208DF8020085
:1044300069466069FDF7E0F838BD10B52648FFF71A
:10444000E3FF2648FFF7E0FF2548FFF7DDFF25489B
:10445000FFF7DAFF2448FFF7D7FF1F4A128B91B20C
:104460001D4A5069FDF775F91C4A128B91B21B4A1F
:104470005069FDF76EF91A4A128B91B2184A5069C9
:10448000FDF769F9174A128B91B2164A5069FDF788
:1044900062F9154A128B91B2134A5069FDF75BF924
:1044A00010BD19B9D0E90523136112E0002903DA20
:1044B000D0E9052353610CE08268521C82608A4275
:1044C00007DB4269D26883695A404369DA60002297
:1044D00082607047000230000C010020280100209B
:1044E00044010020600100207C01002008B500206C
:1044F000FDF7CDFB0020FDF7CDFBFDF79DFB002177
:104500004FF48060FDF727FB4FF4F850ADF8000042
:1045100004208DF803006946FB48FDF76DF8042080
:10452000ADF800006946F948FDF766F808BD10B51A
:10453000FFF7DCFF10BD2DE9F04106460027F448E7
:10454000456B01E0F248456B05F045000028F9D0C5
:1045500005F0040030B103270420FDF73CFC384689
:10456000BDE8F08105F0010028B101270120FDF729
:1045700032FC3846F4E7FDF7C7FBB04202D0102703
:104580003846EDE740F2FF50FDF725FC0020FDF72F
:10459000BFFB0446DF48204008B93846E0E704F096
:1045A000004008B11C20DBE704F0804008B109207E
:1045B000D6E704F0005008B10A20D1E704F080509B
:1045C00008B10B20CCE704F0006008B10C20C7E76D
:1045D00004F0806008B10D20C2E704F0807008B1DB
:1045E0000E20BDE704F4000008B10F20B8E704F482
:1045F000800008B11020B3E704F4001008B11120C6
:10460000AEE704F4801008B11220A9E704F40020FA
:1046100008B11320A4E704F4802008B114209FE718
:1046200004F4003008B115209AE704F4803008B192
:10463000162095E704F4004008B1172090E704F431
:10464000804008B118208BE704F4005008B119200D
:1046500086E704F0080008B11A2081E738467FE7B2
:104660002DE9FC4107460D4600260024002000905D
:1046700001900820A8490860102048604020886008
:104680000020C8604FF4806008610846FDF722FBF7
:104690001020FFF750FF044614B12046BDE8FC810E
:1046A0009E48008800049C490860372048604020EC
:1046B00088600020C8604FF4806008610846FDF7FC
:1046C00009FB3720FFF737FF04460CB12046E5E72A
:1046D0009348944908600820486030208860022090
:1046E000C86000200861012048610846FDF71BFBF7
:1046F00000208949086033204860402088600020FD
:10470000C8604FF4806008610846FDF7E3FA332083
:10471000FFF711FF04460CB12046BFE709E04FF454
:104720000010FDF74EFB20B1FDF71FFB4DF82600F2
:10473000761C7748406B40F22A6108400028EED092
:104740000820FDF73EFB28B10820FDF744FB0424B8
:104750002046A3E70220FDF734FB28B10220FDF735
:104760003AFB0224204699E72020FDF72AFB28B1D6
:104770002020FDF730FB062420468FE74FF4007021
:10478000FDF71FFB30B14FF40070FDF724FB072449
:10479000204683E740F2FF50FDF71DFB009800061E
:1047A000009901F47F4140EA0120009901F47F0162
:1047B00040EA1120009940EA116068600198000603
:1047C000019901F47F4140EA0120019901F47F0140
:1047D00040EA1120019940EA1160286020465DE717
:1047E0007CB505460024002000900190FDF790FA6A
:1047F00000F0007010B10E2420467CBD47490988A6
:1048000088B26946FFF72CFF04460CB12046F4E756
:10481000012D36D1019800F4802000282ED03F4889
:10482000008800043C4908603720486040208860C8
:104830000020C860A80208610846FDF74BFA37203F
:10484000FFF779FE04460CB12046D6E70220324934
:10485000086006204860402088600020C8604FF44F
:10486000806008610846FDF735FA0620FFF763FE11
:1048700004460CB12046C0E72046BEE7252420466A
:10488000BBE7019800F4803078B324480088000426
:104890002149086037204860402088600020C860B7
:1048A0004FF4806008610846FDF714FA3720FFF7DF
:1048B00042FE04460CB120469FE7002016490860DE
:1048C00006204860402088600020C8604FF4806067
:1048D00008610846FDF7FEF90620FFF72CFE0446A6
:1048E0000CB1204689E7204687E7FFE725242046CC
:1048F00083E770B5044600250B480068032815D1EE
:104900002725284670BD000000100140001401401A
:104910000080014008E0FFFD800300209C01002092
:10492000FFFF0F009403002098010020F948006861
:1049300038B1F8480068012803D0F648006802281A
:104940002ED1B4F5805F02D127252846DAE7B4F5E9
:10495000006F14D10120FFF743FF054605BB01207E
:10496000ED49087500200860486088604FF40060D9
:10497000C860002008610846FDF76CF910E00020CF
:10498000FFF72EFF05465DB90120E34908750020B9
:10499000086048608860C86008610846FDF75AF9F9
:1049A0002846AFE770B504460025DC4804600720C0
:1049B000DA494860402088600020C8604FF4806079
:1049C00008610846FDF786F90720FFF7B4FD0546A4
:1049D000284670BDF0B5014600200022CD4B1B7863
:1049E00081F85630CE4B1B88A1F85430CD4B1B6854
:1049F0001A0E93090B70C2F383034B7002F003038A
:104A00008B70C84B1B68C3F30742CA70C54B1B8829
:104A1000C3F307220A71C34B1A784A715B681A0EF6
:104A20001301CB80BF4B5B68C3F30742CB8843EADB
:104A30001213CB8002F00F030B72BA4B9B88C3F3A7
:104A40000722D3094B72C2F380138B72C2F3401357
:104A5000CB72C2F300130B7300234B73AD4B1B6877
:104A60001BB1AC4B1B68012B4FD193071B0D0B6186
:104A7000AC4B1A790B6943EA82030B61A94B9B6823
:104A80001A0E0B6943EA92130B61C2F3C2030B7552
:104A900002F007034B75A34B9B68C3F3074253090E
:104AA0008B75C2F38203CB7593075B0F0B769D4B1F
:104AB0001B89C3F307220B7E43EAD2130B760B69E3
:104AC0005B1C0024C1E912340B7ED1E912659B1CEA
:104AD000012404FA03F3DC17A6FB037C05FB03C3E4
:104AE00006FB0433C1E912730C7A0123A3400B6562
:104AF0000027D1E912560B6DA5FB034C06FB03C33F
:104B000005FB0733C1E9124323E0824B1B68022BEC
:104B10001FD1844B1A7993069B0A0B61814B9B68CA
:104B20001A0E0B6943EA02230B617E4B9B68C3F3A9
:104B300007420B6913430B617A4B1B89C3F30722AE
:104B40000B695B1CDB040024C1E912344FF40073D1
:104B50000B65C2F3801301F8193F93065B0E4B708F
:104B6000704B1A7A4B7843EAD2134B7002F07F03F2
:104B70008B706C4BDB681A0ED309CB70C2F34113F8
:104B80000B71C2F382034B7193071B0F8B71654B43
:104B9000DB68C3F307428B7943EA92138B71C2F34C
:104BA0004013CB7100230B7202F001034B725D4B7B
:104BB0009B89C3F30722D3098B72C2F38013CB7294
:104BC000C2F340130B73C2F300134B73C2F38103A0
:104BD0008B7302F00303CB73524B1A7B53080B7495
:104BE00001234B74504B1B681A0ECA7419394E4B73
:104BF0001B68C3F307421402CC854B4B1B88C3F3DD
:104C00000722CB8D1343CB85474B1A7814060C63D0
:104C10005B681A0E0B6B43EA02440C63424B5B6801
:104C2000C3F307420B6B43EA02240C633E4B9B88A1
:104C3000C3F307220B6B13430B633B4B1A793423EB
:104C40005A54394B9B681A0E35235A54364B9B687D
:104C5000C3F3074214068C63334B1B89C3F307224B
:104C60008B6B43EA02448C632F4B1A7A8B6B43EABB
:104C700002248C632C4BDB681A0E8B6B13438B6303
:104C8000294BDB68C3F307423C235B5C43EA121405
:104C90003C235C5413071C0DCC87234B9B89C3F327
:104CA0000722CB8F1343CB871F4B1A7B540840231B
:104CB0005C54012441235C54F0BD70B500251B48B1
:104CC000446B01E01948446B04F045000028F9D01A
:104CD00004F0040028B103250420FDF77CF82846E1
:104CE00070BD04F0010028B101250120FDF773F823
:104CF0002846F5E740F2FF50FDF76DF82846EFE74C
:104D00002DE9F04106460F464FF000080748456B75
:104D100010E00000980100206803002080030020BC
:104D20009C010020E0020020F002002000800140F1
:104D3000F848456B05F045000028F9D005F004005F
:104D400038B14FF003080420FDF745F84046BDE8B0
:104D5000F08105F0010030B14FF001080120FDF7AE
:104D60003AF84046F3E7FCF7CFFFB04203D04FF0EC
:104D700010084046EBE740F2FF50FDF72CF800200A
:104D8000FCF7C6FF044604F4604018B9200C3880D4
:104D90004046DCE704F4005008B11320D7E704F4E0
:104DA000804008B11020D2E704F4004008B10F2081
:104DB000CDE74046CBE738B5002401200090FCF752
:104DC00074FF10B92524204638BDD3480068042854
:104DD00028D00020D149086002204860C0208860A7
:104DE0000020C8604FF4806008610846FCF772FF3D
:104DF000FFF763FF04460CB12046E5E70020FCF70F
:104E000087FFC74908600420FCF782FFC449486057
:104E10000820FCF77DFFC24988600C20FCF778FF72
:104E2000BF49C860BC48006858B1BB480068012849
:104E300007D0B9480068062803D0B74800680228A0
:104E400016D10020B54908600320486040208860E2
:104E50000020C8604FF4806008610846FCF73AFF04
:104E600069460320FFF74CFF04460CB12046ABE730
:104E7000A948006804282ED0BDF80000A9490860A0
:104E8000BDF800000004A549086009204860C02062
:104E900088600020C8604FF4806008610846FCF715
:104EA00019FFFFF70AFF04460CB120468CE70020EB
:104EB000FCF72EFF9C4908600420FCF729FF9A4963
:104EC00048600820FCF724FF974988600C20FCF715
:104ED0001FFF9549C8600024204675E770B500257E
:104EE0008C48446B01E08B48446B04F0450000287B
:104EF000F9D004F0040028B103250420FCF76BFF6F
:104F0000284670BD40F2FF50FCF765FF2846F8E7E1
:104F100070B500264FF480357E48446B02E06D1E6C
:104F20007C48446B04F0450008B9002DF7D115B159
:104F300004F0040028B103260420FCF74CFF30469F
:104F400070BD04F0400028B100264020FCF743FF6C
:104F50003046F5E73046F3E770B500254FF480346E
:104F600000E0641E24B18020FCF72BFF0028F8D05D
:104F700014B90325284670BD40F2FF50FCF72BFF03
:104F80002846F8E7F8B50020009000250024002608
:104F90000027B220654908750020086048608860D5
:104FA000C86008610846FCF755FE0320FCF772FE56
:104FB0000120FCF76CFE00205849086048608860BA
:104FC000C8604FF4806008610846FCF783FEFFF775
:104FD000C3FF00909DF8000010B19DF80000F8BDDF
:104FE0004FF4D5704D490860082048604020886023
:104FF0000020C8604FF4806008610846FCF76AFE34
:10500000FFF786FF00909DF8000020B9012042497B
:105010000860870712E00020404908603720486098
:10502000402088600020C8604FF480600861084616
:10503000FCF750FE3720FFF77EFA0090002037493A
:10504000086037204860402088600020C8604FF426
:10505000806008610846FCF73DFE3720FFF76BFAD9
:1050600000909DF80000002851D13BE000202B4922
:10507000086037204860402088600020C8604FF4F6
:10508000806008610846FCF725FE3720FFF753FAD9
:1050900000909DF8000010B19DF800009FE72448A3
:1050A00038431E490860292048604020886000205D
:1050B000C8604FF4806008610846FCF70BFEFFF7FC
:1050C0000DFF00909DF8000010B19DF8000086E7EC
:1050D0000020FCF71DFE0546012080EAD57080F017
:1050E0000106641C1EB94FF6FF708442BED34FF612
:1050F000FF70844204D31B2000909DF800006EE7EF
:1051000005F08040050002D00220034908609DF8A8
:10511000000064E700800140980100208003002027
:10512000F00200209C010020E00200206803002023
:105130000000108008B501213020FCF719FD4FF464
:10514000F850ADF8000003208DF8020018208DF80B
:1051500003006946FD48FCF74FFA0420ADF8000053
:105160006946FB48FCF748FA01218802FCF7F3FC8A
:1051700001210220FCF7EFFC08BD08B531208DF8B5
:10518000000006208DF8010000208DF802000120AB
:105190008DF803006846FBF71CF93B208DF80000F2
:1051A00005208DF8010000208DF8020001208DF807
:1051B00003006846FBF70DF908BD08B50020009014
:1051C000FFF7DBFFFFF7B6FFFCF736FDFFF7DAFE70
:1051D00000909DF8000010B19DF8000008BDFFF799
:1051E000EAFD00909DF8000010B19DF80000F5E781
:1051F0000120D84908750020086048608860C860B0
:1052000008610846FCF726FDD348FFF7E3FB009052
:105210009DF8000030B9D049B1F854100804FFF7E8
:10522000C1FB00909DF8000020B94FF40060FFF72B
:1052300060FB00909DF80000D0E770B504460025A3
:1052400014B92625284670BDC44800880004C44906
:1052500008600D204860402088600020C8604FF43E
:10526000806008610846FCF735FD0D20FFF763F903
:1052700005460DB12846E6E70020FCF749FD206011
:105280002846E0E708B5012000909DF8000008BD21
:1052900008B500200090FFF7F5FF012809D1684606
:1052A000FFF7CBFF08B1FF2008BD0098C0F34320F3
:1052B000FAE7FF20F8E710B50424FFF7E9FF0446FA
:1052C000042C01D1002010BDFF2C01D10220FAE7EF
:1052D0000120F8E710B500240020FCF7DBFC204695
:1052E00010BD70B50446002600250020FCF710FD17
:1052F00000F0007010B10E26304670BD4020984975
:10530000086010204860402088600020C8604FF48A
:10531000806008610846FCF7DDFC1020FFF70BF900
:1053200006460EB13046E8E78C48008800048C49F8
:10533000086037204860402088600020C8604FF433
:10534000806008610846FCF7C5FC3720FFF7F3F8DA
:1053500006460EB13046D0E78248834908604020B7
:105360004860602088600220C86000200861012039
:1053700048610846FCF7D7FC0020794908600D20F9
:105380004860402088600020C8604FF48060086159
:105390000846FCF79FFC0D20FFF7CDF806460EB13E
:1053A0003046AAE70EE04FF40040FCF70AFD48B192
:1053B000002504E0FCF7D9FC44F825006D1C082DFD
:1053C000F8D320346948406B40F22A610840002835
:1053D000E9D00820FCF7F5FC28B10820FCF7FBFC1D
:1053E0000426304689E70220FCF7EBFC28B10220B6
:1053F000FCF7F1FC022630467FE72020FCF7E1FCB9
:1054000028B12020FCF7E7FC0626304675E74FF46C
:105410000070FCF7D6FC30B14FF40070FCF7DBFCF9
:105420000726304669E74F4D04E0FCF79EFC2060FC
:10543000241D6D1E4FF40010FCF7C3FC08B1002DB5
:10544000F3D140F2FF50FCF7C6FC304655E770B58B
:105450000446002600254648FFF743FF06460EB1E6
:10546000304670BD42480078850925704048007874
:10547000C0F3401565703E488578280260803C483E
:10548000C5786088284360803948057928066060BF
:1054900037484579606840EA05406060344885795E
:1054A000606840EA052060603148C579606828433B
:1054B00060602F48057A2572457A6572807A050901
:1054C000A5722B48C57A2802A0812948057BA089AE
:1054D0002843A0812648407B8508A5732448407B4B
:1054E00000F00305E5733046BBE730B58BB00546E9
:1054F0000C462048FBF7F2FF00211F48FBF7BFFFD7
:105500001A4880300090019500200290A008039076
:105510000020049080200590800006908000079075
:10552000002008904FF40050099000200A9069462E
:105530001148FBF779FF012202210F48FBF7ABFF6F
:1055400001210D48FBF79BFF0BB030BD001001405F
:105550000014014068030020100300209C0100207B
:1055600080030020FFFF0F00940300200080014013
:105570000003002000F00010440402402DE9F04137
:10558000804614461D46069E00270020FE490870EE
:10559000FE490860FE490860FE49C862FE4800688E
:1055A000022808D1060202020023204629460EF0F6
:1055B00001F904460D46F94806601020F749486095
:1055C000402088600020C8604FF480600861084671
:1055D000FCF780FB1020FEF7AEFF074617B13846F8
:1055E000BDE8F081EE48EF4908600846466090202B
:1055F00088600220C86000200861012048610846D8
:10560000FCF791FBE54804601120E4494860402024
:1056100088600020C8604FF4806008610846FCF78D
:1056200059FB1120FEF787FF07460FB13846D7E731
:10563000012140F22A30FCF73DFB0120FCF747FB3B
:1056400031464046FFF751FF3846C9E72DE9F0479C
:10565000814614461D46DDE9086800270020CA4936
:105660000870CA4908600120C94908600020C9497A
:10567000C862C9480068022808D106020202002355
:10568000204629460EF096F804460D46C3480660AB
:105690001020C2494860402088600020C8604FF454
:1056A000806008610846FCF715FB1020FEF743FFF9
:1056B000074617B13846BDE8F087B948B9490860D0
:1056C00008FB06F04860902088600220C860002037
:1056D0000861012048610846FCF725FBAF480460DB
:1056E0001220AE494860402088600020C8604FF416
:1056F000806008610846FCF7EDFA1220FEF71BFFF8
:1057000007460FB13846D6E7012140F22A30FCF7B0
:10571000D1FA0120FCF7DBFA08FB06F14846FFF757
:10572000E4FE3846C7E710B5002400209B49086016
:105730000C204860402088600020C8604FF48060E2
:1057400008610846FCF7C6FA0C20FEF7F4FE044692
:10575000204610BD70B50025914C00E0641E9248B3
:10576000006838B98948006820B98748007808B9C6
:10577000002CF3D100208C490860894C00E0641EA5
:105780008448406B00F4005008B1002CF7D18048E9
:105790000068012802D1FFF7C6FF05460CB905B91C
:1057A000042540F2FF50FCF716FB7748007810B153
:1057B0007548007870BD2846FCE730B58BB00546CB
:1057C0000C467A48FBF78AFE00217948FBF757FE22
:1057D000704880300090019510200290A00803903E
:1057E00000200490802005908000069080000790A3
:1057F000002008904FF40050099000200A9069465C
:105800006B48FBF711FE012202216948FBF743FEBA
:1058100001216748FBF733FE0BB030BD2DE9F041A5
:10582000804614461D46069E0027002056490870F3
:1058300056490860564908605649C862564800688B
:10584000022808D1060202020023204629460DF054
:10585000B1FF04460D465148066010204F4948608C
:10586000402088600020C8604FF4806008610846CE
:10587000FCF730FA1020FEF75EFE074617B13846F7
:10588000BDE8F08145480460182044494860402044
:1058900088600020C8604FF4806008610846FCF70B
:1058A00019FA1820FEF747FE07460FB13846E7E71A
:1058B0003B483C49086008464660902088600020CC
:1058C000C8600861012048610846FCF72CFA0121F4
:1058D00040F22A30FCF7EEF931464046FFF76DFF03
:1058E0000120FCF7F4F93846CAE72DE9F047814674
:1058F00015461E46DDE9087800240020224908707C
:105900002249086001202249086000202149C8621C
:1059100021480068022808D1070202020023284615
:1059200031460DF047FF05460E461C480760102023
:105930001A494860402088600020C8604FF48060A9
:1059400008610846FCF7C6F91020FEF7F4FD04468E
:1059500014B12046BDE8F0871648008800040F49BE
:10596000086037204860402088600020C8604FF4FD
:10597000806008610846FCF7ADF93720FEF7DBFDD3
:105980000446CCB12046E5E7A4010020A801002090
:10599000A001002000800140980100208003002029
:1059A000FFFF0F0094030020AC01002000F0001066
:1059B000440402409C010020F948C0F800801720F0
:1059C000F7494860402088600020C8604FF480603C
:1059D00008610846FCF77EF91720FEF7ACFD044687
:1059E0000CB12046B6E7EE4805601920EC49486046
:1059F000402088600020C8604FF48060086108463D
:105A0000FCF768F91920FEF796FD04460CB1204614
:105A1000A0E7E448E449086008FB07F048609020EC
:105A200088600020C8600861012048610846FCF7D2
:105A30007AF9012140F22A30FCF73CF90120FCF709
:105A400046F908FB07F14846FFF7B7FE204681E715
:105A500070B50025D34C00E0641ED448006838B906
:105A6000D348006820B9D348007808B9002CF3D196
:105A70000020CE490860CB4C00E0641ECE48406B4D
:105A800000F4805008B1002CF7D1CC480068012800
:105A900002D1FFF748FE05460CB905B9042540F2CE
:105AA000FF50FCF798F9C348007810B1C14800785E
:105AB00070BD2846FCE7C048406B00F4405008B178
:105AC000012070470020FCE77CB50446002500203B
:105AD00001900090BA4800880004B14908600D2088
