:020000040800F2
:10000000805E0020F1210008152200081722000858
:100010001B2200081F220008232200080000000005
:100020000000000000000000000000004501000882
:10003000272200080000000089010008D35E0008A4
:100040000B2200080B2200080B2200080B220008DC
:100050000B2200080B2200080B2200080B220008CC
:100060000B2200080B2200080B2200080B220008BC
:100070000B2200080B220008374700080B2200085B
:100080000B2200080B2200080B2200080B2200089C
:100090000B2200080B2200080B2200080B2200088C
:1000A0000B2200080B2200080B2200080B2200087C
:1000B0000B2200080B2200080B2200080B2200086C
:1000C0000B2200080B2200080B2200080B2200085C
:1000D0000B2200085B4700080B2200080B220008D7
:1000E0000B2200080B2200080B2200080B2200083C
:1000F0000B2200080B2200080B2200080B2200082C
:100100000B220008474500080B2200080B220008BC
:100110000B2200080B2200080F2300080B22000806
:100120000B2200080B2200080B2200084F45000894
:10013000DFF80CD008F0BEFD004800479922000807
:10014000805E0020204B19680868B0E8F00F80F34B
:100150000988BFF36F8F4FF0000080F311884EF0D5
:100160000D0E70470000000006480068006880F32C
:10017000088862B661B6BFF34F8FBFF36F8F00DFA1
:1001800000BF00BF08ED00E0EFF30980BFF36F8F01
:100190000D4B1A6820E9F00F106008B54FF0100001
:1001A00080F3118807F0E7F84FF0000080F3118822
:1001B000BDE8084019680868B0E8F00F80F30988C6
:1001C000BFF36F8F704700BF74010020EFF3118001
:1001D0004FF0100181F31188704780F31188704748
:1001E000EFF30580704700000CB5002001900090EF
:1001F0006C48006840F480306A49086000BF694874
:10020000006800F4003000900198401C01900098B4
:1002100018B90198B0F5A06FF1D16248006800F4F8
:10022000003010B10120009001E000200090009803
:10023000012843D15C48006840F010005A4908602A
:100240000846006820F0030008600846006840F097
:1002500002000860534840685249486008464068B8
:1002600048600846406840F480604860084640683E
:1002700020F47C1048600846406840F4E81048606C
:100280000846006840F08070086000BF454800687C
:1002900000F000700028F9D04248406820F00300C8
:1002A000404948600846406840F00200486000BF8E
:1002B0003C48406800F00C000828F9D10CBD10B58E
:1002C000FFF792FF10BD10B53648006840F00100FE
:1002D000344908600846406834490840314948605C
:1002E00008460068324908402E4908600846006800
:1002F00020F4802008600846406820F4FE00486032
:100300004FF41F008860FFF7DAFF4FF000602949C3
:10031000086010BD10B5002100200022214B5B6851
:1003200003F00C0121B1042906D0082928D107E0E7
:10033000214B224C236027E01F4B204C236023E0FD
:10034000184B5B6803F47010164B5B6803F4803243
:10035000022303EB904022B9194B4343174C23600F
:100360000DE0104B5B6803F4003323B1144B43439F
:10037000124C236003E0104B4343104C236003E016
:100380000D4B0E4C236000BF00BF064B5B68C3F3F0
:1003900003130C4CE15C094B1B68CB40074C2360FA
:1003A00010BD000000100240002002400000FFF8D5
:1003B000FFFFF6FE08ED00E000127A0000000020CA
:1003C00000093D000400002031490143314A116019
:1003D000704770B5002100230F22C47804B32D4C60
:1003E000246804F4E064C4F5E064210AC1F1040364
:1003F000CA40447804FA03F1847814402143090187
:10040000254C0678A155047804F01F050124AC4062
:1004100005786D11AD0005F1E025C5F8004109E052
:10042000047804F01F050124AC401C4D06787611B9
:1004300045F8264070BD1A4A0A400243154B1B1F5F
:100440001A60704739B1134A121D12680243114BEA
:100450001B1D1A6006E00F4A121D126882430D4BE5
:100460001B1D1A607047042808D14FF0E02109696C
:1004700041F004014FF0E022116107E04FF0E0216C
:10048000096921F004014FF0E0221161704700007A
:100490000000FA050CED00E000E400E080E100E07F
:1004A00080FFFF1F01684FF6FE72114001600021BE
:1004B000016041608160C1608D49884208D18C49EA
:1004C0000839496841F00F01894A083A51608AE0C9
:1004D00087491431884208D185490839496841F073
:1004E000F001834A083A51607DE081492831884211
:1004F00008D17F490839496841F470617C4A083A5B
:10050000516070E07A493C31884208D17849083915
:10051000496841F47041764A083A516063E0744991
:100520005031884208D172490839496841F4702134
:100530006F4A083A516056E06D496431884208D1EB
:100540006B490839496841F47001694A083A5160B9
:1005500049E067497831884208D1654908394968D6
:1005600041F07061624A083A51603CE0614988425A
:1005700006D1011F096841F00F01021F116032E02E
:100580005C491431884208D15A49091F096841F071
:10059000F001584A121F116025E05649283188425F
:1005A00008D15449091F096841F47061514A121F6A
:1005B000116018E04F493C31884208D14D49091F6C
:1005C000096841F470414B4A121F11600BE0494920
:1005D0005031884207D14749091F096841F4702109
:1005E000444A121F1160704710B50022026847F696
:1005F000F0739A430C6A8B6823430C6923434C695C
:1006000023438C692343CC6923434C6A23438C6A7C
:1006100023431A430260CB6843600B6883604B68D6
:10062000C36010BD0021016041608160C160016153
:1006300041618161C161016241628162704721B1A2
:10064000026842F00102026004E002684FF6FE73A5
:100650001A40026070471AB103680B43036002E05E
:1006600003688B43036070474160704701464868E8
:1006700080B2704701460020002201F080531BB178
:100680001C4B083B1A6802E0194B083B1A6802EA47
:1006900001030BB1012000E00020704700F0805101
:1006A00019B11449091F086002E01149083948606E
:1006B000704701460020002201F080531BB10D4B12
:1006C000083B1A6802E00A4B083B1A6802EA010379
:1006D0000BB1012000E00020704700F0805119B1FB
:1006E0000449091F086002E0014908394860704761
:1006F000080002400804024010B50446CC48844279
:1007000008D10121042000F02DFB0021042000F07D
:1007100029FB46E0C748844208D10121082000F0A7
:1007200021FB0021082000F01DFB3AE0C248844272
:1007300008D10121102000F015FB0021102000F04D
:1007400011FB2EE0BD48844208D10121202000F099
:1007500009FB0021202000F005FB22E0B84884427C
:1007600008D10121402000F0FDFA0021402000F0D6
:10077000F9FA16E0B348844208D10121802000F044
:10078000F1FA0021802000F0EDFA0AE0AE48844240
:1007900007D10121801500F0E5FA0021A01500F035
:1007A000E1FA10BD10B50121084600F0DBFA002186
:1007B000012000F0D7FA10BD2DE9F04102460025D6
:1007C0000026002000230024002791F803C00CF02D
:1007D0000F0591F803C00CF0100CBCF1000F03D012
:1007E00091F802C04CEA050591F800C0BCF1000F79
:1007F00031D0146800202BE04FF0010C0CFA00F30C
:10080000B1F800C00CEA03069E4220D183004FF0ED
:100810000F0C0CFA03F7BC4305FA03FC4CEA040482
:1008200091F803C0BCF1280F06D14FF0010C0CFA6F
:1008300000FCC2F814C00AE091F803C0BCF1480FF4
:1008400005D14FF0010C0CFA00FCC2F810C0401C9E
:100850000828D1D31460B1F800C0BCF1FF0F34DD1B
:10086000546800202EE000F1080C4FF0010808FA4F
:100870000CF3B1F800C00CEA03069E4221D18300BC
:100880004FF00F0C0CFA03F7BC4305FA03FC4CEADB
:10089000040491F803C0BCF1280F05D100F1080C45
:1008A00008FA0CF8C2F8148091F803C0BCF1480FA4
:1008B00007D100F1080C4FF0010808FA0CF8C2F853
:1008C0001080401C0828CED35460BDE8F0814FF65C
:1008D000FF710180022181700421C17070470246BE
:1008E000002093680B400BB1012000E0002070470E
:1008F0000146886880B2704702460020D3680B40EA
:100900000BB1012000E0002070470146C86880B2AA
:10091000704701617047416170470AB1016100E0B1
:1009200041617047C16070474FF480320A43826171
:100930008161826182698269704702460020434B6F
:1009400018684FF68073184040EA021008433F4B86
:10095000186070473E49C8617047F0B50A460023E9
:1009600000240021002500F00046B6F1004F02D11E
:10097000364EF16901E0354E7168C0F3034583B22C
:1009800000F44016B6F5401F08D121F070612F4EDB
:10099000766826F070662D4F7E6012E000F48016B7
:1009A000B6F5801F06D1032606FA05F4A14341F0EF
:1009B000706106E0460D360103FA06F6B14341F0D8
:1009C000706122B1460D360103FA06F6314300F09C
:1009D0000046B6F1004F02D11C4EF16101E01B4E02
:1009E0007160F0BD30B500228B071C0F0F2303FA96
:1009F00004F2164B08338C1053F824309343134CF5
:100A000008348D1044F8253023468C1053F82430D8
:100A10008C07240F00FA04F423430C4C08348D1087
:100A200044F8253030BD0A49DC31086070470000C9
:100A300000080140000C014000100140001401407A
:100A400000180140001C014000200140000001404E
:100A500000002042DF48006840F00100DD490860E6
:100A600008464068DC490840DA49486008460068A2
:100A7000DA490840D74908600846006820F4802019
:100A800008600846406820F4FE0048604FF41F00EC
:100A900088607047CF49096821F48031CD4A1160E0
:100AA0001146096821F480211160B0F5803F03D020
:100AB000B0F5802F0ED106E0C649096841F48031B7
:100AC000C44A116007E0C349096841F4A021C14A42
:100AD000116000E000BF00BF704710B50146002262
:100AE000002300204A11012A02D1BA4C236806E0F3
:100AF000022A02D1B74C236A01E0B64C636A01F0C6
:100B00001F02012494401C400CB1012000E0002091
:100B100010BD38B5002000900024002500BF312012
:100B2000FFF7DBFF05460098401C00900098B0F5E9
:100B3000A06F01D0002DF2D03120FFF7CEFF08B119
:100B4000012400E00024204638BD01460020A14ACF
:100B5000106820F0F80040EAC10010607047A0491A
:100B600008607047024600209A4B586820F47C10B9
:100B700042EA01031843974B58607047984908664A
:100B8000704701460020934A506820F00300084354
:100B9000506070478F48406800F00C007047014675
:100BA00000208C4A506820F0F000084350607047E5
:100BB00001460020874A506820F4E06008435060F6
:100BC000704701460020834A506820F4605040EA94
:100BD000C1005060704729B17E4A527A02437D4B72
:100BE0005A7204E07B4A527A82437A4B5A727047B7
:100BF0007B49D8310860704701460020754A50682B
:100C000020F440400843506070470021714A203270
:100C10001170704A82F82010012802D004280AD1ED
:100C200004E001216B4A2032117005E00521694A78
:100C30002032117000E000BF00BF704769490860B2
:100C400070476449096A0143624A11627047654905
:100C500044390860704730B5002100220024002389
:100C60005C4D6D6805F00C0121B1042905D00829FF
:100C700023D105E05C4D056022E05B4D05601FE07F
:100C8000544D6D6805F47012524D6D6805F4803452
:100C9000022505EB92421CB9544D554305600BE00B
:100CA0004C4D6D6805F400351DB1504D5543056040
:100CB00002E04D4D5543056002E04B4D056000BF1D
:100CC00000BF444D6D6805F0F0010909484D6B5CAB
:100CD0000568DD4045603F4D6D6805F4E061090A37
:100CE000434D6B5C4568DD4085603A4D6D6805F4A9
:100CF0006051C90A3E4D6B5C4568DD40C560354DAD
:100D00006D6805F44041890B3A4D6B5CC568B5FBD5
:100D1000F3F5056130BD29B12E4A526902432D4BCE
:100D20005A6104E02B4A526982432A4B5A61704748
:100D300029B1284A92690243264B9A6104E0254A68
:100D400092698243234B9A61704729B1214AD26943
:100D50000243204BDA6104E01E4AD26982431D4BF4
:100D6000DA61704729B11B4AD2680243194BDA6035
:100D700004E0184AD2688243164BDA60704729B102
:100D8000144A12690243134B1A6104E0114A1269B2
:100D90008243104B1A61704712494039086070470E
:100DA0000F49C86470470B49C87170470948406AC9
:100DB00040F0807007494862704701460020054AAC
:100DC00092680A400AB1012000E000207047014902
:100DD00088727047001002400000FFF8FFFFF6FE27
:100DE000000042428004424200127A0000093D00A5
:100DF000140000202400002000206F490860486093
:100E00008860C86048628862C8626C488863002055
:100E1000C86370470021684A516847F6FF629143F2
:100E2000027D83681A4343681A43C3681A43036800
:100E30001A4303691A4311435F4A51607047002106
:100E40000175016041608160C160016170475C496A
:100E5000086070475849096821F00301564A11603B
:100E6000114609680143116070475348006800F05B
:100E70000300704729B1504AD26B02434E4BDA63EC
:100E800004E04D4AD26B82434B4BDA6370474D49C5
:100E9000086070470021484B02689A601A46D16882
:100EA0006FF30A01D0E901231A43C3681A430369A7
:100EB0001A431143404AD1607047002101604160EC
:100EC0008160C160016170473B480069C0B27047F2
:100ED00008B50146002000903748143008440090BF
:100EE0000098006808BD0021334B02685A624268CE
:100EF0009A621A46D16A21F0F701D0E902231A4317
:100F000003691A4343691A4311432B4AD16270475C
:100F10004FF0FF310160002141608160C1600161DB
:100F2000416170472448006B704723488030006857
:100F3000704721498031086070471F48806C7047B6
:100F400020491431086070471E4918310860704705
:100F50001C491C31086070471A49203108607047ED
:100F60001949086070471849091D08607047012138
:100F70008143154A08321160704713490C310860EB
:100F80007047014600200C4A526B0A400AB101200A
:100F900000E0002070470849886370470146002040
:100FA000054A526B0A400AB1012000E00020704758
:100FB000014988637047000000800140FF07C000BE
:100FC000A00030428C053042AC01304210B50446DE
:100FD000FE48844208D10121C014FFF7C3FE00215E
:100FE000E014FFF7BFFEC4E0B4F1804F08D1012147
:100FF0000846FFF7C4FE00210120FFF7C0FEB8E05D
:10100000F348844208D101210220FFF7B8FE0021F5
:101010000220FFF7B4FEACE0EE48844208D1012183
:101020000420FFF7ACFE00210420FFF7A8FEA0E09B
:10103000E948844208D101210820FFF7A0FE0021E1
:101040000820FFF79CFE94E0E448844208D1012187
:101050001020FFF794FE00211020FFF790FE88E09B
:10106000DF48844208D101212020FFF788FE0021BB
:101070002020FFF784FE7CE0DA48844208D1012179
:101080004014FFF76FFE00216014FFF76BFE70E065
:10109000D548844209D10121C804FFF763FE00212D
:1010A0004FF40020FFF75EFE63E0D048844209D190
:1010B00001210805FFF756FE00214FF48010FFF7CD
:1010C00051FE56E0CA48844209D101214805FFF784
:1010D00049FE00214FF40010FFF744FE49E0C548E7
:1010E000844208D101214020FFF749FE0021402021
:1010F000FFF745FE3DE0C048844208D10121802031
:10110000FFF73DFE00218020FFF739FE31E0BB48AC
:10111000844208D101218015FFF731FE0021A0157E
:10112000FFF72DFE25E0B648844209D101210804CD
:10113000FFF718FE00214FF48030FFF713FE18E090
:10114000B048844209D101214804FFF70BFE002179
:101150004FF40030FFF706FE0BE0AB48844208D1A5
:1011600001218804FFF7FEFD00214FF48020FFF7E6
:10117000F9FD10BD00220288944B98420ED0994B85
:1011800098420BD0B0F1804F08D0914B984205D0D7
:10119000904B984202D0904B984204D14FF68F73F7
:1011A0001A404B881A438D4B984207D08C4B98427B
:1011B00004D04FF6FF431A40CB881A4302808B8835
:1011C00083850B880385814B98420BD0854B9842D1
:1011D00008D08B4B984205D08A4B984202D08A4B5C
:1011E000984201D10B7A038601238382704770B540
:1011F000002400220023058C4FF6FE76354005843E
:10120000028C8388048B4FF68F752C40B51E2C40C2
:101210000D882C43751E2A400D892A434D882A4388
:101220006A4DA8420BD06F4DA84208D0744DA84219
:1012300005D0744DA84202D0734DA84213D14FF689
:10124000F7752A404D892A434FF6FB752A408D8851
:101250002A434FF6FF652B404FF6FF552B408D89F3
:101260002B43CD892B4383800483CD8885860284DC
:1012700070BD70B5002400220023058C4FF6EF7678
:1012800035400584028C8388048B48F6FF752C401A
:101290004FF6FF452C400D884FF6FF7606EA0525F0
:1012A0002C434FF6DF752A400D8906EA05152A43BF
:1012B0004D8806EA05152A43444DA84202D0494DFF
:1012C000A8421DD14FF67F752A404D894FF6FF7613
:1012D00006EA05152A434FF6BF752A408D8806EAAF
:1012E00005152A434FF6FF352B404FF2FF752B4073
:1012F0008D8906EA85052B43CD8906EA85052B43B2
:1013000083800483CD880587028470BD70B5002476
:1013100000220023058C4FF6FF6635400584028CC1
:101320008388848B4FF68F752C404FF6FC752C40CC
:101330000D882C434FF6FF552A400D894FF6FF7656
:1013400006EA05252A434D8806EA05252A431F4D4E
:10135000A84202D0234DA8421DD14FF2FF752A406A
:101360004D894FF6FF7606EA05252A434FF6FF35ED
:101370002A408D8806EA05252A434EF6FF752B4044
:101380004DF6FF752B408D8906EA05152B43CD8957
:1013900006EA05152B4383808483CD8885870284E4
:1013A00070BD70B5002200230024058C4EF6FF7638
:1013B00035400584038C8488828B48F6FF752A406B
:1013C0004FF6FF452A400D8820E00000002C014028
:1013D0000004004000080040000C004000100040E5
:1013E0000014004000340140004C01400050014016
:1013F0000054014000180040001C00400020004044
:101400000040014000440140004801404FF6FF7693
:1014100006EA05252A434DF6FF752B400D8906EA9D
:1014200005352B434D8806EA05352B43FA4DA84276
:1014300002D0FA4DA84208D14BF6FF752C408D8999
:101440004FF6FF7606EA85152C4384808283CD888B
:10145000A0F84050038470BD828B4FF2FF331A40D6
:101460008283828B4FF6FF7303EA01231A43828340
:101470007047F0B50C461546002200210026078C67
:101480004EF6FF7C07EA0C070784828B018C4FF62F
:10149000FF7707EA043640F6FF473A404FF6FF77FA
:1014A00007EA05273A434FF6FF7707EA03373A433F
:1014B000D94FB8420ED0D94FB8420BD0B0F1804FBF
:1014C00008D0D74FB84205D0D64FB84202D0D64F39
:1014D000B84206D14DF6FF77394046F4805739437C
:1014E00005E047F6FF57394044F48057394382837B
:1014F0000184F0BD828B4FF6F3731A408283828B96
:101500000A4382837047F0B50C461546002200213D
:101510000026078C4FF6FF6C07EA0C070784828BC6
:10152000018C4FF6FF7707EA04264FF60C773A4016
:101530004FF6FF7707EA03172F433A43B64FB842F7
:101540000ED0B64FB8420BD0B0F1804F08D0B44F98
:10155000B84205D0B34FB84202D0B34FB84206D11B
:101560004FF6FF57394046F48077394305E04FF294
:10157000FF57394044F48077394382830184F0BDBA
:10158000028B4FF2FF331A400283028B4FF6FF7338
:1015900003EA01231A4302837047F0B50C4615464F
:1015A000002200210026078C4FF6EF7C07EA0C078B
:1015B0000784028B018C4FF6FF7707EA041640F68A
:1015C000FF473A404FF6FF7707EA03373A434FF6B3
:1015D000FF7707EA05273A438F4FB8420ED08F4F67
:1015E000B8420BD0B0F1804F08D08D4FB84205D033
:1015F0008C4FB84202D08C4FB84206D14FF6DF77FD
:10160000394046F01007394305E04FF65F7739401F
:1016100044F01007394302830184F0BD028B4FF67A
:10162000F3731A400283028B0A4302837047F0B5BA
:101630000C46154600220021068C4FF6FE773E40F0
:101640000684028B018C4FF60C7632407E1C06EA33
:1016500003162E433243704EB0420ED06F4EB0424E
:101660000BD0B0F1804F08D06D4EB04205D06D4E1A
:10167000B04202D06C4EB04206D14FF6FD763140FA
:1016800044F00106314305E04FF6F576314044F071
:101690000106314302830184F0BD70B505460C4656
:1016A0005D4885420ED05D4885420BD0B5F1804F34
:1016B00008D05B48854205D05A48854202D05A4836
:1016C000854200D100E000BF208850B92389A2885C
:1016D00061882846FFF7ABFFE1882846FFF79EFFA9
:1016E00025E0208804280AD12389A2886188284619
:1016F000FFF753FFE1882846FFF742FF17E02088F5
:1017000008280AD12389A28861882846FFF7FBFEB2
:10171000E1882846FFF7EEFE09E02389A288618868
:101720002846FFF7A6FEE1882846FFF795FE70BD24
:101730002DE9F04105460C4600260127608808B9CE
:10174000022600E00026A088012801D1022700E03F
:1017500001272088A0B92389A28861882846FFF73D
:1017600066FFE1882846FFF759FF23893A4631464C
:101770002846FFF712FFE1882846FFF701FF13E034
:101780002389A28861882846FFF707FFE188284659
:10179000FFF7F6FE23893A4631462846FFF747FF12
:1017A000E1882846FFF73AFFBDE8F0810A884B88B8
:1017B0001A438B881A43CB881A430B891A434B89E7
:1017C0001A438B891A43A0F8442070474FF6FF71E3
:1017D000818000210180C180418001727047002119
:1017E000018041808180C180018141818181C181ED
:1017F0007047002101804180012181800021C1804A
:10180000018170470021018041808180C180018178
:101810004181818170470000002C0140003401406B
:101820000004004000080040000C004021B1028884
:1018300042F00102028004E002884FF6FE731A4073
:101840000280704731B1B0F8442042F40042A0F861
:10185000442005E0B0F84420C2F30E02A0F8442072
:1018600070471AB183890B43838102E083898B43DC
:10187000838170478182704741EA0203A0F84830B3
:1018800070471AB183890B43838102E083898B43BC
:101890008381704701894FF6F872114001817047CA
:1018A0000A46002101894FF68F73194011430181C7
:1018B000704730B504460D4629462046FFF7F0FF35
:1018C000208940F00700208130BD2DE9F041044619
:1018D0000D4616461F46602D06D13B460122314675
:1018E0002046FFF75AFE05E03B46012231462046DE
:1018F000FFF79DFE29462046FFF7D2FF208940F0E2
:1019000007002081BDE8F08130B50C460021018937
:10191000C9B24FF6FF7505EA032515432543294350
:10192000018130BD2DE9F04105460E461746984627
:10193000002443463A4631462846FFF7E5FF2C8906
:101940004FF6F870044044F007044FF68F700440DF
:1019500044F070042C81BDE8F081F0B504460D46DA
:1019600016461F463B46324629462046FFF7CCFF27
:10197000208940F480402081F0BD0185828270473B
:101980000A46002101884FF68F73194011430180E8
:101990007047F0B50C4615461E4600210022002374
:1019A0000189028B038C4FF6F877394021434FF6BB
:1019B000FC473A4040F201173A434FF6DD773B408F
:1019C0004FF6FF7707EA06172F433B430181028357
:1019D0000384F0BD0A460021018B4FF68F73194036
:1019E0001143018370470A460021018B48F6FF73BB
:1019F00019404FF6FF7303EA02231943018370472E
:101A00000A460021818B4FF68F7319401143818361
:101A100070470A460021818B48F6FF7319404FF644
:101A2000FF7303EA022319438183704721B10288BF
:101A300042F08002028004E002884FF67F731A4071
:101A40000280704721B1828842F00402828004E063
:101A500082884FF6FB731A408280704721B18288DA
:101A600042F00802828004E082884FF6F7731A4041
:101A70008280704721B1828842F00102828004E0B6
:101A800082884FF6FE731A40828070470A46002112
:101A9000018B4FF6F77319401143018370470A46D3
:101AA0000021018B4FF2FF7319404FF6FF7303EAD9
:101AB00002231943018370470A460021818B4FF6A8
:101AC000F77319401143818370470A460021818BC7
:101AD0004FF2FF7319404FF6FF7303EA02231943D5
:101AE000818370470A460021018B4FF6FB73194032
:101AF0001143018370470A460021018B4FF6FF33E3
:101B000019404FF6FF7303EA02231943018370471C
:101B10000A460021818B4FF6FB73194011438183E4
:101B200070470A460021818B4FF6FF3319404FF66C
:101B3000FF7303EA02231943818370470A46002199
:101B4000018B4FF67F7319401143018370470A469A
:101B50000021018BC1F30E014FF6FF7303EA02234C
:101B60001943018370470A460021818B4FF67F732A
:101B700019401143818370470A460021818BC1F3CC
:101B80000E014FF6FF7303EA022319438183704766
:101B90000A460021018C4FF6FD7319401143018460
:101BA00070470A460021018C4FF6F7731940114324
:101BB000018470470A460021018C4FF6DF731940FB
:101BC0004FF6FF7303EA02131943018470470A4674
:101BD0000021018C4FF67F7319404FF6FF7303EA23
:101BE00002131943018470470A460021018C4FF605
:101BF000FF5319404FF6FF7303EA02231943018490
:101C000070470A460021018C4FF2FF7319404FF6CE
:101C1000FF7303EA02231943018470470A46002137
:101C2000018C4DF6FF7319404FF6FF7303EA023340
:101C300019430184704730B5002301248C40A3B2BE
:101C4000048C9C430484048C02FA01F5ADB22C434D
:101C5000048430BD30B5002304248C40A3B2048C2E
:101C60009C430484048C02FA01F5ADB22C43048435
:101C700030BD70B5034600200024184618300125F9
:101C80008D40ACB21D8CA5431D8409B1082909D132
:101C900000EB6100056825F07005056005681543D7
:101CA00005600EE00D1FC5F34E052844056825F4B8
:101CB000E045056005684FF6FF7606EA02263543E3
:101CC000056070BD21B1028842F00202028004E08A
:101CD00002884FF6FD731A400280704721B10288D6
:101CE00042F00402028004E002884FF6FB731A40BF
:101CF0000280704721B1828842F08002828004E035
:101D000082884FF67F731A408280704702884FF6B0
:101D1000F7731A40028002880A4302807047828863
:101D20004FF68F731A40828082880A438280704700
:101D300002894FF6F8731A40028102890A43028130
:101D4000704702894FF67F731A40028102890A4365
:101D50000281704781847047818570478186704712
:101D60000187704781877047A0F84010704702884C
:101D70004FF6FF431A40028002880A4302807047F0
:101D80000146888E70470146088F70470146888F4C
:101D900070470146B1F8400070470146888C704793
:101DA0000146088D704702460020138A0B400BB194
:101DB000012000E000207047CA430282704730B51E
:101DC0000246002000230024158A05EA01039589B4
:101DD00005EA010413B10CB1012000E0002030BD80
:101DE000CA4302827047000010B50446FB48844293
:101DF00009D101218803FEF7B5FF00214FF480408F
:101E0000FEF7B0FF32E0F648844209D101214804D0
:101E1000FEF7B5FF00214FF40030FEF7B0FF25E0DC
:101E2000F048844209D101218804FEF7A8FF00216F
:101E30004FF48020FEF7A3FF18E0EB48844209D15D
:101E40000121C804FEF79BFF00214FF40020FEF79C
:101E500096FF0BE0E548844208D101210805FEF712
:101E60008EFF00214FF48010FEF789FF10BD2DE991
:101E7000F04786B005460E460024A24600BFA146A4
:101E80000027B08900B100BF2F462C8A4CF6FF70A6
:101E90000440F08804432C82AC894EF6F3100440D1
:101EA000B08831890843718908430443AC81AC8A06
:101EB0004FF6FF400440B0890443AC8201A8FEF70E
:101EC000CAFEC648874202D1DDF810A001E0DDF865
:101ED0000CA0A88900F4004040B10AEBCA0000EB56
:101EE0000A1031684900B0FBF1F807E00AEBCA00BC
:101EF00000EB0A1031688900B0FBF1F86420B8FBF0
:101F0000F0F004012009642101FB1089A88900F484
:101F1000004040B1322000EBC900B0FBF1F000F00E
:101F20000700044308E0322000EB09106421B0FBF5
:101F3000F1F000F00F0004432C8106B0BDE8F087FB
:101F40004FF41651016000218180C18001810C2174
:101F5000418100218181704710B502460020108A1E
:101F60004FF2FF0318400B884C8823438C8823438F
:101F7000CC8823431843108210BD0021018041808A
:101F80008180C180704721B1828942F400528281F0
:101F900004E082894DF6FF731A4082817047F0B5E4
:101FA0000346002400260025002040F66A17B942A7
:101FB00000D100BF1846C1F3421401F01F060127EB
:101FC00007FA06F5012C01D10C3004E0022C01D1F6
:101FD000103000E014301AB107682F43076002E0A8
:101FE0000768AF430760F0BD1AB1838A0B43838251
:101FF00002E0838A8B4383827047028A4FF6F07334
:102000001A400282028A0A430282704782894FF292
:10201000FF731A40828182890A438281704721B10D
:10202000828942F00202828104E082894FF6FD73C8
:102030001A4082817047028A4FF6DF731A4002828B
:10204000028A0A430282704721B1028A42F4804226
:10205000028204E0028A4BF6FF731A400282704744
:10206000C1F308028280704701468888C0F30800E7
:102070007047818941F0010181817047028BD2B2A2
:102080000283028B42EA012202837047028B02F430
:102090007F420283028B0A430283704721B1828A06
:1020A00042F02002828204E0828A4FF6DF731A40F7
:1020B0008282704721B1828A42F01002828204E05B
:1020C000828A4FF6EF731A408282704721B1828A6A
:1020D00042F00802828204E0828A4FF6F7731A40C7
:1020E0008282704721B1828942F40042828103E0FA
:1020F0008289C2F30E028281704721B1828A42F442
:102100000062828204E0828A4FF2FF731A40828268
:102110007047828A4FF6FB731A408282828A0A4392
:102120008282704721B1828A42F00202828204E0F8
:10213000828A4FF6FD731A40828270470246002061
:10214000B1F5007F00D100BF13880B400BB1012017
:1021500000E00020704701F40072B2F5007F00D16A
:1021600000BFCA430280704770B5024600240023B6
:102170000025002040F66A16B14200D100BFC1F32D
:10218000421501F01F03012606FA03F3012D02D1C7
:102190009689334006E0022D02D1168A334001E0D1
:1021A000968A33400C12012606FA04F4168834404D
:1021B00013B10CB1012000E0002070BD10B5002269
:1021C000002340F66A14A14200D100BF0A12012484
:1021D0009440A3B2DC43048010BD000000380140ED
:1021E0000044004000480040004C004000500040C7
:1021F0000648804706480047FEE7FEE7FEE7FEE7A1
:10220000FEE7FEE7FEE7FEE7FEE7FEE7C70200089F
:1022100031010008704700BFFEE700BFFEE700BFC6
:10222000FEE700BFFEE7704710B50022322105200F
:1022300004F092F81F49086000223221012004F0C6
:102240008BF81D4908601B48006838B108460068D3
:1022500020B14FF0FF3119A002F0C8FA10BD1FB530
:1022600000201B4A0623CDE901200093039003467A
:10227000802218A11A4804F034FD0020194A0723CF
:10228000CDE901200093039003464FF4807216A11C
:10229000194804F026FD1FBD012080F3108800BFFF
:1022A00000F088F8FFF7DBFFFFF7BEFF05F0F9F954
:1022B00000BFFEE74000002044000020B4B4BDA8E9
:1022C000CFFBCFA2B6D3C1D0B3C9B9A6210D0A00A6
:1022D000280000205461736B204C656400000000EE
:1022E0001D810008380000205461736B204469731D
:1022F000706C6179000000004181000810B5002376
:10230000012244F620610A4800F0F4FA10BD10B52D
:1023100001210748FFF753FD40B106480068401C03
:102320000449086001210248FFF75AFD10BD000072
:1023300000100040480000201949096841F08071F0
:10234000174A11601749096841F00101154A1160E7
:1023500015490860704770B5044612484568124830
:10236000006810B91148FFF7E7FF0F4800681049EF
:1023700090FBF1F000FB04F6AB19AB4205DD00BFAA
:10238000084840689842FBD309E000BF0548406810
:102390009842FBD200BF034840689842FBD370BD0F
:1023A000FCED00E0001000E04C00002000A24A0418
:1023B00040420F0010B54FF44070FEF705F8054895
:1023C000FFF7BAFF02F0E5FF03F06CFB00F0ADFB96
:1023D00010BD000000A24A0401460020FE4A9142BE
:1023E00001D104201CE0FD4A914201D1082017E0F0
:1023F000FB4A914201D1102012E0FA4A914201D1E8
:1024000020200DE0F84A914201D1402008E0F74A2F
:10241000914201D1802003E0F54A914200D1881514
:10242000704701460020F34A914201D1C81442E0AE
:10243000F14A914201D148143DE0F04A914202D163
:102440004FF4002037E0EE4A914202D14FF4801061
:1024500031E0EC4A914202D14FF400102BE0B1F18F
:10246000804F01D1012026E0E74A914201D10220AC
:1024700021E0E64A914201D104201CE0E44A914265
:1024800001D1082017E0E34A914201D1102012E067
:10249000E14A914201D120200DE0E04A914201D170
:1024A000402008E0DE4A914201D1802003E0DD4A6D
:1024B000914200D1881570472DE9F84306460D4634
:1024C000144698463046FFF787FF07460121FEF77E
:1024D0002FFCC848844202D0C748844207D1204616
:1024E000FFF79FFF07460121FEF722FC06E020468A
:1024F000FFF797FF07460121FEF727FCADF80050D4
:1025000018208DF8030003208DF80200694630463C
:10251000FEF752F9BDE8F883F8B505460C462846A3
:10252000FFF75AFF06460121FEF702FCADF8004016
:1025300010208DF8030003208DF80200694628461C
:10254000FEF73AF9F8BD2DE9FF4F87B083461446F0
:102550001D46DDE9146ABAF1000F0FD100212046B3
:10256000FFF764F958460899FFF7D6FF002258464E
:102570000899FEF7D2F90BB0BDE8F08F42F2107067
:1025800082450DD100212046FFF750F958460899A1
:10259000FFF7C2FF012258460899FEF7BEF9EAE7A5
:1025A0002B46224658460899FFF786FF91488442F9
:1025B0000BD09148844208D09048844205D090487E
:1025C000844202D08F48844203D19748D0F80080DB
:1025D00002E09548D0F80080642E0AD242F20F79CA
:1025E00042F21070B8FBF0F0B0FBF6F0401E87B27C
:1025F00013E040F6B830864209D24FF063096420F8
:10260000B8FBF0F0B0FBF6F0401E87B205E04FF0EB
:102610000009B8FBF6F0401E87B2ADF81470ADF8B3
:1026200010900020ADF81600ADF812008DF81800DB
:1026300004A92046FEF79EFD6846FFF7D0F860200B
:10264000ADF800000120ADF802000AFB07F042F2ED
:102650001071B0FBF1F080B2ADF806000020ADF8CB
:102660000800ADF80400ADF80A00ADF80C00ADF8B4
:102670000E00012D08D169462046FEF7B8FD08215D
:102680002046FFF703FA1FE0022D08D169462046D5
:10269000FEF7EFFD08212046FFF701FA14E0032DB5
:1026A00008D169462046FEF731FE08212046FFF793
:1026B00003FA09E0042D07D169462046FEF771FEB2
:1026C00008212046FFF701FA01212046FFF7AEF965
:1026D00001212046FFF7AAF84648844202D0464826
:1026E000844203D101212046FFF7ACF800BF42E746
:1026F0002DE9FF4F87B0834614461D46DDE9146A75
:10270000BAF1000F0FD100212046FFF78FF858468D
:102710000899FFF701FF002258460899FEF7FDF8D7
:102720000BB0BDE8F08F42F2107082450DD1002150
:102730002046FFF77BF858460899FFF7EDFE012287
:1027400058460899FEF7E9F8EAE72B46224658462C
:102750000899FFF7B1FE274884420BD026488442EF
:1027600008D02648844205D02548844202D0254816
:10277000844203D12C48D0F8008002E02A48D0F8E7
:102780000080642E0AD242F20F7942F21070B8FB38
:10279000F0F0B0FBF6F0401E87B213E040F6B83020
:1027A000864209D24FF063096420B8FBF0F0B0FB19
:1027B000F6F0401E87B205E04FF00009B8FBF6F0D6
:1027C000401E87B2ADF81470ADF810900020ADF83F
:1027D0001600ADF8120029E000080140000C01408D
:1027E000001001400014014000180140001C01408D
:1027F00000200140002C014000340140004C014009
:102800000050014000540140000400400008004016
:10281000000C004000100040001400400018004070
:10282000001C004000200040000000208DF818002F
:1028300004A92046FEF79EFC6846FEF7D0FF602004
:10284000ADF800000020ADF802000AFB07F042F2EC
:102850001071B0FBF1F080B2ADF806000020ADF8C9
:1028600008000420ADF804000020ADF80A00ADF81F
:102870000C00ADF80E00012D08D169462046FEF788
:10288000B6FC08212046FFF701F91FE0022D08D110
:1028900069462046FEF7EDFC08212046FFF7FFF8C9
:1028A00014E0032D08D169462046FEF72FFD0821CC
:1028B0002046FFF701F909E0042D07D169462046BB
:1028C000FEF76FFD08212046FFF7FFF801212046A3
:1028D000FFF7ACF801212046FEF7A8FF7D488442AF
:1028E00002D07D48844203D101212046FEF7AAFF91
:1028F00000BF15E72DE9FF5F04460D4691469A4655
:102900007448844202D07448844207D12046FFF7BD
:1029100088FD83460121FEF70BFA06E02046FFF70B
:1029200080FD83460121FEF710FA002D41D10021E0
:102930002046FEF77BFFAB466648844202D14FF04B
:10294000190B28E0B4F1804F02D14FF01C0B22E0AC
:102950006248844202D14FF01D0B1CE06048844263
:1029600002D14FF01E0B16E05E48844202D14FF0B8
:10297000320B10E05C48844202D14FF0360B0AE083
:102980005A48844202D14FF0370B04E05248844247
:1029900001D14FF02C0B8DF800B08DF801908DF81F
:1029A00002A000208DF803006846FDF712FDBDE887
:1029B000FF9F484884420BD04748844208D04C4887
:1029C000844205D04B48844202D04B48844202D115
:1029D0004A48066801E049480668642D0AD242F276
:1029E0000F7842F21070B6FBF0F0B0FBF5F0401E2D
:1029F00087B213E040F6B830854209D24FF0630841
:102A00006420B6FBF0F0B0FBF5F0401E87B205E0A5
:102A10004FF00008B6FBF5F0401E87B2ADF8087025
:102A2000ADF804800020ADF80A00ADF806008DF87E
:102A30000C0001A92046FEF79DFB01212046FEF770
:102A4000F5FF012211462046FEF70BFF012120462B
:102A5000FEF7ECFE4FF0000B1E48844202D14FF00F
:102A6000190B28E0B4F1804F02D14FF01C0B22E08B
:102A70001A48844202D14FF01D0B1CE018488442D2
:102A800002D14FF01E0B16E01648844202D14FF0DF
:102A9000320B10E01448844202D14FF0360B0AE0AA
:102AA0001248844202D14FF0370B04E00A488442B6
:102AB00001D14FF02C0B8DF800B08DF801908DF8FE
:102AC00002A001208DF803006846FDF782FC00BFDC
:102AD0006DE70000002C014000340140000400407C
:102AE00000080040000C00400010004000140040AE
:102AF000004C014000500140005401400000002003
:102B000038B504460121E068FEF712F9A08A80B2C8
:102B1000ADF8000010208DF8030003208DF80200AE
:102B200069462069FDF748FE38BD10B51B48FFF720
:102B3000E7FF1B48FFF7E4FF1A48FFF7E1FF174ADA
:102B4000928A91B2154A1069FDF7E3FE144A928AFF
:102B500091B2134A1069FDF7DCFE124A928A91B2D3
:102B6000104A1069FDF7D5FE10BD19B9D0E904234C
:102B7000136112E0002903DAD0E9042353610CE069
:102B80008268521C82608A4207DB0269D26843690C
:102B90005A400369DA60002282607047B800002062
:102BA000D0000020E800002008B50020FEF74FF913
:102BB0000020FEF74FF9FEF71FF900214FF4806067
:102BC000FEF7A9F84FF4F850ADF8000004208DF896
:102BD00003006946FB48FDF7EFFD0420ADF8000057
:102BE0006946F948FDF7E8FD08BD10B5FFF7DCFFC1
:102BF00010BD2DE9F04106460027F448456B01E081
:102C0000F248456B05F045000028F9D005F00400B6
:102C100030B103270420FEF7BEF93846BDE8F08145
:102C200005F0010028B101270120FEF7B4F938466C
:102C3000F4E7FEF749F9B04202D010273846EDE735
:102C400040F2FF50FEF7A7F90020FEF741F90446D5
:102C5000DF48204008B93846E0E704F0004008B1FA
:102C60001C20DBE704F0804008B10920D6E704F01F
:102C7000005008B10A20D1E704F0805008B10B20C1
:102C8000CCE704F0006008B10C20C7E704F08060D6
:102C900008B10D20C2E704F0807008B10E20BDE736
:102CA00004F4000008B10F20B8E704F4800008B174
:102CB0001020B3E704F4001008B11120AEE704F4CB
:102CC000801008B11220A9E704F4002008B11320F5
:102CD000A4E704F4802008B114209FE704F4003036
:102CE00008B115209AE704F4803008B1162095E762
:102CF00004F4004008B1172090E704F4804008B1C4
:102D000018208BE704F4005008B1192086E704F07E
:102D1000080008B11A2081E738467FE72DE9FC4119
:102D200007460D4600260024002000900190082050
:102D3000A849086010204860402088600020C860D2
:102D40004FF4806008610846FEF7A4F81020FFF7F2
:102D500050FF044614B12046BDE8FC819E4800881F
:102D600000049C49086037204860402088600020AB
:102D7000C8604FF4806008610846FEF78BF8372082
:102D8000FFF737FF04460CB12046E5E79348944926
:102D9000086008204860302088600220C860002059
:102DA0000861012048610846FEF79DF80020894926
:102DB000086033204860402088600020C8604FF4DD
:102DC000806008610846FEF765F83320FFF711FFC1
:102DD00004460CB12046BFE709E04FF40010FEF7AF
:102DE000D0F820B1FEF7A1F84DF82600761C774800
:102DF000406B40F22A6108400028EED00820FEF720
:102E0000C0F828B10820FEF7C6F804242046A3E73E
:102E10000220FEF7B6F828B10220FEF7BCF8022423
:102E2000204699E72020FEF7ACF828B12020FEF7D5
:102E3000B2F8062420468FE74FF40070FEF7A1F8A1
:102E400030B14FF40070FEF7A6F80724204683E760
:102E500040F2FF50FEF79FF800980006009901F439
:102E60007F4140EA0120009901F47F0140EA1120EE
:102E7000009940EA1160686001980006019901F428
:102E80007F4140EA0120019901F47F0140EA1120CD
:102E9000019940EA1160286020465DE77CB505464F
:102EA0000024002000900190FEF712F800F000705E
:102EB00010B10E2420467CBD4749098888B2694676
:102EC000FFF72CFF04460CB12046F4E7012D36D164
:102ED000019800F4802000282ED03F48008800048C
:102EE0003C49086037204860402088600020C86066
:102EF000A80208610846FDF7CDFF3720FFF779FEED
:102F000004460CB12046D6E702203249086006206C
:102F10004860402088600020C8604FF480600861ED
:102F20000846FDF7B7FF0620FFF763FE04460CB125
:102F30002046C0E72046BEE725242046BBE701988F
:102F400000F4803078B324480088000421490860E8
:102F500037204860402088600020C8604FF48060BF
:102F600008610846FDF796FF3720FFF742FE04464A
:102F70000CB120469FE700201649086006204860F3
:102F8000402088600020C8604FF4806008610846D7
:102F9000FDF780FF0620FFF72CFE04460CB120460B
:102FA00089E7204687E7FFE72524204683E770B5B9
:102FB000044600250B480068032815D1272528461C
:102FC00070BD00000010014000140140008001406D
:102FD00008E0FFFD580200201C010020FFFF0F0049
:102FE0006C02002018010020F948006838B1F84848
:102FF0000068012803D0F648006802282ED1B4F5F5
:10300000805F02D127252846DAE7B4F5006F14D196
:103010000120FFF743FF054605BB0120ED49087578
:1030200000200860486088604FF40060C86000209D
:1030300008610846FDF7EEFE10E00020FFF72EFFC6
:1030400005465DB90120E349087500200860486025
:103050008860C86008610846FDF7DCFE2846AFE7D7
:1030600070B504460025DC4804600720DA49486052
:10307000402088600020C8604FF4806008610846E6
:10308000FDF708FF0720FFF7B4FD0546284670BD91
:10309000F0B5014600200022CD4B1B7881F8563058
:1030A000CE4B1B88A1F85430CD4B1B681A0E9309E8
:1030B0000B70C2F383034B7002F003038B70C84B99
:1030C0001B68C3F30742CA70C54B1B88C3F30722B2
:1030D0000A71C34B1A784A715B681A0E1301CB80D0
:1030E000BF4B5B68C3F30742CB8843EA1213CB8024
:1030F00002F00F030B72BA4B9B88C3F30722D3096C
:103100004B72C2F380138B72C2F34013CB72C2F3C3
:1031100000130B7300234B73AD4B1B681BB1AC4BFF
:103120001B68012B4FD193071B0D0B61AC4B1A7918
:103130000B6943EA82030B61A94B9B681A0E0B696A
:1031400043EA92130B61C2F3C2030B7502F007034B
:103150004B75A34B9B68C3F3074253098B75C2F3AE
:103160008203CB7593075B0F0B769D4B1B89C3F3D3
:1031700007220B7E43EAD2130B760B695B1C0024FB
:10318000C1E912340B7ED1E912659B1C012404FABB
:1031900003F3DC17A6FB037C05FB03C306FB043328
:1031A000C1E912730C7A0123A3400B650027D1E912
:1031B00012560B6DA5FB034C06FB03C305FB07333F
:1031C000C1E9124323E0824B1B68022B1FD1844BC1
:1031D0001A7993069B0A0B61814B9B681A0E0B6947
:1031E00043EA02230B617E4B9B68C3F307420B69E2
:1031F00013430B617A4B1B89C3F307220B695B1CDA
:10320000DB040024C1E912344FF400730B65C2F3F0
:10321000801301F8193F93065B0E4B70704B1A7ABE
:103220004B7843EAD2134B7002F07F038B706C4BE8
:10323000DB681A0ED309CB70C2F341130B71C2F3D2
:1032400082034B7193071B0F8B71654BDB68C3F3D4
:1032500007428B7943EA92138B71C2F34013CB710F
:1032600000230B7202F001034B725D4B9B89C3F389
:103270000722D3098B72C2F38013CB72C2F34013BF
:103280000B73C2F300134B73C2F381038B7302F011
:103290000303CB73524B1A7B53080B7401234B74FB
:1032A000504B1B681A0ECA7419394E4B1B68C3F376
:1032B00007421402CC854B4B1B88C3F30722CB8DEE
:1032C0001343CB85474B1A7814060C635B681A0EC0
:1032D0000B6B43EA02440C63424B5B68C3F3074247
:1032E0000B6B43EA02240C633E4B9B88C3F307221B
:1032F0000B6B13430B633B4B1A7934235A54394BF2
:103300009B681A0E35235A54364B9B68C3F3074209
:1033100014068C63334B1B89C3F307228B6B43EA80
:1033200002448C632F4B1A7A8B6B43EA02248C6322
:103330002C4BDB681A0E8B6B13438B63294BDB68BA
:10334000C3F307423C235B5C43EA12143C235C5406
:1033500013071C0DCC87234B9B89C3F30722CB8F0C
:103360001343CB871F4B1A7B540840235C54012422
:1033700041235C54F0BD70B500251B48446B01E04F
:103380001948446B04F045000028F9D004F004000B
:1033900028B103250420FDF7FEFD284670BD04F08A
:1033A000010028B101250120FDF7F5FD2846F5E7CC
:1033B00040F2FF50FDF7EFFD2846EFE72DE9F04121
:1033C00006460F464FF000080748456B10E0000026
:1033D0001801002040020020580200201C0100209B
:1033E000B8010020C801002000800140F848456B6A
:1033F00005F045000028F9D005F0040038B14FF081
:1034000003080420FDF7C7FD4046BDE8F08105F044
:10341000010030B14FF001080120FDF7BCFD40462E
:10342000F3E7FDF751FDB04203D04FF010084046DE
:10343000EBE740F2FF50FDF7AEFD0020FDF748FD41
:10344000044604F4604018B9200C38804046DCE79C
:1034500004F4005008B11320D7E704F4804008B109
:103460001020D2E704F4004008B10F20CDE7404619
:10347000CBE738B5002401200090FDF7F6FC10B929
:103480002524204638BDD3480068042828D00020D1
:10349000D149086002204860C02088600020C860D0
:1034A0004FF4806008610846FDF7F4FCFFF763FF06
:1034B00004460CB12046E5E70020FDF709FDC749A9
:1034C00008600420FDF704FDC44948600820FDF7AA
:1034D000FFFCC24988600C20FDF7FAFCBF49C860B8
:1034E000BC48006858B1BB480068012807D0B948FB
:1034F0000068062803D0B7480068022816D10020CB
:10350000B549086003204860402088600020C860FA
:103510004FF4806008610846FDF7BCFC6946032053
:10352000FFF74CFF04460CB12046ABE7A948006802
:1035300004282ED0BDF80000A9490860BDF800009D
:103540000004A549086009204860C0208860002068
:10355000C8604FF4806008610846FDF79BFCFFF7E8
:103560000AFF04460CB120468CE70020FDF7B0FCB2
:103570009C4908600420FDF7ABFC9A49486008208C
:10358000FDF7A6FC974988600C20FDF7A1FC954942
:10359000C8600024204675E770B500258C48446B50
:1035A00001E08B48446B04F045000028F9D004F09A
:1035B000040028B103250420FDF7EDFC284670BD6A
:1035C00040F2FF50FDF7E7FC2846F8E770B500260B
:1035D0004FF480357E48446B02E06D1E7C48446B9E
:1035E00004F0450008B9002DF7D115B104F004002E
:1035F00028B103260420FDF7CEFC304670BD04F050
:10360000400028B100264020FDF7C5FC3046F5E714
:103610003046F3E770B500254FF4803400E0641EB7
:1036200024B18020FDF7ADFC0028F8D014B90325A3
:10363000284670BD40F2FF50FDF7ADFC2846F8E784
:10364000F8B5002000900025002400260027B220B5
:10365000654908750020086048608860C860086196
:103660000846FDF7D7FB0320FDF7F4FB0120FDF72B
:10367000EEFB00205849086048608860C8604FF43D
:10368000806008610846FDF705FCFFF7C3FF009066
:103690009DF8000010B19DF80000F8BD4FF4D57002
:1036A0004D49086008204860402088600020C860BC
:1036B0004FF4806008610846FDF7ECFBFFF786FFDA
:1036C00000909DF8000020B901204249086087075A
:1036D00012E00020404908603720486040208860A0
:1036E0000020C8604FF4806008610846FDF7D2FBF7
:1036F0003720FFF77EFA0090002037490860372016
:103700004860402088600020C8604FF480600861F5
:103710000846FDF7BFFB3720FFF76BFA00909DF8D6
:103720000000002851D13BE000202B4908603720E1
:103730004860402088600020C8604FF480600861C5
:103740000846FDF7A7FB3720FFF753FA00909DF8D6
:10375000000010B19DF800009FE7244838431E493F
:10376000086029204860402088600020C8604FF42D
:10377000806008610846FDF78DFBFFF70DFF0090A4
:103780009DF8000010B19DF8000086E70020FDF7CD
:103790009FFB0546012080EAD57080F00106641C7D
:1037A0001EB94FF6FF708442BED34FF6FF708442BD
:1037B00004D31B2000909DF800006EE705F08040C8
:1037C000050002D00220034908609DF8000064E76C
:1037D000008001401801002058020020C80100208C
:1037E0001C010020B80100204002002000001080D1
:1037F00008B501213020FDF79BFA4FF4F850ADF8E1
:10380000000003208DF8020018208DF8030069469F
:10381000FD48FCF7D1FF0420ADF800006946FB48E5
:10382000FCF7CAFF01218802FDF775FA0121022089
:10383000FDF771FA08BD08B531208DF800000620AB
:103840008DF8010000208DF8020001208DF80300A2
:103850006846FCF7BEFD3B208DF8000005208DF882
:10386000010000208DF8020001208DF80300684659
:10387000FCF7AFFD08BD08B500200090FFF7DBFFA7
:10388000FFF7B6FFFDF7B8FAFFF7DAFE00909DF8F4
:10389000000010B19DF8000008BDFFF7EAFD0090A0
:1038A0009DF8000010B19DF80000F5E70120D8490F
:1038B00008750020086048608860C8600861084694
:1038C000FDF7A8FAD348FFF7E3FB00909DF800004E
:1038D00030B9D049B1F854100804FFF7C1FB00908B
:1038E0009DF8000020B94FF40060FFF760FB0090E6
:1038F0009DF80000D0E770B50446002514B92625D0
:10390000284670BDC44800880004C44908600D20E2
:103910004860402088600020C8604FF480600861E3
:103920000846FDF7B7FA0D20FFF763F905460DB11C
:103930002846E6E70020FDF7CBFA20602846E0E7BE
:1039400008B5012000909DF8000008BD08B50020D2
:103950000090FFF7F5FF012809D16846FFF7CBFF7C
:1039600008B1FF2008BD0098C0F34320FAE7FF200C
:10397000F8E710B50424FFF7E9FF0446042C01D151
:10398000002010BDFF2C01D10220FAE70120F8E74A
:1039900010B500240020FDF75DFA204610BD70B57B
:1039A0000446002600250020FDF792FA00F0007082
:1039B00010B10E26304670BD402098490860102096
:1039C0004860402088600020C8604FF48060086133
:1039D0000846FDF75FFA1020FFF70BF906460EB117
:1039E0003046E8E78C48008800048C49086037209E
:1039F0004860402088600020C8604FF48060086103
:103A00000846FDF747FA3720FFF7F3F806460EB1F0
:103A10003046D0E7824883490860402048606020F3
:103A200088600220C86000200861012048610846C3
:103A3000FDF759FA0020794908600D2048604020C0
:103A400088600020C8604FF4806008610846FDF778
:103A500021FA0D20FFF7CDF806460EB13046AAE751
:103A60000EE04FF40040FDF78CFA48B1002504E069
:103A7000FDF75BFA44F825006D1C082DF8D32034BF
:103A80006948406B40F22A6108400028E9D00820CC
:103A9000FDF777FA28B10820FDF77DFA04263046B5
:103AA00089E70220FDF76DFA28B10220FDF773FACD
:103AB000022630467FE72020FDF763FA28B1202058
:103AC000FDF769FA0626304675E74FF40070FDF7FA
:103AD00058FA30B14FF40070FDF75DFA0726304612
:103AE00069E74F4D04E0FDF720FA2060241D6D1EAC
:103AF0004FF40010FDF745FA08B1002DF3D140F264
:103B0000FF50FDF748FA304655E770B504460026E9
:103B100000254648FFF743FF06460EB1304670BD0C
:103B2000424800788509257040480078C0F3401568
:103B300065703E488578280260803C48C57860887A
:103B40002843608039480579280660603748457900
:103B5000606840EA0540606034488579606840EA02
:103B6000052060603148C5796068284360602F484F
:103B7000057A2572457A6572807A0509A5722B4807
:103B8000C57A2802A0812948057BA0892843A08105
:103B90002648407B8508A5732448407B00F0030538
:103BA000E5733046BBE730B58BB005460C46204880
:103BB000FCF774FD00211F48FCF741FD1A488030D6
:103BC0000090019500200290A0080390002004902E
:103BD00080200590800006908000079000200890CB
:103BE0004FF40050099000200A9069461148FCF7F4
:103BF000FBFC012202210F48FCF72DFD01210D489D
:103C0000FCF71DFD0BB030BD001001400014014059
:103C100040020020E80100201C0100205802002082
:103C2000FFFF0F006C02002000800140D80100203F
:103C300000F00010440402402DE9F0418046144693
:103C40001D46069E00270020FE490870FE490860B8
:103C5000FE490860FE49C862FE480068022808D193
:103C60000602020200232046294604F0C1FC044655
:103C70000D46F94806601020F749486040208860EA
:103C80000020C8604FF4806008610846FDF702F923
:103C90001020FEF7AEFF074617B13846BDE8F081A9
:103CA000EE48EF4908600846466090208860022090
:103CB000C86000200861012048610846FDF713F93B
:103CC000E54804601120E4494860402088600020F5
:103CD000C8604FF4806008610846FDF7DBF81120EA
:103CE000FEF787FF07460FB13846D7E7012140F2BC
:103CF0002A30FDF7BFF80120FDF7C9F831464046EC
:103D0000FFF751FF3846C9E72DE9F04781461446D1
:103D10001D46DDE9086800270020CA490870CA4925
:103D200008600120C94908600020C949C862C94823
:103D30000068022808D10602020200232046294614
:103D400004F056FC04460D46C34806601020C249E4
:103D50004860402088600020C8604FF4806008619F
:103D60000846FDF797F81020FEF743FF074617B106
:103D70003846BDE8F087B948B949086008FB06F045
:103D80004860902088600220C860002008610120FF
:103D900048610846FDF7A7F8AF4804601220AE4915
:103DA0004860402088600020C8604FF4806008614F
:103DB0000846FDF76FF81220FEF71BFF07460FB10C
:103DC0003846D6E7012140F22A30FDF753F80120AA
:103DD000FDF75DF808FB06F14846FFF7E4FE3846BC
:103DE000C7E710B5002400209B4908600C204860FC
:103DF000402088600020C8604FF480600861084659
:103E0000FDF748F80C20FEF7F4FE0446204610BDEE
:103E100070B50025914C00E0641E9248006838B9E6
:103E20008948006820B98748007808B9002CF3D188
:103E300000208C490860894C00E0641E8448406B77
:103E400000F4005008B1002CF7D180480068012828
:103E500002D1FFF7C6FF05460CB905B9042540F2AB
:103E6000FF50FDF798F87748007810B17548007852
:103E700070BD2846FCE730B58BB005460C467A4845
:103E8000FCF70CFC00217948FCF7D9FB7048803026
:103E90000090019510200290A0080390002004904B
:103EA00080200590800006908000079000200890F8
:103EB0004FF40050099000200A9069466B48FCF7C7
:103EC00093FB012202216948FCF7C5FB01216748E9
:103ED000FCF7B5FB0BB030BD2DE9F0418046144630
:103EE0001D46069E00270020564908705649086066
:103EF000564908605649C86256480068022808D1E9
:103F00000602020200232046294604F071FB044603
:103F10000D465148066010204F4948604020886097
:103F20000020C8604FF4806008610846FCF7B2FFCB
:103F30001020FEF75EFE074617B13846BDE8F08157
:103F400045480460182044494860402088600020AB
:103F5000C8604FF4806008610846FCF79BFF18209A
:103F6000FEF747FE07460FB13846E7E73B483C49B6
:103F7000086008464660902088600020C86008619C
:103F8000012048610846FCF7AEFF012140F22A30CB
:103F9000FCF770FF31464046FFF76DFF0120FCF74C
:103FA00076FF3846CAE72DE9F047814615461E469A
:103FB000DDE90878002400202249087022490860C1
:103FC00001202249086000202149C8622148006878
:103FD000022808D10702020200232846314604F0D5
:103FE00007FB05460E461C48076010201A4948602A
:103FF000402088600020C8604FF480600861084657
:10400000FCF748FF1020FEF7F4FD044614B12046EB
:10401000BDE8F0871648008800040F490860372083
:104020004860402088600020C8604FF480600861CC
:104030000846FCF72FFF3720FEF7DBFD0446CCB126
:104040002046E5E72401002028010020200100206F
:10405000008001401801002058020020FFFF0F00DF
:104060006C0200202C01002000F0001044040240EB
:104070001C010020F948C0F800801720F74948606B
:10408000402088600020C8604FF4806008610846C6
:10409000FCF700FF1720FEF7ACFD04460CB12046EC
:1040A000B6E7EE4805601920EC494860402088607A
:1040B0000020C8604FF4806008610846FCF7EAFE03
:1040C0001920FEF796FD04460CB12046A0E7E4480F
:1040D000E449086008FB07F04860902088600020F1
:1040E000C8600861012048610846FCF7FCFE012118
:1040F00040F22A30FCF7BEFE0120FCF7C8FE08FBA8
:1041000007F14846FFF7B7FE204681E770B5002566
:10411000D34C00E0641ED448006838B9D348006826
:1041200020B9D348007808B9002CF3D10020CE493B
:104130000860CB4C00E0641ECE48406B00F4805019
:1041400008B1002CF7D1CC480068012802D1FFF754
:1041500048FE05460CB905B9042540F2FF50FCF7AE
:104160001AFFC348007810B1C148007870BD2846D6
:10417000FCE7C048406B00F4405008B10120704794
:104180000020FCE77CB5044600250020019000904B
:10419000BA4800880004B14908600D2048604020FA
:1041A00088600020C8604FF4806008610846FCF712
:1041B00071FEB048406B009002E0AE48406B00904A
:1041C000009800F045000028F7D0009800F00400A7
:1041D00028B103250420FCF7DEFE28467CBD0098AC
:1041E00000F0010028B101250120FCF7D4FE28468B
:1041F000F4E7FCF769FE009000980D2802D0102526
:104200002846EBE740F2FF50FCF7C5FE0020FCF724
:104210005FFE01900198C0F34320207098490198F7
:10422000084008B92846D9E7019800F0004008B1D5
:104230001C20D3E7019800F0804008B10920CDE7A9
:10424000019800F0005008B10A20C7E7019800F07B
:10425000805008B10B20C1E7019800F0006008B160
:104260000C20BBE7019800F0806008B10D20B5E795
:10427000019800F0807008B10E20AFE7019800F4BB
:10428000000008B10F20A9E7019800F4800008B1F0
:104290001020A3E7019800F4001008B111209DE759
:1042A000019800F4801008B1122097E7019800F4FB
:1042B000002008B1132091E7019800F4802008B194
:1042C00014208BE7019800F4003008B1152085E731
:1042D000019800F4803008B116207FE7019800F4BF
:1042E000004008B1172079E7019800F4804008B138
:1042F000182073E7019800F4005008B119206DE709
:10430000019800F0080008B11A2067E7284665E721
:104310002DE9FC4106460F460024002500200190AF
:10432000009058484068202101EA105018B925240F
:104330002046BDE8FC814F484068C0B2801C52490D
:10434000B1FBF0F001900020FCF7C2FD00F000701E
:1043500010B10E242046ECE74C480068022801D139
:10436000760A7F0A4948006838B148480068012841
:1043700003D04648006802282BD138480660202028
:1043800036494860402088600020C8604FF4806053
:1043900008610846FCF77EFD2020FEF72AFC044653
:1043A0000CB12046C5E72D48076021202B49486005
:1043B000402088600020C8604FF480600861084693
:1043C000FCF768FD2120FEF714FC04460CB12046E2
:1043D000AFE700202149086026204860402088601F
:1043E0000020C8604FF4806008610846FCF752FD69
:1043F0002620FEF7FEFB04460CB1204699E7002577
:1044000000E06D1C01988542FBD36846FFF7BAFEB9
:104410000446134D04E06846FFF7B4FE04466D1EE3
:1044200045B13CB99DF800000728F4D09DF8000084
:104430000628F0D020467CE710B54FF48070FCF7DA
:10444000ADFD50B100200A4908704FF48070FCF7B0
:10445000AFFD01200549086052E019E05802002034
:10446000FFFF0F006C0200202C010020280100201B
:104470002401002000800140200100201C010020B8
:1044800008E0FFFDB8010020C0D4010018010020A1
:104490000220FCF783FD30B10220FCF789FD0220E9
:1044A0002D4908702CE00820FCF778FD30B1082079
:1044B000FCF77EFD04202849087021E02020FCF74D
:1044C0006DFD30B12020FCF773FD062022490870F5
:1044D00016E01020FCF762FD30B11020FCF768FDFB
:1044E00005201D4908700BE04FF40070FCF756FDE5
:1044F00030B14FF40070FCF75BFD072016490870DF
:1045000000214CF23A30FCF7B5FC1348007810BD9E
:1045100010B5124800681249084028B1012011491D
:1045200008601148FCF7BAF810BD0146002002E00F
:104530004910421CD0B20129FAD1704710B5084881
:10454000FCF798F810BD10B5FFF776FF10BD10B559
:10455000FFF7DEFF10BD0000240100200004024030
:10456000002000102C01002000F0001038B5044697
:104570000E208DF8000006208DF8010000208DF837
:10458000020001208DF803006846FBF722FF25207A
:104590008DF800008DF8014000208DF80200012008
:1045A0008DF803006846FBF714FF38BD00B58BB0EB
:1045B00001210846FCF7AFFB0021CB48FCF73FF890
:1045C000C948FBF76FFFC9480090C9480190102007
:1045D000029032200390002004908020059000205B
:1045E0000690079008904FF44050099000200A90E0
:1045F0006946BD48FBF7F8FF4FF48050FCF74EF8D2
:104600000021B948FCF71BF801220221B648FCF74B
:1046100022F80021B4481430FCF711F8B2481430E5
:10462000FBF740FFB1480090B24801900020029093
:1046300032200390002004908020059000200690F6
:10464000079008904FF44050099000200A90694666
:10465000A5481430FBF7C8FF4FF48030FCF71EF874
:104660000121A1481430FBF7EAFF0BB000BD10B5E3
:1046700086B0044601210420FCF75AFB012188037F
:10468000FCF756FB4FF40070ADF8140018208DF8BD
:10469000170003208DF8160005A99748FCF78CF841
:1046A0004FF48060ADF8140004208DF8170005A9C0
:1046B0009148FCF781F82046FFF758FFFFF776FF97
:1046C0004FF4E13001900020ADF80800ADF80A0089
:1046D000ADF80C00ADF810000C20ADF80E0001A9EB
:1046E0008248001FFDF7C3FB012240F224417F48AE
:1046F000001FFDF754FC01217C48001FFDF743FC1F
:10470000012280217948001FFDF76EFC0122402123
:104710007648001FFDF768FC06B010BD10B50446D2
:1047200001207649087070484438846401216E483D
:10473000FBF785FF10BD10B54FF48050FBF7B9FFB4
:1047400050B100206D4908704FF48050FBF7A6FF70
:1047500000216548FBF773FF10BD08B500200090ED
:1047600040F224416148001FFDF7FEFCB8B340F25F
:1047700024415E48001FFDF721FD5C48001FFDF746
:1047800073FC10215948001FFDF7E5FC0021564835
:104790001430FBF754FF4FF48030FBF77FFF524893
:1047A0001430FBF763FFC0F1320055490870322026
:1047B0004D494439C86500236A464E49514800684E
:1047C00001F018FF4B4848494439486601214648E2
:1047D0001430FBF734FF4548001FFDF745FC0098F7
:1047E00018B14FF080504849086008BD70B50546C3
:1047F0000C46002C03DA284603F04FFF04B200BF3A
:104800003E4800780028FBD13949214448702246AF
:104810002946374803F01DFFA0B2FFF77FFF70BDA8
:1048200070B504460D4629462046FDF719FC00BF29
:1048300080212046FDF782FC0028F9D070BD70B5BC
:1048400006460C46002500BF615D3046FFF7E8FFD5
:104850006D1C605D0028F7D100BF40213046FDF798
:104860006DFC0028F9D070BD2DE9F04105460C46DD
:10487000260AE7B231462846FDF7F2FB00BF802149
:104880002846FDF75BFC0028F9D039462846FDF79D
:10489000E7FB00BF80212846FDF750FC0028F9D037
:1048A000BDE8F08170B504460D46E1B20F48001F27
:1048B000FDF7D6FB00BF80210C48001FFDF73EFC32
:1048C0000028F8D0204670BD10B5044600BF202156
:1048D0000648001FFDF732FC0028F8D00348001FEF
:1048E000FDF7C2FB10BD0000440002400438014047
:1048F00084020020B60200200008014030010020A0
:10490000310100204400002004ED00E070B50446B1
:104910000E4626B10121FB48FBF7FBFF03E0012116
:10492000F848FBF7F8FF00251BE04FF40051F5486D
:10493000FBF7F1FF04F0800028B14FF48041F1480B
:10494000FBF7E7FF04E04FF48041EE48FBF7E3FF9D
:104950004FF40051EB48FBF7DCFF6006040E681CC7
:10496000C5B2082DE1DB0121E648FBF7D2FF70BD9F
:1049700070B504460D4605F1B001C8B20021FFF73D
:10498000C5FFA11CC1F3031141F010000021FFF786
:10499000BDFFA11C01F00F000021FFF7B7FF70BDA4
:1049A000F0B5144600267F2801DC3F2900DDF0BD6C
:1049B0000B46CF1701EB5777FF10C7F10707FAB285
:1049C000CF1701EB5777FF10A1EBC707FDB2C5F179
:1049D00007070123BB40DEB24CB1CB4B03EBC00356
:1049E0009B5C3343C84F07EBC007BB5408E0C64B82
:1049F00003EBC0039B5CB343C34F07EBC007BB543F
:104A000000BFD4E770B502460025C1F13F00C1B236
:104A10000846CE1701EB5676F310CE1701EB56760B
:104A2000F610A1EBC606F4B20120A040C5B2B6480C
:104A300000EBC200C05C284008B1012070BD00201E
:104A4000FCE710B500218D20FFF760FF0021142046
:104A5000FFF75CFF0021AF20FFF758FF10BD10B536
:104A600000218D20FFF752FF00211020FFF74EFF9D
:104A70000021AE20FFF74AFF10BD70B500241CE0F6
:104A800004F1B001C8B20021FFF740FF002102206D
:104A9000FFF73CFF00211020FFF738FF002508E05A
:104AA000994901EBC501085D0121FFF72FFF681C43
:104AB000C5B2802DF4DB601CC4B2082CE0DB70BDF5
:104AC00070B500240CE0002506E000208E4901EBC3
:104AD000C5010855681CC5B2802DF6DB601CC4B248
:104AE000082CF0DBFFF7C9FF70BD70B500240CE0A7
:104AF000002506E0FF20844901EBC5010855681C2C
:104B0000C5B2802DF6DB601CC4B2082CF0DBFFF7C9
:104B1000B4FF70BD2DE9F04706460F469046994612
:104B2000DDF820A034460CE03D4606E0524629461A
:104B30002046FFF735FF681CC5B24D45F6DD601C09
:104B4000C4B24445F0DDBDE8F0872DE9FF4F82B0E7
:104B500007460C46904600250026A9460097A34626
:104B60000598012802D0022852D152E0B8F1000F76
:104B70004ED0A8F12000C5B264480078012804D1C5
:104B8000002D02DB6149087002E000205F490870D7
:104B90007E2F02DD0027601CC4B2002636E005EB44
:104BA00045005B4901EB400010F806A04FF00009FA
:104BB00026E00AF0800058B15448007808B9012076
:104BC00000E00020024621463846FFF7E9FE05E0F6
:104BD0004E48027821463846FFF7E2FE4FEA4A6027
:104BE0004FEA106A601CC4B2A4EB0B00082803D182
:104BF0005C46781CC7B206E009F1010000F0FF092D
:104C0000B9F1080FD5DB00BF701CC6B2062EC6DB9B
:104C100073E0B8F1000F6FD0A8F12000C5B23B4897
:104C20000078012804D1002D02DB3849087002E029
:104C3000002036490870782F02DD0027601CC4B2BE
:104C4000002657E006EB0510324911F800A006EBEC
:104C500005100830085C01904FF0000944E00AF0AC
:104C6000800058B12948007808B9012000E00020F0
:104C7000024621463846FFF793FE05E023480278B6
:104C800021463846FFF78CFE019800F0800068B19D
:104C90001E48007808B9012000E00020024604F117
:104CA0000800C1B23846FFF77BFE07E004F10800B8
:104CB000C1B2164802783846FFF772FE4FEA4A60E2
:104CC0004FEA106A01984006000E0190601CC4B2C1
:104CD000A4EB0B00082803D15C46781CC7B206E0A1
:104CE00009F1010000F0FF09B9F1080FB7DB00BFBF
:104CF000701CC6B2082EA5DB00BF00BF06B0BDE821
:104D0000F08F000000100140E80200203301002075
:104D10003A8F0008629100082DE9F04107460E46DF
:104D20009046002500244546FE480078012804D11D
:104D3000002D02DBFB49087002E00020F9490870F1
:104D4000782F02DD0027701CC6B231463846FFF7C7
:104D50000FFE002408E004EB8511F34A505C0121AA
:104D6000FFF7D4FD601CC4B2082CF4DB07F1080186
:104D7000C8B23146FFF7FCFD002409E004EB8511C1
:104D80000831E94A505C0121FFF7C0FD601CC4B244
:104D9000082CF3DB701CC1B23846FFF7E9FD002494
:104DA00009E004EB85111031DF4A505C0121FFF767
:104DB000ADFD601CC4B2082CF3DB721CD1B207F14C
:104DC0000802D0B2FFF7D4FD002409E004EB8511FE
:104DD0001831D54A505C0121FFF798FD601CC4B220
:104DE000082CF3DBB01CC1B23846FFF7C1FD00242C
:104DF00009E004EB85112031CB4A505C0121FFF71B
:104E000085FD601CC4B2082CF3DBB21CD1B207F1E3
:104E10000802D0B2FFF7ACFD002409E004EB8511D5
:104E20002831C14A505C0121FFF770FD601CC4B2FB
:104E3000082CF3DBF01CC1B23846FFF799FD0024C3
:104E400009E004EB85113031B74A505C0121FFF7CE
:104E50005DFD601CC4B2082CF3DBF21CD1B207F17B
:104E60000802D0B2FFF784FD002409E004EB8511AD
:104E70003831AD4A505C0121FFF748FD601CC4B2D7
:104E8000082CF3DBBDE8F08110B50246012000E0FC
:104E900050430B00A1F10104E1B2F9D110BD2DE99D
:104EA000FF4F87B0064692461F46DDE91494D3466D
:104EB000002004900021504603F016FE16D223462F
:104EC0002D2230460899FFF740FE012C05D104EB56
:104ED000440006EB4000C6B202E006EB8400C6B216
:104EE000781EC7B28AF0004A8BF0004B504603F0A0
:104EF000B3FD069000254DE0781B401EC1B20A208C
:104F0000FFF7C2FF0699B1FBF0F00A21B0FBF1F206
:104F100001FB12080498F8B9781EA8421CDDB8F10C
:104F2000000F17D1012C0BD104EB4401490001FB08
:104F30000561C8B2234620220899FFF706FE08E063
:104F4000A10001FB0561C8B2234620220899FFF7A2
:104F5000FCFD1DE001200490012C0DD108F1300171
:104F6000CAB204EB4401490001FB0561C8B2234603
:104F70000899FFF7EAFD0AE008F13001CAB2A10082
:104F800001FB0561C8B223460899FFF7DEFD00BFAB
:104F9000681CC5B2BD42AFDBB9F1000F71D0012C66
:104FA0000BD104EB4401490007FB0161C8B2234661
:104FB0002E220899FFF7C9FD08E0A10007FB016157
:104FC000C8B223462E220899FFF7BFFD584603F0CA
:104FD0005CFD564A564BCDE9000103F0F8FBCDE9E4
:104FE000020103F065FD834649460A20FFF74CFFA6
:104FF000009003F00EFD0290069803F00AFD59465A
:10500000009003F0AFFB0190029903F0AEFB039018
:1050100003F022FD0590002551E0A9EB0500401E9C
:10502000C1B20A20FFF730FF0599B1FBF0F00A2169
:10503000B0FBF1F201FB12084D453EDAB8F1000F6A
:1050400020D0012C0FD104EB44014B00E919491C7D
:1050500003FB0161C8B208F13001CAB223460899C6
:10506000FFF773FD29E0A300E919491C03FB016167
:10507000C8B208F13001CAB223460899FFF765FDAE
:105080001BE01EE0012C0DD104EB44014A00E9199C
:10509000491C02FB0161C8B2234630220899FFF780
:1050A00054FD0AE0A200E919491C02FB0161C8B2E3
:1050B000234630220899FFF748FD681CC5B24D45CC
:1050C000ABDB0BB0BDE8F08F2DE9F0470646894613
:1050D00017461D464FF0000A002F0ADA0B224946F8
:1050E0003046FFF719FE06F11000C6B2681EC5B2C1
:1050F0007F42002435E0281B401EC1B20A20FFF782
:10510000C3FEB7FBF0F00A21B0FBF1F201FB12087D
:10511000BAF1000F19D1681EA04216DDB8F1000FD8
:1051200011D107E03301002052970008F168E388AD
:10513000B5F8E43E102101FB0461C8B20D224946D6
:10514000FFF7EAFD0BE04FF0010A08F0FF02102123
:1051500001FB0461C8B24946FFF7DEFD00BF601CD9
:10516000C4B2AC42C7DBBDE8F0872DE9F04104468C
:105170000F4615469846002615E0AA5D4346394677
:105180002046FFF7E2FCB8F1020F03D104F108005A
:10519000C4B201E0A01DC4B2782C02DD0024B81C0A
:1051A000C7B2701CC6B2A85D0028E6D1BDE8F08188
:1051B0002DE9F04F07460C4616460025A846A346A3
:1051C00000BF57E07000401CE34901EB401010F8AD
:1051D000059001EB861010F805A04FF0000843E0A1
:1051E00009F0800058B1DD48007808B9012000E0DE
:1051F0000020024621463846FFF7D2FB05E0D7489B
:10520000027821463846FFF7CBFB0AF0800068B1F0
:10521000D248007808B9012000E00020024604F1DD
:105220000800C1B23846FFF7BBFB07E004F10800F5
:10523000C1B2CA4802783846FFF7B2FB4FEA49606C
:105240004FEA10694FEA4A604FEA106A601CC4B224
:10525000A4EB0B00082803D15C46781CC7B206E01B
:1052600008F1010000F0FF08B8F1080FB8DB00BF3B
:10527000681CC5B2102DA5DBBDE8F08F2DE9FF4FEE
:1052800085B081460E461F46129C0396029709EB95
:105290000700802803DDC7F18000C0B202902546D8
:1052A0003019402802DDC4F14000C5B22046E217A3
:1052B00004EB5272D2102146E31704EB5373DB1058
:1052C000A4EBC3030BB1012300E000231A44D2B2C4
:1052D00001922846EA1705EB5272D2102946EB17C5
:1052E00005EB5373DB10A5EBC3030BB1012300E007
:1052F00000231A44D2B200924FF0000843E04FF06E
:10530000000A39E0019808FB00A1079810F801B0E5
:105310000020049028E00BF0800058B18F480078FE
:1053200008B9012000E00020024631464846FFF758
:1053300037FB05E08948027831464846FFF730FBE5
:105340004FEA4B604FEA106B701CC6B20398301ADC
:10535000A84205D1039E09F1010000F0FF0906E013
:105360000498401CC0B2049004980828D3DB00BF06
:105370000AF1010000F0FF0A00988245C2DB08F143
:10538000010000F0FF0802988045B8DB09B0BDE8D5
:10539000F08F1FB501211020FBF7CAFC0120ADF8EA
:1053A000080010208DF80B0003208DF80A0002A9D8
:1053B0006B48FBF701FA01211020FBF7B9FC4FF411
:1053C0000040ADF8040010208DF8070003208DF890
:1053D000060001A96248FBF7EFF901211020FBF755
:1053E000A7FC4FF40050ADF80C0010208DF80F0012
:1053F00003208DF80E0003A95948FBF7DDF90121C0
:105400001020FBF795FC4FF48040ADF80000102011
:105410008DF8030003208DF8020069465048FBF721
:10542000CBF94FF400514E48FBF773FA4FF480412B
:105430004B48FBF76EFA01214948FBF76AFA4FF433
:1054400000414748FBF765FA4FF400414448FBF739
:1054500062FA4448FCF77FFF4FF400414048FBF7F5
:1054600058FA0021AE20FFF751FA00210220FFF781
:105470004DFA00211020FFF749FA00214020FFF7E4
:1054800045FA00218120FFF741FA0021CF20FFF7E4
:105490003DFA0021A120FFF739FA0021C820FFF7CB
:1054A00035FA0021A620FFF731FA0021A820FFF7E6
:1054B0002DFA00213F20FFF729FA0021D320FFF722
:1054C00025FA00210846FFF721FA0021D520FFF731
:1054D0001DFA00218020FFF719FA0021D920FFF7DB
:1054E00015FA0021F120FFF711FA0021DA20FFF769
:1054F0000DFA00211220FFF709FA0021DB20FFF747
:1055000005FA00214020FFF701FA00212020FFF7D3
:10551000FDF900210220FFF7F9F900218D20FFF7A6
:10552000F5F900211420FFF7F1F90021A420FFF77D
:10553000EDF90021A620FFF7E9F90021AF20FFF7E0
:10554000E5F90021AF20FFF7E1F9FFF7B9FA0021F3
:105550000846FFF70DFA1FBDD29A0008330100205C
:1055600000100140A086010010B5FE48006820F040
:105570007040FC4908600846006840F040500860F0
:105580000020F94908600220FCF7E5FE0020F749F9
:10559000C1F89C010220FCF7DEFE0120F249086000
:1055A0000220FCF7D8FE0020F049C1F89801012044
:1055B000FCF7D1FE10BD10B5EA48006820F070403D
:1055C000E84908600846006840F040500860002044
:1055D000E54908600220FCF7BEFE0120E349C1F85E
:1055E0009C010220FCF7B7FE0120DF490860022081
:1055F000FCF7B1FE0020DD49C1F898010120FCF75D
:10560000AAFE10BD10B5C824D648006820F070402E
:10561000D44908600846006840F040500860012006
:10562000D149091D0860FCF796FE0020CF49C1F85A
:1056300098010120FCF78FFECA48006820F07040F6
:10564000C84908600846006840F000400860012032
:10565000FCF781FE0DE0601EC4B20120FCF77BFE6A
:1056600024B90020C0490860012010BD0120FCF7CA
:1056700072FEBD487C3800680028ECD10120FCF7A0
:105680006AFE0120B8490860FCF765FE0020B749B2
:10569000C1F898010120FCF75EFE0020E5E710B597
:1056A000B048006820F07040AE49086008460068C5
:1056B00040F0405008600120AB49091D0860AB492B
:1056C000C1F898010420FCF746FE0020A649091DF8
:1056D00008600420FCF73FFE0020A449C1F89801AF
:1056E00010BD10B59F48006820F070409D490860CB
:1056F0000846006840F04050086000209A49086061
:105700009A49C1F89C010420FCF725FE0120964926
:1057100008600420FCF71FFE01209449C1F89C0199
:105720000420FCF718FE10BD70B504468D480068D3
:1057300020F070408B4908600846006840F04050F7
:10574000086000208849086000251FE004F0800000
:1057500020B101208449091D086003E0002082492E
:10576000091D08606006040E0220FCF7F4FD01200C
:105770007D4908600220FCF7EEFD00207B49C1F85E
:1057800098010220FCF7E7FD681CC5B2082DDDDB9F
:1057900070BD70B500247348006820F070407149F6
:1057A00008600846006840F0004008600120FCF7EF
:1057B000D2FD002516E000206B4908600220FCF7AE
:1057C000CAFD01206949C1F898016006040E6648C7
:1057D0007C38006808B144F001040120FCF7BBFDEF
:1057E000681CC5B2082DE6DB00205F490860204632
:1057F00070BD014601F00F00091101F00F0101EB2E
:10580000810251004218D0B2704730B501460A24D7
:1058100091FBF4F4E2B20A2491FBF4F504FB1514B5
:10582000E3B203EB0214E0B230BD70B505460C469E
:10583000FFF735FFD020FFF777FFFFF7E3FE28469D
:10584000FFF772FFFFF7DEFE2046FFF76DFFFFF761
:10585000D9FEFFF746FF012070BD10B5FFF71FFF0F
:10586000D120FFF761FFFFF7CDFEFFF792FF04465F
:10587000FFF737FF204610BD10B50446FFF70FFFB6
:10588000D020FFF751FFFFF7BDFE2046FFF74CFF8A
:10589000FFF7B8FEFFF7E1FF10BD2DE9FF47044613
:1058A0000020FFF7E9FF0546FFF7A3FF2060012076
:1058B000FFF7E2FF0546FFF79CFF60600220FFF75D
:1058C000DBFF00F03F052846FFF793FFA0600320B1
:1058D000FFF7D2FFE0600420FFF7CEFF0546FFF799
:1058E00088FF20610520FFF7C7FF0546FFF781FF0E
:1058F00060610620FFF7C0FF0546FFF77AFF00F55D
:10590000FA60A0611120FFF7B7FF81461220FFF770
:10591000B3FF824609F0800070B389F0FF0909F1F6
:10592000010000F0FF094FEAAA1003F077F8002207
:105930000F4BCDE9000102F0F1FF05460E46484647
:1059400003F07DF82A463346CDE9020102F03FFF1D
:10595000074603F0ADF8E0610649E06902F005FF93
:10596000E06123E0000C0140988121420080214247
:105970000000D03F000080BFFFE74FEAAA1003F00D
:105980004DF800225E4BCDE9000102F0C7FF05464D
:105990000E46484603F053F807462A46334602F0BF
:1059A00016FFCDE9020103F083F8E061BDE8FF874F
:1059B00010B58AB001A8FFF770FF0698012802D041
:1059C000069802280BD106980C30069007980028FC
:1059D00003DD0798401E079001E004200790069918
:1059E000491C01EB4101052291FBF2F10224DDE9A2
:1059F000052304FB03221144079A11441046D217D1
:105A000000EB927201EBA201072291FBF2F302FB81
:105A10001311491C04910498C1B20320FFF705FF3C
:105A20000AB010BD70B5054600242878FFF7EDFEDA
:105A3000044621460020FFF7F8FE2879FFF7E5FE2F
:105A4000044621460120FFF7F0FE287AFFF7DDFE2D
:105A500000F0BF0421460220FFF7E7FE287CFFF795
:105A6000D4FE044621460420FFF7DFFE287BFFF723
:105A7000CCFE044621460320FFF7D7FE287DFFF722
:105A8000C4FE044621460520FFF7CFFE297EA1F57E
:105A9000FA61C8B2FFF7B9FE044621460620FFF7B7
:105AA000C4FE70BD1CB501210820FBF741F9402060
:105AB000ADF8040010208DF8070003208DF80600D3
:105AC00001A91048FAF778FE01210820FBF730F908
:105AD0008020ADF8000010208DF8030003208DF821
