:020000040800F2
:10000000A05E0020392100085D2100085F21000862
:1000100063210008672100086B2100080000000030
:100020000000000000000000000000004501000882
:100030006F2100080000000089010008BB7D000856
:1000400053210008532100085321000853210008C0
:1000500053210008532100085321000853210008B0
:1000600053210008532100085321000853210008A0
:100070005321000853210008772D00085321000860
:100080005321000853210008532100085321000880
:100090005321000853210008532100087121000852
:1000A0005321000853210008532100085321000860
:1000B000D5400008C1400008532100085321000822
:1000C0005321000853210008532100085321000840
:1000D000532100089B2D00085321000853210008DC
:1000E0005321000853210008532100085321000820
:1000F0005321000853210008532100085321000810
:1001000053210008532100085321000853210008FF
:100110005321000853210008EF2200085321000852
:1001200053210008532100085321000853210008DF
:10013000DFF80CD00AF0AEFE004800475D22000850
:10014000A05E0020204B19680868B0E8F00F80F32B
:100150000988BFF36F8F4FF0000080F311884EF0D5
:100160000D0E70470000000006480068006880F32C
:10017000088862B661B6BFF34F8FBFF36F8F00DFA1
:1001800000BF00BF08ED00E0EFF30980BFF36F8F01
:100190000D4B1A6820E9F00F106008B54FF0100001
:1001A00080F3118809F05BF84FF0000080F31188AC
:1001B000BDE8084019680868B0E8F00F80F30988C6
:1001C000BFF36F8F704700BFC4010020EFF31180B1
:1001D0004FF0100181F31188704780F31188704748
:1001E000EFF30580704700000CB5002001900090EF
:1001F0006C48006840F480306A49086000BF694874
:10020000006800F4003000900198401C01900098B4
:1002100018B90198B0F5A06FF1D16248006800F4F8
:10022000003010B10120009001E000200090009803
:10023000012843D15C48006840F010005A4908602A
:100240000846006820F0030008600846006840F097
:1002500002000860534840685249486008464068B8
:1002600048600846406840F480604860084640683E
:1002700020F47C1048600846406840F4E81048606C
:100280000846006840F08070086000BF454800687C
:1002900000F000700028F9D04248406820F00300C8
:1002A000404948600846406840F00200486000BF8E
:1002B0003C48406800F00C000828F9D10CBD10B58E
:1002C000FFF792FF10BD10B53648006840F00100FE
:1002D000344908600846406834490840314948605C
:1002E00008460068324908402E4908600846006800
:1002F00020F4802008600846406820F4FE00486032
:100300004FF41F008860FFF7DAFF4FF000602949C3
:10031000086010BD10B5002100200022214B5B6851
:1003200003F00C0121B1042906D0082928D107E0E7
:10033000214B224C236027E01F4B204C236023E0FD
:10034000184B5B6803F47010164B5B6803F4803243
:10035000022303EB904022B9194B4343174C23600F
:100360000DE0104B5B6803F4003323B1144B43439F
:10037000124C236003E0104B4343104C236003E016
:100380000D4B0E4C236000BF00BF064B5B68C3F3F0
:1003900003130C4CE15C094B1B68CB40074C2360FA
:1003A00010BD000000100240002002400000FFF8D5
:1003B000FFFFF6FE08ED00E000127A0000000020CA
:1003C00000093D000400002031490143314A116019
:1003D000704770B5002100230F22C47804B32D4C60
:1003E000246804F4E064C4F5E064210AC1F1040364
:1003F000CA40447804FA03F1847814402143090187
:10040000254C0678A155047804F01F050124AC4062
:1004100005786D11AD0005F1E025C5F8004109E052
:10042000047804F01F050124AC401C4D06787611B9
:1004300045F8264070BD1A4A0A400243154B1B1F5F
:100440001A60704739B1134A121D12680243114BEA
:100450001B1D1A6006E00F4A121D126882430D4BE5
:100460001B1D1A607047042808D14FF0E02109696C
:1004700041F004014FF0E022116107E04FF0E0216C
:10048000096921F004014FF0E0221161704700007A
:100490000000FA050CED00E000E400E080E100E07F
:1004A00080FFFF1F01684FF6FE72114001600021BE
:1004B000016041608160C1608D49884208D18C49EA
:1004C0000839496841F00F01894A083A51608AE0C9
:1004D00087491431884208D185490839496841F073
:1004E000F001834A083A51607DE081492831884211
:1004F00008D17F490839496841F470617C4A083A5B
:10050000516070E07A493C31884208D17849083915
:10051000496841F47041764A083A516063E0744991
:100520005031884208D172490839496841F4702134
:100530006F4A083A516056E06D496431884208D1EB
:100540006B490839496841F47001694A083A5160B9
:1005500049E067497831884208D1654908394968D6
:1005600041F07061624A083A51603CE0614988425A
:1005700006D1011F096841F00F01021F116032E02E
:100580005C491431884208D15A49091F096841F071
:10059000F001584A121F116025E05649283188425F
:1005A00008D15449091F096841F47061514A121F6A
:1005B000116018E04F493C31884208D14D49091F6C
:1005C000096841F470414B4A121F11600BE0494920
:1005D0005031884207D14749091F096841F4702109
:1005E000444A121F1160704710B50022026847F696
:1005F000F0739A430C6A8B6823430C6923434C695C
:1006000023438C692343CC6923434C6A23438C6A7C
:1006100023431A430260CB6843600B6883604B68D6
:10062000C36010BD0021016041608160C160016153
:1006300041618161C161016241628162704721B1A2
:10064000026842F00102026004E002684FF6FE73A5
:100650001A40026070471AB103680B43036002E05E
:1006600003688B43036070474160704701464868E8
:1006700080B2704701460020002201F080531BB178
:100680001C4B083B1A6802E0194B083B1A6802EA47
:1006900001030BB1012000E00020704700F0805101
:1006A00019B11449091F086002E01149083948606E
:1006B000704701460020002201F080531BB10D4B12
:1006C000083B1A6802E00A4B083B1A6802EA010379
:1006D0000BB1012000E00020704700F0805119B1FB
:1006E0000449091F086002E0014908394860704761
:1006F0000800024008040240002044490860091D27
:100700000860091D0860091D086041483F4914310F
:100710000860704700213D498279002A3AD00A4694
:10072000126803689A430B461A600A1D1268036830
:100730009A430B1D1A60027911440A6803681A4330
:100740000A60324A0832126803689A432F4B083312
:100750001A601A1D126803689A432C4B0C331A60F6
:100760004279102A0ED11A1F126803681A43274BC8
:1007700008331A601A1D126803681A43234B0C339E
:100780001A600DE02149427911440A6803681A434E
:100790000A6005E0027911440A6803689A430A6016
:1007A00070470021016001710C21417100218171AC
:1007B00070471649103109680143144A103211601C
:1007C000704701460020114A143212680A400AB1EB
:1007D000012000E0002070470C4914310860704788
:1007E000014600200022094B1B6803EA0102074B67
:1007F00014331B680B4013B10AB1012000E0002044
:10080000704702491431086070470000000401403D
:10081000FFFF0F0010B50446CC48844208D10121E7
:10082000042000F02DFB0021042000F029FB46E00D
:10083000C748844208D10121082000F021FB002193
:10084000082000F01DFB3AE0C248844208D1012193
:10085000102000F015FB0021102000F011FB2EE00D
:10086000BD48844208D10121202000F009FB00216D
:10087000202000F005FB22E0B848844208D1012185
:10088000402000F0FDFA0021402000F0F9FA16E0C7
:10089000B348844208D10121802000F0F1FA002100
:1008A000802000F0EDFA0AE0AE48844207D1012131
:1008B000801500F0E5FA0021A01500F0E1FA10BD66
:1008C00010B50121084600F0DBFA0021012000F0FC
:1008D000D7FA10BD2DE9F041024600250026002080
:1008E00000230024002791F803C00CF00F0591F8B5
:1008F00003C00CF0100CBCF1000F03D091F802C043
:100900004CEA050591F800C0BCF1000F31D0146825
:1009100000202BE04FF0010C0CFA00F3B1F800C0FE
:100920000CEA03069E4220D183004FF00F0C0CFA14
:1009300003F7BC4305FA03FC4CEA040491F803C036
:10094000BCF1280F06D14FF0010C0CFA00FCC2F8E4
:1009500014C00AE091F803C0BCF1480F05D14FF074
:10096000010C0CFA00FCC2F810C0401C0828D1D3BE
:100970001460B1F800C0BCF1FF0F34DD54680020F2
:100980002EE000F1080C4FF0010808FA0CF3B1F862
:1009900000C00CEA03069E4221D183004FF00F0CE9
:1009A0000CFA03F7BC4305FA03FC4CEA040491F883
:1009B00003C0BCF1280F05D100F1080C08FA0CF8AF
:1009C000C2F8148091F803C0BCF1480F07D100F1C0
:1009D000080C4FF0010808FA0CF8C2F81080401C0F
:1009E0000828CED35460BDE8F0814FF6FF71018036
:1009F000022181700421C170704702460020936873
:100A00000B400BB1012000E00020704701468868D0
:100A100080B2704702460020D3680B400BB1012022
:100A200000E0002070470146C86880B2704701614D
:100A30007047416170470AB1016100E04161704750
:100A4000C16070474FF480320A43826181618261E4
:100A500082698269704702460020434B18684FF64E
:100A60008073184040EA021008433F4B18607047FB
:100A70003E49C8617047F0B50A46002300240021B2
:100A8000002500F00046B6F1004F02D1364EF16964
:100A900001E0354E7168C0F3034583B200F440169F
:100AA000B6F5401F08D121F070612F4E766826F010
:100AB00070662D4F7E6012E000F48016B6F5801F40
:100AC00006D1032606FA05F4A14341F0706106E061
:100AD000460D360103FA06F6B14341F0706122B1CA
:100AE000460D360103FA06F6314300F00046B6F132
:100AF000004F02D11C4EF16101E01B4E7160F0BD50
:100B000030B500228B071C0F0F2303FA04F2164B9B
:100B100008338C1053F824309343134C08348D1051
:100B200044F8253023468C1053F824308C07240FCA
:100B300000FA04F423430C4C08348D1044F825309B
:100B400030BD0A49DC3108607047000000080140F0
:100B5000000C014000100140001401400018014049
:100B6000001C014000200140000001400000204224
:100B7000DF48006840F00100DD4908600846406831
:100B8000DC490840DA49486008460068DA4908400C
:100B9000D74908600846006820F4802008600846AD
:100BA000406820F4FE0048604FF41F0088607047E2
:100BB000CF49096821F48031CD4A11601146096896
:100BC00021F480211160B0F5803F03D0B0F5802F73
:100BD0000ED106E0C649096841F48031C44A11606B
:100BE00007E0C349096841F4A021C14A116000E04F
:100BF00000BF00BF704710B501460022002300204F
:100C00004A11012A02D1BA4C236806E0022A02D115
:100C1000B74C236A01E0B64C636A01F01F0201245D
:100C200094401C400CB1012000E0002010BD38B5FC
:100C3000002000900024002500BF3120FFF7DBFFDB
:100C400005460098401C00900098B0F5A06F01D0B8
:100C5000002DF2D03120FFF7CEFF08B1012400E0D3
:100C60000024204638BD01460020A14A106820F02B
:100C7000F80040EAC10010607047A0490860704762
:100C8000024600209A4B586820F47C1042EA010387
:100C90001843974B5860704798490866704701465B
:100CA0000020934A506820F00300084350607047CA
:100CB0008F48406800F00C007047014600208C4AC5
:100CC000506820F0F0000843506070470146002053
:100CD000874A506820F4E06008435060704701463E
:100CE0000020834A506820F4605040EAC100506000
:100CF000704729B17E4A527A02437D4B5A7204E012
:100D00007B4A527A82437A4B5A7270477B49D83178
:100D10000860704701460020754A506820F4404042
:100D20000843506070470021714A20321170704AA8
:100D300082F82010012802D004280AD104E0012101
:100D40006B4A2032117005E00521694A203211708A
:100D500000E000BF00BF7047694908607047644900
:100D6000096A0143624A1162704765494439086063
:100D7000704730B500210022002400235C4D6D68CF
:100D800005F00C0121B1042905D0082923D105E083
:100D90005C4D056022E05B4D05601FE0544D6D68C1
:100DA00005F47012524D6D6805F48034022505EB90
:100DB00092421CB9544D554305600BE04C4D6D6893
:100DC00005F400351DB1504D5543056002E04D4D11
:100DD0005543056002E04B4D056000BF00BF444D28
:100DE0006D6805F0F0010909484D6B5C0568DD4050
:100DF00045603F4D6D6805F4E061090A434D6B5C49
:100E00004568DD4085603A4D6D6805F46051C90A5A
:100E10003E4D6B5C4568DD40C560354D6D6805F441
:100E20004041890B3A4D6B5CC568B5FBF3F5056134
:100E300030BD29B12E4A526902432D4B5A6104E05C
:100E40002B4A526982432A4B5A61704729B1284A7A
:100E500092690243264B9A6104E0254A92698243D3
:100E6000234B9A61704729B1214AD2690243204B32
:100E7000DA6104E01E4AD26982431D4BDA61704791
:100E800029B11B4AD2680243194BDA6004E0184AC0
:100E9000D2688243164BDA60704729B1144A12694E
:100EA0000243134B1A6104E0114A12698243104B4A
:100EB0001A61704712494039086070470F49C86489
:100EC00070470B49C87170470948406A40F080700C
:100ED00007494862704701460020054A92680A4067
:100EE0000AB1012000E00020704701498872704774
:100EF000001002400000FFF8FFFFF6FE0000424233
:100F00008004424200127A0000093D0014000020D3
:100F10002400002010B50446FE48844208D1012177
:100F2000C014FFF7ADFF0021E014FFF7A9FFC4E0F4
:100F3000B4F1804F08D101210846FFF7AEFF002130
:100F40000120FFF7AAFFB8E0F348844208D101214D
:100F50000220FFF7A2FF00210220FFF79EFFACE076
:100F6000EE48844208D101210420FFF796FF0021BA
:100F70000420FFF792FFA0E0E948844208D1012154
:100F80000820FFF78AFF00210820FFF786FF94E082
:100F9000E448844208D101211020FFF77EFF0021A0
:100FA0001020FFF77AFF88E0DF48844208D1012152
:100FB0002020FFF772FF00212020FFF76EFF7CE06A
:100FC000DA48844208D101214014FFF759FF00217B
:100FD0006014FFF755FF70E0D548844209D1012124
:100FE000C804FFF74DFF00214FF40020FFF748FF32
:100FF00063E0D048844209D101210805FFF740FF92
:1010000000214FF48010FFF73BFF56E0CA488442AE
:1010100009D101214805FFF733FF00214FF40010EB
:10102000FFF72EFF49E0C548844208D10121402046
:10103000FFF733FF00214020FFF72FFF3DE0C048BE
:10104000844208D101218020FFF727FF0021802062
:10105000FFF723FF31E0BB48844208D1012180150E
:10106000FFF71BFF0021A015FFF717FF25E0B6488B
:10107000844209D101210804FFF702FF00214FF447
:101080008030FFF7FDFE18E0B048844209D101210D
:101090004804FFF7F5FE00214FF40030FFF7F0FEA3
:1010A0000BE0AB48844208D101218804FFF7E8FE39
:1010B00000214FF48020FFF7E3FE10BD00220288DC
:1010C000944B98420ED0994B98420BD0B0F1804F80
:1010D00008D0914B984205D0904B984202D0904B4B
:1010E000984204D14FF68F731A404B881A438D4BA8
:1010F000984207D08C4B984204D04FF6FF431A40D9
:10110000CB881A4302808B8883850B880385814BAB
:1011100098420BD0854B984208D08B4B984205D013
:101120008A4B984202D08A4B984201D10B7A0386AF
:1011300001238382704770B5002400220023058CB0
:101140004FF6FE7635400584028C8388048B4FF67B
:101150008F752C40B51E2C400D882C43751E2A40DF
:101160000D892A434D882A436A4DA8420BD06F4D02
:10117000A84208D0744DA84205D0744DA84202D0B0
:10118000734DA84213D14FF6F7752A404D892A4373
:101190004FF6FB752A408D882A434FF6FF652B409A
:1011A0004FF6FF552B408D892B43CD892B438380F0
:1011B0000483CD888586028470BD70B5002400222A
:1011C0000023058C4FF6EF7635400584028C83882A
:1011D000048B48F6FF752C404FF6FF452C400D88D8
:1011E0004FF6FF7606EA05252C434FF6DF752A40B9
:1011F0000D8906EA05152A434D8806EA05152A4396
:10120000444DA84202D0494DA8421DD14FF67F75EA
:101210002A404D894FF6FF7606EA05152A434FF618
:10122000BF752A408D8806EA05152A434FF6FF351B
:101230002B404FF2FF752B408D8906EA85052B4325
:10124000CD8906EA85052B4383800483CD880587F5
:10125000028470BD70B5002400220023058C4FF677
:10126000FF6635400584028C8388848B4FF68F752A
:101270002C404FF6FC752C400D882C434FF6FF5543
:101280002A400D894FF6FF7606EA05252A434D8848
:1012900006EA05252A431F4DA84202D0234DA84245
:1012A0001DD14FF2FF752A404D894FF6FF7606EAB1
:1012B00005252A434FF6FF352A408D8806EA052585
:1012C0002A434EF6FF752B404DF6FF752B408D8956
:1012D00006EA05152B43CD8906EA05152B438380C5
:1012E0008483CD888587028470BD70B50022002379
:1012F0000024058C4EF6FF7635400584038C8488E7
:10130000828B48F6FF752A404FF6FF452A400D882C
:1013100020E00000002C01400004004000080040D4
:10132000000C004000100040001400400034014058
:10133000004C0140005001400054014000180040A2
:10134000001C0040002000400040014000440140DB
:10135000004801404FF6FF7606EA05252A434DF680
:10136000FF752B400D8906EA05352B434D8806EAAB
:1013700005352B43FA4DA84202D0FA4DA84208D1B8
:101380004BF6FF752C408D894FF6FF7606EA8515E2
:101390002C4384808283CD88A0F84050038470BDA4
:1013A000828B4FF2FF331A408283828B4FF6FF739A
:1013B00003EA01231A4382837047F0B50C461546B1
:1013C000002200210026078C4EF6FF7C07EA0C075E
:1013D0000784828B018C4FF6FF7707EA043640F6CC
:1013E000FF473A404FF6FF7707EA05273A434FF6A3
:1013F000FF7707EA03373A43D94FB8420ED0D94FA7
:10140000B8420BD0B0F1804F08D0D74FB84205D0CA
:10141000D64FB84202D0D64FB84206D14DF6FF772C
:10142000394046F48057394305E047F6FF573940C5
:1014300044F48057394382830184F0BD828B4FF698
:10144000F3731A408283828B0A4382837047F0B51C
:101450000C461546002200210026078C4FF6FF6C33
:1014600007EA0C070784828B018C4FF6FF7707EAA7
:1014700004264FF60C773A404FF6FF7707EA03173A
:101480002F433A43B64FB8420ED0B64FB8420BD0B6
:10149000B0F1804F08D0B44FB84205D0B34FB84236
:1014A00002D0B34FB84206D14FF6FF57394046F449
:1014B0008077394305E04FF2FF57394044F4807795
:1014C000394382830184F0BD028B4FF2FF331A400F
:1014D0000283028B4FF6FF7303EA01231A43028350
:1014E0007047F0B50C461546002200210026078CF7
:1014F0004FF6EF7C07EA0C070784028B018C4FF64E
:10150000FF7707EA041640F6FF473A404FF6FF77A9
:1015100007EA03373A434FF6FF7707EA05273A43CE
:101520008F4FB8420ED08F4FB8420BD0B0F1804FE2
:1015300008D08D4FB84205D08C4FB84202D08C4FA6
:10154000B84206D14FF6DF77394046F010073943ED
:1015500005E04FF65F77394044F0100739430283C6
:101560000184F0BD028B4FF6F3731A400283028BA5
:101570000A4302837047F0B50C461546002200214D
:10158000068C4FF6FE773E400684028B018C4FF6A8
:101590000C7632407E1C06EA03162E433243704E10
:1015A000B0420ED06F4EB0420BD0B0F1804F08D099
:1015B0006D4EB04205D06D4EB04202D06C4EB0427E
:1015C00006D14FF6FD76314044F00106314305E087
:1015D0004FF6F576314044F0010631430283018431
:1015E000F0BD70B505460C465D4885420ED05D489D
:1015F00085420BD0B5F1804F08D05B48854205D0BD
:101600005A48854202D05A48854200D100E000BFC6
:10161000208850B92389A28861882846FFF7ABFF4C
:10162000E1882846FFF79EFF25E0208804280AD19C
:101630002389A28861882846FFF753FFE18828465E
:10164000FFF742FF17E0208808280AD12389A288E3
:1016500061882846FFF7FBFEE1882846FFF7EEFE8B
:1016600009E02389A28861882846FFF7A6FEE18861
:101670002846FFF795FE70BD2DE9F04105460C4662
:1016800000260127608808B9022600E00026A0880D
:10169000012801D1022700E001272088A0B9238971
:1016A000A28861882846FFF766FFE1882846FFF791
:1016B00059FF23893A4631462846FFF712FFE18851
:1016C0002846FFF701FF13E02389A2886188284696
:1016D000FFF707FFE1882846FFF7F6FE23893A4621
:1016E00031462846FFF747FFE1882846FFF73AFFD3
:1016F000BDE8F0810A884B881A438B881A43CB884F
:101700001A430B891A434B891A438B891A43A0F851
:10171000442070474FF6FF71818000210180C18015
:101720004180017270470021018041808180C18029
:10173000018141818181C181704700210180418007
:10174000012181800021C180018170470021018039
:1017500041808180C1800181418181817047000089
:10176000002C01400034014000040040000800400B
:10177000000C004021B1028842F00102028004E026
:1017800002884FF6FE731A400280704731B1B0F8FC
:10179000442042F40042A0F8442005E0B0F8442080
:1017A000C2F30E02A0F8442070471AB183890B439C
:1017B000838102E083898B438381704781827047F4
:1017C00041EA0203A0F8483070471AB183890B43FD
:1017D000838102E083898B438381704701894FF6BF
:1017E000F8721140018170470A46002101894FF6C5
:1017F0008F73194011430181704730B504460D467F
:1018000029462046FFF7F0FF208940F0070020819D
:1018100030BD2DE9F04104460D4616461F46602DA9
:1018200006D13B46012231462046FFF75AFE05E02D
:101830003B46012231462046FFF79DFE29462046C1
:10184000FFF7D2FF208940F007002081BDE8F0813A
:1018500030B50C4600210189C9B24FF6FF7505EA83
:101860000325154325432943018130BD2DE9F0416E
:1018700005460E4617469846002443463A463146EA
:101880002846FFF7E5FF2C894FF6F870044044F036
:1018900007044FF68F70044044F070042C81BDE8BB
:1018A000F081F0B504460D4616461F463B463246CB
:1018B00029462046FFF7CCFF208940F48040208154
:1018C000F0BD0185828270470A46002101884FF6EB
:1018D0008F731940114301807047F0B50C461546CF
:1018E0001E460021002200230189028B038C4FF643
:1018F000F877394021434FF6FC473A4040F2011750
:101900003A434FF6DD773B404FF6FF7707EA06177D
:101910002F433B43018102830384F0BD0A4600212B
:10192000018B4FF68F7319401143018370470A46AC
:101930000021018B48F6FF7319404FF6FF7303EA4D
:1019400002231943018370470A460021818B4FF619
:101950008F7319401143818370470A460021818BA0
:1019600048F6FF7319404FF6FF7303EA0223194349
:101970008183704721B1028842F08002028004E036
:1019800002884FF67F731A400280704721B1828827
:1019900042F00402828004E082884FF6FB731A4012
:1019A0008280704721B1828842F00802828004E080
:1019B00082884FF6F7731A408280704721B182887F
:1019C00042F00102828004E082884FF6FE731A40E2
:1019D000828070470A460021018B4FF6F773194049
:1019E0001143018370470A460021018B4FF2FF73B8
:1019F00019404FF6FF7303EA02231943018370472E
:101A00000A460021818B4FF6F773194011438183F9
:101A100070470A460021818B4FF2FF7319404FF641
:101A2000FF7303EA02231943818370470A460021AA
:101A3000018B4FF6FB7319401143018370470A462F
:101A40000021018B4FF6FF3319404FF6FF7303EA75
:101A500002231943018370470A460021818B4FF608
:101A6000FB7319401143818370470A460021818B23
:101A70004FF6FF3319404FF6FF7303EA0223194371
:101A8000818370470A460021018B4FF67F7319400E
:101A90001143018370470A460021018BC1F30E01F7
:101AA0004FF6FF7303EA02231943018370470A4686
:101AB0000021818B4FF67F7319401143818370475A
:101AC0000A460021818BC1F30E014FF6FF7303EA32
:101AD00002231943818370470A460021018C4FF687
:101AE000FD7319401143018470470A460021018C9F
:101AF0004FF6F77319401143018470470A460021DD
:101B0000018C4FF6DF7319404FF6FF7303EA02139F
:101B10001943018470470A460021018C4FF67F73F8
:101B200019404FF6FF7303EA02131943018470470B
:101B30000A460021018C4FF6FF5319404FF6FF7300
:101B400003EA02231943018470470A460021018CED
:101B50004FF2FF7319404FF6FF7303EA0223194354
:101B6000018470470A460021018C4DF6FF7319402D
:101B70004FF6FF7303EA023319430184704730B50F
:101B8000002301248C40A3B2048C9C430484048C65
:101B900002FA01F5ADB22C43048430BD30B5002308
:101BA00004248C40A3B2048C9C430484048C02FA69
:101BB00001F5ADB22C43048430BD70B5034600205E
:101BC00000241846183001258D40ACB21D8CA54369
:101BD0001D8409B1082909D100EB6100056825F0D1
:101BE000700505600568154305600EE00D1FC5F31F
:101BF0004E052844056825F4E045056005684FF664
:101C0000FF7606EA02263543056070BD21B10288E1
:101C100042F00202028004E002884FF6FD731A408F
:101C20000280704721B1028842F00402028004E081
:101C300002884FF6FB731A400280704721B18288F8
:101C400042F08002828004E082884FF67F731A405F
:101C50008280704702884FF6F7731A40028002882C
:101C60000A430280704782884FF68F731A40828041
:101C700082880A438280704702894FF6F8731A40BF
:101C8000028102890A430281704702894FF67F73FD
:101C90001A40028102890A43028170478184704799
:101CA00081857047818670470187704781877047BB
:101CB000A0F84010704702884FF6FF431A40028098
:101CC00002880A43028070470146888E70470146A9
:101CD000088F70470146888F70470146B1F8400071
:101CE00070470146888C70470146088D7047024650
:101CF0000020138A0B400BB1012000E00020704748
:101D0000CA430282704730B50246002000230024F7
:101D1000158A05EA0103958905EA010413B10CB19E
:101D2000012000E0002030BDCA430282704700005D
:101D300010B50446FB48844209D101218803FFF70E
:101D40009FF800214FF48040FFF79AF832E0F64800
:101D5000844209D101214804FFF79FF800214FF484
:101D60000030FFF79AF825E0F048844209D10121BC
:101D70008804FFF792F800214FF48020FFF78DF8D8
:101D800018E0EB48844209D10121C804FFF785F827
:101D900000214FF40020FFF780F80BE0E548844273
:101DA00008D101210805FFF778F800214FF48010D1
:101DB000FFF773F810BD2DE9F04786B005460E46D3
:101DC0000024A24600BFA1460027B08900B100BF91
:101DD0002F462C8A4CF6FF700440F08804432C8276
:101DE000AC894EF6F3100440B088318908437189FC
:101DF00008430443AC81AC8A4FF6FF400440B089ED
:101E00000443AC8201A8FEF7B4FFC648874202D162
:101E1000DDF810A001E0DDF80CA0A88900F4004076
:101E200040B10AEBCA0000EB0A1031684900B0FB70
:101E3000F1F807E00AEBCA0000EB0A1031688900EC
:101E4000B0FBF1F86420B8FBF0F004012009642134
:101E500001FB1089A88900F4004040B1322000EB5A
:101E6000C900B0FBF1F000F00700044308E03220A5
:101E700000EB09106421B0FBF1F000F00F00044307
:101E80002C8106B0BDE8F0874FF4165101600021A7
:101E90008180C18001810C214181002181817047B5
:101EA00010B502460020108A4FF2FF0318400B883D
:101EB0004C8823438C882343CC88234318431082C7
:101EC00010BD0021018041808180C180704721B117
:101ED000828942F40052828104E082894DF6FF73C8
:101EE0001A4082817047F0B5034600240026002581
:101EF000002040F66A17B94200D100BF1846C1F36E
:101F0000421401F01F06012707FA06F5012C01D142
:101F10000C3004E0022C01D1103000E014301AB172
:101F200007682F43076002E00768AF430760F0BD12
:101F30001AB1838A0B43838202E0838A8B438382B4
:101F40007047028A4FF6F0731A400282028A0A43EF
:101F50000282704782894FF2FF731A408281828920
:101F60000A438281704721B1828942F00202828154
:101F700004E082894FF6FD731A4082817047028A1D
:101F80004FF6DF731A400282028A0A4302827047C8
:101F900021B1028A42F48042028204E0028A4BF6B6
:101FA000FF731A4002827047C1F3080282807047B3
:101FB00001468888C0F308007047818941F001011B
:101FC00081817047028BD2B20283028B42EA0122E6
:101FD00002837047028B02F47F420283028B0A4322
:101FE0000283704721B1828A42F02002828204E09B
:101FF000828A4FF6DF731A408282704721B1828A4B
:1020000042F01002828204E0828A4FF6EF731A4097
:102010008282704721B1828A42F00802828204E003
:10202000828A4FF6F7731A408282704721B1828903
:1020300042F40042828103E08289C2F30E0282816F
:10204000704721B1828A42F40062828204E0828A6F
:102050004FF2FF731A4082827047828A4FF6FB73F9
:102060001A408282828A0A438282704721B1828A20
:1020700042F00202828204E0828A4FF6FD731A4027
:102080008282704702460020B1F5007F00D100BF78
:1020900013880B400BB1012000E00020704701F4D1
:1020A0000072B2F5007F00D100BFCA4302807047C2
:1020B00070B50246002400230025002040F66A1671
:1020C000B14200D100BFC1F3421501F01F03012648
:1020D00006FA03F3012D02D19689334006E0022D62
:1020E00002D1168A334001E0968A33400C12012651
:1020F00006FA04F41688344013B10CB1012000E054
:10210000002070BD10B50022002340F66A14A142E1
:1021100000D100BF0A1201249440A3B2DC43048022
:1021200010BD00000038014000440040004800405D
:10213000004C0040005000400648804706480047D9
:10214000FEE7FEE7FEE7FEE7FEE7FEE7FEE7FEE767
:10215000FEE7FEE7C702000831010008704700BF34
:10216000FEE700BFFEE700BFFEE700BFFEE77047E7
:1021700008B52020FEF734FBC8B10D480078401C9C
:102180000B4908700846007802280DDB69460948AB
:10219000006806F0F9F9009818B14FF08050064930
:1021A00008600020024908702020FEF72AFB08BDC5
:1021B000280000204400002004ED00E010B50022BB
:1021C0003221052006F03CF82B490860002232211C
:1021D000012006F035F8294908600322002101207A
:1021E00006F02EF82649086010BD1FB50020254ACC
:1021F0000623CDE90120009303900346802222A10B
:10220000244806F0E2FC0020234A0723CDE9012000
:102210000093039003464FF4807220A1234806F0F8
:10222000D4FC0020224A0B23CDE901200093039027
:1022300003464FF480721FA1224806F0C6FC00201E
:10224000214A0B23CDE901200093039003464FF46C
:1022500080721EA1204806F0B8FC1FBD012080F34B
:10226000108800BF00F096F8FFF7BFFFFFF7A6FF4A
:1022700007F08BF900BFFEE73C0000204000002083
:10228000440000202C0000205461736B204C6564D6
:102290000000000005A00008300000205461736BAE
:1022A00020446973706C61790000000029A0000867
:1022B000340000205461736B204D6F766543747257
:1022C0006C000000A5A00008380000205461736B6A
:1022D000204D70750000000021A2000810B50023F9
:1022E000012244F620610A4800F006FB10BD10B53B
:1022F00001210748FFF707FD40B106480068401C70
:102300000449086001210248FFF70EFD10BD0000DE
:1023100000100040480000201949096841F0807110
:10232000174A11601749096841F00101154A116007
:1023300015490860704770B5044612484568124850
:10234000006810B91148FFF7E7FF0F48006810490F
:1023500090FBF1F000FB04F6AB19AB4205DD00BFCA
:10236000084840689842FBD309E000BF0548406830
:102370009842FBD200BF034840689842FBD370BD2F
:10238000FCED00E0001000E04C00002000A24A0438
:1023900040420F0010B54FF44070FEF715F80E489C
:1023A000FFF7BAFF01F015FB00F0C1FB002141F679
:1023B0001F4001F055FC01F013FD01F071FD01F02B
:1023C000B9FD01F001FE01F0BDFE02F0F6FA02F0E7
:1023D00008FB05F0C8FA10BD00A24A04014600201F
:1023E000FE4A914201D104201CE0FD4A914201D1F4
:1023F000082017E0FB4A914201D1102012E0FA4A6E
:10240000914201D120200DE0F84A914201D14020B3
:1024100008E0F74A914201D1802003E0F54A914259
:1024200000D18815704701460020F34A914201D13E
:10243000C81442E0F14A914201D148143DE0F04A0B
:10244000914202D14FF4002037E0EE4A914202D18E
:102450004FF4801031E0EC4A914202D14FF4001069
:102460002BE0B1F1804F01D1012026E0E74A9142F3
:1024700001D1022021E0E64A914201D104201CE072
:10248000E44A914201D1082017E0E34A914201D188
:10249000102012E0E14A914201D120200DE0E04AF3
:1024A000914201D1402008E0DE4A914201D18020D2
:1024B00003E0DD4A914200D1881570472DE9F843C9
:1024C00006460D46144698463046FFF787FF0746F6
:1024D0000121FEF7BBFCC848844202D0C7488442B1
:1024E00007D12046FFF79FFF07460121FEF7AEFC0C
:1024F00006E02046FFF797FF07460121FEF7B3FCF1
:10250000ADF8005018208DF8030003208DF802006C
:1025100069463046FEF7DEF9BDE8F883F8B50546B2
:102520000C462846FFF75AFF06460121FEF78EFCAF
:10253000ADF8004010208DF8030003208DF8020054
:1025400069462846FEF7C6F9F8BD2DE9FF4F87B06A
:10255000834614461D46DDE9146ABAF1000F0FD117
:1025600000212046FFF706F958460899FFF7D6FFE5
:10257000002258460899FEF75EFA0BB0BDE8F08FCE
:1025800042F2107082450DD100212046FFF7F2F88B
:1025900058460899FFF7C2FF012258460899FEF7EE
:1025A0004AFAEAE72B46224658460899FFF786FF83
:1025B000914884420BD09148844208D0904884428C
:1025C00005D09048844202D08F48844203D1974876
:1025D000D0F8008002E09548D0F80080642E0AD23E
:1025E00042F20F7942F21070B8FBF0F0B0FBF6F057
:1025F000401E87B213E040F6B830864209D24FF051
:1026000063096420B8FBF0F0B0FBF6F0401E87B21F
:1026100005E04FF00009B8FBF6F0401E87B2ADF8B8
:102620001470ADF810900020ADF81600ADF812004F
:102630008DF8180004A92046FEF740FD6846FFF714
:1026400072F86020ADF800000120ADF802000AFB2E
:1026500007F042F21071B0FBF1F080B2ADF8060065
:102660000020ADF80800ADF80400ADF80A00ADF8A0
:102670000C00ADF80E00012D08D169462046FEF78A
:102680005AFD08212046FFF7A5F91FE0022D08D1C9
:1026900069462046FEF791FD08212046FFF7A3F981
:1026A00014E0032D08D169462046FEF7D3FD08212A
:1026B0002046FFF7A5F909E0042D07D16946204619
:1026C000FEF713FE08212046FFF7A3F9012120465B
:1026D000FFF750F901212046FFF74CF846488442A5
:1026E00002D04648844203D101212046FFF74EF82C
:1026F00000BF42E72DE9FF4F87B0834614461D46D1
:10270000DDE9146ABAF1000F0FD100212046FFF76E
:1027100031F858460899FFF701FF002258460899FA
:10272000FEF789F90BB0BDE8F08F42F210708245D8
:102730000DD100212046FFF71DF858460899FFF7F4
:10274000EDFE012258460899FEF775F9EAE72B4697
:10275000224658460899FFF7B1FE274884420BD01D
:102760002648844208D02648844205D02548844221
:1027700002D02548844203D12C48D0F8008002E0E2
:102780002A48D0F80080642E0AD242F20F7942F231
:102790001070B8FBF0F0B0FBF6F0401E87B213E00B
:1027A00040F6B830864209D24FF063096420B8FB86
:1027B000F0F0B0FBF6F0401E87B205E04FF00009E4
:1027C000B8FBF6F0401E87B2ADF81470ADF810906B
:1027D0000020ADF81600ADF8120029E00008014015
:1027E000000C01400010014000140140001801409D
:1027F000001C014000200140002C01400034014039
:10280000004C0140005001400054014000040040D1
:1028100000080040000C0040001000400014004080
:1028200000180040001C0040002000400000002074
:102830008DF8180004A92046FEF740FC6846FEF714
:1028400072FF6020ADF800000020ADF802000AFB26
:1028500007F042F21071B0FBF1F080B2ADF8060063
:102860000020ADF808000420ADF804000020ADF809
:102870000A00ADF80C00ADF80E00012D08D1694634
:102880002046FEF758FC08212046FFF7A3F81FE07A
:10289000022D08D169462046FEF78FFC082120460C
:1028A000FFF7A1F814E0032D08D169462046FEF792
:1028B000D1FC08212046FFF7A3F809E0042D07D139
:1028C00069462046FEF711FD08212046FFF7A1F8D2
:1028D00001212046FFF74EF801212046FEF74AFF6E
:1028E0007D48844202D07D48844203D101212046A4
:1028F000FEF74CFF00BF15E72DE9FF5F04460D46CC
:1029000091469A467448844202D07448844207D162
:102910002046FFF788FD83460121FEF797FA06E07F
:102920002046FFF780FD83460121FEF79CFA002D2B
:1029300041D100212046FEF71DFFAB466648844288
:1029400002D14FF0190B28E0B4F1804F02D14FF0C3
:102950001C0B22E06248844202D14FF01D0B1CE0A8
:102960006048844202D14FF01E0B16E05E4884425C
:1029700002D14FF0320B10E05C48844202D14FF09C
:10298000360B0AE05A48844202D14FF0370B04E07C
:102990005248844201D14FF02C0B8DF800B08DF8D5
:1029A00001908DF802A000208DF803006846FDF725
:1029B00010FDBDE8FF9F484884420BD04748844241
:1029C00008D04C48844205D04B48844202D04B4842
:1029D000844202D14A48066801E049480668642DED
:1029E0000AD242F20F7842F21070B6FBF0F0B0FB60
:1029F000F5F0401E87B213E040F6B830854209D2A8
:102A00004FF063086420B6FBF0F0B0FBF5F0401E19
:102A100087B205E04FF00008B6FBF5F0401E87B224
:102A2000ADF80870ADF804800020ADF80A00ADF8EC
:102A300006008DF80C0001A92046FEF73FFB01219E
:102A40002046FEF797FF012211462046FEF7ADFE15
:102A500001212046FEF78EFE4FF0000B1E488442F7
:102A600002D14FF0190B28E0B4F1804F02D14FF0A2
:102A70001C0B22E01A48844202D14FF01D0B1CE0CF
:102A80001848844202D14FF01E0B16E016488442CB
:102A900002D14FF0320B10E01448844202D14FF0C3
:102AA000360B0AE01248844202D14FF0370B04E0A3
:102AB0000A48844201D14FF02C0B8DF800B08DF8FC
:102AC00001908DF802A001208DF803006846FDF703
:102AD00080FC00BF6DE70000002C01400034014085
:102AE0000004004000080040000C004000100040BE
:102AF00000140040004C01400050014000540140CF
:102B00000000002038B504460121E068FEF79EF978
:102B1000A08A80B2ADF8000010208DF803000320D9
:102B20008DF8020069462069FDF7D4FE38BD10B566
:102B30001B48FFF7E7FF1B48FFF7E4FF1A48FFF7C2
:102B4000E1FF174A928A91B2154A1069FDF76FFFAB
:102B5000144A928A91B2134A1069FDF768FF124A2B
:102B6000928A91B2104A1069FDF761FF10BD19B940
:102B7000D0E90423136112E0002903DAD0E9042329
:102B800053610CE08268521C82608A4207DB026952
:102B9000D26843695A400369DA6000228260704754
:102BA000B8000020D0000020E800002038B504461E
:102BB0000E208DF8000006208DF8010000208DF811
:102BC000020001208DF803006846FDF702FC252075
:102BD0008DF800008DF8014000208DF802000120E2
:102BE0008DF803006846FDF7F4FB38BD00B58BB0E7
:102BF00001210846FEF71DF90021CB48FDF71FFD16
:102C0000C948FDF74FFCC9480090C9480190102001
:102C10000290322003900020049080200590002034
:102C20000690079008904FF44050099000200A90B9
:102C30006946BD48FDF7D8FC4FF48050FDF72EFDE6
:102C40000021B948FDF7FBFC01220221B648FDF73F
:102C500002FD0021B4481430FDF7F1FCB2481430F5
:102C6000FDF720FCB1480090B2480190002002908E
:102C700032200390002004908020059000200690D0
:102C8000079008904FF44050099000200A90694640
:102C9000A5481430FDF7A8FC4FF48030FDF7FEFC8A
:102CA0000121A1481430FDF7CAFC0BB000BD10B5DE
:102CB00086B0044601210420FEF7C8F801218803EC
:102CC000FEF7C4F84FF40070ADF8140018208DF82A
:102CD000170003208DF8160005A99748FDF7FAFDA7
:102CE0004FF48060ADF8140004208DF8170005A99A
:102CF0009148FDF7EFFD2046FFF758FFFFF776FFFD
:102D00004FF4E13001900020ADF80800ADF80A0062
:102D1000ADF80C00ADF810000C20ADF80E0001A9C4
:102D20008248001FFFF747F8012240F224417F4804
:102D3000001FFFF7D8F801217C48001FFFF7C7F8F4
:102D4000012280217948001FFFF7F2F8012240217B
:102D50007648001FFFF7ECF806B010BD10B504462A
:102D600001207649087070484438846401216E4817
:102D7000FDF765FC10BD10B54FF48050FDF799FCD0
:102D800050B100206D4908704FF48050FDF786FC6B
:102D900000216548FDF753FC10BD08B500200090E8
:102DA00040F224416148001FFFF782F9B8B340F2B6
:102DB00024415E48001FFFF7A5F95C48001FFFF79C
:102DC000F7F810215948001FFFF769F9002156480C
:102DD0001430FDF734FC4FF48030FDF75FFC5248AF
:102DE0001430FDF743FCC0F1320055490870322021
:102DF0004D494439C86500236A464E495148006828
:102E000005F06CFB4B484849443948660121464867
:102E10001430FDF714FC4548001FFFF7C9F800986F
:102E200018B14FF080504849086008BD70B505469C
:102E30000C46002C03DA284607F02DFC04B200BF34
:102E40003E4800780028FBD1394921444870224689
:102E50002946374807F0FBFBA0B2FFF77FFF70BDA4
:102E600070B504460D4629462046FFF79DF800BF81
:102E700080212046FFF706F90028F9D070BD70B513
:102E800006460C46002500BF615D3046FFF7E8FFAF
:102E90006D1C605D0028F7D100BF40213046FFF770
:102EA000F1F80028F9D070BD2DE9F04105460C4637
:102EB000260AE7B231462846FFF776F800BF8021A0
:102EC0002846FFF7DFF80028F9D039462846FFF7F3
:102ED0006BF800BF80212846FFF7D4F80028F9D00E
:102EE000BDE8F08170B504460D46E1B20F48001F01
:102EF000FFF75AF800BF80210C48001FFFF7C2F807
:102F00000028F8D0204670BD10B5044600BF20212F
:102F10000648001FFFF7B6F80028F8D00348001F46
:102F2000FFF746F810BD000044000240043801409D
:102F30001002002042020020000801401801002079
:102F4000190100204000002004ED00E070B50446A7
:102F50000E4626B10121FB48FDF769FD03E0012182
:102F6000F848FDF766FD00251BE04FF40051F548D9
:102F7000FDF75FFD04F0800028B14FF48041F14877
:102F8000FDF755FD04E04FF48041EE48FDF751FD9B
:102F90004FF40051EB48FDF74AFD6006040E681C33
:102FA000C5B2082DE1DB0121E648FDF740FD70BD0B
:102FB00070B504460D4605F1B001C8B20021FFF717
:102FC000C5FFA11CC1F3031141F010000021FFF760
:102FD000BDFFA11C01F00F000021FFF7B7FF70BD7E
:102FE000F0B5144600267F2801DC3F2900DDF0BD46
:102FF0000B46CF1701EB5777FF10C7F10707FAB25F
:10300000CF1701EB5777FF10A1EBC707FDB2C5F152
:1030100007070123BB40DEB24CB1CB4B03EBC0032F
:103020009B5C3343C84F07EBC007BB5408E0C64B5B
:1030300003EBC0039B5CB343C34F07EBC007BB5418
:1030400000BFD4E770B502460025C1F13F00C1B210
:103050000846CE1701EB5676F310CE1701EB5676E5
:10306000F610A1EBC606F4B20120A040C5B2B648E6
:1030700000EBC200C05C284008B1012070BD0020F8
:10308000FCE710B500218D20FFF760FF0021142020
:10309000FFF75CFF0021AF20FFF758FF10BD10B510
:1030A00000218D20FFF752FF00211020FFF74EFF77
:1030B0000021AE20FFF74AFF10BD70B500241CE0D0
:1030C00004F1B001C8B20021FFF740FF0021022047
:1030D000FFF73CFF00211020FFF738FF002508E034
:1030E000994901EBC501085D0121FFF72FFF681C1D
:1030F000C5B2802DF4DB601CC4B2082CE0DB70BDCF
:1031000070B500240CE0002506E000208E4901EB9C
:10311000C5010855681CC5B2802DF6DB601CC4B221
:10312000082CF0DBFFF7C9FF70BD70B500240CE080
:10313000002506E0FF20844901EBC5010855681C05
:10314000C5B2802DF6DB601CC4B2082CF0DBFFF7A3
:10315000B4FF70BD2DE9F04706460F4690469946EC
:10316000DDF820A034460CE03D4606E052462946F4
:103170002046FFF735FF681CC5B24D45F6DD601CE3
:10318000C4B24445F0DDBDE8F0872DE9FF4F82B0C1
:1031900007460C46904600250026A9460097A34600
:1031A0000598012802D0022852D152E0B8F1000F50
:1031B0004ED0A8F12000C5B264480078012804D19F
:1031C000002D02DB6149087002E000205F490870B1
:1031D0007E2F02DD0027601CC4B2002636E005EB1E
:1031E00045005B4901EB400010F806A04FF00009D4
:1031F00026E00AF0800058B15448007808B9012050
:1032000000E00020024621463846FFF7E9FE05E0CF
:103210004E48027821463846FFF7E2FE4FEA4A6000
:103220004FEA106A601CC4B2A4EB0B00082803D15B
:103230005C46781CC7B206E009F1010000F0FF0906
:10324000B9F1080FD5DB00BF701CC6B2062EC6DB75
:1032500073E0B8F1000F6FD0A8F12000C5B23B4871
:103260000078012804D1002D02DB3849087002E003
:10327000002036490870782F02DD0027601CC4B298
:10328000002657E006EB0510324911F800A006EBC6
:1032900005100830085C01904FF0000944E00AF086
:1032A000800058B12948007808B9012000E00020CA
:1032B000024621463846FFF793FE05E02348027890
:1032C00021463846FFF78CFE019800F0800068B177
:1032D0001E48007808B9012000E00020024604F1F1
:1032E0000800C1B23846FFF77BFE07E004F1080092
:1032F000C1B2164802783846FFF772FE4FEA4A60BC
:103300004FEA106A01984006000E0190601CC4B29A
:10331000A4EB0B00082803D15C46781CC7B206E07A
:1033200009F1010000F0FF09B9F1080FB7DB00BF98
:10333000701CC6B2082EA5DB00BF00BF06B0BDE8FA
:10334000F08F000000100140740200201B010020DB
:103350005CB9000884BB00082DE9F04107460E4621
:103360009046002500244546FE480078012804D1F7
:10337000002D02DBFB49087002E00020F9490870CB
:10338000782F02DD0027701CC6B231463846FFF7A1
:103390000FFE002408E004EB8511F34A505C012184
:1033A000FFF7D4FD601CC4B2082CF4DB07F1080160
:1033B000C8B23146FFF7FCFD002409E004EB85119B
:1033C0000831E94A505C0121FFF7C0FD601CC4B21E
:1033D000082CF3DB701CC1B23846FFF7E9FD00246E
:1033E00009E004EB85111031DF4A505C0121FFF741
:1033F000ADFD601CC4B2082CF3DB721CD1B207F126
:103400000802D0B2FFF7D4FD002409E004EB8511D7
:103410001831D54A505C0121FFF798FD601CC4B2F9
:10342000082CF3DBB01CC1B23846FFF7C1FD002405
:1034300009E004EB85112031CB4A505C0121FFF7F4
:1034400085FD601CC4B2082CF3DBB21CD1B207F1BD
:103450000802D0B2FFF7ACFD002409E004EB8511AF
:103460002831C14A505C0121FFF770FD601CC4B2D5
:10347000082CF3DBF01CC1B23846FFF799FD00249D
:1034800009E004EB85113031B74A505C0121FFF7A8
:103490005DFD601CC4B2082CF3DBF21CD1B207F155
:1034A0000802D0B2FFF784FD002409E004EB851187
:1034B0003831AD4A505C0121FFF748FD601CC4B2B1
:1034C000082CF3DBBDE8F08110B50246012000E0D6
:1034D00050430B00A1F10104E1B2F9D110BD2DE977
:1034E000FF4F87B0064692461F46DDE91494D34647
:1034F000002004900021504607F036FB16D22346E8
:103500002D2230460899FFF740FE012C05D104EB2F
:10351000440006EB4000C6B202E006EB8400C6B2EF
:10352000781EC7B28AF0004A8BF0004B504607F075
:10353000BEFA069000254DE0781B401EC1B20A205D
:10354000FFF7C2FF0699B1FBF0F00A21B0FBF1F2E0
:1035500001FB12080498F8B9781EA8421CDDB8F1E6
:10356000000F17D1012C0BD104EB4401490001FBE2
:103570000561C8B2234620220899FFF706FE08E03D
:10358000A10001FB0561C8B2234620220899FFF77C
:10359000FCFD1DE001200490012C0DD108F130014B
:1035A000CAB204EB4401490001FB0561C8B22346DD
:1035B0000899FFF7EAFD0AE008F13001CAB2A1005C
:1035C00001FB0561C8B223460899FFF7DEFD00BF85
:1035D000681CC5B2BD42AFDBB9F1000F71D0012C40
:1035E0000BD104EB4401490007FB0161C8B223463B
:1035F0002E220899FFF7C9FD08E0A10007FB016131
:10360000C8B223462E220899FFF7BFFD584607F09F
:103610007BFA564A564BCDE9000107F021F9CDE976
:10362000020107F084FA834649460A20FFF74CFF5F
:10363000009007F037FA0290069807F033FA5946DF
:10364000009007F09AF80190029907F099F803901A
:1036500007F02DFA0590002551E0A9EB0500401E6A
:10366000C1B20A20FFF730FF0599B1FBF0F00A2143
:10367000B0FBF1F201FB12084D453EDAB8F1000F44
:1036800020D0012C0FD104EB44014B00E919491C57
:1036900003FB0161C8B208F13001CAB223460899A0
:1036A000FFF773FD29E0A300E919491C03FB016141
:1036B000C8B208F13001CAB223460899FFF765FD88
:1036C0001BE01EE0012C0DD104EB44014A00E91976
:1036D000491C02FB0161C8B2234630220899FFF75A
:1036E00054FD0AE0A200E919491C02FB0161C8B2BD
:1036F000234630220899FFF748FD681CC5B24D45A6
:10370000ABDB0BB0BDE8F08F2DE9F04706468946EC
:1037100017461D464FF0000A002F0ADA0B224946D1
:103720003046FFF719FE06F11000C6B2681EC5B29A
:103730007F42002435E0281B401EC1B20A20FFF75B
:10374000C3FEB7FBF0F00A21B0FBF1F201FB120857
:10375000BAF1000F19D1681EA04216DDB8F1000FB2
:1037600011D107E01B01002074C10008F168E38853
:10377000B5F8E43E102101FB0461C8B20D224946B0
:10378000FFF7EAFD0BE04FF0010A08F0FF021021FD
:1037900001FB0461C8B24946FFF7DEFD00BF601CB3
:1037A000C4B2AC42C7DBBDE8F0872DE9F041044666
:1037B0000F4615469846002615E0AA5D4346394651
:1037C0002046FFF7E2FCB8F1020F03D104F1080034
:1037D000C4B201E0A01DC4B2782C02DD0024B81CE4
:1037E000C7B2701CC6B2A85D0028E6D1BDE8F08162
:1037F0002DE9F04F07460C4616460025A846A3467D
:1038000000BF57E07000401CE34901EB401010F886
:10381000059001EB861010F805A04FF0000843E07A
:1038200009F0800058B1DD48007808B9012000E0B7
:103830000020024621463846FFF7D2FB05E0D74874
:10384000027821463846FFF7CBFB0AF0800068B1CA
:10385000D248007808B9012000E00020024604F1B7
:103860000800C1B23846FFF7BBFB07E004F10800CF
:10387000C1B2CA4802783846FFF7B2FB4FEA496046
:103880004FEA10694FEA4A604FEA106A601CC4B2FE
:10389000A4EB0B00082803D15C46781CC7B206E0F5
:1038A00008F1010000F0FF08B8F1080FB8DB00BF15
:1038B000681CC5B2102DA5DBBDE8F08F2DE9FF4FC8
:1038C00085B081460E461F46129C0396029709EB6F
:1038D0000700802803DDC7F18000C0B202902546B2
:1038E0003019402802DDC4F14000C5B22046E2177D
:1038F00004EB5272D2102146E31704EB5373DB1032
:10390000A4EBC3030BB1012300E000231A44D2B29D
:1039100001922846EA1705EB5272D2102946EB179E
:1039200005EB5373DB10A5EBC3030BB1012300E0E0
:1039300000231A44D2B200924FF0000843E04FF047
:10394000000A39E0019808FB00A1079810F801B0BF
:103950000020049028E00BF0800058B18F480078D8
:1039600008B9012000E00020024631464846FFF732
:1039700037FB05E08948027831464846FFF730FBBF
:103980004FEA4B604FEA106B701CC6B20398301AB6
:10399000A84205D1039E09F1010000F0FF0906E0ED
:1039A0000498401CC0B2049004980828D3DB00BFE0
:1039B0000AF1010000F0FF0A00988245C2DB08F11D
:1039C000010000F0FF0802988045B8DB09B0BDE8AF
:1039D000F08F1FB501211020FDF738FA0120ADF856
:1039E000080010208DF80B0003208DF80A0002A9B2
:1039F0006B48FCF76FFF01211020FDF727FA4FF409
:103A00000040ADF8040010208DF8070003208DF869
:103A1000060001A96248FCF75DFF01211020FDF7B7
:103A200015FA4FF40050ADF80C0010208DF80F007F
:103A300003208DF80E0003A95948FCF74BFF012124
:103A40001020FDF703FA4FF48040ADF8000010207D
:103A50008DF8030003208DF8020069465048FCF7FA
:103A600039FF4FF400514E48FCF7E1FF4FF480411D
:103A70004B48FCF7DCFF01214948FCF7D8FF4FF425
:103A800000414748FCF7D3FF4FF400414448FCF79E
:103A9000D0FF4448FEF74FFC4FF400414048FCF78C
:103AA000C6FF0021AE20FFF751FA00210220FFF7E8
:103AB0004DFA00211020FFF749FA00214020FFF7BE
:103AC00045FA00218120FFF741FA0021CF20FFF7BE
:103AD0003DFA0021A120FFF739FA0021C820FFF7A5
:103AE00035FA0021A620FFF731FA0021A820FFF7C0
:103AF0002DFA00213F20FFF729FA0021D320FFF7FC
:103B000025FA00210846FFF721FA0021D520FFF70A
:103B10001DFA00218020FFF719FA0021D920FFF7B4
:103B200015FA0021F120FFF711FA0021DA20FFF742
:103B30000DFA00211220FFF709FA0021DB20FFF720
:103B400005FA00214020FFF701FA00212020FFF7AD
:103B5000FDF900210220FFF7F9F900218D20FFF780
:103B6000F5F900211420FFF7F1F90021A420FFF757
:103B7000EDF90021A620FFF7E9F90021AF20FFF7BA
:103B8000E5F90021AF20FFF7E1F9FFF7B9FA0021CD
:103B90000846FFF70DFA1FBDF4C400081B01002002
:103BA00000100140A086010008B501210820FDF7A2
:103BB0004DF94FF48050ADF8000003208DF802005D
:103BC00010208DF8030069468148FCF783FE01212F
:103BD0000820FDF73BF94FF40050ADF8000003203A
:103BE0008DF8020010208DF8030069467848FCF734
:103BF00071FE01210820FDF729F94FF48040ADF84E
:103C0000000003208DF8020010208DF803006946A3
:103C10006F48FCF75FFE01210820FDF717F94FF40C
:103C20000040ADF8000003208DF8020010208DF850
:103C3000030069466648FCF74DFE01211020FDF7A0
:103C400005F94FF47070ADF8000018208DF80300EE
:103C500003208DF8020069465E48FCF73BFE08BD74
:103C600030B587B005460C46FFF79EFF012148039B
:103C7000FDF7ECF8ADF81450ADF810400020ADF8A9
:103C80001600ADF8120004A95348FDF717FA60209A
:103C9000ADF800000120ADF802000020ADF80600EC
:103CA000ADF8080069464C48FDF787FA69464A486E
:103CB000FDF7D0FA69464848FDF717FB464818302B
:103CC000008840F0600044491831088042482030A4
:103CD000008840F0010040492031088008213E481A
:103CE000FDF778FE08213C48FDF77DFE08213A48A3
:103CF000FDF786FE08213848FDF78BFE0121364886
:103D0000FDF738FE01213448FDF740FD012132481E
:103D1000FDF730FD07B030BD0146002901DA484209
:103D200000E00846704700B503460A4633B1012B50
:103D300014D0022B24D0032B46D133E0002A03DA1F
:103D400000202649086002E001202449086010464E
:103D5000FFF7E2FF20493431088036E0002A04DA18
:103D600000201E49091D086003E001201B49091DB0
:103D700008601046FFF7D0FF17493831088024E06B
:103D8000002A04DA002015490C31086003E0012004
:103D900012490C3108601046FFF7BEFF0E493C3156
:103DA000088012E0002A04DA00200C49083108607B
:103DB00003E001200949083108601046FFF7ACFF15
:103DC00005494031088000E000BF00BF00BD000091
:103DD000000C01400010014000340140B08121423C
:103DE00000B587B001210846FDF73DF801210D20FF
:103DF000FDF72CF80121BD48FCF73DFE0121BC4830
:103E0000FCF739FE4FF40040ADF8000004208DF8B7
:103E100003006946B748FCF75DFD0820ADF80000D7
:103E200004208DF803006946B348FCF753FD04A84D
:103E3000FDF770FC0020ADF810004FF6FF70ADF8F4
:103E400014000020ADF81600ADF8120004A94FF0E0
:103E50008040FDF733F900231A4603214FF08040DC
:103E6000FDF73BFD01A8FDF768FC0A20ADF80C004A
:103E700001A94007FDF7B5FB01218807FDF740FFC9
:103E8000012211469007FDF790FC00214FF0804081
:103E9000FDF704FF01218807FDF76CFC07B000BDAA
:103EA00000B587B001210220FCF7DDFF01210420CD
:103EB000FCF7CCFFC020ADF8000004208DF8030013
:103EC00069468C48FCF706FD04A8FDF723FC00209A
:103ED000ADF810004FF6FF70ADF814000020ADF8FB
:103EE0001600ADF8120004A98448FDF7E7F8002396
:103EF0001A4603218148FDF7F0FC01A8FDF71DFCDF
:103F00000A20ADF80C0001A97C48FDF76AFB0121ED
:103F10007A48FDF7F5FE012211467848FDF745FC89
:103F200000217648FDF7BAFE01217448FDF722FC16
:103F300007B000BD00B587B001210420FCF793FF56
:103F400001210820FCF782FFC020ADF8000004200A
:103F50008DF8030069466748FCF7BCFC04A8FDF730
:103F6000D9FB0020ADF810004FF6FF70ADF814003B
:103F70000020ADF81600ADF8120004A96048FDF766
:103F80009DF800231A4603215D48FDF7A6FC01A811
:103F9000FDF7D3FB0A20ADF80C0001A95848FDF746
:103FA00020FB01215648FDF7ABFE01221146544883
:103FB000FDF7FBFB00215248FDF770FE0121504840
:103FC000FDF7D8FB07B000BD00B587B00121082080
:103FD000FCF749FF01210420FCF738FF0320ADF86E
:103FE000000004208DF8030069464248FCF772FC8B
:103FF00004A8FDF78FFB0020ADF810004FF6FF700E
:10400000ADF814000020ADF81600ADF8120004A9B8
:104010003C48FDF753F800231A4603213948FDF7C1
:104020005CFC01A8FDF789FB0A20ADF80C0001A992
:104030003448FDF7D6FA01213248FDF761FE01222E
:1040400011463048FDF7B1FB00212E48FDF726FE52
:1040500001212C48FDF78EFB07B000BD0146012968
:1040600006D002290DD0032914D0042924D11AE046
:104070004FF08042928C10B200224FF080439A841D
:104080001CE01E4A2432128810B200221B4B24333B
:104090001A8013E01A4A2432128810B20022184BF8
:1040A00024331A800AE0174A2432128810B2002200
:1040B000144B24331A8001E0002000BF00BF70477A
:1040C00010B501210D48FDF71EFE01210B48FDF73B
:1040D0002BFE10BD4FF08040008A4FF08040008AD8
:1040E00020F001004FF08041088270470001180065
:1040F0000002300000080140000C014000040040B4
:1041000000080040000C004010B5FD48006820F099
:10411000F000FB4908600846006840F03000086085
:104120000020F8490860F849C1F8A4010120FEF711
:1041300002F90120F3490860F349C1F8A401FEF730
:10414000FAF810BD08B501210820FCF77FFE4FF4F6
:104150004070ADF8000003208DF8020014208DF8A7
:1041600003006946E648001FFCF7B4FB4FF40070FB
:10417000ADF8000003208DF8020014208DF8030034
:104180006946DF48001FFCF7A5FBFFF7BDFF08BD30
:1041900010B5DB48006820F0F000D94908600846F7
:1041A000006840F0300008600120D649091D086011
:1041B000D548D0F8240108B9002010BD0120D1490C
:1041C0000860FEF7B8F80020CF49C1F8A401CD4837
:1041D0007C38006808B10020EFE70120FEF7ABF85B
:1041E0000020C84908600120E7E710B50024C44852
:1041F000006820F0F000C24908600846006840F0FE
:10420000800008600120BF49091D0860FEF793F88F
:104210000120BD49C1F8A001FEF78DF80AE0601C3D
:10422000C4B2322C03DDFFF76FFF002010BD012068
:10423000FEF781F8B3487C3800680028EFD1B14917
:1042400008600120F2E710B50020AE490860AC48D4
:10425000006820F0F000AA4908600846006840F0B5
:10426000300008600020A849C1F8A4010120FEF731
:1042700062F80120A3490860FEF75DF80020A2491A
:10428000C1F8A00110BD10B500209E4908609C48EF
:10429000006820F0F0009A4908600846006840F085
:1042A0003000086001209849C1F8A401FEF743F8E6
:1042B000012094490860FEF73EF800209249C1F8B9
:1042C000A00110BD70B504468D48006820F0F000D4
:1042D0008B4908600846006840F030000860002004
:1042E00088490860002516E0E0098649091D086034
:1042F0006006040E0120FEF71EF801208249C1F875
:10430000A001FEF718F800207E4908600120FEF7A2
:1043100012F8681CC5B2082DE6DB70BD2DE9F0412E
:1043200005460E4617469846FFF732FF10B90120A2
:10433000BDE8F0816906080EFFF7C4FFFFF755FFDF
:1043400018B9FFF7E1FE0120F2E73046FFF7BAFFA8
:10435000FFF74BFF00240BE018F80400FFF7B2FF53
:10436000FFF743FF18B9FFF7CFFE0020E0E7641C1A
:10437000BC42F1DBFFF7C8FE0020D9E770B5054667
:1043800000245F48006820F0F0005D49086008469E
:10439000006840F080000860002616E000205949BF
:1043A00008600220FDF7C7FF01205749C1F8A001AE
:1043B0006006040E53487C38006808B1601CC4B223
:1043C0000220FDF7B8FF701CC6B2082EE6DB15B15F
:1043D000FFF739FF01E0FFF756FF204670BD2DE9DA
:1043E000F04106460F4614461D46FFF7D1FE10B9B0
:1043F0000120BDE8F0817106080EFFF763FFFFF7AB
:10440000F4FE18B9FFF780FE0120F2E73846FFF707
:1044100059FFFFF7EAFEFFF7BBFE012101EB460162
:10442000C8B2FFF74FFFFFF7E0FE0DE0012C04D10B
:104430000020FFF7A3FF287003E00120FFF79EFF95
:1044400028706D1C601EC4B2002CEFD1FFF75CFE1B
:104450000020CEE770B505460E460024FFF798FE13
:104460002846FFF72FFF641CFFF7BFFE3046FFF71B
:1044700029FF641CFFF7B9FEFFF78AFE691CC8B26A
:10448000FFF720FF641CFFF7B0FE0020FFF776FF68
:104490000446FFF739FE204670BD2DE9F04107467E
:1044A000884615461E460024FFF772FE3846FFF781
:1044B00009FFFFF79AFE4046FFF704FFFFF795FE5E
:1044C000FFF766FE791CC8B2FFF7FCFEFFF78DFE12
:1044D00000BF0DE0681EA04204D00120FFF74EFF90
:1044E000305503E00020FFF749FF3055601CC4B28F
:1044F000AC42EFDBFFF708FE2046BDE8F08100008C
:10450000040C0140A0812142008021422DE9F041AC
:1045100080460D4616461F460024FFF739FE4046EA
:10452000FFF7D0FEFFF761FE2846FFF7CBFEFFF74F
:104530005CFE00BF06E0385DFFF7C4FEFFF755FEE6
:10454000601CC4B2B442F6DBFFF7DEFD0120BDE81B
:10455000F08170B505460E46144631462846FFF7F1
:1045600079FF2070012070BD37B504460D4602ABBF
:10457000012229462046FFF7C9FF3EBD2DE9F84339
:104580000746884614461D46089E6A4641463846F8
:10459000FFF7DFFF28B3601CFF2101FA00F0C4F130
:1045A00008012944491EFF220A41104300F0FF0977
:1045B000C5F1080006FA00F0C6B2C4F107000641D2
:1045C0009DF8000000EA090000909DF800003043CB
:1045D00000909DF8002041463846FFF7C5FFBDE832
:1045E000F8830020FBE7F8B506460F4614461D4643
:1045F0006A4639463046FFF7ACFF2DB10120A04096
:104600009DF80010084305E00120A0409DF800102F
:1046100021EA0000C0B200909DF8002039463046E3
:10462000FFF7A2FFF8BD0000014691F90020002A23
:1046300001DD00201EE091F90020002A01DA0420AB
:1046400018E091F90120002A01DD012012E091F922
:104650000120002A01DA05200CE091F90220002A4D
:1046600001DD022006E091F90220002A01DA06208D
:1046700000E00720704770B505462846FFF7D4FFD5
:104680000446E81CFFF7D0FF44EAC00084B2A81D2E
:10469000FFF7CAFF44EA801084B2204670BD70B5AF
:1046A00088B002A905A802F019F80446072C3FD1EA
:1046B00001A801F082FA059806F0EBF90646019987
:1046C00006F05EF8054606F0F2F90590069806F049
:1046D000E0F90646019906F053F8054606F0E7F9B9
:1046E0000690079806F0D5F90646019906F048F8B5
:1046F000054606F0DCF9079005A802F002FB6846C3
:1047000001F078FABDF80010029848430290BDF815
:104710000010039848430390BDF8001004984843E4
:10472000049002A802F080FBFEA006F051FC00BF3E
:1047300008B070BD2DE9F04304460D46DDE907677A
:104740000021012041E0DFF800C43CF81080A0F116
:10475000010CDFF8F49329F81C8009F1160C3CF8E1
:104760001090A0F1010CDFF8E08308F1160828F89A
:104770001C9008F1160C3CF81090A0F1010C08F107
:10478000160828F81C9008F1160C3CF81090A0F1BF
:10479000010C08F1160828F81C9008F1160C3CF8DA
:1047A0001090A0F1010C08F1160828F81C9008F1EF
:1047B000160C3CF81090A0F1010C08F1160828F82E
:1047C0001C9000F1010C0CF0FF000A28BBDBDFF8A5
:1047D00078C3ACF81240ACF82850ACF83E20ACF8E6
:1047E0005430ACF86A60ACF880700021002008E01A
:1047F000DFF854C33CF910C0614400F1010C0CF027
:10480000FF000A28F4DB4FF00A0C91FBFCFC0FFAC6
:104810008CFCDFF83483A8F814C0002100200AE0E3
:10482000DFF824C30CF1160C3CF910C0614400F110
:10483000010C0CF0FF000A28F2DB4FF00A0C91FB90
:10484000FCFC0FFA8CF8DFF800C3ACF82A800021DA
:1048500000200AE0DFF8F0C20CF12C0C3CF910C08B
:10486000614400F1010C0CF0FF000A28F2DB4FF06C
:104870000A0C91FBFCFC0FFA8CF8DFF8CCC2ACF808
:104880004080002100200AE0DFF8BCC20CF1420C9D
:104890003CF910C0614400F1010C0CF0FF000A2843
:1048A000F2DB4FF00A0C91FBFCFC0FFA8CF8DFF8FE
:1048B00098C2ACF85680002100200AE0DFF888C2D8
:1048C0000CF1580C3CF910C0614400F1010C0CF0E3
:1048D000FF000A28F2DB4FF00A0C91FBFCFC0FFAF8
:1048E0008CF8DFF864C2ACF86C80002100200AE08C
:1048F000DFF854C20CF16E0C3CF910C0614400F1B9
:10490000010C0CF0FF000A28F2DB4FF00A0C91FBBF
:10491000FCFC0FFA8CF8DFF830C2ACF88280BDE8FE
:10492000F08338B50446032302226B21D020009483
:10493000FFF724FE38BD38B50446022304221B21AC
:10494000D0200094FFF71AFE38BD38B50446022384
:1049500004221C21D0200094FFF710FE38BD10B5B2
:104960000446234606226B21D020FFF73CFE10BDF3
:1049700010B5764B01227521D020FFF78EFD7348CC
:10498000007810BD10B5FFF7F3FF682801D10120B2
:1049900010BD0020FCE710B50446234605226A211D
:1049A000D020FFF720FE10BD10B50446234601229B
:1049B0003721D020FFF717FE10BD10B50220FFF7FA
:1049C000B0FF0320FFF7B7FF0020FFF7BEFF002076
:1049D000FFF7C5FF0020FFF7DEFF0020FFF7E4FF31
:1049E00010BD38B5002000906B460122752168206B
:1049F000FFF7F5FC9DF8000068280ED000BF544872
:104A0000006800F4E06053490843001D5049086005
:104A1000BFF3408F00BF00BFFEE700F00AFEE0B921
:104A2000782000F06CFA782000F052FCC82000F0EA
:104A300030FD02F0CBF84848FFF71DFE044602F0B7
:104A4000CFF840F2731002F00CFDC82002F082FA99
:104A5000FFF725FE012001F0FCFD38BD2DE9F04FE8
:104A60008FB00CA83D490DAB08AACDE900103C4918
:104A70003C4802F055FE3948008800F48070002858
:104A80004FD0089806F005F804464FF09D4105F018
:104A9000A9FE35490860099805F0FBFF04464FF070
:104AA0009D4105F09FFE314908600A9805F0F1FF2D
:104AB00004464FF09D4105F095FE2D4908600B9886
:104AC00005F0E7FF04464FF09D4105F08BFE2949B4
:104AD0000860254801684FF0804005F051FE0690BF
:104AE00023480168069805F04BFE82461F4801687E
:104AF0004FF0404005F044FE06901E4801680698BD
:104B000005F03EFE8346514605F0E2FD079005F0B4
:104B1000FBFF804606F0F4FB06464FF06632164B6C
:104B20002CE0DCE073657474696E67206269617300
:104B30002073756363657366756C6C79202E2E2EF9
:104B40002E2E2E0D0A000000820600207406002082
:104B50000CED00E00000FA054801002028010020CB
:104B6000220100201C010020380100203C0100200F
:104B7000400100204401002066A64C4005F017FFCC
:104B8000044605F0D4FF73490860734801684FF08C
:104B9000804005F0F5FD03906F480168039805F02B
:104BA000EFFD82466D4801684FF0404005F0E8FD9A
:104BB00003906A480168039805F0E2FD8346514678
:104BC00005F0D8FD81464FF07E5105F081FD044689
:104BD00005F09AFFCDE90401614801684FF080407B
:104BE00005F0CEFD83465D480168584605F0C8FDD6
:104BF0008146594801684FF0804005F0C1FD834669
:104C000058480168584605F0BBFD8246494605F004
:104C10005FFD044605F078FF0746DDE9042306F052
:104C2000B7FD4FF06632504BCDE9060105F0BFFEEF
:104C3000054605F07CFF4D4908604A480168006858
:104C400005F09EFD039044480168006805F098FD5A
:104C5000029042480168006805F092FD8346404892
:104C60000168006805F08CFD5946019005F030FDA3
:104C70008246029905F07EFD8146039905F07AFD92
:104C8000044605F041FFCDE9040136480168344887
:104C9000006805F075FD82462F4801682F480068BE
:104CA00005F06EFD8346514605F012FD81464FF03A
:104CB000804105F065FD044605F026FF0746DDE965
:104CC000042306F065FD4FF06632274BCDE906015F
:104CD00005F06DFE054605F02AFF254908600FB076
:104CE000BDE8F08F2DE9F05F4221D020FFF7B2FB45
:104CF00005464121D020FFF7ADFB05EB00242046FF
:104D000005F0C7FE82464FF08E41504605F036FF53
:104D100005D24FF08F41504605F02CFD82461549D3
:104D2000504605F05FFD834605F0EEFE8046124AD0
:104D3000124B05F095FD06460022114B05F037FE9B
:104D4000044605F0F4FE8246504605F0B0FEBDE88C
:104D5000F09F00002C010020400100203C010020B9
:104D6000380100204401002066A64C40300100209C
:104D7000340100200000AA43A4703D0AD7434240FA
:104D80000000244038B50446FC4890F82400C0B127
:104D900014B10220009001E000200090F74A126850
:104DA000D17BF64A526810786B460122FFF7B6FABB
:104DB00010B14FF0FF3038BD9DF80010EF4841743E
:104DC00023E0EE48807A10B94FF0FF30F3E724B1CA
:104DD000EA48407C08B10020EDE714B101200090C2
:104DE00001E000200090E54A1268D17BE34A526856
:104DF00010786B460122FFF791FA10B14FF0FF30A7
:104E0000D9E79DF80010DD4841740020D3E738B59C
:104E1000002419E0D9480068C07AA04204D0D748DD
:104E20000068407DA04200D10CE0D4494968087870
:104E30006B4601222146FFF7D2FA10B14FF0FF3046
:104E400038BD00BF601CC4B2CC4840680079A042A5
:104E5000E0DC0020F4E770B504460D46C748006862
:104E6000C07AA04204D0C5480068407DA04202D16B
:104E70004FF0FF3070BDC14840680079A04202DCAD
:104E80004FF0FF30F6E7BD49496808782B4601220C
:104E90002146FFF7A4FAEDE738B50446B74890F885
:104EA0002300A04201D1002038BD14B13020009071
:104EB00001E000200090B148807C20B19DF8000006
:104EC00040F002000090AD4890F8220020B19DF81B
:104ED000000040F080000090A84A1268117DA74AA7
:104EE000526810786B460122FFF718FA10B14FF0A4
:104EF000FF30D9E7A14880F823400020D4E738B537
:104F0000044604F0700010B10120009005E014B1D7
:104F10000020009001E040200090984A1268917CA7
:104F2000964A526810786B460122FFF7F7F920B1D4
:104F3000002192488172481E38BD9DF8000020F083
:104F400040018E4801730020009004F0400020B919
:104F50009DF8000040F00400009004F0200020B90B
:104F60009DF8000040F00200009004F0100020B90D
:104F70009DF8000040F00100009004F0080020B906
:104F80009DF8000040F0380000907C4A1268D17C07
:104F90007A4A526810786B460122FFF7BFF920B1B8
:104FA000002176488172481EC6E724B1082C02D041
:104FB0000020FFF771FF71488472002101754CF2E7
:104FC0005030FDF7B8F90020B6E738B504466B4815
:104FD000807CA04201D1002038BD002C47D0674A18
:104FE00012681179654A526810786B460122FFF702
:104FF000F6F910B14FF0FF30EEE79DF8000020F019
:10500000200000905D4A126811795C4A526810785D
:105010006B460122FFF782F910B14FF0FF30DBE75A
:1050200040F6B830FDF787F902200090534890F819
:10503000220020B19DF8000040F0800000904F4811
:1050400090F8230020B19DF8000040F0300000905F
:105050004A4A1268117D494A526810786B4601220B
:10506000FFF75CF9002852D04FF0FF30B4E7434A15
:1050700012681179414A526810786B460122FFF795
:10508000AEF910B14FF0FF30A6E73C48807A00F04F
:10509000010028B19DF8000040F02000009004E0DD
:1050A0009DF8000020F020000090344A1268117929
:1050B000324A526810786B460122FFF72FF910B17F
:1050C0004FF0FF3088E740F6B830FDF734F92B4851
:1050D00090F8220010B18020009001E000200090A4
:1050E000264890F8230020B19DF8000040F03000E1
:1050F0000090224A1268117D204A526810786B464F
:105100000122FFF70BF910B14FF0FF3064E71B48A5
:105110008474002060E708B51848807A10B94FF011
:10512000FF3008BD00200090144A1268D17B134A5A
:10513000526810786B460122FFF7F0F810B14FF07B
:10514000FF30EEE70D4A126851790C4A5268107828
:105150006B460122FFF7E2F810B14FF0FF30E0E7B5
:10516000064A12681179054A526810786B46012286
:10517000FFF7D4F820B14FF0FF30D2E758010020FC
:10518000F74890F82400002850D00C200090F44AF2
:1051900012681179F24A526810786B460122FFF7C3
:1051A000BDF810B14FF0FF30BBE7C0200090EC48D5
:1051B000807A00F0010020B19DF8000040F020004E
:1051C0000090E74A12681179E54A526810786B46F8
:1051D0000122FFF7A3F810B14FF0FF30A1E7E0483C
:1051E000407C10B10220009001E000200090DC4AD9
:1051F0001268D17BDA4A526810786B460122FFF7B9
:105200008DF810B14FF0FF308BE700200090D44AAA
:1052100012685179D24A526810786B460122FFF722
:105220007DF8002852D04FF0FF307AE7042000903C
:10523000CB4A12681179CA4A526810786B4601222B
:10524000FFF76CF810B14FF0FF306AE7C448807C7C
:1052500020B9C348807A00F0010010B940200090C6
:1052600001E060200090BE4A12681179BC4A526881
:1052700010786B460122FFF751F810B14FF0FF3064
:105280004FE7B748407C10B10120009001E00020BA
:105290000090B34A1268D17BB14A526810786B46CD
:1052A0000122FFF73BF810B14FF0FF3039E7AC4A6D
:1052B00012685179AA4A52681078A94B103301221A
:1052C000FFF72CF810B14FF0FF302AE7002028E755
:1052D00070B50446002624F00104A14890F824008B
:1052E00008B1002070BD9E48807A10B94FF0FF30A1
:1052F000F8E79B48057C807A204099490874084665
:10530000007CA04202D04FF0FF3600E0002614B926
:105310009348007D18B10120FFF734FD02E0002022
:10532000FFF730FD3CB1FFF7F6FE20B18C48057465
:105330004FF0FF30D6E73046D4E738B5044688480A
:10534000807A10B94FF0FF3038BDBC2C02DB012051
:10535000009015E0622C02DB0220009010E02A2C65
:1053600002DB032000900BE0142C02DB04200090F1
:1053700006E00A2C02DB0520009001E006200090E8
:105380007748C07A9DF80010884201D10020DBE701
:10539000734A12689178724A526810786B460122FB
:1053A000FEF7BCFF10B14FF0FF30CDE79DF80010C5
:1053B0006B48C1720020C7E738B50446282C02DDCF
:1053C0004FF0FF3038BDDCB90020FFF765FD00204D
:1053D0008DF8000007208DF80100614A1268917C69
:1053E0005F4A526810786B460222FEF797FF10B1B1
:1053F0004FF0FF30E6E70021594801750020E1E752
:105400000120FFF749FD20208DF80000012C06D176
:1054100000208DF801000520FFF78FFF17E0052C15
:1054200006DC01208DF801000520FFF786FF0EE065
:10543000142C06DC02208DF801000A20FFF77DFF06
:1054400005E003208DF801001420FFF776FF9DF89A
:105450000100072101EB8010C0B28DF80100404A25
:105460001268917C3E4A526810786B460222FEF721
:1054700055FF10B14FF0FF30A4E708213848817282
:1054800000210173012101750020FFF721FF002099
:1054900098E738B504463248807A10B94FF0FF30AB
:1054A00038BD2F4890F8240010B14FF0FF30F7E7D7
:1054B0002B48007D50B134B1282C04DCE0B2FFF75A
:1054C0007BFF0020ECE70020FFF776FF042C01DAD9
:1054D000042404E0B4F57A7F01DD4FF47A744FF4CC
:1054E0007A7090FBF4F0401EC0B200901C4A126823
:1054F00051781B4A526810786B460122FEF70EFF66
:1055000010B14FF0FF30CBE79DF80000401C4FF486
:105510007A7191FBF0F081B21148C1810146C989CD
:105520004810FFF70AFF0020BAE738B504460C48D8
:10553000807A10B94FF0FF3038BD022C06D0042C11
:1055400007D0082C08D0102C0FD10BE000200090C1
:105550000EE0082000900BE01020009008E0000012
:10556000580100201820009002E04FF0FF30E3E7E0
:1055700000BFF848407A9DF80010B0EBE10F01D170
:105580000020D9E7F34A1268D179F24A52681078BC
:105590006B460122FEF7C2FE10B14FF0FF30CBE7A1
:1055A0009DF80000C110EB4841720020C4E738B5F7
:1055B0000446E848807A10B94FF0FF3038BDFA2C25
:1055C00009D0B4F5FA7F09D0B4F57A7F09D0B4F5E3
:1055D000FA6F0CD108E0002000900BE0082000904A
:1055E00008E01020009005E01820009002E04FF045
:1055F000FF30E3E700BFD748007A9DF80010B0EB1A
:10560000E10F01D10020D9E7D24A12689179D14A3D
:10561000526810786B460122FEF780FE10B14FF001
:10562000FF30CBE79DF80000C010CA490872002087
:10563000C4E71CB580208DF80000C64A1268917C32
:10564000C44A526810786B460122FEF767FE10B11B
:105650004FF0FF301CBDC048FCF76DFE00208DF8F8
:105660000000BC4A1268917CBA4A526810786B46B6
:105670000122FEF753FE10B14FF0FF30EAE7B54AC2
:105680001268917DB34A526810786B460622FEF785
:10569000A6FE10B14FF0FF30DCE79DF80500C00713
:1056A000400F9DF8031001F0010140EA41009DF810
:1056B000011001F0010140EA010474B1012C03D191
:1056C0000121A448C17427E0022C03D10021A14884
:1056D000C17421E04FF0FF30BCE79E4A1268D178D8
:1056E0009C4A526810786B460122FEF778FE10B192
:1056F0004FF0FF30AEE79DF8000000F00F0414B942
:105700004FF0FF30A6E7042C03D101219148C1746A
:1057100002E000218F48C174FF218E488172FF2072
:105720008C490872FF218B484172C1724FF6FF719C
:10573000C181FF21017481740121017380F822105D
:10574000002180F823104175017516300160416019
:105750008160163880F8241080F82510C1844FF439
:10576000FA60FFF724FF10B14FF0FF3072E702201C
:10577000FFF7DBFE10B14FF0FF306BE72A20FFF799
:10578000DCFD10B14FF0FF3064E73220FFF781FEFF
:1057900010B14FF0FF305DE70020FFF799FD10B129
:1057A0004FF0FF3056E70020FFF70FFC10B14FF02D
:1057B000FF304FE70020FFF7A2FB00204AE77047C9
:1057C0007CB504460D466348807A00F0700010B93D
:1057D0004FF0FF307CBD5F4A1268117B5D4A526812
:1057E00010786B460622FEF7FAFD10B14FF0FF303D
:1057F000F0E79DF801009DF8001040EA012000B29A
:1058000020809DF803009DF8021040EA012000B2BC
:1058100060809DF805009DF8041040EA012000B268
:10582000A08015B12846FFF7CAFF0020D2E77CB55B
:1058300004460D464748807A00F0080010B94FF042
:10584000FF307CBD434A1268517B424A526810784F
:105850006B460622FEF7C3FD10B14FF0FF30F0E7B4
:105860009DF801009DF8001040EA012000B2208060
:105870009DF803009DF8021040EA012000B260800C
:105880009DF805009DF8041040EA012000B2A080B8
:1058900015B12846FFF793FF0020D2E72DE9FE4F10
:1058A00005460C462B48807A18B94FF0FF30BDE80A
:1058B000FE8F284A1268917B264A5268107802AB04
:1058C0000222FEF78CFD10B14FF0FF30EFE79DF89C
:1058D00009009DF8081040EA012006B214B12046E4
:1058E000FFF76DFF1B494968C88805F0DBF81949C7
:1058F00001904968B1F9080005F0CBF883463046BD
:1059000005F0C7F85946009004F034FF824601992B
:1059100004F068FF8146114904F0DAFE80464FF03A
:105920008F4104F02DFF074605F0C1F828600020E4
:10593000BDE710B588B004461CB94FF0FF3008B081
:1059400010BD206860B9606850B9A06840B90020F7
:10595000F5E7000058010020A086010000000C427D
:10596000FA494968087806AB03221146FEF737FD6D
:1059700010B14FF0FF30E2E79DF81800082101EB6D
:10598000201000F00F00ADF800009DF8190001EBA9
:10599000201000F00F00ADF802009DF81A0001EB96
:1059A000201000F00F00ADF8040020684100BDF9A0
:1059B0000000403091FBF0F000B2ADF810006068DC
:1059C0004100BDF90200403091FBF0F000B2ADF8AB
:1059D0001200A0684100BDF90400403091FBF0F0D6
:1059E00000B2ADF81400D9494968087806AB062220
:1059F0001146FEF7F4FC10B14FF0FF309FE79DF821
:105A000019009DF8181040EA012000B2ADF8080016
:105A10009DF81B009DF81A1040EA012000B2ADF875
:105A20000A009DF81D009DF81C1040EA012000B2FC
:105A3000ADF80C00BDF81000BDF80810084400B225
:105A4000ADF81000BDF81200BDF80A10084400B20D
:105A5000ADF81200BDF81400BDF80C10084400B2F7
:105A6000ADF81400BDF81000000A8DF81800BDF85C
:105A70001000C0B28DF81900BDF81200000A8DF8B0
:105A80001A00BDF81200C0B28DF81B00BDF814005A
:105A9000000A8DF81C00BDF81400C0B28DF81D007E
:105AA000AA494968087806AB06221146FEF736FC7B
:105AB00010B14FF0FF3042E7002040E70146A34815
:105AC000007A30B1012807D0022809D003280FD16D
:105AD0000AE0FA2008800EE04FF4FA7008800AE02D
