:020000040800F2
:1000000000880020292B00084D2B00084F2B0008EA
:10001000532B0008572B00085B2B00080000000042
:100020000000000000000000000000004501000882
:100030005F2B0008000000008901000853680008D9
:10004000432B0008432B0008432B0008432B0008D8
:10005000432B0008432B0008432B0008432B0008C8
:10006000432B0008432B0008432B0008432B0008B8
:10007000432B0008432B0008434A0008432B000889
:10008000432B0008432B0008432B0008432B000898
:10009000975F0008432B0008432B0008612B0008E2
:1000A000432B0008432B0008432B0008432B000878
:1000B0004D5E0008395E0008432B0008432B000802
:1000C000432B0008432B0008432B0008432B000858
:1000D000432B0008674A0008432B0008432B000805
:1000E000432B0008432B0008432B0008432B000838
:1000F000432B0008432B0008432B0008432B000828
:10010000432B0008432B0008432B0008432B000817
:10011000432B0008432B0008632E0008432B0008E4
:10012000432B0008432B0008432B0008432B0008F7
:10013000DFF80CD011F0B8F8004800473B2D00085C
:1001400000880020204B19680868B0E8F00F80F3A1
:100150000988BFF36F8F4FF0000080F311884EF0D5
:100160000D0E70470000000006480068006880F32C
:10017000088862B661B6BFF34F8FBFF36F8F00DFA1
:1001800000BF00BF08ED00E0EFF30980BFF36F8F01
:100190000D4B1A6820E9F00F106008B54FF0100001
:1001A00080F3118807F057FF4FF0000080F31188AB
:1001B000BDE8084019680868B0E8F00F80F30988C6
:1001C000BFF36F8F704700BF28020020EFF311804C
:1001D0004FF0100181F31188704780F31188704748
:1001E000EFF30580704700000CB5002001900090EF
:1001F0006C48006840F480306A49086000BF694874
:10020000006800F4003000900198401C01900098B4
:1002100018B90198B0F5A06FF1D16248006800F4F8
:10022000003010B10120009001E000200090009803
:10023000012843D15C48006840F010005A4908602A
:100240000846006820F0030008600846006840F097
:1002500002000860534840685249486008464068B8
:1002600048600846406840F480604860084640683E
:1002700020F47C1048600846406840F4E81048606C
:100280000846006840F08070086000BF454800687C
:1002900000F000700028F9D04248406820F00300C8
:1002A000404948600846406840F00200486000BF8E
:1002B0003C48406800F00C000828F9D10CBD10B58E
:1002C000FFF792FF10BD10B53648006840F00100FE
:1002D000344908600846406834490840314948605C
:1002E00008460068324908402E4908600846006800
:1002F00020F4802008600846406820F4FE00486032
:100300004FF41F008860FFF7DAFF4FF000602949C3
:10031000086010BD10B5002100200022214B5B6851
:1003200003F00C0121B1042906D0082928D107E0E7
:10033000214B224C236027E01F4B204C236023E0FD
:10034000184B5B6803F47010164B5B6803F4803243
:10035000022303EB904022B9194B4343174C23600F
:100360000DE0104B5B6803F4003323B1144B43439F
:10037000124C236003E0104B4343104C236003E016
:100380000D4B0E4C236000BF00BF064B5B68C3F3F0
:1003900003130C4CE15C094B1B68CB40074C2360FA
:1003A00010BD000000100240002002400000FFF8D5
:1003B000FFFFF6FE08ED00E000127A0000000020CA
:1003C00000093D000400002031490143314A116019
:1003D000704770B5002100230F22C47804B32D4C60
:1003E000246804F4E064C4F5E064210AC1F1040364
:1003F000CA40447804FA03F1847814402143090187
:10040000254C0678A155047804F01F050124AC4062
:1004100005786D11AD0005F1E025C5F8004109E052
:10042000047804F01F050124AC401C4D06787611B9
:1004300045F8264070BD1A4A0A400243154B1B1F5F
:100440001A60704739B1134A121D12680243114BEA
:100450001B1D1A6006E00F4A121D126882430D4BE5
:100460001B1D1A607047042808D14FF0E02109696C
:1004700041F004014FF0E022116107E04FF0E0216C
:10048000096921F004014FF0E0221161704700007A
:100490000000FA050CED00E000E400E080E100E07F
:1004A00080FFFF1F10B50446FE48844209D1012198
:1004B000480601F0EAF900214FF0007001F0E5F97B
:1004C00008E00121880601F0E0F900214FF080608A
:1004D00001F0DBF910BD30B502460020002314689E
:1004E00024F002041460146844F00104146000E075
:1004F0005B1C546804F001041CB94FF6FF74A3425E
:10050000F6D1546804F001040CB900206CE08C7939
:10051000012C04D1146844F08004146003E01468D2
:1005200024F080041460CC79012C04D1146844F0C8
:100530004004146003E0146824F0400414600C7A52
:10054000012C04D1146844F02004146003E0146802
:1005500024F0200414604C7A012C04D1146844F077
:100560001004146003E0146824F0100414608C7A02
:10057000012C04D1146844F00804146003E01468EA
:1005800024F008041460CC7A012C04D1146844F0DF
:100590000404146003E0146824F0040414608C78EC
:1005A000A407CD7844EA05640D7944EA05444D7901
:1005B00044EA05540D886D1E2C43D461146824F060
:1005C00001041460002300E05B1C546804F0010483
:1005D0001CB14FF6FF74A342F6D1546804F0010435
:1005E0000CB1002000E0012030BD10B50021837A5D
:1005F000012202FA03F1AC4A126842F00102AA4B4E
:100600001A60A94A1C3212688A43A74B1C331A602D
:10061000027BCAB9A44A0C3212688A43A24B0C333B
:100620001A604288C38842EA03439F4A4032847A70
:1006300042F834300288838842EA03439A4A4032BF
:10064000847A02EBC4025360027B012A19D1964AD4
:100650000C3212680A43944B0C331A6042880388A8
:1006600042EA0343904A4032847A42F83430C288E6
:10067000838842EA03438C4A4032847A02EBC40204
:100680005360C27A3AB9884A121D12688A43864B6F
:100690001B1D1A6006E0844A121D12680A43824B31
:1006A0001B1D1A60028932B97F4A143212688A43CC
:1006B0007D4B14331A600289012A06D17A4A14321A
:1006C00012680A43784B14331A60427B012A06D120
:1006D000754A1C3212680A43734B1C331A60724A03
:1006E000126822F00102704B1A6010BD0021817166
:1006F000C171017241728172C1728170C170032136
:100700000171022141710121018070476649096828
:1007100041F00101644A11601146096843F60E7206
:100720009143614A11601146096841EA0021116054
:100730001146096821F001011160704721B102687A
:1007400042F48032026003E0026822F480320260E8
:100750007047E1B1026842F0800202604FF4C27259
:10076000125842F480734FF4C27213504FF4CA729D
:10077000125842F480734FF4CA7213504FF4D2727D
:10078000125842F480734FF4D27213501BE0026887
:1007900022F0800202604FF4C272125822F4807379
:1007A0004FF4C27213504FF4CA72125822F480737D
:1007B0004FF4CA7213504FF4D272125822F480735D
:1007C0004FF4D2721350704710B502460020936860
:1007D00003F08063B3F1806F00D110E0936803F001
:1007E0000063B3F1006F01D1012008E0936803F0CA
:1007F0008053B3F1805F01D1022000E0042004287F
:1008000079D002F5C07303EB00131B6803F00104F9
:1008100002F5C07303EB00131C600B7A7BB94B7AB3
:100820000C8843EA445302F5C07404EB00142468B6
:10083000234302F5C07404EB0014236010E00B7A2C
:100840004C6843EAC4034C7A234302F5C07404EBBA
:1008500000142468234302F5C07404EB00142360E1
:100860008B7A03F00F038B7202F5C07303EB001356
:100870005B6823F00F0402F5C07303EB00135C60A8
:1008800002F5C07303EB00135B688C7A234302F517
:10089000C07404EB001463608B7B1C064B7B44EA42
:1008A000034403E000640040006600400B7B44EA20
:1008B0000323CC7A234302F5C07404EB0014A36035
:1008C0008B7C1C064B7C44EA03440B7C44EA0323E8
:1008D000CC7B234302F5C07404EB0014E36002F503
:1008E000C07303EB00131B6843F0010402F5C073EF
:1008F00003EB00131C6010BD10B50246002321B1AC
:10090000012907D002290FD109E09068F94C00EACB
:1009100004030BE09068F84C00EA040306E09068DA
:10092000F64C00EA040301E0002300BF00BFF44CD2
:10093000181BA34216D007DC83B16FF08060184407
:1009400070B1022818D111E0B0F5007F10D0ED4C45
:10095000204448B1B0F5003F0ED10BE002230DE07A
:1009600000230BE0002309E0002307E0012305E05A
:10097000012303E0012301E0002300BF00BFD8B240
:1009800010BD21B1012907D002290FD109E08268E9
:1009900042F0800282600AE0826842F40042826093
:1009A00005E0826842F40002826000E000BF00BF00
:1009B000704710B500F5D87303EB01131B6803F003
:1009C00004031372137A53B900F5D87303EB0113C0
:1009D0001B6840F2FF7404EA5353136009E000F50A
:1009E000D87303EB01131B686FF0604404EAD30370
:1009F000536000F5D87303EB01131B6803F0020387
:100A0000537200F5D87303EB01135B6803F00F0317
:100A1000937200F5D87303EB01135B681B0AD37460
:100A200000F5D87303EB01139B68D37200F5D873FC
:100A300003EB01139B681C0A147300F5D87303EBD6
:100A400001139B681C0C547300F5D87303EB01135E
:100A50009B681B0E937300F5D87303EB0113DB68DF
:100A6000D37300F5D87303EB0113DB681C0A14740D
:100A700000F5D87303EB0113DB681C0C547400F50C
:100A8000D87303EB0113DB681B0E937421B9C368A1
:100A900043F02003C36003E0036943F020030361D4
:100AA00010BD21B9C26842F02002C26003E00269B1
:100AB00042F02002026170470246002019B9D36853
:100AC00003F0030006E0012903D1136903F00300DA
:100AD00000E00020704710B502460B4600204FF69C
:100AE000FF71BBB9146824F0020444F001041460DF
:100AF00000E0491E546804F00304012C01D00029D1
:100B0000F7D1546804F00304012C01D0002032E036
:100B1000012030E0012B13D1146824F00304146089
:100B200000E0491E546804F003040CB10029F8D118
:100B3000546804F003040CB100201CE001201AE00A
:100B4000022B17D1146824F0010444F0020414604D
:100B500000E0491E546804F00304022C01D000296F
:100B6000F7D1546804F00304022C01D0002002E005
:100B7000012000E0002010BD014600200A6822F09C
:100B8000010242F002020A604A6802F00302022AED
:100B900000D10120704701464FF6FF7200200B681C
:100BA00023F002030B6000E0521E4B6803F00203C7
:100BB000022B01D1002AF7D14B6803F00203022B6C
:100BC00000D001207047014600208A6902F07000C1
:100BD0007047014600208A69100E704701460020C8
:100BE0008A69C2F3074070471AB143690B434361F6
:100BF00002E043698B434361704710B50246002011
:100C000001F4700343B19369C1F3130423400BB1A2
:100C100001202DE000202BE001F0807343B15368E8
:100C2000C1F3130423400BB1012021E000201FE099
:100C300001F0006343B19368C1F3130423400BB187
:100C4000012015E0002013E001F0007343B1D368E8
:100C5000C1F3130423400BB1012009E0002007E099
:100C60001369C1F3130423400BB1012000E00020FD
:100C700010BD0022244B994202D10023836111E070
:100C8000C1F3130201F000730BB1C2600AE001F07E
:100C900080630BB1026105E001F000630BB182607B
:100CA00000E0426070470246002002EA01030BB1F7
:100CB000012000E00020704770B504460D46002674
:100CC00060692840002872D0B5F5807F69D01DDCAE
:100CD000082D42D006DC012D2DD0022D31D0042D5F
:100CE0007FD134E0102D3ED0202D42D0402D78D140
:100CF00045E00000030000040003000800000310AA
:100D0000000100080001FFF77000F030B5F5004F5A
:100D100061D009DCB5F5007F4AD0B5F5806F4DD0C4
:100D2000B5F5006F5DD150E0B5F5803F2DD0B5F53C
:100D3000003F56D12FE0A0685549FFF7B4FF0646A3
:100D400051E0E0680321FFF7AEFF06464BE0E068A4
:100D50000821FFF7A8FF064645E0E0681021FFF7ED
:100D6000A2FF06463FE020690321FFF79CFF0646ED
:100D700039E020690821FFF796FF064633E0206935
:100D80001021FFF790FF06462DE060680821FFF76D
:100D90008AFF064627E060681021FFF784FF0646B9
:100DA00021E0A0690121FFF77EFF06461BE01BE062
:100DB000A0690221FFF777FF064614E0A06904212D
:100DC000FFF771FF06460EE00BE0A0697021FFF708
:100DD0006AFF064607E060680421FFF764FF0646E5
:100DE00001E0002600BF00E00026304670BDB1F5EE
:100DF000007F3AD00FDC202928D006DC01291CD046
:100E000004291DD0082940D11DE0402921D0B1F589
:100E1000807F3AD126E0B1F5004F31D006DCB1F544
:100E2000806F25D0B1F5006F2FD124E0B1F5803F60
:100E300012D0B1F5003F28D111E0154A826025E0BB
:100E40000822C26022E01022C2601FE00822026174
:100E50001CE01022026119E00822426016E0102214
:100E6000426013E00422426010E0042242600DE080
:100E7000042242600AE0002282610422426005E00E
:100E8000002282610422426000E000BF00BF704780
:100E90000101010001684FF6FE721140016000215E
:100EA000016041608160C1608D49884208D18C49F0
:100EB0000839496841F00F01894A083A51608AE0CF
:100EC00087491431884208D185490839496841F079
:100ED000F001834A083A51607DE081492831884217
:100EE00008D17F490839496841F470617C4A083A61
:100EF000516070E07A493C31884208D1784908391C
:100F0000496841F47041764A083A516063E0744997
:100F10005031884208D172490839496841F470213A
:100F20006F4A083A516056E06D496431884208D1F1
:100F30006B490839496841F47001694A083A5160BF
:100F400049E067497831884208D1654908394968DC
:100F500041F07061624A083A51603CE06149884260
:100F600006D1011F096841F00F01021F116032E034
:100F70005C491431884208D15A49091F096841F077
:100F8000F001584A121F116025E056492831884265
:100F900008D15449091F096841F47061514A121F70
:100FA000116018E04F493C31884208D14D49091F72
:100FB000096841F470414B4A121F11600BE0494926
:100FC0005031884207D14749091F096841F470210F
:100FD000444A121F1160704710B50022026847F69C
:100FE000F0739A430C6A8B6823430C6923434C6962
:100FF00023438C692343CC6923434C6A23438C6A83
:1010000023431A430260CB6843600B6883604B68DC
:10101000C36010BD0021016041608160C160016159
:1010200041618161C161016241628162704721B1A8
:10103000026842F00102026004E002684FF6FE73AB
:101040001A40026070471AB103680B43036002E064
:1010500003688B43036070474160704701464868EE
:1010600080B2704701460020002201F080531BB17E
:101070001C4B083B1A6802E0194B083B1A6802EA4D
:1010800001030BB1012000E00020704700F0805107
:1010900019B11449091F086002E011490839486074
:1010A000704701460020002201F080531BB10D4B18
:1010B000083B1A6802E00A4B083B1A6802EA01037F
:1010C0000BB1012000E00020704700F0805119B101
:1010D0000449091F086002E0014908394860704767
:1010E0000800024008040240002044490860091D2D
:1010F0000860091D0860091D086041483F49143116
:101100000860704700213D498279002A3AD00A469A
:10111000126803689A430B461A600A1D1268036836
:101120009A430B1D1A60027911440A6803681A4336
:101130000A60324A0832126803689A432F4B083318
:101140001A601A1D126803689A432C4B0C331A60FC
:101150004279102A0ED11A1F126803681A43274BCE
:1011600008331A601A1D126803681A43234B0C33A4
:101170001A600DE02149427911440A6803681A4354
:101180000A6005E0027911440A6803689A430A601C
:1011900070470021016001710C21417100218171B2
:1011A00070471649103109680143144A1032116022
:1011B000704701460020114A143212680A400AB1F1
:1011C000012000E0002070470C491431086070478E
:1011D000014600200022094B1B6803EA0102074B6D
:1011E00014331B680B4013B10AB1012000E000204A
:1011F0007047024914310860704700000004014044
:10120000FFFF0F0010B50446CC48844208D10121ED
:10121000042000F02DFB0021042000F029FB46E013
:10122000C748844208D10121082000F021FB002199
:10123000082000F01DFB3AE0C248844208D1012199
:10124000102000F015FB0021102000F011FB2EE013
:10125000BD48844208D10121202000F009FB002173
:10126000202000F005FB22E0B848844208D101218B
:10127000402000F0FDFA0021402000F0F9FA16E0CD
:10128000B348844208D10121802000F0F1FA002106
:10129000802000F0EDFA0AE0AE48844207D1012137
:1012A000801500F0E5FA0021A01500F0E1FA10BD6C
:1012B00010B50121084600F0DBFA0021012000F002
:1012C000D7FA10BD2DE9F041024600250026002086
:1012D00000230024002791F803C00CF00F0591F8BB
:1012E00003C00CF0100CBCF1000F03D091F802C049
:1012F0004CEA050591F800C0BCF1000F31D014682C
:1013000000202BE04FF0010C0CFA00F3B1F800C004
:101310000CEA03069E4220D183004FF00F0C0CFA1A
:1013200003F7BC4305FA03FC4CEA040491F803C03C
:10133000BCF1280F06D14FF0010C0CFA00FCC2F8EA
:1013400014C00AE091F803C0BCF1480F05D14FF07A
:10135000010C0CFA00FCC2F810C0401C0828D1D3C4
:101360001460B1F800C0BCF1FF0F34DD54680020F8
:101370002EE000F1080C4FF0010808FA0CF3B1F868
:1013800000C00CEA03069E4221D183004FF00F0CEF
:101390000CFA03F7BC4305FA03FC4CEA040491F889
:1013A00003C0BCF1280F05D100F1080C08FA0CF8B5
:1013B000C2F8148091F803C0BCF1480F07D100F1C6
:1013C000080C4FF0010808FA0CF8C2F81080401C15
:1013D0000828CED35460BDE8F0814FF6FF7101803C
:1013E000022181700421C170704702460020936879
:1013F0000B400BB1012000E00020704701468868D7
:1014000080B2704702460020D3680B400BB1012028
:1014100000E0002070470146C86880B27047016153
:101420007047416170470AB1016100E04161704756
:10143000C16070474FF480320A43826181618261EA
:1014400082698269704702460020434B18684FF654
:101450008073184040EA021008433F4B1860704701
:101460003E49C8617047F0B50A46002300240021B8
:10147000002500F00046B6F1004F02D1364EF1696A
:1014800001E0354E7168C0F3034583B200F44016A5
:10149000B6F5401F08D121F070612F4E766826F016
:1014A00070662D4F7E6012E000F48016B6F5801F46
:1014B00006D1032606FA05F4A14341F0706106E067
:1014C000460D360103FA06F6B14341F0706122B1D0
:1014D000460D360103FA06F6314300F00046B6F138
:1014E000004F02D11C4EF16101E01B4E7160F0BD56
:1014F00030B500228B071C0F0F2303FA04F2164BA2
:1015000008338C1053F824309343134C08348D1057
:1015100044F8253023468C1053F824308C07240FD0
:1015200000FA04F423430C4C08348D1044F82530A1
:1015300030BD0A49DC3108607047000000080140F6
:10154000000C01400010014000140140001801404F
:10155000001C01400020014000000140000020422A
:10156000DF48006840F00100DD4908600846406837
:10157000DC490840DA49486008460068DA49084012
:10158000D74908600846006820F4802008600846B3
:10159000406820F4FE0048604FF41F0088607047E8
:1015A000CF49096821F48031CD4A1160114609689C
:1015B00021F480211160B0F5803F03D0B0F5802F79
:1015C0000ED106E0C649096841F48031C44A116071
:1015D00007E0C349096841F4A021C14A116000E055
:1015E00000BF00BF704710B5014600220023002055
:1015F0004A11012A02D1BA4C236806E0022A02D11C
:10160000B74C236A01E0B64C636A01F01F02012463
:1016100094401C400CB1012000E0002010BD38B502
:10162000002000900024002500BF3120FFF7DBFFE1
:1016300005460098401C00900098B0F5A06F01D0BE
:10164000002DF2D03120FFF7CEFF08B1012400E0D9
:101650000024204638BD01460020A14A106820F031
:10166000F80040EAC10010607047A0490860704768
:10167000024600209A4B586820F47C1042EA01038D
:101680001843974B58607047984908667047014661
:101690000020934A506820F00300084350607047D0
:1016A0008F48406800F00C007047014600208C4ACB
:1016B000506820F0F0000843506070470146002059
:1016C000874A506820F4E060084350607047014644
:1016D0000020834A506820F4605040EAC100506006
:1016E000704729B17E4A527A02437D4B5A7204E018
:1016F0007B4A527A82437A4B5A7270477B49D8317F
:101700000860704701460020754A506820F4404048
:101710000843506070470021714A20321170704AAE
:1017200082F82010012802D004280AD104E0012107
:101730006B4A2032117005E00521694A2032117090
:1017400000E000BF00BF7047694908607047644906
:10175000096A0143624A1162704765494439086069
:10176000704730B500210022002400235C4D6D68D5
:1017700005F00C0121B1042905D0082923D105E089
:101780005C4D056022E05B4D05601FE0544D6D68C7
:1017900005F47012524D6D6805F48034022505EB96
:1017A00092421CB9544D554305600BE04C4D6D6899
:1017B00005F400351DB1504D5543056002E04D4D17
:1017C0005543056002E04B4D056000BF00BF444D2E
:1017D0006D6805F0F0010909484D6B5C0568DD4056
:1017E00045603F4D6D6805F4E061090A434D6B5C4F
:1017F0004568DD4085603A4D6D6805F46051C90A61
:101800003E4D6B5C4568DD40C560354D6D6805F447
:101810004041890B3A4D6B5CC568B5FBF3F505613A
:1018200030BD29B12E4A526902432D4B5A6104E062
:101830002B4A526982432A4B5A61704729B1284A80
:1018400092690243264B9A6104E0254A92698243D9
:10185000234B9A61704729B1214AD2690243204B38
:10186000DA6104E01E4AD26982431D4BDA61704797
:1018700029B11B4AD2680243194BDA6004E0184AC6
:10188000D2688243164BDA60704729B1144A126954
:101890000243134B1A6104E0114A12698243104B50
:1018A0001A61704712494039086070470F49C8648F
:1018B00070470B49C87170470948406A40F0807012
:1018C00007494862704701460020054A92680A406D
:1018D0000AB1012000E0002070470149887270477A
:1018E000001002400000FFF8FFFFF6FE0000424239
:1018F0008004424200127A0000093D0014000020DA
:101900002400002010B50446FE48844208D101217D
:10191000C014FFF7ADFF0021E014FFF7A9FFC4E0FA
:10192000B4F1804F08D101210846FFF7AEFF002136
:101930000120FFF7AAFFB8E0F348844208D1012153
:101940000220FFF7A2FF00210220FFF79EFFACE07C
:10195000EE48844208D101210420FFF796FF0021C0
:101960000420FFF792FFA0E0E948844208D101215A
:101970000820FFF78AFF00210820FFF786FF94E088
:10198000E448844208D101211020FFF77EFF0021A6
:101990001020FFF77AFF88E0DF48844208D1012158
:1019A0002020FFF772FF00212020FFF76EFF7CE070
:1019B000DA48844208D101214014FFF759FF002181
:1019C0006014FFF755FF70E0D548844209D101212A
:1019D000C804FFF74DFF00214FF40020FFF748FF38
:1019E00063E0D048844209D101210805FFF740FF98
:1019F00000214FF48010FFF73BFF56E0CA488442B5
:101A000009D101214805FFF733FF00214FF40010F1
:101A1000FFF72EFF49E0C548844208D1012140204C
:101A2000FFF733FF00214020FFF72FFF3DE0C048C4
:101A3000844208D101218020FFF727FF0021802068
:101A4000FFF723FF31E0BB48844208D10121801514
:101A5000FFF71BFF0021A015FFF717FF25E0B64891
:101A6000844209D101210804FFF702FF00214FF44D
:101A70008030FFF7FDFE18E0B048844209D1012113
:101A80004804FFF7F5FE00214FF40030FFF7F0FEA9
:101A90000BE0AB48844208D101218804FFF7E8FE3F
:101AA00000214FF48020FFF7E3FE10BD00220288E2
:101AB000944B98420ED0994B98420BD0B0F1804F86
:101AC00008D0914B984205D0904B984202D0904B51
:101AD000984204D14FF68F731A404B881A438D4BAE
:101AE000984207D08C4B984204D04FF6FF431A40DF
:101AF000CB881A4302808B8883850B880385814BB2
:101B000098420BD0854B984208D08B4B984205D019
:101B10008A4B984202D08A4B984201D10B7A0386B5
:101B200001238382704770B5002400220023058CB6
:101B30004FF6FE7635400584028C8388048B4FF681
:101B40008F752C40B51E2C400D882C43751E2A40E5
:101B50000D892A434D882A436A4DA8420BD06F4D08
:101B6000A84208D0744DA84205D0744DA84202D0B6
:101B7000734DA84213D14FF6F7752A404D892A4379
:101B80004FF6FB752A408D882A434FF6FF652B40A0
:101B90004FF6FF552B408D892B43CD892B438380F6
:101BA0000483CD888586028470BD70B50024002230
:101BB0000023058C4FF6EF7635400584028C838830
:101BC000048B48F6FF752C404FF6FF452C400D88DE
:101BD0004FF6FF7606EA05252C434FF6DF752A40BF
:101BE0000D8906EA05152A434D8806EA05152A439C
:101BF000444DA84202D0494DA8421DD14FF67F75F1
:101C00002A404D894FF6FF7606EA05152A434FF61E
:101C1000BF752A408D8806EA05152A434FF6FF3521
:101C20002B404FF2FF752B408D8906EA85052B432B
:101C3000CD8906EA85052B4383800483CD880587FB
:101C4000028470BD70B5002400220023058C4FF67D
:101C5000FF6635400584028C8388848B4FF68F7530
:101C60002C404FF6FC752C400D882C434FF6FF5549
:101C70002A400D894FF6FF7606EA05252A434D884E
:101C800006EA05252A431F4DA84202D0234DA8424B
:101C90001DD14FF2FF752A404D894FF6FF7606EAB7
:101CA00005252A434FF6FF352A408D8806EA05258B
:101CB0002A434EF6FF752B404DF6FF752B408D895C
:101CC00006EA05152B43CD8906EA05152B438380CB
:101CD0008483CD888587028470BD70B5002200237F
:101CE0000024058C4EF6FF7635400584038C8488ED
:101CF000828B48F6FF752A404FF6FF452A400D8833
:101D000020E00000002C01400004004000080040DA
:101D1000000C00400010004000140040003401405E
:101D2000004C0140005001400054014000180040A8
:101D3000001C0040002000400040014000440140E1
:101D4000004801404FF6FF7606EA05252A434DF686
:101D5000FF752B400D8906EA05352B434D8806EAB1
:101D600005352B43FA4DA84202D0FA4DA84208D1BE
:101D70004BF6FF752C408D894FF6FF7606EA8515E8
:101D80002C4384808283CD88A0F84050038470BDAA
:101D9000828B4FF2FF331A408283828B4FF6FF73A0
:101DA00003EA01231A4382837047F0B50C461546B7
:101DB000002200210026078C4EF6FF7C07EA0C0764
:101DC0000784828B018C4FF6FF7707EA043640F6D2
:101DD000FF473A404FF6FF7707EA05273A434FF6A9
:101DE000FF7707EA03373A43D94FB8420ED0D94FAD
:101DF000B8420BD0B0F1804F08D0D74FB84205D0D1
:101E0000D64FB84202D0D64FB84206D14DF6FF7732
:101E1000394046F48057394305E047F6FF573940CB
:101E200044F48057394382830184F0BD828B4FF69E
:101E3000F3731A408283828B0A4382837047F0B522
:101E40000C461546002200210026078C4FF6FF6C39
:101E500007EA0C070784828B018C4FF6FF7707EAAD
:101E600004264FF60C773A404FF6FF7707EA031740
:101E70002F433A43B64FB8420ED0B64FB8420BD0BC
:101E8000B0F1804F08D0B44FB84205D0B34FB8423C
:101E900002D0B34FB84206D14FF6FF57394046F44F
:101EA0008077394305E04FF2FF57394044F480779B
:101EB000394382830184F0BD028B4FF2FF331A4015
:101EC0000283028B4FF6FF7303EA01231A43028356
:101ED0007047F0B50C461546002200210026078CFD
:101EE0004FF6EF7C07EA0C070784028B018C4FF654
:101EF000FF7707EA041640F6FF473A404FF6FF77B0
:101F000007EA03373A434FF6FF7707EA05273A43D4
:101F10008F4FB8420ED08F4FB8420BD0B0F1804FE8
:101F200008D08D4FB84205D08C4FB84202D08C4FAC
:101F3000B84206D14FF6DF77394046F010073943F3
:101F400005E04FF65F77394044F0100739430283CC
:101F50000184F0BD028B4FF6F3731A400283028BAB
:101F60000A4302837047F0B50C4615460022002153
:101F7000068C4FF6FE773E400684028B018C4FF6AE
:101F80000C7632407E1C06EA03162E433243704E16
:101F9000B0420ED06F4EB0420BD0B0F1804F08D09F
:101FA0006D4EB04205D06D4EB04202D06C4EB04284
:101FB00006D14FF6FD76314044F00106314305E08D
:101FC0004FF6F576314044F0010631430283018437
:101FD000F0BD70B505460C465D4885420ED05D48A3
:101FE00085420BD0B5F1804F08D05B48854205D0C3
:101FF0005A48854202D05A48854200D100E000BFCD
:10200000208850B92389A28861882846FFF7ABFF52
:10201000E1882846FFF79EFF25E0208804280AD1A2
:102020002389A28861882846FFF753FFE188284664
:10203000FFF742FF17E0208808280AD12389A288E9
:1020400061882846FFF7FBFEE1882846FFF7EEFE91
:1020500009E02389A28861882846FFF7A6FEE18867
:102060002846FFF795FE70BD2DE9F04105460C4668
:1020700000260127608808B9022600E00026A08813
:10208000012801D1022700E001272088A0B9238977
:10209000A28861882846FFF766FFE1882846FFF797
:1020A00059FF23893A4631462846FFF712FFE18857
:1020B0002846FFF701FF13E02389A288618828469C
:1020C000FFF707FFE1882846FFF7F6FE23893A4627
:1020D00031462846FFF747FFE1882846FFF73AFFD9
:1020E000BDE8F0810A884B881A438B881A43CB8855
:1020F0001A430B891A434B891A438B891A43A0F858
:10210000442070474FF6FF71818000210180C1801B
:102110004180017270470021018041808180C1802F
:10212000018141818181C18170470021018041800D
:10213000012181800021C18001817047002101803F
:1021400041808180C180018141818181704700008F
:10215000002C014000340140000400400008004011
:10216000000C004021B1028842F00102028004E02C
:1021700002884FF6FE731A400280704731B1B0F802
:10218000442042F40042A0F8442005E0B0F8442086
:10219000C2F30E02A0F8442070471AB183890B43A2
:1021A000838102E083898B438381704781827047FA
:1021B00041EA0203A0F8483070471AB183890B4303
:1021C000838102E083898B438381704701894FF6C5
:1021D000F8721140018170470A46002101894FF6CB
:1021E0008F73194011430181704730B504460D4685
:1021F00029462046FFF7F0FF208940F007002081A4
:1022000030BD2DE9F04104460D4616461F46602DAF
:1022100006D13B46012231462046FFF75AFE05E033
:102220003B46012231462046FFF79DFE29462046C7
:10223000FFF7D2FF208940F007002081BDE8F08140
:1022400030B50C4600210189C9B24FF6FF7505EA89
:102250000325154325432943018130BD2DE9F04174
:1022600005460E4617469846002443463A463146F0
:102270002846FFF7E5FF2C894FF6F870044044F03C
:1022800007044FF68F70044044F070042C81BDE8C1
:10229000F081F0B504460D4616461F463B463246D1
:1022A00029462046FFF7CCFF208940F4804020815A
:1022B000F0BD0185828270470A46002101884FF6F1
:1022C0008F731940114301807047F0B50C461546D5
:1022D0001E460021002200230189028B038C4FF649
:1022E000F877394021434FF6FC473A4040F2011756
:1022F0003A434FF6DD773B404FF6FF7707EA061784
:102300002F433B43018102830384F0BD0A46002131
:10231000018B4FF68F7319401143018370470A46B2
:102320000021018B48F6FF7319404FF6FF7303EA53
:1023300002231943018370470A460021818B4FF61F
:102340008F7319401143818370470A460021818BA6
:1023500048F6FF7319404FF6FF7303EA022319434F
:102360008183704721B1028842F08002028004E03C
:1023700002884FF67F731A400280704721B182882D
:1023800042F00402828004E082884FF6FB731A4018
:102390008280704721B1828842F00802828004E086
:1023A00082884FF6F7731A408280704721B1828885
:1023B00042F00102828004E082884FF6FE731A40E8
:1023C000828070470A460021018B4FF6F77319404F
:1023D0001143018370470A460021018B4FF2FF73BE
:1023E00019404FF6FF7303EA022319430183704734
:1023F0000A460021818B4FF6F77319401143818300
:1024000070470A460021818B4FF2FF7319404FF647
:10241000FF7303EA02231943818370470A460021B0
:10242000018B4FF6FB7319401143018370470A4635
:102430000021018B4FF6FF3319404FF6FF7303EA7B
:1024400002231943018370470A460021818B4FF60E
:10245000FB7319401143818370470A460021818B29
:102460004FF6FF3319404FF6FF7303EA0223194377
:10247000818370470A460021018B4FF67F73194014
:102480001143018370470A460021018BC1F30E01FD
:102490004FF6FF7303EA02231943018370470A468C
:1024A0000021818B4FF67F73194011438183704760
:1024B0000A460021818BC1F30E014FF6FF7303EA38
:1024C00002231943818370470A460021018C4FF68D
:1024D000FD7319401143018470470A460021018CA5
:1024E0004FF6F77319401143018470470A460021E3
:1024F000018C4FF6DF7319404FF6FF7303EA0213A6
:102500001943018470470A460021018C4FF67F73FE
:1025100019404FF6FF7303EA021319430184704711
:102520000A460021018C4FF6FF5319404FF6FF7306
:1025300003EA02231943018470470A460021018CF3
:102540004FF2FF7319404FF6FF7303EA022319435A
:10255000018470470A460021018C4DF6FF73194033
:102560004FF6FF7303EA023319430184704730B515
:10257000002301248C40A3B2048C9C430484048C6B
:1025800002FA01F5ADB22C43048430BD30B500230E
:1025900004248C40A3B2048C9C430484048C02FA6F
:1025A00001F5ADB22C43048430BD70B50346002064
:1025B00000241846183001258D40ACB21D8CA5436F
:1025C0001D8409B1082909D100EB6100056825F0D7
:1025D000700505600568154305600EE00D1FC5F325
:1025E0004E052844056825F4E045056005684FF66A
:1025F000FF7606EA02263543056070BD21B10288E8
:1026000042F00202028004E002884FF6FD731A4095
:102610000280704721B1028842F00402028004E087
:1026200002884FF6FB731A400280704721B18288FE
:1026300042F08002828004E082884FF67F731A4065
:102640008280704702884FF6F7731A400280028832
:102650000A430280704782884FF68F731A40828047
:1026600082880A438280704702894FF6F8731A40C5
:10267000028102890A430281704702894FF67F7303
:102680001A40028102890A4302817047818470479F
:1026900081857047818670470187704781877047C1
:1026A000A0F84010704702884FF6FF431A4002809E
:1026B00002880A43028070470146888E70470146AF
:1026C000088F70470146888F70470146B1F8400077
:1026D00070470146888C70470146088D7047024656
:1026E0000020138A0B400BB1012000E0002070474E
:1026F000CA430282704730B50246002000230024FE
:10270000158A05EA0103958905EA010413B10CB1A4
:10271000012000E0002030BDCA4302827047000063
:1027200010B50446FB48844209D101218803FFF714
:102730009FF800214FF48040FFF79AF832E0F64806
:10274000844209D101214804FFF79FF800214FF48A
:102750000030FFF79AF825E0F048844209D10121C2
:102760008804FFF792F800214FF48020FFF78DF8DE
:1027700018E0EB48844209D10121C804FFF785F82D
:1027800000214FF40020FFF780F80BE0E548844279
:1027900008D101210805FFF778F800214FF48010D7
:1027A000FFF773F810BD2DE9F04786B005460E46D9
:1027B0000024A24600BFA1460027B08900B100BF97
:1027C0002F462C8A4CF6FF700440F08804432C827C
:1027D000AC894EF6F3100440B08831890843718902
:1027E00008430443AC81AC8A4FF6FF400440B089F3
:1027F0000443AC8201A8FEF7B4FFC648874202D169
:10280000DDF810A001E0DDF80CA0A88900F400407C
:1028100040B10AEBCA0000EB0A1031684900B0FB76
:10282000F1F807E00AEBCA0000EB0A1031688900F2
:10283000B0FBF1F86420B8FBF0F00401200964213A
:1028400001FB1089A88900F4004040B1322000EB60
:10285000C900B0FBF1F000F00700044308E03220AB
:1028600000EB09106421B0FBF1F000F00F0004430D
:102870002C8106B0BDE8F0874FF4165101600021AD
:102880008180C18001810C214181002181817047BB
:1028900010B502460020108A4FF2FF0318400B8843
:1028A0004C8823438C882343CC88234318431082CD
:1028B00010BD0021018041808180C180704721B11D
:1028C000828942F40052828104E082894DF6FF73CE
:1028D0001A4082817047F0B5034600240026002587
:1028E000002040F66A17B94200D100BF1846C1F374
:1028F000421401F01F06012707FA06F5012C01D149
:102900000C3004E0022C01D1103000E014301AB178
:1029100007682F43076002E00768AF430760F0BD18
:102920001AB1838A0B43838202E0838A8B438382BA
:102930007047028A4FF6F0731A400282028A0A43F5
:102940000282704782894FF2FF731A408281828926
:102950000A438281704721B1828942F0020282815A
:1029600004E082894FF6FD731A4082817047028A23
:102970004FF6DF731A400282028A0A4302827047CE
:1029800021B1028A42F48042028204E0028A4BF6BC
:10299000FF731A4002827047C1F3080282807047B9
:1029A00001468888C0F308007047818941F0010121
:1029B00081817047028BD2B20283028B42EA0122EC
:1029C00002837047028B02F47F420283028B0A4328
:1029D0000283704721B1828A42F02002828204E0A1
:1029E000828A4FF6DF731A408282704721B1828A51
:1029F00042F01002828204E0828A4FF6EF731A409E
:102A00008282704721B1828A42F00802828204E009
:102A1000828A4FF6F7731A408282704721B1828909
:102A200042F40042828103E08289C2F30E02828175
:102A3000704721B1828A42F40062828204E0828A75
:102A40004FF2FF731A4082827047828A4FF6FB73FF
:102A50001A408282828A0A438282704721B1828A26
:102A600042F00202828204E0828A4FF6FD731A402D
:102A70008282704702460020B1F5007F00D100BF7E
:102A800013880B400BB1012000E00020704701F4D7
:102A90000072B2F5007F00D100BFCA4302807047C8
:102AA00070B50246002400230025002040F66A1677
:102AB000B14200D100BFC1F3421501F01F0301264E
:102AC00006FA03F3012D02D19689334006E0022D68
:102AD00002D1168A334001E0968A33400C12012657
:102AE00006FA04F41688344013B10CB1012000E05A
:102AF000002070BD10B50022002340F66A14A142E8
:102B000000D100BF0A1201249440A3B2DC43048028
:102B100010BD000000380140004400400048004063
:102B2000004C0040005000400648804706480047DF
:102B3000FEE7FEE7FEE7FEE7FEE7FEE7FEE7FEE76D
:102B4000FEE7FEE7C702000831010008704700BF3A
:102B5000FEE700BFFEE700BFFEE700BFFEE77047ED
:102B600008B52020FEF734FBC8B10D480078401CA2
:102B70000B4908700846007802280DDB69460948B1
:102B8000006804F0FDFB009818B14FF08050064932
:102B900008600020024908702020FEF72AFB08BDCB
:102BA000280000206C00002004ED00E010B5002299
:102BB00032210A2004F040FA6849086000223221DC
:102BC0000A2004F039FA66490860002216210F2015
:102BD00004F032FA63490860002216210F2004F045
:102BE0002BFA6149086003220021012004F024FA35
:102BF0005E49086003F0EAFF5D49086003F0E6FF04
:102C00005C49086010BD1FB500205B4A0623CDE972
:102C10000120009303900346802258A15A4804F0F3
:102C2000D0FE0020594A0623CDE9012000930390ED
:102C300003464FF4807256A1584804F0C2FE0020AB
:102C4000574A0723CDE901200093039003464FF430
:102C5000807254A1574804F0B4FE0020564A0B235A
:102C6000CDE901200093039003464FF4807253A1F5
:102C7000564804F0A6FE00204F4A0A23CDE9012061
:102C8000009303900346802251A1554804F099FE19
:102C90000020544A0D23CDE9012000930390034600
:102CA0004FF4007250A1544804F08BFE0020534AA8
:102CB0000C23CDE901200093039003464FF480726A
:102CC0004FA1534804F07DFE0020464A0C23CDE975
:102CD00001200093039003464FF480724DA15048A9
:102CE00004F06FFE0020454A0C23CDE9012000933B
:102CF000039003464FF480724AA14D4804F061FEF0
:102D000000204C4A0A23CDE901200093039003469A
:102D10004FF4807248A14C4804F053FE0020454A0D
:102D20000A23CDE901200093039003464FF48072FB
:102D300033A1464804F045FE1FBD012080F31088F2
:102D400000BF01F0E5F800F0B3F8FFF75CFFFFF714
:102D50002DFF05F016FB00BFFEE700005C00002021
:102D60006000002064000020680000206C0000204B
:102D700070000020740000202C0000205461736B50
:102D8000204C656400000000A38F00083000002084
:102D90005461736B204B657900000000658E00085C
:102DA000440000205461736B20446973706C617936
:102DB0000000000065940008480000205461736B17
:102DC000204D6F76654374726C000000539C0008C0
:102DD0005461736B2044697374616E636500000015
:102DE00075A90008340000205461736B205561728E
:102DF000743152780000000005910008380000206E
:102E00005461736B20556172743154780000000076
:102E1000359100085461736B2043616E5278000055
:102E200081A200085461736B2043616E54780000E6
:102E3000B1A20008500000205461736B2053656EEE
:102E40006444617461000000D7A2000895910008F5
:102E500010B50023012244F620610A4801F0A4FBCA
:102E600010BD10B501210748FFF745FC40B10648E9
:102E70000068401C0449086001210248FFF74CFC2F
:102E800010BD0000001000407800002070B504461E
:102E9000049D601AEE1A7043561A90FBF6F018441F
:102EA00070BD0146002901DA484200E0084670473B
:102EB00010B506F00FFB10BD30B503460C460021DF
:102EC0001AE0585C2578A84200D014E0002206E001
:102ED000521CA05C8D185D5DA84200D005E0A05C8E
:102EE00018B18818185C0028F2D100BFA05C08B99E
:102EF000084630BD00BF491C585C0028E1D1401E87
:102F0000F7E72DE9FE4304460E464FF00009002086
:102F100000900190029031462046FFF7CDFF054614
:102F20006019D0F803100091C0798DF80400601981
:102F300080782B2807D168460EF029FD07460EF051
:102F40000DF8814608E068460EF021FD81F0004151
:102F500007460EF003F881464846BDE8FE832DE99A
:102F6000F84306460F4614461D46A0460020009032
:102F7000322130460DF079FD4FEA18608DF80000DF
:102F80002A46394630460DF057FD0020BDE8F8834B
:102F9000FEB505460F4616461C46002000900190DF
:102FA0000290322128460DF060FD002E08DD2246F9
:102FB000394628460DF040FDFBA10978295508E067
:102FC0002246394628460DF037FDF8A109782955E3
:102FD00076423246F6A168460EF086FBF5488642F8
:102FE0000ADA42F20F70864206DD28190099C0F80D
:102FF00001109DF80410417142F2107086420ADA05
:10300000B6F57A7F07DB2819EBA1097841702819FA
:103010000099C0F80210B6F57A7F0EDA632E0CDD47
:103020002819E6A10988A0F801102819BDF8001098
:10303000A0F803109DF802104171642E0CDA092EDD
:103040000ADD2819DEA10A88A0F801208978C1705C
:103050002819BDF8001081800A2E08DA2819D9A194
:103060000968C0F8011028199DF80010417123204B
:10307000291988710020FEBD10B502460B46144682
:10308000002107E0605C984200D002E06218002056
:1030900010BD491C3229F5DB0120F9E72DE9F0418B
:1030A0008AB004460D4616461F46DDF840802420AF
:1030B0008DF804008DF805408DF8065003208DF83A
:1030C000070000208DF808008DF809608DF80A705F
:1030D0000023424601A9BD48006804F067F80AB021
:1030E000BDE8F0812DE9F04389B004460D4616464F
:1030F0001F46DDE9108924208DF800008DF801407D
:103100008DF8025008F10200C0B28DF803000120D2
:103110008DF804008DF80560424639460DF1060031
:103120000DF08AFC00234A466946A848006804F06E
:103130003DF809B0BDE8F083F0B589B004460F460C
:1031400015461E4624208DF8000050208DF8010001
:103150008DF8024003208DF8030000208DF8040054
:103160008DF805708DF80650002332466946974861
:10317000006804F01BF809B0F0BD2DE9F0418AB0F9
:1031800005460E4617461C46DDF8408024208DF883
:10319000040050208DF805008DF80650A01CC0B228
:1031A0008DF8070001208DF808008DF8096022468F
:1031B00039460DF10A000DF03FFC0023424601A9FB
:1031C0008248006803F0F2FF0AB0BDE8F08170B5F4
:1031D000044624212046FFF74FFFA07801287DD127
:1031E000607850285DD1207900285BD1607905286E
:1031F00004D0062820D0322853D141E0A0790128FC
:1032000001D173498870A079022802D10120714947
:103210008870A079032802D101206F498870A079B5
:10322000042802D101206D498870A079052802D1B7
:1032300001206B49887034E0A079012803D11E2158
:10324000312005F026FEA079022803D11E2132206C
:1032500005F01FFEA079032803D11E21332005F0BD
:1032600018FEA079042803D11E21342005F011FE98
:10327000A079052803D11E21352005F00AFE10E0B3
:10328000A079012804D120215648006803F0ABFC46
:10329000A079022804D140215248006803F0A3FC21
:1032A00000BF73E02079012870D16079012802D035
:1032B00002286AD142E0607A0106207A41EA0041A0
:1032C000E07941EA0020A17940EA01052846FFF7AC
:1032D000E8FD40F6B831884203DA00E063E0424896
:1032E0000560607B0106207B41EA0041E07A41EA0B
:1032F0000020A17A40EA01052846FFF7D2FD40F6FA
:10330000B831884201DA38484560607C0106207C8B
:1033100041EA0041E07B41EA0020A17B40EA01054F
:103320002846FFF7BEFD40F6B831884201DA2E4844
:10333000856005F054F82D49086026E0A079012841
:1033400002D0112820D10FE0E07929494870607B34
:103350000106207B41EA0041E07A41EA0020A17A9F
:103360000843234948600FE0E07922494870607BB8
:103370000106207B41EA0041E07A41EA0020A17A7F
:1033800008431C49486000BF00BF00BF60780328A5
:1033900009D1207938B9607933287DD1A079C13835
:1033A0000A2877D228E078E02B0000002D000000EA
:1033B000256C6400A0860100300000003030000061
:1033C000303030003030303000000000600000202D
:1033D000E0000020F4000020080100201C01002073
:1033E000300100207000002038830020740200208B
:1033F000440100208C010020DFE800F0050C131AC6
:1034000021282F363D454FF40061FE48006803F047
:10341000EAFB3FE04FF48051FA48006803F0E3FB19
:1034200038E04FF40051F748006803F0DCFB31E06E
:103430004FF48041F348006803F0D5FB2AE04FF4D5
:103440000041F048006803F0CEFB23E04FF48031E8
:10345000EC48006803F0C7FB1CE04FF40031E9487A
:10346000006803F0C0FB15E04FF48021E5480068D8
:1034700003F0B9FB0EE04FF40021E248006803F0CE
:10348000B2FB07E008E04FF48011DE48006803F06B
:10349000AAFB00BF00BF00BF00BF70BD2DE9F04117
:1034A0000446207A00287AD120683128FBD1E07ABE
:1034B0000328F8D1207B0128F5D1607B112806D0A4
:1034C00012286DD013286CD014286BD17EE1A07B1C
:1034D000822868D00EDC722849D006DC112816D06C
:1034E000122879D0712829D129E0732875D0812834
:1034F000F9D176E09C2871D004DC83286FD09B281A
:10350000F1D151E0A12876D0A228ECD1C7E0A17C6E
:103510000A06617C42EA0142217C42EA0121E27B07
:1035200041EA02000DF0DCFC07460022B64B0DF02C
:103530005AFC05460DF044FDB4490860B6E0A17C94
:103540000A06617C42EA0142217C42EA0121E27BD7
:1035500041EA02000DF0C4FC07460022AA4B0DF020
:1035600042FC05460DF02CFDA84908619EE0A17CB7
:103570000A06617C42EA0142217C42EA0121E27BA7
:1035800041EA02000DF0ACFC074600229E4B0DF014
:103590002AFC05460DF014FD9C49486186E08EE149
:1035A00086E0DDE08AE121E0A17C0A06617C42EA56
:1035B0000142217C42EA0121E27B41EA02000DF056
:1035C0008FFC07460022904B0DF00DFC05460DF0D8
:1035D000F7FC8E49886069E014E02BE042E059E096
:1035E00009E0E07B894981F820005FE0E07B8749C2
:1035F00081F821005AE0E17B207C41EA00208349E8
:10360000888353E0A17C0A06617C42EA0142217C66
:1036100042EA0121E27B41EA02000DF061FC07462B
:103620000022794B0DF0DFFB05460DF0C9FC774910
:1036300048603BE0A17C0A06617C42EA0142217CB1
:1036400042EA0121E27B41EA02000DF049FC074613
:1036500000226D4B0DF0C7FB05460DF0B1FC6B4928
:10366000886123E0A17C0A06617C42EA0142217C58
:1036700042EA0121E27B41EA02000DF031FC0746FB
:103680000022614B0DF0AFFB05460DF099FC5F4940
:10369000C8600BE0E07B5D4981F8220006E0E17B39
:1036A000207C41EA00205949C88300BF00BF05E1E2
:1036B000A07B132806D070281CD080284AD09128DF
:1036C0004CD12FE0A17C0A06617C42EA0142217CB8
:1036D00042EA0121E27B41EA02000DF001FC0746CB
:1036E0000022494B0DF07FFB05460DF069FC48496F
:1036F000086033E0A17C0A06617C42EA0142217C39
:1037000042EA0121E27B41EA02000DF0E9FB0746B3
:1037100000223D4B0DF067FB05460DF051FC3C4986
:1037200048601BE0A17C0A06617C42EA0142217CE0
:1037300042EA0121E27B41EA02000DF0D1FB07469B
:103740000022314B0DF04FFB05460DF039FC30499E
:10375000886003E0E07B2E49087300BF00BFADE046
:10376000A07B74281AD006DC142809D015280ED0A6
:10377000162829D120E0752817D0802824D11FE0F1
:10378000E17B207C41EA0020224908801CE0E17BAB
:10379000207C41EA00201F49488015E0E17B207C25
:1037A00041EA00201B4988800EE0E17B207C41EA51
:1037B00000201849C88007E0E07B1649087203E042
:1037C000E07B1449487200BF00BF77E0A07B11285E
:1037D00042D0122858D0172802D018286CD123E0E4
:1037E000A17C0A06617C42EA0142217C42EA012175
:1037F000E27B41EA02000DF073FB07460022024B18
:103800000AE000007000002000005940B4020020CF
:10381000D8020020E80200200DF0E5FA05460DF080
:10382000CFFBF749486047E0A17C0A06617C42EA89
:103830000142217C42EA0121E27B41EA02000DF0D3
:103840004FFB07460022EF4B0DF0CDFA05460DF079
:10385000B7FBEB49C8602FE0A17C0A06617C42EA15
:103860000142217C42EA0121E27B41EA02000DF0A3
:1038700037FB07460022E34B0DF0B5FA05460DF085
:103880009FFBDF49086017E0A17C0A06617C42EAE1
:103890000142217C42EA0121E27B41EA02000DF073
:1038A0001FFB07460022D74B0DF09DFA05460DF091
:1038B00087FBD349886000BF00BF00BF00BF207AEC
:1038C00078BB206832285AD1E07A032857D1207B70
:1038D000012854D1607B212804D022281BD0232822
:1038E0004CD132E0A07B212802D0222811D103E064
:1038F000E07BC54948700CE0A07C0106607C41EA91
:103900000041207C41EA0020E17B0843BE49486039
:1039100000BF00BF32E0A07B212803D0222812D1B3
:1039200004E02CE0E07BB94948700CE0A07C010683
:10393000607C41EA0041207C41EA0020E17B0843B1
:10394000B249486000BF00BF18E0A07B212802D028
:10395000222811D103E0E07BAD4948700CE0A07C47
:103960000106607C41EA0041207C41EA0020E17BC5
:103970000843A749486000BF00BF00BF00BF207ACE
:10398000A8BB206833283DD1E07A03283AD1207BB8
:10399000012837D1607B3138052832D2DFE800F0CA
:1039A000030C151E2800A07B312803D1E07B994928
:1039B000887000BF00BF24E0A07B312803D1E07BEA
:1039C0009549887000BF00BF1BE0A07B312803D160
:1039D000E07B9249887000BF00BF12E0A07B3128D5
:1039E00003D1E07B8E49887000BF00BF09E009E089
:1039F000A07B312803D1E07B8A49887000BF00BFDB
:103A000000BF00BF207A002876D120683428FBD17F
:103A1000E07A0328F8D1207B0128F5D1607B41288A
:103A200002D0422869D19DE0A07B45283DD00CDC26
:103A3000422820D004DC11286DD041281AD10DE095
:103A4000432825D0442815D13CE0462847D04728B4
:103A500054D0482878D049280CD17AE0A07C0106BF
:103A6000607C41EA0041207C41EA0020E17B084380
:103A70006D49086074E0A07C0106607C41EA004169
:103A8000207C41EA0020E17B08436749486067E009
:103A9000A07C0106607C41EA0041207C41EA0020D4
:103AA000E17B0843604988605AE0A07C0106607CA5
:103AB00041EA0041207C41EA0020E17B08435A4969
:103AC000C8604DE0A07C0106607C41EA0041207C9A
:103AD00041EA0020E17B08435349086140E0A07CB3
:103AE0000106607C41EA0041207C41EA0020E17B44
:103AF00008434D49486133E0EBE0E9E0A07C010672
:103B0000607C41EA0041207C41EA0020E17B0843DF
:103B10004549886124E0A17C0A06617C42EA0142B1
:103B2000217C42EA0121E27B41EA02000DF0D8F952
:103B300007460022334B0DF056F905460DF040FACA
:103B40003949C8610CE0FFE7E07B374981F8200084
:103B500006E0E17B207C41EA00203349488400BF35
:103B600000BFB5E0A07B45283DD00CDC422820D02A
:103B700004DC112876D041281AD10DE0432825D045
:103B8000442815D154E046285FD047286DD04828F6
:103B90006AD049280CD192E0A07C0106607C41EA01
:103BA0000041207C41EA0020E17B08431F49086076
:103BB0008CE0A07C0106607C41EA0041207C41EA67
:103BC0000020E17B0843194948607FE0A07C0106A2
:103BD000607C41EA0041207C41EA0020E17B08430F
:103BE0001249886072E0A07C0106607C41EA0041D5
:103BF000207C41EA0020E17B08430C49C86065E075
:103C0000F402002000005940940000209C00002095
:103C1000A4000020E0000020F400002008010020A3
:103C20001C01002030010020040300202803002094
:103C3000A07C0106607C41EA0041207C41EA002032
:103C4000E17B08436D49086140E0A07C0106607C8F
:103C500041EA0041207C41EA0020E17B08436749BA
:103C6000486133E00EE000E024E0A07C0106607CC7
:103C700041EA0041207C41EA0020E17B08435F49A2
:103C8000886123E0A17C0A06617C42EA0142217C32
:103C900042EA0121E27B41EA02000DF021F90746E8
:103CA0000022574B0DF09FF805460DF089F9534956
:103CB000C8610BE0E07B514981F8200006E0E17B20
:103CC000207C41EA00204D49488400BF00BF00BF6E
:103CD00000BF207A90BB206835282FD1E07A0328D6
:103CE0002CD1207B01284FD1607B512802D0522853
:103CF00049D124E0A07B513805281DD2DFE800F02F
:103D000003080D121700E07B3E4981F8480013E0DC
:103D1000E07B3C4981F849000EE0E07B394981F8BD
:103D20004A0009E0E07B374981F84B0004E0E07B82
:103D3000344981F84C0000BF00BF24E05BE0A07B69
:103D4000513805281DD2DFE800F003080D121700D6
:103D5000E07B2D4981F8480013E0E07B2A4981F897
:103D600049000EE0E07B284981F84A0009E0E07B49
:103D7000254981F84B0004E0E07B234981F84C00A1
:103D800000BF00BF00BF00BF207BA0BB607B5128ED
:103D900030D1A07B502802D05A2829D105E08021BB
:103DA0001A48006802F01FFF22E0E07B30B10128D2
:103DB0000AD002280ED0032818D111E00821134898
:103DC000006802F010FF11E010211048006802F0B6
:103DD0000AFF0BE020210D48006802F004FF05E017
:103DE00040210A48006802F0FEFE00BF00BF00BF8D
:103DF00000BF00BF00BFBDE8F08100002803002025
:103E00000000594060830020B0830020740000202F
:103E10000120134908700220487064204860112076
:103E200010490870022048706420486001200E4943
:103E30000870022048706420486002200B49087016
:103E400048706420486011200949087002204870B9
:103E500064204860704710B5FFF7DAFF10BD00001E
:103E6000840000208C000020940000209C00002092
:103E7000A400002010B504F0B2FA04490860002044
:103E8000087103498860C86010BD0000AC000020C4
:103E9000B40200201949096841F08071174A116085
:103EA0001749096841F00101154A11601549086078
:103EB000704770B50446124845681248006810B94A
:103EC0001148FFF7E7FF0F480068104990FBF1F039
:103ED00000FB04F6AB19AB4205DD00BF08484068A3
:103EE0009842FBD309E000BF054840689842FBD2E6
:103EF00000BF034840689842FBD370BDFCED00E072
:103F0000001000E0D800002000A24A0440420F0048
:103F100010B54FF44070FCF757FA1448FFF7BAFF9A
:103F200001F0C3FB052000F028FD00F058FC42F230
:103F30001070FFF7BEFF002141F61F4001F0FEFCAC
:103F400042F21070FFF7B5FF01F006FE01F064FECB
:103F500001F0ACFE01F0F4FE00F01CF802F04EF8A7
:103F600002F0ABF902F00DF810BD000000A24A0407
:103F700038B504460121A068FDF760FC208A80B2B4
:103F8000ADF8000028208DF803006946E068FDF7D1
:103F900099F938BD10B53748FFF7EAFF3648FFF703
:103FA000E7FF3648FFF7E4FF3548FFF7E1FF354804
:103FB000FFF7DEFF10BD10B50446A088401CA080AE
:103FC000607820B1012812D002284FD120E0228A47
:103FD00091B2E068FDF709FA30B901206070002065
:103FE000A080A071A07001E00020A0803FE0228AA4
:103FF00091B2E068FDF7F9F910B90220607006E0AF
:104000000020607020490870A070A080A0712EE090
:10401000228A91B2E068FDF7E8F9012819D1A08859
:10402000322805DA2078184908700120A07003E0D2
:10403000002015490870A070E079012802D1002005
:10404000E07101E00120E07100206070A080A071AB
:104050000BE0A088322801DD0220A070A08841F288
:104060008831884201DD0846A08000E000BF00BF23
:1040700010BD0000E0000020F40000200801002036
:104080001C01002030010020DC000020014600203F
:10409000FE4A914201D104201CE0FD4A914201D127
:1040A000082017E0FB4A914201D1102012E0FA4AA1
:1040B000914201D120200DE0F84A914201D14020E7
:1040C00008E0F74A914201D1802003E0F54A91428D
:1040D00000D18815704701460020F34A914201D172
:1040E000C81442E0F14A914201D148143DE0F04A3F
:1040F000914202D14FF4002037E0EE4A914202D1C2
:104100004FF4801031E0EC4A914202D14FF400109C
:104110002BE0B1F1804F01D1012026E0E74A914226
:1041200001D1022021E0E64A914201D104201CE0A5
:10413000E44A914201D1082017E0E34A914201D1BB
:10414000102012E0E14A914201D120200DE0E04A26
:10415000914201D1402008E0DE4A914201D1802005
:1041600003E0DD4A914200D1881570472DE9F843FC
:1041700006460D46144698463046FFF787FF074629
:104180000121FDF75BFBC848844202D0C748844246
:1041900007D12046FFF79FFF07460121FDF74EFBA1
:1041A00006E02046FFF797FF07460121FDF753FB86
:1041B000ADF8005018208DF8030003208DF80200A0
:1041C00069463046FDF77EF8BDE8F883F8B5054648
:1041D0000C462846FFF75AFF06460121FDF72EFB45
:1041E000ADF8004010208DF8030003208DF8020088
:1041F00069462846FDF766F8F8BD2DE9FF4F87B000
:10420000834614461D46DDE9146ABAF1000F0FD14A
:1042100000212046FDF7A6FF58460899FFF7D6FF74
:10422000002258460899FDF7FEF80BB0BDE8F08F64
:1042300042F2107082450DD100212046FDF792FF19
:1042400058460899FFF7C2FF012258460899FDF722
:10425000EAF8EAE72B46224658460899FFF786FF18
:10426000914884420BD09148844208D090488442BF
:1042700005D09048844202D08F48844203D19748A9
:10428000D0F8008002E09548D0F80080642E0AD271
:1042900042F20F7942F21070B8FBF0F0B0FBF6F08A
:1042A000401E87B213E040F6B830864209D24FF084
:1042B00063096420B8FBF0F0B0FBF6F0401E87B253
:1042C00005E04FF00009B8FBF6F0401E87B2ADF8EC
:1042D0001470ADF810900020ADF81600ADF8120083
:1042E0008DF8180004A92046FDF7E0FB6846FDF7AD
:1042F00012FF6020ADF800000120ADF802000AFBBB
:1043000007F042F21071B0FBF1F080B2ADF8060098
:104310000020ADF80800ADF80400ADF80A00ADF8D3
:104320000C00ADF80E00012D08D169462046FDF7BE
:10433000FAFB08212046FEF745F81FE0022D08D1C0
:1043400069462046FDF731FC08212046FEF743F878
:1043500014E0032D08D169462046FDF773FC0821BF
:104360002046FEF745F809E0042D07D169462046AE
:10437000FDF7B3FC08212046FEF743F80121204653
:10438000FDF7F0FF01212046FDF7ECFE4648844290
:1043900002D04648844203D101212046FDF7EEFEBB
:1043A00000BF42E72DE9FF4F87B0834614461D4604
:1043B000DDE9146ABAF1000F0FD100212046FDF7A4
:1043C000D1FE58460899FFF701FF00225846089988
:1043D000FDF729F80BB0BDE8F08F42F2107082456E
:1043E0000DD100212046FDF7BDFE58460899FFF784
:1043F000EDFE012258460899FDF715F8EAE72B462D
:10440000224658460899FFF7B1FE274884420BD050
:104410002648844208D02648844205D02548844254
:1044200002D02548844203D12C48D0F8008002E015
:104430002A48D0F80080642E0AD242F20F7942F264
:104440001070B8FBF0F0B0FBF6F0401E87B213E03E
:1044500040F6B830864209D24FF063096420B8FBB9
:10446000F0F0B0FBF6F0401E87B205E04FF0000917
:10447000B8FBF6F0401E87B2ADF81470ADF810909E
:104480000020ADF81600ADF8120029E00008014048
:10449000000C0140001001400014014000180140D0
:1044A000001C014000200140002C0140003401406C
:1044B000004C014000500140005401400004004005
:1044C00000080040000C00400010004000140040B4
:1044D00000180040001C00400020004000000020A8
:1044E0008DF8180004A92046FDF7E0FA6846FDF7AC
:1044F00012FE6020ADF800000020ADF802000AFBBB
:1045000007F042F21071B0FBF1F080B2ADF8060096
:104510000020ADF808000420ADF804000020ADF83C
:104520000A00ADF80C00ADF80E00012D08D1694667
:104530002046FDF7F8FA08212046FDF743FF1FE06B
:10454000022D08D169462046FDF72FFB08212046A1
:10455000FDF741FF14E0032D08D169462046FDF721
:1045600071FB08212046FDF743FF09E0042D07D128
:1045700069462046FDF7B1FB08212046FDF741FFC3
:1045800001212046FDF7EEFE01212046FDF7EAFD60
:104590007D48844202D07D48844203D101212046D7
:1045A000FDF7ECFD00BF15E72DE9FF5F04460D4662
:1045B00091469A467448844202D07448844207D196
:1045C0002046FFF788FD83460121FDF737F906E015
:1045D0002046FFF780FD83460121FDF73CF9002DC1
:1045E00041D100212046FDF7BDFDAB46664884421F
:1045F00002D14FF0190B28E0B4F1804F02D14FF0F7
:104600001C0B22E06248844202D14FF01D0B1CE0DB
:104610006048844202D14FF01E0B16E05E4884428F
:1046200002D14FF0320B10E05C48844202D14FF0CF
:10463000360B0AE05A48844202D14FF0370B04E0AF
:104640005248844201D14FF02C0B8DF800B08DF808
:1046500001908DF802A000208DF803006846FBF75A
:10466000B8FEBDE8FF9F484884420BD047488442CB
:1046700008D04C48844205D04B48844202D04B4875
:10468000844202D14A48066801E049480668642D20
:104690000AD242F20F7842F21070B6FBF0F0B0FB93
:1046A000F5F0401E87B213E040F6B830854209D2DB
:1046B0004FF063086420B6FBF0F0B0FBF5F0401E4D
:1046C00087B205E04FF00008B6FBF5F0401E87B258
:1046D000ADF80870ADF804800020ADF80A00ADF820
:1046E00006008DF80C0001A92046FDF7DFF9012135
:1046F0002046FDF737FE012211462046FDF74DFD0D
:1047000001212046FDF72EFD4FF0000B1E4884428C
:1047100002D14FF0190B28E0B4F1804F02D14FF0D5
:104720001C0B22E01A48844202D14FF01D0B1CE002
:104730001848844202D14FF01E0B16E016488442FE
:1047400002D14FF0320B10E01448844202D14FF0F6
:10475000360B0AE01248844202D14FF0370B04E0D6
:104760000A48844201D14FF02C0B8DF800B08DF82F
:1047700001908DF802A001208DF803006846FBF738
:1047800028FE00BF6DE70000002C0140003401400E
:104790000004004000080040000C004000100040F1
:1047A00000140040004C0140005001400054014002
:1047B0000000002038B504460121E068FDF73EF80E
:1047C000A08A80B2ADF8000010208DF8030003200D
:1047D0008DF8020069462069FCF774FD38BD10B5FC
:1047E0002348FFF7E7FF2348FFF7E4FF204A928AB8
:1047F00091B21F4A1069FCF714FE1E4A928A91B2C8
:104800001C4A1069FCF70DFE10BD19B9D0E904234C
:10481000136112E0002903DAD0E9042353610CE0AC
:104820008268521C82608A4207DB0269D26843694F
:104830005A400369DA6000228260704719B9D0E9F2
:104840000423536112E0002903DAD0E90423136141
:104850000CE08268521C82608A4207DB0269D268DF
:1048600043695A400369DA600022826070470000A1
:10487000440100208C01002038B504460E208DF83C
:10488000000006208DF8010000208DF802000120B4
:104890008DF803006846FBF79CFD25208DF800008D
:1048A0008DF8014000208DF8020001208DF80300F2
:1048B0006846FBF78EFD38BD00B58BB00121084678
:1048C000FCF7AFFF0021CD48FCF7B1FBCB48FCF76C
:1048D000E1FACB480090CB480190102002903220A2
:1048E00003900020049080200590002006900790FF
:1048F00008904FF44050099000200A906946BF4844
:10490000FCF76AFB4FF48050FCF7C0FB0021BB486A
:10491000FCF78DFB01220221B848FCF794FB002133
:10492000B6481430FCF783FBB4481430FCF7B2FAF5
:10493000B3480090B44801900020029032200390C8
:104940000020049080200590002006900790089099
:104950004FF44050099000200A906946A74814304F
:10496000FCF73AFB4FF48030FCF790FB0121A348A1
:104970001430FCF75CFB0BB000BD10B586B00446EC
:1049800001210420FCF75AFF01218803FCF756FFA0
:104990004FF40070ADF8140018208DF817000320B4
:1049A0008DF8160005A99948FCF78CFC4FF480603F
:1049B000ADF8140004208DF8170005A99348FCF702
:1049C00081FC2046FFF758FFFFF776FF4FF4E130F8
:1049D00001900020ADF80800ADF80A00ADF80C0019
:1049E000ADF810000C20ADF80E0001A98448001F9E
:1049F000FDF7D9FE012240F224418148001FFDF756
:104A00006AFF01217E48001FFDF759FF0122802126
:104A10007B48001FFDF784FF012240217848001FDA
:104A2000FDF77EFF06B010BD10B5044601207849A1
:104A3000087072484438846401217048FCF7F7FA22
:104A400010BD10B54FF48050FCF72BFB50B1002087
:104A50006F4908704FF48050FCF718FB002167483D
:104A6000FCF7E5FA10BD08B50020009040F22441A3
:104A70006348001FFEF714F8D8B340F224416048A1
:104A8000001FFEF737F85E48001FFDF789FF102171
:104A90005B48001FFDF7FBFF002158481430FCF76E
:104AA000C6FA4FF48030FCF7F1FA54481430FCF7A2
:104AB000D5FAC0F132005749087032204F494439C5
:104AC000C86500236A4650495348006802F002FC5A
:104AD00032214D480BF0C9FF4B48484944394866DC
:104AE000012146481430FCF7A2FA4548001FFDF7A3
:104AF00057FF009818B14FF080504849086008BD32
:104B000070B505460C46002C03DA28460BF0B8FFBA
:104B100004B200BF3E4800780028FBD13949214447
:104B200048702246294637480BF086FFA0B2FFF7AF
:104B30007BFF70BD70B504460D4629462046FDF743
:104B40002BFF00BF80212046FDF794FF0028F9D0FD
:104B500070BD70B506460C46002500BF615D30464D
:104B6000FFF7E8FF6D1C605D0028F7D100BF402112
:104B70003046FDF77FFF0028F9D070BD2DE9F041E8
:104B800005460C46260AE7B231462846FDF704FFE3
:104B900000BF80212846FDF76DFF0028F9D0394677
:104BA0002846FDF7F9FE00BF80212846FDF762FF89
:104BB0000028F9D0BDE8F08170B504460D46E1B299
:104BC0000F48001FFDF7E8FE00BF80210C48001FC2
:104BD000FDF750FF0028F8D0204670BD10B5044600
:104BE00000BF20210648001FFDF744FF0028F8D031
:104BF0000348001FFDF7D4FE10BD00004400024032
:104C0000043801404C0300207E03002000080140CE
:104C1000A4010020A50100205C00002004ED00E0BC
:104C200070B504460E462EB14FF48061FA48FCF789
:104C3000F6FB04E04FF48061F748FCF7F2FB002537
:104C400019E00421F548FCF7ECFB04F0800028B1E2
:104C50004FF48051F048FCF7E2FB04E04FF4805140
:104C6000ED48FCF7DEFB0421EC48FCF7D8FB6006BE
:104C7000040E681CC5B2082DE3DB4FF48061E648E2
:104C8000FCF7CDFB70BD70B504460D4605F1B001D3
:104C9000C8B20021FFF7C4FFA11CC1F3031141F00A
:104CA00010000021FFF7BCFFA11C01F00F00002144
:104CB000FFF7B6FF70BDF0B5144600267F2801DC73
:104CC0003F2900DDF0BD0B46CF1701EB5777FF10F2
:104CD000C7F10707FAB2CF1701EB5777FF10A1EB27
:104CE000C707FDB2C5F107070123BB40DEB24CB1D7
:104CF000CB4B03EBC0039B5C3343C94F07EBC007AF
:104D0000BB5408E0C64B03EBC0039B5CB343C44FEA
:104D100007EBC007BB5400BFD4E770B502460025BF
:104D2000C1F13F00C1B20846CE1701EB5676F31031
:104D3000CE1701EB5676F610A1EBC606F4B20120B1
:104D4000A040C5B2B64800EBC200C05C284008B124
:104D5000012070BD0020FCE710B500218D20FFF779
:104D60005FFF00211420FFF75BFF0021AF20FFF75A
:104D700057FF10BD10B500218D20FFF751FF002116
:104D80001020FFF74DFF0021AE20FFF749FF10BDB7
:104D900070B500241CE004F1B001C8B20021FFF797
:104DA0003FFF00210220FFF73BFF00211020FFF70B
:104DB00037FF002508E09A4901EBC501085D012194
:104DC000FFF72EFF681CC5B2802DF4DB601CC4B257
:104DD000082CE0DB70BD70B500240CE0002506E077
:104DE00000208F4901EBC5010855681CC5B2802D14
:104DF000F6DB601CC4B2082CF0DBFFF7C9FF70BD06
:104E000070B500240CE0002506E0FF20844901EB8A
:104E1000C5010855681CC5B2802DF6DB601CC4B204
:104E2000082CF0DBFFF7B4FF70BD2DE9F047064614
:104E30000F4690469946DDF820A034460CE03D46EA
:104E400006E0524629462046FFF735FF681CC5B2EA
:104E50004D45F6DD601CC4B24445F0DDBDE8F08789
:104E60002DE9FF4F82B007460C46904600250026EC
:104E7000A9460097A3460598012802D0022852D1DE
:104E800052E0B8F1000F4ED0A8F12000C5B265483D
:104E90000078012804D1002D02DB6249087002E08D
:104EA0000020604908707E2F02DD0027601CC4B21C
:104EB000002636E005EB45005B4901EB400010F8A9
:104EC00006A04FF0000926E00AF0800058B15548CE
:104ED000007808B9012000E000200246214638464B
:104EE000FFF7E9FE05E04F48027821463846FFF714
:104EF000E2FE4FEA4A604FEA106A601CC4B2A4EBBB
:104F00000B00082803D15C46781CC7B206E009F103
:104F1000010000F0FF09B9F1080FD5DB00BF701CDC
:104F2000C6B2062EC6DB73E0B8F1000F6FD0A8F151
:104F30002000C5B23B480078012804D1002D02DBD7
:104F40003849087002E0002036490870782F02DDE9
:104F50000027601CC4B2002657E006EB0510334959
:104F600011F800A006EB05100830085C01904FF026
:104F7000000944E00AF0800058B12A48007808B9D6
:104F8000012000E00020024621463846FFF793FE4C
:104F900005E02448027821463846FFF78CFE019848
:104FA00000F0800068B11F48007808B9012000E0D7
:104FB00000200246A4F10800C1B23846FFF77BFE8C
:104FC00007E0A4F10800C1B2164802783846FFF79E
:104FD00072FE4FEA4A604FEA106A01984006000EDE
:104FE0000190601CC4B2A4EB0B00082803D15C46FE
:104FF000781CC7B206E009F1010000F0FF09B9F121
:10500000080FB7DB00BF701CC6B2082EA5DB00BFBF
:1050100000BF06B0BDE8F08F001001400014014051
:10502000B0030020A7010020B8190108E01B010807
:105030002DE9F04107460E469046002500244546DE
:10504000FE480078012804D1002D02DBFB490870DE
:1050500002E00020F9490870782F02DD0027701C5B
:10506000C6B231463846FFF70EFE002408E004EBD6
:105070008511F34A505C0121FFF7D2FD601CC4B2D8
:10508000082CF4DB07F10801C8B23146FFF7FBFD3D
:10509000002409E004EB85110831E94A505C012144
:1050A000FFF7BEFD601CC4B2082CF3DB701CC1B25C
:1050B0003846FFF7E8FD002409E004EB85111031C4
:1050C000DF4A505C0121FFF7ABFD601CC4B2082C25
:1050D000F3DB721CD1B207F10802D0B2FFF7D3FDA7
:1050E000002409E004EB85111831D54A505C0121F8
:1050F000FFF796FD601CC4B2082CF3DBB01CC1B2F4
:105100003846FFF7C0FD002409E004EB851120318B
:10511000CB4A505C0121FFF783FD601CC4B2082C10
:10512000F3DBB21CD1B207F10802D0B2FFF7ABFD3E
:10513000002409E004EB85112831C14A505C0121AB
:10514000FFF76EFD601CC4B2082CF3DBF01CC1B28B
:105150003846FFF798FD002409E004EB8511303153
:10516000B74A505C0121FFF75BFD601CC4B2082CFC
:10517000F3DBF21CD1B207F10802D0B2FFF783FDD6
:10518000002409E004EB85113831AD4A505C01215F
:10519000FFF746FD601CC4B2082CF3DBBDE8F081CC
:1051A00010B50246012000E050430B00A1F10104BC
:1051B000E1B2F9D110BD2DE9FF4F87B00646924606
:1051C0001F46DDE91494D346002004900021504688
:1051D0000BF012FF16D223462D2230460899FFF716
:1051E0003FFE012C05D104EB440006EB4000C6B2A3
:1051F00002E006EB8400C6B2781EC7B28AF0004A0D
:105200008BF0004B50460BF07CFE069000254DE0E5
:10521000781B401EC1B20A20FFF7C2FF0699B1FBFE
:10522000F0F00A21B0FBF1F201FB12080498F8B982
:10523000781EA8421CDDB8F1000F17D1012C0BD14C
:1052400004EB4401490001FB0561C8B2234620225A
:105250000899FFF705FE08E0A10001FB0561C8B24F
:10526000234620220899FFF7FBFD1DE00120049052
:10527000012C0DD108F13001CAB204EB4401490000
:1052800001FB0561C8B223460899FFF7E9FD0AE072
:1052900008F13001CAB2A10001FB0561C8B2234682
:1052A0000899FFF7DDFD00BF681CC5B2BD42AFDB4A
:1052B000B9F1000F71D0012C0BD104EB440149006E
:1052C00007FB0161C8B223462E220899FFF7C8FDEB
:1052D00008E0A10007FB0161C8B223462E2208990D
:1052E000FFF7BEFD58460BF058FE564A564BCDE927
:1052F00000010BF05FFCCDE902010BF061FE83467B
:1053000049460A20FFF74CFF00900BF0E4FD0290A5
:1053100006980BF0E0FD594600900BF016FC01904A
:1053200002990BF015FC03900BF0EBFD05900025A6
:1053300051E0A9EB0500401EC1B20A20FFF730FF83
:105340000599B1FBF0F00A21B0FBF1F201FB120864
:105350004D453EDAB8F1000F20D0012C0FD104EBFF
:1053600044014B00E919491C03FB0161C8B208F173
:105370003001CAB223460899FFF772FD29E0A30065
:10538000E919491C03FB0161C8B208F13001CAB236
:1053900023460899FFF764FD1BE01EE0012C0DD1A8
:1053A00004EB44014A00E919491C02FB0161C8B23F
:1053B000234630220899FFF753FD0AE0A200E919BD
:1053C000491C02FB0161C8B2234630220899FFF74D
:1053D00047FD681CC5B24D45ABDB0BB0BDE8F08F97
:1053E0002DE9F0470646894617461D464FF0000A4C
:1053F000002F0ADA0B2249463046FFF719FE06F164
:105400001000C6B2681EC5B27F42002435E0281BDA
:10541000401EC1B20A20FFF7C3FEB7FBF0F00A211D
:10542000B0FBF1F201FB1208BAF1000F19D1681EAE
:10543000A04216DDB8F1000F11D107E0A70100204E
:10544000D0210108F168E388B5F8E43E102101FBA2
:105450000461C8B20D224946FFF7EAFD0BE04FF0A8
:10546000010A08F0FF02102101FB0461C8B249469D
:10547000FFF7DEFD00BF601CC4B2AC42C7DBBDE875
:10548000F0872DE9F04104460F4615469846002660
:1054900015E0AA5D434639462046FFF7E1FCB8F126
:1054A000020F03D104F10800C4B201E0A01DC4B290
:1054B0007A2C02DD0024B81CC7B2701CC6B2A85DED
:1054C0000028E6D1BDE8F0812DE9F04F07460C46F3
:1054D00016460025A846A34600BF57E07000401CB2
:1054E000E34901EB401010F8059001EB861010F82D
:1054F00005A04FF0000843E009F0800058B1DD48F6
:10550000007808B9012000E0002002462146384614
:10551000FFF7D1FB05E0D748027821463846FFF770
:10552000CAFB0AF0800068B1D248007808B90120AF
:1055300000E00020024604F10800C1B23846FFF73F
:10554000BAFB07E004F10800C1B2CA480278384645
:10555000FFF7B1FB4FEA49604FEA10694FEA4A6032
:105560004FEA106A601CC4B2A4EB0B00082803D1F8
:105570005C46781CC7B206E008F1010000F0FF08A5
:10558000B8F1080FB8DB00BF681CC5B2102DA5DB51
:10559000BDE8F08F2DE9FF4F85B081460E461F46CE
:1055A000129C0396029709EB0700802803DDC7F1E0
:1055B0008000C0B2029025463019402802DDC4F1B7
:1055C0004000C5B22046E21704EB5272D2102146C9
:1055D000E31704EB5373DB10A4EBC3030BB10123FC
:1055E00000E000231A44D2B201922846EA1705EBE4
:1055F0005272D2102946EB1705EB5373DB10A5EB63
:10560000C3030BB1012300E000231A44D2B200927D
:105610004FF0000843E04FF0000A39E0019808FB22
:1056200000A1079810F801B00020049028E00BF0CA
:10563000800058B18F48007808B9012000E00020B0
:10564000024631464846FFF736FB05E089480278B6
:1056500031464846FFF72FFB4FEA4B604FEA106B8D
:10566000701CC6B20398301AA84205D1039E09F1F6
:10567000010000F0FF0906E00498401CC0B204904D
:1056800004980828D3DB00BF0AF1010000F0FF0AEC
:1056900000988245C2DB08F1010000F0FF08029883
:1056A0008045B8DB09B0BDE8F08F1FB5012110209F
:1056B000FCF7C4F84FF48060ADF8080010208DF8B6
:1056C0000B0003208DF80A0002A96B48FBF7FAFDD6
:1056D00001211020FCF7B2F84FF40060ADF804008F
:1056E00010208DF8070003208DF8060001A96248FC
:1056F000FBF7E8FD01212020FCF7A0F80420ADF81D
:105700000C0010208DF80F0003208DF80E0003A967
:105710005A48FBF7D7FD01211020FCF78FF84FF412
:105720008050ADF8000010208DF8030003208DF8A4
:10573000020069465048FBF7C5FD04214F48FBF7BE
:105740006EFE4FF480514C48FBF769FE4FF48061C8
:105750004948FBF764FE4FF400614748FBF75FFEE2
:105760004FF400614448FBF75CFE4548FEF7A1FB9F
:105770004FF400614048FBF752FE0021AE20FFF7D6
:105780004FFA00210220FFF74BFA00211020FFF70B
:1057900047FA00214020FFF743FA00218120FFF75C
:1057A0003FFA0021CF20FFF73BFA0021A120FFF7AD
:1057B00037FA0021C820FFF733FA0021A620FFF7AF
:1057C0002FFA0021A820FFF72BFA00213F20FFF736
:1057D00027FA0021D320FFF723FA00210846FFF71C
:1057E0001FFA0021D520FFF71BFA00218020FFF7C8
:1057F00017FA0021D920FFF713FA0021F120FFF753
:105800000FFA0021DA20FFF70BFA00211220FFF730
:1058100007FA0021DB20FFF703FA00214020FFF701
:10582000FFF900212020FFF7FBF900210220FFF7FC
:10583000F7F900218D20FFF7F3F900211420FFF77D
:10584000EFF90021A420FFF7EBF90021A620FFF7D4
:10585000E7F90021AF20FFF7E3F90021AF20FFF7C0
:10586000DFF9FFF7B8FA00210846FFF70CFA1FBD71
:1058700050250108A701002000100140001401403C
:10588000A086010008B501210820FBF7D7FF4FF4DF
:105890008050ADF8000003208DF8020010208DF834
:1058A00003006946A848FBF70DFD01210820FBF71E
:1058B000C5FF4FF40050ADF8000003208DF8020042
:1058C00010208DF8030069469F48FBF7FBFC01217F
:1058D0000820FBF7B3FF4FF48040ADF80000032031
:1058E0008DF8020010208DF8030069469648FBF7FA
:1058F000E9FC01210820FBF7A1FF4FF40040ADF8BF
:10590000000003208DF8020010208DF80300694686
:105910008D48FBF7D7FC01211020FBF78FFF4FF4D8
:105920007070ADF8000018208DF8030003208DF88A
:10593000020069468548FBF7C5FC08BD30B587B055
:1059400005460C46FFF79EFF01214803FBF776FF53
:10595000ADF81450ADF810400020ADF81600ADF8C9
:10596000120004A97A48FCF7A1F86020ADF8000005
:105970000120ADF802000020ADF80600ADF80800E7
:1059800073481830008840F0600071491831088071
:105990000846008840F4C0400880081D008840F098
:1059A0006000091D08800846008840F4C040088057
:1059B000081D008840F00100091D08800846008885
:1059C00040F0100008800846008840F4807008808D
:1059D0000846008840F48050088008215C48FCF7A5
:1059E000F1FC08215A48FCF7F6FC08215848FCF75E
:1059F000FFFC08215648FCF704FD01215448FCF740
:105A0000B1FC01215248FCF7B9FB4FF4E150504979
:105A100034310880091D0880091D0880091D08808F
:105A200001214B48FCF79EFB07B030BD10B5044682
:105A3000207830B1012822D0022840D003287FD11D
:105A40005DE0A068002803DA01204249086002E016
:105A5000002040490860A068FDF723FAB0F5E15F37
:105A600004DD00203A493431088007E0A068FDF7E2
:105A700018FAC0F5E15036493431088061E0A06879
:105A8000002804DD00203349091D086003E00120DF
:105A90003049091D0860A068FDF703FAB0F5E15F21
:105AA00004DD00202A493831088007E0A068FDF7AE
:105AB000F8F9C0F5E15026493831088041E0A06886
:105AC000002804DA002023490831086003E001209F
:105AD000204908310860A068FDF7E3F9B0F5E15FFF
