:020000040800F2
:10000000685D00201D2000084120000843200008F2
:10001000472000084B2000084F2000080000000087
:100020000000000000000000000000004501000882
:100030005320000800000000890100083B4300082D
:100040003720000837200008372000083720000834
:100050003720000837200008372000083720000824
:100060003720000837200008372000083720000814
:100070003720000837200008E72B00083720000849
:1000800037200008372000083720000837200008F4
:1000900037200008372000083720000837200008E4
:1000A00037200008372000083720000837200008D4
:1000B000453F0008313F000837200008372000087E
:1000C00037200008372000083720000837200008B4
:1000D000372000080B2C00083720000837200008C4
:1000E0003720000837200008372000083720000894
:1000F0003720000837200008372000083720000884
:100100003720000837200008372000083720000873
:1001100037200008372000086F210008372000082A
:100120003720000837200008372000083720000853
:10013000DFF80CD006F0D4FE00480047E1200008AC
:10014000685D0020204B19680868B0E8F00F80F364
:100150000988BFF36F8F4FF0000080F311884EF0D5
:100160000D0E70470000000006480068006880F32C
:10017000088862B661B6BFF34F8FBFF36F8F00DFA1
:1001800000BF00BF08ED00E0EFF30980BFF36F8F01
:100190000D4B1A6820E9F00F106008B54FF0100001
:1001A00080F3118805F01BFB4FF0000080F31188ED
:1001B000BDE8084019680868B0E8F00F80F30988C6
:1001C000BFF36F8F704700BF50010020EFF3118025
:1001D0004FF0100181F31188704780F31188704748
:1001E000EFF30580704700000CB5002001900090EF
:1001F0006C48006840F480306A49086000BF694874
:10020000006800F4003000900198401C01900098B4
:1002100018B90198B0F5A06FF1D16248006800F4F8
:10022000003010B10120009001E000200090009803
:10023000012843D15C48006840F010005A4908602A
:100240000846006820F0030008600846006840F097
:1002500002000860534840685249486008464068B8
:1002600048600846406840F480604860084640683E
:1002700020F47C1048600846406840F4E81048606C
:100280000846006840F08070086000BF454800687C
:1002900000F000700028F9D04248406820F00300C8
:1002A000404948600846406840F00200486000BF8E
:1002B0003C48406800F00C000828F9D10CBD10B58E
:1002C000FFF792FF10BD10B53648006840F00100FE
:1002D000344908600846406834490840314948605C
:1002E00008460068324908402E4908600846006800
:1002F00020F4802008600846406820F4FE00486032
:100300004FF41F008860FFF7DAFF4FF000602949C3
:10031000086010BD10B5002100200022214B5B6851
:1003200003F00C0121B1042906D0082928D107E0E7
:10033000214B224C236027E01F4B204C236023E0FD
:10034000184B5B6803F47010164B5B6803F4803243
:10035000022303EB904022B9194B4343174C23600F
:100360000DE0104B5B6803F4003323B1144B43439F
:10037000124C236003E0104B4343104C236003E016
:100380000D4B0E4C236000BF00BF064B5B68C3F3F0
:1003900003130C4CE15C094B1B68CB40074C2360FA
:1003A00010BD000000100240002002400000FFF8D5
:1003B000FFFFF6FE08ED00E000127A0000000020CA
:1003C00000093D000400002031490143314A116019
:1003D000704770B5002100230F22C47804B32D4C60
:1003E000246804F4E064C4F5E064210AC1F1040364
:1003F000CA40447804FA03F1847814402143090187
:10040000254C0678A155047804F01F050124AC4062
:1004100005786D11AD0005F1E025C5F8004109E052
:10042000047804F01F050124AC401C4D06787611B9
:1004300045F8264070BD1A4A0A400243154B1B1F5F
:100440001A60704739B1134A121D12680243114BEA
:100450001B1D1A6006E00F4A121D126882430D4BE5
:100460001B1D1A607047042808D14FF0E02109696C
:1004700041F004014FF0E022116107E04FF0E0216C
:10048000096921F004014FF0E0221161704700007A
:100490000000FA050CED00E000E400E080E100E07F
:1004A00080FFFF1F01684FF6FE72114001600021BE
:1004B000016041608160C1608D49884208D18C49EA
:1004C0000839496841F00F01894A083A51608AE0C9
:1004D00087491431884208D185490839496841F073
:1004E000F001834A083A51607DE081492831884211
:1004F00008D17F490839496841F470617C4A083A5B
:10050000516070E07A493C31884208D17849083915
:10051000496841F47041764A083A516063E0744991
:100520005031884208D172490839496841F4702134
:100530006F4A083A516056E06D496431884208D1EB
:100540006B490839496841F47001694A083A5160B9
:1005500049E067497831884208D1654908394968D6
:1005600041F07061624A083A51603CE0614988425A
:1005700006D1011F096841F00F01021F116032E02E
:100580005C491431884208D15A49091F096841F071
:10059000F001584A121F116025E05649283188425F
:1005A00008D15449091F096841F47061514A121F6A
:1005B000116018E04F493C31884208D14D49091F6C
:1005C000096841F470414B4A121F11600BE0494920
:1005D0005031884207D14749091F096841F4702109
:1005E000444A121F1160704710B50022026847F696
:1005F000F0739A430C6A8B6823430C6923434C695C
:1006000023438C692343CC6923434C6A23438C6A7C
:1006100023431A430260CB6843600B6883604B68D6
:10062000C36010BD0021016041608160C160016153
:1006300041618161C161016241628162704721B1A2
:10064000026842F00102026004E002684FF6FE73A5
:100650001A40026070471AB103680B43036002E05E
:1006600003688B43036070474160704701464868E8
:1006700080B2704701460020002201F080531BB178
:100680001C4B083B1A6802E0194B083B1A6802EA47
:1006900001030BB1012000E00020704700F0805101
:1006A00019B11449091F086002E01149083948606E
:1006B000704701460020002201F080531BB10D4B12
:1006C000083B1A6802E00A4B083B1A6802EA010379
:1006D0000BB1012000E00020704700F0805119B1FB
:1006E0000449091F086002E0014908394860704761
:1006F000080002400804024010B50446CC48844279
:1007000008D10121042000F02DFB0021042000F07D
:1007100029FB46E0C748844208D10121082000F0A7
:1007200021FB0021082000F01DFB3AE0C248844272
:1007300008D10121102000F015FB0021102000F04D
:1007400011FB2EE0BD48844208D10121202000F099
:1007500009FB0021202000F005FB22E0B84884427C
:1007600008D10121402000F0FDFA0021402000F0D6
:10077000F9FA16E0B348844208D10121802000F044
:10078000F1FA0021802000F0EDFA0AE0AE48844240
:1007900007D10121801500F0E5FA0021A01500F035
:1007A000E1FA10BD10B50121084600F0DBFA002186
:1007B000012000F0D7FA10BD2DE9F04102460025D6
:1007C0000026002000230024002791F803C00CF02D
:1007D0000F0591F803C00CF0100CBCF1000F03D012
:1007E00091F802C04CEA050591F800C0BCF1000F79
:1007F00031D0146800202BE04FF0010C0CFA00F30C
:10080000B1F800C00CEA03069E4220D183004FF0ED
:100810000F0C0CFA03F7BC4305FA03FC4CEA040482
:1008200091F803C0BCF1280F06D14FF0010C0CFA6F
:1008300000FCC2F814C00AE091F803C0BCF1480FF4
:1008400005D14FF0010C0CFA00FCC2F810C0401C9E
:100850000828D1D31460B1F800C0BCF1FF0F34DD1B
:10086000546800202EE000F1080C4FF0010808FA4F
:100870000CF3B1F800C00CEA03069E4221D18300BC
:100880004FF00F0C0CFA03F7BC4305FA03FC4CEADB
:10089000040491F803C0BCF1280F05D100F1080C45
:1008A00008FA0CF8C2F8148091F803C0BCF1480FA4
:1008B00007D100F1080C4FF0010808FA0CF8C2F853
:1008C0001080401C0828CED35460BDE8F0814FF65C
:1008D000FF710180022181700421C17070470246BE
:1008E000002093680B400BB1012000E0002070470E
:1008F0000146886880B2704702460020D3680B40EA
:100900000BB1012000E0002070470146C86880B2AA
:10091000704701617047416170470AB1016100E0B1
:1009200041617047C16070474FF480320A43826171
:100930008161826182698269704702460020434B6F
:1009400018684FF68073184040EA021008433F4B86
:10095000186070473E49C8617047F0B50A460023E9
:1009600000240021002500F00046B6F1004F02D11E
:10097000364EF16901E0354E7168C0F3034583B22C
:1009800000F44016B6F5401F08D121F070612F4EDB
:10099000766826F070662D4F7E6012E000F48016B7
:1009A000B6F5801F06D1032606FA05F4A14341F0EF
:1009B000706106E0460D360103FA06F6B14341F0D8
:1009C000706122B1460D360103FA06F6314300F09C
:1009D0000046B6F1004F02D11C4EF16101E01B4E02
:1009E0007160F0BD30B500228B071C0F0F2303FA96
:1009F00004F2164B08338C1053F824309343134CF5
:100A000008348D1044F8253023468C1053F82430D8
:100A10008C07240F00FA04F423430C4C08348D1087
:100A200044F8253030BD0A49DC31086070470000C9
:100A300000080140000C014000100140001401407A
:100A400000180140001C014000200140000001404E
:100A500000002042DF48006840F00100DD490860E6
:100A600008464068DC490840DA49486008460068A2
:100A7000DA490840D74908600846006820F4802019
:100A800008600846406820F4FE0048604FF41F00EC
:100A900088607047CF49096821F48031CD4A1160E0
:100AA0001146096821F480211160B0F5803F03D020
:100AB000B0F5802F0ED106E0C649096841F48031B7
:100AC000C44A116007E0C349096841F4A021C14A42
:100AD000116000E000BF00BF704710B50146002262
:100AE000002300204A11012A02D1BA4C236806E0F3
:100AF000022A02D1B74C236A01E0B64C636A01F0C6
:100B00001F02012494401C400CB1012000E0002091
:100B100010BD38B5002000900024002500BF312012
:100B2000FFF7DBFF05460098401C00900098B0F5E9
:100B3000A06F01D0002DF2D03120FFF7CEFF08B119
:100B4000012400E00024204638BD01460020A14ACF
:100B5000106820F0F80040EAC10010607047A0491A
:100B600008607047024600209A4B586820F47C10B9
:100B700042EA01031843974B58607047984908664A
:100B8000704701460020934A506820F00300084354
:100B9000506070478F48406800F00C007047014675
:100BA00000208C4A506820F0F000084350607047E5
:100BB00001460020874A506820F4E06008435060F6
:100BC000704701460020834A506820F4605040EA94
:100BD000C1005060704729B17E4A527A02437D4B72
:100BE0005A7204E07B4A527A82437A4B5A727047B7
:100BF0007B49D8310860704701460020754A50682B
:100C000020F440400843506070470021714A203270
:100C10001170704A82F82010012802D004280AD1ED
:100C200004E001216B4A2032117005E00521694A78
:100C30002032117000E000BF00BF704769490860B2
:100C400070476449096A0143624A11627047654905
:100C500044390860704730B5002100220024002389
:100C60005C4D6D6805F00C0121B1042905D00829FF
:100C700023D105E05C4D056022E05B4D05601FE07F
:100C8000544D6D6805F47012524D6D6805F4803452
:100C9000022505EB92421CB9544D554305600BE00B
:100CA0004C4D6D6805F400351DB1504D5543056040
:100CB00002E04D4D5543056002E04B4D056000BF1D
:100CC00000BF444D6D6805F0F0010909484D6B5CAB
:100CD0000568DD4045603F4D6D6805F4E061090A37
:100CE000434D6B5C4568DD4085603A4D6D6805F4A9
:100CF0006051C90A3E4D6B5C4568DD40C560354DAD
:100D00006D6805F44041890B3A4D6B5CC568B5FBD5
:100D1000F3F5056130BD29B12E4A526902432D4BCE
:100D20005A6104E02B4A526982432A4B5A61704748
:100D300029B1284A92690243264B9A6104E0254A68
:100D400092698243234B9A61704729B1214AD26943
:100D50000243204BDA6104E01E4AD26982431D4BF4
:100D6000DA61704729B11B4AD2680243194BDA6035
:100D700004E0184AD2688243164BDA60704729B102
:100D8000144A12690243134B1A6104E0114A1269B2
:100D90008243104B1A61704712494039086070470E
:100DA0000F49C86470470B49C87170470948406AC9
:100DB00040F0807007494862704701460020054AAC
:100DC00092680A400AB1012000E000207047014902
:100DD00088727047001002400000FFF8FFFFF6FE27
:100DE000000042428004424200127A0000093D00A5
:100DF000140000202400002010B50446FE48844260
:100E000008D10121C014FFF7ADFF0021E014FFF766
:100E1000A9FFC4E0B4F1804F08D101210846FFF7D3
:100E2000AEFF00210120FFF7AAFFB8E0F34884429B
:100E300008D101210220FFF7A2FF00210220FFF7C5
:100E40009EFFACE0EE48844208D101210420FFF768
:100E500096FF00210420FFF792FFA0E0E9488442BA
:100E600008D101210820FFF78AFF00210820FFF7A1
:100E700086FF94E0E448844208D101211020FFF766
:100E80007EFF00211020FFF77AFF88E0DF488442D0
:100E900008D101212020FFF772FF00212020FFF759
:100EA0006EFF7CE0DA48844208D101214014FFF74C
:100EB00059FF00216014FFF755FF70E0D5488442C8
:100EC00009D10121C804FFF74DFF00214FF4002094
:100ED000FFF748FF63E0D048844209D101210805AB
:100EE000FFF740FF00214FF48010FFF73BFF56E073
:100EF000CA48844209D101214805FFF733FF002188
:100F00004FF40010FFF72EFF49E0C548844208D196
:100F100001214020FFF733FF00214020FFF72FFF82
:100F20003DE0C048844208D101218020FFF727FF1F
:100F300000218020FFF723FF31E0BB48844208D125
:100F400001218015FFF71BFF0021A015FFF717FFF8
:100F500025E0B648844209D101210804FFF702FFC9
:100F600000214FF48030FFF7FDFE18E0B0488442C6
:100F700009D101214804FFF7F5FE00214FF40030AC
:100F8000FFF7F0FE0BE0AB48844208D10121880452
:100F9000FFF7E8FE00214FF48020FFF7E3FE10BDCD
:100FA00000220288944B98420ED0994B98420BD065
:100FB000B0F1804F08D0914B984205D0904B9842A9
:100FC00002D0904B984204D14FF68F731A404B8851
:100FD0001A438D4B984207D08C4B984204D04FF661
:100FE000FF431A40CB881A4302808B8883850B8885
:100FF0000385814B98420BD0854B984208D08B4B90
:10100000984205D08A4B984202D08A4B984201D12F
:101010000B7A038601238382704770B50024002277
:101020000023058C4FF6FE7635400584028C8388BC
:10103000048B4FF68F752C40B51E2C400D882C4329
:10104000751E2A400D892A434D882A436A4DA842BD
:101050000BD06F4DA84208D0744DA84205D0744DF6
:10106000A84202D0734DA84213D14FF6F7752A401B
:101070004D892A434FF6FB752A408D882A434FF647
:10108000FF652B404FF6FF552B408D892B43CD89B3
:101090002B4383800483CD888586028470BD70B520
:1010A000002400220023058C4FF6EF76354005849E
:1010B000028C8388048B48F6FF752C404FF6FF4561
:1010C0002C400D884FF6FF7606EA05252C434FF697
:1010D000DF752A400D8906EA05152A434D8806EA80
:1010E00005152A43444DA84202D0494DA8421DD1BE
:1010F0004FF67F752A404D894FF6FF7606EA0515B3
:101100002A434FF6BF752A408D8806EA05152A4303
:101110004FF6FF352B404FF2FF752B408D8906EAC5
:1011200085052B43CD8906EA85052B4383800483FF
:10113000CD880587028470BD70B50024002200238D
:10114000058C4FF6FF6635400584028C8388848BBE
:101150004FF68F752C404FF6FC752C400D882C43B4
:101160004FF6FF552A400D894FF6FF7606EA052512
:101170002A434D8806EA05252A431F4DA84202D07E
:10118000234DA8421DD14FF2FF752A404D894FF6DD
:10119000FF7606EA05252A434FF6FF352A408D885B
:1011A00006EA05252A434EF6FF752B404DF6FF75DE
:1011B0002B408D8906EA05152B43CD8906EA0515D6
:1011C0002B4383808483CD888587028470BD70B56E
:1011D000002200230024058C4EF6FF76354005845E
:1011E000038C8488828B48F6FF752A404FF6FF45B2
:1011F0002A400D8820E00000002C0140000400403F
:1012000000080040000C00400010004000140040A6
:1012100000340140004C01400050014000540140A6
:1012200000180040001C0040002000400040014029
:1012300000440140004801404FF6FF7606EA0525CC
:101240002A434DF6FF752B400D8906EA05352B43E1
:101250004D8806EA05352B43FA4DA84202D0FA4DD7
:10126000A84208D14BF6FF752C408D894FF6FF76CA
:1012700006EA85152C4384808283CD88A0F84050EF
:10128000038470BD828B4FF2FF331A408283828BBE
:101290004FF6FF7303EA01231A4382837047F0B5C8
:1012A0000C461546002200210026078C4EF6FF7CD6
:1012B00007EA0C070784828B018C4FF6FF7707EA59
:1012C000043640F6FF473A404FF6FF7707EA052716
:1012D0003A434FF6FF7707EA03373A43D94FB8420C
:1012E0000ED0D94FB8420BD0B0F1804F08D0D74FB5
:1012F000B84205D0D64FB84202D0D64FB84206D138
:101300004DF6FF77394046F48057394305E047F6FC
:10131000FF57394044F48057394382830184F0BD3C
:10132000828B4FF6F3731A408283828B0A43828347
:101330007047F0B50C461546002200210026078CA8
:101340004FF6FF6C07EA0C070784828B018C4FF67F
:10135000FF7707EA04264FF60C773A404FF6FF77FF
:1013600007EA03172F433A43B64FB8420ED0B64FA1
:10137000B8420BD0B0F1804F08D0B44FB84205D07E
:10138000B34FB84202D0B34FB84206D14FF6FF5721
:10139000394046F48077394305E04FF2FF57394032
:1013A00044F48077394382830184F0BD028B4FF28D
:1013B000FF331A400283028B4FF6FF7303EA0123C7
:1013C0001A4302837047F0B50C46154600220021EF
:1013D0000026078C4FF6EF7C07EA0C070784028B88
:1013E000018C4FF6FF7707EA041640F6FF473A40B4
:1013F0004FF6FF7707EA03373A434FF6FF7707EADE
:1014000005273A438F4FB8420ED08F4FB8420BD0CA
:10141000B0F1804F08D08D4FB84205D08C4FB84204
:1014200002D08C4FB84206D14FF6DF77394046F0F4
:101430001007394305E04FF65F77394044F0100755
:10144000394302830184F0BD028B4FF6F3731A40D7
:101450000283028B0A4302837047F0B50C4615469F
:1014600000220021068C4FF6FE773E400684028B58
:10147000018C4FF60C7632407E1C06EA03162E4392
:101480003243704EB0420ED06F4EB0420BD0B0F12E
:10149000804F08D06D4EB04205D06D4EB04202D0A4
:1014A0006C4EB04206D14FF6FD76314044F0010655
:1014B000314305E04FF6F576314044F00106314303
:1014C00002830184F0BD70B505460C465D48854237
:1014D0000ED05D4885420BD0B5F1804F08D05B48F7
:1014E000854205D05A48854202D05A48854200D1EB
:1014F00000E000BF208850B92389A288618828466F
:10150000FFF7ABFFE1882846FFF79EFF25E0208824
:1015100004280AD12389A28861882846FFF753FF4F
:10152000E1882846FFF742FF17E0208808280AD103
:101530002389A28861882846FFF7FBFEE1882846B8
:10154000FFF7EEFE09E02389A28861882846FFF7AD
:10155000A6FEE1882846FFF795FE70BD2DE9F04113
:1015600005460C4600260127608808B9022600E0DF
:101570000026A088012801D1022700E00127208849
:10158000A0B92389A28861882846FFF766FFE18811
:101590002846FFF759FF23893A4631462846FFF788
:1015A00012FFE1882846FFF701FF13E02389A28894
:1015B00061882846FFF707FFE1882846FFF7F6FE17
:1015C00023893A4631462846FFF747FFE1882846F7
:1015D000FFF73AFFBDE8F0810A884B881A438B88F1
:1015E0001A43CB881A430B891A434B891A438B89B8
:1015F0001A43A0F8442070474FF6FF718180002104
:101600000180C180418001727047002101804180CA
:101610008180C180018141818181C1817047002128
:1016200001804180012181800021C18001817047BA
:101630000021018041808180C180018141818181BF
:1016400070470000002C01400034014000040040BD
:1016500000080040000C004021B1028842F0010265
:10166000028004E002884FF6FE731A400280704741
:1016700031B1B0F8442042F40042A0F8442005E023
:10168000B0F84420C2F30E02A0F8442070471AB10B
:1016900083890B43838102E083898B438381704775
:1016A0008182704741EA0203A0F8483070471AB1BE
:1016B00083890B43838102E083898B438381704755
:1016C00001894FF6F8721140018170470A460021E6
:1016D00001894FF68F73194011430181704730B56E
:1016E00004460D4629462046FFF7F0FF208940F0CA
:1016F0000700208130BD2DE9F04104460D46164615
:101700001F46602D06D13B46012231462046FFF799
:101710005AFE05E03B46012231462046FFF79DFE7A
:1017200029462046FFF7D2FF208940F0070020819C
:10173000BDE8F08130B50C4600210189C9B24FF6F1
:10174000FF7505EA0325154325432943018130BD73
:101750002DE9F04105460E461746984600244346BB
:101760003A4631462846FFF7E5FF2C894FF6F870D8
:10177000044044F007044FF68F70044044F07004B6
:101780002C81BDE8F081F0B504460D4616461F4693
:101790003B46324629462046FFF7CCFF208940F4DD
:1017A00080402081F0BD0185828270470A46002179
:1017B00001884FF68F731940114301807047F0B5CF
:1017C0000C4615461E460021002200230189028B8B
:1017D000038C4FF6F877394021434FF6FC473A40E7
:1017E00040F201173A434FF6DD773B404FF6FF7763
:1017F00007EA06172F433B43018102830384F0BDB0
:101800000A460021018B4FF68F7319401143018363
:1018100070470A460021018B48F6FF7319404FF6C6
:10182000FF7303EA02231943018370470A4600212C
:10183000818B4FF68F7319401143818370470A469D
:101840000021818B48F6FF7319404FF6FF7303EABE
:10185000022319438183704721B1028842F080023C
:10186000028004E002884FF67F731A4002807047BE
:1018700021B1828842F00402828004E082884FF61F
:10188000FB731A408280704721B1828842F00802BF
:10189000828004E082884FF6F7731A408280704796
:1018A00021B1828842F00102828004E082884FF6F2
:1018B000FE731A40828070470A460021018B4FF662
:1018C000F77319401143018370470A460021018BC9
:1018D0004FF2FF7319404FF6FF7303EA02231943D7
:1018E000018370470A460021818B4FF6F773194038
:1018F0001143818370470A460021818B4FF2FF73A9
:1019000019404FF6FF7303EA02231943818370479E
:101910000A460021018B4FF6FB73194011430183E6
:1019200070470A460021018B4FF6FF3319404FF6EE
:10193000FF7303EA02231943018370470A4600211B
:10194000818B4FF6FB7319401143818370470A4620
:101950000021818B4FF6FF3319404FF6FF7303EAE6
:1019600002231943818370470A460021018B4FF6F9
:101970007F7319401143018370470A460021018B90
:10198000C1F30E014FF6FF7303EA022319430183EB
:1019900070470A460021818B4FF67F73194011432F
:1019A000818370470A460021818BC1F30E014FF6F7
:1019B000FF7303EA02231943818370470A4600211B
:1019C000018C4FF6FD7319401143018470470A469C
:1019D0000021018C4FF6F7731940114301847047C1
:1019E0000A460021018C4FF6DF7319404FF6FF7352
:1019F00003EA02131943018470470A460021018C4F
:101A00004FF67F7319404FF6FF7303EA0213194331
:101A1000018470470A460021018C4FF6FF5319409C
:101A20004FF6FF7303EA02231943018470470A4605
:101A30000021018C4FF2FF7319404FF6FF7303EA48
:101A400002231943018470470A460021018C4DF698
:101A5000FF7319404FF6FF7303EA02331943018401
:101A6000704730B5002301248C40A3B2048C9C4302
:101A70000484048C02FA01F5ADB22C43048430BD19
:101A800030B5002304248C40A3B2048C9C4304840E
:101A9000048C02FA01F5ADB22C43048430BD70B55C
:101AA0000346002000241846183001258D40ACB2B2
:101AB0001D8CA5431D8409B1082909D100EB6100E3
:101AC000056825F0700505600568154305600EE0A2
:101AD0000D1FC5F34E052844056825F4E045056053
:101AE00005684FF6FF7606EA02263543056070BDAD
:101AF00021B1028842F00202028004E002884FF61F
:101B0000FD731A400280704721B1028842F004023E
:101B1000028004E002884FF6FB731A40028070478F
:101B200021B1828842F08002828004E082884FF6F0
:101B30007F731A408280704702884FF6F7731A400D
:101B4000028002880A430280704782884FF68F73B2
:101B50001A40828082880A438280704702894FF649
:101B6000F8731A40028102890A4302817047028990
:101B70004FF67F731A40028102890A43028170473F
:101B800081847047818570478186704701877047DF
:101B900081877047A0F84010704702884FF6FF43D6
:101BA0001A40028002880A43028070470146888EEC
:101BB00070470146088F70470146888F704701467D
:101BC000B1F8400070470146888C70470146088D87
:101BD000704702460020138A0B400BB1012000E041
:101BE00000207047CA430282704730B50246002089
:101BF00000230024158A05EA0103958905EA0104FA
:101C000013B10CB1012000E0002030BDCA430282B4
:101C10007047000010B50446FB48844209D10121F9
:101C20008803FFF79FF800214FF48040FFF79AF8F0
:101C300032E0F648844209D101214804FFF79FF8B9
:101C400000214FF40030FFF79AF825E0F048844275
:101C500009D101218804FFF792F800214FF4802078
:101C6000FFF78DF818E0EB48844209D10121C80440
:101C7000FFF785F800214FF40020FFF780F80BE014
:101C8000E548844208D101210805FFF778F80021D2
:101C90004FF48010FFF773F810BD2DE9F04786B0C0
:101CA00005460E460024A24600BFA1460027B08983
:101CB00000B100BF2F462C8A4CF6FF700440F0881C
:101CC00004432C82AC894EF6F3100440B08831896D
:101CD0000843718908430443AC81AC8A4FF6FF4046
:101CE0000440B0890443AC8201A8FEF7B4FFC648A3
:101CF000874202D1DDF810A001E0DDF80CA0A88930
:101D000000F4004040B10AEBCA0000EB0A10316851
:101D10004900B0FBF1F807E00AEBCA0000EB0A103B
:101D200031688900B0FBF1F86420B8FBF0F00401E1
:101D30002009642101FB1089A88900F4004040B10A
:101D4000322000EBC900B0FBF1F000F007000443C3
:101D500008E0322000EB09106421B0FBF1F000F044
:101D60000F0004432C8106B0BDE8F0874FF41651F4
:101D7000016000218180C18001810C21418100210D
:101D80008181704710B502460020108A4FF2FF0390
:101D900018400B884C8823438C882343CC882343EA
:101DA0001843108210BD0021018041808180C180D4
:101DB000704721B1828942F40052828104E0828915
:101DC0004DF6FF731A4082817047F0B50346002438
:101DD00000260025002040F66A17B94200D100BF56
:101DE0001846C1F3421401F01F06012707FA06F551
:101DF000012C01D10C3004E0022C01D1103000E0A4
:101E000014301AB107682F43076002E00768AF4338
:101E10000760F0BD1AB1838A0B43838202E0838A94
:101E20008B4383827047028A4FF6F0731A40028216
:101E3000028A0A430282704782894FF2FF731A4076
:101E4000828182890A438281704721B1828942F06E
:101E50000202828104E082894FF6FD731A4082817A
:101E60007047028A4FF6DF731A400282028A0A43E1
:101E70000282704721B1028A42F48042028204E069
:101E8000028A4BF6FF731A4002827047C1F30802C0
:101E90008280704701468888C0F3080070478189B6
:101EA00041F0010181817047028BD2B20283028B23
:101EB00042EA012202837047028B02F47F420283CE
:101EC000028B0A430283704721B1828A42F02002CA
:101ED000828204E0828A4FF6DF731A408282704762
:101EE00021B1828A42F01002828204E0828A4FF697
:101EF000EF731A408282704721B1828A42F0080251
:101F0000828204E0828A4FF6F7731A408282704719
:101F100021B1828942F40042828103E08289C2F3C6
:101F20000E028281704721B1828A42F4006282826D
:101F300004E0828A4FF2FF731A4082827047828ADD
:101F40004FF6FB731A408282828A0A43828270476C
:101F500021B1828A42F00202828204E0828A4FF634
:101F6000FD731A408282704702460020B1F5007F5F
:101F700000D100BF13880B400BB1012000E000200E
:101F8000704701F40072B2F5007F00D100BFCA4370
:101F90000280704770B5024600240023002500200F
:101FA00040F66A16B14200D100BFC1F3421501F0FC
:101FB0001F03012606FA03F3012D02D1968933404F
:101FC00006E0022D02D1168A334001E0968A3340A2
:101FD0000C12012606FA04F41688344013B10CB131
:101FE000012000E0002070BD10B50022002340F663
:101FF0006A14A14200D100BF0A1201249440A3B286
:10200000DC43048010BD0000003801400044004063
:1020100000480040004C0040005000400648804707
:1020200006480047FEE7FEE7FEE7FEE7FEE7FEE7BD
:10203000FEE7FEE7FEE7FEE7C70200083101000801
:10204000704700BFFEE700BFFEE700BFFEE700BF2E
:10205000FEE7704710B500223221052002F0B0FBE8
:102060002649086000223221012002F0A9FB244900
:1020700008602248006838B10846006820B14FF077
:10208000FF3120A000F00AFE10BD1FB50020224A3B
:102090000623CDE9012000930390034680221FA16F
:1020A000214803F052F80020204A0723CDE90120FF
:1020B0000093039003464FF480721DA1204803F063
:1020C00044F800201F4A0B23CDE901200093039020
:1020D00003464FF480721CA11F4803F036F81FBD61
:1020E000012080F3108800BF00F094F8FFF7CDFFC7
:1020F000FFF7B0FF03F009FD00BFFEE7340000204A
:1021000038000020B4B4BDA8CFFBCFA2B6D3C1D055
:10211000B3C9B9A6210D0A00280000205461736BD1
:10212000204C656400000000856500082C0000203C
:102130005461736B20446973706C61790000000016
:10214000A9650008300000205461736B204D6F7644
:10215000654374726C0000002566000810B500230A
:10216000012244F620610A4800F0FEFA10BD10B5C5
:1021700001210748FFF739FD40B106480068401CBF
:102180000449086001210248FFF740FD10BD00002E
:10219000001000403C0000201949096841F080719E
:1021A000174A11601749096841F00101154A116089
:1021B00015490860704770B50446124845681248D2
:1021C000006810B91148FFF7E7FF0F480068104991
:1021D00090FBF1F000FB04F6AB19AB4205DD00BF4C
:1021E000084840689842FBD309E000BF05484068B2
:1021F0009842FBD200BF034840689842FBD370BDB1
:10220000FCED00E0001000E04000002000A24A04C5
:1022100040420F0010B54FF44070FEF7D5F80A4861
:10222000FFF7BAFF01F00DFB00F0B9FB002141F60A
:102230001F4001F04DFC01F00BFD01F069FD01F0C4
:10224000B1FD01F0F9FD10BD00A24A0401460020D5
:10225000FE4A914201D104201CE0FD4A914201D185
:10226000082017E0FB4A914201D1102012E0FA4AFF
:10227000914201D120200DE0F84A914201D1402045
:1022800008E0F74A914201D1802003E0F54A9142EB
:1022900000D18815704701460020F34A914201D1D0
:1022A000C81442E0F14A914201D148143DE0F04A9D
:1022B000914202D14FF4002037E0EE4A914202D120
:1022C0004FF4801031E0EC4A914202D14FF40010FB
:1022D0002BE0B1F1804F01D1012026E0E74A914285
:1022E00001D1022021E0E64A914201D104201CE004
:1022F000E44A914201D1082017E0E34A914201D11A
:10230000102012E0E14A914201D120200DE0E04A84
:10231000914201D1402008E0DE4A914201D1802063
:1023200003E0DD4A914200D1881570472DE9F8435A
:1023300006460D46144698463046FFF787FF074687
:102340000121FEF7F5FCC848844202D0C748844208
:1023500007D12046FFF79FFF07460121FEF7E8FC63
:1023600006E02046FFF797FF07460121FEF7EDFC48
:10237000ADF8005018208DF8030003208DF80200FE
:1023800069463046FEF718FABDE8F883F8B5054609
:102390000C462846FFF75AFF06460121FEF7C8FC07
:1023A000ADF8004010208DF8030003208DF80200E6
:1023B00069462846FEF700FAF8BD2DE9FF4F87B0C1
:1023C000834614461D46DDE9146ABAF1000F0FD1A9
:1023D00000212046FFF740F958460899FFF7D6FF3D
:1023E000002258460899FEF798FA0BB0BDE8F08F26
:1023F00042F2107082450DD100212046FFF72CF9E2
:1024000058460899FFF7C2FF012258460899FEF77F
:1024100084FAEAE72B46224658460899FFF786FFDA
:10242000914884420BD09148844208D0904884421D
:1024300005D09048844202D08F48844203D1974807
:10244000D0F8008002E09548D0F80080642E0AD2CF
:1024500042F20F7942F21070B8FBF0F0B0FBF6F0E8
:10246000401E87B213E040F6B830864209D24FF0E2
:1024700063096420B8FBF0F0B0FBF6F0401E87B2B1
:1024800005E04FF00009B8FBF6F0401E87B2ADF84A
:102490001470ADF810900020ADF81600ADF81200E1
:1024A0008DF8180004A92046FEF77AFD6846FFF76C
:1024B000ACF86020ADF800000120ADF802000AFB86
:1024C00007F042F21071B0FBF1F080B2ADF80600F7
:1024D0000020ADF80800ADF80400ADF80A00ADF832
:1024E0000C00ADF80E00012D08D169462046FEF71C
:1024F00094FD08212046FFF7DFF91FE0022D08D1E7
:1025000069462046FEF7CBFD08212046FFF7DDF99E
:1025100014E0032D08D169462046FEF70DFE082180
:102520002046FFF7DFF909E0042D07D16946204670
:10253000FEF74DFE08212046FFF7DDF90121204678
:10254000FFF78AF901212046FFF786F846488442C2
:1025500002D04648844203D101212046FFF788F883
:1025600000BF42E72DE9FF4F87B0834614461D4662
:10257000DDE9146ABAF1000F0FD100212046FFF700
:102580006BF858460899FFF701FF00225846089952
:10259000FEF7C3F90BB0BDE8F08F42F21070824530
:1025A0000DD100212046FFF757F858460899FFF74C
:1025B000EDFE012258460899FEF7AFF9EAE72B46EF
:1025C000224658460899FFF7B1FE274884420BD0AF
:1025D0002648844208D02648844205D025488442B3
:1025E00002D02548844203D12C48D0F8008002E074
:1025F0002A48D0F80080642E0AD242F20F7942F2C3
:102600001070B8FBF0F0B0FBF6F0401E87B213E09C
:1026100040F6B830864209D24FF063096420B8FB17
:10262000F0F0B0FBF6F0401E87B205E04FF0000975
:10263000B8FBF6F0401E87B2ADF81470ADF81090FC
:102640000020ADF81600ADF8120029E000080140A6
:10265000000C01400010014000140140001801402E
:10266000001C014000200140002C014000340140CA
:10267000004C014000500140005401400004004063
:1026800000080040000C0040001000400014004012
:1026900000180040001C0040002000400000002006
:1026A0008DF8180004A92046FEF77AFC6846FEF76C
:1026B000ACFF6020ADF800000020ADF802000AFB7E
:1026C00007F042F21071B0FBF1F080B2ADF80600F5
:1026D0000020ADF808000420ADF804000020ADF89B
:1026E0000A00ADF80C00ADF80E00012D08D16946C6
:1026F0002046FEF792FC08212046FFF7DDF81FE098
:10270000022D08D169462046FEF7C9FC0821204663
:10271000FFF7DBF814E0032D08D169462046FEF7E9
:102720000BFD08212046FFF7DDF809E0042D07D155
:1027300069462046FEF74BFD08212046FFF7DBF8EF
:1027400001212046FFF788F801212046FEF784FF8B
:102750007D48844202D07D48844203D10121204635
:10276000FEF786FF00BF15E72DE9FF5F04460D4623
:1027700091469A467448844202D07448844207D1F4
:102780002046FFF788FD83460121FEF7D1FA06E0D7
:102790002046FFF780FD83460121FEF7D6FA002D83
:1027A00041D100212046FEF757FFAB4666488442E0
:1027B00002D14FF0190B28E0B4F1804F02D14FF055
:1027C0001C0B22E06248844202D14FF01D0B1CE03A
:1027D0006048844202D14FF01E0B16E05E488442EE
:1027E00002D14FF0320B10E05C48844202D14FF02E
:1027F000360B0AE05A48844202D14FF0370B04E00E
:102800005248844201D14FF02C0B8DF800B08DF866
:1028100001908DF802A000208DF803006846FDF7B6
:10282000D8FDBDE8FF9F484884420BD0474884420A
:1028300008D04C48844205D04B48844202D04B48D3
:10284000844202D14A48066801E049480668642D7E
:102850000AD242F20F7842F21070B6FBF0F0B0FBF1
:10286000F5F0401E87B213E040F6B830854209D239
:102870004FF063086420B6FBF0F0B0FBF5F0401EAB
:1028800087B205E04FF00008B6FBF5F0401E87B2B6
:10289000ADF80870ADF804800020ADF80A00ADF87E
:1028A00006008DF80C0001A92046FEF779FB0121F6
:1028B0002046FEF7D1FF012211462046FEF7E7FE33
:1028C00001212046FEF7C8FE4FF0000B1E4884424F
:1028D00002D14FF0190B28E0B4F1804F02D14FF034
:1028E0001C0B22E01A48844202D14FF01D0B1CE061
:1028F0001848844202D14FF01E0B16E0164884425D
:1029000002D14FF0320B10E01448844202D14FF054
:10291000360B0AE01248844202D14FF0370B04E034
:102920000A48844201D14FF02C0B8DF800B08DF88D
:1029300001908DF802A001208DF803006846FDF794
:1029400048FD00BF6DE70000002C0140003401404D
:102950000004004000080040000C0040001000404F
:1029600000140040004C0140005001400054014060
:102970000000002038B504460121E068FEF7D8F9D0
:10298000A08A80B2ADF8000010208DF8030003206B
:102990008DF8020069462069FDF70EFF38BD10B5BD
:1029A0001B48FFF7E7FF1B48FFF7E4FF1A48FFF754
:1029B000E1FF174A928A91B2154A1069FDF7A9FF03
:1029C000144A928A91B2134A1069FDF7A2FF124A83
:1029D000928A91B2104A1069FDF79BFF10BD19B998
:1029E000D0E90423136112E0002903DAD0E90423BB
:1029F00053610CE08268521C82608A4207DB0269E4
:102A0000D26843695A400369DA60002282607047E5
:102A1000AC000020C4000020DC00002038B50446D3
:102A20000E208DF8000006208DF8010000208DF8A2
:102A3000020001208DF803006846FDF7CAFC25203E
:102A40008DF800008DF8014000208DF80200012073
:102A50008DF803006846FDF7BCFC38BD00B58BB0AF
:102A600001210846FEF757F90021CB48FDF7E7FDA5
:102A7000C948FDF717FDC9480090C94801901020CA
:102A800002903220039000200490802005900020C6
:102A90000690079008904FF44050099000200A904B
:102AA0006946BD48FDF7A0FD4FF48050FDF7F6FDE7
:102AB0000021B948FDF7C3FD01220221B648FDF708
:102AC000CAFD0021B4481430FDF7B9FDB2481430F6
:102AD000FDF7E8FCB1480090B24801900020029058
:102AE0003220039000200490802005900020069062
:102AF000079008904FF44050099000200A906946D2
:102B0000A5481430FDF770FD4FF48030FDF7C6FD89
:102B10000121A1481430FDF792FD0BB000BD10B5A6
:102B200086B0044601210420FEF702F90121880342
:102B3000FEF7FEF84FF40070ADF8140018208DF881
:102B4000170003208DF8160005A99748FDF734FEFD
:102B50004FF48060ADF8140004208DF8170005A92B
:102B60009148FDF729FE2046FFF758FFFFF776FF53
:102B70004FF4E13001900020ADF80800ADF80A00F4
:102B8000ADF80C00ADF810000C20ADF80E0001A956
:102B90008248001FFFF781F8012240F224417F485C
:102BA000001FFFF712F901217C48001FFFF701F910
:102BB000012280217948001FFFF72CF901224021D2
:102BC0007648001FFFF726F906B010BD10B5044681
:102BD00001207649087070484438846401216E48A9
:102BE000FDF72DFD10BD10B54FF48050FDF761FDD0
:102BF00050B100206D4908704FF48050FDF74EFD34
:102C000000216548FDF71BFD10BD08B500200090B0
:102C100040F224416148001FFFF7BCF9B8B340F20D
:102C200024415E48001FFFF7DFF95C48001FFFF7F3
:102C300031F910215948001FFFF7A3F90021564828
:102C40001430FDF7FCFC4FF48030FDF727FD5248AF
:102C50001430FDF70BFDC0F13200554908703220E9
:102C60004D494439C86500236A464E4951480068B9
:102C700001F0F4FE4B484849443948660121464872
:102C80001430FDF7DCFC4548001FFFF703F90098FE
:102C900018B14FF080504849086008BD70B505462E
:102CA0000C46002C03DA284603F0ACFE04B200BF49
:102CB0003E4800780028FBD139492144487022461B
:102CC0002946374803F07AFEA0B2FFF77FFF70BDB8
:102CD00070B504460D4629462046FFF7D7F800BFD9
:102CE00080212046FFF740F90028F9D070BD70B56B
:102CF00006460C46002500BF615D3046FFF7E8FF41
:102D00006D1C605D0028F7D100BF40213046FFF701
:102D10002BF90028F9D070BD2DE9F04105460C468D
:102D2000260AE7B231462846FFF7B0F800BF8021F7
:102D30002846FFF719F90028F9D039462846FFF749
:102D4000A5F800BF80212846FFF70EF90028F9D02A
:102D5000BDE8F08170B504460D46E1B20F48001F92
:102D6000FFF794F800BF80210C48001FFFF7FCF824
:102D70000028F8D0204670BD10B5044600BF2021C1
:102D80000648001FFFF7F0F80028F8D00348001F9E
:102D9000FFF780F810BD00004400024004380140F5
:102DA00094010020C6010020000801400C01002011
:102DB0000D0100203800002004ED00E070B504464D
:102DC0000E4626B10121FB48FDF7A3FD03E00121DA
:102DD000F848FDF7A0FD00251BE04FF40051F54831
:102DE000FDF799FD04F0800028B14FF48041F148CF
:102DF000FDF78FFD04E04FF48041EE48FDF78BFDB9
:102E00004FF40051EB48FDF784FD6006040E681C8A
:102E1000C5B2082DE1DB0121E648FDF77AFD70BD62
:102E200070B504460D4605F1B001C8B20021FFF7A8
:102E3000C5FFA11CC1F3031141F010000021FFF7F1
:102E4000BDFFA11C01F00F000021FFF7B7FF70BD0F
:102E5000F0B5144600267F2801DC3F2900DDF0BDD7
:102E60000B46CF1701EB5777FF10C7F10707FAB2F0
:102E7000CF1701EB5777FF10A1EBC707FDB2C5F1E4
:102E800007070123BB40DEB24CB1CB4B03EBC003C1
:102E90009B5C3343C84F07EBC007BB5408E0C64BED
:102EA00003EBC0039B5CB343C34F07EBC007BB54AA
:102EB00000BFD4E770B502460025C1F13F00C1B2A2
:102EC0000846CE1701EB5676F310CE1701EB567677
:102ED000F610A1EBC606F4B20120A040C5B2B64878
:102EE00000EBC200C05C284008B1012070BD00208A
:102EF000FCE710B500218D20FFF760FF00211420B2
:102F0000FFF75CFF0021AF20FFF758FF10BD10B5A1
:102F100000218D20FFF752FF00211020FFF74EFF08
:102F20000021AE20FFF74AFF10BD70B500241CE061
:102F300004F1B001C8B20021FFF740FF00210220D8
:102F4000FFF73CFF00211020FFF738FF002508E0C5
:102F5000994901EBC501085D0121FFF72FFF681CAE
:102F6000C5B2802DF4DB601CC4B2082CE0DB70BD60
:102F700070B500240CE0002506E000208E4901EB2E
:102F8000C5010855681CC5B2802DF6DB601CC4B2B3
:102F9000082CF0DBFFF7C9FF70BD70B500240CE012
:102FA000002506E0FF20844901EBC5010855681C97
:102FB000C5B2802DF6DB601CC4B2082CF0DBFFF735
:102FC000B4FF70BD2DE9F04706460F46904699467E
:102FD000DDF820A034460CE03D4606E05246294686
:102FE0002046FFF735FF681CC5B24D45F6DD601C75
:102FF000C4B24445F0DDBDE8F0872DE9FF4F82B053
:1030000007460C46904600250026A9460097A34691
:103010000598012802D0022852D152E0B8F1000FE1
:103020004ED0A8F12000C5B264480078012804D130
:10303000002D02DB6149087002E000205F49087042
:103040007E2F02DD0027601CC4B2002636E005EBAF
:1030500045005B4901EB400010F806A04FF0000965
:1030600026E00AF0800058B15448007808B90120E1
:1030700000E00020024621463846FFF7E9FE05E061
:103080004E48027821463846FFF7E2FE4FEA4A6092
:103090004FEA106A601CC4B2A4EB0B00082803D1ED
:1030A0005C46781CC7B206E009F1010000F0FF0998
:1030B000B9F1080FD5DB00BF701CC6B2062EC6DB07
:1030C00073E0B8F1000F6FD0A8F12000C5B23B4803
:1030D0000078012804D1002D02DB3849087002E095
:1030E000002036490870782F02DD0027601CC4B22A
:1030F000002657E006EB0510324911F800A006EB58
:1031000005100830085C01904FF0000944E00AF017
:10311000800058B12948007808B9012000E000205B
:10312000024621463846FFF793FE05E02348027821
:1031300021463846FFF78CFE019800F0800068B108
:103140001E48007808B9012000E00020024604F182
:103150000800C1B23846FFF77BFE07E004F1080023
:10316000C1B2164802783846FFF772FE4FEA4A604D
:103170004FEA106A01984006000E0190601CC4B22C
:10318000A4EB0B00082803D15C46781CC7B206E00C
:1031900009F1010000F0FF09B9F1080FB7DB00BF2A
:1031A000701CC6B2082EA5DB00BF00BF06B0BDE88C
:1031B000F08F000000100140F80100200F010020F6
:1031C00086710008AE7300082DE9F04107460E46EF
:1031D0009046002500244546FE480078012804D189
:1031E000002D02DBFB49087002E00020F94908705D
:1031F000782F02DD0027701CC6B231463846FFF733
:103200000FFE002408E004EB8511F34A505C012115
:10321000FFF7D4FD601CC4B2082CF4DB07F10801F1
:10322000C8B23146FFF7FCFD002409E004EB85112C
:103230000831E94A505C0121FFF7C0FD601CC4B2AF
:10324000082CF3DB701CC1B23846FFF7E9FD0024FF
:1032500009E004EB85111031DF4A505C0121FFF7D2
:10326000ADFD601CC4B2082CF3DB721CD1B207F1B7
:103270000802D0B2FFF7D4FD002409E004EB851169
:103280001831D54A505C0121FFF798FD601CC4B28B
:10329000082CF3DBB01CC1B23846FFF7C1FD002497
:1032A00009E004EB85112031CB4A505C0121FFF786
:1032B00085FD601CC4B2082CF3DBB21CD1B207F14F
:1032C0000802D0B2FFF7ACFD002409E004EB851141
:1032D0002831C14A505C0121FFF770FD601CC4B267
:1032E000082CF3DBF01CC1B23846FFF799FD00242F
:1032F00009E004EB85113031B74A505C0121FFF73A
:103300005DFD601CC4B2082CF3DBF21CD1B207F1E6
:103310000802D0B2FFF784FD002409E004EB851118
:103320003831AD4A505C0121FFF748FD601CC4B242
:10333000082CF3DBBDE8F08110B50246012000E067
:1033400050430B00A1F10104E1B2F9D110BD2DE908
:10335000FF4F87B0064692461F46DDE91494D346D8
:10336000002004900021504603F0E4FC16D22346CE
:103370002D2230460899FFF740FE012C05D104EBC1
:10338000440006EB4000C6B202E006EB8400C6B281
:10339000781EC7B28AF0004A8BF0004B504603F00B
:1033A00080FC069000254DE0781B401EC1B20A202B
:1033B000FFF7C2FF0699B1FBF0F00A21B0FBF1F272
:1033C00001FB12080498F8B9781EA8421CDDB8F178
:1033D000000F17D1012C0BD104EB4401490001FB74
:1033E0000561C8B2234620220899FFF706FE08E0CF
:1033F000A10001FB0561C8B2234620220899FFF70E
:10340000FCFD1DE001200490012C0DD108F13001DC
:10341000CAB204EB4401490001FB0561C8B223466E
:103420000899FFF7EAFD0AE008F13001CAB2A100ED
:1034300001FB0561C8B223460899FFF7DEFD00BF16
:10344000681CC5B2BD42AFDBB9F1000F71D0012CD1
:103450000BD104EB4401490007FB0161C8B22346CC
:103460002E220899FFF7C9FD08E0A10007FB0161C2
:10347000C8B223462E220899FFF7BFFD584603F035
:1034800029FC564A564BCDE9000103F055FBCDE926
:10349000020103F032FC834649460A20FFF74CFF45
:1034A000009003F0F9FB0290069803F0F5FB5946F3
:1034B000009003F00CFB0190029903F00BFB0390CA
:1034C00003F0EFFB0590002551E0A9EB0500401E3D
:1034D000C1B20A20FFF730FF0599B1FBF0F00A21D5
:1034E000B0FBF1F201FB12084D453EDAB8F1000FD6
:1034F00020D0012C0FD104EB44014B00E919491CE9
:1035000003FB0161C8B208F13001CAB22346089931
:10351000FFF773FD29E0A300E919491C03FB0161D2
:10352000C8B208F13001CAB223460899FFF765FD19
:103530001BE01EE0012C0DD104EB44014A00E91907
:10354000491C02FB0161C8B2234630220899FFF7EB
:1035500054FD0AE0A200E919491C02FB0161C8B24E
:10356000234630220899FFF748FD681CC5B24D4537
:10357000ABDB0BB0BDE8F08F2DE9F047064689467E
:1035800017461D464FF0000A002F0ADA0B22494663
:103590003046FFF719FE06F11000C6B2681EC5B22C
:1035A0007F42002435E0281B401EC1B20A20FFF7ED
:1035B000C3FEB7FBF0F00A21B0FBF1F201FB1208E9
:1035C000BAF1000F19D1681EA04216DDB8F1000F44
:1035D00011D107E00F0100209E790008F168E3880F
:1035E000B5F8E43E102101FB0461C8B20D22494642
:1035F000FFF7EAFD0BE04FF0010A08F0FF0210218F
:1036000001FB0461C8B24946FFF7DEFD00BF601C44
:10361000C4B2AC42C7DBBDE8F0872DE9F0410446F7
:103620000F4615469846002615E0AA5D43463946E2
:103630002046FFF7E2FCB8F1020F03D104F10800C5
:10364000C4B201E0A01DC4B2782C02DD0024B81C75
:10365000C7B2701CC6B2A85D0028E6D1BDE8F081F3
:103660002DE9F04F07460C4616460025A846A3460E
:1036700000BF57E07000401CE34901EB401010F818
:10368000059001EB861010F805A04FF0000843E00C
:1036900009F0800058B1DD48007808B9012000E049
:1036A0000020024621463846FFF7D2FB05E0D74806
:1036B000027821463846FFF7CBFB0AF0800068B15C
:1036C000D248007808B9012000E00020024604F149
:1036D0000800C1B23846FFF7BBFB07E004F1080061
:1036E000C1B2CA4802783846FFF7B2FB4FEA4960D8
:1036F0004FEA10694FEA4A604FEA106A601CC4B290
:10370000A4EB0B00082803D15C46781CC7B206E086
:1037100008F1010000F0FF08B8F1080FB8DB00BFA6
:10372000681CC5B2102DA5DBBDE8F08F2DE9FF4F59
:1037300085B081460E461F46129C0396029709EB00
:103740000700802803DDC7F18000C0B20290254643
:103750003019402802DDC4F14000C5B22046E2170E
:1037600004EB5272D2102146E31704EB5373DB10C3
:10377000A4EBC3030BB1012300E000231A44D2B22F
:1037800001922846EA1705EB5272D2102946EB1730
:1037900005EB5373DB10A5EBC3030BB1012300E072
:1037A00000231A44D2B200924FF0000843E04FF0D9
:1037B000000A39E0019808FB00A1079810F801B051
:1037C0000020049028E00BF0800058B18F4800786A
:1037D00008B9012000E00020024631464846FFF7C4
:1037E00037FB05E08948027831464846FFF730FB51
:1037F0004FEA4B604FEA106B701CC6B20398301A48
:10380000A84205D1039E09F1010000F0FF0906E07E
:103810000498401CC0B2049004980828D3DB00BF71
:103820000AF1010000F0FF0A00988245C2DB08F1AE
:10383000010000F0FF0802988045B8DB09B0BDE840
:10384000F08F1FB501211020FDF772FA0120ADF8AD
:10385000080010208DF80B0003208DF80A0002A943
:103860006B48FCF7A9FF01211020FDF761FA4FF426
:103870000040ADF8040010208DF8070003208DF8FB
:10388000060001A96248FCF797FF01211020FDF70F
:103890004FFA4FF40050ADF80C0010208DF80F00D7
:1038A00003208DF80E0003A95948FCF785FF01217C
:1038B0001020FDF73DFA4FF48040ADF800001020D5
:1038C0008DF8030003208DF8020069465048FCF78C
:1038D00073FF4FF400514E48FDF71BF84FF4804141
:1038E0004B48FDF716F801214948FDF712F84FF44F
:1038F00000414748FDF70DF84FF400414448FDF7FB
:103900000AF84448FEF757FC4FF400414048FDF7E1
:1039100000F80021AE20FFF751FA00210220FFF746
:103920004DFA00211020FFF749FA00214020FFF74F
:1039300045FA00218120FFF741FA0021CF20FFF74F
:103940003DFA0021A120FFF739FA0021C820FFF736
:1039500035FA0021A620FFF731FA0021A820FFF751
:103960002DFA00213F20FFF729FA0021D320FFF78D
:1039700025FA00210846FFF721FA0021D520FFF79C
:103980001DFA00218020FFF719FA0021D920FFF746
:1039900015FA0021F120FFF711FA0021DA20FFF7D4
:1039A0000DFA00211220FFF709FA0021DB20FFF7B2
:1039B00005FA00214020FFF701FA00212020FFF73F
:1039C000FDF900210220FFF7F9F900218D20FFF712
:1039D000F5F900211420FFF7F1F90021A420FFF7E9
:1039E000EDF90021A620FFF7E9F90021AF20FFF74C
:1039F000E5F90021AF20FFF7E1F9FFF7B9FA00215F
:103A00000846FFF70DFA1FBD1E7D00080F010020BC
:103A100000100140A086010008B501210820FDF733
:103A200087F94FF48050ADF8000003208DF80200B4
:103A300010208DF8030069468148FCF7BDFE012186
:103A40000820FDF775F94FF40050ADF80000032091
:103A50008DF8020010208DF8030069467848FCF7C5
:103A6000ABFE01210820FDF763F94FF48040ADF86B
:103A7000000003208DF8020010208DF80300694635
:103A80006F48FCF799FE01210820FDF751F94FF42A
:103A90000040ADF8000003208DF8020010208DF8E2
:103AA000030069466648FCF787FE01211020FDF7F8
:103AB0003FF94FF47070ADF8000018208DF8030046
:103AC00003208DF8020069465E48FCF775FE08BDCC
:103AD00030B587B005460C46FFF79EFF012148032D
:103AE000FDF726F9ADF81450ADF810400020ADF800
:103AF0001600ADF8120004A95348FDF751FA6020F2
:103B0000ADF800000120ADF802000020ADF806007D
:103B1000ADF8080069464C48FDF7C1FA69464A48C5
:103B2000FDF70AFB69464848FDF751FB4648183047
:103B3000008840F060004449183108804248203035
:103B4000008840F0010040492031088008213E48AB
:103B5000FDF7B2FE08213C48FDF7B7FE08213A48C0
:103B6000FDF7C0FE08213848FDF7C5FE01213648A3
:103B7000FDF772FE01213448FDF77AFD012132483C
:103B8000FDF76AFD07B030BD0146002901DA484261
:103B900000E00846704700B503460A4633B1012BE2
:103BA00014D0022B24D0032B46D133E0002A03DAB1
:103BB00000202649086002E00120244908601046E0
:103BC000FFF7E2FF20493431088036E0002A04DAAA
:103BD00000201E49091D086003E001201B49091D42
:103BE00008601046FFF7D0FF17493831088024E0FD
:103BF000002A04DA002015490C31086003E0012096
:103C000012490C3108601046FFF7BEFF0E493C31E7
:103C1000088012E0002A04DA00200C49083108600C
:103C200003E001200949083108601046FFF7ACFFA6
:103C300005494031088000E000BF00BF00BD000022
:103C4000000C01400010014000340140B0812142CD
:103C500000B587B001210846FDF777F801210D2056
:103C6000FDF766F80121BD48FCF777FE0121BC484D
:103C7000FCF773FE4FF40040ADF8000004208DF80F
:103C800003006946B748FCF797FD0820ADF800002F
:103C900004208DF803006946B348FCF78DFD04A8A5
:103CA000FDF7AAFC0020ADF810004FF6FF70ADF84C
:103CB00014000020ADF81600ADF8120004A94FF072
:103CC0008040FDF76DF900231A4603214FF0804034
:103CD000FDF775FD01A8FDF7A2FC0A20ADF80C0068
:103CE00001A94007FDF7EFFB01218807FDF77AFFE7
:103CF000012211469007FDF7CAFC00214FF08040D9
:103D0000FDF73EFF01218807FDF7A6FC07B000BDC7
:103D100000B587B001210220FDF717F8012104202A
:103D2000FDF706F8C020ADF8000004208DF8030070
:103D300069468C48FCF740FD04A8FDF75DFC0020B7
:103D4000ADF810004FF6FF70ADF814000020ADF88C
:103D50001600ADF8120004A98448FDF721F90023EC
:103D60001A4603218148FDF72AFD01A8FDF757FCFB
:103D70000A20ADF80C0001A97C48FDF7A4FB012145
:103D80007A48FDF72FFF012211467848FDF77FFCA6
:103D900000217648FDF7F4FE01217448FDF75CFC34
:103DA00007B000BD00B587B001210420FCF7CDFFAE
:103DB00001210820FCF7BCFFC020ADF80000042062
:103DC0008DF8030069466748FCF7F6FC04A8FDF788
:103DD00013FC0020ADF810004FF6FF70ADF8140092
:103DE0000020ADF81600ADF8120004A96048FDF7F8
:103DF000D7F800231A4603215D48FDF7E0FC01A82F
:103E0000FDF70DFC0A20ADF80C0001A95848FDF79C
:103E10005AFB01215648FDF7E5FE012211465448A0
:103E2000FDF735FC00215248FDF7AAFE012150485C
:103E3000FDF712FC07B000BD00B587B001210820D6
:103E4000FCF783FF01210420FCF772FF0320ADF88B
:103E5000000004208DF8030069464248FCF7ACFCE2
:103E600004A8FDF7C9FB0020ADF810004FF6FF7065
:103E7000ADF814000020ADF81600ADF8120004A94A
:103E80003C48FDF78DF800231A4603213948FDF719
:103E900096FC01A8FDF7C3FB0A20ADF80C0001A9B0
:103EA0003448FDF710FB01213248FDF79BFE01224B
:103EB00011463048FDF7EBFB00212E48FDF760FE70
:103EC00001212C48FDF7C8FB07B000BD01460129C0
:103ED00006D002290DD0032914D0042924D11AE0D8
:103EE0004FF08042928C10B200224FF080439A84AF
:103EF0001CE01E4A2432128810B200221B4B2433CD
:103F00001A8013E01A4A2432128810B20022184B89
:103F100024331A800AE0174A2432128810B2002291
:103F2000144B24331A8001E0002000BF00BF70470B
:103F300010B501210D48FDF758FE01210B48FDF792
:103F400065FE10BD4FF08040008A4FF08040008A2F
:103F500020F001004FF080410882704700011800F6
:103F60000002300000080140000C01400004004045
:103F700000080040000C004010B501468E4800E0EB
:103F8000006803688B42FBD30246436813448B42AC
:103F900004D143684C682344436001460A464B6899
:103FA00013440468A34211D1844C03682468A342DB
:103FB00008D04B680468646823444B6003681B683E
:103FC0000B6005E07D4B1B680B6001E003680B6034
:103FD000884200D0016010BD30B54FF4A04378484E
:103FE00000F007042CB1C01D20F00700744C041B26
:103FF0001B1B0246704C226000246F4D6C60D01871
:10400000083820F007006D4C206000246B4D2D68AF
:104010006C606A4D2D682C601146441A4C60674CE8
:1040200024680C60674D4C682C60674D4C682C60B0
:104030004FF00044654D2C6030BD2DE9F041044641
:104040004FF0000801F0AAFA5C48006808B9FFF7D1
:10405000C3FF5E480068204000285DD19CB1083451
:1040600004F0070078B104F00700C0F10800044430
:1040700004F0070008B9012000E0002018B9FCF79F
:10408000A5F800BFFEE7002C46D04F4800688442E8
:1040900042D8494E3046056801E02E462D686868D2
:1040A000A04202D228680028F7D14448006885421F
:1040B00032D0306800F10808286830606868001B5A
:1040C000102812D92F1907F0070008B9012000E0C5
:1040D000002018B9FCF77AF800BFFEE76868001BFB
:1040E00078606C603846FFF747FF374968680968B1
:1040F000081A35490860084600683249096888424C
:1041000003D2314800682F4908603049686809685F
:10411000084368600020286001F094F908F0070067
:1041200008B9012000E0002018B9FCF74FF800BFE3
:10413000FEE74046BDE8F08170B506463546002EE4
:1041400031D0083D2C46214960680968084008B113
:10415000012000E0002018B9FCF738F800BFFEE7A6
:10416000206808B9012000E0002018B9FCF72EF8FB
:1041700000BFFEE7154960680968084098B12068EB
:1041800088B91249606809688843606001F006FADE
:104190000D496068096808440B4908602046FFF72C
:1041A000EBFE01F04FF970BD074800687047054805
:1041B00000687047704700001001002018010020BF
:1041C000F8050020200100201C010020240100200F
:1041D00075480068401C08B9012000E0002018B9AB
:1041E000FBF7F4FF00BFFEE7FBF7F0FF00BFFEE7C1
:1041F000001F4FF080730360001F0160001F6B4BB6
:104200000360143802602038704769484FF0E0219D
:1042100048610720086170471CB566480146097867
:104220000191FF21024611700146097800919DF825
:10423000001001F01001604A117007215F4A1160FF
:1042400009E05E490968491E5C4A11609DF800104A
:104250004906090E00919DF8001001F080018029A7
:10426000EFD0564909680902544A1160114609887D
:1042700001F4E06111604F4A0199117050480068E3
:1042800040F470004E4908600846006840F07040F5
:104290000860FFF7BAFF002043490860FBF764FF9E
:1042A00000201CBD10B540480068B0F57A7F01D1F0
:1042B000012000E0002018B9FBF788FF00BFFEE7EF
:1042C00010BD4FF080503E491C390860BFF34F8F3E
:1042D000BFF36F8F704710B5FBF778FF3248006867
:1042E000401C31490860BFF34F8FBFF36F8F084602
:1042F000006801280CD132481C380068C0B208B9E7
:10430000012000E0002018B9FBF760FF00BFFEE7C6
:1043100010BD10B52448006818B9FBF757FF00BF5F
:10432000FEE721480068401E1F49086008460068F3
:1043300010B90020FBF751FF10BD10B5FBF746FF89
:1043400000F0F8FF20B14FF080501D491C39086083
:104350000020FBF742FF10BD70B5FBF741FF05469B
:10436000102D0FD305F1E02090F8F04312480078AB
:10437000844201DB012000E0002018B9FBF726FF92
:1043800000BFFEE70E481438006800F4E0600B49F7
:104390000968884201D8012000E0002018B9FBF725
:1043A00015FF00BFFEE770BD28010020D1410008C5
:1043B0003F19010000E400E02C0100203001002042
:1043C00020ED00E010B5002407E004EB8401AE4AC4
:1043D00002EB810000F06EF9641C022CF5D3AB48AF
:1043E00000F068F9AA4800F065F9AA4800F062F9FF
:1043F000A648A9490860A648A849086010BD2DE94B
:10440000F04107460D4690463820FFF716FE044659
:10441000002C2ED0A248006818B9A1480460FFF70C
:10442000D1FF022D00D301250020A086E562C4F84B
:1044300030802760201D00F04AF904F1180000F0D8
:1044400046F924616462C5F10200A0619549E06A01
:104450000968884202D99349E06A0860E16A01EB81
:104460008101894A02EB8100211D00F033F9012608
:1044700001E04FF0FF363046BDE8F08170B50546EB
:104480000C4689480068461985480068001D00F000
:1044900047F983480068466083480068864207D22F
:1044A0007F480168091D7D48006800F01FF906E09B
:1044B0007B480168091D7848006800F017F92CB1A5
:1044C000774801681831204600F010F970BD10B52A
:1044D00020E0FBF77BFE6F48C068C46804F1180059
:1044E00000F01EF90020FBF778FE201D00F018F9FF
:1044F0006C49E06A0968884202D96A49E06A086042
:10450000E16A01EB8101604A02EB8100211D00F0AC
:10451000E1F800BF5F48006808B9012000E0002012
:104520000028D6D010BD10B501F01DFB5F49096809
:10453000401A5F49086049E05B480068401C5A49DE
:1045400008605B480068401E59490860564800688A
:1045500040B951490868514909684F4A11604F49AB
:10456000086000BF28E04C480068C068C4684E4935
:1045700060680968884200D927E0FBF727FE201D04
:1045800000F0CEF8A06A18B104F1180000F0C8F8E5
:104590000020FBF722FE4349E06A0968884202D9FD
:1045A0004049E06A0860E16A01EB8101364A02EBAA
:1045B0008100211D00F08EF837480068006808B9B6
:1045C000012000E000200028CDD000BF384800685E
:1045D0000028B1D1344800683449086010BD10B5D6
:1045E000FFF775FFFFF79FFF08E02E48006800B94E
:1045F00010BD2C480068401E2A4908602948006800
:1046000000EB8000204951F8200008B9012000E0AB
:1046100000200028E9D12349096801EB81011A4AE9
:1046200002EB810041684968416000F1080142687D
:104630008A4202D14168496841604168C968184AA4
:10464000116010460068016B10460068026814484B
:104650000068904700BFCBE770B50646F068C468B5
:1046600004F1180000F05CF804F11801094800F0AA
:1046700031F80B49E06A0968C96A884201D301250B
:1046800000E00025284670BDF85500202056002087
:104690003456002048560020340100203801002004
:1046A0003C0100204001002044010020480100207E
:1046B0004C01002000F1080141604FF0FF318160A2
:1046C00000F10801C1600161002101607047002113
:1046D0000161704742684A6093688B6093685960D3
:1046E0009160086103685B1C0360704710B5024667
:1046F0000B685C1C0CB9106907E002F1080000E0CF
:104700004068446824689C42FAD944684C604C680C
:10471000A160886041600A611468641C146010BD67
:1047200001460A69D1E901309860D1E90103586076
:104730005068884201D18868506000200861106884
:10474000401E10601068704770B505460E462C4636
:104750001CB9FBF73BFD00BFFEE7FFF7BCFDD4E94A
:104760000F12206801FB020060600020A063206837
:10477000A060E06B401E226C216800FB0210E0602C
:104780004FF0FF306064A06476B9206908B9012059
:1047900000E0002080B904F1100001F02EFB012898
:1047A0000AD1FFF78EFD07E004F11000FFF782FF4A
:1047B00004F12400FFF77EFFFFF7ABFD012070BD81
:1047C0002DE9F04706460D4690464FF000090EB120
:1047D000012000E0002018B9FBF7F8FC00BFFEE75D
:1047E0000DB9002702E006FB05F0471C07F1540055
:1047F000FFF723FC044674B10DB9246002E004F114
:1048000054002060E663256401212046FFF79CFFE9
:1048100084F85080A146B9F1000F03D1FBF7D6FC14
:1048200000BFFEE74846BDE8F08710B50446FFF735
:1048300052FD11E0606A08B9012000E0002038B99B
:1048400004F1240001F0D9FA18B101F092FB00E064
:1048500005E0A06C401EA064A06C0028EADC00BF4C
:104860004FF0FF30A064FFF754FDFFF734FD11E077
:10487000206908B9012000E0002050B904F11000BF
:1048800001F0BBFA08B101F074FB606C401E60647B
:1048900000E002E0606C0028EADC00BF4FF0FF306F
:1048A0006064FFF736FD10BD70B50546FFF713FDD8
:1048B000A86BE96B884201D1012400E00024FFF7D6
:1048C00028FD204670BD2DE9F04104460E461546F0
:1048D0000027206C40B37DB93146226CA06802F0FD
:1048E0006DF8216CA0680844A060D4E901108842EA
:1048F0001AD32068A06017E03146226CE06802F00D
:104900005DF8216CE068401AE0602168E068884248
:1049100003D2216C6068401AE060022D04D1A06BC4
:1049200010B1A06B401EA063A06B401CA063384672
:10493000BDE8F0812DE9FF4383B0064688461D4659
:104940004FF0000934461CB9FBF740FC00BFFEE7FE
:10495000B8F1000F01D1206C08B9012000E000205F
:1049600018B9FBF733FC00BFFEE7022D02D1E06B64
:10497000012801D1012000E0002018B9FBF726FC36
:1049800000BFFEE700BFFFF7A6FCA06BE16B88420B
:1049900001D3022D1DD12A4641462046FFF793FF41
:1049A0000746606A08B9012000E0002040B904F120
:1049B000240001F022FA012805D1FFF782FC02E071
:1049C0000FB1FFF77EFCFFF7A4FC012007B0BDE8A4
:1049D000F083059818B9FFF79CFC0020F6E7B9F1C1
:1049E000000F04D101A801F080FA4FF00109FFF790
:1049F00090FC00F0D3FDFFF76EFC606C401C08B922
:104A000000206064A06C401C08B90020A064FFF77F
:104A100080FC05A901A801F076FAC0B92046FFF78D
:104A200043FF70B104F11000059901F075F92046BB
:104A3000FFF7FBFE00F006FD0028A4D1FFF741FCC4
:104A4000A1E72046FFF7F1FE00F0FCFC9BE72046C3
:104A5000FFF7EBFE00F0F6FC0020B7E72DE9F0478A
:104A60000646894617461D4634461CB9FBF7AEFB81
:104A700000BFFEE7B9F1000F01D1206C08B9012099
:104A800000E0002018B9FBF7A1FB00BFFEE7022DF4
:104A900002D1E06B012801D1012000E0002018B90B
:104AA000FBF794FB00BFFEE7FFF756FCFBF78EFB1E
:104AB0008246A06BE16B884201D3022D1CD12A46AD
:104AC00049462046FFF7FFFEA06C401C70B9606AA3
:104AD00008B9012000E0002058B904F1240001F0D9
:104AE0008CF930B12FB10120386002E0A06C401C7D
:104AF000A0644FF0010801E04FF000085046FBF7BA
:104B00006CFB4046BDE8F0872DE9F04105460E46B6
:104B10002C461CB9FBF75AFB00BFFEE7206C08B916
:104B2000012000E0002018B9FBF750FB00BFFEE7B2
:104B3000206808B9606808B9012000E0002018B9B1
:104B4000FBF744FB00BFFEE7FFF706FCFBF73EFB6D
:104B50008046A06BE16B884219D2A06B401CA06319
:104B6000A06C401C70B9606A08B9012000E0002008
:104B700058B904F1240001F040F930B12EB1012000
:104B8000306002E0A06C401CA064012700E0002718
:104B90004046FBF722FB3846BDE8F08170B505467C
:104BA000FFF799FBA86B08B9012400E00024FFF788
:104BB000B0FB204670BD70B504460D46206C70B148
:104BC000216CE0680844E0606168E068884201D3D5
:104BD0002068E0602846226CE16801F0EFFE70BDBD
:104BE0002DE9FF4383B005460E461F464FF00009EE
:104BF0002C461CB9FBF7EAFA00BFFEE70EB9206CA1
:104C000008B9012000E0002018B9FBF7DFFA00BF67
:104C1000FEE700BFFFF75FFBA06B68B3D4F80C8022
:104C200031462046FFF7C7FF8FB9A06B401EA06337
:104C3000206908B9012000E00020B8B904F1100093
:104C400001F0DBF8012811D1FFF73BFB0EE0C4F8BF
:104C50000C80606A08B9012000E0002030B904F13E
:104C6000240001F0CAF808B1FFF72BFBFFF751FB56
:104C7000012007B0BDE8F083059818B9FFF749FB9C
:104C80000020F6E7B9F1000F04D101A801F02DF9D9
:104C90004FF00109FFF73DFB00F080FCFFF71BFB25
:104CA000606C401C08B900206064A06C401C08B90E
:104CB0000020A064FFF72DFB05A901A801F023F94E
:104CC000C0B92046FFF76AFF70B104F124000599CE
:104CD00001F022F82046FFF7A8FD00F0B3FB002802
:104CE00098D1FFF7EEFA95E72046FFF79EFD00F01A
:104CF000A9FB8FE72046FFF798FD00F0A3FB0020FB
:104D0000B7E72DE9F0470546884616462C461CB9FC
:104D1000FBF75CFA00BFFEE7B8F1000F01D1206C91
:104D200008B9012000E0002018B9FBF74FFA00BFD6
:104D3000FEE7FFF711FBFBF749FA8146A06BE8B1EC
:104D400041462046FFF737FFA06B401EA063606C12
:104D5000401C70B9206908B9012000E0002058B952
:104D600004F1100001F049F830B12EB1012030609B
:104D700002E0606C401C6064012700E000274846A8
:104D8000FBF72BFA3846BDE8F0872DE9F0470546DA
:104D90000F462C461CB9FBF719FA00BFFEE70FB906
:104DA000206C08B9012000E0002018B9FBF70EFACA
:104DB00000BFFEE7206C08B1012000E0002018B918
:104DC000FBF704FA00BFFEE7FFF7C6FAFBF7FEF9B0
:104DD0008146A06B48B1D4F80C8039462046FFF7D5
:104DE000EAFEC4F80C80012600E000264846FBF7E6
:104DF000F4F93046BDE8F08770B504461CB9FBF7FE
:104E0000E5F900BFFEE7FFF766FAA56BFFF781FA49
:104E1000284670BD70B5044625461DB9FBF7D6F986
:104E200000BFFEE7FFF757FAD5E90E10461AFFF765
:104E300070FA304670BD70B504461CB9FBF7C6F970
:104E400000BFFEE7A56B284670BD70B50446254639
:104E50001DB9FBF7BBF900BFFEE72846FFF76CF969
:104E600070BD0146C86C7047C1647047014691F837
:104E70005000704770B505461DB9FBF7A7F900BF94
:104E8000FEE7A86B08B9012400E00024204670BDAD
:104E900070B504461CB9FBF799F900BFFEE7A06B9B
:104EA000E16B884201D1012500E00025284670BD54
:104EB0002DE9F0410746884615463C46FBF786F942
:104EC0002046FFF7F1FC88B15DB104F110012846DE
:104ED000FFF7D4FA0020FBF780F96FF00300BDE87C
:104EE000F0810020FBF779F90020F8E70020FBF7BC
:104EF00074F9FBF76BF9A06BE16B884213D20022C7
:104F000041462046FFF7DFFC0126606A08B9012010
:104F100000E0002040B904F12400FFF79DFB18B128
:104F20006FF0040600E000260020FBF756F930463B
:104F3000D5E72DE9F0410546884616462C46FBF795
:104F400045F9A06B88B95EB104F124013046FFF742
:104F500095FA0020FBF741F96FF00300BDE8F081FE
:104F60000020FBF73AF90020F8E70020FBF735F9BD
:104F7000FBF72CF9A06B00B3216CE0680844E060FB
:104F80006168E068884201D32068E060A06B401E41
:104F9000A0634046226CE16801F010FD0127206902
:104FA00008B9012000E0002040B904F11000FFF72B
:104FB00053FB18B16FF0040700E000270020FBF757
:104FC0000CF93846CAE72DE9F04105460F4616466A
:104FD0002C46A06BE16B884213D200223946204652
:104FE000FFF771FC6EB9606A08B9012000E000208B
:104FF00038B904F12400FFF72FFB10B10120BDE800
:10500000F0813046FBE72DE9F0410546884616461B
:105010002C46A06B10B3216CE0680844E060616826
:10502000E068884201D32068E060A06B401EA06366
:105030004046226CE16801F0C1FC306860B920692B
:1050400008B9012000E0002030B904F11000FFF79A
:1050500003FB08B101203060012700E0002738463B
:10506000BDE8F08110B5002407E004EB8401FA4AA2
:1050700002EB8100FFF71EFB641C1E2CF5D3F748E2
:10508000FFF718FBF648FFF715FBF648FFF712FB92
:10509000F548FFF70FFBF548FFF70CFBEF48F44925
:1050A0000860EF48F349086010BD2DE9F047044659
:1050B0000F4616469946DDF82080002507E0795D09
:1050C00004F134004155785D00B902E06D1C102DEB
:1050D000F5D300BF0021432001551E2E00D31D260D
:1050E000E662201DFFF7F3FA04F11800FFF7EFFA6C
:1050F0002461C6F11E00A06164620020E0642065A6
:1051000084F85400BDE8F0872DE9F04105460F46CC
:105110001FB9A800FEF791FF00E03846064656B1D9
:105120005820FEF78AFF04460CB1266304E030469F
:10513000FFF702F800E0002424B1A900A522206BAB
:1051400001F04EFC2046BDE8F0812DE9FF4F81B013
:10515000804616469A46DDE90E5BB8F1000F03D192
:10516000FBF734F800BFFEE71E2D01D2012000E05E
:10517000002018B9FBF72AF800BFFEE73046109967
:10518000FFF7C2FF0446002C5DD0701E216B01EBBF
:10519000800929F0070909F0070008B9012000E09B
:1051A000002018B9FBF712F800BFFEE700962A4668
:1051B0002046119B0299FFF778FF52464146484628
:1051C000FFF716F82060BBF1000F01D0CBF80040CC
:1051D000FFF781F8A8480068401CA7490860A74865
:1051E000006840B9A54804600846006801280CD151
:1051F000FFF738FF09E0A248006830B99F4800680F
:10520000C06AA84201D89D4804609E480068401CBE
:105210009C49086008460068606494F82C100120DE
:10522000884099490968084397490860E16A01EB99
:105230008101894A02EB8100211DFFF74BFA01270A
:10524000FFF767F801E04FF0FF37012F09D18C48D5
:10525000006830B189480068C06AA84201D2FFF7EF
:1052600030F8384605B0BDE8F08F81490968096813
:1052700009B9012100E0002121B14FF0FF31834A3B
:10528000116006E07A490968C968C8687F4A4168C0
:105290001160704770B50546FFF71DF815B97748DE
:1052A000006800E028460446201DFFF739FA78B967
:1052B000E06A00EB8000684951F8200040B994F89A
:1052C0002C10012088407049096881436E480160B4
:1052D000A06A18B104F11800FFF722FA211D6248F4
:1052E000FFF7F8F96A480068401C6949086065489A
:1052F0000068401C63490860FFF70BF860480068CD
:10530000B8B15E48006884420DD16248006808B9AF
:10531000012000E0002018B9FAF758FF00BFFEE7AF
:10532000FEF7CFFF05E0FEF7D6FFFFF79EFFFEF783
:10533000F0FF70BD2DE9F0414FF0000855480068BE
:10534000002872D154480068401C53490860084640
:105350000668DEB946480068006808B9012000E028
:10536000002018B9FAF732FF00BFFEE7404807688F
:10537000404800683E4908603E480760474800686A
:10538000401C46490860FFF770FF00BF3F480068B7
:1053900086423CD300BF36480068006808B9012047
:1053A00000E0002020B14FF0FF30384908602DE0C8
:1053B0002F480068C068C4686568AE4202D23348AE
:1053C000056023E0201DFFF7ABF9A06A18B104F1D6
:1053D0001800FFF7A5F994F82C10012088402A49FD
:1053E0000968084328490860E16A01EB81011A4A0B
:1053F00002EB8100211DFFF76DF92049E06A096881
:10540000C96A8842C7D34FF00108C4E700BF1B48F0
:105410000068C06A00EB80000F4951F820000128A5
:1054200008D94FF0010805E0FFE71D480068401C5F
:105430001B4908601B48006808B14FF0010840464E
:10544000BDE8F08170B500251248006818B9FAF778
:10545000BDFE00BFFEE727E05C560020B4580020E8
:10546000C8580020DC580020F058002004590020C3
:10547000540100205801002060010020500100204C
:105480006C0100207C0100206801002080010020C8
:105490005C010020840100206401002078010020CC
:1054A0007001002074010020FEF715FFF748006826
:1054B000401EF64908600846006800284BD1F448B1
:1054C0000068002847D024E0F248C068C46804F1AE
:1054D0001800FFF725F9201DFFF722F994F82C108A
:1054E00001208840EC4909680843EB490860E16AFB
:1054F00001EB8101E94A02EB8100211DFFF7EAF887
:10550000E749E06A0968C96A884202D30120E5498F
:105510000860E048006808B9012000E00020002889
:10552000D2D0E148006878B10AE0FFF703FF10B17C
:105530000120DC490860DC480068401EDA49086048
:10554000D94800680028F0D1D6480068012802D167
:105550000125FEF7B6FEFEF7DCFE284670BD10B54D
:105560000446CF4800684460D0480068844207D2AF
:10557000CB480168091DCE480068FFF7B7F80CE07A
:10558000C7480168091DCB480068FFF7AFF8CA4853
:105590000068844201D2C848046010BDBB4800685E
:1055A000401CBA49086070472DE9F04704460E4692
:1055B0004FF000091CB9FAF709FE00BFFEE70EB173
:1055C000012000E0002018B9FAF700FE00BFFEE756
:1055D000AE48006808B9012000E0002018B9FAF7C9
:1055E000F5FD00BFFEE7FFF7D9FFB048D0F8008017
:1055F000206885192068404507D92068A8420BD942
:10560000454509D94FF0010906E02068A84201D8B4
:10561000454501D94FF001092560B9F1000F13D0BC
:105620009F480068001DFFF77BF850B99C48006850
:1056300090F82C10012088409749096881439648CA
:1056400001602846FFF78BFFFFF7FCFE07460FB906
:10565000FEF737FEBDE8F08770B50446002634B388
:105660008A48006808B9012000E0002018B9FAF75C
:10567000ADFD00BFFEE7FFF791FF8C4800680519FC
:1056800087480068001DFFF74BF850B98448006850
:1056900090F82C10012088407F49096881437E489A
:1056A00001602846FFF75BFFFFF7CCFE06460EB908
:1056B000FEF707FE70BD70B50446FEF70CFE14B988
:1056C0007748006800E020460646F56AFEF721FEAE
:1056D000284670BD2DE9F0410446FEF73DFEFAF77D
:1056E00075FD064614B96E48006800E0204607467E
:1056F000FD6A3046FAF771FD2846BDE8F0812DE9D4
:10570000F04780460D464FF000091E2D01D20120C2
:1057100000E0002018B9FAF759FD00BFFEE71E2D82
:1057200000D31D25FEF7D7FDB8F1000F02D15C486C
:10573000006800E040460446E66AAE424BD0B542FF
:105740000BD95748006884420DD055480068C06A9C
:10575000A84208D84FF0010905E05148006884428A
:1057600001D14FF00109E76AE562A06900F000404D
:1057700010B9C5F11E00A06107EB8701474A02EB93
:1057800081016069884201D1012000E00020E0B180
:10579000201DFEF7C5FF30B90120B8403E49096819
:1057A00081433D48016094F82C10012088403A491B
:1057B0000968084338490860E16A01EB8101374A0A
:1057C00002EB8100211DFEF785FFB9F1010F01D128
:1057D000FEF777FD00BFFEF79CFDBDE8F08710B532
:1057E0002A48006818B101202E49086045E00020D1
:1057F0002C49086031480068314908600846006853
:105800003049096888420BD92549096801F14C00E3
:10581000C96C2B4A12682B4B1B68D21A11440160C9
:1058200027480068274908601B480068B0FA80F0E4
:10583000C0F11F0404EB8400184951F8200008B19E
:10584000012000E0002018B9FAF7C0FC00BFFEE715
:1058500004EB8401114A02EB810041684968416010
:1058600000F1080142688A4202D1416849684160FA
:105870004168C9680A4A116000BF10BD70B505468D
:10588000FEF729FD05BB064800681EE084010020E4
:1058900060010020DC580020680100205C560020D8
:1058A00050010020740100207001002064010020DC
:1058B0005801002054010020800100203C000020FD
:1058C0008C0100208801002028460446201DFEF798
:1058D00027FF78B9E06A00EB8000FD4951F820000D
:1058E00040B994F82C1001208840FA490968814396
:1058F000F8480160A06A18B104F11800FEF710FF23
:10590000211DF548FEF7E6FEFEF703FDF3480068AB
:1059100084421DD1F248006868B1F248006808B9B5
:10592000012000E0002018B9FAF750FC00BFFEE7A4
:10593000FEF7C7FC15E0E8480068EB4909688842B3
:1059400003D10020E54908600BE0FFF748FF08E0BD
:10595000E348006828B1FEF7BEFCFFF786FCFEF7BF
:10596000D8FC70BD70B5054600262C461DB9FAF767
:105970002DFC00BFFEE7D8496069884201D10120B3
:1059800000E0002070B1D949A06A884201D101200D
:1059900000E0002030B9A06A08B9012000E0002032
:1059A00000B10126304670BD70B505462C461DB9C4
:1059B000FAF70CFC00BFFEE74CB3C848006884420D
:1059C00025D0FEF788FC2046FFF7CCFF01281CD12C
:1059D000201DFEF7A5FE94F82C1001208840BD493B
:1059E00009680843BB490860E16A01EB8101B84AD4
:1059F00002EB8100211DFEF76DFEB849E06A0968DF
:105A0000C96A884201D3FEF75CFCFEF782FC70BDD8
:105A10002DE9F041054600262C461DB9FAF7D6FBC4
:105A200000BFFEE7FEF798FCFAF7D0FB07462046DA
:105A3000FFF798FF012824D1AA480068E0B9A749D8
:105A4000E06A0968C96A884200D30126201DFEF772
:105A500067FE94F82C10012088409E49096808438D
:105A60009C490860E16A01EB8101994A02EB8100DF
:105A7000211DFEF72FFE04E004F118019B48FEF7FC
:105A800029FE3846FAF7A9FB3046BDE8F08110B58B
:105A90000446206BFEF750FB2046FEF74DFB10BD81
:105AA00070B523E0FFF77AFD9148006808B901203E
:105AB00000E000200546FFF7C5FCBDB9FEF70BFC72
:105AC0008B48C068C468201DFEF72AFE864800681F
:105AD000401E8549086087480068401E8549086067
