:020000040800F2
:1000000050870020292B00084D2B00084F2B00089B
:10001000532B0008572B00085B2B00080000000042
:100020000000000000000000000000004501000882
:100030005F2B00080000000089010008E75D000850
:10004000432B0008432B0008432B0008432B0008D8
:10005000432B0008432B0008432B0008432B0008C8
:10006000432B0008432B0008432B0008432B0008B8
:10007000432B0008432B0008EB440008432B0008E7
:10008000432B0008432B0008432B0008432B000898
:10009000E3590008432B0008432B0008612B00089C
:1000A000432B0008432B0008432B0008432B000878
:1000B0009958000885580008432B0008432B000876
:1000C000432B0008432B0008432B0008432B000858
:1000D000432B00080F450008432B0008432B000862
:1000E000432B0008432B0008432B0008432B000838
:1000F000432B0008432B0008432B0008432B000828
:10010000432B0008432B0008432B0008432B000817
:10011000432B0008432B0008F72D0008432B000851
:10012000432B0008432B0008432B0008432B0008F7
:10013000DFF80CD00BF0ECFF00480047FD2C000866
:1001400050870020204B19680868B0E8F00F80F352
:100150000988BFF36F8F4FF0000080F311884EF0D5
:100160000D0E70470000000006480068006880F32C
:10017000088862B661B6BFF34F8FBFF36F8F00DFA1
:1001800000BF00BF08ED00E0EFF30980BFF36F8F01
:100190000D4B1A6820E9F00F106008B54FF0100001
:1001A00080F3118807F021FA4FF0000080F31188E6
:1001B000BDE8084019680868B0E8F00F80F30988C6
:1001C000BFF36F8F704700BFD0010020EFF31180A5
:1001D0004FF0100181F31188704780F31188704748
:1001E000EFF30580704700000CB5002001900090EF
:1001F0006C48006840F480306A49086000BF694874
:10020000006800F4003000900198401C01900098B4
:1002100018B90198B0F5A06FF1D16248006800F4F8
:10022000003010B10120009001E000200090009803
:10023000012843D15C48006840F010005A4908602A
:100240000846006820F0030008600846006840F097
:1002500002000860534840685249486008464068B8
:1002600048600846406840F480604860084640683E
:1002700020F47C1048600846406840F4E81048606C
:100280000846006840F08070086000BF454800687C
:1002900000F000700028F9D04248406820F00300C8
:1002A000404948600846406840F00200486000BF8E
:1002B0003C48406800F00C000828F9D10CBD10B58E
:1002C000FFF792FF10BD10B53648006840F00100FE
:1002D000344908600846406834490840314948605C
:1002E00008460068324908402E4908600846006800
:1002F00020F4802008600846406820F4FE00486032
:100300004FF41F008860FFF7DAFF4FF000602949C3
:10031000086010BD10B5002100200022214B5B6851
:1003200003F00C0121B1042906D0082928D107E0E7
:10033000214B224C236027E01F4B204C236023E0FD
:10034000184B5B6803F47010164B5B6803F4803243
:10035000022303EB904022B9194B4343174C23600F
:100360000DE0104B5B6803F4003323B1144B43439F
:10037000124C236003E0104B4343104C236003E016
:100380000D4B0E4C236000BF00BF064B5B68C3F3F0
:1003900003130C4CE15C094B1B68CB40074C2360FA
:1003A00010BD000000100240002002400000FFF8D5
:1003B000FFFFF6FE08ED00E000127A0000000020CA
:1003C00000093D000400002031490143314A116019
:1003D000704770B5002100230F22C47804B32D4C60
:1003E000246804F4E064C4F5E064210AC1F1040364
:1003F000CA40447804FA03F1847814402143090187
:10040000254C0678A155047804F01F050124AC4062
:1004100005786D11AD0005F1E025C5F8004109E052
:10042000047804F01F050124AC401C4D06787611B9
:1004300045F8264070BD1A4A0A400243154B1B1F5F
:100440001A60704739B1134A121D12680243114BEA
:100450001B1D1A6006E00F4A121D126882430D4BE5
:100460001B1D1A607047042808D14FF0E02109696C
:1004700041F004014FF0E022116107E04FF0E0216C
:10048000096921F004014FF0E0221161704700007A
:100490000000FA050CED00E000E400E080E100E07F
:1004A00080FFFF1F10B50446FE48844209D1012198
:1004B000480601F0EAF900214FF0007001F0E5F97B
:1004C00008E00121880601F0E0F900214FF080608A
:1004D00001F0DBF910BD30B502460020002314689E
:1004E00024F002041460146844F00104146000E075
:1004F0005B1C546804F001041CB94FF6FF74A3425E
:10050000F6D1546804F001040CB900206CE08C7939
:10051000012C04D1146844F08004146003E01468D2
:1005200024F080041460CC79012C04D1146844F0C8
:100530004004146003E0146824F0400414600C7A52
:10054000012C04D1146844F02004146003E0146802
:1005500024F0200414604C7A012C04D1146844F077
:100560001004146003E0146824F0100414608C7A02
:10057000012C04D1146844F00804146003E01468EA
:1005800024F008041460CC7A012C04D1146844F0DF
:100590000404146003E0146824F0040414608C78EC
:1005A000A407CD7844EA05640D7944EA05444D7901
:1005B00044EA05540D886D1E2C43D461146824F060
:1005C00001041460002300E05B1C546804F0010483
:1005D0001CB14FF6FF74A342F6D1546804F0010435
:1005E0000CB1002000E0012030BD10B50021837A5D
:1005F000012202FA03F1AC4A126842F00102AA4B4E
:100600001A60A94A1C3212688A43A74B1C331A602D
:10061000027BCAB9A44A0C3212688A43A24B0C333B
:100620001A604288C38842EA03439F4A4032847A70
:1006300042F834300288838842EA03439A4A4032BF
:10064000847A02EBC4025360027B012A19D1964AD4
:100650000C3212680A43944B0C331A6042880388A8
:1006600042EA0343904A4032847A42F83430C288E6
:10067000838842EA03438C4A4032847A02EBC40204
:100680005360C27A3AB9884A121D12688A43864B6F
:100690001B1D1A6006E0844A121D12680A43824B31
:1006A0001B1D1A60028932B97F4A143212688A43CC
:1006B0007D4B14331A600289012A06D17A4A14321A
:1006C00012680A43784B14331A60427B012A06D120
:1006D000754A1C3212680A43734B1C331A60724A03
:1006E000126822F00102704B1A6010BD0021817166
:1006F000C171017241728172C1728170C170032136
:100700000171022141710121018070476649096828
:1007100041F00101644A11601146096843F60E7206
:100720009143614A11601146096841EA0021116054
:100730001146096821F001011160704721B102687A
:1007400042F48032026003E0026822F480320260E8
:100750007047E1B1026842F0800202604FF4C27259
:10076000125842F480734FF4C27213504FF4CA729D
:10077000125842F480734FF4CA7213504FF4D2727D
:10078000125842F480734FF4D27213501BE0026887
:1007900022F0800202604FF4C272125822F4807379
:1007A0004FF4C27213504FF4CA72125822F480737D
:1007B0004FF4CA7213504FF4D272125822F480735D
:1007C0004FF4D2721350704710B502460020936860
:1007D00003F08063B3F1806F00D110E0936803F001
:1007E0000063B3F1006F01D1012008E0936803F0CA
:1007F0008053B3F1805F01D1022000E0042004287F
:1008000079D002F5C07303EB00131B6803F00104F9
:1008100002F5C07303EB00131C600B7A7BB94B7AB3
:100820000C8843EA445302F5C07404EB00142468B6
:10083000234302F5C07404EB0014236010E00B7A2C
:100840004C6843EAC4034C7A234302F5C07404EBBA
:1008500000142468234302F5C07404EB00142360E1
:100860008B7A03F00F038B7202F5C07303EB001356
:100870005B6823F00F0402F5C07303EB00135C60A8
:1008800002F5C07303EB00135B688C7A234302F517
:10089000C07404EB001463608B7B1C064B7B44EA42
:1008A000034403E000640040006600400B7B44EA20
:1008B0000323CC7A234302F5C07404EB0014A36035
:1008C0008B7C1C064B7C44EA03440B7C44EA0323E8
:1008D000CC7B234302F5C07404EB0014E36002F503
:1008E000C07303EB00131B6843F0010402F5C073EF
:1008F00003EB00131C6010BD10B50246002321B1AC
:10090000012907D002290FD109E09068F94C00EACB
:1009100004030BE09068F84C00EA040306E09068DA
:10092000F64C00EA040301E0002300BF00BFF44CD2
:10093000181BA34216D007DC83B16FF08060184407
:1009400070B1022818D111E0B0F5007F10D0ED4C45
:10095000204448B1B0F5003F0ED10BE002230DE07A
:1009600000230BE0002309E0002307E0012305E05A
:10097000012303E0012301E0002300BF00BFD8B240
:1009800010BD21B1012907D002290FD109E08268E9
:1009900042F0800282600AE0826842F40042826093
:1009A00005E0826842F40002826000E000BF00BF00
:1009B000704710B500F5D87303EB01131B6803F003
:1009C00004031372137A53B900F5D87303EB0113C0
:1009D0001B6840F2FF7404EA5353136009E000F50A
:1009E000D87303EB01131B686FF0604404EAD30370
:1009F000536000F5D87303EB01131B6803F0020387
:100A0000537200F5D87303EB01135B6803F00F0317
:100A1000937200F5D87303EB01135B681B0AD37460
:100A200000F5D87303EB01139B68D37200F5D873FC
:100A300003EB01139B681C0A147300F5D87303EBD6
:100A400001139B681C0C547300F5D87303EB01135E
:100A50009B681B0E937300F5D87303EB0113DB68DF
:100A6000D37300F5D87303EB0113DB681C0A14740D
:100A700000F5D87303EB0113DB681C0C547400F50C
:100A8000D87303EB0113DB681B0E937421B9C368A1
:100A900043F02003C36003E0036943F020030361D4
:100AA00010BD21B9C26842F02002C26003E00269B1
:100AB00042F02002026170470246002019B9D36853
:100AC00003F0030006E0012903D1136903F00300DA
:100AD00000E00020704710B502460B4600204FF69C
:100AE000FF71BBB9146824F0020444F001041460DF
:100AF00000E0491E546804F00304012C01D00029D1
:100B0000F7D1546804F00304012C01D0002032E036
:100B1000012030E0012B13D1146824F00304146089
:100B200000E0491E546804F003040CB10029F8D118
:100B3000546804F003040CB100201CE001201AE00A
:100B4000022B17D1146824F0010444F0020414604D
:100B500000E0491E546804F00304022C01D000296F
:100B6000F7D1546804F00304022C01D0002002E005
:100B7000012000E0002010BD014600200A6822F09C
:100B8000010242F002020A604A6802F00302022AED
:100B900000D10120704701464FF6FF7200200B681C
:100BA00023F002030B6000E0521E4B6803F00203C7
:100BB000022B01D1002AF7D14B6803F00203022B6C
:100BC00000D001207047014600208A6902F07000C1
:100BD0007047014600208A69100E704701460020C8
:100BE0008A69C2F3074070471AB143690B434361F6
:100BF00002E043698B434361704710B50246002011
:100C000001F4700343B19369C1F3130423400BB1A2
:100C100001202DE000202BE001F0807343B15368E8
:100C2000C1F3130423400BB1012021E000201FE099
:100C300001F0006343B19368C1F3130423400BB187
:100C4000012015E0002013E001F0007343B1D368E8
:100C5000C1F3130423400BB1012009E0002007E099
:100C60001369C1F3130423400BB1012000E00020FD
:100C700010BD0022244B994202D10023836111E070
:100C8000C1F3130201F000730BB1C2600AE001F07E
:100C900080630BB1026105E001F000630BB182607B
:100CA00000E0426070470246002002EA01030BB1F7
:100CB000012000E00020704770B504460D46002674
:100CC00060692840002872D0B5F5807F69D01DDCAE
:100CD000082D42D006DC012D2DD0022D31D0042D5F
:100CE0007FD134E0102D3ED0202D42D0402D78D140
:100CF00045E00000030000040003000800000310AA
:100D0000000100080001FFF77000F030B5F5004F5A
:100D100061D009DCB5F5007F4AD0B5F5806F4DD0C4
:100D2000B5F5006F5DD150E0B5F5803F2DD0B5F53C
:100D3000003F56D12FE0A0685549FFF7B4FF0646A3
:100D400051E0E0680321FFF7AEFF06464BE0E068A4
:100D50000821FFF7A8FF064645E0E0681021FFF7ED
:100D6000A2FF06463FE020690321FFF79CFF0646ED
:100D700039E020690821FFF796FF064633E0206935
:100D80001021FFF790FF06462DE060680821FFF76D
:100D90008AFF064627E060681021FFF784FF0646B9
:100DA00021E0A0690121FFF77EFF06461BE01BE062
:100DB000A0690221FFF777FF064614E0A06904212D
:100DC000FFF771FF06460EE00BE0A0697021FFF708
:100DD0006AFF064607E060680421FFF764FF0646E5
:100DE00001E0002600BF00E00026304670BDB1F5EE
:100DF000007F3AD00FDC202928D006DC01291CD046
:100E000004291DD0082940D11DE0402921D0B1F589
:100E1000807F3AD126E0B1F5004F31D006DCB1F544
:100E2000806F25D0B1F5006F2FD124E0B1F5803F60
:100E300012D0B1F5003F28D111E0154A826025E0BB
:100E40000822C26022E01022C2601FE00822026174
:100E50001CE01022026119E00822426016E0102214
:100E6000426013E00422426010E0042242600DE080
:100E7000042242600AE0002282610422426005E00E
:100E8000002282610422426000E000BF00BF704780
:100E90000101010001684FF6FE721140016000215E
:100EA000016041608160C1608D49884208D18C49F0
:100EB0000839496841F00F01894A083A51608AE0CF
:100EC00087491431884208D185490839496841F079
:100ED000F001834A083A51607DE081492831884217
:100EE00008D17F490839496841F470617C4A083A61
:100EF000516070E07A493C31884208D1784908391C
:100F0000496841F47041764A083A516063E0744997
:100F10005031884208D172490839496841F470213A
:100F20006F4A083A516056E06D496431884208D1F1
:100F30006B490839496841F47001694A083A5160BF
:100F400049E067497831884208D1654908394968DC
:100F500041F07061624A083A51603CE06149884260
:100F600006D1011F096841F00F01021F116032E034
:100F70005C491431884208D15A49091F096841F077
:100F8000F001584A121F116025E056492831884265
:100F900008D15449091F096841F47061514A121F70
:100FA000116018E04F493C31884208D14D49091F72
:100FB000096841F470414B4A121F11600BE0494926
:100FC0005031884207D14749091F096841F470210F
:100FD000444A121F1160704710B50022026847F69C
:100FE000F0739A430C6A8B6823430C6923434C6962
:100FF00023438C692343CC6923434C6A23438C6A83
:1010000023431A430260CB6843600B6883604B68DC
:10101000C36010BD0021016041608160C160016159
:1010200041618161C161016241628162704721B1A8
:10103000026842F00102026004E002684FF6FE73AB
:101040001A40026070471AB103680B43036002E064
:1010500003688B43036070474160704701464868EE
:1010600080B2704701460020002201F080531BB17E
:101070001C4B083B1A6802E0194B083B1A6802EA4D
:1010800001030BB1012000E00020704700F0805107
:1010900019B11449091F086002E011490839486074
:1010A000704701460020002201F080531BB10D4B18
:1010B000083B1A6802E00A4B083B1A6802EA01037F
:1010C0000BB1012000E00020704700F0805119B101
:1010D0000449091F086002E0014908394860704767
:1010E0000800024008040240002044490860091D2D
:1010F0000860091D0860091D086041483F49143116
:101100000860704700213D498279002A3AD00A469A
:10111000126803689A430B461A600A1D1268036836
:101120009A430B1D1A60027911440A6803681A4336
:101130000A60324A0832126803689A432F4B083318
:101140001A601A1D126803689A432C4B0C331A60FC
:101150004279102A0ED11A1F126803681A43274BCE
:1011600008331A601A1D126803681A43234B0C33A4
:101170001A600DE02149427911440A6803681A4354
:101180000A6005E0027911440A6803689A430A601C
:1011900070470021016001710C21417100218171B2
:1011A00070471649103109680143144A1032116022
:1011B000704701460020114A143212680A400AB1F1
:1011C000012000E0002070470C491431086070478E
:1011D000014600200022094B1B6803EA0102074B6D
:1011E00014331B680B4013B10AB1012000E000204A
:1011F0007047024914310860704700000004014044
:10120000FFFF0F0010B50446CC48844208D10121ED
:10121000042000F02DFB0021042000F029FB46E013
:10122000C748844208D10121082000F021FB002199
:10123000082000F01DFB3AE0C248844208D1012199
:10124000102000F015FB0021102000F011FB2EE013
:10125000BD48844208D10121202000F009FB002173
:10126000202000F005FB22E0B848844208D101218B
:10127000402000F0FDFA0021402000F0F9FA16E0CD
:10128000B348844208D10121802000F0F1FA002106
:10129000802000F0EDFA0AE0AE48844207D1012137
:1012A000801500F0E5FA0021A01500F0E1FA10BD6C
:1012B00010B50121084600F0DBFA0021012000F002
:1012C000D7FA10BD2DE9F041024600250026002086
:1012D00000230024002791F803C00CF00F0591F8BB
:1012E00003C00CF0100CBCF1000F03D091F802C049
:1012F0004CEA050591F800C0BCF1000F31D014682C
:1013000000202BE04FF0010C0CFA00F3B1F800C004
:101310000CEA03069E4220D183004FF00F0C0CFA1A
:1013200003F7BC4305FA03FC4CEA040491F803C03C
:10133000BCF1280F06D14FF0010C0CFA00FCC2F8EA
:1013400014C00AE091F803C0BCF1480F05D14FF07A
:10135000010C0CFA00FCC2F810C0401C0828D1D3C4
:101360001460B1F800C0BCF1FF0F34DD54680020F8
:101370002EE000F1080C4FF0010808FA0CF3B1F868
:1013800000C00CEA03069E4221D183004FF00F0CEF
:101390000CFA03F7BC4305FA03FC4CEA040491F889
:1013A00003C0BCF1280F05D100F1080C08FA0CF8B5
:1013B000C2F8148091F803C0BCF1480F07D100F1C6
:1013C000080C4FF0010808FA0CF8C2F81080401C15
:1013D0000828CED35460BDE8F0814FF6FF7101803C
:1013E000022181700421C170704702460020936879
:1013F0000B400BB1012000E00020704701468868D7
:1014000080B2704702460020D3680B400BB1012028
:1014100000E0002070470146C86880B27047016153
:101420007047416170470AB1016100E04161704756
:10143000C16070474FF480320A43826181618261EA
:1014400082698269704702460020434B18684FF654
:101450008073184040EA021008433F4B1860704701
:101460003E49C8617047F0B50A46002300240021B8
:10147000002500F00046B6F1004F02D1364EF1696A
:1014800001E0354E7168C0F3034583B200F44016A5
:10149000B6F5401F08D121F070612F4E766826F016
:1014A00070662D4F7E6012E000F48016B6F5801F46
:1014B00006D1032606FA05F4A14341F0706106E067
:1014C000460D360103FA06F6B14341F0706122B1D0
:1014D000460D360103FA06F6314300F00046B6F138
:1014E000004F02D11C4EF16101E01B4E7160F0BD56
:1014F00030B500228B071C0F0F2303FA04F2164BA2
:1015000008338C1053F824309343134C08348D1057
:1015100044F8253023468C1053F824308C07240FD0
:1015200000FA04F423430C4C08348D1044F82530A1
:1015300030BD0A49DC3108607047000000080140F6
:10154000000C01400010014000140140001801404F
:10155000001C01400020014000000140000020422A
:10156000DF48006840F00100DD4908600846406837
:10157000DC490840DA49486008460068DA49084012
:10158000D74908600846006820F4802008600846B3
:10159000406820F4FE0048604FF41F0088607047E8
:1015A000CF49096821F48031CD4A1160114609689C
:1015B00021F480211160B0F5803F03D0B0F5802F79
:1015C0000ED106E0C649096841F48031C44A116071
:1015D00007E0C349096841F4A021C14A116000E055
:1015E00000BF00BF704710B5014600220023002055
:1015F0004A11012A02D1BA4C236806E0022A02D11C
:10160000B74C236A01E0B64C636A01F01F02012463
:1016100094401C400CB1012000E0002010BD38B502
:10162000002000900024002500BF3120FFF7DBFFE1
:1016300005460098401C00900098B0F5A06F01D0BE
:10164000002DF2D03120FFF7CEFF08B1012400E0D9
:101650000024204638BD01460020A14A106820F031
:10166000F80040EAC10010607047A0490860704768
:10167000024600209A4B586820F47C1042EA01038D
:101680001843974B58607047984908667047014661
:101690000020934A506820F00300084350607047D0
:1016A0008F48406800F00C007047014600208C4ACB
:1016B000506820F0F0000843506070470146002059
:1016C000874A506820F4E060084350607047014644
:1016D0000020834A506820F4605040EAC100506006
:1016E000704729B17E4A527A02437D4B5A7204E018
:1016F0007B4A527A82437A4B5A7270477B49D8317F
:101700000860704701460020754A506820F4404048
:101710000843506070470021714A20321170704AAE
:1017200082F82010012802D004280AD104E0012107
:101730006B4A2032117005E00521694A2032117090
:1017400000E000BF00BF7047694908607047644906
:10175000096A0143624A1162704765494439086069
:10176000704730B500210022002400235C4D6D68D5
:1017700005F00C0121B1042905D0082923D105E089
:101780005C4D056022E05B4D05601FE0544D6D68C7
:1017900005F47012524D6D6805F48034022505EB96
:1017A00092421CB9544D554305600BE04C4D6D6899
:1017B00005F400351DB1504D5543056002E04D4D17
:1017C0005543056002E04B4D056000BF00BF444D2E
:1017D0006D6805F0F0010909484D6B5C0568DD4056
:1017E00045603F4D6D6805F4E061090A434D6B5C4F
:1017F0004568DD4085603A4D6D6805F46051C90A61
:101800003E4D6B5C4568DD40C560354D6D6805F447
:101810004041890B3A4D6B5CC568B5FBF3F505613A
:1018200030BD29B12E4A526902432D4B5A6104E062
:101830002B4A526982432A4B5A61704729B1284A80
:1018400092690243264B9A6104E0254A92698243D9
:10185000234B9A61704729B1214AD2690243204B38
:10186000DA6104E01E4AD26982431D4BDA61704797
:1018700029B11B4AD2680243194BDA6004E0184AC6
:10188000D2688243164BDA60704729B1144A126954
:101890000243134B1A6104E0114A12698243104B50
:1018A0001A61704712494039086070470F49C8648F
:1018B00070470B49C87170470948406A40F0807012
:1018C00007494862704701460020054A92680A406D
:1018D0000AB1012000E0002070470149887270477A
:1018E000001002400000FFF8FFFFF6FE0000424239
:1018F0008004424200127A0000093D0014000020DA
:101900002400002010B50446FE48844208D101217D
:10191000C014FFF7ADFF0021E014FFF7A9FFC4E0FA
:10192000B4F1804F08D101210846FFF7AEFF002136
:101930000120FFF7AAFFB8E0F348844208D1012153
:101940000220FFF7A2FF00210220FFF79EFFACE07C
:10195000EE48844208D101210420FFF796FF0021C0
:101960000420FFF792FFA0E0E948844208D101215A
:101970000820FFF78AFF00210820FFF786FF94E088
:10198000E448844208D101211020FFF77EFF0021A6
:101990001020FFF77AFF88E0DF48844208D1012158
:1019A0002020FFF772FF00212020FFF76EFF7CE070
:1019B000DA48844208D101214014FFF759FF002181
:1019C0006014FFF755FF70E0D548844209D101212A
:1019D000C804FFF74DFF00214FF40020FFF748FF38
:1019E00063E0D048844209D101210805FFF740FF98
:1019F00000214FF48010FFF73BFF56E0CA488442B5
:101A000009D101214805FFF733FF00214FF40010F1
:101A1000FFF72EFF49E0C548844208D1012140204C
:101A2000FFF733FF00214020FFF72FFF3DE0C048C4
:101A3000844208D101218020FFF727FF0021802068
:101A4000FFF723FF31E0BB48844208D10121801514
:101A5000FFF71BFF0021A015FFF717FF25E0B64891
:101A6000844209D101210804FFF702FF00214FF44D
:101A70008030FFF7FDFE18E0B048844209D1012113
:101A80004804FFF7F5FE00214FF40030FFF7F0FEA9
:101A90000BE0AB48844208D101218804FFF7E8FE3F
:101AA00000214FF48020FFF7E3FE10BD00220288E2
:101AB000944B98420ED0994B98420BD0B0F1804F86
:101AC00008D0914B984205D0904B984202D0904B51
:101AD000984204D14FF68F731A404B881A438D4BAE
:101AE000984207D08C4B984204D04FF6FF431A40DF
:101AF000CB881A4302808B8883850B880385814BB2
:101B000098420BD0854B984208D08B4B984205D019
:101B10008A4B984202D08A4B984201D10B7A0386B5
:101B200001238382704770B5002400220023058CB6
:101B30004FF6FE7635400584028C8388048B4FF681
:101B40008F752C40B51E2C400D882C43751E2A40E5
:101B50000D892A434D882A436A4DA8420BD06F4D08
:101B6000A84208D0744DA84205D0744DA84202D0B6
:101B7000734DA84213D14FF6F7752A404D892A4379
:101B80004FF6FB752A408D882A434FF6FF652B40A0
:101B90004FF6FF552B408D892B43CD892B438380F6
:101BA0000483CD888586028470BD70B50024002230
:101BB0000023058C4FF6EF7635400584028C838830
:101BC000048B48F6FF752C404FF6FF452C400D88DE
:101BD0004FF6FF7606EA05252C434FF6DF752A40BF
:101BE0000D8906EA05152A434D8806EA05152A439C
:101BF000444DA84202D0494DA8421DD14FF67F75F1
:101C00002A404D894FF6FF7606EA05152A434FF61E
:101C1000BF752A408D8806EA05152A434FF6FF3521
:101C20002B404FF2FF752B408D8906EA85052B432B
:101C3000CD8906EA85052B4383800483CD880587FB
:101C4000028470BD70B5002400220023058C4FF67D
:101C5000FF6635400584028C8388848B4FF68F7530
:101C60002C404FF6FC752C400D882C434FF6FF5549
:101C70002A400D894FF6FF7606EA05252A434D884E
:101C800006EA05252A431F4DA84202D0234DA8424B
:101C90001DD14FF2FF752A404D894FF6FF7606EAB7
:101CA00005252A434FF6FF352A408D8806EA05258B
:101CB0002A434EF6FF752B404DF6FF752B408D895C
:101CC00006EA05152B43CD8906EA05152B438380CB
:101CD0008483CD888587028470BD70B5002200237F
:101CE0000024058C4EF6FF7635400584038C8488ED
:101CF000828B48F6FF752A404FF6FF452A400D8833
:101D000020E00000002C01400004004000080040DA
:101D1000000C00400010004000140040003401405E
:101D2000004C0140005001400054014000180040A8
:101D3000001C0040002000400040014000440140E1
:101D4000004801404FF6FF7606EA05252A434DF686
:101D5000FF752B400D8906EA05352B434D8806EAB1
:101D600005352B43FA4DA84202D0FA4DA84208D1BE
:101D70004BF6FF752C408D894FF6FF7606EA8515E8
:101D80002C4384808283CD88A0F84050038470BDAA
:101D9000828B4FF2FF331A408283828B4FF6FF73A0
:101DA00003EA01231A4382837047F0B50C461546B7
:101DB000002200210026078C4EF6FF7C07EA0C0764
:101DC0000784828B018C4FF6FF7707EA043640F6D2
:101DD000FF473A404FF6FF7707EA05273A434FF6A9
:101DE000FF7707EA03373A43D94FB8420ED0D94FAD
:101DF000B8420BD0B0F1804F08D0D74FB84205D0D1
:101E0000D64FB84202D0D64FB84206D14DF6FF7732
:101E1000394046F48057394305E047F6FF573940CB
:101E200044F48057394382830184F0BD828B4FF69E
:101E3000F3731A408283828B0A4382837047F0B522
:101E40000C461546002200210026078C4FF6FF6C39
:101E500007EA0C070784828B018C4FF6FF7707EAAD
:101E600004264FF60C773A404FF6FF7707EA031740
:101E70002F433A43B64FB8420ED0B64FB8420BD0BC
:101E8000B0F1804F08D0B44FB84205D0B34FB8423C
:101E900002D0B34FB84206D14FF6FF57394046F44F
:101EA0008077394305E04FF2FF57394044F480779B
:101EB000394382830184F0BD028B4FF2FF331A4015
:101EC0000283028B4FF6FF7303EA01231A43028356
:101ED0007047F0B50C461546002200210026078CFD
:101EE0004FF6EF7C07EA0C070784028B018C4FF654
:101EF000FF7707EA041640F6FF473A404FF6FF77B0
:101F000007EA03373A434FF6FF7707EA05273A43D4
:101F10008F4FB8420ED08F4FB8420BD0B0F1804FE8
:101F200008D08D4FB84205D08C4FB84202D08C4FAC
:101F3000B84206D14FF6DF77394046F010073943F3
:101F400005E04FF65F77394044F0100739430283CC
:101F50000184F0BD028B4FF6F3731A400283028BAB
:101F60000A4302837047F0B50C4615460022002153
:101F7000068C4FF6FE773E400684028B018C4FF6AE
:101F80000C7632407E1C06EA03162E433243704E16
:101F9000B0420ED06F4EB0420BD0B0F1804F08D09F
:101FA0006D4EB04205D06D4EB04202D06C4EB04284
:101FB00006D14FF6FD76314044F00106314305E08D
:101FC0004FF6F576314044F0010631430283018437
:101FD000F0BD70B505460C465D4885420ED05D48A3
:101FE00085420BD0B5F1804F08D05B48854205D0C3
:101FF0005A48854202D05A48854200D100E000BFCD
:10200000208850B92389A28861882846FFF7ABFF52
:10201000E1882846FFF79EFF25E0208804280AD1A2
:102020002389A28861882846FFF753FFE188284664
:10203000FFF742FF17E0208808280AD12389A288E9
:1020400061882846FFF7FBFEE1882846FFF7EEFE91
:1020500009E02389A28861882846FFF7A6FEE18867
:102060002846FFF795FE70BD2DE9F04105460C4668
:1020700000260127608808B9022600E00026A08813
:10208000012801D1022700E001272088A0B9238977
:10209000A28861882846FFF766FFE1882846FFF797
:1020A00059FF23893A4631462846FFF712FFE18857
:1020B0002846FFF701FF13E02389A288618828469C
:1020C000FFF707FFE1882846FFF7F6FE23893A4627
:1020D00031462846FFF747FFE1882846FFF73AFFD9
:1020E000BDE8F0810A884B881A438B881A43CB8855
:1020F0001A430B891A434B891A438B891A43A0F858
:10210000442070474FF6FF71818000210180C1801B
:102110004180017270470021018041808180C1802F
:10212000018141818181C18170470021018041800D
:10213000012181800021C18001817047002101803F
:1021400041808180C180018141818181704700008F
:10215000002C014000340140000400400008004011
:10216000000C004021B1028842F00102028004E02C
:1021700002884FF6FE731A400280704731B1B0F802
:10218000442042F40042A0F8442005E0B0F8442086
:10219000C2F30E02A0F8442070471AB183890B43A2
:1021A000838102E083898B438381704781827047FA
:1021B00041EA0203A0F8483070471AB183890B4303
:1021C000838102E083898B438381704701894FF6C5
:1021D000F8721140018170470A46002101894FF6CB
:1021E0008F73194011430181704730B504460D4685
:1021F00029462046FFF7F0FF208940F007002081A4
:1022000030BD2DE9F04104460D4616461F46602DAF
:1022100006D13B46012231462046FFF75AFE05E033
:102220003B46012231462046FFF79DFE29462046C7
:10223000FFF7D2FF208940F007002081BDE8F08140
:1022400030B50C4600210189C9B24FF6FF7505EA89
:102250000325154325432943018130BD2DE9F04174
:1022600005460E4617469846002443463A463146F0
:102270002846FFF7E5FF2C894FF6F870044044F03C
:1022800007044FF68F70044044F070042C81BDE8C1
:10229000F081F0B504460D4616461F463B463246D1
:1022A00029462046FFF7CCFF208940F4804020815A
:1022B000F0BD0185828270470A46002101884FF6F1
:1022C0008F731940114301807047F0B50C461546D5
:1022D0001E460021002200230189028B038C4FF649
:1022E000F877394021434FF6FC473A4040F2011756
:1022F0003A434FF6DD773B404FF6FF7707EA061784
:102300002F433B43018102830384F0BD0A46002131
:10231000018B4FF68F7319401143018370470A46B2
:102320000021018B48F6FF7319404FF6FF7303EA53
:1023300002231943018370470A460021818B4FF61F
:102340008F7319401143818370470A460021818BA6
:1023500048F6FF7319404FF6FF7303EA022319434F
:102360008183704721B1028842F08002028004E03C
:1023700002884FF67F731A400280704721B182882D
:1023800042F00402828004E082884FF6FB731A4018
:102390008280704721B1828842F00802828004E086
:1023A00082884FF6F7731A408280704721B1828885
:1023B00042F00102828004E082884FF6FE731A40E8
:1023C000828070470A460021018B4FF6F77319404F
:1023D0001143018370470A460021018B4FF2FF73BE
:1023E00019404FF6FF7303EA022319430183704734
:1023F0000A460021818B4FF6F77319401143818300
:1024000070470A460021818B4FF2FF7319404FF647
:10241000FF7303EA02231943818370470A460021B0
:10242000018B4FF6FB7319401143018370470A4635
:102430000021018B4FF6FF3319404FF6FF7303EA7B
:1024400002231943018370470A460021818B4FF60E
:10245000FB7319401143818370470A460021818B29
:102460004FF6FF3319404FF6FF7303EA0223194377
:10247000818370470A460021018B4FF67F73194014
:102480001143018370470A460021018BC1F30E01FD
:102490004FF6FF7303EA02231943018370470A468C
:1024A0000021818B4FF67F73194011438183704760
:1024B0000A460021818BC1F30E014FF6FF7303EA38
:1024C00002231943818370470A460021018C4FF68D
:1024D000FD7319401143018470470A460021018CA5
:1024E0004FF6F77319401143018470470A460021E3
:1024F000018C4FF6DF7319404FF6FF7303EA0213A6
:102500001943018470470A460021018C4FF67F73FE
:1025100019404FF6FF7303EA021319430184704711
:102520000A460021018C4FF6FF5319404FF6FF7306
:1025300003EA02231943018470470A460021018CF3
:102540004FF2FF7319404FF6FF7303EA022319435A
:10255000018470470A460021018C4DF6FF73194033
:102560004FF6FF7303EA023319430184704730B515
:10257000002301248C40A3B2048C9C430484048C6B
:1025800002FA01F5ADB22C43048430BD30B500230E
:1025900004248C40A3B2048C9C430484048C02FA6F
:1025A00001F5ADB22C43048430BD70B50346002064
:1025B00000241846183001258D40ACB21D8CA5436F
:1025C0001D8409B1082909D100EB6100056825F0D7
:1025D000700505600568154305600EE00D1FC5F325
:1025E0004E052844056825F4E045056005684FF66A
:1025F000FF7606EA02263543056070BD21B10288E8
:1026000042F00202028004E002884FF6FD731A4095
:102610000280704721B1028842F00402028004E087
:1026200002884FF6FB731A400280704721B18288FE
:1026300042F08002828004E082884FF67F731A4065
:102640008280704702884FF6F7731A400280028832
:102650000A430280704782884FF68F731A40828047
:1026600082880A438280704702894FF6F8731A40C5
:10267000028102890A430281704702894FF67F7303
:102680001A40028102890A4302817047818470479F
:1026900081857047818670470187704781877047C1
:1026A000A0F84010704702884FF6FF431A4002809E
:1026B00002880A43028070470146888E70470146AF
:1026C000088F70470146888F70470146B1F8400077
:1026D00070470146888C70470146088D7047024656
:1026E0000020138A0B400BB1012000E0002070474E
:1026F000CA430282704730B50246002000230024FE
:10270000158A05EA0103958905EA010413B10CB1A4
:10271000012000E0002030BDCA4302827047000063
:1027200010B50446FB48844209D101218803FFF714
:102730009FF800214FF48040FFF79AF832E0F64806
:10274000844209D101214804FFF79FF800214FF48A
:102750000030FFF79AF825E0F048844209D10121C2
:102760008804FFF792F800214FF48020FFF78DF8DE
:1027700018E0EB48844209D10121C804FFF785F82D
:1027800000214FF40020FFF780F80BE0E548844279
:1027900008D101210805FFF778F800214FF48010D7
:1027A000FFF773F810BD2DE9F04786B005460E46D9
:1027B0000024A24600BFA1460027B08900B100BF97
:1027C0002F462C8A4CF6FF700440F08804432C827C
:1027D000AC894EF6F3100440B08831890843718902
:1027E00008430443AC81AC8A4FF6FF400440B089F3
:1027F0000443AC8201A8FEF7B4FFC648874202D169
:10280000DDF810A001E0DDF80CA0A88900F400407C
:1028100040B10AEBCA0000EB0A1031684900B0FB76
:10282000F1F807E00AEBCA0000EB0A1031688900F2
:10283000B0FBF1F86420B8FBF0F00401200964213A
:1028400001FB1089A88900F4004040B1322000EB60
:10285000C900B0FBF1F000F00700044308E03220AB
:1028600000EB09106421B0FBF1F000F00F0004430D
:102870002C8106B0BDE8F0874FF4165101600021AD
:102880008180C18001810C214181002181817047BB
:1028900010B502460020108A4FF2FF0318400B8843
:1028A0004C8823438C882343CC88234318431082CD
:1028B00010BD0021018041808180C180704721B11D
:1028C000828942F40052828104E082894DF6FF73CE
:1028D0001A4082817047F0B5034600240026002587
:1028E000002040F66A17B94200D100BF1846C1F374
:1028F000421401F01F06012707FA06F5012C01D149
:102900000C3004E0022C01D1103000E014301AB178
:1029100007682F43076002E00768AF430760F0BD18
:102920001AB1838A0B43838202E0838A8B438382BA
:102930007047028A4FF6F0731A400282028A0A43F5
:102940000282704782894FF2FF731A408281828926
:102950000A438281704721B1828942F0020282815A
:1029600004E082894FF6FD731A4082817047028A23
:102970004FF6DF731A400282028A0A4302827047CE
:1029800021B1028A42F48042028204E0028A4BF6BC
:10299000FF731A4002827047C1F3080282807047B9
:1029A00001468888C0F308007047818941F0010121
:1029B00081817047028BD2B20283028B42EA0122EC
:1029C00002837047028B02F47F420283028B0A4328
:1029D0000283704721B1828A42F02002828204E0A1
:1029E000828A4FF6DF731A408282704721B1828A51
:1029F00042F01002828204E0828A4FF6EF731A409E
:102A00008282704721B1828A42F00802828204E009
:102A1000828A4FF6F7731A408282704721B1828909
:102A200042F40042828103E08289C2F30E02828175
:102A3000704721B1828A42F40062828204E0828A75
:102A40004FF2FF731A4082827047828A4FF6FB73FF
:102A50001A408282828A0A438282704721B1828A26
:102A600042F00202828204E0828A4FF6FD731A402D
:102A70008282704702460020B1F5007F00D100BF7E
:102A800013880B400BB1012000E00020704701F4D7
:102A90000072B2F5007F00D100BFCA4302807047C8
:102AA00070B50246002400230025002040F66A1677
:102AB000B14200D100BFC1F3421501F01F0301264E
:102AC00006FA03F3012D02D19689334006E0022D68
:102AD00002D1168A334001E0968A33400C12012657
:102AE00006FA04F41688344013B10CB1012000E05A
:102AF000002070BD10B50022002340F66A14A142E8
:102B000000D100BF0A1201249440A3B2DC43048028
:102B100010BD000000380140004400400048004063
:102B2000004C0040005000400648804706480047DF
:102B3000FEE7FEE7FEE7FEE7FEE7FEE7FEE7FEE76D
:102B4000FEE7FEE7C702000831010008704700BF3A
:102B5000FEE700BFFEE700BFFEE700BFFEE77047ED
:102B600008B52020FEF734FBC8B10D480078401CA2
:102B70000B4908700846007802280DDB69460948B1
:102B8000006803F0C7FE009818B14FF08050064966
:102B900008600020024908702020FEF72AFB08BDCB
:102BA000280000206400002004ED00E010B50022A1
:102BB00032210A2003F00AFD584908600022322120
:102BC0000A2003F003FD56490860002216210A205E
:102BD00003F0FCFC53490860002216210A2003F090
:102BE000F5FC5149086003220021012003F0EEFCAE
:102BF0004E49086003F0B4FA4D49086010BD1FB596
:102C000000204C4A0623CDE901200093039003469F
:102C1000802249A14B4804F09EF900204A4A06232D
:102C2000CDE901200093039003464FF4807247A141
:102C3000494804F090F90020484A0723CDE90120D3
:102C40000093039003464FF4807245A1484804F076
:102C500082F90020474A0B23CDE90120009303901D
:102C600003464FF4807244A1474804F074F90020F1
:102C7000464A0C23CDE901200093039003464FF40C
:102C8000807243A1464804F066F90020454A0C23AF
:102C9000CDE901200093039003464FF4807242A1D6
:102CA000454804F058F90020384A0C23CDE90120AA
:102CB0000093039003464FF4807240A1424804F011
:102CC0004AF90020374A0C23CDE9012000930390F4
:102CD00003464FF480723DA13F4804F03CF90020C8
:102CE0003E4A0A23CDE901200093039003464FF4A6
:102CF00080722DA13A4804F02EF91FBD012080F307
:102D0000108800BF00F05CFE00F09CF8FFF777FF32
:102D1000FFF74CFF04F0FFFD00BFFEE7540000206A
:102D2000580000205C0000206000002064000020AB
:102D3000680000202C0000205461736B204C6564F7
:102D400000000000D5840008300000205461736B3F
:102D5000204B657900000000F98300084400002042
:102D60005461736B20446973706C617900000000DA
:102D7000B1860008480000205461736B204D6F76C7
:102D8000654374726C000000D18800083400002094
:102D90005461736B205561727431527800000000E9
:102DA000F9840008380000205461736B205561726B
:102DB0007431547800000000298500085461736B59
:102DC0002043616E527800007D8900085461736B66
:102DD0002043616E54780000AD8900085000002047
:102DE000E185000810B50023012244F620610A485D
:102DF00001F02EF910BD10B501210748FFF77BFC4B
:102E000040B106480068401C04490860012102489E
:102E1000FFF782FC10BD0000001000406C00002095
:102E200070B50446049D601AEE1A7043561A90FB62
:102E3000F6F0184470BD0146002901DA484200E06E
:102E40000846704710B505F053FC10BD30B5034679
:102E50000C4600211AE0585C2578A84200D014E006
:102E6000002206E0521CA05C8D185D5DA84200D0D7
:102E700005E0A05C18B18818185C0028F2D100BFEA
:102E8000A05C08B9084630BD00BF491C585C00284A
:102E9000E1D1401EF7E72DE9FE4304460E464FF010
:102EA0000009002000900190029031462046FFF773
:102EB000CDFF05466019D0F803100091C0798DF858
:102EC0000400601980782B2807D1684609F093FC2C
:102ED000074608F081FF814608E0684609F08BFC50
:102EE00081F00041074608F077FF81464846BDE87B
:102EF000FE832DE9F84306460F4614461D46A046BC
:102F0000002000903221304608F001FD4FEA1860A1
:102F10008DF800002A463946304608F0DFFC0020D4
:102F2000BDE8F883FEB505460F4616461C46002050
:102F30000090019002903221284608F0E8FC002E13
:102F400008DD22463946284608F0C8FCF9A1097870
:102F5000295508E022463946284608F0BFFCF6A16C
:102F60000978295576423246F4A1684609F0F0FA0C
:102F7000F34886420ADA42F20F70864206DD2819CB
:102F80000099C0F801109DF80410417142F21070D0
:102F900086420ADAB6F57A7F07DB2819E9A10978B3
:102FA000417028190099C0F80210B6F57A7F0EDA40
:102FB000632E0CDD2819E4A10988A0F80110281956
:102FC000BDF80010A0F803109DF802104171642EA6
:102FD0000CDA092E0ADD2819DCA10A88A0F80120E4
:102FE0008978C1702819BDF8001081800A2E08DA8E
:102FF0002819D7A10968C0F8011028199DF80010F8
:1030000041712320291988710020FEBD10B50246A8
:103010000B461446002107E0605C984200D002E0B5
:103020006218002010BD491C3229F5DB0120F9E7A8
:103030002DE9F0418AB004460D4616461F46DDF8DC
:10304000408024208DF804008DF805408DF806504E
:1030500003208DF8070000208DF808008DF8096026
:103060008DF80A700023424601A9BB48006803F0AE
:1030700067FB0AB0BDE8F0812DE9F04389B0044652
:103080000D4616461F46DDE9108924208DF8000004
:103090008DF801408DF8025008F10200C0B28DF8A1
:1030A000030001208DF804008DF805604246394682
:1030B0000DF1060008F012FC00234A466946A648B6
:1030C000006803F03DFB09B0BDE8F083F0B589B0BE
:1030D00004460F4615461E4624208DF80000502059
:1030E0008DF801008DF8024003208DF803000020C8
:1030F0008DF804008DF805708DF8065000233246D7
:1031000069469548006803F01BFB09B0F0BD2DE946
:10311000F0418AB005460E4617461C46DDF8408051
:1031200024208DF8040050208DF805008DF80650FD
:10313000A01CC0B28DF8070001208DF808008DF8A2
:103140000960224639460DF10A0008F0C7FB00234A
:10315000424601A98048006803F0F2FA0AB0BDE8CF
:10316000F08138B5044624212046FFF74FFFA078B0
:1031700001282AD160785028FBD1207930BB6079B2
:10318000062822D1A079012801D174498870A0793C
:10319000022802D1012072498870A079032802D147
:1031A000012070498870A079042802D101206E495D
:1031B0008870A079052802D101206C4988701021FF
:1031C0006B48006802F0D9FF00BF99E02079012820
:1031D000FBD16079012804D0022843D0052840D1D2
:1031E00068E0607A0106207A41EA0041E07941EA2C
:1031F0000020A17940EA01052846FFF71CFE40F6B1
:10320000B831884201DA5B480560607B0106207BAB
:1032100041EA0041E07A41EA0020A17A40EA010552
:103220002846FFF708FE40F6B831884201DA5148D7
:103230008560607C0106207C41EA0041E07B41EA38
:103240000020A17B40EA01052846FFF7F4FD40F687
:10325000B831884201DA4748856004F08AFB464964
:1032600008604CE0A079012802D0112820D10FE09D
:10327000E07942494870607B0106207B41EA0041C9
:10328000E07A41EA0020A17A08433C4948600FE017
:10329000E0793B494870607B0106207B41EA0041B0
:1032A000E07A41EA0020A17A08433549486000BF2E
:1032B00000BF24E0A07901281BD1324981F84D00DC
:1032C000E07981F84800207A81F84900607A81F835
:1032D0004A00A07A81F84B00E07A81F84C00084659
:1032E00005F00CFA0020402380220146009001F0F6
:1032F000F0FA08211E48006802F03FFF00BF00BF3F
:1033000038BD2DE9F0410446207A002874D12068A8
:103310003128FBD1E07A0328F8D1207B0128F5D1B0
:10332000607B012830D0022868D003287DD0042893
:1033300061D198E02B0000002D000000256C640096
:10334000A086010030000000303000003030300036
:10335000303030300000000058000020C80000204D
:10336000DC000020F00000200401002018010020F3
:103370006800002088820020180200202C01002014
:1033800074010020AC820020A07B012802D002281A
:1033900030D117E0A17C0A06617C42EA0142217C1F
:1033A00042EA0121E27B41EA020008F0EBFC074619
:1033B0000022F84B08F069FC054608F03FFDF6498D
:1033C000086017E0A17C0A06617C42EA0142217C88
:1033D00042EA0121E27B41EA020008F0D3FC074601
:1033E0000022EC4B08F051FC054608F027FDEA49A5
:1033F000486000BF00BFA2E0A2E0FFE7A07B032877
:1034000019D1A17C0A06617C42EA0142217C42EA90
:103410000121E27B41EA020008F0B4FC07460022E9
:10342000DC4B08F032FC054600E006E008F006FD43
:10343000DA49086000BF00BF81E0A07B042802D009
:1034400005280ED106E0E17B207C41EA0020D4492A
:10345000088006E0E17B207C41EA0020D0494880DA
:1034600000BF00BF6BE0A07B012836D002284CD003
:10347000062802D0072860D117E0A17C0A06617CEB
:1034800042EA0142217C42EA0121E27B41EA020058
:1034900008F078FC07460022BE4B08F0F6FB054614
:1034A00008F0CCFCBF49486047E0A17C0A06617C7B
:1034B00042EA0142217C42EA0121E27B41EA020028
:1034C00008F060FC07460022B24B08F0DEFB054620
:1034D00008F0B4FCB349C8602FE0A17C0A06617C07
:1034E00042EA0142217C42EA0121E27B41EA0200F8
:1034F00008F048FC07460022A64B08F0C6FB05462C
:1035000008F09CFCA749086017E0A17C0A06617CD2
:1035100042EA0142217C42EA0121E27B41EA0200C7
:1035200008F030FC074600229A4B08F0AEFB054637
:1035300008F084FC9B49886000BF00BF00BF00BF4B
:10354000207A00285CD12068322859D1E07A0328FB
:1035500056D1207B012853D1607B112804D012283A
:103560001BD013284BD131E0A07B112802D01228A8
:1035700011D103E0E07B8C4948700CE0A07C01068F
:10358000607C41EA0041207C41EA0020E17B084365
:103590008549486000BF00BF31E0A07B112802D000
:1035A000122811D103E0E07B804948700CE0A07C38
:1035B0000106607C41EA0041207C41EA0020E17B79
:1035C00008437A49486000BF00BF18E0A07B11287B
:1035D00002D0122811D103E0E07B754948700CE05D
:1035E000A07C0106607C41EA0041207C41EA002089
:1035F000E17B08436E49486000BF00BF00BF00BFC9
:10360000207A002876D120683328FBD1E07A03287D
:10361000F8D1207B0128F5D1607B212802D0222817
:1036200069D19DE0A07B25283DD00CDC222820D04C
:1036300004DC01286DD021281AD10DE0232825D0E3
:10364000242815D13CE0262847D0272854D0282804
:1036500078D029280CD17AE0A07C0106607C41EA70
:103660000041207C41EA0020E17B08435149086089
:1036700074E0A07C0106607C41EA0041207C41EAC4
:103680000020E17B08434B49486067E0A07C0106CD
:10369000607C41EA0041207C41EA0020E17B084354
:1036A000444988605AE0A07C0106607C41EA004100
:1036B000207C41EA0020E17B08433E49C8604DE0A0
:1036C000A07C0106607C41EA0041207C41EA0020A8
:1036D000E17B08433749086140E0A07C0106607C3B
:1036E00041EA0041207C41EA0020E17B0843314966
:1036F000486133E0E4E0E2E0A07C0106607C41EA5E
:103700000041207C41EA0020E17B0843294988618F
:1037100024E0A17C0A06617C42EA0142217C42EA63
:103720000121E27B41EA020008F02CFB074600225F
:10373000184B08F0AAFA054608F080FB1D49C8613D
:103740000CE0FFE7E07B1B4981F8200006E0E17B0D
:10375000207C41EA00201749488400BF00BFAEE04A
:10376000A07B25284FD00CDC222832D004DC012895
:103770007FD021282CD11FE0232837D0242827D11F
:103780004EE0262859D0272865D0282870D029282F
:103790001ED18BE000005940B0000020B80000208E
:1037A000BC0000204402002088000020900000207F
:1037B0009800002054020020A07C0106607C41EAB1
:1037C0000041207C41EA0020E17B08433D4908603C
:1037D00073E0A07C0106607C41EA0041207C41EA64
:1037E0000020E17B08433749486066E0A07C010681
:1037F000607C41EA0041207C41EA0020E17B0843F3
:103800003049886059E0A07C0106607C41EA0041B3
:10381000207C41EA0020E17B08432A49C8604CE053
:10382000A07C0106607C41EA0041207C41EA002046
:10383000E17B0843234908613FE0A07C0106607CEE
:1038400041EA0041207C41EA0020E17B08431D4918
:10385000486132E00DE0A07C0106607C41EA004155
:10386000207C41EA0020E17B08431649886124E07E
:1038700017E0A17C0A06617C42EA0142217C42EA0F
:103880000121E27B41EA020008F07CFA07460022AF
:103890000D4B08F0FAF9054608F0D0FA0949C8615D
:1038A0000BE0E07B074981F8200006E0E17B207C0B
:1038B00041EA00200349488400BF00BF00BF00BFA9
:1038C000BDE8F08178020020000059400120134932
:1038D0000870022048706420486011201049087068
:1038E000022048706420486001200E4908700220C0
:1038F00048706420486002200B49087048706420BA
:10390000486011200949087002204870642048600E
:10391000704710B5FFF7DAFF10BD000078000020F7
:1039200080000020880000209000002098000020E7
:1039300010B504F01EF8024908600020087110BD9F
:10394000A00000201949096841F08071174A1160F0
:103950001749096841F00101154A116015490860CD
:10396000704770B50446124845681248006810B99F
:103970001148FFF7E7FF0F480068104990FBF1F08E
:1039800000FB04F6AB19AB4205DD00BF08484068F8
:103990009842FBD309E000BF054840689842FBD23B
:1039A00000BF034840689842FBD370BDFCED00E0C7
:1039B000001000E0C000002000A24A0440420F00B6
:1039C00010B54FF44070FCF7FFFC1148FFF7BAFF49
:1039D00001F0BFFB052000F024FD00F054FC0D4871
:1039E000FFF7BFFF002141F61F4001F0FBFC094833
:1039F000FFF7B7FF01F0D6FD01F034FE01F07CFEC9
:103A000001F0C4FE00F01AF801F0E1FF10BD000063
:103A100000A24A04A086010038B504460121A0682E
:103A2000FDF70CFF208A80B2ADF8000028208DF849
:103A300003006946E068FDF745FC38BD10B537481E
:103A4000FFF7EAFF3648FFF7E7FF3648FFF7E4FFE6
:103A50003548FFF7E1FF3548FFF7DEFF10BD10B531
:103A60000446A088401CA080607820B1012812D0B4
:103A700002284FD120E0228A91B2E068FDF7B5FC20
:103A800030B9012060700020A080A071A07001E01A
:103A90000020A0803FE0228A91B2E068FDF7A5FCFB
:103AA00010B90220607006E00020607020490870A4
:103AB000A070A080A0712EE0228A91B2E068FDF78C
:103AC00094FC012819D1A088322805DA20781849F9
:103AD00008700120A07003E0002015490870A07054
:103AE000E079012802D10020E07101E00120E071BD
:103AF00000206070A080A0710BE0A088322801DD5A
:103B00000220A070A08841F28831884201DD084679
:103B1000A08000E000BF00BF10BD0000C800002072
:103B2000DC000020F000002004010020180100202B
:103B3000C400002001460020FE4A914201D1042029
:103B40001CE0FD4A914201D1082017E0FB4A914256
:103B500001D1102012E0FA4A914201D120200DE05B
:103B6000F84A914201D1402008E0F74A914201D140
:103B7000802003E0F54A914200D188157047014644
:103B80000020F34A914201D1C81442E0F14A914227
:103B900001D148143DE0F04A914202D14FF4002097
:103BA00037E0EE4A914202D14FF4801031E0EC4A06
:103BB000914202D14FF400102BE0B1F1804F01D1BE
:103BC000012026E0E74A914201D1022021E0E64AA5
:103BD000914201D104201CE0E44A914201D1082025
:103BE00017E0E34A914201D1102012E0E14A9142EC
:103BF00001D120200DE0E04A914201D1402008E0AF
:103C0000DE4A914201D1802003E0DD4A914200D199
:103C1000881570472DE9F84306460D461446984628
:103C20003046FFF787FF07460121FDF707FEC8482A
:103C3000844202D0C748844207D12046FFF79FFF45
:103C400007460121FDF7FAFD06E02046FFF797FF42
:103C500007460121FDF7FFFDADF8005018208DF853
:103C6000030003208DF8020069463046FDF72AFB69
:103C7000BDE8F883F8B505460C462846FFF75AFF1D
:103C800006460121FDF7DAFDADF8004010208DF861
:103C9000030003208DF8020069462846FDF712FB59
:103CA000F8BD2DE9FF4F87B0834614461D46DDE978
:103CB000146ABAF1000F0FD100212046FEF752FA24
:103CC00058460899FFF7D6FF002258460899FDF795
:103CD000AAFB0BB0BDE8F08F42F2107082450DD107
:103CE00000212046FEF73EFA58460899FFF7C2FF2A
:103CF000012258460899FDF796FBEAE72B46224633
:103D000058460899FFF786FF914884420BD09148A6
:103D1000844208D09048844205D09048844202D022
:103D20008F48844203D19748D0F8008002E095483C
:103D3000D0F80080642E0AD242F20F7942F210705D
:103D4000B8FBF0F0B0FBF6F0401E87B213E040F68F
:103D5000B830864209D24FF063096420B8FBF0F016
:103D6000B0FBF6F0401E87B205E04FF00009B8FB4B
:103D7000F6F0401E87B2ADF81470ADF81090002038
:103D8000ADF81600ADF812008DF8180004A9204611
:103D9000FDF78CFE6846FEF7BEF96020ADF8000026
:103DA0000120ADF802000AFB07F042F21071B0FBEF
:103DB000F1F080B2ADF806000020ADF80800ADF8D3
:103DC0000400ADF80A00ADF80C00ADF80E00012DAE
:103DD00008D169462046FDF7A6FE08212046FEF7D9
:103DE000F1FA1FE0022D08D169462046FDF7DDFEFD
:103DF00008212046FEF7EFFA14E0032D08D16946AA
:103E00002046FDF71FFF08212046FEF7F1FA09E0E2
:103E1000042D07D169462046FDF75FFF08212046A3
:103E2000FEF7EFFA01212046FEF79CFA0121204619
:103E3000FEF798F94648844202D04648844203D1AE
:103E400001212046FEF79AF900BF42E72DE9FF4F16
:103E500087B0834614461D46DDE9146ABAF1000FA7
:103E60000FD100212046FEF77DF958460899FFF74B
:103E700001FF002258460899FDF7D5FA0BB0BDE8BE
:103E8000F08F42F2107082450DD100212046FEF7DE
:103E900069F958460899FFF7EDFE0122584608993E
:103EA000FDF7C1FAEAE72B46224658460899FFF784
:103EB000B1FE274884420BD02648844208D02648C9
:103EC000844205D02548844202D02548844203D14B
:103ED0002C48D0F8008002E02A48D0F80080642EF8
:103EE0000AD242F20F7942F21070B8FBF0F0B0FB48
:103EF000F6F0401E87B213E040F6B830864209D291
:103F00004FF063096420B8FBF0F0B0FBF6F0401E00
:103F100087B205E04FF00009B8FBF6F0401E87B20B
:103F2000ADF81470ADF810900020ADF81600ADF8A3
:103F3000120029E000080140000C0140001001407F
:103F40000014014000180140001C01400020014005
:103F5000002C014000340140004C01400050014061
:103F6000005401400004004000080040000C0040E4
:103F7000001000400014004000180040001C0040E9
:103F800000200040000000208DF8180004A9204601
:103F9000FDF78CFD6846FEF7BEF86020ADF8000026
:103FA0000020ADF802000AFB07F042F21071B0FBEE
:103FB000F1F080B2ADF806000020ADF80800042052
:103FC000ADF804000020ADF80A00ADF80C00ADF823
:103FD0000E00012D08D169462046FDF7A4FD0821F9
:103FE0002046FEF7EFF91FE0022D08D16946204672
:103FF000FDF7DBFD08212046FEF7EDF914E0032D67
:1040000008D169462046FDF71DFE08212046FEF72F
:10401000EFF909E0042D07D169462046FDF75DFE62
:1040200008212046FEF7EDF901212046FEF79AF916
:1040300001212046FEF796F87D48844202D07D4853
:10404000844203D101212046FEF798F800BF15E70E
:104050002DE9FF5F04460D4691469A467448844216
:1040600002D07448844207D12046FFF788FD83467A
:104070000121FDF7E3FB06E02046FFF780FD8346C4
:104080000121FDF7E8FB002D41D100212046FEF77C
:1040900069F8AB466648844202D14FF0190B28E01C
:1040A000B4F1804F02D14FF01C0B22E062488442F1
:1040B00002D14FF01D0B1CE06048844202D14FF04A
:1040C0001E0B16E05E48844202D14FF0320B10E026
:1040D0005C48844202D14FF0360B0AE05A488442D1
:1040E00002D14FF0370B04E05248844201D14FF027
:1040F0002C0B8DF800B08DF801908DF802A00020F7
:104100008DF803006846FCF764F9BDE8FF9F484856
:1041100084420BD04748844208D04C48844205D0A2
:104120004B48844202D04B48844202D14A48066838
:1041300001E049480668642D0AD242F20F7842F243
:104140001070B6FBF0F0B0FBF5F0401E87B213E044
:1041500040F6B830854209D24FF063086420B6FBC0
:10416000F0F0B0FBF5F0401E87B205E04FF000081C
:10417000B6FBF5F0401E87B2ADF80870ADF80480CC
:104180000020ADF80A00ADF806008DF80C0001A97A
:104190002046FDF78BFC01212046FEF7E3F80122C3
:1041A00011462046FDF7F9FF01212046FDF7DAFF11
:1041B0004FF0000B1E48844202D14FF0190B28E04B
:1041C000B4F1804F02D14FF01C0B22E01A48844218
:1041D00002D14FF01D0B1CE01848844202D14FF071
:1041E0001E0B16E01648844202D14FF0320B10E04D
:1041F0001448844202D14FF0360B0AE01248844240
:1042000002D14FF0370B04E00A48844201D14FF04D
:104210002C0B8DF800B08DF801908DF802A00120D4
:104220008DF803006846FCF7D4F800BF6DE7000086
:10423000002C014000340140000400400008004010
:10424000000C00400010004000140040004C0140F1
:1042500000500140005401400000002038B50446E1
:104260000121E068FDF7EAFAA08A80B2ADF800000B
:1042700010208DF8030003208DF8020069462069A4
:10428000FDF720F838BD10B52348FFF7E7FF2348B6
:10429000FFF7E4FF204A928A91B21F4A1069FDF7A6
:1042A000C0F81E4A928A91B21C4A1069FDF7B9F80B
:1042B00010BD19B9D0E90423136112E0002903DA13
:1042C000D0E9042353610CE08268521C82608A4268
:1042D00007DB0269D26843695A400369DA60002249
:1042E0008260704719B9D0E90423536112E00029B4
:1042F00003DAD0E9042313610CE08268521C826067
:104300008A4207DB0269D26843695A400369DA606E
:1043100000228260704700002C0100207401002000
:1043200038B504460E208DF8000006208DF80100F7
:1043300000208DF8020001208DF803006846FCF78C
:1043400048F825208DF800008DF8014000208DF8F8
:10435000020001208DF803006846FCF73AF838BDEA
:1043600000B58BB001210846FDF75BFA0021CD486E
:10437000FCF75DFECB48FCF78DFDCB480090CB48A9
:1043800001901020029032200390002004908020A1
:10439000059000200690079008904FF44050099037
:1043A00000200A906946BF48FCF716FE4FF4805083
:1043B000FCF76CFE0021BB48FCF739FE012202210C
:1043C000B848FCF740FE0021B6481430FCF72FFE39
:1043D000B4481430FCF75EFDB3480090B448019037
:1043E000002002903220039000200490802005904D
:1043F00000200690079008904FF44050099000204C
:104400000A906946A7481430FCF7E6FD4FF4803067
:10441000FCF73CFE0121A3481430FCF708FE0BB06A
:1044200000BD10B586B0044601210420FDF706FA50
:1044300001218803FDF702FA4FF40070ADF8140073
:1044400018208DF8170003208DF8160005A999484B
:10445000FCF738FF4FF48060ADF8140004208DF8AD
:10446000170005A99348FCF72DFF2046FFF758FFDA
:10447000FFF776FF4FF4E13001900020ADF808001F
:10448000ADF80A00ADF80C00ADF810000C20ADF846
:104490000E0001A98448001FFEF785F9012240F2B1
:1044A00024418148001FFEF716FA01217E48001FB3
:1044B000FEF705FA012280217B48001FFEF730FA43
:1044C000012240217848001FFEF72AFA06B010BDED
:1044D00010B5044601207849087072484438846455
:1044E00001217048FCF7A3FD10BD10B54FF48050BA
:1044F000FCF7D7FD50B100206F4908704FF4805091
:10450000FCF7C4FD00216748FCF791FD10BD08B51C
:104510000020009040F224416348001FFEF7C0FADB
:10452000D8B340F224416048001FFEF7E3FA5E482A
:10453000001FFEF735FA10215B48001FFEF7A7FAAF
:10454000002158481430FCF772FD4FF48030FCF71E
:104550009DFD54481430FCF781FDC0F132005749ED
:10456000087032204F494439C86500236A465049D3
:104570005348006802F078F932214D4807F0C7F936
:104580004B48484944394866012146481430FCF7F5
:104590004EFD4548001FFEF703FA009818B14FF092
:1045A00080504849086008BD70B505460C46002C8F
:1045B00003DA284607F0B6F904B200BF3E48007897
:1045C0000028FBD139492144487022462946374802
:1045D00007F084F9A0B2FFF77BFF70BD70B5044609
:1045E0000D4629462046FEF7D7F900BF8021204618
:1045F000FEF740FA0028F9D070BD70B506460C46AB
:10460000002500BF615D3046FFF7E8FF6D1C605D6F
:104610000028F7D100BF40213046FEF72BFA0028D2
:10462000F9D070BD2DE9F04105460C46260AE7B2E7
:1046300031462846FEF7B0F900BF80212846FEF734
:1046400019FA0028F9D039462846FEF7A5F900BF27
:1046500080212846FEF70EFA0028F9D0BDE8F08147
:1046600070B504460D46E1B20F48001FFEF794F9FD
:1046700000BF80210C48001FFEF7FCF90028F8D08D
:10468000204670BD10B5044600BF20210648001F1B
:10469000FEF7F0F90028F8D00348001FFEF780F974
:1046A00010BD000044000240043801409C0200207C
:1046B000CE020020000801408C0100208D01002066
:1046C0005400002004ED00E070B504460E462EB103
:1046D0004FF48061FA48FCF7A2FE04E04FF48061D9
:1046E000F748FCF79EFE002519E00421F548FCF789
:1046F00098FE04F0800028B14FF48051F048FCF798
:104700008EFE04E04FF48051ED48FCF78AFE042150
:10471000EC48FCF784FE6006040E681CC5B2082D48
:10472000E3DB4FF48061E648FCF779FE70BD70B5BD
:1047300004460D4605F1B001C8B20021FFF7C4FFE1
:10474000A11CC1F3031141F010000021FFF7BCFFD1
:10475000A11C01F00F000021FFF7B6FF70BDF0B5FE
:10476000144600267F2801DC3F2900DDF0BD0B4602
:10477000CF1701EB5777FF10C7F10707FAB2CF1732
:1047800001EB5777FF10A1EBC707FDB2C5F1070793
:104790000123BB40DEB24CB1CB4B03EBC0039B5CAF
:1047A0003343C94F07EBC007BB5408E0C64B03EBCC
:1047B000C0039B5CB343C44F07EBC007BB5400BFAF
:1047C000D4E770B502460025C1F13F00C1B20846EA
:1047D000CE1701EB5676F310CE1701EB5676F61096
:1047E000A1EBC606F4B20120A040C5B2B64800EB6A
:1047F000C200C05C284008B1012070BD0020FCE769
:1048000010B500218D20FFF75FFF00211420FFF776
:104810005BFF0021AF20FFF757FF10BD10B500214F
:104820008D20FFF751FF00211020FFF74DFF0021E1
:10483000AE20FFF749FF10BD70B500241CE004F165
:10484000B001C8B20021FFF73FFF00210220FFF7AF
:104850003BFF00211020FFF737FF002508E09A49B1
:1048600001EBC501085D0121FFF72EFF681CC5B2F1
:10487000802DF4DB601CC4B2082CE0DB70BD70B589
:1048800000240CE0002506E000208F4901EBC50163
:104890000855681CC5B2802DF6DB601CC4B2082C1C
:1048A000F0DBFFF7C9FF70BD70B500240CE00025F8
:1048B00006E0FF20844901EBC5010855681CC5B21C
:1048C000802DF6DB601CC4B2082CF0DBFFF7B4FFD0
:1048D00070BD2DE9F04706460F4690469946DDF833
:1048E00020A034460CE03D4606E0524629462046CC
:1048F000FFF735FF681CC5B24D45F6DD601CC4B23C
:104900004445F0DDBDE8F0872DE9FF4F82B0074652
:104910000C46904600250026A9460097A346059818
:10492000012802D0022852D152E0B8F1000F4ED037
:10493000A8F12000C5B265480078012804D1002DF7
:1049400002DB6249087002E00020604908707E2F97
:1049500002DD0027601CC4B2002636E005EB4500EE
:104960005B4901EB400010F806A04FF0000926E07B
:104970000AF0800058B15548007808B9012000E0DD
:104980000020024621463846FFF7E9FE05E04F4881
:10499000027821463846FFF7E2FE4FEA4A604FEAC6
:1049A000106A601CC4B2A4EB0B00082803D15C465B
:1049B000781CC7B206E009F1010000F0FF09B9F167
:1049C000080FD5DB00BF701CC6B2062EC6DB73E035
:1049D000B8F1000F6FD0A8F12000C5B23B480078B5
:1049E000012804D1002D02DB3849087002E00020C4
:1049F00036490870782F02DD0027601CC4B20026FB
:104A000057E006EB0510334911F800A006EB05103E
:104A10000830085C01904FF0000944E00AF0800083
:104A200058B12A48007808B9012000E00020024669
:104A300021463846FFF793FE05E0244802782146D8
:104A40003846FFF78CFE019800F0800068B11F48DF
:104A5000007808B9012000E00020024604F10800B7
:104A6000C1B23846FFF77BFE07E004F10800C1B28F
:104A7000164802783846FFF772FE4FEA4A604FEA5E
:104A8000106A01984006000E0190601CC4B2A4EBAD
:104A90000B00082803D15C46781CC7B206E009F178
:104AA000010000F0FF09B9F1080FB7DB00BF701C6F
:104AB000C6B2082EA5DB00BF00BF06B0BDE8F08F70
:104AC0000010014000140140000300208F0100206D
:104AD00020C8000848CA00082DE9F04107460E46E4
:104AE0009046002500244546FE480078012804D160
:104AF000002D02DBFB49087002E00020F949087034
:104B0000782F02DD0027701CC6B231463846FFF709
:104B10000EFE002408E004EB8511F34A505C0121ED
:104B2000FFF7D2FD601CC4B2082CF4DB07F10801CA
:104B3000C8B23146FFF7FBFD002409E004EB851104
:104B40000831E94A505C0121FFF7BEFD601CC4B288
:104B5000082CF3DB701CC1B23846FFF7E8FD0024D7
:104B600009E004EB85111031DF4A505C0121FFF7A9
:104B7000ABFD601CC4B2082CF3DB721CD1B207F190
:104B80000802D0B2FFF7D3FD002409E004EB851141
:104B90001831D54A505C0121FFF796FD601CC4B264
:104BA000082CF3DBB01CC1B23846FFF7C0FD00246F
:104BB00009E004EB85112031CB4A505C0121FFF75D
:104BC00083FD601CC4B2082CF3DBB21CD1B207F128
:104BD0000802D0B2FFF7ABFD002409E004EB851119
:104BE0002831C14A505C0121FFF76EFD601CC4B240
:104BF000082CF3DBF01CC1B23846FFF798FD002407
:104C000009E004EB85113031B74A505C0121FFF710
:104C10005BFD601CC4B2082CF3DBF21CD1B207F1BF
:104C20000802D0B2FFF783FD002409E004EB8511F0
:104C30003831AD4A505C0121FFF746FD601CC4B21B
:104C4000082CF3DBBDE8F08110B50246012000E03E
:104C500050430B00A1F10104E1B2F9D110BD2DE9DF
:104C6000FF4F87B0064692461F46DDE91494D346AF
:104C7000002004900021504607F0FCF816D223468D
:104C80002D2230460899FFF73FFE012C05D104EB99
:104C9000440006EB4000C6B202E006EB8400C6B258
:104CA000781EC7B28AF0004A8BF0004B504607F0DE
:104CB0007AF8069000254DE0781B401EC1B20A200C
:104CC000FFF7C2FF0699B1FBF0F00A21B0FBF1F249
:104CD00001FB12080498F8B9781EA8421CDDB8F14F
:104CE000000F17D1012C0BD104EB4401490001FB4B
:104CF0000561C8B2234620220899FFF705FE08E0A7
:104D0000A10001FB0561C8B2234620220899FFF7E4
:104D1000FBFD1DE001200490012C0DD108F13001B4
:104D2000CAB204EB4401490001FB0561C8B2234645
:104D30000899FFF7E9FD0AE008F13001CAB2A100C5
:104D400001FB0561C8B223460899FFF7DDFD00BFEE
:104D5000681CC5B2BD42AFDBB9F1000F71D0012CA8
:104D60000BD104EB4401490007FB0161C8B22346A3
:104D70002E220899FFF7C8FD08E0A10007FB01619A
:104D8000C8B223462E220899FFF7BEFD584607F009
:104D900042F8564A564BCDE9000106F05DFECDE9DA
:104DA000020107F04BF8834649460A20FFF74CFF03
:104DB000009006F0E2FF0290069806F0DEFF5946EA
:104DC000009006F014FE0190029906F013FE039085
:104DD00006F0E9FF0590002551E0A9EB0500401E13
:104DE000C1B20A20FFF730FF0599B1FBF0F00A21AC
:104DF000B0FBF1F201FB12084D453EDAB8F1000FAD
:104E000020D0012C0FD104EB44014B00E919491CBF
:104E100003FB0161C8B208F13001CAB22346089908
:104E2000FFF772FD29E0A300E919491C03FB0161AA
:104E3000C8B208F13001CAB223460899FFF764FDF1
:104E40001BE01EE0012C0DD104EB44014A00E919DE
:104E5000491C02FB0161C8B2234630220899FFF7C2
:104E600053FD0AE0A200E919491C02FB0161C8B226
:104E7000234630220899FFF747FD681CC5B24D450F
:104E8000ABDB0BB0BDE8F08F2DE9F0470646894655
:104E900017461D464FF0000A002F0ADA0B2249463A
:104EA0003046FFF719FE06F11000C6B2681EC5B203
:104EB0007F42002435E0281B401EC1B20A20FFF7C4
:104EC000C3FEB7FBF0F00A21B0FBF1F201FB1208C0
:104ED000BAF1000F19D1681EA04216DDB8F1000F1B
:104EE00011D107E08F01002038D00008F168E38875
:104EF000B5F8E43E102101FB0461C8B20D22494619
:104F0000FFF7EAFD0BE04FF0010A08F0FF02102165
:104F100001FB0461C8B24946FFF7DEFD00BF601C1B
:104F2000C4B2AC42C7DBBDE8F0872DE9F0410446CE
:104F30000F4615469846002615E0AA5D43463946B9
:104F40002046FFF7E1FCB8F1020F03D104F108009D
:104F5000C4B201E0A01DC4B2782C02DD0024B81C4C
:104F6000C7B2701CC6B2A85D0028E6D1BDE8F081CA
:104F70002DE9F04F07460C4616460025A846A346E5
:104F800000BF57E07000401CE34901EB401010F8EF
:104F9000059001EB861010F805A04FF0000843E0E3
:104FA00009F0800058B1DD48007808B9012000E020
:104FB0000020024621463846FFF7D1FB05E0D748DE
:104FC000027821463846FFF7CAFB0AF0800068B134
:104FD000D248007808B9012000E00020024604F120
:104FE0000800C1B23846FFF7BAFB07E004F1080039
:104FF000C1B2CA4802783846FFF7B1FB4FEA4960B0
:105000004FEA10694FEA4A604FEA106A601CC4B266
:10501000A4EB0B00082803D15C46781CC7B206E05D
:1050200008F1010000F0FF08B8F1080FB8DB00BF7D
:10503000681CC5B2102DA5DBBDE8F08F2DE9FF4F30
:1050400085B081460E461F46129C0396029709EBD7
:105050000700802803DDC7F18000C0B2029025461A
:105060003019402802DDC4F14000C5B22046E217E5
:1050700004EB5272D2102146E31704EB5373DB109A
:10508000A4EBC3030BB1012300E000231A44D2B206
:1050900001922846EA1705EB5272D2102946EB1707
:1050A00005EB5373DB10A5EBC3030BB1012300E049
:1050B00000231A44D2B200924FF0000843E04FF0B0
:1050C000000A39E0019808FB00A1079810F801B028
:1050D0000020049028E00BF0800058B18F48007841
:1050E00008B9012000E00020024631464846FFF79B
:1050F00036FB05E08948027831464846FFF72FFB2A
:105100004FEA4B604FEA106B701CC6B20398301A1E
:10511000A84205D1039E09F1010000F0FF0906E055
:105120000498401CC0B2049004980828D3DB00BF48
:105130000AF1010000F0FF0A00988245C2DB08F185
:10514000010000F0FF0802988045B8DB09B0BDE817
:10515000F08F1FB501211020FCF770FB4FF4806029
:10516000ADF8080010208DF80B0003208DF80A0020
:1051700002A96B48FCF7A6F801211020FCF75EFBA2
:105180004FF40060ADF8040010208DF807000320F4
:105190008DF8060001A96248FCF794F8012120204F
:1051A000FCF74CFB0420ADF80C0010208DF80F002C
:1051B00003208DF80E0003A95A48FCF783F801215B
:1051C0001020FCF73BFB4FF48050ADF8000010209E
:1051D0008DF8030003208DF8020069465048FCF763
:1051E00071F804214F48FCF71AF94FF480514C48EC
:1051F000FCF715F94FF480614948FCF710F94FF4BA
:1052000000614748FCF70BF94FF400614448FCF794
:1052100008F94548FEF7A5FB4FF400614048FCF74C
:10522000FEF80021AE20FFF74FFA00210220FFF721
:105230004BFA00211020FFF747FA00214020FFF72A
:1052400043FA00218120FFF73FFA0021CF20FFF72A
:105250003BFA0021A120FFF737FA0021C820FFF711
:1052600033FA0021A620FFF72FFA0021A820FFF72C
:105270002BFA00213F20FFF727FA0021D320FFF768
:1052800023FA00210846FFF71FFA0021D520FFF777
:105290001BFA00218020FFF717FA0021D920FFF721
:1052A00013FA0021F120FFF70FFA0021DA20FFF7AF
:1052B0000BFA00211220FFF707FA0021DB20FFF78D
:1052C00003FA00214020FFF7FFF900212020FFF71B
:1052D000FBF900210220FFF7F7F900218D20FFF7ED
:1052E000F3F900211420FFF7EFF90021A420FFF7C4
:1052F000EBF90021A620FFF7E7F90021AF20FFF727
:10530000E3F90021AF20FFF7DFF9FFF7B8FA00213A
:105310000846FFF70CFA1FBDB8D300088F01002024
:105320000010014000140140A086010008B50121D1
:105330000820FCF783FA4FF48050ADF800000320FA
:105340008DF8020010208DF8030069469148FBF7A4
:10535000B9FF01210820FCF771FA4FF40050ADF8B5
:10536000000003208DF8020010208DF8030069462C
:105370008848FBF7A7FF01210820FCF75FFA4FF4EC
:105380008040ADF8000003208DF8020010208DF859
:10539000030069467F48FBF795FF01210820FCF7D1
:1053A0004DFA4FF40040ADF8000003208DF80200E4
:1053B00010208DF8030069467648FBF783FF012132
:1053C0001020FCF73BFA4FF47070ADF80000182085
:1053D0008DF8030003208DF8020069466E48FBF744
:1053E00071FF08BD30B587B005460C46FFF79EFF3C
:1053F00001214803FCF722FAADF81450ADF8104033
:105400000020ADF81600ADF8120004A96348FCF7BF
:105410004DFB6020ADF800000120ADF80200002037
:10542000ADF80600ADF808005C481830008840F080
:1054300060005A49183108800846008840F4C0408E
:105440000880081D008840F06000091D088008469B
:10545000008840F4C0400880081D008840F001002A
:10546000091D08800846008840F0100008800846A2
:10547000008840F4807008800846008840F480501E
:10548000088008214548FCF79DFF08214348FCF7A8
:10549000A2FF08214148FCF7ABFF08213F48FCF779
:1054A000B0FF01213D48FCF75DFF01213B48FCF7BF
:1054B00065FE4FF4E150394934310880091D0880F8
:1054C000091D0880091D088001213448FCF74AFEA7
:1054D00007B030BD10B50446207830B1012817D090
:1054E00002282AD0032852D13CE0A068002803DA21
:1054F00000202B49086002E0012029490860A068CB
:10550000FDF799FCC0F5E1502449343108803FE0B3
:10551000A068002804DD00202149091D086003E07F
:1055200001201F49091D0860A068FDF784FCC0F533
:10553000E1501A49383108802AE0A068002804DACE
:10554000002017490831086003E0012014490831A0
:105550000860A068FDF76FFCC0F5E1500F493C31D1
:10556000088015E0A068002804DD00200C490C31FB
:10557000086003E001200A490C310860A068FDF7CB
:105580005AFCC0F5E15005494031088000E000BFF9
:1055900000BF10BD000C014000100140003401406C
:1055A000B081214200B587B001210846FCF753F9CC
:1055B00001210D20FCF742F90121BD48FBF753FF03
:1055C0000121BC48FBF74FFF4FF40040ADF800004D
:1055D00004208DF803006946B748FBF773FE0820E6
:1055E000ADF8000004208DF803006946B348FBF7CE
:1055F00069FE04A8FCF786FD0020ADF810004FF608
:10560000FF70ADF814000020ADF81600ADF81200E0
:1056100004A94FF08040FCF749FA00231A46032101
:105620004FF08040FCF751FE01A8FCF77EFD0A20F8
:10563000ADF80C0001A94007FCF7CBFC012188075D
:10564000FDF756F8012211469007FCF7A6FD002150
:105650004FF08040FDF71AF801218807FCF782FD22
:1056600007B000BD00B587B001210220FCF7F3F8B8
:1056700001210420FCF7E2F8C020ADF8000004206E
:105680008DF8030069468C48FBF71CFE04A8FCF764
:1056900039FD0020ADF810004FF6FF70ADF8140092
:1056A0000020ADF81600ADF8120004A98448FCF7FC
:1056B000FDF900231A4603218148FCF706FE01A8E4
:1056C000FCF733FD0A20ADF80C0001A97C48FCF77B
:1056D00080FC01217A48FDF70BF801221146784839
:1056E000FCF75BFD00217648FCF7D0FF01217448F0
:1056F000FCF738FD07B000BD00B587B001210420DC
:10570000FCF7A9F801210820FCF798F8C020ADF8B3
:10571000000004208DF8030069466748FBF7D2FDBE
:1057200004A8FCF7EFFC0020ADF810004FF6FF7066
:10573000ADF814000020ADF81600ADF8120004A971
:105740006048FCF7B3F900231A4603215D48FCF7D3
:10575000BCFD01A8FCF7E9FC0A20ADF80C0001A98A
:105760005848FCF736FC01215648FCF7C1FF0122DE
:1057700011465448FCF711FD00215248FCF786FF02
:1057800001215048FCF7EEFC07B000BD00B587B022
:1057900001210820FCF75FF801210420FCF74EF8F6
:1057A0000320ADF8000004208DF80300694642484C
:1057B000FBF788FD04A8FCF7A5FC0020ADF810005D
:1057C0004FF6FF70ADF814000020ADF81600ADF8EC
:1057D000120004A93C48FCF769F900231A4603218A
:1057E0003948FCF772FD01A8FCF79FFC0A20ADF8D0
:1057F0000C0001A93448FCF7ECFB01213248FCF70E
:1058000077FF012211463048FCF7C7FC00212E48E3
:10581000FCF73CFF01212C48FCF7A4FC07B000BDBD
:105820000146012906D002290DD0032914D00429EC
:1058300024D11AE04FF08042928C10B200224FF037
:1058400080439A841CE01E4A2432128810B200223F
:105850001B4B24331A8013E01A4A2432128810B2E8
:105860000022184B24331A800AE0174A2432128887
:1058700010B20022144B24331A8001E0002000BF34
:1058800000BF704710B501210D48FCF734FF01211E
:105890000B48FCF741FF10BD4FF08040008A4FF0ED
:1058A0008040008A20F001004FF08041088270475C
:1058B000000118000002300000080140000C014007
:1058C0000004004000080040000C004008B5012121
:1058D0004806FBF7C0FF01210420FBF7AFFF4FF4A0
:1058E0008050ADF8000003208DF8020018208DF8DC
:1058F000030069464648FBF7E5FC4FF40060ADF84D
:10590000000003208DF8020048208DF8030069464E
:105910003F48FBF7D7FC08BD0EB53E48FAF7C2FD7D
:105920006846FAF7E3FE01208DF807008DF80800BD
:1059300000208DF8020001208DF809008DF80A0082
:1059400000208DF806008DF80B0004208DF804006F
:1059500002208DF8050001208DF803000420ADF829
:10596000000069462B48FAF7B6FD0EBD1FB50120B1
:105970008DF80D000020ADF808008DF80A00012018
:105980008DF80C0000208DF80B00ADF80000ADF88C
:105990000200ADF80400ADF806006846FAF725FEEF
:1059A000012202211B48FBF71FF91FBD08B5142077
:1059B0008DF8000003208DF8010000208DF8020012
:1059C00001208DF803006846FAF703FD08BD10B505
:1059D000FFF77CFFFFF7A0FFFFF7C8FFFFF7E6FF29
:1059E00010BD08B5002000900B4A00210948FAF7C5
:1059F000E0FF00236A4608490848006800F034FFC9
:105A0000009818B14FF080500549086008BD0000AB
:105A10000008014000640040140700205C000020E2
:105A200004ED00E010B501468E4800E00068036810
:105A30008B42FBD30246436813448B4204D1436834
:105A40004C682344436001460A464B68134404688B
:105A5000A34211D1844C03682468A34208D04B6848
:105A60000468646823444B6003681B680B6005E0AE
:105A70007D4B1B680B6001E003680B60884200D01F
:105A8000016010BD30B54FF4F043784800F00704D2
:105A90002CB1C01D20F00700744C041B1B1B0246D8
:105AA000704C226000246F4D6C60D018083820F0D4
:105AB00007006D4C206000246B4D2D686C606A4DB2
:105AC0002D682C601146441A4C60674C24680C60A9
:105AD000674D4C682C60674D4C682C604FF000445B
